{
	"data": {
		"bytecode": {
			"linkReferences": {},
			"object": "60806040523480156200001157600080fd5b5060405162011427380380620114278339818101604052810190620000379190620002eb565b620000576200004b620000e360201b60201c565b620000eb60201b60201c565b80600190805190602001906200006f929190620001af565b506040516200007e9062000240565b604051809103906000f0801580156200009b573d6000803e3d6000fd5b50600260006101000a81548173ffffffffffffffffffffffffffffffffffffffff021916908373ffffffffffffffffffffffffffffffffffffffff16021790555050620004c0565b600033905090565b60008060009054906101000a900473ffffffffffffffffffffffffffffffffffffffff169050816000806101000a81548173ffffffffffffffffffffffffffffffffffffffff021916908373ffffffffffffffffffffffffffffffffffffffff1602179055508173ffffffffffffffffffffffffffffffffffffffff168173ffffffffffffffffffffffffffffffffffffffff167f8be0079c531659141344cd1fd0a4f28419497f9722a3daafe3b4186f6b6457e060405160405180910390a35050565b828054620001bd90620003d1565b90600052602060002090601f016020900481019282620001e157600085556200022d565b82601f10620001fc57805160ff19168380011785556200022d565b828001600101855582156200022d579182015b828111156200022c5782518255916020019190600101906200020f565b5b5090506200023c91906200024e565b5090565b616548806200aedf83390190565b5b80821115620002695760008160009055506001016200024f565b5090565b6000620002846200027e8462000365565b6200033c565b905082815260208101848484011115620002a357620002a2620004a0565b5b620002b08482856200039b565b509392505050565b600082601f830112620002d057620002cf6200049b565b5b8151620002e28482602086016200026d565b91505092915050565b600060208284031215620003045762000303620004aa565b5b600082015167ffffffffffffffff811115620003255762000324620004a5565b5b6200033384828501620002b8565b91505092915050565b6000620003486200035b565b905062000356828262000407565b919050565b6000604051905090565b600067ffffffffffffffff8211156200038357620003826200046c565b5b6200038e82620004af565b9050602081019050919050565b60005b83811015620003bb5780820151818401526020810190506200039e565b83811115620003cb576000848401525b50505050565b60006002820490506001821680620003ea57607f821691505b602082108114156200040157620004006200043d565b5b50919050565b6200041282620004af565b810181811067ffffffffffffffff821117156200043457620004336200046c565b5b80604052505050565b7f4e487b7100000000000000000000000000000000000000000000000000000000600052602260045260246000fd5b7f4e487b7100000000000000000000000000000000000000000000000000000000600052604160045260246000fd5b600080fd5b600080fd5b600080fd5b600080fd5b6000601f19601f8301169050919050565b61aa0f80620004d06000396000f3fe608060405234801561001057600080fd5b506004361061009e5760003560e01c80638da5cb5b116100665780638da5cb5b14610133578063af640d0f14610151578063c19d93fb1461016f578063d826f88f1461018d578063f2fde38b146101975761009e565b806308dd8cff146100a35780631650d3ce146100c157806337306d84146100dd57806354a8bd07146100f9578063715018a614610129575b600080fd5b6100ab6101b3565b6040516100b8919061a044565b60405180910390f35b6100db60048036038101906100d6919061980b565b6101c0565b005b6100f760048036038101906100f291906198ca565b6102fa565b005b610113600480360381019061010e9190619913565b610355565b604051610120919061a022565b60405180910390f35b610131610490565b005b61013b6104a4565b6040516101489190619d6a565b60405180910390f35b6101596104cd565b6040516101669190619da0565b60405180910390f35b61017761055b565b6040516101849190619d85565b60405180910390f35b610195610581565b005b6101b160048036038101906101ac91906197de565b610660565b005b6000600380549050905090565b6101c86106e4565b60005b81518110156102db57600260009054906101000a900473ffffffffffffffffffffffffffffffffffffffff1673ffffffffffffffffffffffffffffffffffffffff16638fe8bb968383815181106102255761022461a456565b5b60200260200101516040518263ffffffff1660e01b8152600401610249919061a022565b600060405180830381600087803b15801561026357600080fd5b505af1158015610277573d6000803e3d6000fd5b505050506004600181819054906101000a900467ffffffffffffffff16809291906102a19061a398565b91906101000a81548167ffffffffffffffff021916908367ffffffffffffffff1602179055505080806102d39061a34f565b9150506101cb565b506001600460006101000a81548160ff02191690831515021790555050565b600460009054906101000a900460ff16610349576040517f08c379a000000000000000000000000000000000000000000000000000000000815260040161034090619de2565b60405180910390fd5b61035281610762565b50565b61035d618e72565b600382815481106103715761037061a456565b5b90600052602060002090600202016040518060600160405290816000820160009054906101000a900467ffffffffffffffff1667ffffffffffffffff1667ffffffffffffffff1681526020016000820160089054906101000a900460ff1660088111156103e1576103e061a3f8565b5b60088111156103f3576103f261a3f8565b5b81526020016001820180546104079061a2ec565b80601f01602080910402602001604051908101604052809291908181526020018280546104339061a2ec565b80156104805780601f1061045557610100808354040283529160200191610480565b820191906000526020600020905b81548152906001019060200180831161046357829003601f168201915b5050505050815250509050919050565b6104986106e4565b6104a26000610b00565b565b60008060009054906101000a900473ffffffffffffffffffffffffffffffffffffffff16905090565b600180546104da9061a2ec565b80601f01602080910402602001604051908101604052809291908181526020018280546105069061a2ec565b80156105535780601f1061052857610100808354040283529160200191610553565b820191906000526020600020905b81548152906001019060200180831161053657829003601f168201915b505050505081565b600260009054906101000a900473ffffffffffffffffffffffffffffffffffffffff1681565b6105896106e4565b600260009054906101000a900473ffffffffffffffffffffffffffffffffffffffff1673ffffffffffffffffffffffffffffffffffffffff1663d826f88f6040518163ffffffff1660e01b8152600401600060405180830381600087803b1580156105f357600080fd5b505af1158015610607573d6000803e3d6000fd5b505050506000600460016101000a81548167ffffffffffffffff021916908367ffffffffffffffff160217905550600360006106439190618eaf565b6000600460006101000a81548160ff021916908315150217905550565b6106686106e4565b600073ffffffffffffffffffffffffffffffffffffffff168173ffffffffffffffffffffffffffffffffffffffff1614156106d8576040517f08c379a00000000000000000000000000000000000000000000000000000000081526004016106cf90619e02565b60405180910390fd5b6106e181610b00565b50565b6106ec610bc4565b73ffffffffffffffffffffffffffffffffffffffff1661070a6104a4565b73ffffffffffffffffffffffffffffffffffffffff1614610760576040517f08c379a000000000000000000000000000000000000000000000000000000000815260040161075790619f22565b60405180910390fd5b565b600360088111156107765761077561a3f8565b5b8160400151600881111561078d5761078c61a3f8565b5b14156107fc576000806107ab60008460600151856060015151610bcc565b9250509150816107f0576040517f08c379a00000000000000000000000000000000000000000000000000000000081526004016107e790619ec2565b60405180910390fd5b6107f981610d86565b50505b600760088111156108105761080f61a3f8565b5b816040015160088111156108275761082661a3f8565b5b14156108965760008061084560008460600151856060015151610f6a565b92505091508161088a576040517f08c379a000000000000000000000000000000000000000000000000000000000815260040161088190619f82565b60405180910390fd5b61089381611124565b50505b6008808111156108a9576108a861a3f8565b5b816040015160088111156108c0576108bf61a3f8565b5b141561092f576000806108de6000846060015185606001515161149b565b925050915081610923576040517f08c379a000000000000000000000000000000000000000000000000000000000815260040161091a90619f42565b60405180910390fd5b61092c81611655565b50505b600460088111156109435761094261a3f8565b5b8160400151600881111561095a5761095961a3f8565b5b14156109c95760008061097860008460600151856060015151611c69565b9250509150816109bd576040517f08c379a00000000000000000000000000000000000000000000000000000000081526004016109b490619f62565b60405180910390fd5b6109c681611e23565b50505b600560088111156109dd576109dc61a3f8565b5b816040015160088111156109f4576109f361a3f8565b5b1415610a6357600080610a12600084606001518560600151516121be565b925050915081610a57576040517f08c379a0000000000000000000000000000000000000000000000000000000008152600401610a4e90619ee2565b60405180910390fd5b610a6081612378565b50505b60066008811115610a7757610a7661a3f8565b5b81604001516008811115610a8e57610a8d61a3f8565b5b1415610afd57600080610aac60008460600151856060015151612616565b925050915081610af1576040517f08c379a0000000000000000000000000000000000000000000000000000000008152600401610ae890619dc2565b60405180910390fd5b610afa816127d0565b50505b50565b60008060009054906101000a900473ffffffffffffffffffffffffffffffffffffffff169050816000806101000a81548173ffffffffffffffffffffffffffffffffffffffff021916908373ffffffffffffffffffffffffffffffffffffffff1602179055508173ffffffffffffffffffffffffffffffffffffffff168173ffffffffffffffffffffffffffffffffffffffff167f8be0079c531659141344cd1fd0a4f28419497f9722a3daafe3b4186f6b6457e060405160405180910390a35050565b600033905090565b600080610bd7618ed3565b610bdf618ed3565b6000808890508067ffffffffffffffff168782610bfc919061a13f565b67ffffffffffffffff161015610c1e5760008184955095509550505050610d7d565b5b8667ffffffffffffffff168982610c36919061a1bf565b67ffffffffffffffff161015610d37576000806000610c55848c612ed7565b8094508195508297508396505050505082610c7f5760008487985098509850505050505050610d7d565b60058267ffffffffffffffff161115610ca75760008487985098509850505050505050610d7d565b8467ffffffffffffffff168267ffffffffffffffff1611610cd75760008487985098509850505050505050610d7d565b610ce18282613023565b925082610cfd5760008487985098509850505050505050610d7d565b610d0a848c8c858a61317a565b809550819450505082610d2c5760008487985098509850505050505050610d7d565b819450505050610c1f565b8689610d43919061a13f565b67ffffffffffffffff168167ffffffffffffffff1614610d6f5760008184955095509550505050610d7d565b600181849550955095505050505b93509350939050565b6000600260009054906101000a900473ffffffffffffffffffffffffffffffffffffffff169050600015158173ffffffffffffffffffffffffffffffffffffffff1663861743966040518163ffffffff1660e01b815260040160206040518083038186803b158015610df757600080fd5b505afa158015610e0b573d6000803e3d6000fd5b505050506040513d601f19601f82011682018060405250810190610e2f9190619854565b151514610e71576040517f08c379a0000000000000000000000000000000000000000000000000000000008152600401610e6890619e22565b60405180910390fd5b610e79618f16565b82600001518160000181905250826020015181602001819052508260400151816040019067ffffffffffffffff16908167ffffffffffffffff16815250508260400151816060019067ffffffffffffffff16908167ffffffffffffffff1681525050610ee3618e72565b600460019054906101000a900467ffffffffffffffff16816000019067ffffffffffffffff16908167ffffffffffffffff1681525050600381602001906008811115610f3257610f3161a3f8565b5b90816008811115610f4657610f4561a3f8565b5b81525050610f5382613302565b8160400181905250610f6481613f30565b50505050565b600080610f75618f59565b610f7d618f59565b6000808890508067ffffffffffffffff168782610f9a919061a13f565b67ffffffffffffffff161015610fbc576000818495509550955050505061111b565b5b8667ffffffffffffffff168982610fd4919061a1bf565b67ffffffffffffffff1610156110d5576000806000610ff3848c612ed7565b809450819550829750839650505050508261101d576000848798509850985050505050505061111b565b60038267ffffffffffffffff161115611045576000848798509850985050505050505061111b565b8467ffffffffffffffff168267ffffffffffffffff1611611075576000848798509850985050505050505061111b565b61107f82826140b7565b92508261109b576000848798509850985050505050505061111b565b6110a8848c8c858a61418a565b8095508194505050826110ca576000848798509850985050505050505061111b565b819450505050610fbd565b86896110e1919061a13f565b67ffffffffffffffff168167ffffffffffffffff161461110d576000818495509550955050505061111b565b600181849550955095505050505b93509350939050565b6000600260009054906101000a900473ffffffffffffffffffffffffffffffffffffffff169050600115158173ffffffffffffffffffffffffffffffffffffffff1663861743966040518163ffffffff1660e01b815260040160206040518083038186803b15801561119557600080fd5b505afa1580156111a9573d6000803e3d6000fd5b505050506040513d601f19601f820116820180604052508101906111cd9190619854565b15151461120f576040517f08c379a000000000000000000000000000000000000000000000000000000000815260040161120690619fe2565b60405180910390fd5b61129f8173ffffffffffffffffffffffffffffffffffffffff1663d21220a76040518163ffffffff1660e01b815260040160006040518083038186803b15801561125857600080fd5b505afa15801561126c573d6000803e3d6000fd5b505050506040513d6000823e3d601f19601f820116820180604052508101906112959190619881565b8360200151614280565b8061133657506113358173ffffffffffffffffffffffffffffffffffffffff166325be124e6040518163ffffffff1660e01b815260040160006040518083038186803b1580156112ee57600080fd5b505afa158015611302573d6000803e3d6000fd5b505050506040513d6000823e3d601f19601f8201168201806040525081019061132b9190619881565b8360200151614280565b5b611375576040517f08c379a000000000000000000000000000000000000000000000000000000000815260040161136c9061a002565b60405180910390fd5b6000826000015167ffffffffffffffff16116113c6576040517f08c379a00000000000000000000000000000000000000000000000000000000081526004016113bd90619e42565b60405180910390fd5b6113ce618f84565b826040015181604001819052508260000151816020019067ffffffffffffffff16908167ffffffffffffffff168152505082602001518160000181905250611414618e72565b600460019054906101000a900467ffffffffffffffff16816000019067ffffffffffffffff16908167ffffffffffffffff16815250506007816020019060088111156114635761146261a3f8565b5b908160088111156114775761147661a3f8565b5b81525050611484826142d9565b816040018190525061149581613f30565b50505050565b6000806114a6618faf565b6114ae618faf565b6000808890508067ffffffffffffffff1687826114cb919061a13f565b67ffffffffffffffff1610156114ed576000818495509550955050505061164c565b5b8667ffffffffffffffff168982611505919061a1bf565b67ffffffffffffffff161015611606576000806000611524848c612ed7565b809450819550829750839650505050508261154e576000848798509850985050505050505061164c565b60038267ffffffffffffffff161115611576576000848798509850985050505050505061164c565b8467ffffffffffffffff168267ffffffffffffffff16116115a6576000848798509850985050505050505061164c565b6115b08282614a76565b9250826115cc576000848798509850985050505050505061164c565b6115d9848c8c858a614b49565b8095508194505050826115fb576000848798509850985050505050505061164c565b8194505050506114ee565b8689611612919061a13f565b67ffffffffffffffff168167ffffffffffffffff161461163e576000818495509550955050505061164c565b600181849550955095505050505b93509350939050565b6000600260009054906101000a900473ffffffffffffffffffffffffffffffffffffffff169050600115158173ffffffffffffffffffffffffffffffffffffffff1663861743966040518163ffffffff1660e01b815260040160206040518083038186803b1580156116c657600080fd5b505afa1580156116da573d6000803e3d6000fd5b505050506040513d601f19601f820116820180604052508101906116fe9190619854565b151514611740576040517f08c379a000000000000000000000000000000000000000000000000000000000815260040161173790619fe2565b60405180910390fd5b6117d08173ffffffffffffffffffffffffffffffffffffffff1663d21220a76040518163ffffffff1660e01b815260040160006040518083038186803b15801561178957600080fd5b505afa15801561179d573d6000803e3d6000fd5b505050506040513d6000823e3d601f19601f820116820180604052508101906117c69190619881565b8360200151614280565b8061186757506118668173ffffffffffffffffffffffffffffffffffffffff166325be124e6040518163ffffffff1660e01b815260040160006040518083038186803b15801561181f57600080fd5b505afa158015611833573d6000803e3d6000fd5b505050506040513d6000823e3d601f19601f8201168201806040525081019061185c9190619881565b8360200151614280565b5b6118a6576040517f08c379a000000000000000000000000000000000000000000000000000000000815260040161189d9061a002565b60405180910390fd5b60006118b58360400151614c3f565b90506119478273ffffffffffffffffffffffffffffffffffffffff1663d21220a76040518163ffffffff1660e01b815260040160006040518083038186803b15801561190057600080fd5b505afa158015611914573d6000803e3d6000fd5b505050506040513d6000823e3d601f19601f8201168201806040525081019061193d9190619881565b8460200151614280565b15611a2557826000015167ffffffffffffffff168273ffffffffffffffffffffffffffffffffffffffff1663af62db3f836040518263ffffffff1660e01b81526004016119949190619d6a565b60206040518083038186803b1580156119ac57600080fd5b505afa1580156119c0573d6000803e3d6000fd5b505050506040513d601f19601f820116820180604052508101906119e49190619940565b11611a24576040517f08c379a0000000000000000000000000000000000000000000000000000000008152600401611a1b90619e62565b60405180910390fd5b5b611ab58273ffffffffffffffffffffffffffffffffffffffff166325be124e6040518163ffffffff1660e01b815260040160006040518083038186803b158015611a6e57600080fd5b505afa158015611a82573d6000803e3d6000fd5b505050506040513d6000823e3d601f19601f82011682018060405250810190611aab9190619881565b8460200151614280565b15611b9357826000015167ffffffffffffffff168273ffffffffffffffffffffffffffffffffffffffff16630c1fc829836040518263ffffffff1660e01b8152600401611b029190619d6a565b60206040518083038186803b158015611b1a57600080fd5b505afa158015611b2e573d6000803e3d6000fd5b505050506040513d601f19601f82011682018060405250810190611b529190619940565b11611b92576040517f08c379a0000000000000000000000000000000000000000000000000000000008152600401611b8990619e62565b60405180910390fd5b5b611b9b618fda565b836040015181604001819052508360000151816020019067ffffffffffffffff16908167ffffffffffffffff168152505083602001518160000181905250611be1618e72565b600460019054906101000a900467ffffffffffffffff16816000019067ffffffffffffffff16908167ffffffffffffffff1681525050600881602001906008811115611c3057611c2f61a3f8565b5b90816008811115611c4457611c4361a3f8565b5b81525050611c5182614c97565b8160400181905250611c6281613f30565b5050505050565b600080611c74619005565b611c7c619005565b6000808890508067ffffffffffffffff168782611c99919061a13f565b67ffffffffffffffff161015611cbb5760008184955095509550505050611e1a565b5b8667ffffffffffffffff168982611cd3919061a1bf565b67ffffffffffffffff161015611dd4576000806000611cf2848c612ed7565b8094508195508297508396505050505082611d1c5760008487985098509850505050505050611e1a565b60038267ffffffffffffffff161115611d445760008487985098509850505050505050611e1a565b8467ffffffffffffffff168267ffffffffffffffff1611611d745760008487985098509850505050505050611e1a565b611d7e8282615434565b925082611d9a5760008487985098509850505050505050611e1a565b611da7848c8c858a615507565b809550819450505082611dc95760008487985098509850505050505050611e1a565b819450505050611cbc565b8689611de0919061a13f565b67ffffffffffffffff168167ffffffffffffffff1614611e0c5760008184955095509550505050611e1a565b600181849550955095505050505b93509350939050565b6000600260009054906101000a900473ffffffffffffffffffffffffffffffffffffffff169050600115158173ffffffffffffffffffffffffffffffffffffffff1663861743966040518163ffffffff1660e01b815260040160206040518083038186803b158015611e9457600080fd5b505afa158015611ea8573d6000803e3d6000fd5b505050506040513d601f19601f82011682018060405250810190611ecc9190619854565b151514611f0e576040517f08c379a0000000000000000000000000000000000000000000000000000000008152600401611f0590619fe2565b60405180910390fd5b6000611f1d8360400151614c3f565b9050826000015167ffffffffffffffff168273ffffffffffffffffffffffffffffffffffffffff1663af62db3f836040518263ffffffff1660e01b8152600401611f679190619d6a565b60206040518083038186803b158015611f7f57600080fd5b505afa158015611f93573d6000803e3d6000fd5b505050506040513d601f19601f82011682018060405250810190611fb79190619940565b1015611ff8576040517f08c379a0000000000000000000000000000000000000000000000000000000008152600401611fef90619e82565b60405180910390fd5b826020015167ffffffffffffffff168273ffffffffffffffffffffffffffffffffffffffff16630c1fc829836040518263ffffffff1660e01b81526004016120409190619d6a565b60206040518083038186803b15801561205857600080fd5b505afa15801561206c573d6000803e3d6000fd5b505050506040513d601f19601f820116820180604052508101906120909190619940565b10156120d1576040517f08c379a00000000000000000000000000000000000000000000000000000000081526004016120c890619e82565b60405180910390fd5b6120d961903a565b836040015181604001819052508360000151816000019067ffffffffffffffff16908167ffffffffffffffff16815250508360200151816020019067ffffffffffffffff16908167ffffffffffffffff1681525050612136618e72565b600460019054906101000a900467ffffffffffffffff16816000019067ffffffffffffffff16908167ffffffffffffffff16815250506004816020019060088111156121855761218461a3f8565b5b908160088111156121995761219861a3f8565b5b815250506121a6826155fd565b81604001819052506121b781613f30565b5050505050565b6000806121c961906f565b6121d161906f565b6000808890508067ffffffffffffffff1687826121ee919061a13f565b67ffffffffffffffff161015612210576000818495509550955050505061236f565b5b8667ffffffffffffffff168982612228919061a1bf565b67ffffffffffffffff161015612329576000806000612247848c612ed7565b8094508195508297508396505050505082612271576000848798509850985050505050505061236f565b60028267ffffffffffffffff161115612299576000848798509850985050505050505061236f565b8467ffffffffffffffff168267ffffffffffffffff16116122c9576000848798509850985050505050505061236f565b6122d38282615cd0565b9250826122ef576000848798509850985050505050505061236f565b6122fc848c8c858a615d61565b80955081945050508261231e576000848798509850985050505050505061236f565b819450505050612211565b8689612335919061a13f565b67ffffffffffffffff168167ffffffffffffffff1614612361576000818495509550955050505061236f565b600181849550955095505050505b93509350939050565b6000600260009054906101000a900473ffffffffffffffffffffffffffffffffffffffff169050600115158173ffffffffffffffffffffffffffffffffffffffff1663861743966040518163ffffffff1660e01b815260040160206040518083038186803b1580156123e957600080fd5b505afa1580156123fd573d6000803e3d6000fd5b505050506040513d601f19601f820116820180604052508101906124219190619854565b151514612463576040517f08c379a000000000000000000000000000000000000000000000000000000000815260040161245a90619fe2565b60405180910390fd5b60006124728360200151614c3f565b9050826000015167ffffffffffffffff168273ffffffffffffffffffffffffffffffffffffffff1663ce7c2ac2836040518263ffffffff1660e01b81526004016124bc9190619d6a565b60206040518083038186803b1580156124d457600080fd5b505afa1580156124e8573d6000803e3d6000fd5b505050506040513d601f19601f8201168201806040525081019061250c9190619940565b101561254d576040517f08c379a000000000000000000000000000000000000000000000000000000000815260040161254490619f02565b60405180910390fd5b612555619093565b836020015181606001819052508360000151816000019067ffffffffffffffff16908167ffffffffffffffff168152505061258e618e72565b600460019054906101000a900467ffffffffffffffff16816000019067ffffffffffffffff16908167ffffffffffffffff16815250506005816020019060088111156125dd576125dc61a3f8565b5b908160088111156125f1576125f061a3f8565b5b815250506125fe82615e0e565b816040018190525061260f81613f30565b5050505050565b6000806126216190d9565b6126296190d9565b6000808890508067ffffffffffffffff168782612646919061a13f565b67ffffffffffffffff16101561266857600081849550955095505050506127c7565b5b8667ffffffffffffffff168982612680919061a1bf565b67ffffffffffffffff16101561278157600080600061269f848c612ed7565b80945081955082975083965050505050826126c957600084879850985098505050505050506127c7565b60038267ffffffffffffffff1611156126f157600084879850985098505050505050506127c7565b8467ffffffffffffffff168267ffffffffffffffff161161272157600084879850985098505050505050506127c7565b61272b82826166bf565b92508261274757600084879850985098505050505050506127c7565b612754848c8c858a616792565b80955081945050508261277657600084879850985098505050505050506127c7565b819450505050612669565b868961278d919061a13f565b67ffffffffffffffff168167ffffffffffffffff16146127b957600081849550955095505050506127c7565b600181849550955095505050505b93509350939050565b6000600260009054906101000a900473ffffffffffffffffffffffffffffffffffffffff16905060006128068360400151614c3f565b905060006060600115158473ffffffffffffffffffffffffffffffffffffffff1663861743966040518163ffffffff1660e01b815260040160206040518083038186803b15801561285657600080fd5b505afa15801561286a573d6000803e3d6000fd5b505050506040513d601f19601f8201168201806040525081019061288e9190619854565b1515146128d0576040517f08c379a00000000000000000000000000000000000000000000000000000000081526004016128c790619fe2565b60405180910390fd5b6129608473ffffffffffffffffffffffffffffffffffffffff1663d21220a76040518163ffffffff1660e01b815260040160006040518083038186803b15801561291957600080fd5b505afa15801561292d573d6000803e3d6000fd5b505050506040513d6000823e3d601f19601f820116820180604052508101906129569190619881565b8660200151614280565b15612b5357846000015167ffffffffffffffff168473ffffffffffffffffffffffffffffffffffffffff1663af62db3f856040518263ffffffff1660e01b81526004016129ad9190619d6a565b60206040518083038186803b1580156129c557600080fd5b505afa1580156129d9573d6000803e3d6000fd5b505050506040513d601f19601f820116820180604052508101906129fd9190619940565b1015612a3e576040517f08c379a0000000000000000000000000000000000000000000000000000000008152600401612a3590619fa2565b60405180910390fd5b8373ffffffffffffffffffffffffffffffffffffffff1663450177c686600001516040518263ffffffff1660e01b8152600401612a7b919061a05f565b60206040518083038186803b158015612a9357600080fd5b505afa158015612aa7573d6000803e3d6000fd5b505050506040513d601f19601f82011682018060405250810190612acb9190619940565b91508373ffffffffffffffffffffffffffffffffffffffff166325be124e6040518163ffffffff1660e01b815260040160006040518083038186803b158015612b1357600080fd5b505afa158015612b27573d6000803e3d6000fd5b505050506040513d6000823e3d601f19601f82011682018060405250810190612b509190619881565b90505b612be38473ffffffffffffffffffffffffffffffffffffffff166325be124e6040518163ffffffff1660e01b815260040160006040518083038186803b158015612b9c57600080fd5b505afa158015612bb0573d6000803e3d6000fd5b505050506040513d6000823e3d601f19601f82011682018060405250810190612bd99190619881565b8660200151614280565b15612dd657846000015167ffffffffffffffff168473ffffffffffffffffffffffffffffffffffffffff16630c1fc829856040518263ffffffff1660e01b8152600401612c309190619d6a565b60206040518083038186803b158015612c4857600080fd5b505afa158015612c5c573d6000803e3d6000fd5b505050506040513d601f19601f82011682018060405250810190612c809190619940565b1015612cc1576040517f08c379a0000000000000000000000000000000000000000000000000000000008152600401612cb890619fc2565b60405180910390fd5b8373ffffffffffffffffffffffffffffffffffffffff1663d3817b4a86600001516040518263ffffffff1660e01b8152600401612cfe919061a05f565b60206040518083038186803b158015612d1657600080fd5b505afa158015612d2a573d6000803e3d6000fd5b505050506040513d601f19601f82011682018060405250810190612d4e9190619940565b91508373ffffffffffffffffffffffffffffffffffffffff1663d21220a76040518163ffffffff1660e01b815260040160006040518083038186803b158015612d9657600080fd5b505afa158015612daa573d6000803e3d6000fd5b505050506040513d6000823e3d601f19601f82011682018060405250810190612dd39190619881565b90505b612dde619104565b856040015181608001819052508560000151816000019067ffffffffffffffff16908167ffffffffffffffff16815250508560200151816020018190525082816040019067ffffffffffffffff16908167ffffffffffffffff1681525050818160600181905250612e4d618e72565b600460019054906101000a900467ffffffffffffffff16816000019067ffffffffffffffff16908167ffffffffffffffff1681525050600681602001906008811115612e9c57612e9b61a3f8565b5b90816008811115612eb057612eaf61a3f8565b5b81525050612ebd82616888565b8160400181905250612ece81613f30565b50505050505050565b6000806000806000806000612eec89896174b6565b92509250925082612f0e5760008260006006965096509650965050505061301a565b600060038267ffffffffffffffff16901c90506000600783169050600680811115612f3c57612f3b61a3f8565b5b67ffffffffffffffff168167ffffffffffffffff1610612f6f57600084600060069850985098509850505050505061301a565b60008167ffffffffffffffff166006811115612f8e57612f8d61a3f8565b5b905060036006811115612fa457612fa361a3f8565b5b816006811115612fb757612fb661a3f8565b5b1480612fe7575060046006811115612fd257612fd161a3f8565b5b816006811115612fe557612fe461a3f8565b5b145b156130065760008560006006995099509950995050505050505061301a565b600185848399509950995099505050505050505b92959194509250565b600060018367ffffffffffffffff161415613067576002600681111561304c5761304b61a3f8565b5b82600681111561305f5761305e61a3f8565b5b149050613174565b60028367ffffffffffffffff1614156130a9576002600681111561308e5761308d61a3f8565b5b8260068111156130a1576130a061a3f8565b5b149050613174565b60038367ffffffffffffffff1614156130eb57600060068111156130d0576130cf61a3f8565b5b8260068111156130e3576130e261a3f8565b5b149050613174565b60048367ffffffffffffffff16141561312d57600060068111156131125761311161a3f8565b5b8260068111156131255761312461a3f8565b5b149050613174565b60058367ffffffffffffffff16141561316f57600260068111156131545761315361a3f8565b5b8260068111156131675761316661a3f8565b5b149050613174565b600090505b92915050565b600080600087905060018567ffffffffffffffff1614156131cb5760006131a28289876176ae565b8093508192505050806131bd576000829350935050506132f8565b6001829350935050506132f8565b60028567ffffffffffffffff1614156132145760006131eb828987617833565b809350819250505080613206576000829350935050506132f8565b6001829350935050506132f8565b60038567ffffffffffffffff16141561325d5760006132348289876179b8565b80935081925050508061324f576000829350935050506132f8565b6001829350935050506132f8565b60048567ffffffffffffffff1614156132a657600061327d828987617a3a565b809350819250505080613298576000829350935050506132f8565b6001829350935050506132f8565b60058567ffffffffffffffff1614156132ef5760006132c6828987617abc565b8093508192505050806132e1576000829350935050506132f8565b6001829350935050506132f8565b60008192509250505b9550959350505050565b606061330c619147565b600080600085600001515111156133675761333b6001600260068111156133365761333561a3f8565b5b617c41565b8360000181905250613351856000015151617c70565b8360200181905250846000015183604001819052505b600085602001515111156133be57613392600280600681111561338d5761338c61a3f8565b5b617c41565b83606001819052506133a8856020015151617c70565b836080018190525084602001518360a001819052505b6000856040015167ffffffffffffffff1614613410576133f26003600060068111156133ed576133ec61a3f8565b5b617c41565b8360c001819052506134078560400151617c70565b8360e001819052505b6000856060015167ffffffffffffffff16146134645761344460046000600681111561343f5761343e61a3f8565b5b617c41565b83610100018190525061345a8560600151617c70565b8361012001819052505b600085608001515111156134bf5761349060056002600681111561348b5761348a61a3f8565b5b617c41565b8361014001819052506134a7856080015151617c70565b83610160018190525084608001518361018001819052505b60606000915060009250836000015151836134da919061a13f565b9250836020015151836134ed919061a13f565b925083604001515183613500919061a13f565b925083606001515183613513919061a13f565b925083608001515183613526919061a13f565b92508360a001515183613539919061a13f565b92508360c00151518361354c919061a13f565b92508360e00151518361355f919061a13f565b92508361010001515183613573919061a13f565b92508361012001515183613587919061a13f565b9250836101400151518361359b919061a13f565b925083610160015151836135af919061a13f565b925083610180015151836135c3919061a13f565b92508267ffffffffffffffff1667ffffffffffffffff8111156135e9576135e861a485565b5b6040519080825280601f01601f19166020018201604052801561361b5781602001600182028036833780820191505090505b50905060005b8460000151518167ffffffffffffffff1610156136cd57846000015181806136489061a398565b925067ffffffffffffffff16815181106136655761366461a456565b5b602001015160f81c60f81b82848061367c9061a398565b955067ffffffffffffffff16815181106136995761369861a456565b5b60200101907effffffffffffffffffffffffffffffffffffffffffffffffffffffffffffff1916908160001a905350613621565b600090505b8460200151518167ffffffffffffffff16101561377e57846020015181806136f99061a398565b925067ffffffffffffffff16815181106137165761371561a456565b5b602001015160f81c60f81b82848061372d9061a398565b955067ffffffffffffffff168151811061374a5761374961a456565b5b60200101907effffffffffffffffffffffffffffffffffffffffffffffffffffffffffffff1916908160001a9053506136d2565b600090505b8460400151518167ffffffffffffffff16101561382f57846040015181806137aa9061a398565b925067ffffffffffffffff16815181106137c7576137c661a456565b5b602001015160f81c60f81b8284806137de9061a398565b955067ffffffffffffffff16815181106137fb576137fa61a456565b5b60200101907effffffffffffffffffffffffffffffffffffffffffffffffffffffffffffff1916908160001a905350613783565b600090505b8460600151518167ffffffffffffffff1610156138e0578460600151818061385b9061a398565b925067ffffffffffffffff16815181106138785761387761a456565b5b602001015160f81c60f81b82848061388f9061a398565b955067ffffffffffffffff16815181106138ac576138ab61a456565b5b60200101907effffffffffffffffffffffffffffffffffffffffffffffffffffffffffffff1916908160001a905350613834565b600090505b8460800151518167ffffffffffffffff161015613991578460800151818061390c9061a398565b925067ffffffffffffffff16815181106139295761392861a456565b5b602001015160f81c60f81b8284806139409061a398565b955067ffffffffffffffff168151811061395d5761395c61a456565b5b60200101907effffffffffffffffffffffffffffffffffffffffffffffffffffffffffffff1916908160001a9053506138e5565b600090505b8460a00151518167ffffffffffffffff161015613a42578460a0015181806139bd9061a398565b925067ffffffffffffffff16815181106139da576139d961a456565b5b602001015160f81c60f81b8284806139f19061a398565b955067ffffffffffffffff1681518110613a0e57613a0d61a456565b5b60200101907effffffffffffffffffffffffffffffffffffffffffffffffffffffffffffff1916908160001a905350613996565b600090505b8460c00151518167ffffffffffffffff161015613af3578460c001518180613a6e9061a398565b925067ffffffffffffffff1681518110613a8b57613a8a61a456565b5b602001015160f81c60f81b828480613aa29061a398565b955067ffffffffffffffff1681518110613abf57613abe61a456565b5b60200101907effffffffffffffffffffffffffffffffffffffffffffffffffffffffffffff1916908160001a905350613a47565b600090505b8460e00151518167ffffffffffffffff161015613ba4578460e001518180613b1f9061a398565b925067ffffffffffffffff1681518110613b3c57613b3b61a456565b5b602001015160f81c60f81b828480613b539061a398565b955067ffffffffffffffff1681518110613b7057613b6f61a456565b5b60200101907effffffffffffffffffffffffffffffffffffffffffffffffffffffffffffff1916908160001a905350613af8565b600090505b846101000151518167ffffffffffffffff161015613c57578461010001518180613bd29061a398565b925067ffffffffffffffff1681518110613bef57613bee61a456565b5b602001015160f81c60f81b828480613c069061a398565b955067ffffffffffffffff1681518110613c2357613c2261a456565b5b60200101907effffffffffffffffffffffffffffffffffffffffffffffffffffffffffffff1916908160001a905350613ba9565b600090505b846101200151518167ffffffffffffffff161015613d0a578461012001518180613c859061a398565b925067ffffffffffffffff1681518110613ca257613ca161a456565b5b602001015160f81c60f81b828480613cb99061a398565b955067ffffffffffffffff1681518110613cd657613cd561a456565b5b60200101907effffffffffffffffffffffffffffffffffffffffffffffffffffffffffffff1916908160001a905350613c5c565b600090505b846101400151518167ffffffffffffffff161015613dbd578461014001518180613d389061a398565b925067ffffffffffffffff1681518110613d5557613d5461a456565b5b602001015160f81c60f81b828480613d6c9061a398565b955067ffffffffffffffff1681518110613d8957613d8861a456565b5b60200101907effffffffffffffffffffffffffffffffffffffffffffffffffffffffffffff1916908160001a905350613d0f565b600090505b846101600151518167ffffffffffffffff161015613e70578461016001518180613deb9061a398565b925067ffffffffffffffff1681518110613e0857613e0761a456565b5b602001015160f81c60f81b828480613e1f9061a398565b955067ffffffffffffffff1681518110613e3c57613e3b61a456565b5b60200101907effffffffffffffffffffffffffffffffffffffffffffffffffffffffffffff1916908160001a905350613dc2565b600090505b846101800151518167ffffffffffffffff161015613f23578461018001518180613e9e9061a398565b925067ffffffffffffffff1681518110613ebb57613eba61a456565b5b602001015160f81c60f81b828480613ed29061a398565b955067ffffffffffffffff1681518110613eef57613eee61a456565b5b60200101907effffffffffffffffffffffffffffffffffffffffffffffffffffffffffffff1916908160001a905350613e75565b8195505050505050919050565b600260009054906101000a900473ffffffffffffffffffffffffffffffffffffffff1673ffffffffffffffffffffffffffffffffffffffff16638fe8bb96826040518263ffffffff1660e01b8152600401613f8b919061a022565b600060405180830381600087803b158015613fa557600080fd5b505af1158015613fb9573d6000803e3d6000fd5b505050506004600181819054906101000a900467ffffffffffffffff1680929190613fe39061a398565b91906101000a81548167ffffffffffffffff021916908367ffffffffffffffff16021790555050600381908060018154018082558091505060019003906000526020600020906002020160009091909190915060008201518160000160006101000a81548167ffffffffffffffff021916908367ffffffffffffffff16021790555060208201518160000160086101000a81548160ff021916908360088111156140905761408f61a3f8565b5b021790555060408201518160010190805190602001906140b19291906191af565b50505050565b600060018367ffffffffffffffff1614156140fb57600060068111156140e0576140df61a3f8565b5b8260068111156140f3576140f261a3f8565b5b149050614184565b60028367ffffffffffffffff16141561413d57600260068111156141225761412161a3f8565b5b8260068111156141355761413461a3f8565b5b149050614184565b60038367ffffffffffffffff16141561417f57600260068111156141645761416361a3f8565b5b8260068111156141775761417661a3f8565b5b149050614184565b600090505b92915050565b600080600087905060018567ffffffffffffffff1614156141db5760006141b2828987617c82565b8093508192505050806141cd57600082935093505050614276565b600182935093505050614276565b60028567ffffffffffffffff1614156142245760006141fb828987617d04565b80935081925050508061421657600082935093505050614276565b600182935093505050614276565b60038567ffffffffffffffff16141561426d576000614244828987617e89565b80935081925050508061425f57600082935093505050614276565b600182935093505050614276565b60008192509250505b9550959350505050565b6000816040516020016142939190619d53565b60405160208183030381529060405280519060200120836040516020016142ba9190619d53565b6040516020818303038152906040528051906020012014905092915050565b60606142e3619235565b6000806000856000015151111561433e5761431260016002600681111561430d5761430c61a3f8565b5b617c41565b8360000181905250614328856000015151617c70565b8360200181905250846000015183604001819052505b6000856020015167ffffffffffffffff16146143905761437260026000600681111561436d5761436c61a3f8565b5b617c41565b83606001819052506143878560200151617c70565b83608001819052505b600085604001515111156143e8576143bc6003600260068111156143b7576143b661a3f8565b5b617c41565b8360a001819052506143d2856040015151617c70565b8360c0018190525084604001518360e001819052505b6060600091506000925083600001515183614403919061a13f565b925083602001515183614416919061a13f565b925083604001515183614429919061a13f565b92508360600151518361443c919061a13f565b92508360800151518361444f919061a13f565b92508360a001515183614462919061a13f565b92508360c001515183614475919061a13f565b92508360e001515183614488919061a13f565b92508267ffffffffffffffff1667ffffffffffffffff8111156144ae576144ad61a485565b5b6040519080825280601f01601f1916602001820160405280156144e05781602001600182028036833780820191505090505b50905060005b8460000151518167ffffffffffffffff161015614592578460000151818061450d9061a398565b925067ffffffffffffffff168151811061452a5761452961a456565b5b602001015160f81c60f81b8284806145419061a398565b955067ffffffffffffffff168151811061455e5761455d61a456565b5b60200101907effffffffffffffffffffffffffffffffffffffffffffffffffffffffffffff1916908160001a9053506144e6565b600090505b8460200151518167ffffffffffffffff16101561464357846020015181806145be9061a398565b925067ffffffffffffffff16815181106145db576145da61a456565b5b602001015160f81c60f81b8284806145f29061a398565b955067ffffffffffffffff168151811061460f5761460e61a456565b5b60200101907effffffffffffffffffffffffffffffffffffffffffffffffffffffffffffff1916908160001a905350614597565b600090505b8460400151518167ffffffffffffffff1610156146f4578460400151818061466f9061a398565b925067ffffffffffffffff168151811061468c5761468b61a456565b5b602001015160f81c60f81b8284806146a39061a398565b955067ffffffffffffffff16815181106146c0576146bf61a456565b5b60200101907effffffffffffffffffffffffffffffffffffffffffffffffffffffffffffff1916908160001a905350614648565b600090505b8460600151518167ffffffffffffffff1610156147a557846060015181806147209061a398565b925067ffffffffffffffff168151811061473d5761473c61a456565b5b602001015160f81c60f81b8284806147549061a398565b955067ffffffffffffffff16815181106147715761477061a456565b5b60200101907effffffffffffffffffffffffffffffffffffffffffffffffffffffffffffff1916908160001a9053506146f9565b600090505b8460800151518167ffffffffffffffff16101561485657846080015181806147d19061a398565b925067ffffffffffffffff16815181106147ee576147ed61a456565b5b602001015160f81c60f81b8284806148059061a398565b955067ffffffffffffffff16815181106148225761482161a456565b5b60200101907effffffffffffffffffffffffffffffffffffffffffffffffffffffffffffff1916908160001a9053506147aa565b600090505b8460a00151518167ffffffffffffffff161015614907578460a0015181806148829061a398565b925067ffffffffffffffff168151811061489f5761489e61a456565b5b602001015160f81c60f81b8284806148b69061a398565b955067ffffffffffffffff16815181106148d3576148d261a456565b5b60200101907effffffffffffffffffffffffffffffffffffffffffffffffffffffffffffff1916908160001a90535061485b565b600090505b8460c00151518167ffffffffffffffff1610156149b8578460c0015181806149339061a398565b925067ffffffffffffffff16815181106149505761494f61a456565b5b602001015160f81c60f81b8284806149679061a398565b955067ffffffffffffffff16815181106149845761498361a456565b5b60200101907effffffffffffffffffffffffffffffffffffffffffffffffffffffffffffff1916908160001a90535061490c565b600090505b8460e00151518167ffffffffffffffff161015614a69578460e0015181806149e49061a398565b925067ffffffffffffffff1681518110614a0157614a0061a456565b5b602001015160f81c60f81b828480614a189061a398565b955067ffffffffffffffff1681518110614a3557614a3461a456565b5b60200101907effffffffffffffffffffffffffffffffffffffffffffffffffffffffffffff1916908160001a9053506149bd565b8195505050505050919050565b600060018367ffffffffffffffff161415614aba5760006006811115614a9f57614a9e61a3f8565b5b826006811115614ab257614ab161a3f8565b5b149050614b43565b60028367ffffffffffffffff161415614afc5760026006811115614ae157614ae061a3f8565b5b826006811115614af457614af361a3f8565b5b149050614b43565b60038367ffffffffffffffff161415614b3e5760026006811115614b2357614b2261a3f8565b5b826006811115614b3657614b3561a3f8565b5b149050614b43565b600090505b92915050565b600080600087905060018567ffffffffffffffff161415614b9a576000614b7182898761800e565b809350819250505080614b8c57600082935093505050614c35565b600182935093505050614c35565b60028567ffffffffffffffff161415614be3576000614bba828987618090565b809350819250505080614bd557600082935093505050614c35565b600182935093505050614c35565b60038567ffffffffffffffff161415614c2c576000614c03828987618215565b809350819250505080614c1e57600082935093505050614c35565b600182935093505050614c35565b60008192509250505b9550959350505050565b60006014825114614c85576040517f08c379a0000000000000000000000000000000000000000000000000000000008152600401614c7c90619ea2565b60405180910390fd5b60006014830151905080915050919050565b6060614ca161927a565b60008060008560000151511115614cfc57614cd0600160026006811115614ccb57614cca61a3f8565b5b617c41565b8360000181905250614ce6856000015151617c70565b8360200181905250846000015183604001819052505b6000856020015167ffffffffffffffff1614614d4e57614d30600260006006811115614d2b57614d2a61a3f8565b5b617c41565b8360600181905250614d458560200151617c70565b83608001819052505b60008560400151511115614da657614d7a600360026006811115614d7557614d7461a3f8565b5b617c41565b8360a00181905250614d90856040015151617c70565b8360c0018190525084604001518360e001819052505b6060600091506000925083600001515183614dc1919061a13f565b925083602001515183614dd4919061a13f565b925083604001515183614de7919061a13f565b925083606001515183614dfa919061a13f565b925083608001515183614e0d919061a13f565b92508360a001515183614e20919061a13f565b92508360c001515183614e33919061a13f565b92508360e001515183614e46919061a13f565b92508267ffffffffffffffff1667ffffffffffffffff811115614e6c57614e6b61a485565b5b6040519080825280601f01601f191660200182016040528015614e9e5781602001600182028036833780820191505090505b50905060005b8460000151518167ffffffffffffffff161015614f505784600001518180614ecb9061a398565b925067ffffffffffffffff1681518110614ee857614ee761a456565b5b602001015160f81c60f81b828480614eff9061a398565b955067ffffffffffffffff1681518110614f1c57614f1b61a456565b5b60200101907effffffffffffffffffffffffffffffffffffffffffffffffffffffffffffff1916908160001a905350614ea4565b600090505b8460200151518167ffffffffffffffff1610156150015784602001518180614f7c9061a398565b925067ffffffffffffffff1681518110614f9957614f9861a456565b5b602001015160f81c60f81b828480614fb09061a398565b955067ffffffffffffffff1681518110614fcd57614fcc61a456565b5b60200101907effffffffffffffffffffffffffffffffffffffffffffffffffffffffffffff1916908160001a905350614f55565b600090505b8460400151518167ffffffffffffffff1610156150b2578460400151818061502d9061a398565b925067ffffffffffffffff168151811061504a5761504961a456565b5b602001015160f81c60f81b8284806150619061a398565b955067ffffffffffffffff168151811061507e5761507d61a456565b5b60200101907effffffffffffffffffffffffffffffffffffffffffffffffffffffffffffff1916908160001a905350615006565b600090505b8460600151518167ffffffffffffffff16101561516357846060015181806150de9061a398565b925067ffffffffffffffff16815181106150fb576150fa61a456565b5b602001015160f81c60f81b8284806151129061a398565b955067ffffffffffffffff168151811061512f5761512e61a456565b5b60200101907effffffffffffffffffffffffffffffffffffffffffffffffffffffffffffff1916908160001a9053506150b7565b600090505b8460800151518167ffffffffffffffff161015615214578460800151818061518f9061a398565b925067ffffffffffffffff16815181106151ac576151ab61a456565b5b602001015160f81c60f81b8284806151c39061a398565b955067ffffffffffffffff16815181106151e0576151df61a456565b5b60200101907effffffffffffffffffffffffffffffffffffffffffffffffffffffffffffff1916908160001a905350615168565b600090505b8460a00151518167ffffffffffffffff1610156152c5578460a0015181806152409061a398565b925067ffffffffffffffff168151811061525d5761525c61a456565b5b602001015160f81c60f81b8284806152749061a398565b955067ffffffffffffffff16815181106152915761529061a456565b5b60200101907effffffffffffffffffffffffffffffffffffffffffffffffffffffffffffff1916908160001a905350615219565b600090505b8460c00151518167ffffffffffffffff161015615376578460c0015181806152f19061a398565b925067ffffffffffffffff168151811061530e5761530d61a456565b5b602001015160f81c60f81b8284806153259061a398565b955067ffffffffffffffff16815181106153425761534161a456565b5b60200101907effffffffffffffffffffffffffffffffffffffffffffffffffffffffffffff1916908160001a9053506152ca565b600090505b8460e00151518167ffffffffffffffff161015615427578460e0015181806153a29061a398565b925067ffffffffffffffff16815181106153bf576153be61a456565b5b602001015160f81c60f81b8284806153d69061a398565b955067ffffffffffffffff16815181106153f3576153f261a456565b5b60200101907effffffffffffffffffffffffffffffffffffffffffffffffffffffffffffff1916908160001a90535061537b565b8195505050505050919050565b600060018367ffffffffffffffff161415615478576000600681111561545d5761545c61a3f8565b5b8260068111156154705761546f61a3f8565b5b149050615501565b60028367ffffffffffffffff1614156154ba576000600681111561549f5761549e61a3f8565b5b8260068111156154b2576154b161a3f8565b5b149050615501565b60038367ffffffffffffffff1614156154fc57600260068111156154e1576154e061a3f8565b5b8260068111156154f4576154f361a3f8565b5b149050615501565b600090505b92915050565b600080600087905060018567ffffffffffffffff16141561555857600061552f82898761839a565b80935081925050508061554a576000829350935050506155f3565b6001829350935050506155f3565b60028567ffffffffffffffff1614156155a157600061557882898761841c565b809350819250505080615593576000829350935050506155f3565b6001829350935050506155f3565b60038567ffffffffffffffff1614156155ea5760006155c182898761849e565b8093508192505050806155dc576000829350935050506155f3565b6001829350935050506155f3565b60008192509250505b9550959350505050565b60606156076192bf565b6000806000856000015167ffffffffffffffff161461565c5761563e6001600060068111156156395761563861a3f8565b5b617c41565b83600001819052506156538560000151617c70565b83602001819052505b6000856020015167ffffffffffffffff16146156ae5761569060026000600681111561568b5761568a61a3f8565b5b617c41565b83604001819052506156a58560200151617c70565b83606001819052505b60008560400151511115615706576156da6003600260068111156156d5576156d461a3f8565b5b617c41565b83608001819052506156f0856040015151617c70565b8360a0018190525084604001518360c001819052505b6060600091506000925083600001515183615721919061a13f565b925083602001515183615734919061a13f565b925083604001515183615747919061a13f565b92508360600151518361575a919061a13f565b92508360800151518361576d919061a13f565b92508360a001515183615780919061a13f565b92508360c001515183615793919061a13f565b92508267ffffffffffffffff1667ffffffffffffffff8111156157b9576157b861a485565b5b6040519080825280601f01601f1916602001820160405280156157eb5781602001600182028036833780820191505090505b50905060005b8460000151518167ffffffffffffffff16101561589d57846000015181806158189061a398565b925067ffffffffffffffff16815181106158355761583461a456565b5b602001015160f81c60f81b82848061584c9061a398565b955067ffffffffffffffff16815181106158695761586861a456565b5b60200101907effffffffffffffffffffffffffffffffffffffffffffffffffffffffffffff1916908160001a9053506157f1565b600090505b8460200151518167ffffffffffffffff16101561594e57846020015181806158c99061a398565b925067ffffffffffffffff16815181106158e6576158e561a456565b5b602001015160f81c60f81b8284806158fd9061a398565b955067ffffffffffffffff168151811061591a5761591961a456565b5b60200101907effffffffffffffffffffffffffffffffffffffffffffffffffffffffffffff1916908160001a9053506158a2565b600090505b8460400151518167ffffffffffffffff1610156159ff578460400151818061597a9061a398565b925067ffffffffffffffff16815181106159975761599661a456565b5b602001015160f81c60f81b8284806159ae9061a398565b955067ffffffffffffffff16815181106159cb576159ca61a456565b5b60200101907effffffffffffffffffffffffffffffffffffffffffffffffffffffffffffff1916908160001a905350615953565b600090505b8460600151518167ffffffffffffffff161015615ab05784606001518180615a2b9061a398565b925067ffffffffffffffff1681518110615a4857615a4761a456565b5b602001015160f81c60f81b828480615a5f9061a398565b955067ffffffffffffffff1681518110615a7c57615a7b61a456565b5b60200101907effffffffffffffffffffffffffffffffffffffffffffffffffffffffffffff1916908160001a905350615a04565b600090505b8460800151518167ffffffffffffffff161015615b615784608001518180615adc9061a398565b925067ffffffffffffffff1681518110615af957615af861a456565b5b602001015160f81c60f81b828480615b109061a398565b955067ffffffffffffffff1681518110615b2d57615b2c61a456565b5b60200101907effffffffffffffffffffffffffffffffffffffffffffffffffffffffffffff1916908160001a905350615ab5565b600090505b8460a00151518167ffffffffffffffff161015615c12578460a001518180615b8d9061a398565b925067ffffffffffffffff1681518110615baa57615ba961a456565b5b602001015160f81c60f81b828480615bc19061a398565b955067ffffffffffffffff1681518110615bde57615bdd61a456565b5b60200101907effffffffffffffffffffffffffffffffffffffffffffffffffffffffffffff1916908160001a905350615b66565b600090505b8460c00151518167ffffffffffffffff161015615cc3578460c001518180615c3e9061a398565b925067ffffffffffffffff1681518110615c5b57615c5a61a456565b5b602001015160f81c60f81b828480615c729061a398565b955067ffffffffffffffff1681518110615c8f57615c8e61a456565b5b60200101907effffffffffffffffffffffffffffffffffffffffffffffffffffffffffffff1916908160001a905350615c17565b8195505050505050919050565b600060018367ffffffffffffffff161415615d145760006006811115615cf957615cf861a3f8565b5b826006811115615d0c57615d0b61a3f8565b5b149050615d5b565b60028367ffffffffffffffff161415615d565760026006811115615d3b57615d3a61a3f8565b5b826006811115615d4e57615d4d61a3f8565b5b149050615d5b565b600090505b92915050565b600080600087905060018567ffffffffffffffff161415615db2576000615d89828987618623565b809350819250505080615da457600082935093505050615e04565b600182935093505050615e04565b60028567ffffffffffffffff161415615dfb576000615dd28289876186a5565b809350819250505080615ded57600082935093505050615e04565b600182935093505050615e04565b60008192509250505b9550959350505050565b6060615e186192fc565b6000806000856000015167ffffffffffffffff1614615e6d57615e4f600160006006811115615e4a57615e4961a3f8565b5b617c41565b8360000181905250615e648560000151617c70565b83602001819052505b6000856020015167ffffffffffffffff1614615ebf57615ea1600260006006811115615e9c57615e9b61a3f8565b5b617c41565b8360400181905250615eb68560200151617c70565b83606001819052505b6000856040015167ffffffffffffffff1614615f1157615ef3600360006006811115615eee57615eed61a3f8565b5b617c41565b8360800181905250615f088560400151617c70565b8360a001819052505b60008560600151511115615f6a57615f3d600460026006811115615f3857615f3761a3f8565b5b617c41565b8360c00181905250615f53856060015151617c70565b8360e0018190525084606001518361010001819052505b6060600091506000925083600001515183615f85919061a13f565b925083602001515183615f98919061a13f565b925083604001515183615fab919061a13f565b925083606001515183615fbe919061a13f565b925083608001515183615fd1919061a13f565b92508360a001515183615fe4919061a13f565b92508360c001515183615ff7919061a13f565b92508360e00151518361600a919061a13f565b9250836101000151518361601e919061a13f565b92508267ffffffffffffffff1667ffffffffffffffff8111156160445761604361a485565b5b6040519080825280601f01601f1916602001820160405280156160765781602001600182028036833780820191505090505b50905060005b8460000151518167ffffffffffffffff16101561612857846000015181806160a39061a398565b925067ffffffffffffffff16815181106160c0576160bf61a456565b5b602001015160f81c60f81b8284806160d79061a398565b955067ffffffffffffffff16815181106160f4576160f361a456565b5b60200101907effffffffffffffffffffffffffffffffffffffffffffffffffffffffffffff1916908160001a90535061607c565b600090505b8460200151518167ffffffffffffffff1610156161d957846020015181806161549061a398565b925067ffffffffffffffff16815181106161715761617061a456565b5b602001015160f81c60f81b8284806161889061a398565b955067ffffffffffffffff16815181106161a5576161a461a456565b5b60200101907effffffffffffffffffffffffffffffffffffffffffffffffffffffffffffff1916908160001a90535061612d565b600090505b8460400151518167ffffffffffffffff16101561628a57846040015181806162059061a398565b925067ffffffffffffffff16815181106162225761622161a456565b5b602001015160f81c60f81b8284806162399061a398565b955067ffffffffffffffff16815181106162565761625561a456565b5b60200101907effffffffffffffffffffffffffffffffffffffffffffffffffffffffffffff1916908160001a9053506161de565b600090505b8460600151518167ffffffffffffffff16101561633b57846060015181806162b69061a398565b925067ffffffffffffffff16815181106162d3576162d261a456565b5b602001015160f81c60f81b8284806162ea9061a398565b955067ffffffffffffffff16815181106163075761630661a456565b5b60200101907effffffffffffffffffffffffffffffffffffffffffffffffffffffffffffff1916908160001a90535061628f565b600090505b8460800151518167ffffffffffffffff1610156163ec57846080015181806163679061a398565b925067ffffffffffffffff16815181106163845761638361a456565b5b602001015160f81c60f81b82848061639b9061a398565b955067ffffffffffffffff16815181106163b8576163b761a456565b5b60200101907effffffffffffffffffffffffffffffffffffffffffffffffffffffffffffff1916908160001a905350616340565b600090505b8460a00151518167ffffffffffffffff16101561649d578460a0015181806164189061a398565b925067ffffffffffffffff16815181106164355761643461a456565b5b602001015160f81c60f81b82848061644c9061a398565b955067ffffffffffffffff16815181106164695761646861a456565b5b60200101907effffffffffffffffffffffffffffffffffffffffffffffffffffffffffffff1916908160001a9053506163f1565b600090505b8460c00151518167ffffffffffffffff16101561654e578460c0015181806164c99061a398565b925067ffffffffffffffff16815181106164e6576164e561a456565b5b602001015160f81c60f81b8284806164fd9061a398565b955067ffffffffffffffff168151811061651a5761651961a456565b5b60200101907effffffffffffffffffffffffffffffffffffffffffffffffffffffffffffff1916908160001a9053506164a2565b600090505b8460e00151518167ffffffffffffffff1610156165ff578460e00151818061657a9061a398565b925067ffffffffffffffff16815181106165975761659661a456565b5b602001015160f81c60f81b8284806165ae9061a398565b955067ffffffffffffffff16815181106165cb576165ca61a456565b5b60200101907effffffffffffffffffffffffffffffffffffffffffffffffffffffffffffff1916908160001a905350616553565b600090505b846101000151518167ffffffffffffffff1610156166b257846101000151818061662d9061a398565b925067ffffffffffffffff168151811061664a5761664961a456565b5b602001015160f81c60f81b8284806166619061a398565b955067ffffffffffffffff168151811061667e5761667d61a456565b5b60200101907effffffffffffffffffffffffffffffffffffffffffffffffffffffffffffff1916908160001a905350616604565b8195505050505050919050565b600060018367ffffffffffffffff16141561670357600060068111156166e8576166e761a3f8565b5b8260068111156166fb576166fa61a3f8565b5b14905061678c565b60028367ffffffffffffffff161415616745576002600681111561672a5761672961a3f8565b5b82600681111561673d5761673c61a3f8565b5b14905061678c565b60038367ffffffffffffffff161415616787576002600681111561676c5761676b61a3f8565b5b82600681111561677f5761677e61a3f8565b5b14905061678c565b600090505b92915050565b600080600087905060018567ffffffffffffffff1614156167e35760006167ba82898761882a565b8093508192505050806167d55760008293509350505061687e565b60018293509350505061687e565b60028567ffffffffffffffff16141561682c5760006168038289876188ac565b80935081925050508061681e5760008293509350505061687e565b60018293509350505061687e565b60038567ffffffffffffffff16141561687557600061684c828987618a31565b8093508192505050806168675760008293509350505061687e565b60018293509350505061687e565b60008192509250505b9550959350505050565b6060616892619348565b6000806000856000015167ffffffffffffffff16146168e7576168c96001600060068111156168c4576168c361a3f8565b5b617c41565b83600001819052506168de8560000151617c70565b83602001819052505b6000856020015151111561693e57616912600280600681111561690d5761690c61a3f8565b5b617c41565b8360400181905250616928856020015151617c70565b8360600181905250846020015183608001819052505b6000856040015167ffffffffffffffff16146169905761697260036000600681111561696d5761696c61a3f8565b5b617c41565b8360a001819052506169878560400151617c70565b8360c001819052505b600085606001515111156169ea576169bc6004600260068111156169b7576169b661a3f8565b5b617c41565b8360e001819052506169d2856060015151617c70565b83610100018190525084606001518361012001819052505b60008560800151511115616a4557616a16600560026006811115616a1157616a1061a3f8565b5b617c41565b836101400181905250616a2d856080015151617c70565b83610160018190525084608001518361018001819052505b6060600091506000925083600001515183616a60919061a13f565b925083602001515183616a73919061a13f565b925083604001515183616a86919061a13f565b925083606001515183616a99919061a13f565b925083608001515183616aac919061a13f565b92508360a001515183616abf919061a13f565b92508360c001515183616ad2919061a13f565b92508360e001515183616ae5919061a13f565b92508361010001515183616af9919061a13f565b92508361012001515183616b0d919061a13f565b92508361014001515183616b21919061a13f565b92508361016001515183616b35919061a13f565b92508361018001515183616b49919061a13f565b92508267ffffffffffffffff1667ffffffffffffffff811115616b6f57616b6e61a485565b5b6040519080825280601f01601f191660200182016040528015616ba15781602001600182028036833780820191505090505b50905060005b8460000151518167ffffffffffffffff161015616c535784600001518180616bce9061a398565b925067ffffffffffffffff1681518110616beb57616bea61a456565b5b602001015160f81c60f81b828480616c029061a398565b955067ffffffffffffffff1681518110616c1f57616c1e61a456565b5b60200101907effffffffffffffffffffffffffffffffffffffffffffffffffffffffffffff1916908160001a905350616ba7565b600090505b8460200151518167ffffffffffffffff161015616d045784602001518180616c7f9061a398565b925067ffffffffffffffff1681518110616c9c57616c9b61a456565b5b602001015160f81c60f81b828480616cb39061a398565b955067ffffffffffffffff1681518110616cd057616ccf61a456565b5b60200101907effffffffffffffffffffffffffffffffffffffffffffffffffffffffffffff1916908160001a905350616c58565b600090505b8460400151518167ffffffffffffffff161015616db55784604001518180616d309061a398565b925067ffffffffffffffff1681518110616d4d57616d4c61a456565b5b602001015160f81c60f81b828480616d649061a398565b955067ffffffffffffffff1681518110616d8157616d8061a456565b5b60200101907effffffffffffffffffffffffffffffffffffffffffffffffffffffffffffff1916908160001a905350616d09565b600090505b8460600151518167ffffffffffffffff161015616e665784606001518180616de19061a398565b925067ffffffffffffffff1681518110616dfe57616dfd61a456565b5b602001015160f81c60f81b828480616e159061a398565b955067ffffffffffffffff1681518110616e3257616e3161a456565b5b60200101907effffffffffffffffffffffffffffffffffffffffffffffffffffffffffffff1916908160001a905350616dba565b600090505b8460800151518167ffffffffffffffff161015616f175784608001518180616e929061a398565b925067ffffffffffffffff1681518110616eaf57616eae61a456565b5b602001015160f81c60f81b828480616ec69061a398565b955067ffffffffffffffff1681518110616ee357616ee261a456565b5b60200101907effffffffffffffffffffffffffffffffffffffffffffffffffffffffffffff1916908160001a905350616e6b565b600090505b8460a00151518167ffffffffffffffff161015616fc8578460a001518180616f439061a398565b925067ffffffffffffffff1681518110616f6057616f5f61a456565b5b602001015160f81c60f81b828480616f779061a398565b955067ffffffffffffffff1681518110616f9457616f9361a456565b5b60200101907effffffffffffffffffffffffffffffffffffffffffffffffffffffffffffff1916908160001a905350616f1c565b600090505b8460c00151518167ffffffffffffffff161015617079578460c001518180616ff49061a398565b925067ffffffffffffffff16815181106170115761701061a456565b5b602001015160f81c60f81b8284806170289061a398565b955067ffffffffffffffff16815181106170455761704461a456565b5b60200101907effffffffffffffffffffffffffffffffffffffffffffffffffffffffffffff1916908160001a905350616fcd565b600090505b8460e00151518167ffffffffffffffff16101561712a578460e0015181806170a59061a398565b925067ffffffffffffffff16815181106170c2576170c161a456565b5b602001015160f81c60f81b8284806170d99061a398565b955067ffffffffffffffff16815181106170f6576170f561a456565b5b60200101907effffffffffffffffffffffffffffffffffffffffffffffffffffffffffffff1916908160001a90535061707e565b600090505b846101000151518167ffffffffffffffff1610156171dd5784610100015181806171589061a398565b925067ffffffffffffffff16815181106171755761717461a456565b5b602001015160f81c60f81b82848061718c9061a398565b955067ffffffffffffffff16815181106171a9576171a861a456565b5b60200101907effffffffffffffffffffffffffffffffffffffffffffffffffffffffffffff1916908160001a90535061712f565b600090505b846101200151518167ffffffffffffffff16101561729057846101200151818061720b9061a398565b925067ffffffffffffffff16815181106172285761722761a456565b5b602001015160f81c60f81b82848061723f9061a398565b955067ffffffffffffffff168151811061725c5761725b61a456565b5b60200101907effffffffffffffffffffffffffffffffffffffffffffffffffffffffffffff1916908160001a9053506171e2565b600090505b846101400151518167ffffffffffffffff1610156173435784610140015181806172be9061a398565b925067ffffffffffffffff16815181106172db576172da61a456565b5b602001015160f81c60f81b8284806172f29061a398565b955067ffffffffffffffff168151811061730f5761730e61a456565b5b60200101907effffffffffffffffffffffffffffffffffffffffffffffffffffffffffffff1916908160001a905350617295565b600090505b846101600151518167ffffffffffffffff1610156173f65784610160015181806173719061a398565b925067ffffffffffffffff168151811061738e5761738d61a456565b5b602001015160f81c60f81b8284806173a59061a398565b955067ffffffffffffffff16815181106173c2576173c161a456565b5b60200101907effffffffffffffffffffffffffffffffffffffffffffffffffffffffffffff1916908160001a905350617348565b600090505b846101800151518167ffffffffffffffff1610156174a95784610180015181806174249061a398565b925067ffffffffffffffff16815181106174415761744061a456565b5b602001015160f81c60f81b8284806174589061a398565b955067ffffffffffffffff16815181106174755761747461a456565b5b60200101907effffffffffffffffffffffffffffffffffffffffffffffffffffffffffffff1916908160001a9053506173fb565b8195505050505050919050565b60008060008060005b600a67ffffffffffffffff168167ffffffffffffffff1610156175d957855187826174ea919061a13f565b67ffffffffffffffff161061750b57600087600094509450945050506176a7565b600086828961751a919061a13f565b67ffffffffffffffff16815181106175355761753461a456565b5b602001015160f81c60f81b60f81c90506000607f8216905060078361755a919061a17d565b67ffffffffffffffff168160ff1667ffffffffffffffff16901b8417935060006080831660ff1614156175c45760008367ffffffffffffffff161180156175a4575060008160ff16145b156175bd576000896000965096509650505050506176a7565b50506175d9565b505080806175d19061a398565b9150506174bf565b600a67ffffffffffffffff168167ffffffffffffffff161061760757600087600094509450945050506176a7565b6001600a617615919061a1bf565b67ffffffffffffffff168167ffffffffffffffff16141561768457600186828961763f919061a13f565b67ffffffffffffffff168151811061765a5761765961a456565b5b602001015160f81c60f81b60f81c60ff16111561768357600087600094509450945050506176a7565b5b6001808289617693919061a13f565b61769d919061a13f565b8394509450945050505b9250925092565b6000806000806176be8787618bb6565b809350819950829450505050816176dd5760008793509350505061782b565b60008167ffffffffffffffff1614156176fe5760008793509350505061782b565b8067ffffffffffffffff1667ffffffffffffffff8111156177225761772161a485565b5b6040519080825280601f01601f1916602001820160405280156177545781602001600182028036833780820191505090505b50856000018190525060005b8167ffffffffffffffff168167ffffffffffffffff16101561781257868189617789919061a13f565b67ffffffffffffffff16815181106177a4576177a361a456565b5b602001015160f81c60f81b86600001518267ffffffffffffffff16815181106177d0576177cf61a456565b5b60200101907effffffffffffffffffffffffffffffffffffffffffffffffffffffffffffff1916908160001a905350808061780a9061a398565b915050617760565b50808761781f919061a13f565b96506001879350935050505b935093915050565b6000806000806178438787618bb6565b80935081995082945050505081617862576000879350935050506179b0565b60008167ffffffffffffffff161415617883576000879350935050506179b0565b8067ffffffffffffffff1667ffffffffffffffff8111156178a7576178a661a485565b5b6040519080825280601f01601f1916602001820160405280156178d95781602001600182028036833780820191505090505b50856020018190525060005b8167ffffffffffffffff168167ffffffffffffffff1610156179975786818961790e919061a13f565b67ffffffffffffffff16815181106179295761792861a456565b5b602001015160f81c60f81b86602001518267ffffffffffffffff16815181106179555761795461a456565b5b60200101907effffffffffffffffffffffffffffffffffffffffffffffffffffffffffffff1916908160001a905350808061798f9061a398565b9150506178e5565b5080876179a4919061a13f565b96506001879350935050505b935093915050565b6000806000806179c88787618bd2565b809350819950829450505050816179e757600087935093505050617a32565b60008167ffffffffffffffff161415617a0857600087935093505050617a32565b80856040019067ffffffffffffffff16908167ffffffffffffffff16815250506001879350935050505b935093915050565b600080600080617a4a8787618bd2565b80935081995082945050505081617a6957600087935093505050617ab4565b60008167ffffffffffffffff161415617a8a57600087935093505050617ab4565b80856060019067ffffffffffffffff16908167ffffffffffffffff16815250506001879350935050505b935093915050565b600080600080617acc8787618bb6565b80935081995082945050505081617aeb57600087935093505050617c39565b60008167ffffffffffffffff161415617b0c57600087935093505050617c39565b8067ffffffffffffffff1667ffffffffffffffff811115617b3057617b2f61a485565b5b6040519080825280601f01601f191660200182016040528015617b625781602001600182028036833780820191505090505b50856080018190525060005b8167ffffffffffffffff168167ffffffffffffffff161015617c2057868189617b97919061a13f565b67ffffffffffffffff1681518110617bb257617bb161a456565b5b602001015160f81c60f81b86608001518267ffffffffffffffff1681518110617bde57617bdd61a456565b5b60200101907effffffffffffffffffffffffffffffffffffffffffffffffffffffffffffff1916908160001a9053508080617c189061a398565b915050617b6e565b508087617c2d919061a13f565b96506001879350935050505b935093915050565b606060008260038567ffffffffffffffff16901b1790506000617c6382618c18565b9050809250505092915050565b6060617c7b82618c18565b9050919050565b600080600080617c928787618bd2565b80935081995082945050505081617cb157600087935093505050617cfc565b60008167ffffffffffffffff161415617cd257600087935093505050617cfc565b80856000019067ffffffffffffffff16908167ffffffffffffffff16815250506001879350935050505b935093915050565b600080600080617d148787618bb6565b80935081995082945050505081617d3357600087935093505050617e81565b60008167ffffffffffffffff161415617d5457600087935093505050617e81565b8067ffffffffffffffff1667ffffffffffffffff811115617d7857617d7761a485565b5b6040519080825280601f01601f191660200182016040528015617daa5781602001600182028036833780820191505090505b50856020018190525060005b8167ffffffffffffffff168167ffffffffffffffff161015617e6857868189617ddf919061a13f565b67ffffffffffffffff1681518110617dfa57617df961a456565b5b602001015160f81c60f81b86602001518267ffffffffffffffff1681518110617e2657617e2561a456565b5b60200101907effffffffffffffffffffffffffffffffffffffffffffffffffffffffffffff1916908160001a9053508080617e609061a398565b915050617db6565b508087617e75919061a13f565b96506001879350935050505b935093915050565b600080600080617e998787618bb6565b80935081995082945050505081617eb857600087935093505050618006565b60008167ffffffffffffffff161415617ed957600087935093505050618006565b8067ffffffffffffffff1667ffffffffffffffff811115617efd57617efc61a485565b5b6040519080825280601f01601f191660200182016040528015617f2f5781602001600182028036833780820191505090505b50856040018190525060005b8167ffffffffffffffff168167ffffffffffffffff161015617fed57868189617f64919061a13f565b67ffffffffffffffff1681518110617f7f57617f7e61a456565b5b602001015160f81c60f81b86604001518267ffffffffffffffff1681518110617fab57617faa61a456565b5b60200101907effffffffffffffffffffffffffffffffffffffffffffffffffffffffffffff1916908160001a9053508080617fe59061a398565b915050617f3b565b508087617ffa919061a13f565b96506001879350935050505b935093915050565b60008060008061801e8787618bd2565b8093508199508294505050508161803d57600087935093505050618088565b60008167ffffffffffffffff16141561805e57600087935093505050618088565b80856000019067ffffffffffffffff16908167ffffffffffffffff16815250506001879350935050505b935093915050565b6000806000806180a08787618bb6565b809350819950829450505050816180bf5760008793509350505061820d565b60008167ffffffffffffffff1614156180e05760008793509350505061820d565b8067ffffffffffffffff1667ffffffffffffffff8111156181045761810361a485565b5b6040519080825280601f01601f1916602001820160405280156181365781602001600182028036833780820191505090505b50856020018190525060005b8167ffffffffffffffff168167ffffffffffffffff1610156181f45786818961816b919061a13f565b67ffffffffffffffff16815181106181865761818561a456565b5b602001015160f81c60f81b86602001518267ffffffffffffffff16815181106181b2576181b161a456565b5b60200101907effffffffffffffffffffffffffffffffffffffffffffffffffffffffffffff1916908160001a90535080806181ec9061a398565b915050618142565b508087618201919061a13f565b96506001879350935050505b935093915050565b6000806000806182258787618bb6565b8093508199508294505050508161824457600087935093505050618392565b60008167ffffffffffffffff16141561826557600087935093505050618392565b8067ffffffffffffffff1667ffffffffffffffff8111156182895761828861a485565b5b6040519080825280601f01601f1916602001820160405280156182bb5781602001600182028036833780820191505090505b50856040018190525060005b8167ffffffffffffffff168167ffffffffffffffff161015618379578681896182f0919061a13f565b67ffffffffffffffff168151811061830b5761830a61a456565b5b602001015160f81c60f81b86604001518267ffffffffffffffff16815181106183375761833661a456565b5b60200101907effffffffffffffffffffffffffffffffffffffffffffffffffffffffffffff1916908160001a90535080806183719061a398565b9150506182c7565b508087618386919061a13f565b96506001879350935050505b935093915050565b6000806000806183aa8787618bd2565b809350819950829450505050816183c957600087935093505050618414565b60008167ffffffffffffffff1614156183ea57600087935093505050618414565b80856000019067ffffffffffffffff16908167ffffffffffffffff16815250506001879350935050505b935093915050565b60008060008061842c8787618bd2565b8093508199508294505050508161844b57600087935093505050618496565b60008167ffffffffffffffff16141561846c57600087935093505050618496565b80856020019067ffffffffffffffff16908167ffffffffffffffff16815250506001879350935050505b935093915050565b6000806000806184ae8787618bb6565b809350819950829450505050816184cd5760008793509350505061861b565b60008167ffffffffffffffff1614156184ee5760008793509350505061861b565b8067ffffffffffffffff1667ffffffffffffffff8111156185125761851161a485565b5b6040519080825280601f01601f1916602001820160405280156185445781602001600182028036833780820191505090505b50856040018190525060005b8167ffffffffffffffff168167ffffffffffffffff16101561860257868189618579919061a13f565b67ffffffffffffffff16815181106185945761859361a456565b5b602001015160f81c60f81b86604001518267ffffffffffffffff16815181106185c0576185bf61a456565b5b60200101907effffffffffffffffffffffffffffffffffffffffffffffffffffffffffffff1916908160001a90535080806185fa9061a398565b915050618550565b50808761860f919061a13f565b96506001879350935050505b935093915050565b6000806000806186338787618bd2565b809350819950829450505050816186525760008793509350505061869d565b60008167ffffffffffffffff1614156186735760008793509350505061869d565b80856000019067ffffffffffffffff16908167ffffffffffffffff16815250506001879350935050505b935093915050565b6000806000806186b58787618bb6565b809350819950829450505050816186d457600087935093505050618822565b60008167ffffffffffffffff1614156186f557600087935093505050618822565b8067ffffffffffffffff1667ffffffffffffffff8111156187195761871861a485565b5b6040519080825280601f01601f19166020018201604052801561874b5781602001600182028036833780820191505090505b50856020018190525060005b8167ffffffffffffffff168167ffffffffffffffff16101561880957868189618780919061a13f565b67ffffffffffffffff168151811061879b5761879a61a456565b5b602001015160f81c60f81b86602001518267ffffffffffffffff16815181106187c7576187c661a456565b5b60200101907effffffffffffffffffffffffffffffffffffffffffffffffffffffffffffff1916908160001a90535080806188019061a398565b915050618757565b508087618816919061a13f565b96506001879350935050505b935093915050565b60008060008061883a8787618bd2565b80935081995082945050505081618859576000879350935050506188a4565b60008167ffffffffffffffff16141561887a576000879350935050506188a4565b80856000019067ffffffffffffffff16908167ffffffffffffffff16815250506001879350935050505b935093915050565b6000806000806188bc8787618bb6565b809350819950829450505050816188db57600087935093505050618a29565b60008167ffffffffffffffff1614156188fc57600087935093505050618a29565b8067ffffffffffffffff1667ffffffffffffffff8111156189205761891f61a485565b5b6040519080825280601f01601f1916602001820160405280156189525781602001600182028036833780820191505090505b50856020018190525060005b8167ffffffffffffffff168167ffffffffffffffff161015618a1057868189618987919061a13f565b67ffffffffffffffff16815181106189a2576189a161a456565b5b602001015160f81c60f81b86602001518267ffffffffffffffff16815181106189ce576189cd61a456565b5b60200101907effffffffffffffffffffffffffffffffffffffffffffffffffffffffffffff1916908160001a9053508080618a089061a398565b91505061895e565b508087618a1d919061a13f565b96506001879350935050505b935093915050565b600080600080618a418787618bb6565b80935081995082945050505081618a6057600087935093505050618bae565b60008167ffffffffffffffff161415618a8157600087935093505050618bae565b8067ffffffffffffffff1667ffffffffffffffff811115618aa557618aa461a485565b5b6040519080825280601f01601f191660200182016040528015618ad75781602001600182028036833780820191505090505b50856040018190525060005b8167ffffffffffffffff168167ffffffffffffffff161015618b9557868189618b0c919061a13f565b67ffffffffffffffff1681518110618b2757618b2661a456565b5b602001015160f81c60f81b86604001518267ffffffffffffffff1681518110618b5357618b5261a456565b5b60200101907effffffffffffffffffffffffffffffffffffffffffffffffffffffffffffff1916908160001a9053508080618b8d9061a398565b915050618ae3565b508087618ba2919061a13f565b96506001879350935050505b935093915050565b6000806000618bc58585618dca565b9250925092509250925092565b600080600080600080618be588886174b6565b92509250925082618c03576000826000955095509550505050618c11565b600182829550955095505050505b9250925092565b606060008290506000600190505b607f8267ffffffffffffffff161115618c5e5760078267ffffffffffffffff16901c9150600181618c57919061a13f565b9050618c26565b60008167ffffffffffffffff1667ffffffffffffffff811115618c8457618c8361a485565b5b6040519080825280601f01601f191660200182016040528015618cb65781602001600182028036833780820191505090505b50905084925060005b8267ffffffffffffffff168167ffffffffffffffff161015618d5557607f841660801760f81b828267ffffffffffffffff1681518110618d0257618d0161a456565b5b60200101907effffffffffffffffffffffffffffffffffffffffffffffffffffffffffffff1916908160001a90535060078467ffffffffffffffff16901c93508080618d4d9061a398565b915050618cbf565b50607f60f81b81600184618d69919061a1bf565b67ffffffffffffffff1681518110618d8457618d8361a456565b5b6020010181815160f81c60f81b169150907effffffffffffffffffffffffffffffffffffffffffffffffffffffffffffff1916908160001a905350809350505050919050565b600080600080600080618ddd88886174b6565b92509250925082618dfb576000826000955095509550505050618e6b565b8167ffffffffffffffff1681830167ffffffffffffffff161015618e2c576000826000955095509550505050618e6b565b86518282618e3a919061a13f565b67ffffffffffffffff161115618e5d576000826000955095509550505050618e6b565b600182829550955095505050505b9250925092565b6040518060600160405280600067ffffffffffffffff16815260200160006008811115618ea257618ea161a3f8565b5b8152602001606081525090565b5080546000825560020290600052602060002090810190618ed091906193b0565b50565b6040518060a001604052806060815260200160608152602001600067ffffffffffffffff168152602001600067ffffffffffffffff168152602001606081525090565b6040518060a001604052806060815260200160608152602001600067ffffffffffffffff168152602001600067ffffffffffffffff168152602001606081525090565b6040518060600160405280600067ffffffffffffffff16815260200160608152602001606081525090565b604051806060016040528060608152602001600067ffffffffffffffff168152602001606081525090565b6040518060600160405280600067ffffffffffffffff16815260200160608152602001606081525090565b604051806060016040528060608152602001600067ffffffffffffffff168152602001606081525090565b6040518060600160405280600067ffffffffffffffff168152602001600067ffffffffffffffff168152602001606081525090565b6040518060600160405280600067ffffffffffffffff168152602001600067ffffffffffffffff168152602001606081525090565b6040518060400160405280600067ffffffffffffffff168152602001606081525090565b6040518060800160405280600067ffffffffffffffff168152602001600067ffffffffffffffff168152602001600067ffffffffffffffff168152602001606081525090565b6040518060600160405280600067ffffffffffffffff16815260200160608152602001606081525090565b6040518060a00160405280600067ffffffffffffffff16815260200160608152602001600067ffffffffffffffff16815260200160608152602001606081525090565b604051806101a00160405280606081526020016060815260200160608152602001606081526020016060815260200160608152602001606081526020016060815260200160608152602001606081526020016060815260200160608152602001606081525090565b8280546191bb9061a2ec565b90600052602060002090601f0160209004810192826191dd5760008555619224565b82601f106191f657805160ff1916838001178555619224565b82800160010185558215619224579182015b82811115619223578251825591602001919060010190619208565b5b5090506192319190619406565b5090565b60405180610100016040528060608152602001606081526020016060815260200160608152602001606081526020016060815260200160608152602001606081525090565b60405180610100016040528060608152602001606081526020016060815260200160608152602001606081526020016060815260200160608152602001606081525090565b6040518060e00160405280606081526020016060815260200160608152602001606081526020016060815260200160608152602001606081525090565b6040518061012001604052806060815260200160608152602001606081526020016060815260200160608152602001606081526020016060815260200160608152602001606081525090565b604051806101a00160405280606081526020016060815260200160608152602001606081526020016060815260200160608152602001606081526020016060815260200160608152602001606081526020016060815260200160608152602001606081525090565b5b8082111561940257600080820160006101000a81549067ffffffffffffffff02191690556000820160086101000a81549060ff02191690556001820160006193f99190619423565b506002016193b1565b5090565b5b8082111561941f576000816000905550600101619407565b5090565b50805461942f9061a2ec565b6000825580601f106194415750619460565b601f01602090049060005260206000209081019061945f9190619406565b5b50565b60006194766194718461a09f565b61a07a565b905080838252602082019050828560208602820111156194995761949861a4c3565b5b60005b858110156194e757813567ffffffffffffffff8111156194bf576194be61a4b4565b5b8086016194cc898261971f565b8552602085019450602084019350505060018101905061949c565b5050509392505050565b60006195046194ff8461a0cb565b61a07a565b9050828152602081018484840111156195205761951f61a4c8565b5b61952b84828561a2aa565b509392505050565b60006195466195418461a0cb565b61a07a565b9050828152602081018484840111156195625761956161a4c8565b5b61956d84828561a2b9565b509392505050565b6000813590506195848161a95d565b92915050565b600082601f83011261959f5761959e61a4b4565b5b81356195af848260208601619463565b91505092915050565b6000815190506195c78161a974565b92915050565b600082601f8301126195e2576195e161a4b4565b5b81356195f28482602086016194f1565b91505092915050565b600082601f8301126196105761960f61a4b4565b5b8151619620848260208601619533565b91505092915050565b6000813590506196388161a98b565b92915050565b60008135905061964d8161a99b565b92915050565b6000608082840312156196695761966861a4b9565b5b619673608061a07a565b9050600082013567ffffffffffffffff8111156196935761969261a4be565b5b61969f848285016195cd565b600083015250602082013567ffffffffffffffff8111156196c3576196c261a4be565b5b6196cf848285016195cd565b60208301525060406196e384828501619629565b604083015250606082013567ffffffffffffffff8111156197075761970661a4be565b5b619713848285016195cd565b60608301525092915050565b6000606082840312156197355761973461a4b9565b5b61973f606061a07a565b9050600061974f848285016197c9565b60008301525060206197638482850161963e565b602083015250604082013567ffffffffffffffff8111156197875761978661a4be565b5b619793848285016195cd565b60408301525092915050565b6000813590506197ae8161a9ab565b92915050565b6000815190506197c38161a9ab565b92915050565b6000813590506197d88161a9c2565b92915050565b6000602082840312156197f4576197f361a4d2565b5b600061980284828501619575565b91505092915050565b6000602082840312156198215761982061a4d2565b5b600082013567ffffffffffffffff81111561983f5761983e61a4cd565b5b61984b8482850161958a565b91505092915050565b60006020828403121561986a5761986961a4d2565b5b6000619878848285016195b8565b91505092915050565b6000602082840312156198975761989661a4d2565b5b600082015167ffffffffffffffff8111156198b5576198b461a4cd565b5b6198c1848285016195fb565b91505092915050565b6000602082840312156198e0576198df61a4d2565b5b600082013567ffffffffffffffff8111156198fe576198fd61a4cd565b5b61990a84828501619653565b91505092915050565b6000602082840312156199295761992861a4d2565b5b60006199378482850161979f565b91505092915050565b6000602082840312156199565761995561a4d2565b5b6000619964848285016197b4565b91505092915050565b6199768161a1f3565b82525050565b60006199878261a0fc565b619991818561a112565b93506199a181856020860161a2b9565b6199aa8161a4d7565b840191505092915050565b60006199c08261a0fc565b6199ca818561a123565b93506199da81856020860161a2b9565b80840191505092915050565b6199ef8161a262565b82525050565b6199fe8161a286565b82525050565b6000619a0f8261a107565b619a19818561a12e565b9350619a2981856020860161a2b9565b619a328161a4d7565b840191505092915050565b6000619a4a60288361a12e565b9150619a558261a4e8565b604082019050919050565b6000619a6d60178361a12e565b9150619a788261a537565b602082019050919050565b6000619a9060268361a12e565b9150619a9b8261a560565b604082019050919050565b6000619ab360128361a12e565b9150619abe8261a5af565b602082019050919050565b6000619ad6601b8361a12e565b9150619ae18261a5d8565b602082019050919050565b6000619af9601c8361a12e565b9150619b048261a601565b602082019050919050565b6000619b1c60238361a12e565b9150619b278261a62a565b604082019050919050565b6000619b3f60168361a12e565b9150619b4a8261a679565b602082019050919050565b6000619b6260278361a12e565b9150619b6d8261a6a2565b604082019050919050565b6000619b85602d8361a12e565b9150619b908261a6f1565b604082019050919050565b6000619ba860248361a12e565b9150619bb38261a740565b604082019050919050565b6000619bcb60208361a12e565b9150619bd68261a78f565b602082019050919050565b6000619bee602b8361a12e565b9150619bf98261a7b8565b604082019050919050565b6000619c11602a8361a12e565b9150619c1c8261a807565b604082019050919050565b6000619c34602a8361a12e565b9150619c3f8261a856565b604082019050919050565b6000619c5760198361a12e565b9150619c628261a8a5565b602082019050919050565b6000619c7a60198361a12e565b9150619c858261a8ce565b602082019050919050565b6000619c9d60128361a12e565b9150619ca88261a8f7565b602082019050919050565b6000619cc0601f8361a12e565b9150619ccb8261a920565b602082019050919050565b6000606083016000830151619cee6000860182619d44565b506020830151619d0160208601826199f5565b5060408301518482036040860152619d19828261997c565b9150508091505092915050565b619d2f8161a244565b82525050565b619d3e8161a298565b82525050565b619d4d8161a24e565b82525050565b6000619d5f82846199b5565b915081905092915050565b6000602082019050619d7f600083018461996d565b92915050565b6000602082019050619d9a60008301846199e6565b92915050565b60006020820190508181036000830152619dba8184619a04565b905092915050565b60006020820190508181036000830152619ddb81619a3d565b9050919050565b60006020820190508181036000830152619dfb81619a60565b9050919050565b60006020820190508181036000830152619e1b81619a83565b9050919050565b60006020820190508181036000830152619e3b81619aa6565b9050919050565b60006020820190508181036000830152619e5b81619ac9565b9050919050565b60006020820190508181036000830152619e7b81619aec565b9050919050565b60006020820190508181036000830152619e9b81619b0f565b9050919050565b60006020820190508181036000830152619ebb81619b32565b9050919050565b60006020820190508181036000830152619edb81619b55565b9050919050565b60006020820190508181036000830152619efb81619b78565b9050919050565b60006020820190508181036000830152619f1b81619b9b565b9050919050565b60006020820190508181036000830152619f3b81619bbe565b9050919050565b60006020820190508181036000830152619f5b81619be1565b9050919050565b60006020820190508181036000830152619f7b81619c04565b9050919050565b60006020820190508181036000830152619f9b81619c27565b9050919050565b60006020820190508181036000830152619fbb81619c4a565b9050919050565b60006020820190508181036000830152619fdb81619c6d565b9050919050565b60006020820190508181036000830152619ffb81619c90565b9050919050565b6000602082019050818103600083015261a01b81619cb3565b9050919050565b6000602082019050818103600083015261a03c8184619cd6565b905092915050565b600060208201905061a0596000830184619d26565b92915050565b600060208201905061a0746000830184619d35565b92915050565b600061a08461a095565b905061a090828261a31e565b919050565b6000604051905090565b600067ffffffffffffffff82111561a0ba5761a0b961a485565b5b602082029050602081019050919050565b600067ffffffffffffffff82111561a0e65761a0e561a485565b5b61a0ef8261a4d7565b9050602081019050919050565b600081519050919050565b600081519050919050565b600082825260208201905092915050565b600081905092915050565b600082825260208201905092915050565b600061a14a8261a24e565b915061a1558361a24e565b92508267ffffffffffffffff0382111561a1725761a17161a3c9565b5b828201905092915050565b600061a1888261a24e565b915061a1938361a24e565b92508167ffffffffffffffff048311821515161561a1b45761a1b361a3c9565b5b828202905092915050565b600061a1ca8261a24e565b915061a1d58361a24e565b92508282101561a1e85761a1e761a3c9565b5b828203905092915050565b600061a1fe8261a224565b9050919050565b60008115159050919050565b600081905061a21f8261a949565b919050565b600073ffffffffffffffffffffffffffffffffffffffff82169050919050565b6000819050919050565b600067ffffffffffffffff82169050919050565b600061a26d8261a274565b9050919050565b600061a27f8261a224565b9050919050565b600061a2918261a211565b9050919050565b600061a2a38261a24e565b9050919050565b82818337600083830152505050565b60005b8381101561a2d757808201518184015260208101905061a2bc565b8381111561a2e6576000848401525b50505050565b6000600282049050600182168061a30457607f821691505b6020821081141561a3185761a31761a427565b5b50919050565b61a3278261a4d7565b810181811067ffffffffffffffff8211171561a3465761a34561a485565b5b80604052505050565b600061a35a8261a244565b91507fffffffffffffffffffffffffffffffffffffffffffffffffffffffffffffffff82141561a38d5761a38c61a3c9565b5b600182019050919050565b600061a3a38261a24e565b915067ffffffffffffffff82141561a3be5761a3bd61a3c9565b5b600182019050919050565b7f4e487b7100000000000000000000000000000000000000000000000000000000600052601160045260246000fd5b7f4e487b7100000000000000000000000000000000000000000000000000000000600052602160045260246000fd5b7f4e487b7100000000000000000000000000000000000000000000000000000000600052602260045260246000fd5b7f4e487b7100000000000000000000000000000000000000000000000000000000600052603260045260246000fd5b7f4e487b7100000000000000000000000000000000000000000000000000000000600052604160045260246000fd5b600080fd5b600080fd5b600080fd5b600080fd5b600080fd5b600080fd5b600080fd5b6000601f19601f8301169050919050565b7f53776170546f6b656e735061796c6f616420646573657269616c697a6174696f60008201527f6e206661696c6564000000000000000000000000000000000000000000000000602082015250565b7f416767726567617465206973206e6f7420736574207570000000000000000000600082015250565b7f4f776e61626c653a206e6577206f776e657220697320746865207a65726f206160008201527f6464726573730000000000000000000000000000000000000000000000000000602082015250565b7f414d4d20616c7265616479206578697374730000000000000000000000000000600082015250565b7f4e6f7420656e6f7567682066756e647320746f206465706f7369740000000000600082015250565b7f4e6f7420656e6f7567682066756e647320746f20776974686472617700000000600082015250565b7f4e6f7420656e6f7567682062616c616e636520746f20616464206c697175696460008201527f6974790000000000000000000000000000000000000000000000000000000000602082015250565b7f496e76616c6964206164647265737320666f726d617400000000000000000000600082015250565b7f437265617465414d4d5061796c6f616420646573657269616c697a6174696f6e60008201527f206661696c656400000000000000000000000000000000000000000000000000602082015250565b7f52656d6f76654c69717569646974795061796c6f616420646573657269616c6960008201527f7a6174696f6e206661696c656400000000000000000000000000000000000000602082015250565b7f4e6f7420656e6f75676820736861726520746f2072656d6f7665206c6971756960008201527f6469747900000000000000000000000000000000000000000000000000000000602082015250565b7f4f776e61626c653a2063616c6c6572206973206e6f7420746865206f776e6572600082015250565b7f576974686472617746756e64735061796c6f616420646573657269616c697a6160008201527f74696f6e206661696c6564000000000000000000000000000000000000000000602082015250565b7f4164644c69717569646974795061796c6f616420646573657269616c697a617460008201527f696f6e206661696c656400000000000000000000000000000000000000000000602082015250565b7f4465706f73697446756e64735061796c6f616420646573657269616c697a617460008201527f696f6e206661696c656400000000000000000000000000000000000000000000602082015250565b7f4e6f7420656e6f75676820746f6b656e3120746f207377617000000000000000600082015250565b7f4e6f7420656e6f75676820746f6b656e3220746f207377617000000000000000600082015250565b7f414d4d20646f6573206e6f742065786973740000000000000000000000000000600082015250565b7f506c65617365206465706f73697420737570706f7274656420746f6b656e7300600082015250565b6009811061a95a5761a95961a3f8565b5b50565b61a9668161a1f3565b811461a97157600080fd5b50565b61a97d8161a205565b811461a98857600080fd5b50565b6009811061a99857600080fd5b50565b6009811061a9a857600080fd5b50565b61a9b48161a244565b811461a9bf57600080fd5b50565b61a9cb8161a24e565b811461a9d657600080fd5b5056fea26469706673582212200425a2b3bcd30c6cf9698ae6fafc0828bb8f5d9bda8d2d227e81e7e3f948d97964736f6c6343000806003360806040526000600c60006101000a81548160ff0219169083151502179055503480156200002c57600080fd5b506200004d620000416200005360201b60201c565b6200005b60201b60201c565b6200011f565b600033905090565b60008060009054906101000a900473ffffffffffffffffffffffffffffffffffffffff169050816000806101000a81548173ffffffffffffffffffffffffffffffffffffffff021916908373ffffffffffffffffffffffffffffffffffffffff1602179055508173ffffffffffffffffffffffffffffffffffffffff168173ffffffffffffffffffffffffffffffffffffffff167f8be0079c531659141344cd1fd0a4f28419497f9722a3daafe3b4186f6b6457e060405160405180910390a35050565b616419806200012f6000396000f3fe608060405234801561001057600080fd5b50600436106100ea5760003560e01c8063932178881161008c578063d21220a711610066578063d21220a714610260578063d3817b4a1461027e578063d826f88f146102ae578063f2fde38b146102b8576100ea565b806393217888146101cf578063af62db3f14610200578063ce7c2ac214610230576100ea565b8063715018a6116100c8578063715018a61461016d57806386174396146101775780638da5cb5b146101955780638fe8bb96146101b3576100ea565b80630c1fc829146100ef57806325be124e1461011f578063450177c61461013d575b600080fd5b61010960048036038101906101049190615564565b6102d4565b6040516101169190615a74565b60405180910390f35b6101276102ec565b60405161013491906158b2565b60405180910390f35b610157600480360381019061015291906155da565b61037a565b6040516101649190615a74565b60405180910390f35b6101756103e4565b005b61017f6103f8565b60405161018c9190615897565b60405180910390f35b61019d61040b565b6040516101aa919061587c565b60405180910390f35b6101cd60048036038101906101c89190615591565b610434565b005b6101e960048036038101906101e491906155da565b610448565b6040516101f7929190615a8f565b60405180910390f35b61021a60048036038101906102159190615564565b610530565b6040516102279190615a74565b60405180910390f35b61024a60048036038101906102459190615564565b610548565b6040516102579190615a74565b60405180910390f35b610268610560565b60405161027591906158b2565b60405180910390f35b610298600480360381019061029391906155da565b6105ee565b6040516102a59190615a74565b60405180910390f35b6102b6610658565b005b6102d260048036038101906102cd9190615564565b61066a565b005b600a6020528060005260406000206000915090505481565b600280546102f990615dd7565b80601f016020809104026020016040519081016040528092919081815260200182805461032590615dd7565b80156103725780601f1061034757610100808354040283529160200191610372565b820191906000526020600020905b81548152906001019060200180831161035557829003601f168201915b505050505081565b600080610392836003546106ee90919063ffffffff16565b905060006103ab8260055461070490919063ffffffff16565b90506103c28160045461071a90919063ffffffff16565b92506004548314156103dd5782806103d990615dad565b9350505b5050919050565b6103ec610730565b6103f660006107ae565b565b600c60009054906101000a900460ff1681565b60008060009054906101000a900473ffffffffffffffffffffffffffffffffffffffff16905090565b61043c610730565b61044581610872565b50565b600080600060085411610490576040517f08c379a000000000000000000000000000000000000000000000000000000000815260040161048790615a34565b60405180910390fd5b6008548311156104d5576040517f08c379a00000000000000000000000000000000000000000000000000000000081526004016104cc906159d4565b60405180910390fd5b6104fe6008546104f060035486610c1090919063ffffffff16565b61070490919063ffffffff16565b915061052960085461051b60045486610c1090919063ffffffff16565b61070490919063ffffffff16565b9050915091565b60096020528060005260406000206000915090505481565b60066020528060005260406000206000915090505481565b6001805461056d90615dd7565b80601f016020809104026020016040519081016040528092919081815260200182805461059990615dd7565b80156105e65780601f106105bb576101008083540402835291602001916105e6565b820191906000526020600020905b8154815290600101906020018083116105c957829003601f168201915b505050505081565b600080610606836004546106ee90919063ffffffff16565b9050600061061f8260055461070490919063ffffffff16565b90506106368160035461071a90919063ffffffff16565b925060035483141561065157828061064d90615dad565b9350505b5050919050565b610660610730565b610668610c26565b565b610672610730565b600073ffffffffffffffffffffffffffffffffffffffff168173ffffffffffffffffffffffffffffffffffffffff1614156106e2576040517f08c379a00000000000000000000000000000000000000000000000000000000081526004016106d9906158f4565b60405180910390fd5b6106eb816107ae565b50565b600081836106fc9190615b46565b905092915050565b600081836107129190615bda565b905092915050565b600081836107289190615ca7565b905092915050565b610738610e8b565b73ffffffffffffffffffffffffffffffffffffffff1661075661040b565b73ffffffffffffffffffffffffffffffffffffffff16146107ac576040517f08c379a00000000000000000000000000000000000000000000000000000000081526004016107a3906159b4565b60405180910390fd5b565b60008060009054906101000a900473ffffffffffffffffffffffffffffffffffffffff169050816000806101000a81548173ffffffffffffffffffffffffffffffffffffffff021916908373ffffffffffffffffffffffffffffffffffffffff1602179055508173ffffffffffffffffffffffffffffffffffffffff168173ffffffffffffffffffffffffffffffffffffffff167f8be0079c531659141344cd1fd0a4f28419497f9722a3daafe3b4186f6b6457e060405160405180910390a35050565b6003600881111561088657610885615f12565b5b8160200151600881111561089d5761089c615f12565b5b141561090c576000806108bb60008460400151856040015151610e93565b925050915081610900576040517f08c379a00000000000000000000000000000000000000000000000000000000081526004016108f7906159f4565b60405180910390fd5b6109098161104d565b50505b600760088111156109205761091f615f12565b5b8160200151600881111561093757610936615f12565b5b14156109a65760008061095560008460400151856040015151611207565b92505091508161099a576040517f08c379a000000000000000000000000000000000000000000000000000000000815260040161099190615994565b60405180910390fd5b6109a3816113c1565b50505b6008808111156109b9576109b8615f12565b5b816020015160088111156109d0576109cf615f12565b5b1415610a3f576000806109ee600084604001518560400151516116d1565b925050915081610a33576040517f08c379a0000000000000000000000000000000000000000000000000000000008152600401610a2a90615934565b60405180910390fd5b610a3c8161188b565b50505b60046008811115610a5357610a52615f12565b5b81602001516008811115610a6a57610a69615f12565b5b1415610ad957600080610a8860008460400151856040015151611aa4565b925050915081610acd576040517f08c379a0000000000000000000000000000000000000000000000000000000008152600401610ac490615914565b60405180910390fd5b610ad681611c5e565b50505b60056008811115610aed57610aec615f12565b5b81602001516008811115610b0457610b03615f12565b5b1415610b7357600080610b2260008460400151856040015151611f44565b925050915081610b67576040517f08c379a0000000000000000000000000000000000000000000000000000000008152600401610b5e90615a54565b60405180910390fd5b610b70816120fe565b50505b60066008811115610b8757610b86615f12565b5b81602001516008811115610b9e57610b9d615f12565b5b1415610c0d57600080610bbc600084604001518560400151516122a3565b925050915081610c01576040517f08c379a0000000000000000000000000000000000000000000000000000000008152600401610bf8906158d4565b60405180910390fd5b610c0a8161245d565b50505b50565b60008183610c1e9190615c0b565b905092915050565b60005b600780549050811015610cca576006600060078381548110610c4e57610c4d615f70565b5b9060005260206000200160009054906101000a900473ffffffffffffffffffffffffffffffffffffffff1673ffffffffffffffffffffffffffffffffffffffff1673ffffffffffffffffffffffffffffffffffffffff168152602001908152602001600020600090558080610cc290615e3a565b915050610c29565b5060076000610cd9919061517f565b620f42406000610ce99190615c65565b67ffffffffffffffff1660088190555060005b600b80549050811015610e1e5760096000600b8381548110610d2157610d20615f70565b5b9060005260206000200160009054906101000a900473ffffffffffffffffffffffffffffffffffffffff1673ffffffffffffffffffffffffffffffffffffffff1673ffffffffffffffffffffffffffffffffffffffff16815260200190815260200160002060009055600a6000600b8381548110610da257610da1615f70565b5b9060005260206000200160009054906101000a900473ffffffffffffffffffffffffffffffffffffffff1673ffffffffffffffffffffffffffffffffffffffff1673ffffffffffffffffffffffffffffffffffffffff168152602001908152602001600020600090558080610e1690615e3a565b915050610cfc565b50600b6000610e2d919061517f565b6040518060200160405280600081525060019080519060200190610e529291906151a0565b506040518060200160405280600081525060029080519060200190610e789291906151a0565b5060006003819055506000600481905550565b600033905090565b600080610e9e615226565b610ea6615226565b6000808890508067ffffffffffffffff168782610ec39190615b9c565b67ffffffffffffffff161015610ee55760008184955095509550505050611044565b5b8667ffffffffffffffff168982610efd9190615cdb565b67ffffffffffffffff161015610ffe576000806000610f1c848c612741565b8094508195508297508396505050505082610f465760008487985098509850505050505050611044565b60058267ffffffffffffffff161115610f6e5760008487985098509850505050505050611044565b8467ffffffffffffffff168267ffffffffffffffff1611610f9e5760008487985098509850505050505050611044565b610fa8828261288d565b925082610fc45760008487985098509850505050505050611044565b610fd1848c8c858a6129e4565b809550819450505082610ff35760008487985098509850505050505050611044565b819450505050610ee6565b868961100a9190615b9c565b67ffffffffffffffff168167ffffffffffffffff16146110365760008184955095509550505050611044565b600181849550955095505050505b93509350939050565b806000015160019080519060200190611067929190615269565b50600060038190555080602001516002908051906020019061108a929190615269565b5060006004819055506110aa600454600354610c1090919063ffffffff16565b600581905550620f424060006110c09190615c65565b67ffffffffffffffff1660088190555060006110df8260800151612b6c565b9050816040015167ffffffffffffffff16600960008373ffffffffffffffffffffffffffffffffffffffff1673ffffffffffffffffffffffffffffffffffffffff16815260200190815260200160002081905550816060015167ffffffffffffffff16600a60008373ffffffffffffffffffffffffffffffffffffffff1673ffffffffffffffffffffffffffffffffffffffff16815260200190815260200160002081905550600b819080600181540180825580915050600190039060005260206000200160009091909190916101000a81548173ffffffffffffffffffffffffffffffffffffffff021916908373ffffffffffffffffffffffffffffffffffffffff1602179055506001600c60006101000a81548160ff0219169083151502179055505050565b6000806112126152ef565b61121a6152ef565b6000808890508067ffffffffffffffff1687826112379190615b9c565b67ffffffffffffffff16101561125957600081849550955095505050506113b8565b5b8667ffffffffffffffff1689826112719190615cdb565b67ffffffffffffffff161015611372576000806000611290848c612741565b80945081955082975083965050505050826112ba57600084879850985098505050505050506113b8565b60038267ffffffffffffffff1611156112e257600084879850985098505050505050506113b8565b8467ffffffffffffffff168267ffffffffffffffff161161131257600084879850985098505050505050506113b8565b61131c8282612bc4565b92508261133857600084879850985098505050505050506113b8565b611345848c8c858a612c97565b80955081945050508261136757600084879850985098505050505050506113b8565b81945050505061125a565b868961137e9190615b9c565b67ffffffffffffffff168167ffffffffffffffff16146113aa57600081849550955095505050506113b8565b600181849550955095505050505b93509350939050565b60006113d08260400151612b6c565b905061146a600180546113e290615dd7565b80601f016020809104026020016040519081016040528092919081815260200182805461140e90615dd7565b801561145b5780601f106114305761010080835404028352916020019161145b565b820191906000526020600020905b81548152906001019060200180831161143e57829003601f168201915b50505050508360000151612d8d565b156114d457816020015167ffffffffffffffff16600960008373ffffffffffffffffffffffffffffffffffffffff1673ffffffffffffffffffffffffffffffffffffffff16815260200190815260200160002060008282546114cc9190615b46565b925050819055505b61156c600280546114e490615dd7565b80601f016020809104026020016040519081016040528092919081815260200182805461151090615dd7565b801561155d5780601f106115325761010080835404028352916020019161155d565b820191906000526020600020905b81548152906001019060200180831161154057829003601f168201915b50505050508360000151612d8d565b156115d657816020015167ffffffffffffffff16600a60008373ffffffffffffffffffffffffffffffffffffffff1673ffffffffffffffffffffffffffffffffffffffff16815260200190815260200160002060008282546115ce9190615b46565b925050819055505b6000600960008373ffffffffffffffffffffffffffffffffffffffff1673ffffffffffffffffffffffffffffffffffffffff1681526020019081526020016000205414801561166457506000600a60008373ffffffffffffffffffffffffffffffffffffffff1673ffffffffffffffffffffffffffffffffffffffff16815260200190815260200160002054145b156116cd57600b819080600181540180825580915050600190039060005260206000200160009091909190916101000a81548173ffffffffffffffffffffffffffffffffffffffff021916908373ffffffffffffffffffffffffffffffffffffffff1602179055505b5050565b6000806116dc61531a565b6116e461531a565b6000808890508067ffffffffffffffff1687826117019190615b9c565b67ffffffffffffffff1610156117235760008184955095509550505050611882565b5b8667ffffffffffffffff16898261173b9190615cdb565b67ffffffffffffffff16101561183c57600080600061175a848c612741565b80945081955082975083965050505050826117845760008487985098509850505050505050611882565b60038267ffffffffffffffff1611156117ac5760008487985098509850505050505050611882565b8467ffffffffffffffff168267ffffffffffffffff16116117dc5760008487985098509850505050505050611882565b6117e68282612de6565b9250826118025760008487985098509850505050505050611882565b61180f848c8c858a612eb9565b8095508194505050826118315760008487985098509850505050505050611882565b819450505050611724565b86896118489190615b9c565b67ffffffffffffffff168167ffffffffffffffff16146118745760008184955095509550505050611882565b600181849550955095505050505b93509350939050565b600061189a8260400151612b6c565b9050611934600180546118ac90615dd7565b80601f01602080910402602001604051908101604052809291908181526020018280546118d890615dd7565b80156119255780601f106118fa57610100808354040283529160200191611925565b820191906000526020600020905b81548152906001019060200180831161190857829003601f168201915b50505050508360000151612d8d565b1561199e57816020015167ffffffffffffffff16600960008373ffffffffffffffffffffffffffffffffffffffff1673ffffffffffffffffffffffffffffffffffffffff16815260200190815260200160002060008282546119969190615ca7565b925050819055505b611a36600280546119ae90615dd7565b80601f01602080910402602001604051908101604052809291908181526020018280546119da90615dd7565b8015611a275780601f106119fc57610100808354040283529160200191611a27565b820191906000526020600020905b815481529060010190602001808311611a0a57829003601f168201915b50505050508360000151612d8d565b15611aa057816020015167ffffffffffffffff16600a60008373ffffffffffffffffffffffffffffffffffffffff1673ffffffffffffffffffffffffffffffffffffffff1681526020019081526020016000206000828254611a989190615ca7565b925050819055505b5050565b600080611aaf615345565b611ab7615345565b6000808890508067ffffffffffffffff168782611ad49190615b9c565b67ffffffffffffffff161015611af65760008184955095509550505050611c55565b5b8667ffffffffffffffff168982611b0e9190615cdb565b67ffffffffffffffff161015611c0f576000806000611b2d848c612741565b8094508195508297508396505050505082611b575760008487985098509850505050505050611c55565b60038267ffffffffffffffff161115611b7f5760008487985098509850505050505050611c55565b8467ffffffffffffffff168267ffffffffffffffff1611611baf5760008487985098509850505050505050611c55565b611bb98282612faf565b925082611bd55760008487985098509850505050505050611c55565b611be2848c8c858a613082565b809550819450505082611c045760008487985098509850505050505050611c55565b819450505050611af7565b8689611c1b9190615b9c565b67ffffffffffffffff168167ffffffffffffffff1614611c475760008184955095509550505050611c55565b600181849550955095505050505b93509350939050565b6000611c6d8260400151612b6c565b90506000806008541415611c9c57620f42406064611c8b9190615c65565b67ffffffffffffffff169050611d5a565b6000611cd5600354611cc7866000015167ffffffffffffffff16600854610c1090919063ffffffff16565b61070490919063ffffffff16565b90506000611d10600454611d02876020015167ffffffffffffffff16600854610c1090919063ffffffff16565b61070490919063ffffffff16565b9050808214611d54576040517f08c379a0000000000000000000000000000000000000000000000000000000008152600401611d4b90615a14565b60405180910390fd5b81925050505b60008111611d9d576040517f08c379a0000000000000000000000000000000000000000000000000000000008152600401611d9490615974565b60405180910390fd5b826000015167ffffffffffffffff16600960008473ffffffffffffffffffffffffffffffffffffffff1673ffffffffffffffffffffffffffffffffffffffff1681526020019081526020016000206000828254611dfa9190615ca7565b92505081905550826020015167ffffffffffffffff16600a60008473ffffffffffffffffffffffffffffffffffffffff1673ffffffffffffffffffffffffffffffffffffffff1681526020019081526020016000206000828254611e5e9190615ca7565b92505081905550826000015167ffffffffffffffff1660036000828254611e859190615b46565b92505081905550826020015167ffffffffffffffff1660046000828254611eac9190615b46565b92505081905550611eca600454600354610c1090919063ffffffff16565b6005819055508060086000828254611ee29190615b46565b9250508190555080600660008473ffffffffffffffffffffffffffffffffffffffff1673ffffffffffffffffffffffffffffffffffffffff1681526020019081526020016000206000828254611f389190615b46565b92505081905550505050565b600080611f4f61537a565b611f5761537a565b6000808890508067ffffffffffffffff168782611f749190615b9c565b67ffffffffffffffff161015611f9657600081849550955095505050506120f5565b5b8667ffffffffffffffff168982611fae9190615cdb565b67ffffffffffffffff1610156120af576000806000611fcd848c612741565b8094508195508297508396505050505082611ff757600084879850985098505050505050506120f5565b60048267ffffffffffffffff16111561201f57600084879850985098505050505050506120f5565b8467ffffffffffffffff168267ffffffffffffffff161161204f57600084879850985098505050505050506120f5565b6120598282613178565b92508261207557600084879850985098505050505050506120f5565b612082848c8c858a61328d565b8095508194505050826120a457600084879850985098505050505050506120f5565b819450505050611f97565b86896120bb9190615b9c565b67ffffffffffffffff168167ffffffffffffffff16146120e757600081849550955095505050506120f5565b600181849550955095505050505b93509350939050565b600061210d8260600151612b6c565b90506000826000015167ffffffffffffffff16905060008061212e83610448565b9150915082600660003373ffffffffffffffffffffffffffffffffffffffff1673ffffffffffffffffffffffffffffffffffffffff16815260200190815260200160002060008282546121819190615ca7565b92505081905550826008600082825461219a9190615ca7565b9250508190555081600360008282546121b39190615ca7565b9250508190555080600460008282546121cc9190615ca7565b925050819055506121ea600454600354610c1090919063ffffffff16565b60058190555081600960008673ffffffffffffffffffffffffffffffffffffffff1673ffffffffffffffffffffffffffffffffffffffff168152602001908152602001600020600082825461223f9190615b46565b9250508190555080600a60008673ffffffffffffffffffffffffffffffffffffffff1673ffffffffffffffffffffffffffffffffffffffff16815260200190815260200160002060008282546122959190615b46565b925050819055505050505050565b6000806122ae6153c0565b6122b66153c0565b6000808890508067ffffffffffffffff1687826122d39190615b9c565b67ffffffffffffffff1610156122f55760008184955095509550505050612454565b5b8667ffffffffffffffff16898261230d9190615cdb565b67ffffffffffffffff16101561240e57600080600061232c848c612741565b80945081955082975083965050505050826123565760008487985098509850505050505050612454565b60058267ffffffffffffffff16111561237e5760008487985098509850505050505050612454565b8467ffffffffffffffff168267ffffffffffffffff16116123ae5760008487985098509850505050505050612454565b6123b882826133cc565b9250826123d45760008487985098509850505050505050612454565b6123e1848c8c858a613523565b8095508194505050826124035760008487985098509850505050505050612454565b8194505050506122f6565b868961241a9190615b9c565b67ffffffffffffffff168167ffffffffffffffff16146124465760008184955095509550505050612454565b600181849550955095505050505b93509350939050565b600061246c8260800151612b6c565b90506125066001805461247e90615dd7565b80601f01602080910402602001604051908101604052809291908181526020018280546124aa90615dd7565b80156124f75780601f106124cc576101008083540402835291602001916124f7565b820191906000526020600020905b8154815290600101906020018083116124da57829003601f168201915b50505050508360200151612d8d565b1561262657816000015167ffffffffffffffff16600960008373ffffffffffffffffffffffffffffffffffffffff1673ffffffffffffffffffffffffffffffffffffffff16815260200190815260200160002060008282546125689190615ca7565b92505081905550816000015167ffffffffffffffff166003600082825461258f9190615b46565b92505081905550816040015167ffffffffffffffff16600460008282546125b69190615ca7565b92505081905550816040015167ffffffffffffffff16600a60008373ffffffffffffffffffffffffffffffffffffffff1673ffffffffffffffffffffffffffffffffffffffff168152602001908152602001600020600082825461261a9190615b46565b9250508190555061273d565b816000015167ffffffffffffffff16600a60008373ffffffffffffffffffffffffffffffffffffffff1673ffffffffffffffffffffffffffffffffffffffff16815260200190815260200160002060008282546126839190615ca7565b92505081905550816000015167ffffffffffffffff16600460008282546126aa9190615b46565b92505081905550816040015167ffffffffffffffff16600360008282546126d19190615ca7565b92505081905550816040015167ffffffffffffffff16600960008373ffffffffffffffffffffffffffffffffffffffff1673ffffffffffffffffffffffffffffffffffffffff16815260200190815260200160002060008282546127359190615b46565b925050819055505b5050565b600080600080600080600061275689896136ab565b9250925092508261277857600082600060069650965096509650505050612884565b600060038267ffffffffffffffff16901c905060006007831690506006808111156127a6576127a5615f12565b5b67ffffffffffffffff168167ffffffffffffffff16106127d9576000846000600698509850985098505050505050612884565b60008167ffffffffffffffff1660068111156127f8576127f7615f12565b5b90506003600681111561280e5761280d615f12565b5b81600681111561282157612820615f12565b5b148061285157506004600681111561283c5761283b615f12565b5b81600681111561284f5761284e615f12565b5b145b1561287057600085600060069950995099509950505050505050612884565b600185848399509950995099505050505050505b92959194509250565b600060018367ffffffffffffffff1614156128d157600260068111156128b6576128b5615f12565b5b8260068111156128c9576128c8615f12565b5b1490506129de565b60028367ffffffffffffffff16141561291357600260068111156128f8576128f7615f12565b5b82600681111561290b5761290a615f12565b5b1490506129de565b60038367ffffffffffffffff161415612955576000600681111561293a57612939615f12565b5b82600681111561294d5761294c615f12565b5b1490506129de565b60048367ffffffffffffffff161415612997576000600681111561297c5761297b615f12565b5b82600681111561298f5761298e615f12565b5b1490506129de565b60058367ffffffffffffffff1614156129d957600260068111156129be576129bd615f12565b5b8260068111156129d1576129d0615f12565b5b1490506129de565b600090505b92915050565b600080600087905060018567ffffffffffffffff161415612a35576000612a0c8289876138a3565b809350819250505080612a2757600082935093505050612b62565b600182935093505050612b62565b60028567ffffffffffffffff161415612a7e576000612a55828987613a28565b809350819250505080612a7057600082935093505050612b62565b600182935093505050612b62565b60038567ffffffffffffffff161415612ac7576000612a9e828987613bad565b809350819250505080612ab957600082935093505050612b62565b600182935093505050612b62565b60048567ffffffffffffffff161415612b10576000612ae7828987613c2f565b809350819250505080612b0257600082935093505050612b62565b600182935093505050612b62565b60058567ffffffffffffffff161415612b59576000612b30828987613cb1565b809350819250505080612b4b57600082935093505050612b62565b600182935093505050612b62565b60008192509250505b9550959350505050565b60006014825114612bb2576040517f08c379a0000000000000000000000000000000000000000000000000000000008152600401612ba990615954565b60405180910390fd5b60006014830151905080915050919050565b600060018367ffffffffffffffff161415612c085760026006811115612bed57612bec615f12565b5b826006811115612c0057612bff615f12565b5b149050612c91565b60028367ffffffffffffffff161415612c4a5760006006811115612c2f57612c2e615f12565b5b826006811115612c4257612c41615f12565b5b149050612c91565b60038367ffffffffffffffff161415612c8c5760026006811115612c7157612c70615f12565b5b826006811115612c8457612c83615f12565b5b149050612c91565b600090505b92915050565b600080600087905060018567ffffffffffffffff161415612ce8576000612cbf828987613e36565b809350819250505080612cda57600082935093505050612d83565b600182935093505050612d83565b60028567ffffffffffffffff161415612d31576000612d08828987613fbb565b809350819250505080612d2357600082935093505050612d83565b600182935093505050612d83565b60038567ffffffffffffffff161415612d7a576000612d5182898761403d565b809350819250505080612d6c57600082935093505050612d83565b600182935093505050612d83565b60008192509250505b9550959350505050565b600081604051602001612da09190615865565b6040516020818303038152906040528051906020012083604051602001612dc79190615865565b6040516020818303038152906040528051906020012014905092915050565b600060018367ffffffffffffffff161415612e2a5760026006811115612e0f57612e0e615f12565b5b826006811115612e2257612e21615f12565b5b149050612eb3565b60028367ffffffffffffffff161415612e6c5760006006811115612e5157612e50615f12565b5b826006811115612e6457612e63615f12565b5b149050612eb3565b60038367ffffffffffffffff161415612eae5760026006811115612e9357612e92615f12565b5b826006811115612ea657612ea5615f12565b5b149050612eb3565b600090505b92915050565b600080600087905060018567ffffffffffffffff161415612f0a576000612ee18289876141c2565b809350819250505080612efc57600082935093505050612fa5565b600182935093505050612fa5565b60028567ffffffffffffffff161415612f53576000612f2a828987614347565b809350819250505080612f4557600082935093505050612fa5565b600182935093505050612fa5565b60038567ffffffffffffffff161415612f9c576000612f738289876143c9565b809350819250505080612f8e57600082935093505050612fa5565b600182935093505050612fa5565b60008192509250505b9550959350505050565b600060018367ffffffffffffffff161415612ff35760006006811115612fd857612fd7615f12565b5b826006811115612feb57612fea615f12565b5b14905061307c565b60028367ffffffffffffffff161415613035576000600681111561301a57613019615f12565b5b82600681111561302d5761302c615f12565b5b14905061307c565b60038367ffffffffffffffff161415613077576002600681111561305c5761305b615f12565b5b82600681111561306f5761306e615f12565b5b14905061307c565b600090505b92915050565b600080600087905060018567ffffffffffffffff1614156130d35760006130aa82898761454e565b8093508192505050806130c55760008293509350505061316e565b60018293509350505061316e565b60028567ffffffffffffffff16141561311c5760006130f38289876145d0565b80935081925050508061310e5760008293509350505061316e565b60018293509350505061316e565b60038567ffffffffffffffff16141561316557600061313c828987614652565b8093508192505050806131575760008293509350505061316e565b60018293509350505061316e565b60008192509250505b9550959350505050565b600060018367ffffffffffffffff1614156131bc57600060068111156131a1576131a0615f12565b5b8260068111156131b4576131b3615f12565b5b149050613287565b60028367ffffffffffffffff1614156131fe57600060068111156131e3576131e2615f12565b5b8260068111156131f6576131f5615f12565b5b149050613287565b60038367ffffffffffffffff161415613240576000600681111561322557613224615f12565b5b82600681111561323857613237615f12565b5b149050613287565b60048367ffffffffffffffff161415613282576002600681111561326757613266615f12565b5b82600681111561327a57613279615f12565b5b149050613287565b600090505b92915050565b600080600087905060018567ffffffffffffffff1614156132de5760006132b58289876147d7565b8093508192505050806132d0576000829350935050506133c2565b6001829350935050506133c2565b60028567ffffffffffffffff1614156133275760006132fe828987614859565b809350819250505080613319576000829350935050506133c2565b6001829350935050506133c2565b60038567ffffffffffffffff1614156133705760006133478289876148db565b809350819250505080613362576000829350935050506133c2565b6001829350935050506133c2565b60048567ffffffffffffffff1614156133b957600061339082898761495d565b8093508192505050806133ab576000829350935050506133c2565b6001829350935050506133c2565b60008192509250505b9550959350505050565b600060018367ffffffffffffffff16141561341057600060068111156133f5576133f4615f12565b5b82600681111561340857613407615f12565b5b14905061351d565b60028367ffffffffffffffff161415613452576002600681111561343757613436615f12565b5b82600681111561344a57613449615f12565b5b14905061351d565b60038367ffffffffffffffff161415613494576000600681111561347957613478615f12565b5b82600681111561348c5761348b615f12565b5b14905061351d565b60048367ffffffffffffffff1614156134d657600260068111156134bb576134ba615f12565b5b8260068111156134ce576134cd615f12565b5b14905061351d565b60058367ffffffffffffffff16141561351857600260068111156134fd576134fc615f12565b5b8260068111156135105761350f615f12565b5b14905061351d565b600090505b92915050565b600080600087905060018567ffffffffffffffff16141561357457600061354b828987614ae2565b809350819250505080613566576000829350935050506136a1565b6001829350935050506136a1565b60028567ffffffffffffffff1614156135bd576000613594828987614b64565b8093508192505050806135af576000829350935050506136a1565b6001829350935050506136a1565b60038567ffffffffffffffff1614156136065760006135dd828987614ce9565b8093508192505050806135f8576000829350935050506136a1565b6001829350935050506136a1565b60048567ffffffffffffffff16141561364f576000613626828987614d6b565b809350819250505080613641576000829350935050506136a1565b6001829350935050506136a1565b60058567ffffffffffffffff16141561369857600061366f828987614ef0565b80935081925050508061368a576000829350935050506136a1565b6001829350935050506136a1565b60008192509250505b9550959350505050565b60008060008060005b600a67ffffffffffffffff168167ffffffffffffffff1610156137ce57855187826136df9190615b9c565b67ffffffffffffffff1610613700576000876000945094509450505061389c565b600086828961370f9190615b9c565b67ffffffffffffffff168151811061372a57613729615f70565b5b602001015160f81c60f81b60f81c90506000607f8216905060078361374f9190615c65565b67ffffffffffffffff168160ff1667ffffffffffffffff16901b8417935060006080831660ff1614156137b95760008367ffffffffffffffff16118015613799575060008160ff16145b156137b25760008960009650965096505050505061389c565b50506137ce565b505080806137c690615e83565b9150506136b4565b600a67ffffffffffffffff168167ffffffffffffffff16106137fc576000876000945094509450505061389c565b6001600a61380a9190615cdb565b67ffffffffffffffff168167ffffffffffffffff1614156138795760018682896138349190615b9c565b67ffffffffffffffff168151811061384f5761384e615f70565b5b602001015160f81c60f81b60f81c60ff161115613878576000876000945094509450505061389c565b5b60018082896138889190615b9c565b6138929190615b9c565b8394509450945050505b9250925092565b6000806000806138b38787615075565b809350819950829450505050816138d257600087935093505050613a20565b60008167ffffffffffffffff1614156138f357600087935093505050613a20565b8067ffffffffffffffff1667ffffffffffffffff81111561391757613916615f9f565b5b6040519080825280601f01601f1916602001820160405280156139495781602001600182028036833780820191505090505b50856000018190525060005b8167ffffffffffffffff168167ffffffffffffffff161015613a075786818961397e9190615b9c565b67ffffffffffffffff168151811061399957613998615f70565b5b602001015160f81c60f81b86600001518267ffffffffffffffff16815181106139c5576139c4615f70565b5b60200101907effffffffffffffffffffffffffffffffffffffffffffffffffffffffffffff1916908160001a90535080806139ff90615e83565b915050613955565b508087613a149190615b9c565b96506001879350935050505b935093915050565b600080600080613a388787615075565b80935081995082945050505081613a5757600087935093505050613ba5565b60008167ffffffffffffffff161415613a7857600087935093505050613ba5565b8067ffffffffffffffff1667ffffffffffffffff811115613a9c57613a9b615f9f565b5b6040519080825280601f01601f191660200182016040528015613ace5781602001600182028036833780820191505090505b50856020018190525060005b8167ffffffffffffffff168167ffffffffffffffff161015613b8c57868189613b039190615b9c565b67ffffffffffffffff1681518110613b1e57613b1d615f70565b5b602001015160f81c60f81b86602001518267ffffffffffffffff1681518110613b4a57613b49615f70565b5b60200101907effffffffffffffffffffffffffffffffffffffffffffffffffffffffffffff1916908160001a9053508080613b8490615e83565b915050613ada565b508087613b999190615b9c565b96506001879350935050505b935093915050565b600080600080613bbd8787615091565b80935081995082945050505081613bdc57600087935093505050613c27565b60008167ffffffffffffffff161415613bfd57600087935093505050613c27565b80856040019067ffffffffffffffff16908167ffffffffffffffff16815250506001879350935050505b935093915050565b600080600080613c3f8787615091565b80935081995082945050505081613c5e57600087935093505050613ca9565b60008167ffffffffffffffff161415613c7f57600087935093505050613ca9565b80856060019067ffffffffffffffff16908167ffffffffffffffff16815250506001879350935050505b935093915050565b600080600080613cc18787615075565b80935081995082945050505081613ce057600087935093505050613e2e565b60008167ffffffffffffffff161415613d0157600087935093505050613e2e565b8067ffffffffffffffff1667ffffffffffffffff811115613d2557613d24615f9f565b5b6040519080825280601f01601f191660200182016040528015613d575781602001600182028036833780820191505090505b50856080018190525060005b8167ffffffffffffffff168167ffffffffffffffff161015613e1557868189613d8c9190615b9c565b67ffffffffffffffff1681518110613da757613da6615f70565b5b602001015160f81c60f81b86608001518267ffffffffffffffff1681518110613dd357613dd2615f70565b5b60200101907effffffffffffffffffffffffffffffffffffffffffffffffffffffffffffff1916908160001a9053508080613e0d90615e83565b915050613d63565b508087613e229190615b9c565b96506001879350935050505b935093915050565b600080600080613e468787615075565b80935081995082945050505081613e6557600087935093505050613fb3565b60008167ffffffffffffffff161415613e8657600087935093505050613fb3565b8067ffffffffffffffff1667ffffffffffffffff811115613eaa57613ea9615f9f565b5b6040519080825280601f01601f191660200182016040528015613edc5781602001600182028036833780820191505090505b50856000018190525060005b8167ffffffffffffffff168167ffffffffffffffff161015613f9a57868189613f119190615b9c565b67ffffffffffffffff1681518110613f2c57613f2b615f70565b5b602001015160f81c60f81b86600001518267ffffffffffffffff1681518110613f5857613f57615f70565b5b60200101907effffffffffffffffffffffffffffffffffffffffffffffffffffffffffffff1916908160001a9053508080613f9290615e83565b915050613ee8565b508087613fa79190615b9c565b96506001879350935050505b935093915050565b600080600080613fcb8787615091565b80935081995082945050505081613fea57600087935093505050614035565b60008167ffffffffffffffff16141561400b57600087935093505050614035565b80856020019067ffffffffffffffff16908167ffffffffffffffff16815250506001879350935050505b935093915050565b60008060008061404d8787615075565b8093508199508294505050508161406c576000879350935050506141ba565b60008167ffffffffffffffff16141561408d576000879350935050506141ba565b8067ffffffffffffffff1667ffffffffffffffff8111156140b1576140b0615f9f565b5b6040519080825280601f01601f1916602001820160405280156140e35781602001600182028036833780820191505090505b50856040018190525060005b8167ffffffffffffffff168167ffffffffffffffff1610156141a1578681896141189190615b9c565b67ffffffffffffffff168151811061413357614132615f70565b5b602001015160f81c60f81b86604001518267ffffffffffffffff168151811061415f5761415e615f70565b5b60200101907effffffffffffffffffffffffffffffffffffffffffffffffffffffffffffff1916908160001a905350808061419990615e83565b9150506140ef565b5080876141ae9190615b9c565b96506001879350935050505b935093915050565b6000806000806141d28787615075565b809350819950829450505050816141f15760008793509350505061433f565b60008167ffffffffffffffff1614156142125760008793509350505061433f565b8067ffffffffffffffff1667ffffffffffffffff81111561423657614235615f9f565b5b6040519080825280601f01601f1916602001820160405280156142685781602001600182028036833780820191505090505b50856000018190525060005b8167ffffffffffffffff168167ffffffffffffffff1610156143265786818961429d9190615b9c565b67ffffffffffffffff16815181106142b8576142b7615f70565b5b602001015160f81c60f81b86600001518267ffffffffffffffff16815181106142e4576142e3615f70565b5b60200101907effffffffffffffffffffffffffffffffffffffffffffffffffffffffffffff1916908160001a905350808061431e90615e83565b915050614274565b5080876143339190615b9c565b96506001879350935050505b935093915050565b6000806000806143578787615091565b80935081995082945050505081614376576000879350935050506143c1565b60008167ffffffffffffffff161415614397576000879350935050506143c1565b80856020019067ffffffffffffffff16908167ffffffffffffffff16815250506001879350935050505b935093915050565b6000806000806143d98787615075565b809350819950829450505050816143f857600087935093505050614546565b60008167ffffffffffffffff16141561441957600087935093505050614546565b8067ffffffffffffffff1667ffffffffffffffff81111561443d5761443c615f9f565b5b6040519080825280601f01601f19166020018201604052801561446f5781602001600182028036833780820191505090505b50856040018190525060005b8167ffffffffffffffff168167ffffffffffffffff16101561452d578681896144a49190615b9c565b67ffffffffffffffff16815181106144bf576144be615f70565b5b602001015160f81c60f81b86604001518267ffffffffffffffff16815181106144eb576144ea615f70565b5b60200101907effffffffffffffffffffffffffffffffffffffffffffffffffffffffffffff1916908160001a905350808061452590615e83565b91505061447b565b50808761453a9190615b9c565b96506001879350935050505b935093915050565b60008060008061455e8787615091565b8093508199508294505050508161457d576000879350935050506145c8565b60008167ffffffffffffffff16141561459e576000879350935050506145c8565b80856000019067ffffffffffffffff16908167ffffffffffffffff16815250506001879350935050505b935093915050565b6000806000806145e08787615091565b809350819950829450505050816145ff5760008793509350505061464a565b60008167ffffffffffffffff1614156146205760008793509350505061464a565b80856020019067ffffffffffffffff16908167ffffffffffffffff16815250506001879350935050505b935093915050565b6000806000806146628787615075565b80935081995082945050505081614681576000879350935050506147cf565b60008167ffffffffffffffff1614156146a2576000879350935050506147cf565b8067ffffffffffffffff1667ffffffffffffffff8111156146c6576146c5615f9f565b5b6040519080825280601f01601f1916602001820160405280156146f85781602001600182028036833780820191505090505b50856040018190525060005b8167ffffffffffffffff168167ffffffffffffffff1610156147b65786818961472d9190615b9c565b67ffffffffffffffff168151811061474857614747615f70565b5b602001015160f81c60f81b86604001518267ffffffffffffffff168151811061477457614773615f70565b5b60200101907effffffffffffffffffffffffffffffffffffffffffffffffffffffffffffff1916908160001a90535080806147ae90615e83565b915050614704565b5080876147c39190615b9c565b96506001879350935050505b935093915050565b6000806000806147e78787615091565b8093508199508294505050508161480657600087935093505050614851565b60008167ffffffffffffffff16141561482757600087935093505050614851565b80856000019067ffffffffffffffff16908167ffffffffffffffff16815250506001879350935050505b935093915050565b6000806000806148698787615091565b80935081995082945050505081614888576000879350935050506148d3565b60008167ffffffffffffffff1614156148a9576000879350935050506148d3565b80856020019067ffffffffffffffff16908167ffffffffffffffff16815250506001879350935050505b935093915050565b6000806000806148eb8787615091565b8093508199508294505050508161490a57600087935093505050614955565b60008167ffffffffffffffff16141561492b57600087935093505050614955565b80856040019067ffffffffffffffff16908167ffffffffffffffff16815250506001879350935050505b935093915050565b60008060008061496d8787615075565b8093508199508294505050508161498c57600087935093505050614ada565b60008167ffffffffffffffff1614156149ad57600087935093505050614ada565b8067ffffffffffffffff1667ffffffffffffffff8111156149d1576149d0615f9f565b5b6040519080825280601f01601f191660200182016040528015614a035781602001600182028036833780820191505090505b50856060018190525060005b8167ffffffffffffffff168167ffffffffffffffff161015614ac157868189614a389190615b9c565b67ffffffffffffffff1681518110614a5357614a52615f70565b5b602001015160f81c60f81b86606001518267ffffffffffffffff1681518110614a7f57614a7e615f70565b5b60200101907effffffffffffffffffffffffffffffffffffffffffffffffffffffffffffff1916908160001a9053508080614ab990615e83565b915050614a0f565b508087614ace9190615b9c565b96506001879350935050505b935093915050565b600080600080614af28787615091565b80935081995082945050505081614b1157600087935093505050614b5c565b60008167ffffffffffffffff161415614b3257600087935093505050614b5c565b80856000019067ffffffffffffffff16908167ffffffffffffffff16815250506001879350935050505b935093915050565b600080600080614b748787615075565b80935081995082945050505081614b9357600087935093505050614ce1565b60008167ffffffffffffffff161415614bb457600087935093505050614ce1565b8067ffffffffffffffff1667ffffffffffffffff811115614bd857614bd7615f9f565b5b6040519080825280601f01601f191660200182016040528015614c0a5781602001600182028036833780820191505090505b50856020018190525060005b8167ffffffffffffffff168167ffffffffffffffff161015614cc857868189614c3f9190615b9c565b67ffffffffffffffff1681518110614c5a57614c59615f70565b5b602001015160f81c60f81b86602001518267ffffffffffffffff1681518110614c8657614c85615f70565b5b60200101907effffffffffffffffffffffffffffffffffffffffffffffffffffffffffffff1916908160001a9053508080614cc090615e83565b915050614c16565b508087614cd59190615b9c565b96506001879350935050505b935093915050565b600080600080614cf98787615091565b80935081995082945050505081614d1857600087935093505050614d63565b60008167ffffffffffffffff161415614d3957600087935093505050614d63565b80856040019067ffffffffffffffff16908167ffffffffffffffff16815250506001879350935050505b935093915050565b600080600080614d7b8787615075565b80935081995082945050505081614d9a57600087935093505050614ee8565b60008167ffffffffffffffff161415614dbb57600087935093505050614ee8565b8067ffffffffffffffff1667ffffffffffffffff811115614ddf57614dde615f9f565b5b6040519080825280601f01601f191660200182016040528015614e115781602001600182028036833780820191505090505b50856060018190525060005b8167ffffffffffffffff168167ffffffffffffffff161015614ecf57868189614e469190615b9c565b67ffffffffffffffff1681518110614e6157614e60615f70565b5b602001015160f81c60f81b86606001518267ffffffffffffffff1681518110614e8d57614e8c615f70565b5b60200101907effffffffffffffffffffffffffffffffffffffffffffffffffffffffffffff1916908160001a9053508080614ec790615e83565b915050614e1d565b508087614edc9190615b9c565b96506001879350935050505b935093915050565b600080600080614f008787615075565b80935081995082945050505081614f1f5760008793509350505061506d565b60008167ffffffffffffffff161415614f405760008793509350505061506d565b8067ffffffffffffffff1667ffffffffffffffff811115614f6457614f63615f9f565b5b6040519080825280601f01601f191660200182016040528015614f965781602001600182028036833780820191505090505b50856080018190525060005b8167ffffffffffffffff168167ffffffffffffffff16101561505457868189614fcb9190615b9c565b67ffffffffffffffff1681518110614fe657614fe5615f70565b5b602001015160f81c60f81b86608001518267ffffffffffffffff168151811061501257615011615f70565b5b60200101907effffffffffffffffffffffffffffffffffffffffffffffffffffffffffffff1916908160001a905350808061504c90615e83565b915050614fa2565b5080876150619190615b9c565b96506001879350935050505b935093915050565b600080600061508485856150d7565b9250925092509250925092565b6000806000806000806150a488886136ab565b925092509250826150c25760008260009550955095505050506150d0565b600182829550955095505050505b9250925092565b6000806000806000806150ea88886136ab565b92509250925082615108576000826000955095509550505050615178565b8167ffffffffffffffff1681830167ffffffffffffffff161015615139576000826000955095509550505050615178565b865182826151479190615b9c565b67ffffffffffffffff16111561516a576000826000955095509550505050615178565b600182829550955095505050505b9250925092565b508054600082559060005260206000209081019061519d9190615403565b50565b8280546151ac90615dd7565b90600052602060002090601f0160209004810192826151ce5760008555615215565b82601f106151e757805160ff1916838001178555615215565b82800160010185558215615215579182015b828111156152145782518255916020019190600101906151f9565b5b5090506152229190615403565b5090565b6040518060a001604052806060815260200160608152602001600067ffffffffffffffff168152602001600067ffffffffffffffff168152602001606081525090565b82805461527590615dd7565b90600052602060002090601f01602090048101928261529757600085556152de565b82601f106152b057805160ff19168380011785556152de565b828001600101855582156152de579182015b828111156152dd5782518255916020019190600101906152c2565b5b5090506152eb9190615403565b5090565b604051806060016040528060608152602001600067ffffffffffffffff168152602001606081525090565b604051806060016040528060608152602001600067ffffffffffffffff168152602001606081525090565b6040518060600160405280600067ffffffffffffffff168152602001600067ffffffffffffffff168152602001606081525090565b6040518060800160405280600067ffffffffffffffff168152602001600067ffffffffffffffff168152602001600067ffffffffffffffff168152602001606081525090565b6040518060a00160405280600067ffffffffffffffff16815260200160608152602001600067ffffffffffffffff16815260200160608152602001606081525090565b5b8082111561541c576000816000905550600101615404565b5090565b600061543361542e84615add565b615ab8565b90508281526020810184848401111561544f5761544e615fdd565b5b61545a848285615d6b565b509392505050565b6000813590506154718161638e565b92915050565b600082601f83011261548c5761548b615fce565b5b813561549c848260208601615420565b91505092915050565b6000813590506154b4816163a5565b92915050565b6000606082840312156154d0576154cf615fd3565b5b6154da6060615ab8565b905060006154ea8482850161554f565b60008301525060206154fe848285016154a5565b602083015250604082013567ffffffffffffffff81111561552257615521615fd8565b5b61552e84828501615477565b60408301525092915050565b600081359050615549816163b5565b92915050565b60008135905061555e816163cc565b92915050565b60006020828403121561557a57615579615fe7565b5b600061558884828501615462565b91505092915050565b6000602082840312156155a7576155a6615fe7565b5b600082013567ffffffffffffffff8111156155c5576155c4615fe2565b5b6155d1848285016154ba565b91505092915050565b6000602082840312156155f0576155ef615fe7565b5b60006155fe8482850161553a565b91505092915050565b61561081615d0f565b82525050565b61561f81615d21565b82525050565b600061563082615b0e565b61563a8185615b19565b935061564a818560208601615d7a565b61565381615fec565b840191505092915050565b600061566982615b0e565b6156738185615b2a565b9350615683818560208601615d7a565b80840191505092915050565b600061569c602a83615b35565b91506156a782615ffd565b604082019050919050565b60006156bf602683615b35565b91506156ca8261604c565b604082019050919050565b60006156e2602c83615b35565b91506156ed8261609b565b604082019050919050565b6000615705602c83615b35565b9150615710826160ea565b604082019050919050565b6000615728601683615b35565b915061573382616139565b602082019050919050565b600061574b603183615b35565b915061575682616162565b604082019050919050565b600061576e602c83615b35565b9150615779826161b1565b604082019050919050565b6000615791602083615b35565b915061579c82616200565b602082019050919050565b60006157b4602483615b35565b91506157bf82616229565b604082019050919050565b60006157d7602883615b35565b91506157e282616278565b604082019050919050565b60006157fa602a83615b35565b9150615805826162c7565b604082019050919050565b600061581d601483615b35565b915061582882616316565b602082019050919050565b6000615840602e83615b35565b915061584b8261633f565b604082019050919050565b61585f81615d4d565b82525050565b6000615871828461565e565b915081905092915050565b60006020820190506158916000830184615607565b92915050565b60006020820190506158ac6000830184615616565b92915050565b600060208201905081810360008301526158cc8184615625565b905092915050565b600060208201905081810360008301526158ed8161568f565b9050919050565b6000602082019050818103600083015261590d816156b2565b9050919050565b6000602082019050818103600083015261592d816156d5565b9050919050565b6000602082019050818103600083015261594d816156f8565b9050919050565b6000602082019050818103600083015261596d8161571b565b9050919050565b6000602082019050818103600083015261598d8161573e565b9050919050565b600060208201905081810360008301526159ad81615761565b9050919050565b600060208201905081810360008301526159cd81615784565b9050919050565b600060208201905081810360008301526159ed816157a7565b9050919050565b60006020820190508181036000830152615a0d816157ca565b9050919050565b60006020820190508181036000830152615a2d816157ed565b9050919050565b60006020820190508181036000830152615a4d81615810565b9050919050565b60006020820190508181036000830152615a6d81615833565b9050919050565b6000602082019050615a896000830184615856565b92915050565b6000604082019050615aa46000830185615856565b615ab16020830184615856565b9392505050565b6000615ac2615ad3565b9050615ace8282615e09565b919050565b6000604051905090565b600067ffffffffffffffff821115615af857615af7615f9f565b5b615b0182615fec565b9050602081019050919050565b600081519050919050565b600082825260208201905092915050565b600081905092915050565b600082825260208201905092915050565b6000615b5182615d4d565b9150615b5c83615d4d565b9250827fffffffffffffffffffffffffffffffffffffffffffffffffffffffffffffffff03821115615b9157615b90615eb4565b5b828201905092915050565b6000615ba782615d57565b9150615bb283615d57565b92508267ffffffffffffffff03821115615bcf57615bce615eb4565b5b828201905092915050565b6000615be582615d4d565b9150615bf083615d4d565b925082615c0057615bff615ee3565b5b828204905092915050565b6000615c1682615d4d565b9150615c2183615d4d565b9250817fffffffffffffffffffffffffffffffffffffffffffffffffffffffffffffffff0483118215151615615c5a57615c59615eb4565b5b828202905092915050565b6000615c7082615d57565b9150615c7b83615d57565b92508167ffffffffffffffff0483118215151615615c9c57615c9b615eb4565b5b828202905092915050565b6000615cb282615d4d565b9150615cbd83615d4d565b925082821015615cd057615ccf615eb4565b5b828203905092915050565b6000615ce682615d57565b9150615cf183615d57565b925082821015615d0457615d03615eb4565b5b828203905092915050565b6000615d1a82615d2d565b9050919050565b60008115159050919050565b600073ffffffffffffffffffffffffffffffffffffffff82169050919050565b6000819050919050565b600067ffffffffffffffff82169050919050565b82818337600083830152505050565b60005b83811015615d98578082015181840152602081019050615d7d565b83811115615da7576000848401525b50505050565b6000615db882615d4d565b91506000821415615dcc57615dcb615eb4565b5b600182039050919050565b60006002820490506001821680615def57607f821691505b60208210811415615e0357615e02615f41565b5b50919050565b615e1282615fec565b810181811067ffffffffffffffff82111715615e3157615e30615f9f565b5b80604052505050565b6000615e4582615d4d565b91507fffffffffffffffffffffffffffffffffffffffffffffffffffffffffffffffff821415615e7857615e77615eb4565b5b600182019050919050565b6000615e8e82615d57565b915067ffffffffffffffff821415615ea957615ea8615eb4565b5b600182019050919050565b7f4e487b7100000000000000000000000000000000000000000000000000000000600052601160045260246000fd5b7f4e487b7100000000000000000000000000000000000000000000000000000000600052601260045260246000fd5b7f4e487b7100000000000000000000000000000000000000000000000000000000600052602160045260246000fd5b7f4e487b7100000000000000000000000000000000000000000000000000000000600052602260045260246000fd5b7f4e487b7100000000000000000000000000000000000000000000000000000000600052603260045260246000fd5b7f4e487b7100000000000000000000000000000000000000000000000000000000600052604160045260246000fd5b600080fd5b600080fd5b600080fd5b600080fd5b600080fd5b600080fd5b6000601f19601f8301169050919050565b7f546f6b656e735377617065645061796c6f616420646573657269616c697a617460008201527f696f6e206661696c656400000000000000000000000000000000000000000000602082015250565b7f4f776e61626c653a206e6577206f776e657220697320746865207a65726f206160008201527f6464726573730000000000000000000000000000000000000000000000000000602082015250565b7f4c697175696469747941646465645061796c6f616420646573657269616c697a60008201527f6174696f6e206661696c65640000000000000000000000000000000000000000602082015250565b7f46756e647357697468647261776e5061796c6f616420646573657269616c697a60008201527f6174696f6e206661696c65640000000000000000000000000000000000000000602082015250565b7f496e76616c6964206164647265737320666f726d617400000000000000000000600082015250565b7f41737365742076616c7565206c657373207468616e207468726573686f6c642060008201527f666f7220636f6e747269627574696f6e21000000000000000000000000000000602082015250565b7f46756e64734465706f73697465645061796c6f616420646573657269616c697a60008201527f6174696f6e206661696c65640000000000000000000000000000000000000000602082015250565b7f4f776e61626c653a2063616c6c6572206973206e6f7420746865206f776e6572600082015250565b7f53686172652073686f756c64206265206c657373207468616e20746f74616c5360008201527f6861726500000000000000000000000000000000000000000000000000000000602082015250565b7f414d4d437265617465645061796c6f616420646573657269616c697a6174696f60008201527f6e206661696c6564000000000000000000000000000000000000000000000000602082015250565b7f4571756976616c656e742076616c7565206f6620746f6b656e73206e6f74207060008201527f726f76696465642e2e2e00000000000000000000000000000000000000000000602082015250565b7f4e6f206c697175696469747920696e20706f6f6c000000000000000000000000600082015250565b7f4c697175696469747952656d6f7665645061796c6f616420646573657269616c60008201527f697a6174696f6e206661696c6564000000000000000000000000000000000000602082015250565b61639781615d0f565b81146163a257600080fd5b50565b600981106163b257600080fd5b50565b6163be81615d4d565b81146163c957600080fd5b50565b6163d581615d57565b81146163e057600080fd5b5056fea26469706673582212205265f5de0692465cc4e6bac615d7778992b5e75dcff94cd4d545a925b3e7146d64736f6c63430008060033",
			"opcodes": "PUSH1 0x80 PUSH1 0x40 MSTORE CALLVALUE DUP1 ISZERO PUSH3 0x11 JUMPI PUSH1 0x0 DUP1 REVERT JUMPDEST POP PUSH1 0x40 MLOAD PUSH3 0x11427 CODESIZE SUB DUP1 PUSH3 0x11427 DUP4 CODECOPY DUP2 DUP2 ADD PUSH1 0x40 MSTORE DUP2 ADD SWAP1 PUSH3 0x37 SWAP2 SWAP1 PUSH3 0x2EB JUMP JUMPDEST PUSH3 0x57 PUSH3 0x4B PUSH3 0xE3 PUSH1 0x20 SHL PUSH1 0x20 SHR JUMP JUMPDEST PUSH3 0xEB PUSH1 0x20 SHL PUSH1 0x20 SHR JUMP JUMPDEST DUP1 PUSH1 0x1 SWAP1 DUP1 MLOAD SWAP1 PUSH1 0x20 ADD SWAP1 PUSH3 0x6F SWAP3 SWAP2 SWAP1 PUSH3 0x1AF JUMP JUMPDEST POP PUSH1 0x40 MLOAD PUSH3 0x7E SWAP1 PUSH3 0x240 JUMP JUMPDEST PUSH1 0x40 MLOAD DUP1 SWAP2 SUB SWAP1 PUSH1 0x0 CREATE DUP1 ISZERO DUP1 ISZERO PUSH3 0x9B JUMPI RETURNDATASIZE PUSH1 0x0 DUP1 RETURNDATACOPY RETURNDATASIZE PUSH1 0x0 REVERT JUMPDEST POP PUSH1 0x2 PUSH1 0x0 PUSH2 0x100 EXP DUP2 SLOAD DUP2 PUSH20 0xFFFFFFFFFFFFFFFFFFFFFFFFFFFFFFFFFFFFFFFF MUL NOT AND SWAP1 DUP4 PUSH20 0xFFFFFFFFFFFFFFFFFFFFFFFFFFFFFFFFFFFFFFFF AND MUL OR SWAP1 SSTORE POP POP PUSH3 0x4C0 JUMP JUMPDEST PUSH1 0x0 CALLER SWAP1 POP SWAP1 JUMP JUMPDEST PUSH1 0x0 DUP1 PUSH1 0x0 SWAP1 SLOAD SWAP1 PUSH2 0x100 EXP SWAP1 DIV PUSH20 0xFFFFFFFFFFFFFFFFFFFFFFFFFFFFFFFFFFFFFFFF AND SWAP1 POP DUP2 PUSH1 0x0 DUP1 PUSH2 0x100 EXP DUP2 SLOAD DUP2 PUSH20 0xFFFFFFFFFFFFFFFFFFFFFFFFFFFFFFFFFFFFFFFF MUL NOT AND SWAP1 DUP4 PUSH20 0xFFFFFFFFFFFFFFFFFFFFFFFFFFFFFFFFFFFFFFFF AND MUL OR SWAP1 SSTORE POP DUP2 PUSH20 0xFFFFFFFFFFFFFFFFFFFFFFFFFFFFFFFFFFFFFFFF AND DUP2 PUSH20 0xFFFFFFFFFFFFFFFFFFFFFFFFFFFFFFFFFFFFFFFF AND PUSH32 0x8BE0079C531659141344CD1FD0A4F28419497F9722A3DAAFE3B4186F6B6457E0 PUSH1 0x40 MLOAD PUSH1 0x40 MLOAD DUP1 SWAP2 SUB SWAP1 LOG3 POP POP JUMP JUMPDEST DUP3 DUP1 SLOAD PUSH3 0x1BD SWAP1 PUSH3 0x3D1 JUMP JUMPDEST SWAP1 PUSH1 0x0 MSTORE PUSH1 0x20 PUSH1 0x0 KECCAK256 SWAP1 PUSH1 0x1F ADD PUSH1 0x20 SWAP1 DIV DUP2 ADD SWAP3 DUP3 PUSH3 0x1E1 JUMPI PUSH1 0x0 DUP6 SSTORE PUSH3 0x22D JUMP JUMPDEST DUP3 PUSH1 0x1F LT PUSH3 0x1FC JUMPI DUP1 MLOAD PUSH1 0xFF NOT AND DUP4 DUP1 ADD OR DUP6 SSTORE PUSH3 0x22D JUMP JUMPDEST DUP3 DUP1 ADD PUSH1 0x1 ADD DUP6 SSTORE DUP3 ISZERO PUSH3 0x22D JUMPI SWAP2 DUP3 ADD JUMPDEST DUP3 DUP2 GT ISZERO PUSH3 0x22C JUMPI DUP3 MLOAD DUP3 SSTORE SWAP2 PUSH1 0x20 ADD SWAP2 SWAP1 PUSH1 0x1 ADD SWAP1 PUSH3 0x20F JUMP JUMPDEST JUMPDEST POP SWAP1 POP PUSH3 0x23C SWAP2 SWAP1 PUSH3 0x24E JUMP JUMPDEST POP SWAP1 JUMP JUMPDEST PUSH2 0x6548 DUP1 PUSH3 0xAEDF DUP4 CODECOPY ADD SWAP1 JUMP JUMPDEST JUMPDEST DUP1 DUP3 GT ISZERO PUSH3 0x269 JUMPI PUSH1 0x0 DUP2 PUSH1 0x0 SWAP1 SSTORE POP PUSH1 0x1 ADD PUSH3 0x24F JUMP JUMPDEST POP SWAP1 JUMP JUMPDEST PUSH1 0x0 PUSH3 0x284 PUSH3 0x27E DUP5 PUSH3 0x365 JUMP JUMPDEST PUSH3 0x33C JUMP JUMPDEST SWAP1 POP DUP3 DUP2 MSTORE PUSH1 0x20 DUP2 ADD DUP5 DUP5 DUP5 ADD GT ISZERO PUSH3 0x2A3 JUMPI PUSH3 0x2A2 PUSH3 0x4A0 JUMP JUMPDEST JUMPDEST PUSH3 0x2B0 DUP5 DUP3 DUP6 PUSH3 0x39B JUMP JUMPDEST POP SWAP4 SWAP3 POP POP POP JUMP JUMPDEST PUSH1 0x0 DUP3 PUSH1 0x1F DUP4 ADD SLT PUSH3 0x2D0 JUMPI PUSH3 0x2CF PUSH3 0x49B JUMP JUMPDEST JUMPDEST DUP2 MLOAD PUSH3 0x2E2 DUP5 DUP3 PUSH1 0x20 DUP7 ADD PUSH3 0x26D JUMP JUMPDEST SWAP2 POP POP SWAP3 SWAP2 POP POP JUMP JUMPDEST PUSH1 0x0 PUSH1 0x20 DUP3 DUP5 SUB SLT ISZERO PUSH3 0x304 JUMPI PUSH3 0x303 PUSH3 0x4AA JUMP JUMPDEST JUMPDEST PUSH1 0x0 DUP3 ADD MLOAD PUSH8 0xFFFFFFFFFFFFFFFF DUP2 GT ISZERO PUSH3 0x325 JUMPI PUSH3 0x324 PUSH3 0x4A5 JUMP JUMPDEST JUMPDEST PUSH3 0x333 DUP5 DUP3 DUP6 ADD PUSH3 0x2B8 JUMP JUMPDEST SWAP2 POP POP SWAP3 SWAP2 POP POP JUMP JUMPDEST PUSH1 0x0 PUSH3 0x348 PUSH3 0x35B JUMP JUMPDEST SWAP1 POP PUSH3 0x356 DUP3 DUP3 PUSH3 0x407 JUMP JUMPDEST SWAP2 SWAP1 POP JUMP JUMPDEST PUSH1 0x0 PUSH1 0x40 MLOAD SWAP1 POP SWAP1 JUMP JUMPDEST PUSH1 0x0 PUSH8 0xFFFFFFFFFFFFFFFF DUP3 GT ISZERO PUSH3 0x383 JUMPI PUSH3 0x382 PUSH3 0x46C JUMP JUMPDEST JUMPDEST PUSH3 0x38E DUP3 PUSH3 0x4AF JUMP JUMPDEST SWAP1 POP PUSH1 0x20 DUP2 ADD SWAP1 POP SWAP2 SWAP1 POP JUMP JUMPDEST PUSH1 0x0 JUMPDEST DUP4 DUP2 LT ISZERO PUSH3 0x3BB JUMPI DUP1 DUP3 ADD MLOAD DUP2 DUP5 ADD MSTORE PUSH1 0x20 DUP2 ADD SWAP1 POP PUSH3 0x39E JUMP JUMPDEST DUP4 DUP2 GT ISZERO PUSH3 0x3CB JUMPI PUSH1 0x0 DUP5 DUP5 ADD MSTORE JUMPDEST POP POP POP POP JUMP JUMPDEST PUSH1 0x0 PUSH1 0x2 DUP3 DIV SWAP1 POP PUSH1 0x1 DUP3 AND DUP1 PUSH3 0x3EA JUMPI PUSH1 0x7F DUP3 AND SWAP2 POP JUMPDEST PUSH1 0x20 DUP3 LT DUP2 EQ ISZERO PUSH3 0x401 JUMPI PUSH3 0x400 PUSH3 0x43D JUMP JUMPDEST JUMPDEST POP SWAP2 SWAP1 POP JUMP JUMPDEST PUSH3 0x412 DUP3 PUSH3 0x4AF JUMP JUMPDEST DUP2 ADD DUP2 DUP2 LT PUSH8 0xFFFFFFFFFFFFFFFF DUP3 GT OR ISZERO PUSH3 0x434 JUMPI PUSH3 0x433 PUSH3 0x46C JUMP JUMPDEST JUMPDEST DUP1 PUSH1 0x40 MSTORE POP POP POP JUMP JUMPDEST PUSH32 0x4E487B7100000000000000000000000000000000000000000000000000000000 PUSH1 0x0 MSTORE PUSH1 0x22 PUSH1 0x4 MSTORE PUSH1 0x24 PUSH1 0x0 REVERT JUMPDEST PUSH32 0x4E487B7100000000000000000000000000000000000000000000000000000000 PUSH1 0x0 MSTORE PUSH1 0x41 PUSH1 0x4 MSTORE PUSH1 0x24 PUSH1 0x0 REVERT JUMPDEST PUSH1 0x0 DUP1 REVERT JUMPDEST PUSH1 0x0 DUP1 REVERT JUMPDEST PUSH1 0x0 DUP1 REVERT JUMPDEST PUSH1 0x0 DUP1 REVERT JUMPDEST PUSH1 0x0 PUSH1 0x1F NOT PUSH1 0x1F DUP4 ADD AND SWAP1 POP SWAP2 SWAP1 POP JUMP JUMPDEST PUSH2 0xAA0F DUP1 PUSH3 0x4D0 PUSH1 0x0 CODECOPY PUSH1 0x0 RETURN INVALID PUSH1 0x80 PUSH1 0x40 MSTORE CALLVALUE DUP1 ISZERO PUSH2 0x10 JUMPI PUSH1 0x0 DUP1 REVERT JUMPDEST POP PUSH1 0x4 CALLDATASIZE LT PUSH2 0x9E JUMPI PUSH1 0x0 CALLDATALOAD PUSH1 0xE0 SHR DUP1 PUSH4 0x8DA5CB5B GT PUSH2 0x66 JUMPI DUP1 PUSH4 0x8DA5CB5B EQ PUSH2 0x133 JUMPI DUP1 PUSH4 0xAF640D0F EQ PUSH2 0x151 JUMPI DUP1 PUSH4 0xC19D93FB EQ PUSH2 0x16F JUMPI DUP1 PUSH4 0xD826F88F EQ PUSH2 0x18D JUMPI DUP1 PUSH4 0xF2FDE38B EQ PUSH2 0x197 JUMPI PUSH2 0x9E JUMP JUMPDEST DUP1 PUSH4 0x8DD8CFF EQ PUSH2 0xA3 JUMPI DUP1 PUSH4 0x1650D3CE EQ PUSH2 0xC1 JUMPI DUP1 PUSH4 0x37306D84 EQ PUSH2 0xDD JUMPI DUP1 PUSH4 0x54A8BD07 EQ PUSH2 0xF9 JUMPI DUP1 PUSH4 0x715018A6 EQ PUSH2 0x129 JUMPI JUMPDEST PUSH1 0x0 DUP1 REVERT JUMPDEST PUSH2 0xAB PUSH2 0x1B3 JUMP JUMPDEST PUSH1 0x40 MLOAD PUSH2 0xB8 SWAP2 SWAP1 PUSH2 0xA044 JUMP JUMPDEST PUSH1 0x40 MLOAD DUP1 SWAP2 SUB SWAP1 RETURN JUMPDEST PUSH2 0xDB PUSH1 0x4 DUP1 CALLDATASIZE SUB DUP2 ADD SWAP1 PUSH2 0xD6 SWAP2 SWAP1 PUSH2 0x980B JUMP JUMPDEST PUSH2 0x1C0 JUMP JUMPDEST STOP JUMPDEST PUSH2 0xF7 PUSH1 0x4 DUP1 CALLDATASIZE SUB DUP2 ADD SWAP1 PUSH2 0xF2 SWAP2 SWAP1 PUSH2 0x98CA JUMP JUMPDEST PUSH2 0x2FA JUMP JUMPDEST STOP JUMPDEST PUSH2 0x113 PUSH1 0x4 DUP1 CALLDATASIZE SUB DUP2 ADD SWAP1 PUSH2 0x10E SWAP2 SWAP1 PUSH2 0x9913 JUMP JUMPDEST PUSH2 0x355 JUMP JUMPDEST PUSH1 0x40 MLOAD PUSH2 0x120 SWAP2 SWAP1 PUSH2 0xA022 JUMP JUMPDEST PUSH1 0x40 MLOAD DUP1 SWAP2 SUB SWAP1 RETURN JUMPDEST PUSH2 0x131 PUSH2 0x490 JUMP JUMPDEST STOP JUMPDEST PUSH2 0x13B PUSH2 0x4A4 JUMP JUMPDEST PUSH1 0x40 MLOAD PUSH2 0x148 SWAP2 SWAP1 PUSH2 0x9D6A JUMP JUMPDEST PUSH1 0x40 MLOAD DUP1 SWAP2 SUB SWAP1 RETURN JUMPDEST PUSH2 0x159 PUSH2 0x4CD JUMP JUMPDEST PUSH1 0x40 MLOAD PUSH2 0x166 SWAP2 SWAP1 PUSH2 0x9DA0 JUMP JUMPDEST PUSH1 0x40 MLOAD DUP1 SWAP2 SUB SWAP1 RETURN JUMPDEST PUSH2 0x177 PUSH2 0x55B JUMP JUMPDEST PUSH1 0x40 MLOAD PUSH2 0x184 SWAP2 SWAP1 PUSH2 0x9D85 JUMP JUMPDEST PUSH1 0x40 MLOAD DUP1 SWAP2 SUB SWAP1 RETURN JUMPDEST PUSH2 0x195 PUSH2 0x581 JUMP JUMPDEST STOP JUMPDEST PUSH2 0x1B1 PUSH1 0x4 DUP1 CALLDATASIZE SUB DUP2 ADD SWAP1 PUSH2 0x1AC SWAP2 SWAP1 PUSH2 0x97DE JUMP JUMPDEST PUSH2 0x660 JUMP JUMPDEST STOP JUMPDEST PUSH1 0x0 PUSH1 0x3 DUP1 SLOAD SWAP1 POP SWAP1 POP SWAP1 JUMP JUMPDEST PUSH2 0x1C8 PUSH2 0x6E4 JUMP JUMPDEST PUSH1 0x0 JUMPDEST DUP2 MLOAD DUP2 LT ISZERO PUSH2 0x2DB JUMPI PUSH1 0x2 PUSH1 0x0 SWAP1 SLOAD SWAP1 PUSH2 0x100 EXP SWAP1 DIV PUSH20 0xFFFFFFFFFFFFFFFFFFFFFFFFFFFFFFFFFFFFFFFF AND PUSH20 0xFFFFFFFFFFFFFFFFFFFFFFFFFFFFFFFFFFFFFFFF AND PUSH4 0x8FE8BB96 DUP4 DUP4 DUP2 MLOAD DUP2 LT PUSH2 0x225 JUMPI PUSH2 0x224 PUSH2 0xA456 JUMP JUMPDEST JUMPDEST PUSH1 0x20 MUL PUSH1 0x20 ADD ADD MLOAD PUSH1 0x40 MLOAD DUP3 PUSH4 0xFFFFFFFF AND PUSH1 0xE0 SHL DUP2 MSTORE PUSH1 0x4 ADD PUSH2 0x249 SWAP2 SWAP1 PUSH2 0xA022 JUMP JUMPDEST PUSH1 0x0 PUSH1 0x40 MLOAD DUP1 DUP4 SUB DUP2 PUSH1 0x0 DUP8 DUP1 EXTCODESIZE ISZERO DUP1 ISZERO PUSH2 0x263 JUMPI PUSH1 0x0 DUP1 REVERT JUMPDEST POP GAS CALL ISZERO DUP1 ISZERO PUSH2 0x277 JUMPI RETURNDATASIZE PUSH1 0x0 DUP1 RETURNDATACOPY RETURNDATASIZE PUSH1 0x0 REVERT JUMPDEST POP POP POP POP PUSH1 0x4 PUSH1 0x1 DUP2 DUP2 SWAP1 SLOAD SWAP1 PUSH2 0x100 EXP SWAP1 DIV PUSH8 0xFFFFFFFFFFFFFFFF AND DUP1 SWAP3 SWAP2 SWAP1 PUSH2 0x2A1 SWAP1 PUSH2 0xA398 JUMP JUMPDEST SWAP2 SWAP1 PUSH2 0x100 EXP DUP2 SLOAD DUP2 PUSH8 0xFFFFFFFFFFFFFFFF MUL NOT AND SWAP1 DUP4 PUSH8 0xFFFFFFFFFFFFFFFF AND MUL OR SWAP1 SSTORE POP POP DUP1 DUP1 PUSH2 0x2D3 SWAP1 PUSH2 0xA34F JUMP JUMPDEST SWAP2 POP POP PUSH2 0x1CB JUMP JUMPDEST POP PUSH1 0x1 PUSH1 0x4 PUSH1 0x0 PUSH2 0x100 EXP DUP2 SLOAD DUP2 PUSH1 0xFF MUL NOT AND SWAP1 DUP4 ISZERO ISZERO MUL OR SWAP1 SSTORE POP POP JUMP JUMPDEST PUSH1 0x4 PUSH1 0x0 SWAP1 SLOAD SWAP1 PUSH2 0x100 EXP SWAP1 DIV PUSH1 0xFF AND PUSH2 0x349 JUMPI PUSH1 0x40 MLOAD PUSH32 0x8C379A000000000000000000000000000000000000000000000000000000000 DUP2 MSTORE PUSH1 0x4 ADD PUSH2 0x340 SWAP1 PUSH2 0x9DE2 JUMP JUMPDEST PUSH1 0x40 MLOAD DUP1 SWAP2 SUB SWAP1 REVERT JUMPDEST PUSH2 0x352 DUP2 PUSH2 0x762 JUMP JUMPDEST POP JUMP JUMPDEST PUSH2 0x35D PUSH2 0x8E72 JUMP JUMPDEST PUSH1 0x3 DUP3 DUP2 SLOAD DUP2 LT PUSH2 0x371 JUMPI PUSH2 0x370 PUSH2 0xA456 JUMP JUMPDEST JUMPDEST SWAP1 PUSH1 0x0 MSTORE PUSH1 0x20 PUSH1 0x0 KECCAK256 SWAP1 PUSH1 0x2 MUL ADD PUSH1 0x40 MLOAD DUP1 PUSH1 0x60 ADD PUSH1 0x40 MSTORE SWAP1 DUP2 PUSH1 0x0 DUP3 ADD PUSH1 0x0 SWAP1 SLOAD SWAP1 PUSH2 0x100 EXP SWAP1 DIV PUSH8 0xFFFFFFFFFFFFFFFF AND PUSH8 0xFFFFFFFFFFFFFFFF AND PUSH8 0xFFFFFFFFFFFFFFFF AND DUP2 MSTORE PUSH1 0x20 ADD PUSH1 0x0 DUP3 ADD PUSH1 0x8 SWAP1 SLOAD SWAP1 PUSH2 0x100 EXP SWAP1 DIV PUSH1 0xFF AND PUSH1 0x8 DUP2 GT ISZERO PUSH2 0x3E1 JUMPI PUSH2 0x3E0 PUSH2 0xA3F8 JUMP JUMPDEST JUMPDEST PUSH1 0x8 DUP2 GT ISZERO PUSH2 0x3F3 JUMPI PUSH2 0x3F2 PUSH2 0xA3F8 JUMP JUMPDEST JUMPDEST DUP2 MSTORE PUSH1 0x20 ADD PUSH1 0x1 DUP3 ADD DUP1 SLOAD PUSH2 0x407 SWAP1 PUSH2 0xA2EC JUMP JUMPDEST DUP1 PUSH1 0x1F ADD PUSH1 0x20 DUP1 SWAP2 DIV MUL PUSH1 0x20 ADD PUSH1 0x40 MLOAD SWAP1 DUP2 ADD PUSH1 0x40 MSTORE DUP1 SWAP3 SWAP2 SWAP1 DUP2 DUP2 MSTORE PUSH1 0x20 ADD DUP3 DUP1 SLOAD PUSH2 0x433 SWAP1 PUSH2 0xA2EC JUMP JUMPDEST DUP1 ISZERO PUSH2 0x480 JUMPI DUP1 PUSH1 0x1F LT PUSH2 0x455 JUMPI PUSH2 0x100 DUP1 DUP4 SLOAD DIV MUL DUP4 MSTORE SWAP2 PUSH1 0x20 ADD SWAP2 PUSH2 0x480 JUMP JUMPDEST DUP3 ADD SWAP2 SWAP1 PUSH1 0x0 MSTORE PUSH1 0x20 PUSH1 0x0 KECCAK256 SWAP1 JUMPDEST DUP2 SLOAD DUP2 MSTORE SWAP1 PUSH1 0x1 ADD SWAP1 PUSH1 0x20 ADD DUP1 DUP4 GT PUSH2 0x463 JUMPI DUP3 SWAP1 SUB PUSH1 0x1F AND DUP3 ADD SWAP2 JUMPDEST POP POP POP POP POP DUP2 MSTORE POP POP SWAP1 POP SWAP2 SWAP1 POP JUMP JUMPDEST PUSH2 0x498 PUSH2 0x6E4 JUMP JUMPDEST PUSH2 0x4A2 PUSH1 0x0 PUSH2 0xB00 JUMP JUMPDEST JUMP JUMPDEST PUSH1 0x0 DUP1 PUSH1 0x0 SWAP1 SLOAD SWAP1 PUSH2 0x100 EXP SWAP1 DIV PUSH20 0xFFFFFFFFFFFFFFFFFFFFFFFFFFFFFFFFFFFFFFFF AND SWAP1 POP SWAP1 JUMP JUMPDEST PUSH1 0x1 DUP1 SLOAD PUSH2 0x4DA SWAP1 PUSH2 0xA2EC JUMP JUMPDEST DUP1 PUSH1 0x1F ADD PUSH1 0x20 DUP1 SWAP2 DIV MUL PUSH1 0x20 ADD PUSH1 0x40 MLOAD SWAP1 DUP2 ADD PUSH1 0x40 MSTORE DUP1 SWAP3 SWAP2 SWAP1 DUP2 DUP2 MSTORE PUSH1 0x20 ADD DUP3 DUP1 SLOAD PUSH2 0x506 SWAP1 PUSH2 0xA2EC JUMP JUMPDEST DUP1 ISZERO PUSH2 0x553 JUMPI DUP1 PUSH1 0x1F LT PUSH2 0x528 JUMPI PUSH2 0x100 DUP1 DUP4 SLOAD DIV MUL DUP4 MSTORE SWAP2 PUSH1 0x20 ADD SWAP2 PUSH2 0x553 JUMP JUMPDEST DUP3 ADD SWAP2 SWAP1 PUSH1 0x0 MSTORE PUSH1 0x20 PUSH1 0x0 KECCAK256 SWAP1 JUMPDEST DUP2 SLOAD DUP2 MSTORE SWAP1 PUSH1 0x1 ADD SWAP1 PUSH1 0x20 ADD DUP1 DUP4 GT PUSH2 0x536 JUMPI DUP3 SWAP1 SUB PUSH1 0x1F AND DUP3 ADD SWAP2 JUMPDEST POP POP POP POP POP DUP2 JUMP JUMPDEST PUSH1 0x2 PUSH1 0x0 SWAP1 SLOAD SWAP1 PUSH2 0x100 EXP SWAP1 DIV PUSH20 0xFFFFFFFFFFFFFFFFFFFFFFFFFFFFFFFFFFFFFFFF AND DUP2 JUMP JUMPDEST PUSH2 0x589 PUSH2 0x6E4 JUMP JUMPDEST PUSH1 0x2 PUSH1 0x0 SWAP1 SLOAD SWAP1 PUSH2 0x100 EXP SWAP1 DIV PUSH20 0xFFFFFFFFFFFFFFFFFFFFFFFFFFFFFFFFFFFFFFFF AND PUSH20 0xFFFFFFFFFFFFFFFFFFFFFFFFFFFFFFFFFFFFFFFF AND PUSH4 0xD826F88F PUSH1 0x40 MLOAD DUP2 PUSH4 0xFFFFFFFF AND PUSH1 0xE0 SHL DUP2 MSTORE PUSH1 0x4 ADD PUSH1 0x0 PUSH1 0x40 MLOAD DUP1 DUP4 SUB DUP2 PUSH1 0x0 DUP8 DUP1 EXTCODESIZE ISZERO DUP1 ISZERO PUSH2 0x5F3 JUMPI PUSH1 0x0 DUP1 REVERT JUMPDEST POP GAS CALL ISZERO DUP1 ISZERO PUSH2 0x607 JUMPI RETURNDATASIZE PUSH1 0x0 DUP1 RETURNDATACOPY RETURNDATASIZE PUSH1 0x0 REVERT JUMPDEST POP POP POP POP PUSH1 0x0 PUSH1 0x4 PUSH1 0x1 PUSH2 0x100 EXP DUP2 SLOAD DUP2 PUSH8 0xFFFFFFFFFFFFFFFF MUL NOT AND SWAP1 DUP4 PUSH8 0xFFFFFFFFFFFFFFFF AND MUL OR SWAP1 SSTORE POP PUSH1 0x3 PUSH1 0x0 PUSH2 0x643 SWAP2 SWAP1 PUSH2 0x8EAF JUMP JUMPDEST PUSH1 0x0 PUSH1 0x4 PUSH1 0x0 PUSH2 0x100 EXP DUP2 SLOAD DUP2 PUSH1 0xFF MUL NOT AND SWAP1 DUP4 ISZERO ISZERO MUL OR SWAP1 SSTORE POP JUMP JUMPDEST PUSH2 0x668 PUSH2 0x6E4 JUMP JUMPDEST PUSH1 0x0 PUSH20 0xFFFFFFFFFFFFFFFFFFFFFFFFFFFFFFFFFFFFFFFF AND DUP2 PUSH20 0xFFFFFFFFFFFFFFFFFFFFFFFFFFFFFFFFFFFFFFFF AND EQ ISZERO PUSH2 0x6D8 JUMPI PUSH1 0x40 MLOAD PUSH32 0x8C379A000000000000000000000000000000000000000000000000000000000 DUP2 MSTORE PUSH1 0x4 ADD PUSH2 0x6CF SWAP1 PUSH2 0x9E02 JUMP JUMPDEST PUSH1 0x40 MLOAD DUP1 SWAP2 SUB SWAP1 REVERT JUMPDEST PUSH2 0x6E1 DUP2 PUSH2 0xB00 JUMP JUMPDEST POP JUMP JUMPDEST PUSH2 0x6EC PUSH2 0xBC4 JUMP JUMPDEST PUSH20 0xFFFFFFFFFFFFFFFFFFFFFFFFFFFFFFFFFFFFFFFF AND PUSH2 0x70A PUSH2 0x4A4 JUMP JUMPDEST PUSH20 0xFFFFFFFFFFFFFFFFFFFFFFFFFFFFFFFFFFFFFFFF AND EQ PUSH2 0x760 JUMPI PUSH1 0x40 MLOAD PUSH32 0x8C379A000000000000000000000000000000000000000000000000000000000 DUP2 MSTORE PUSH1 0x4 ADD PUSH2 0x757 SWAP1 PUSH2 0x9F22 JUMP JUMPDEST PUSH1 0x40 MLOAD DUP1 SWAP2 SUB SWAP1 REVERT JUMPDEST JUMP JUMPDEST PUSH1 0x3 PUSH1 0x8 DUP2 GT ISZERO PUSH2 0x776 JUMPI PUSH2 0x775 PUSH2 0xA3F8 JUMP JUMPDEST JUMPDEST DUP2 PUSH1 0x40 ADD MLOAD PUSH1 0x8 DUP2 GT ISZERO PUSH2 0x78D JUMPI PUSH2 0x78C PUSH2 0xA3F8 JUMP JUMPDEST JUMPDEST EQ ISZERO PUSH2 0x7FC JUMPI PUSH1 0x0 DUP1 PUSH2 0x7AB PUSH1 0x0 DUP5 PUSH1 0x60 ADD MLOAD DUP6 PUSH1 0x60 ADD MLOAD MLOAD PUSH2 0xBCC JUMP JUMPDEST SWAP3 POP POP SWAP2 POP DUP2 PUSH2 0x7F0 JUMPI PUSH1 0x40 MLOAD PUSH32 0x8C379A000000000000000000000000000000000000000000000000000000000 DUP2 MSTORE PUSH1 0x4 ADD PUSH2 0x7E7 SWAP1 PUSH2 0x9EC2 JUMP JUMPDEST PUSH1 0x40 MLOAD DUP1 SWAP2 SUB SWAP1 REVERT JUMPDEST PUSH2 0x7F9 DUP2 PUSH2 0xD86 JUMP JUMPDEST POP POP JUMPDEST PUSH1 0x7 PUSH1 0x8 DUP2 GT ISZERO PUSH2 0x810 JUMPI PUSH2 0x80F PUSH2 0xA3F8 JUMP JUMPDEST JUMPDEST DUP2 PUSH1 0x40 ADD MLOAD PUSH1 0x8 DUP2 GT ISZERO PUSH2 0x827 JUMPI PUSH2 0x826 PUSH2 0xA3F8 JUMP JUMPDEST JUMPDEST EQ ISZERO PUSH2 0x896 JUMPI PUSH1 0x0 DUP1 PUSH2 0x845 PUSH1 0x0 DUP5 PUSH1 0x60 ADD MLOAD DUP6 PUSH1 0x60 ADD MLOAD MLOAD PUSH2 0xF6A JUMP JUMPDEST SWAP3 POP POP SWAP2 POP DUP2 PUSH2 0x88A JUMPI PUSH1 0x40 MLOAD PUSH32 0x8C379A000000000000000000000000000000000000000000000000000000000 DUP2 MSTORE PUSH1 0x4 ADD PUSH2 0x881 SWAP1 PUSH2 0x9F82 JUMP JUMPDEST PUSH1 0x40 MLOAD DUP1 SWAP2 SUB SWAP1 REVERT JUMPDEST PUSH2 0x893 DUP2 PUSH2 0x1124 JUMP JUMPDEST POP POP JUMPDEST PUSH1 0x8 DUP1 DUP2 GT ISZERO PUSH2 0x8A9 JUMPI PUSH2 0x8A8 PUSH2 0xA3F8 JUMP JUMPDEST JUMPDEST DUP2 PUSH1 0x40 ADD MLOAD PUSH1 0x8 DUP2 GT ISZERO PUSH2 0x8C0 JUMPI PUSH2 0x8BF PUSH2 0xA3F8 JUMP JUMPDEST JUMPDEST EQ ISZERO PUSH2 0x92F JUMPI PUSH1 0x0 DUP1 PUSH2 0x8DE PUSH1 0x0 DUP5 PUSH1 0x60 ADD MLOAD DUP6 PUSH1 0x60 ADD MLOAD MLOAD PUSH2 0x149B JUMP JUMPDEST SWAP3 POP POP SWAP2 POP DUP2 PUSH2 0x923 JUMPI PUSH1 0x40 MLOAD PUSH32 0x8C379A000000000000000000000000000000000000000000000000000000000 DUP2 MSTORE PUSH1 0x4 ADD PUSH2 0x91A SWAP1 PUSH2 0x9F42 JUMP JUMPDEST PUSH1 0x40 MLOAD DUP1 SWAP2 SUB SWAP1 REVERT JUMPDEST PUSH2 0x92C DUP2 PUSH2 0x1655 JUMP JUMPDEST POP POP JUMPDEST PUSH1 0x4 PUSH1 0x8 DUP2 GT ISZERO PUSH2 0x943 JUMPI PUSH2 0x942 PUSH2 0xA3F8 JUMP JUMPDEST JUMPDEST DUP2 PUSH1 0x40 ADD MLOAD PUSH1 0x8 DUP2 GT ISZERO PUSH2 0x95A JUMPI PUSH2 0x959 PUSH2 0xA3F8 JUMP JUMPDEST JUMPDEST EQ ISZERO PUSH2 0x9C9 JUMPI PUSH1 0x0 DUP1 PUSH2 0x978 PUSH1 0x0 DUP5 PUSH1 0x60 ADD MLOAD DUP6 PUSH1 0x60 ADD MLOAD MLOAD PUSH2 0x1C69 JUMP JUMPDEST SWAP3 POP POP SWAP2 POP DUP2 PUSH2 0x9BD JUMPI PUSH1 0x40 MLOAD PUSH32 0x8C379A000000000000000000000000000000000000000000000000000000000 DUP2 MSTORE PUSH1 0x4 ADD PUSH2 0x9B4 SWAP1 PUSH2 0x9F62 JUMP JUMPDEST PUSH1 0x40 MLOAD DUP1 SWAP2 SUB SWAP1 REVERT JUMPDEST PUSH2 0x9C6 DUP2 PUSH2 0x1E23 JUMP JUMPDEST POP POP JUMPDEST PUSH1 0x5 PUSH1 0x8 DUP2 GT ISZERO PUSH2 0x9DD JUMPI PUSH2 0x9DC PUSH2 0xA3F8 JUMP JUMPDEST JUMPDEST DUP2 PUSH1 0x40 ADD MLOAD PUSH1 0x8 DUP2 GT ISZERO PUSH2 0x9F4 JUMPI PUSH2 0x9F3 PUSH2 0xA3F8 JUMP JUMPDEST JUMPDEST EQ ISZERO PUSH2 0xA63 JUMPI PUSH1 0x0 DUP1 PUSH2 0xA12 PUSH1 0x0 DUP5 PUSH1 0x60 ADD MLOAD DUP6 PUSH1 0x60 ADD MLOAD MLOAD PUSH2 0x21BE JUMP JUMPDEST SWAP3 POP POP SWAP2 POP DUP2 PUSH2 0xA57 JUMPI PUSH1 0x40 MLOAD PUSH32 0x8C379A000000000000000000000000000000000000000000000000000000000 DUP2 MSTORE PUSH1 0x4 ADD PUSH2 0xA4E SWAP1 PUSH2 0x9EE2 JUMP JUMPDEST PUSH1 0x40 MLOAD DUP1 SWAP2 SUB SWAP1 REVERT JUMPDEST PUSH2 0xA60 DUP2 PUSH2 0x2378 JUMP JUMPDEST POP POP JUMPDEST PUSH1 0x6 PUSH1 0x8 DUP2 GT ISZERO PUSH2 0xA77 JUMPI PUSH2 0xA76 PUSH2 0xA3F8 JUMP JUMPDEST JUMPDEST DUP2 PUSH1 0x40 ADD MLOAD PUSH1 0x8 DUP2 GT ISZERO PUSH2 0xA8E JUMPI PUSH2 0xA8D PUSH2 0xA3F8 JUMP JUMPDEST JUMPDEST EQ ISZERO PUSH2 0xAFD JUMPI PUSH1 0x0 DUP1 PUSH2 0xAAC PUSH1 0x0 DUP5 PUSH1 0x60 ADD MLOAD DUP6 PUSH1 0x60 ADD MLOAD MLOAD PUSH2 0x2616 JUMP JUMPDEST SWAP3 POP POP SWAP2 POP DUP2 PUSH2 0xAF1 JUMPI PUSH1 0x40 MLOAD PUSH32 0x8C379A000000000000000000000000000000000000000000000000000000000 DUP2 MSTORE PUSH1 0x4 ADD PUSH2 0xAE8 SWAP1 PUSH2 0x9DC2 JUMP JUMPDEST PUSH1 0x40 MLOAD DUP1 SWAP2 SUB SWAP1 REVERT JUMPDEST PUSH2 0xAFA DUP2 PUSH2 0x27D0 JUMP JUMPDEST POP POP JUMPDEST POP JUMP JUMPDEST PUSH1 0x0 DUP1 PUSH1 0x0 SWAP1 SLOAD SWAP1 PUSH2 0x100 EXP SWAP1 DIV PUSH20 0xFFFFFFFFFFFFFFFFFFFFFFFFFFFFFFFFFFFFFFFF AND SWAP1 POP DUP2 PUSH1 0x0 DUP1 PUSH2 0x100 EXP DUP2 SLOAD DUP2 PUSH20 0xFFFFFFFFFFFFFFFFFFFFFFFFFFFFFFFFFFFFFFFF MUL NOT AND SWAP1 DUP4 PUSH20 0xFFFFFFFFFFFFFFFFFFFFFFFFFFFFFFFFFFFFFFFF AND MUL OR SWAP1 SSTORE POP DUP2 PUSH20 0xFFFFFFFFFFFFFFFFFFFFFFFFFFFFFFFFFFFFFFFF AND DUP2 PUSH20 0xFFFFFFFFFFFFFFFFFFFFFFFFFFFFFFFFFFFFFFFF AND PUSH32 0x8BE0079C531659141344CD1FD0A4F28419497F9722A3DAAFE3B4186F6B6457E0 PUSH1 0x40 MLOAD PUSH1 0x40 MLOAD DUP1 SWAP2 SUB SWAP1 LOG3 POP POP JUMP JUMPDEST PUSH1 0x0 CALLER SWAP1 POP SWAP1 JUMP JUMPDEST PUSH1 0x0 DUP1 PUSH2 0xBD7 PUSH2 0x8ED3 JUMP JUMPDEST PUSH2 0xBDF PUSH2 0x8ED3 JUMP JUMPDEST PUSH1 0x0 DUP1 DUP9 SWAP1 POP DUP1 PUSH8 0xFFFFFFFFFFFFFFFF AND DUP8 DUP3 PUSH2 0xBFC SWAP2 SWAP1 PUSH2 0xA13F JUMP JUMPDEST PUSH8 0xFFFFFFFFFFFFFFFF AND LT ISZERO PUSH2 0xC1E JUMPI PUSH1 0x0 DUP2 DUP5 SWAP6 POP SWAP6 POP SWAP6 POP POP POP POP PUSH2 0xD7D JUMP JUMPDEST JUMPDEST DUP7 PUSH8 0xFFFFFFFFFFFFFFFF AND DUP10 DUP3 PUSH2 0xC36 SWAP2 SWAP1 PUSH2 0xA1BF JUMP JUMPDEST PUSH8 0xFFFFFFFFFFFFFFFF AND LT ISZERO PUSH2 0xD37 JUMPI PUSH1 0x0 DUP1 PUSH1 0x0 PUSH2 0xC55 DUP5 DUP13 PUSH2 0x2ED7 JUMP JUMPDEST DUP1 SWAP5 POP DUP2 SWAP6 POP DUP3 SWAP8 POP DUP4 SWAP7 POP POP POP POP POP DUP3 PUSH2 0xC7F JUMPI PUSH1 0x0 DUP5 DUP8 SWAP9 POP SWAP9 POP SWAP9 POP POP POP POP POP POP POP PUSH2 0xD7D JUMP JUMPDEST PUSH1 0x5 DUP3 PUSH8 0xFFFFFFFFFFFFFFFF AND GT ISZERO PUSH2 0xCA7 JUMPI PUSH1 0x0 DUP5 DUP8 SWAP9 POP SWAP9 POP SWAP9 POP POP POP POP POP POP POP PUSH2 0xD7D JUMP JUMPDEST DUP5 PUSH8 0xFFFFFFFFFFFFFFFF AND DUP3 PUSH8 0xFFFFFFFFFFFFFFFF AND GT PUSH2 0xCD7 JUMPI PUSH1 0x0 DUP5 DUP8 SWAP9 POP SWAP9 POP SWAP9 POP POP POP POP POP POP POP PUSH2 0xD7D JUMP JUMPDEST PUSH2 0xCE1 DUP3 DUP3 PUSH2 0x3023 JUMP JUMPDEST SWAP3 POP DUP3 PUSH2 0xCFD JUMPI PUSH1 0x0 DUP5 DUP8 SWAP9 POP SWAP9 POP SWAP9 POP POP POP POP POP POP POP PUSH2 0xD7D JUMP JUMPDEST PUSH2 0xD0A DUP5 DUP13 DUP13 DUP6 DUP11 PUSH2 0x317A JUMP JUMPDEST DUP1 SWAP6 POP DUP2 SWAP5 POP POP POP DUP3 PUSH2 0xD2C JUMPI PUSH1 0x0 DUP5 DUP8 SWAP9 POP SWAP9 POP SWAP9 POP POP POP POP POP POP POP PUSH2 0xD7D JUMP JUMPDEST DUP2 SWAP5 POP POP POP POP PUSH2 0xC1F JUMP JUMPDEST DUP7 DUP10 PUSH2 0xD43 SWAP2 SWAP1 PUSH2 0xA13F JUMP JUMPDEST PUSH8 0xFFFFFFFFFFFFFFFF AND DUP2 PUSH8 0xFFFFFFFFFFFFFFFF AND EQ PUSH2 0xD6F JUMPI PUSH1 0x0 DUP2 DUP5 SWAP6 POP SWAP6 POP SWAP6 POP POP POP POP PUSH2 0xD7D JUMP JUMPDEST PUSH1 0x1 DUP2 DUP5 SWAP6 POP SWAP6 POP SWAP6 POP POP POP POP JUMPDEST SWAP4 POP SWAP4 POP SWAP4 SWAP1 POP JUMP JUMPDEST PUSH1 0x0 PUSH1 0x2 PUSH1 0x0 SWAP1 SLOAD SWAP1 PUSH2 0x100 EXP SWAP1 DIV PUSH20 0xFFFFFFFFFFFFFFFFFFFFFFFFFFFFFFFFFFFFFFFF AND SWAP1 POP PUSH1 0x0 ISZERO ISZERO DUP2 PUSH20 0xFFFFFFFFFFFFFFFFFFFFFFFFFFFFFFFFFFFFFFFF AND PUSH4 0x86174396 PUSH1 0x40 MLOAD DUP2 PUSH4 0xFFFFFFFF AND PUSH1 0xE0 SHL DUP2 MSTORE PUSH1 0x4 ADD PUSH1 0x20 PUSH1 0x40 MLOAD DUP1 DUP4 SUB DUP2 DUP7 DUP1 EXTCODESIZE ISZERO DUP1 ISZERO PUSH2 0xDF7 JUMPI PUSH1 0x0 DUP1 REVERT JUMPDEST POP GAS STATICCALL ISZERO DUP1 ISZERO PUSH2 0xE0B JUMPI RETURNDATASIZE PUSH1 0x0 DUP1 RETURNDATACOPY RETURNDATASIZE PUSH1 0x0 REVERT JUMPDEST POP POP POP POP PUSH1 0x40 MLOAD RETURNDATASIZE PUSH1 0x1F NOT PUSH1 0x1F DUP3 ADD AND DUP3 ADD DUP1 PUSH1 0x40 MSTORE POP DUP2 ADD SWAP1 PUSH2 0xE2F SWAP2 SWAP1 PUSH2 0x9854 JUMP JUMPDEST ISZERO ISZERO EQ PUSH2 0xE71 JUMPI PUSH1 0x40 MLOAD PUSH32 0x8C379A000000000000000000000000000000000000000000000000000000000 DUP2 MSTORE PUSH1 0x4 ADD PUSH2 0xE68 SWAP1 PUSH2 0x9E22 JUMP JUMPDEST PUSH1 0x40 MLOAD DUP1 SWAP2 SUB SWAP1 REVERT JUMPDEST PUSH2 0xE79 PUSH2 0x8F16 JUMP JUMPDEST DUP3 PUSH1 0x0 ADD MLOAD DUP2 PUSH1 0x0 ADD DUP2 SWAP1 MSTORE POP DUP3 PUSH1 0x20 ADD MLOAD DUP2 PUSH1 0x20 ADD DUP2 SWAP1 MSTORE POP DUP3 PUSH1 0x40 ADD MLOAD DUP2 PUSH1 0x40 ADD SWAP1 PUSH8 0xFFFFFFFFFFFFFFFF AND SWAP1 DUP2 PUSH8 0xFFFFFFFFFFFFFFFF AND DUP2 MSTORE POP POP DUP3 PUSH1 0x40 ADD MLOAD DUP2 PUSH1 0x60 ADD SWAP1 PUSH8 0xFFFFFFFFFFFFFFFF AND SWAP1 DUP2 PUSH8 0xFFFFFFFFFFFFFFFF AND DUP2 MSTORE POP POP PUSH2 0xEE3 PUSH2 0x8E72 JUMP JUMPDEST PUSH1 0x4 PUSH1 0x1 SWAP1 SLOAD SWAP1 PUSH2 0x100 EXP SWAP1 DIV PUSH8 0xFFFFFFFFFFFFFFFF AND DUP2 PUSH1 0x0 ADD SWAP1 PUSH8 0xFFFFFFFFFFFFFFFF AND SWAP1 DUP2 PUSH8 0xFFFFFFFFFFFFFFFF AND DUP2 MSTORE POP POP PUSH1 0x3 DUP2 PUSH1 0x20 ADD SWAP1 PUSH1 0x8 DUP2 GT ISZERO PUSH2 0xF32 JUMPI PUSH2 0xF31 PUSH2 0xA3F8 JUMP JUMPDEST JUMPDEST SWAP1 DUP2 PUSH1 0x8 DUP2 GT ISZERO PUSH2 0xF46 JUMPI PUSH2 0xF45 PUSH2 0xA3F8 JUMP JUMPDEST JUMPDEST DUP2 MSTORE POP POP PUSH2 0xF53 DUP3 PUSH2 0x3302 JUMP JUMPDEST DUP2 PUSH1 0x40 ADD DUP2 SWAP1 MSTORE POP PUSH2 0xF64 DUP2 PUSH2 0x3F30 JUMP JUMPDEST POP POP POP POP JUMP JUMPDEST PUSH1 0x0 DUP1 PUSH2 0xF75 PUSH2 0x8F59 JUMP JUMPDEST PUSH2 0xF7D PUSH2 0x8F59 JUMP JUMPDEST PUSH1 0x0 DUP1 DUP9 SWAP1 POP DUP1 PUSH8 0xFFFFFFFFFFFFFFFF AND DUP8 DUP3 PUSH2 0xF9A SWAP2 SWAP1 PUSH2 0xA13F JUMP JUMPDEST PUSH8 0xFFFFFFFFFFFFFFFF AND LT ISZERO PUSH2 0xFBC JUMPI PUSH1 0x0 DUP2 DUP5 SWAP6 POP SWAP6 POP SWAP6 POP POP POP POP PUSH2 0x111B JUMP JUMPDEST JUMPDEST DUP7 PUSH8 0xFFFFFFFFFFFFFFFF AND DUP10 DUP3 PUSH2 0xFD4 SWAP2 SWAP1 PUSH2 0xA1BF JUMP JUMPDEST PUSH8 0xFFFFFFFFFFFFFFFF AND LT ISZERO PUSH2 0x10D5 JUMPI PUSH1 0x0 DUP1 PUSH1 0x0 PUSH2 0xFF3 DUP5 DUP13 PUSH2 0x2ED7 JUMP JUMPDEST DUP1 SWAP5 POP DUP2 SWAP6 POP DUP3 SWAP8 POP DUP4 SWAP7 POP POP POP POP POP DUP3 PUSH2 0x101D JUMPI PUSH1 0x0 DUP5 DUP8 SWAP9 POP SWAP9 POP SWAP9 POP POP POP POP POP POP POP PUSH2 0x111B JUMP JUMPDEST PUSH1 0x3 DUP3 PUSH8 0xFFFFFFFFFFFFFFFF AND GT ISZERO PUSH2 0x1045 JUMPI PUSH1 0x0 DUP5 DUP8 SWAP9 POP SWAP9 POP SWAP9 POP POP POP POP POP POP POP PUSH2 0x111B JUMP JUMPDEST DUP5 PUSH8 0xFFFFFFFFFFFFFFFF AND DUP3 PUSH8 0xFFFFFFFFFFFFFFFF AND GT PUSH2 0x1075 JUMPI PUSH1 0x0 DUP5 DUP8 SWAP9 POP SWAP9 POP SWAP9 POP POP POP POP POP POP POP PUSH2 0x111B JUMP JUMPDEST PUSH2 0x107F DUP3 DUP3 PUSH2 0x40B7 JUMP JUMPDEST SWAP3 POP DUP3 PUSH2 0x109B JUMPI PUSH1 0x0 DUP5 DUP8 SWAP9 POP SWAP9 POP SWAP9 POP POP POP POP POP POP POP PUSH2 0x111B JUMP JUMPDEST PUSH2 0x10A8 DUP5 DUP13 DUP13 DUP6 DUP11 PUSH2 0x418A JUMP JUMPDEST DUP1 SWAP6 POP DUP2 SWAP5 POP POP POP DUP3 PUSH2 0x10CA JUMPI PUSH1 0x0 DUP5 DUP8 SWAP9 POP SWAP9 POP SWAP9 POP POP POP POP POP POP POP PUSH2 0x111B JUMP JUMPDEST DUP2 SWAP5 POP POP POP POP PUSH2 0xFBD JUMP JUMPDEST DUP7 DUP10 PUSH2 0x10E1 SWAP2 SWAP1 PUSH2 0xA13F JUMP JUMPDEST PUSH8 0xFFFFFFFFFFFFFFFF AND DUP2 PUSH8 0xFFFFFFFFFFFFFFFF AND EQ PUSH2 0x110D JUMPI PUSH1 0x0 DUP2 DUP5 SWAP6 POP SWAP6 POP SWAP6 POP POP POP POP PUSH2 0x111B JUMP JUMPDEST PUSH1 0x1 DUP2 DUP5 SWAP6 POP SWAP6 POP SWAP6 POP POP POP POP JUMPDEST SWAP4 POP SWAP4 POP SWAP4 SWAP1 POP JUMP JUMPDEST PUSH1 0x0 PUSH1 0x2 PUSH1 0x0 SWAP1 SLOAD SWAP1 PUSH2 0x100 EXP SWAP1 DIV PUSH20 0xFFFFFFFFFFFFFFFFFFFFFFFFFFFFFFFFFFFFFFFF AND SWAP1 POP PUSH1 0x1 ISZERO ISZERO DUP2 PUSH20 0xFFFFFFFFFFFFFFFFFFFFFFFFFFFFFFFFFFFFFFFF AND PUSH4 0x86174396 PUSH1 0x40 MLOAD DUP2 PUSH4 0xFFFFFFFF AND PUSH1 0xE0 SHL DUP2 MSTORE PUSH1 0x4 ADD PUSH1 0x20 PUSH1 0x40 MLOAD DUP1 DUP4 SUB DUP2 DUP7 DUP1 EXTCODESIZE ISZERO DUP1 ISZERO PUSH2 0x1195 JUMPI PUSH1 0x0 DUP1 REVERT JUMPDEST POP GAS STATICCALL ISZERO DUP1 ISZERO PUSH2 0x11A9 JUMPI RETURNDATASIZE PUSH1 0x0 DUP1 RETURNDATACOPY RETURNDATASIZE PUSH1 0x0 REVERT JUMPDEST POP POP POP POP PUSH1 0x40 MLOAD RETURNDATASIZE PUSH1 0x1F NOT PUSH1 0x1F DUP3 ADD AND DUP3 ADD DUP1 PUSH1 0x40 MSTORE POP DUP2 ADD SWAP1 PUSH2 0x11CD SWAP2 SWAP1 PUSH2 0x9854 JUMP JUMPDEST ISZERO ISZERO EQ PUSH2 0x120F JUMPI PUSH1 0x40 MLOAD PUSH32 0x8C379A000000000000000000000000000000000000000000000000000000000 DUP2 MSTORE PUSH1 0x4 ADD PUSH2 0x1206 SWAP1 PUSH2 0x9FE2 JUMP JUMPDEST PUSH1 0x40 MLOAD DUP1 SWAP2 SUB SWAP1 REVERT JUMPDEST PUSH2 0x129F DUP2 PUSH20 0xFFFFFFFFFFFFFFFFFFFFFFFFFFFFFFFFFFFFFFFF AND PUSH4 0xD21220A7 PUSH1 0x40 MLOAD DUP2 PUSH4 0xFFFFFFFF AND PUSH1 0xE0 SHL DUP2 MSTORE PUSH1 0x4 ADD PUSH1 0x0 PUSH1 0x40 MLOAD DUP1 DUP4 SUB DUP2 DUP7 DUP1 EXTCODESIZE ISZERO DUP1 ISZERO PUSH2 0x1258 JUMPI PUSH1 0x0 DUP1 REVERT JUMPDEST POP GAS STATICCALL ISZERO DUP1 ISZERO PUSH2 0x126C JUMPI RETURNDATASIZE PUSH1 0x0 DUP1 RETURNDATACOPY RETURNDATASIZE PUSH1 0x0 REVERT JUMPDEST POP POP POP POP PUSH1 0x40 MLOAD RETURNDATASIZE PUSH1 0x0 DUP3 RETURNDATACOPY RETURNDATASIZE PUSH1 0x1F NOT PUSH1 0x1F DUP3 ADD AND DUP3 ADD DUP1 PUSH1 0x40 MSTORE POP DUP2 ADD SWAP1 PUSH2 0x1295 SWAP2 SWAP1 PUSH2 0x9881 JUMP JUMPDEST DUP4 PUSH1 0x20 ADD MLOAD PUSH2 0x4280 JUMP JUMPDEST DUP1 PUSH2 0x1336 JUMPI POP PUSH2 0x1335 DUP2 PUSH20 0xFFFFFFFFFFFFFFFFFFFFFFFFFFFFFFFFFFFFFFFF AND PUSH4 0x25BE124E PUSH1 0x40 MLOAD DUP2 PUSH4 0xFFFFFFFF AND PUSH1 0xE0 SHL DUP2 MSTORE PUSH1 0x4 ADD PUSH1 0x0 PUSH1 0x40 MLOAD DUP1 DUP4 SUB DUP2 DUP7 DUP1 EXTCODESIZE ISZERO DUP1 ISZERO PUSH2 0x12EE JUMPI PUSH1 0x0 DUP1 REVERT JUMPDEST POP GAS STATICCALL ISZERO DUP1 ISZERO PUSH2 0x1302 JUMPI RETURNDATASIZE PUSH1 0x0 DUP1 RETURNDATACOPY RETURNDATASIZE PUSH1 0x0 REVERT JUMPDEST POP POP POP POP PUSH1 0x40 MLOAD RETURNDATASIZE PUSH1 0x0 DUP3 RETURNDATACOPY RETURNDATASIZE PUSH1 0x1F NOT PUSH1 0x1F DUP3 ADD AND DUP3 ADD DUP1 PUSH1 0x40 MSTORE POP DUP2 ADD SWAP1 PUSH2 0x132B SWAP2 SWAP1 PUSH2 0x9881 JUMP JUMPDEST DUP4 PUSH1 0x20 ADD MLOAD PUSH2 0x4280 JUMP JUMPDEST JUMPDEST PUSH2 0x1375 JUMPI PUSH1 0x40 MLOAD PUSH32 0x8C379A000000000000000000000000000000000000000000000000000000000 DUP2 MSTORE PUSH1 0x4 ADD PUSH2 0x136C SWAP1 PUSH2 0xA002 JUMP JUMPDEST PUSH1 0x40 MLOAD DUP1 SWAP2 SUB SWAP1 REVERT JUMPDEST PUSH1 0x0 DUP3 PUSH1 0x0 ADD MLOAD PUSH8 0xFFFFFFFFFFFFFFFF AND GT PUSH2 0x13C6 JUMPI PUSH1 0x40 MLOAD PUSH32 0x8C379A000000000000000000000000000000000000000000000000000000000 DUP2 MSTORE PUSH1 0x4 ADD PUSH2 0x13BD SWAP1 PUSH2 0x9E42 JUMP JUMPDEST PUSH1 0x40 MLOAD DUP1 SWAP2 SUB SWAP1 REVERT JUMPDEST PUSH2 0x13CE PUSH2 0x8F84 JUMP JUMPDEST DUP3 PUSH1 0x40 ADD MLOAD DUP2 PUSH1 0x40 ADD DUP2 SWAP1 MSTORE POP DUP3 PUSH1 0x0 ADD MLOAD DUP2 PUSH1 0x20 ADD SWAP1 PUSH8 0xFFFFFFFFFFFFFFFF AND SWAP1 DUP2 PUSH8 0xFFFFFFFFFFFFFFFF AND DUP2 MSTORE POP POP DUP3 PUSH1 0x20 ADD MLOAD DUP2 PUSH1 0x0 ADD DUP2 SWAP1 MSTORE POP PUSH2 0x1414 PUSH2 0x8E72 JUMP JUMPDEST PUSH1 0x4 PUSH1 0x1 SWAP1 SLOAD SWAP1 PUSH2 0x100 EXP SWAP1 DIV PUSH8 0xFFFFFFFFFFFFFFFF AND DUP2 PUSH1 0x0 ADD SWAP1 PUSH8 0xFFFFFFFFFFFFFFFF AND SWAP1 DUP2 PUSH8 0xFFFFFFFFFFFFFFFF AND DUP2 MSTORE POP POP PUSH1 0x7 DUP2 PUSH1 0x20 ADD SWAP1 PUSH1 0x8 DUP2 GT ISZERO PUSH2 0x1463 JUMPI PUSH2 0x1462 PUSH2 0xA3F8 JUMP JUMPDEST JUMPDEST SWAP1 DUP2 PUSH1 0x8 DUP2 GT ISZERO PUSH2 0x1477 JUMPI PUSH2 0x1476 PUSH2 0xA3F8 JUMP JUMPDEST JUMPDEST DUP2 MSTORE POP POP PUSH2 0x1484 DUP3 PUSH2 0x42D9 JUMP JUMPDEST DUP2 PUSH1 0x40 ADD DUP2 SWAP1 MSTORE POP PUSH2 0x1495 DUP2 PUSH2 0x3F30 JUMP JUMPDEST POP POP POP POP JUMP JUMPDEST PUSH1 0x0 DUP1 PUSH2 0x14A6 PUSH2 0x8FAF JUMP JUMPDEST PUSH2 0x14AE PUSH2 0x8FAF JUMP JUMPDEST PUSH1 0x0 DUP1 DUP9 SWAP1 POP DUP1 PUSH8 0xFFFFFFFFFFFFFFFF AND DUP8 DUP3 PUSH2 0x14CB SWAP2 SWAP1 PUSH2 0xA13F JUMP JUMPDEST PUSH8 0xFFFFFFFFFFFFFFFF AND LT ISZERO PUSH2 0x14ED JUMPI PUSH1 0x0 DUP2 DUP5 SWAP6 POP SWAP6 POP SWAP6 POP POP POP POP PUSH2 0x164C JUMP JUMPDEST JUMPDEST DUP7 PUSH8 0xFFFFFFFFFFFFFFFF AND DUP10 DUP3 PUSH2 0x1505 SWAP2 SWAP1 PUSH2 0xA1BF JUMP JUMPDEST PUSH8 0xFFFFFFFFFFFFFFFF AND LT ISZERO PUSH2 0x1606 JUMPI PUSH1 0x0 DUP1 PUSH1 0x0 PUSH2 0x1524 DUP5 DUP13 PUSH2 0x2ED7 JUMP JUMPDEST DUP1 SWAP5 POP DUP2 SWAP6 POP DUP3 SWAP8 POP DUP4 SWAP7 POP POP POP POP POP DUP3 PUSH2 0x154E JUMPI PUSH1 0x0 DUP5 DUP8 SWAP9 POP SWAP9 POP SWAP9 POP POP POP POP POP POP POP PUSH2 0x164C JUMP JUMPDEST PUSH1 0x3 DUP3 PUSH8 0xFFFFFFFFFFFFFFFF AND GT ISZERO PUSH2 0x1576 JUMPI PUSH1 0x0 DUP5 DUP8 SWAP9 POP SWAP9 POP SWAP9 POP POP POP POP POP POP POP PUSH2 0x164C JUMP JUMPDEST DUP5 PUSH8 0xFFFFFFFFFFFFFFFF AND DUP3 PUSH8 0xFFFFFFFFFFFFFFFF AND GT PUSH2 0x15A6 JUMPI PUSH1 0x0 DUP5 DUP8 SWAP9 POP SWAP9 POP SWAP9 POP POP POP POP POP POP POP PUSH2 0x164C JUMP JUMPDEST PUSH2 0x15B0 DUP3 DUP3 PUSH2 0x4A76 JUMP JUMPDEST SWAP3 POP DUP3 PUSH2 0x15CC JUMPI PUSH1 0x0 DUP5 DUP8 SWAP9 POP SWAP9 POP SWAP9 POP POP POP POP POP POP POP PUSH2 0x164C JUMP JUMPDEST PUSH2 0x15D9 DUP5 DUP13 DUP13 DUP6 DUP11 PUSH2 0x4B49 JUMP JUMPDEST DUP1 SWAP6 POP DUP2 SWAP5 POP POP POP DUP3 PUSH2 0x15FB JUMPI PUSH1 0x0 DUP5 DUP8 SWAP9 POP SWAP9 POP SWAP9 POP POP POP POP POP POP POP PUSH2 0x164C JUMP JUMPDEST DUP2 SWAP5 POP POP POP POP PUSH2 0x14EE JUMP JUMPDEST DUP7 DUP10 PUSH2 0x1612 SWAP2 SWAP1 PUSH2 0xA13F JUMP JUMPDEST PUSH8 0xFFFFFFFFFFFFFFFF AND DUP2 PUSH8 0xFFFFFFFFFFFFFFFF AND EQ PUSH2 0x163E JUMPI PUSH1 0x0 DUP2 DUP5 SWAP6 POP SWAP6 POP SWAP6 POP POP POP POP PUSH2 0x164C JUMP JUMPDEST PUSH1 0x1 DUP2 DUP5 SWAP6 POP SWAP6 POP SWAP6 POP POP POP POP JUMPDEST SWAP4 POP SWAP4 POP SWAP4 SWAP1 POP JUMP JUMPDEST PUSH1 0x0 PUSH1 0x2 PUSH1 0x0 SWAP1 SLOAD SWAP1 PUSH2 0x100 EXP SWAP1 DIV PUSH20 0xFFFFFFFFFFFFFFFFFFFFFFFFFFFFFFFFFFFFFFFF AND SWAP1 POP PUSH1 0x1 ISZERO ISZERO DUP2 PUSH20 0xFFFFFFFFFFFFFFFFFFFFFFFFFFFFFFFFFFFFFFFF AND PUSH4 0x86174396 PUSH1 0x40 MLOAD DUP2 PUSH4 0xFFFFFFFF AND PUSH1 0xE0 SHL DUP2 MSTORE PUSH1 0x4 ADD PUSH1 0x20 PUSH1 0x40 MLOAD DUP1 DUP4 SUB DUP2 DUP7 DUP1 EXTCODESIZE ISZERO DUP1 ISZERO PUSH2 0x16C6 JUMPI PUSH1 0x0 DUP1 REVERT JUMPDEST POP GAS STATICCALL ISZERO DUP1 ISZERO PUSH2 0x16DA JUMPI RETURNDATASIZE PUSH1 0x0 DUP1 RETURNDATACOPY RETURNDATASIZE PUSH1 0x0 REVERT JUMPDEST POP POP POP POP PUSH1 0x40 MLOAD RETURNDATASIZE PUSH1 0x1F NOT PUSH1 0x1F DUP3 ADD AND DUP3 ADD DUP1 PUSH1 0x40 MSTORE POP DUP2 ADD SWAP1 PUSH2 0x16FE SWAP2 SWAP1 PUSH2 0x9854 JUMP JUMPDEST ISZERO ISZERO EQ PUSH2 0x1740 JUMPI PUSH1 0x40 MLOAD PUSH32 0x8C379A000000000000000000000000000000000000000000000000000000000 DUP2 MSTORE PUSH1 0x4 ADD PUSH2 0x1737 SWAP1 PUSH2 0x9FE2 JUMP JUMPDEST PUSH1 0x40 MLOAD DUP1 SWAP2 SUB SWAP1 REVERT JUMPDEST PUSH2 0x17D0 DUP2 PUSH20 0xFFFFFFFFFFFFFFFFFFFFFFFFFFFFFFFFFFFFFFFF AND PUSH4 0xD21220A7 PUSH1 0x40 MLOAD DUP2 PUSH4 0xFFFFFFFF AND PUSH1 0xE0 SHL DUP2 MSTORE PUSH1 0x4 ADD PUSH1 0x0 PUSH1 0x40 MLOAD DUP1 DUP4 SUB DUP2 DUP7 DUP1 EXTCODESIZE ISZERO DUP1 ISZERO PUSH2 0x1789 JUMPI PUSH1 0x0 DUP1 REVERT JUMPDEST POP GAS STATICCALL ISZERO DUP1 ISZERO PUSH2 0x179D JUMPI RETURNDATASIZE PUSH1 0x0 DUP1 RETURNDATACOPY RETURNDATASIZE PUSH1 0x0 REVERT JUMPDEST POP POP POP POP PUSH1 0x40 MLOAD RETURNDATASIZE PUSH1 0x0 DUP3 RETURNDATACOPY RETURNDATASIZE PUSH1 0x1F NOT PUSH1 0x1F DUP3 ADD AND DUP3 ADD DUP1 PUSH1 0x40 MSTORE POP DUP2 ADD SWAP1 PUSH2 0x17C6 SWAP2 SWAP1 PUSH2 0x9881 JUMP JUMPDEST DUP4 PUSH1 0x20 ADD MLOAD PUSH2 0x4280 JUMP JUMPDEST DUP1 PUSH2 0x1867 JUMPI POP PUSH2 0x1866 DUP2 PUSH20 0xFFFFFFFFFFFFFFFFFFFFFFFFFFFFFFFFFFFFFFFF AND PUSH4 0x25BE124E PUSH1 0x40 MLOAD DUP2 PUSH4 0xFFFFFFFF AND PUSH1 0xE0 SHL DUP2 MSTORE PUSH1 0x4 ADD PUSH1 0x0 PUSH1 0x40 MLOAD DUP1 DUP4 SUB DUP2 DUP7 DUP1 EXTCODESIZE ISZERO DUP1 ISZERO PUSH2 0x181F JUMPI PUSH1 0x0 DUP1 REVERT JUMPDEST POP GAS STATICCALL ISZERO DUP1 ISZERO PUSH2 0x1833 JUMPI RETURNDATASIZE PUSH1 0x0 DUP1 RETURNDATACOPY RETURNDATASIZE PUSH1 0x0 REVERT JUMPDEST POP POP POP POP PUSH1 0x40 MLOAD RETURNDATASIZE PUSH1 0x0 DUP3 RETURNDATACOPY RETURNDATASIZE PUSH1 0x1F NOT PUSH1 0x1F DUP3 ADD AND DUP3 ADD DUP1 PUSH1 0x40 MSTORE POP DUP2 ADD SWAP1 PUSH2 0x185C SWAP2 SWAP1 PUSH2 0x9881 JUMP JUMPDEST DUP4 PUSH1 0x20 ADD MLOAD PUSH2 0x4280 JUMP JUMPDEST JUMPDEST PUSH2 0x18A6 JUMPI PUSH1 0x40 MLOAD PUSH32 0x8C379A000000000000000000000000000000000000000000000000000000000 DUP2 MSTORE PUSH1 0x4 ADD PUSH2 0x189D SWAP1 PUSH2 0xA002 JUMP JUMPDEST PUSH1 0x40 MLOAD DUP1 SWAP2 SUB SWAP1 REVERT JUMPDEST PUSH1 0x0 PUSH2 0x18B5 DUP4 PUSH1 0x40 ADD MLOAD PUSH2 0x4C3F JUMP JUMPDEST SWAP1 POP PUSH2 0x1947 DUP3 PUSH20 0xFFFFFFFFFFFFFFFFFFFFFFFFFFFFFFFFFFFFFFFF AND PUSH4 0xD21220A7 PUSH1 0x40 MLOAD DUP2 PUSH4 0xFFFFFFFF AND PUSH1 0xE0 SHL DUP2 MSTORE PUSH1 0x4 ADD PUSH1 0x0 PUSH1 0x40 MLOAD DUP1 DUP4 SUB DUP2 DUP7 DUP1 EXTCODESIZE ISZERO DUP1 ISZERO PUSH2 0x1900 JUMPI PUSH1 0x0 DUP1 REVERT JUMPDEST POP GAS STATICCALL ISZERO DUP1 ISZERO PUSH2 0x1914 JUMPI RETURNDATASIZE PUSH1 0x0 DUP1 RETURNDATACOPY RETURNDATASIZE PUSH1 0x0 REVERT JUMPDEST POP POP POP POP PUSH1 0x40 MLOAD RETURNDATASIZE PUSH1 0x0 DUP3 RETURNDATACOPY RETURNDATASIZE PUSH1 0x1F NOT PUSH1 0x1F DUP3 ADD AND DUP3 ADD DUP1 PUSH1 0x40 MSTORE POP DUP2 ADD SWAP1 PUSH2 0x193D SWAP2 SWAP1 PUSH2 0x9881 JUMP JUMPDEST DUP5 PUSH1 0x20 ADD MLOAD PUSH2 0x4280 JUMP JUMPDEST ISZERO PUSH2 0x1A25 JUMPI DUP3 PUSH1 0x0 ADD MLOAD PUSH8 0xFFFFFFFFFFFFFFFF AND DUP3 PUSH20 0xFFFFFFFFFFFFFFFFFFFFFFFFFFFFFFFFFFFFFFFF AND PUSH4 0xAF62DB3F DUP4 PUSH1 0x40 MLOAD DUP3 PUSH4 0xFFFFFFFF AND PUSH1 0xE0 SHL DUP2 MSTORE PUSH1 0x4 ADD PUSH2 0x1994 SWAP2 SWAP1 PUSH2 0x9D6A JUMP JUMPDEST PUSH1 0x20 PUSH1 0x40 MLOAD DUP1 DUP4 SUB DUP2 DUP7 DUP1 EXTCODESIZE ISZERO DUP1 ISZERO PUSH2 0x19AC JUMPI PUSH1 0x0 DUP1 REVERT JUMPDEST POP GAS STATICCALL ISZERO DUP1 ISZERO PUSH2 0x19C0 JUMPI RETURNDATASIZE PUSH1 0x0 DUP1 RETURNDATACOPY RETURNDATASIZE PUSH1 0x0 REVERT JUMPDEST POP POP POP POP PUSH1 0x40 MLOAD RETURNDATASIZE PUSH1 0x1F NOT PUSH1 0x1F DUP3 ADD AND DUP3 ADD DUP1 PUSH1 0x40 MSTORE POP DUP2 ADD SWAP1 PUSH2 0x19E4 SWAP2 SWAP1 PUSH2 0x9940 JUMP JUMPDEST GT PUSH2 0x1A24 JUMPI PUSH1 0x40 MLOAD PUSH32 0x8C379A000000000000000000000000000000000000000000000000000000000 DUP2 MSTORE PUSH1 0x4 ADD PUSH2 0x1A1B SWAP1 PUSH2 0x9E62 JUMP JUMPDEST PUSH1 0x40 MLOAD DUP1 SWAP2 SUB SWAP1 REVERT JUMPDEST JUMPDEST PUSH2 0x1AB5 DUP3 PUSH20 0xFFFFFFFFFFFFFFFFFFFFFFFFFFFFFFFFFFFFFFFF AND PUSH4 0x25BE124E PUSH1 0x40 MLOAD DUP2 PUSH4 0xFFFFFFFF AND PUSH1 0xE0 SHL DUP2 MSTORE PUSH1 0x4 ADD PUSH1 0x0 PUSH1 0x40 MLOAD DUP1 DUP4 SUB DUP2 DUP7 DUP1 EXTCODESIZE ISZERO DUP1 ISZERO PUSH2 0x1A6E JUMPI PUSH1 0x0 DUP1 REVERT JUMPDEST POP GAS STATICCALL ISZERO DUP1 ISZERO PUSH2 0x1A82 JUMPI RETURNDATASIZE PUSH1 0x0 DUP1 RETURNDATACOPY RETURNDATASIZE PUSH1 0x0 REVERT JUMPDEST POP POP POP POP PUSH1 0x40 MLOAD RETURNDATASIZE PUSH1 0x0 DUP3 RETURNDATACOPY RETURNDATASIZE PUSH1 0x1F NOT PUSH1 0x1F DUP3 ADD AND DUP3 ADD DUP1 PUSH1 0x40 MSTORE POP DUP2 ADD SWAP1 PUSH2 0x1AAB SWAP2 SWAP1 PUSH2 0x9881 JUMP JUMPDEST DUP5 PUSH1 0x20 ADD MLOAD PUSH2 0x4280 JUMP JUMPDEST ISZERO PUSH2 0x1B93 JUMPI DUP3 PUSH1 0x0 ADD MLOAD PUSH8 0xFFFFFFFFFFFFFFFF AND DUP3 PUSH20 0xFFFFFFFFFFFFFFFFFFFFFFFFFFFFFFFFFFFFFFFF AND PUSH4 0xC1FC829 DUP4 PUSH1 0x40 MLOAD DUP3 PUSH4 0xFFFFFFFF AND PUSH1 0xE0 SHL DUP2 MSTORE PUSH1 0x4 ADD PUSH2 0x1B02 SWAP2 SWAP1 PUSH2 0x9D6A JUMP JUMPDEST PUSH1 0x20 PUSH1 0x40 MLOAD DUP1 DUP4 SUB DUP2 DUP7 DUP1 EXTCODESIZE ISZERO DUP1 ISZERO PUSH2 0x1B1A JUMPI PUSH1 0x0 DUP1 REVERT JUMPDEST POP GAS STATICCALL ISZERO DUP1 ISZERO PUSH2 0x1B2E JUMPI RETURNDATASIZE PUSH1 0x0 DUP1 RETURNDATACOPY RETURNDATASIZE PUSH1 0x0 REVERT JUMPDEST POP POP POP POP PUSH1 0x40 MLOAD RETURNDATASIZE PUSH1 0x1F NOT PUSH1 0x1F DUP3 ADD AND DUP3 ADD DUP1 PUSH1 0x40 MSTORE POP DUP2 ADD SWAP1 PUSH2 0x1B52 SWAP2 SWAP1 PUSH2 0x9940 JUMP JUMPDEST GT PUSH2 0x1B92 JUMPI PUSH1 0x40 MLOAD PUSH32 0x8C379A000000000000000000000000000000000000000000000000000000000 DUP2 MSTORE PUSH1 0x4 ADD PUSH2 0x1B89 SWAP1 PUSH2 0x9E62 JUMP JUMPDEST PUSH1 0x40 MLOAD DUP1 SWAP2 SUB SWAP1 REVERT JUMPDEST JUMPDEST PUSH2 0x1B9B PUSH2 0x8FDA JUMP JUMPDEST DUP4 PUSH1 0x40 ADD MLOAD DUP2 PUSH1 0x40 ADD DUP2 SWAP1 MSTORE POP DUP4 PUSH1 0x0 ADD MLOAD DUP2 PUSH1 0x20 ADD SWAP1 PUSH8 0xFFFFFFFFFFFFFFFF AND SWAP1 DUP2 PUSH8 0xFFFFFFFFFFFFFFFF AND DUP2 MSTORE POP POP DUP4 PUSH1 0x20 ADD MLOAD DUP2 PUSH1 0x0 ADD DUP2 SWAP1 MSTORE POP PUSH2 0x1BE1 PUSH2 0x8E72 JUMP JUMPDEST PUSH1 0x4 PUSH1 0x1 SWAP1 SLOAD SWAP1 PUSH2 0x100 EXP SWAP1 DIV PUSH8 0xFFFFFFFFFFFFFFFF AND DUP2 PUSH1 0x0 ADD SWAP1 PUSH8 0xFFFFFFFFFFFFFFFF AND SWAP1 DUP2 PUSH8 0xFFFFFFFFFFFFFFFF AND DUP2 MSTORE POP POP PUSH1 0x8 DUP2 PUSH1 0x20 ADD SWAP1 PUSH1 0x8 DUP2 GT ISZERO PUSH2 0x1C30 JUMPI PUSH2 0x1C2F PUSH2 0xA3F8 JUMP JUMPDEST JUMPDEST SWAP1 DUP2 PUSH1 0x8 DUP2 GT ISZERO PUSH2 0x1C44 JUMPI PUSH2 0x1C43 PUSH2 0xA3F8 JUMP JUMPDEST JUMPDEST DUP2 MSTORE POP POP PUSH2 0x1C51 DUP3 PUSH2 0x4C97 JUMP JUMPDEST DUP2 PUSH1 0x40 ADD DUP2 SWAP1 MSTORE POP PUSH2 0x1C62 DUP2 PUSH2 0x3F30 JUMP JUMPDEST POP POP POP POP POP JUMP JUMPDEST PUSH1 0x0 DUP1 PUSH2 0x1C74 PUSH2 0x9005 JUMP JUMPDEST PUSH2 0x1C7C PUSH2 0x9005 JUMP JUMPDEST PUSH1 0x0 DUP1 DUP9 SWAP1 POP DUP1 PUSH8 0xFFFFFFFFFFFFFFFF AND DUP8 DUP3 PUSH2 0x1C99 SWAP2 SWAP1 PUSH2 0xA13F JUMP JUMPDEST PUSH8 0xFFFFFFFFFFFFFFFF AND LT ISZERO PUSH2 0x1CBB JUMPI PUSH1 0x0 DUP2 DUP5 SWAP6 POP SWAP6 POP SWAP6 POP POP POP POP PUSH2 0x1E1A JUMP JUMPDEST JUMPDEST DUP7 PUSH8 0xFFFFFFFFFFFFFFFF AND DUP10 DUP3 PUSH2 0x1CD3 SWAP2 SWAP1 PUSH2 0xA1BF JUMP JUMPDEST PUSH8 0xFFFFFFFFFFFFFFFF AND LT ISZERO PUSH2 0x1DD4 JUMPI PUSH1 0x0 DUP1 PUSH1 0x0 PUSH2 0x1CF2 DUP5 DUP13 PUSH2 0x2ED7 JUMP JUMPDEST DUP1 SWAP5 POP DUP2 SWAP6 POP DUP3 SWAP8 POP DUP4 SWAP7 POP POP POP POP POP DUP3 PUSH2 0x1D1C JUMPI PUSH1 0x0 DUP5 DUP8 SWAP9 POP SWAP9 POP SWAP9 POP POP POP POP POP POP POP PUSH2 0x1E1A JUMP JUMPDEST PUSH1 0x3 DUP3 PUSH8 0xFFFFFFFFFFFFFFFF AND GT ISZERO PUSH2 0x1D44 JUMPI PUSH1 0x0 DUP5 DUP8 SWAP9 POP SWAP9 POP SWAP9 POP POP POP POP POP POP POP PUSH2 0x1E1A JUMP JUMPDEST DUP5 PUSH8 0xFFFFFFFFFFFFFFFF AND DUP3 PUSH8 0xFFFFFFFFFFFFFFFF AND GT PUSH2 0x1D74 JUMPI PUSH1 0x0 DUP5 DUP8 SWAP9 POP SWAP9 POP SWAP9 POP POP POP POP POP POP POP PUSH2 0x1E1A JUMP JUMPDEST PUSH2 0x1D7E DUP3 DUP3 PUSH2 0x5434 JUMP JUMPDEST SWAP3 POP DUP3 PUSH2 0x1D9A JUMPI PUSH1 0x0 DUP5 DUP8 SWAP9 POP SWAP9 POP SWAP9 POP POP POP POP POP POP POP PUSH2 0x1E1A JUMP JUMPDEST PUSH2 0x1DA7 DUP5 DUP13 DUP13 DUP6 DUP11 PUSH2 0x5507 JUMP JUMPDEST DUP1 SWAP6 POP DUP2 SWAP5 POP POP POP DUP3 PUSH2 0x1DC9 JUMPI PUSH1 0x0 DUP5 DUP8 SWAP9 POP SWAP9 POP SWAP9 POP POP POP POP POP POP POP PUSH2 0x1E1A JUMP JUMPDEST DUP2 SWAP5 POP POP POP POP PUSH2 0x1CBC JUMP JUMPDEST DUP7 DUP10 PUSH2 0x1DE0 SWAP2 SWAP1 PUSH2 0xA13F JUMP JUMPDEST PUSH8 0xFFFFFFFFFFFFFFFF AND DUP2 PUSH8 0xFFFFFFFFFFFFFFFF AND EQ PUSH2 0x1E0C JUMPI PUSH1 0x0 DUP2 DUP5 SWAP6 POP SWAP6 POP SWAP6 POP POP POP POP PUSH2 0x1E1A JUMP JUMPDEST PUSH1 0x1 DUP2 DUP5 SWAP6 POP SWAP6 POP SWAP6 POP POP POP POP JUMPDEST SWAP4 POP SWAP4 POP SWAP4 SWAP1 POP JUMP JUMPDEST PUSH1 0x0 PUSH1 0x2 PUSH1 0x0 SWAP1 SLOAD SWAP1 PUSH2 0x100 EXP SWAP1 DIV PUSH20 0xFFFFFFFFFFFFFFFFFFFFFFFFFFFFFFFFFFFFFFFF AND SWAP1 POP PUSH1 0x1 ISZERO ISZERO DUP2 PUSH20 0xFFFFFFFFFFFFFFFFFFFFFFFFFFFFFFFFFFFFFFFF AND PUSH4 0x86174396 PUSH1 0x40 MLOAD DUP2 PUSH4 0xFFFFFFFF AND PUSH1 0xE0 SHL DUP2 MSTORE PUSH1 0x4 ADD PUSH1 0x20 PUSH1 0x40 MLOAD DUP1 DUP4 SUB DUP2 DUP7 DUP1 EXTCODESIZE ISZERO DUP1 ISZERO PUSH2 0x1E94 JUMPI PUSH1 0x0 DUP1 REVERT JUMPDEST POP GAS STATICCALL ISZERO DUP1 ISZERO PUSH2 0x1EA8 JUMPI RETURNDATASIZE PUSH1 0x0 DUP1 RETURNDATACOPY RETURNDATASIZE PUSH1 0x0 REVERT JUMPDEST POP POP POP POP PUSH1 0x40 MLOAD RETURNDATASIZE PUSH1 0x1F NOT PUSH1 0x1F DUP3 ADD AND DUP3 ADD DUP1 PUSH1 0x40 MSTORE POP DUP2 ADD SWAP1 PUSH2 0x1ECC SWAP2 SWAP1 PUSH2 0x9854 JUMP JUMPDEST ISZERO ISZERO EQ PUSH2 0x1F0E JUMPI PUSH1 0x40 MLOAD PUSH32 0x8C379A000000000000000000000000000000000000000000000000000000000 DUP2 MSTORE PUSH1 0x4 ADD PUSH2 0x1F05 SWAP1 PUSH2 0x9FE2 JUMP JUMPDEST PUSH1 0x40 MLOAD DUP1 SWAP2 SUB SWAP1 REVERT JUMPDEST PUSH1 0x0 PUSH2 0x1F1D DUP4 PUSH1 0x40 ADD MLOAD PUSH2 0x4C3F JUMP JUMPDEST SWAP1 POP DUP3 PUSH1 0x0 ADD MLOAD PUSH8 0xFFFFFFFFFFFFFFFF AND DUP3 PUSH20 0xFFFFFFFFFFFFFFFFFFFFFFFFFFFFFFFFFFFFFFFF AND PUSH4 0xAF62DB3F DUP4 PUSH1 0x40 MLOAD DUP3 PUSH4 0xFFFFFFFF AND PUSH1 0xE0 SHL DUP2 MSTORE PUSH1 0x4 ADD PUSH2 0x1F67 SWAP2 SWAP1 PUSH2 0x9D6A JUMP JUMPDEST PUSH1 0x20 PUSH1 0x40 MLOAD DUP1 DUP4 SUB DUP2 DUP7 DUP1 EXTCODESIZE ISZERO DUP1 ISZERO PUSH2 0x1F7F JUMPI PUSH1 0x0 DUP1 REVERT JUMPDEST POP GAS STATICCALL ISZERO DUP1 ISZERO PUSH2 0x1F93 JUMPI RETURNDATASIZE PUSH1 0x0 DUP1 RETURNDATACOPY RETURNDATASIZE PUSH1 0x0 REVERT JUMPDEST POP POP POP POP PUSH1 0x40 MLOAD RETURNDATASIZE PUSH1 0x1F NOT PUSH1 0x1F DUP3 ADD AND DUP3 ADD DUP1 PUSH1 0x40 MSTORE POP DUP2 ADD SWAP1 PUSH2 0x1FB7 SWAP2 SWAP1 PUSH2 0x9940 JUMP JUMPDEST LT ISZERO PUSH2 0x1FF8 JUMPI PUSH1 0x40 MLOAD PUSH32 0x8C379A000000000000000000000000000000000000000000000000000000000 DUP2 MSTORE PUSH1 0x4 ADD PUSH2 0x1FEF SWAP1 PUSH2 0x9E82 JUMP JUMPDEST PUSH1 0x40 MLOAD DUP1 SWAP2 SUB SWAP1 REVERT JUMPDEST DUP3 PUSH1 0x20 ADD MLOAD PUSH8 0xFFFFFFFFFFFFFFFF AND DUP3 PUSH20 0xFFFFFFFFFFFFFFFFFFFFFFFFFFFFFFFFFFFFFFFF AND PUSH4 0xC1FC829 DUP4 PUSH1 0x40 MLOAD DUP3 PUSH4 0xFFFFFFFF AND PUSH1 0xE0 SHL DUP2 MSTORE PUSH1 0x4 ADD PUSH2 0x2040 SWAP2 SWAP1 PUSH2 0x9D6A JUMP JUMPDEST PUSH1 0x20 PUSH1 0x40 MLOAD DUP1 DUP4 SUB DUP2 DUP7 DUP1 EXTCODESIZE ISZERO DUP1 ISZERO PUSH2 0x2058 JUMPI PUSH1 0x0 DUP1 REVERT JUMPDEST POP GAS STATICCALL ISZERO DUP1 ISZERO PUSH2 0x206C JUMPI RETURNDATASIZE PUSH1 0x0 DUP1 RETURNDATACOPY RETURNDATASIZE PUSH1 0x0 REVERT JUMPDEST POP POP POP POP PUSH1 0x40 MLOAD RETURNDATASIZE PUSH1 0x1F NOT PUSH1 0x1F DUP3 ADD AND DUP3 ADD DUP1 PUSH1 0x40 MSTORE POP DUP2 ADD SWAP1 PUSH2 0x2090 SWAP2 SWAP1 PUSH2 0x9940 JUMP JUMPDEST LT ISZERO PUSH2 0x20D1 JUMPI PUSH1 0x40 MLOAD PUSH32 0x8C379A000000000000000000000000000000000000000000000000000000000 DUP2 MSTORE PUSH1 0x4 ADD PUSH2 0x20C8 SWAP1 PUSH2 0x9E82 JUMP JUMPDEST PUSH1 0x40 MLOAD DUP1 SWAP2 SUB SWAP1 REVERT JUMPDEST PUSH2 0x20D9 PUSH2 0x903A JUMP JUMPDEST DUP4 PUSH1 0x40 ADD MLOAD DUP2 PUSH1 0x40 ADD DUP2 SWAP1 MSTORE POP DUP4 PUSH1 0x0 ADD MLOAD DUP2 PUSH1 0x0 ADD SWAP1 PUSH8 0xFFFFFFFFFFFFFFFF AND SWAP1 DUP2 PUSH8 0xFFFFFFFFFFFFFFFF AND DUP2 MSTORE POP POP DUP4 PUSH1 0x20 ADD MLOAD DUP2 PUSH1 0x20 ADD SWAP1 PUSH8 0xFFFFFFFFFFFFFFFF AND SWAP1 DUP2 PUSH8 0xFFFFFFFFFFFFFFFF AND DUP2 MSTORE POP POP PUSH2 0x2136 PUSH2 0x8E72 JUMP JUMPDEST PUSH1 0x4 PUSH1 0x1 SWAP1 SLOAD SWAP1 PUSH2 0x100 EXP SWAP1 DIV PUSH8 0xFFFFFFFFFFFFFFFF AND DUP2 PUSH1 0x0 ADD SWAP1 PUSH8 0xFFFFFFFFFFFFFFFF AND SWAP1 DUP2 PUSH8 0xFFFFFFFFFFFFFFFF AND DUP2 MSTORE POP POP PUSH1 0x4 DUP2 PUSH1 0x20 ADD SWAP1 PUSH1 0x8 DUP2 GT ISZERO PUSH2 0x2185 JUMPI PUSH2 0x2184 PUSH2 0xA3F8 JUMP JUMPDEST JUMPDEST SWAP1 DUP2 PUSH1 0x8 DUP2 GT ISZERO PUSH2 0x2199 JUMPI PUSH2 0x2198 PUSH2 0xA3F8 JUMP JUMPDEST JUMPDEST DUP2 MSTORE POP POP PUSH2 0x21A6 DUP3 PUSH2 0x55FD JUMP JUMPDEST DUP2 PUSH1 0x40 ADD DUP2 SWAP1 MSTORE POP PUSH2 0x21B7 DUP2 PUSH2 0x3F30 JUMP JUMPDEST POP POP POP POP POP JUMP JUMPDEST PUSH1 0x0 DUP1 PUSH2 0x21C9 PUSH2 0x906F JUMP JUMPDEST PUSH2 0x21D1 PUSH2 0x906F JUMP JUMPDEST PUSH1 0x0 DUP1 DUP9 SWAP1 POP DUP1 PUSH8 0xFFFFFFFFFFFFFFFF AND DUP8 DUP3 PUSH2 0x21EE SWAP2 SWAP1 PUSH2 0xA13F JUMP JUMPDEST PUSH8 0xFFFFFFFFFFFFFFFF AND LT ISZERO PUSH2 0x2210 JUMPI PUSH1 0x0 DUP2 DUP5 SWAP6 POP SWAP6 POP SWAP6 POP POP POP POP PUSH2 0x236F JUMP JUMPDEST JUMPDEST DUP7 PUSH8 0xFFFFFFFFFFFFFFFF AND DUP10 DUP3 PUSH2 0x2228 SWAP2 SWAP1 PUSH2 0xA1BF JUMP JUMPDEST PUSH8 0xFFFFFFFFFFFFFFFF AND LT ISZERO PUSH2 0x2329 JUMPI PUSH1 0x0 DUP1 PUSH1 0x0 PUSH2 0x2247 DUP5 DUP13 PUSH2 0x2ED7 JUMP JUMPDEST DUP1 SWAP5 POP DUP2 SWAP6 POP DUP3 SWAP8 POP DUP4 SWAP7 POP POP POP POP POP DUP3 PUSH2 0x2271 JUMPI PUSH1 0x0 DUP5 DUP8 SWAP9 POP SWAP9 POP SWAP9 POP POP POP POP POP POP POP PUSH2 0x236F JUMP JUMPDEST PUSH1 0x2 DUP3 PUSH8 0xFFFFFFFFFFFFFFFF AND GT ISZERO PUSH2 0x2299 JUMPI PUSH1 0x0 DUP5 DUP8 SWAP9 POP SWAP9 POP SWAP9 POP POP POP POP POP POP POP PUSH2 0x236F JUMP JUMPDEST DUP5 PUSH8 0xFFFFFFFFFFFFFFFF AND DUP3 PUSH8 0xFFFFFFFFFFFFFFFF AND GT PUSH2 0x22C9 JUMPI PUSH1 0x0 DUP5 DUP8 SWAP9 POP SWAP9 POP SWAP9 POP POP POP POP POP POP POP PUSH2 0x236F JUMP JUMPDEST PUSH2 0x22D3 DUP3 DUP3 PUSH2 0x5CD0 JUMP JUMPDEST SWAP3 POP DUP3 PUSH2 0x22EF JUMPI PUSH1 0x0 DUP5 DUP8 SWAP9 POP SWAP9 POP SWAP9 POP POP POP POP POP POP POP PUSH2 0x236F JUMP JUMPDEST PUSH2 0x22FC DUP5 DUP13 DUP13 DUP6 DUP11 PUSH2 0x5D61 JUMP JUMPDEST DUP1 SWAP6 POP DUP2 SWAP5 POP POP POP DUP3 PUSH2 0x231E JUMPI PUSH1 0x0 DUP5 DUP8 SWAP9 POP SWAP9 POP SWAP9 POP POP POP POP POP POP POP PUSH2 0x236F JUMP JUMPDEST DUP2 SWAP5 POP POP POP POP PUSH2 0x2211 JUMP JUMPDEST DUP7 DUP10 PUSH2 0x2335 SWAP2 SWAP1 PUSH2 0xA13F JUMP JUMPDEST PUSH8 0xFFFFFFFFFFFFFFFF AND DUP2 PUSH8 0xFFFFFFFFFFFFFFFF AND EQ PUSH2 0x2361 JUMPI PUSH1 0x0 DUP2 DUP5 SWAP6 POP SWAP6 POP SWAP6 POP POP POP POP PUSH2 0x236F JUMP JUMPDEST PUSH1 0x1 DUP2 DUP5 SWAP6 POP SWAP6 POP SWAP6 POP POP POP POP JUMPDEST SWAP4 POP SWAP4 POP SWAP4 SWAP1 POP JUMP JUMPDEST PUSH1 0x0 PUSH1 0x2 PUSH1 0x0 SWAP1 SLOAD SWAP1 PUSH2 0x100 EXP SWAP1 DIV PUSH20 0xFFFFFFFFFFFFFFFFFFFFFFFFFFFFFFFFFFFFFFFF AND SWAP1 POP PUSH1 0x1 ISZERO ISZERO DUP2 PUSH20 0xFFFFFFFFFFFFFFFFFFFFFFFFFFFFFFFFFFFFFFFF AND PUSH4 0x86174396 PUSH1 0x40 MLOAD DUP2 PUSH4 0xFFFFFFFF AND PUSH1 0xE0 SHL DUP2 MSTORE PUSH1 0x4 ADD PUSH1 0x20 PUSH1 0x40 MLOAD DUP1 DUP4 SUB DUP2 DUP7 DUP1 EXTCODESIZE ISZERO DUP1 ISZERO PUSH2 0x23E9 JUMPI PUSH1 0x0 DUP1 REVERT JUMPDEST POP GAS STATICCALL ISZERO DUP1 ISZERO PUSH2 0x23FD JUMPI RETURNDATASIZE PUSH1 0x0 DUP1 RETURNDATACOPY RETURNDATASIZE PUSH1 0x0 REVERT JUMPDEST POP POP POP POP PUSH1 0x40 MLOAD RETURNDATASIZE PUSH1 0x1F NOT PUSH1 0x1F DUP3 ADD AND DUP3 ADD DUP1 PUSH1 0x40 MSTORE POP DUP2 ADD SWAP1 PUSH2 0x2421 SWAP2 SWAP1 PUSH2 0x9854 JUMP JUMPDEST ISZERO ISZERO EQ PUSH2 0x2463 JUMPI PUSH1 0x40 MLOAD PUSH32 0x8C379A000000000000000000000000000000000000000000000000000000000 DUP2 MSTORE PUSH1 0x4 ADD PUSH2 0x245A SWAP1 PUSH2 0x9FE2 JUMP JUMPDEST PUSH1 0x40 MLOAD DUP1 SWAP2 SUB SWAP1 REVERT JUMPDEST PUSH1 0x0 PUSH2 0x2472 DUP4 PUSH1 0x20 ADD MLOAD PUSH2 0x4C3F JUMP JUMPDEST SWAP1 POP DUP3 PUSH1 0x0 ADD MLOAD PUSH8 0xFFFFFFFFFFFFFFFF AND DUP3 PUSH20 0xFFFFFFFFFFFFFFFFFFFFFFFFFFFFFFFFFFFFFFFF AND PUSH4 0xCE7C2AC2 DUP4 PUSH1 0x40 MLOAD DUP3 PUSH4 0xFFFFFFFF AND PUSH1 0xE0 SHL DUP2 MSTORE PUSH1 0x4 ADD PUSH2 0x24BC SWAP2 SWAP1 PUSH2 0x9D6A JUMP JUMPDEST PUSH1 0x20 PUSH1 0x40 MLOAD DUP1 DUP4 SUB DUP2 DUP7 DUP1 EXTCODESIZE ISZERO DUP1 ISZERO PUSH2 0x24D4 JUMPI PUSH1 0x0 DUP1 REVERT JUMPDEST POP GAS STATICCALL ISZERO DUP1 ISZERO PUSH2 0x24E8 JUMPI RETURNDATASIZE PUSH1 0x0 DUP1 RETURNDATACOPY RETURNDATASIZE PUSH1 0x0 REVERT JUMPDEST POP POP POP POP PUSH1 0x40 MLOAD RETURNDATASIZE PUSH1 0x1F NOT PUSH1 0x1F DUP3 ADD AND DUP3 ADD DUP1 PUSH1 0x40 MSTORE POP DUP2 ADD SWAP1 PUSH2 0x250C SWAP2 SWAP1 PUSH2 0x9940 JUMP JUMPDEST LT ISZERO PUSH2 0x254D JUMPI PUSH1 0x40 MLOAD PUSH32 0x8C379A000000000000000000000000000000000000000000000000000000000 DUP2 MSTORE PUSH1 0x4 ADD PUSH2 0x2544 SWAP1 PUSH2 0x9F02 JUMP JUMPDEST PUSH1 0x40 MLOAD DUP1 SWAP2 SUB SWAP1 REVERT JUMPDEST PUSH2 0x2555 PUSH2 0x9093 JUMP JUMPDEST DUP4 PUSH1 0x20 ADD MLOAD DUP2 PUSH1 0x60 ADD DUP2 SWAP1 MSTORE POP DUP4 PUSH1 0x0 ADD MLOAD DUP2 PUSH1 0x0 ADD SWAP1 PUSH8 0xFFFFFFFFFFFFFFFF AND SWAP1 DUP2 PUSH8 0xFFFFFFFFFFFFFFFF AND DUP2 MSTORE POP POP PUSH2 0x258E PUSH2 0x8E72 JUMP JUMPDEST PUSH1 0x4 PUSH1 0x1 SWAP1 SLOAD SWAP1 PUSH2 0x100 EXP SWAP1 DIV PUSH8 0xFFFFFFFFFFFFFFFF AND DUP2 PUSH1 0x0 ADD SWAP1 PUSH8 0xFFFFFFFFFFFFFFFF AND SWAP1 DUP2 PUSH8 0xFFFFFFFFFFFFFFFF AND DUP2 MSTORE POP POP PUSH1 0x5 DUP2 PUSH1 0x20 ADD SWAP1 PUSH1 0x8 DUP2 GT ISZERO PUSH2 0x25DD JUMPI PUSH2 0x25DC PUSH2 0xA3F8 JUMP JUMPDEST JUMPDEST SWAP1 DUP2 PUSH1 0x8 DUP2 GT ISZERO PUSH2 0x25F1 JUMPI PUSH2 0x25F0 PUSH2 0xA3F8 JUMP JUMPDEST JUMPDEST DUP2 MSTORE POP POP PUSH2 0x25FE DUP3 PUSH2 0x5E0E JUMP JUMPDEST DUP2 PUSH1 0x40 ADD DUP2 SWAP1 MSTORE POP PUSH2 0x260F DUP2 PUSH2 0x3F30 JUMP JUMPDEST POP POP POP POP POP JUMP JUMPDEST PUSH1 0x0 DUP1 PUSH2 0x2621 PUSH2 0x90D9 JUMP JUMPDEST PUSH2 0x2629 PUSH2 0x90D9 JUMP JUMPDEST PUSH1 0x0 DUP1 DUP9 SWAP1 POP DUP1 PUSH8 0xFFFFFFFFFFFFFFFF AND DUP8 DUP3 PUSH2 0x2646 SWAP2 SWAP1 PUSH2 0xA13F JUMP JUMPDEST PUSH8 0xFFFFFFFFFFFFFFFF AND LT ISZERO PUSH2 0x2668 JUMPI PUSH1 0x0 DUP2 DUP5 SWAP6 POP SWAP6 POP SWAP6 POP POP POP POP PUSH2 0x27C7 JUMP JUMPDEST JUMPDEST DUP7 PUSH8 0xFFFFFFFFFFFFFFFF AND DUP10 DUP3 PUSH2 0x2680 SWAP2 SWAP1 PUSH2 0xA1BF JUMP JUMPDEST PUSH8 0xFFFFFFFFFFFFFFFF AND LT ISZERO PUSH2 0x2781 JUMPI PUSH1 0x0 DUP1 PUSH1 0x0 PUSH2 0x269F DUP5 DUP13 PUSH2 0x2ED7 JUMP JUMPDEST DUP1 SWAP5 POP DUP2 SWAP6 POP DUP3 SWAP8 POP DUP4 SWAP7 POP POP POP POP POP DUP3 PUSH2 0x26C9 JUMPI PUSH1 0x0 DUP5 DUP8 SWAP9 POP SWAP9 POP SWAP9 POP POP POP POP POP POP POP PUSH2 0x27C7 JUMP JUMPDEST PUSH1 0x3 DUP3 PUSH8 0xFFFFFFFFFFFFFFFF AND GT ISZERO PUSH2 0x26F1 JUMPI PUSH1 0x0 DUP5 DUP8 SWAP9 POP SWAP9 POP SWAP9 POP POP POP POP POP POP POP PUSH2 0x27C7 JUMP JUMPDEST DUP5 PUSH8 0xFFFFFFFFFFFFFFFF AND DUP3 PUSH8 0xFFFFFFFFFFFFFFFF AND GT PUSH2 0x2721 JUMPI PUSH1 0x0 DUP5 DUP8 SWAP9 POP SWAP9 POP SWAP9 POP POP POP POP POP POP POP PUSH2 0x27C7 JUMP JUMPDEST PUSH2 0x272B DUP3 DUP3 PUSH2 0x66BF JUMP JUMPDEST SWAP3 POP DUP3 PUSH2 0x2747 JUMPI PUSH1 0x0 DUP5 DUP8 SWAP9 POP SWAP9 POP SWAP9 POP POP POP POP POP POP POP PUSH2 0x27C7 JUMP JUMPDEST PUSH2 0x2754 DUP5 DUP13 DUP13 DUP6 DUP11 PUSH2 0x6792 JUMP JUMPDEST DUP1 SWAP6 POP DUP2 SWAP5 POP POP POP DUP3 PUSH2 0x2776 JUMPI PUSH1 0x0 DUP5 DUP8 SWAP9 POP SWAP9 POP SWAP9 POP POP POP POP POP POP POP PUSH2 0x27C7 JUMP JUMPDEST DUP2 SWAP5 POP POP POP POP PUSH2 0x2669 JUMP JUMPDEST DUP7 DUP10 PUSH2 0x278D SWAP2 SWAP1 PUSH2 0xA13F JUMP JUMPDEST PUSH8 0xFFFFFFFFFFFFFFFF AND DUP2 PUSH8 0xFFFFFFFFFFFFFFFF AND EQ PUSH2 0x27B9 JUMPI PUSH1 0x0 DUP2 DUP5 SWAP6 POP SWAP6 POP SWAP6 POP POP POP POP PUSH2 0x27C7 JUMP JUMPDEST PUSH1 0x1 DUP2 DUP5 SWAP6 POP SWAP6 POP SWAP6 POP POP POP POP JUMPDEST SWAP4 POP SWAP4 POP SWAP4 SWAP1 POP JUMP JUMPDEST PUSH1 0x0 PUSH1 0x2 PUSH1 0x0 SWAP1 SLOAD SWAP1 PUSH2 0x100 EXP SWAP1 DIV PUSH20 0xFFFFFFFFFFFFFFFFFFFFFFFFFFFFFFFFFFFFFFFF AND SWAP1 POP PUSH1 0x0 PUSH2 0x2806 DUP4 PUSH1 0x40 ADD MLOAD PUSH2 0x4C3F JUMP JUMPDEST SWAP1 POP PUSH1 0x0 PUSH1 0x60 PUSH1 0x1 ISZERO ISZERO DUP5 PUSH20 0xFFFFFFFFFFFFFFFFFFFFFFFFFFFFFFFFFFFFFFFF AND PUSH4 0x86174396 PUSH1 0x40 MLOAD DUP2 PUSH4 0xFFFFFFFF AND PUSH1 0xE0 SHL DUP2 MSTORE PUSH1 0x4 ADD PUSH1 0x20 PUSH1 0x40 MLOAD DUP1 DUP4 SUB DUP2 DUP7 DUP1 EXTCODESIZE ISZERO DUP1 ISZERO PUSH2 0x2856 JUMPI PUSH1 0x0 DUP1 REVERT JUMPDEST POP GAS STATICCALL ISZERO DUP1 ISZERO PUSH2 0x286A JUMPI RETURNDATASIZE PUSH1 0x0 DUP1 RETURNDATACOPY RETURNDATASIZE PUSH1 0x0 REVERT JUMPDEST POP POP POP POP PUSH1 0x40 MLOAD RETURNDATASIZE PUSH1 0x1F NOT PUSH1 0x1F DUP3 ADD AND DUP3 ADD DUP1 PUSH1 0x40 MSTORE POP DUP2 ADD SWAP1 PUSH2 0x288E SWAP2 SWAP1 PUSH2 0x9854 JUMP JUMPDEST ISZERO ISZERO EQ PUSH2 0x28D0 JUMPI PUSH1 0x40 MLOAD PUSH32 0x8C379A000000000000000000000000000000000000000000000000000000000 DUP2 MSTORE PUSH1 0x4 ADD PUSH2 0x28C7 SWAP1 PUSH2 0x9FE2 JUMP JUMPDEST PUSH1 0x40 MLOAD DUP1 SWAP2 SUB SWAP1 REVERT JUMPDEST PUSH2 0x2960 DUP5 PUSH20 0xFFFFFFFFFFFFFFFFFFFFFFFFFFFFFFFFFFFFFFFF AND PUSH4 0xD21220A7 PUSH1 0x40 MLOAD DUP2 PUSH4 0xFFFFFFFF AND PUSH1 0xE0 SHL DUP2 MSTORE PUSH1 0x4 ADD PUSH1 0x0 PUSH1 0x40 MLOAD DUP1 DUP4 SUB DUP2 DUP7 DUP1 EXTCODESIZE ISZERO DUP1 ISZERO PUSH2 0x2919 JUMPI PUSH1 0x0 DUP1 REVERT JUMPDEST POP GAS STATICCALL ISZERO DUP1 ISZERO PUSH2 0x292D JUMPI RETURNDATASIZE PUSH1 0x0 DUP1 RETURNDATACOPY RETURNDATASIZE PUSH1 0x0 REVERT JUMPDEST POP POP POP POP PUSH1 0x40 MLOAD RETURNDATASIZE PUSH1 0x0 DUP3 RETURNDATACOPY RETURNDATASIZE PUSH1 0x1F NOT PUSH1 0x1F DUP3 ADD AND DUP3 ADD DUP1 PUSH1 0x40 MSTORE POP DUP2 ADD SWAP1 PUSH2 0x2956 SWAP2 SWAP1 PUSH2 0x9881 JUMP JUMPDEST DUP7 PUSH1 0x20 ADD MLOAD PUSH2 0x4280 JUMP JUMPDEST ISZERO PUSH2 0x2B53 JUMPI DUP5 PUSH1 0x0 ADD MLOAD PUSH8 0xFFFFFFFFFFFFFFFF AND DUP5 PUSH20 0xFFFFFFFFFFFFFFFFFFFFFFFFFFFFFFFFFFFFFFFF AND PUSH4 0xAF62DB3F DUP6 PUSH1 0x40 MLOAD DUP3 PUSH4 0xFFFFFFFF AND PUSH1 0xE0 SHL DUP2 MSTORE PUSH1 0x4 ADD PUSH2 0x29AD SWAP2 SWAP1 PUSH2 0x9D6A JUMP JUMPDEST PUSH1 0x20 PUSH1 0x40 MLOAD DUP1 DUP4 SUB DUP2 DUP7 DUP1 EXTCODESIZE ISZERO DUP1 ISZERO PUSH2 0x29C5 JUMPI PUSH1 0x0 DUP1 REVERT JUMPDEST POP GAS STATICCALL ISZERO DUP1 ISZERO PUSH2 0x29D9 JUMPI RETURNDATASIZE PUSH1 0x0 DUP1 RETURNDATACOPY RETURNDATASIZE PUSH1 0x0 REVERT JUMPDEST POP POP POP POP PUSH1 0x40 MLOAD RETURNDATASIZE PUSH1 0x1F NOT PUSH1 0x1F DUP3 ADD AND DUP3 ADD DUP1 PUSH1 0x40 MSTORE POP DUP2 ADD SWAP1 PUSH2 0x29FD SWAP2 SWAP1 PUSH2 0x9940 JUMP JUMPDEST LT ISZERO PUSH2 0x2A3E JUMPI PUSH1 0x40 MLOAD PUSH32 0x8C379A000000000000000000000000000000000000000000000000000000000 DUP2 MSTORE PUSH1 0x4 ADD PUSH2 0x2A35 SWAP1 PUSH2 0x9FA2 JUMP JUMPDEST PUSH1 0x40 MLOAD DUP1 SWAP2 SUB SWAP1 REVERT JUMPDEST DUP4 PUSH20 0xFFFFFFFFFFFFFFFFFFFFFFFFFFFFFFFFFFFFFFFF AND PUSH4 0x450177C6 DUP7 PUSH1 0x0 ADD MLOAD PUSH1 0x40 MLOAD DUP3 PUSH4 0xFFFFFFFF AND PUSH1 0xE0 SHL DUP2 MSTORE PUSH1 0x4 ADD PUSH2 0x2A7B SWAP2 SWAP1 PUSH2 0xA05F JUMP JUMPDEST PUSH1 0x20 PUSH1 0x40 MLOAD DUP1 DUP4 SUB DUP2 DUP7 DUP1 EXTCODESIZE ISZERO DUP1 ISZERO PUSH2 0x2A93 JUMPI PUSH1 0x0 DUP1 REVERT JUMPDEST POP GAS STATICCALL ISZERO DUP1 ISZERO PUSH2 0x2AA7 JUMPI RETURNDATASIZE PUSH1 0x0 DUP1 RETURNDATACOPY RETURNDATASIZE PUSH1 0x0 REVERT JUMPDEST POP POP POP POP PUSH1 0x40 MLOAD RETURNDATASIZE PUSH1 0x1F NOT PUSH1 0x1F DUP3 ADD AND DUP3 ADD DUP1 PUSH1 0x40 MSTORE POP DUP2 ADD SWAP1 PUSH2 0x2ACB SWAP2 SWAP1 PUSH2 0x9940 JUMP JUMPDEST SWAP2 POP DUP4 PUSH20 0xFFFFFFFFFFFFFFFFFFFFFFFFFFFFFFFFFFFFFFFF AND PUSH4 0x25BE124E PUSH1 0x40 MLOAD DUP2 PUSH4 0xFFFFFFFF AND PUSH1 0xE0 SHL DUP2 MSTORE PUSH1 0x4 ADD PUSH1 0x0 PUSH1 0x40 MLOAD DUP1 DUP4 SUB DUP2 DUP7 DUP1 EXTCODESIZE ISZERO DUP1 ISZERO PUSH2 0x2B13 JUMPI PUSH1 0x0 DUP1 REVERT JUMPDEST POP GAS STATICCALL ISZERO DUP1 ISZERO PUSH2 0x2B27 JUMPI RETURNDATASIZE PUSH1 0x0 DUP1 RETURNDATACOPY RETURNDATASIZE PUSH1 0x0 REVERT JUMPDEST POP POP POP POP PUSH1 0x40 MLOAD RETURNDATASIZE PUSH1 0x0 DUP3 RETURNDATACOPY RETURNDATASIZE PUSH1 0x1F NOT PUSH1 0x1F DUP3 ADD AND DUP3 ADD DUP1 PUSH1 0x40 MSTORE POP DUP2 ADD SWAP1 PUSH2 0x2B50 SWAP2 SWAP1 PUSH2 0x9881 JUMP JUMPDEST SWAP1 POP JUMPDEST PUSH2 0x2BE3 DUP5 PUSH20 0xFFFFFFFFFFFFFFFFFFFFFFFFFFFFFFFFFFFFFFFF AND PUSH4 0x25BE124E PUSH1 0x40 MLOAD DUP2 PUSH4 0xFFFFFFFF AND PUSH1 0xE0 SHL DUP2 MSTORE PUSH1 0x4 ADD PUSH1 0x0 PUSH1 0x40 MLOAD DUP1 DUP4 SUB DUP2 DUP7 DUP1 EXTCODESIZE ISZERO DUP1 ISZERO PUSH2 0x2B9C JUMPI PUSH1 0x0 DUP1 REVERT JUMPDEST POP GAS STATICCALL ISZERO DUP1 ISZERO PUSH2 0x2BB0 JUMPI RETURNDATASIZE PUSH1 0x0 DUP1 RETURNDATACOPY RETURNDATASIZE PUSH1 0x0 REVERT JUMPDEST POP POP POP POP PUSH1 0x40 MLOAD RETURNDATASIZE PUSH1 0x0 DUP3 RETURNDATACOPY RETURNDATASIZE PUSH1 0x1F NOT PUSH1 0x1F DUP3 ADD AND DUP3 ADD DUP1 PUSH1 0x40 MSTORE POP DUP2 ADD SWAP1 PUSH2 0x2BD9 SWAP2 SWAP1 PUSH2 0x9881 JUMP JUMPDEST DUP7 PUSH1 0x20 ADD MLOAD PUSH2 0x4280 JUMP JUMPDEST ISZERO PUSH2 0x2DD6 JUMPI DUP5 PUSH1 0x0 ADD MLOAD PUSH8 0xFFFFFFFFFFFFFFFF AND DUP5 PUSH20 0xFFFFFFFFFFFFFFFFFFFFFFFFFFFFFFFFFFFFFFFF AND PUSH4 0xC1FC829 DUP6 PUSH1 0x40 MLOAD DUP3 PUSH4 0xFFFFFFFF AND PUSH1 0xE0 SHL DUP2 MSTORE PUSH1 0x4 ADD PUSH2 0x2C30 SWAP2 SWAP1 PUSH2 0x9D6A JUMP JUMPDEST PUSH1 0x20 PUSH1 0x40 MLOAD DUP1 DUP4 SUB DUP2 DUP7 DUP1 EXTCODESIZE ISZERO DUP1 ISZERO PUSH2 0x2C48 JUMPI PUSH1 0x0 DUP1 REVERT JUMPDEST POP GAS STATICCALL ISZERO DUP1 ISZERO PUSH2 0x2C5C JUMPI RETURNDATASIZE PUSH1 0x0 DUP1 RETURNDATACOPY RETURNDATASIZE PUSH1 0x0 REVERT JUMPDEST POP POP POP POP PUSH1 0x40 MLOAD RETURNDATASIZE PUSH1 0x1F NOT PUSH1 0x1F DUP3 ADD AND DUP3 ADD DUP1 PUSH1 0x40 MSTORE POP DUP2 ADD SWAP1 PUSH2 0x2C80 SWAP2 SWAP1 PUSH2 0x9940 JUMP JUMPDEST LT ISZERO PUSH2 0x2CC1 JUMPI PUSH1 0x40 MLOAD PUSH32 0x8C379A000000000000000000000000000000000000000000000000000000000 DUP2 MSTORE PUSH1 0x4 ADD PUSH2 0x2CB8 SWAP1 PUSH2 0x9FC2 JUMP JUMPDEST PUSH1 0x40 MLOAD DUP1 SWAP2 SUB SWAP1 REVERT JUMPDEST DUP4 PUSH20 0xFFFFFFFFFFFFFFFFFFFFFFFFFFFFFFFFFFFFFFFF AND PUSH4 0xD3817B4A DUP7 PUSH1 0x0 ADD MLOAD PUSH1 0x40 MLOAD DUP3 PUSH4 0xFFFFFFFF AND PUSH1 0xE0 SHL DUP2 MSTORE PUSH1 0x4 ADD PUSH2 0x2CFE SWAP2 SWAP1 PUSH2 0xA05F JUMP JUMPDEST PUSH1 0x20 PUSH1 0x40 MLOAD DUP1 DUP4 SUB DUP2 DUP7 DUP1 EXTCODESIZE ISZERO DUP1 ISZERO PUSH2 0x2D16 JUMPI PUSH1 0x0 DUP1 REVERT JUMPDEST POP GAS STATICCALL ISZERO DUP1 ISZERO PUSH2 0x2D2A JUMPI RETURNDATASIZE PUSH1 0x0 DUP1 RETURNDATACOPY RETURNDATASIZE PUSH1 0x0 REVERT JUMPDEST POP POP POP POP PUSH1 0x40 MLOAD RETURNDATASIZE PUSH1 0x1F NOT PUSH1 0x1F DUP3 ADD AND DUP3 ADD DUP1 PUSH1 0x40 MSTORE POP DUP2 ADD SWAP1 PUSH2 0x2D4E SWAP2 SWAP1 PUSH2 0x9940 JUMP JUMPDEST SWAP2 POP DUP4 PUSH20 0xFFFFFFFFFFFFFFFFFFFFFFFFFFFFFFFFFFFFFFFF AND PUSH4 0xD21220A7 PUSH1 0x40 MLOAD DUP2 PUSH4 0xFFFFFFFF AND PUSH1 0xE0 SHL DUP2 MSTORE PUSH1 0x4 ADD PUSH1 0x0 PUSH1 0x40 MLOAD DUP1 DUP4 SUB DUP2 DUP7 DUP1 EXTCODESIZE ISZERO DUP1 ISZERO PUSH2 0x2D96 JUMPI PUSH1 0x0 DUP1 REVERT JUMPDEST POP GAS STATICCALL ISZERO DUP1 ISZERO PUSH2 0x2DAA JUMPI RETURNDATASIZE PUSH1 0x0 DUP1 RETURNDATACOPY RETURNDATASIZE PUSH1 0x0 REVERT JUMPDEST POP POP POP POP PUSH1 0x40 MLOAD RETURNDATASIZE PUSH1 0x0 DUP3 RETURNDATACOPY RETURNDATASIZE PUSH1 0x1F NOT PUSH1 0x1F DUP3 ADD AND DUP3 ADD DUP1 PUSH1 0x40 MSTORE POP DUP2 ADD SWAP1 PUSH2 0x2DD3 SWAP2 SWAP1 PUSH2 0x9881 JUMP JUMPDEST SWAP1 POP JUMPDEST PUSH2 0x2DDE PUSH2 0x9104 JUMP JUMPDEST DUP6 PUSH1 0x40 ADD MLOAD DUP2 PUSH1 0x80 ADD DUP2 SWAP1 MSTORE POP DUP6 PUSH1 0x0 ADD MLOAD DUP2 PUSH1 0x0 ADD SWAP1 PUSH8 0xFFFFFFFFFFFFFFFF AND SWAP1 DUP2 PUSH8 0xFFFFFFFFFFFFFFFF AND DUP2 MSTORE POP POP DUP6 PUSH1 0x20 ADD MLOAD DUP2 PUSH1 0x20 ADD DUP2 SWAP1 MSTORE POP DUP3 DUP2 PUSH1 0x40 ADD SWAP1 PUSH8 0xFFFFFFFFFFFFFFFF AND SWAP1 DUP2 PUSH8 0xFFFFFFFFFFFFFFFF AND DUP2 MSTORE POP POP DUP2 DUP2 PUSH1 0x60 ADD DUP2 SWAP1 MSTORE POP PUSH2 0x2E4D PUSH2 0x8E72 JUMP JUMPDEST PUSH1 0x4 PUSH1 0x1 SWAP1 SLOAD SWAP1 PUSH2 0x100 EXP SWAP1 DIV PUSH8 0xFFFFFFFFFFFFFFFF AND DUP2 PUSH1 0x0 ADD SWAP1 PUSH8 0xFFFFFFFFFFFFFFFF AND SWAP1 DUP2 PUSH8 0xFFFFFFFFFFFFFFFF AND DUP2 MSTORE POP POP PUSH1 0x6 DUP2 PUSH1 0x20 ADD SWAP1 PUSH1 0x8 DUP2 GT ISZERO PUSH2 0x2E9C JUMPI PUSH2 0x2E9B PUSH2 0xA3F8 JUMP JUMPDEST JUMPDEST SWAP1 DUP2 PUSH1 0x8 DUP2 GT ISZERO PUSH2 0x2EB0 JUMPI PUSH2 0x2EAF PUSH2 0xA3F8 JUMP JUMPDEST JUMPDEST DUP2 MSTORE POP POP PUSH2 0x2EBD DUP3 PUSH2 0x6888 JUMP JUMPDEST DUP2 PUSH1 0x40 ADD DUP2 SWAP1 MSTORE POP PUSH2 0x2ECE DUP2 PUSH2 0x3F30 JUMP JUMPDEST POP POP POP POP POP POP POP JUMP JUMPDEST PUSH1 0x0 DUP1 PUSH1 0x0 DUP1 PUSH1 0x0 DUP1 PUSH1 0x0 PUSH2 0x2EEC DUP10 DUP10 PUSH2 0x74B6 JUMP JUMPDEST SWAP3 POP SWAP3 POP SWAP3 POP DUP3 PUSH2 0x2F0E JUMPI PUSH1 0x0 DUP3 PUSH1 0x0 PUSH1 0x6 SWAP7 POP SWAP7 POP SWAP7 POP SWAP7 POP POP POP POP PUSH2 0x301A JUMP JUMPDEST PUSH1 0x0 PUSH1 0x3 DUP3 PUSH8 0xFFFFFFFFFFFFFFFF AND SWAP1 SHR SWAP1 POP PUSH1 0x0 PUSH1 0x7 DUP4 AND SWAP1 POP PUSH1 0x6 DUP1 DUP2 GT ISZERO PUSH2 0x2F3C JUMPI PUSH2 0x2F3B PUSH2 0xA3F8 JUMP JUMPDEST JUMPDEST PUSH8 0xFFFFFFFFFFFFFFFF AND DUP2 PUSH8 0xFFFFFFFFFFFFFFFF AND LT PUSH2 0x2F6F JUMPI PUSH1 0x0 DUP5 PUSH1 0x0 PUSH1 0x6 SWAP9 POP SWAP9 POP SWAP9 POP SWAP9 POP POP POP POP POP POP PUSH2 0x301A JUMP JUMPDEST PUSH1 0x0 DUP2 PUSH8 0xFFFFFFFFFFFFFFFF AND PUSH1 0x6 DUP2 GT ISZERO PUSH2 0x2F8E JUMPI PUSH2 0x2F8D PUSH2 0xA3F8 JUMP JUMPDEST JUMPDEST SWAP1 POP PUSH1 0x3 PUSH1 0x6 DUP2 GT ISZERO PUSH2 0x2FA4 JUMPI PUSH2 0x2FA3 PUSH2 0xA3F8 JUMP JUMPDEST JUMPDEST DUP2 PUSH1 0x6 DUP2 GT ISZERO PUSH2 0x2FB7 JUMPI PUSH2 0x2FB6 PUSH2 0xA3F8 JUMP JUMPDEST JUMPDEST EQ DUP1 PUSH2 0x2FE7 JUMPI POP PUSH1 0x4 PUSH1 0x6 DUP2 GT ISZERO PUSH2 0x2FD2 JUMPI PUSH2 0x2FD1 PUSH2 0xA3F8 JUMP JUMPDEST JUMPDEST DUP2 PUSH1 0x6 DUP2 GT ISZERO PUSH2 0x2FE5 JUMPI PUSH2 0x2FE4 PUSH2 0xA3F8 JUMP JUMPDEST JUMPDEST EQ JUMPDEST ISZERO PUSH2 0x3006 JUMPI PUSH1 0x0 DUP6 PUSH1 0x0 PUSH1 0x6 SWAP10 POP SWAP10 POP SWAP10 POP SWAP10 POP POP POP POP POP POP POP PUSH2 0x301A JUMP JUMPDEST PUSH1 0x1 DUP6 DUP5 DUP4 SWAP10 POP SWAP10 POP SWAP10 POP SWAP10 POP POP POP POP POP POP POP JUMPDEST SWAP3 SWAP6 SWAP2 SWAP5 POP SWAP3 POP JUMP JUMPDEST PUSH1 0x0 PUSH1 0x1 DUP4 PUSH8 0xFFFFFFFFFFFFFFFF AND EQ ISZERO PUSH2 0x3067 JUMPI PUSH1 0x2 PUSH1 0x6 DUP2 GT ISZERO PUSH2 0x304C JUMPI PUSH2 0x304B PUSH2 0xA3F8 JUMP JUMPDEST JUMPDEST DUP3 PUSH1 0x6 DUP2 GT ISZERO PUSH2 0x305F JUMPI PUSH2 0x305E PUSH2 0xA3F8 JUMP JUMPDEST JUMPDEST EQ SWAP1 POP PUSH2 0x3174 JUMP JUMPDEST PUSH1 0x2 DUP4 PUSH8 0xFFFFFFFFFFFFFFFF AND EQ ISZERO PUSH2 0x30A9 JUMPI PUSH1 0x2 PUSH1 0x6 DUP2 GT ISZERO PUSH2 0x308E JUMPI PUSH2 0x308D PUSH2 0xA3F8 JUMP JUMPDEST JUMPDEST DUP3 PUSH1 0x6 DUP2 GT ISZERO PUSH2 0x30A1 JUMPI PUSH2 0x30A0 PUSH2 0xA3F8 JUMP JUMPDEST JUMPDEST EQ SWAP1 POP PUSH2 0x3174 JUMP JUMPDEST PUSH1 0x3 DUP4 PUSH8 0xFFFFFFFFFFFFFFFF AND EQ ISZERO PUSH2 0x30EB JUMPI PUSH1 0x0 PUSH1 0x6 DUP2 GT ISZERO PUSH2 0x30D0 JUMPI PUSH2 0x30CF PUSH2 0xA3F8 JUMP JUMPDEST JUMPDEST DUP3 PUSH1 0x6 DUP2 GT ISZERO PUSH2 0x30E3 JUMPI PUSH2 0x30E2 PUSH2 0xA3F8 JUMP JUMPDEST JUMPDEST EQ SWAP1 POP PUSH2 0x3174 JUMP JUMPDEST PUSH1 0x4 DUP4 PUSH8 0xFFFFFFFFFFFFFFFF AND EQ ISZERO PUSH2 0x312D JUMPI PUSH1 0x0 PUSH1 0x6 DUP2 GT ISZERO PUSH2 0x3112 JUMPI PUSH2 0x3111 PUSH2 0xA3F8 JUMP JUMPDEST JUMPDEST DUP3 PUSH1 0x6 DUP2 GT ISZERO PUSH2 0x3125 JUMPI PUSH2 0x3124 PUSH2 0xA3F8 JUMP JUMPDEST JUMPDEST EQ SWAP1 POP PUSH2 0x3174 JUMP JUMPDEST PUSH1 0x5 DUP4 PUSH8 0xFFFFFFFFFFFFFFFF AND EQ ISZERO PUSH2 0x316F JUMPI PUSH1 0x2 PUSH1 0x6 DUP2 GT ISZERO PUSH2 0x3154 JUMPI PUSH2 0x3153 PUSH2 0xA3F8 JUMP JUMPDEST JUMPDEST DUP3 PUSH1 0x6 DUP2 GT ISZERO PUSH2 0x3167 JUMPI PUSH2 0x3166 PUSH2 0xA3F8 JUMP JUMPDEST JUMPDEST EQ SWAP1 POP PUSH2 0x3174 JUMP JUMPDEST PUSH1 0x0 SWAP1 POP JUMPDEST SWAP3 SWAP2 POP POP JUMP JUMPDEST PUSH1 0x0 DUP1 PUSH1 0x0 DUP8 SWAP1 POP PUSH1 0x1 DUP6 PUSH8 0xFFFFFFFFFFFFFFFF AND EQ ISZERO PUSH2 0x31CB JUMPI PUSH1 0x0 PUSH2 0x31A2 DUP3 DUP10 DUP8 PUSH2 0x76AE JUMP JUMPDEST DUP1 SWAP4 POP DUP2 SWAP3 POP POP POP DUP1 PUSH2 0x31BD JUMPI PUSH1 0x0 DUP3 SWAP4 POP SWAP4 POP POP POP PUSH2 0x32F8 JUMP JUMPDEST PUSH1 0x1 DUP3 SWAP4 POP SWAP4 POP POP POP PUSH2 0x32F8 JUMP JUMPDEST PUSH1 0x2 DUP6 PUSH8 0xFFFFFFFFFFFFFFFF AND EQ ISZERO PUSH2 0x3214 JUMPI PUSH1 0x0 PUSH2 0x31EB DUP3 DUP10 DUP8 PUSH2 0x7833 JUMP JUMPDEST DUP1 SWAP4 POP DUP2 SWAP3 POP POP POP DUP1 PUSH2 0x3206 JUMPI PUSH1 0x0 DUP3 SWAP4 POP SWAP4 POP POP POP PUSH2 0x32F8 JUMP JUMPDEST PUSH1 0x1 DUP3 SWAP4 POP SWAP4 POP POP POP PUSH2 0x32F8 JUMP JUMPDEST PUSH1 0x3 DUP6 PUSH8 0xFFFFFFFFFFFFFFFF AND EQ ISZERO PUSH2 0x325D JUMPI PUSH1 0x0 PUSH2 0x3234 DUP3 DUP10 DUP8 PUSH2 0x79B8 JUMP JUMPDEST DUP1 SWAP4 POP DUP2 SWAP3 POP POP POP DUP1 PUSH2 0x324F JUMPI PUSH1 0x0 DUP3 SWAP4 POP SWAP4 POP POP POP PUSH2 0x32F8 JUMP JUMPDEST PUSH1 0x1 DUP3 SWAP4 POP SWAP4 POP POP POP PUSH2 0x32F8 JUMP JUMPDEST PUSH1 0x4 DUP6 PUSH8 0xFFFFFFFFFFFFFFFF AND EQ ISZERO PUSH2 0x32A6 JUMPI PUSH1 0x0 PUSH2 0x327D DUP3 DUP10 DUP8 PUSH2 0x7A3A JUMP JUMPDEST DUP1 SWAP4 POP DUP2 SWAP3 POP POP POP DUP1 PUSH2 0x3298 JUMPI PUSH1 0x0 DUP3 SWAP4 POP SWAP4 POP POP POP PUSH2 0x32F8 JUMP JUMPDEST PUSH1 0x1 DUP3 SWAP4 POP SWAP4 POP POP POP PUSH2 0x32F8 JUMP JUMPDEST PUSH1 0x5 DUP6 PUSH8 0xFFFFFFFFFFFFFFFF AND EQ ISZERO PUSH2 0x32EF JUMPI PUSH1 0x0 PUSH2 0x32C6 DUP3 DUP10 DUP8 PUSH2 0x7ABC JUMP JUMPDEST DUP1 SWAP4 POP DUP2 SWAP3 POP POP POP DUP1 PUSH2 0x32E1 JUMPI PUSH1 0x0 DUP3 SWAP4 POP SWAP4 POP POP POP PUSH2 0x32F8 JUMP JUMPDEST PUSH1 0x1 DUP3 SWAP4 POP SWAP4 POP POP POP PUSH2 0x32F8 JUMP JUMPDEST PUSH1 0x0 DUP2 SWAP3 POP SWAP3 POP POP JUMPDEST SWAP6 POP SWAP6 SWAP4 POP POP POP POP JUMP JUMPDEST PUSH1 0x60 PUSH2 0x330C PUSH2 0x9147 JUMP JUMPDEST PUSH1 0x0 DUP1 PUSH1 0x0 DUP6 PUSH1 0x0 ADD MLOAD MLOAD GT ISZERO PUSH2 0x3367 JUMPI PUSH2 0x333B PUSH1 0x1 PUSH1 0x2 PUSH1 0x6 DUP2 GT ISZERO PUSH2 0x3336 JUMPI PUSH2 0x3335 PUSH2 0xA3F8 JUMP JUMPDEST JUMPDEST PUSH2 0x7C41 JUMP JUMPDEST DUP4 PUSH1 0x0 ADD DUP2 SWAP1 MSTORE POP PUSH2 0x3351 DUP6 PUSH1 0x0 ADD MLOAD MLOAD PUSH2 0x7C70 JUMP JUMPDEST DUP4 PUSH1 0x20 ADD DUP2 SWAP1 MSTORE POP DUP5 PUSH1 0x0 ADD MLOAD DUP4 PUSH1 0x40 ADD DUP2 SWAP1 MSTORE POP JUMPDEST PUSH1 0x0 DUP6 PUSH1 0x20 ADD MLOAD MLOAD GT ISZERO PUSH2 0x33BE JUMPI PUSH2 0x3392 PUSH1 0x2 DUP1 PUSH1 0x6 DUP2 GT ISZERO PUSH2 0x338D JUMPI PUSH2 0x338C PUSH2 0xA3F8 JUMP JUMPDEST JUMPDEST PUSH2 0x7C41 JUMP JUMPDEST DUP4 PUSH1 0x60 ADD DUP2 SWAP1 MSTORE POP PUSH2 0x33A8 DUP6 PUSH1 0x20 ADD MLOAD MLOAD PUSH2 0x7C70 JUMP JUMPDEST DUP4 PUSH1 0x80 ADD DUP2 SWAP1 MSTORE POP DUP5 PUSH1 0x20 ADD MLOAD DUP4 PUSH1 0xA0 ADD DUP2 SWAP1 MSTORE POP JUMPDEST PUSH1 0x0 DUP6 PUSH1 0x40 ADD MLOAD PUSH8 0xFFFFFFFFFFFFFFFF AND EQ PUSH2 0x3410 JUMPI PUSH2 0x33F2 PUSH1 0x3 PUSH1 0x0 PUSH1 0x6 DUP2 GT ISZERO PUSH2 0x33ED JUMPI PUSH2 0x33EC PUSH2 0xA3F8 JUMP JUMPDEST JUMPDEST PUSH2 0x7C41 JUMP JUMPDEST DUP4 PUSH1 0xC0 ADD DUP2 SWAP1 MSTORE POP PUSH2 0x3407 DUP6 PUSH1 0x40 ADD MLOAD PUSH2 0x7C70 JUMP JUMPDEST DUP4 PUSH1 0xE0 ADD DUP2 SWAP1 MSTORE POP JUMPDEST PUSH1 0x0 DUP6 PUSH1 0x60 ADD MLOAD PUSH8 0xFFFFFFFFFFFFFFFF AND EQ PUSH2 0x3464 JUMPI PUSH2 0x3444 PUSH1 0x4 PUSH1 0x0 PUSH1 0x6 DUP2 GT ISZERO PUSH2 0x343F JUMPI PUSH2 0x343E PUSH2 0xA3F8 JUMP JUMPDEST JUMPDEST PUSH2 0x7C41 JUMP JUMPDEST DUP4 PUSH2 0x100 ADD DUP2 SWAP1 MSTORE POP PUSH2 0x345A DUP6 PUSH1 0x60 ADD MLOAD PUSH2 0x7C70 JUMP JUMPDEST DUP4 PUSH2 0x120 ADD DUP2 SWAP1 MSTORE POP JUMPDEST PUSH1 0x0 DUP6 PUSH1 0x80 ADD MLOAD MLOAD GT ISZERO PUSH2 0x34BF JUMPI PUSH2 0x3490 PUSH1 0x5 PUSH1 0x2 PUSH1 0x6 DUP2 GT ISZERO PUSH2 0x348B JUMPI PUSH2 0x348A PUSH2 0xA3F8 JUMP JUMPDEST JUMPDEST PUSH2 0x7C41 JUMP JUMPDEST DUP4 PUSH2 0x140 ADD DUP2 SWAP1 MSTORE POP PUSH2 0x34A7 DUP6 PUSH1 0x80 ADD MLOAD MLOAD PUSH2 0x7C70 JUMP JUMPDEST DUP4 PUSH2 0x160 ADD DUP2 SWAP1 MSTORE POP DUP5 PUSH1 0x80 ADD MLOAD DUP4 PUSH2 0x180 ADD DUP2 SWAP1 MSTORE POP JUMPDEST PUSH1 0x60 PUSH1 0x0 SWAP2 POP PUSH1 0x0 SWAP3 POP DUP4 PUSH1 0x0 ADD MLOAD MLOAD DUP4 PUSH2 0x34DA SWAP2 SWAP1 PUSH2 0xA13F JUMP JUMPDEST SWAP3 POP DUP4 PUSH1 0x20 ADD MLOAD MLOAD DUP4 PUSH2 0x34ED SWAP2 SWAP1 PUSH2 0xA13F JUMP JUMPDEST SWAP3 POP DUP4 PUSH1 0x40 ADD MLOAD MLOAD DUP4 PUSH2 0x3500 SWAP2 SWAP1 PUSH2 0xA13F JUMP JUMPDEST SWAP3 POP DUP4 PUSH1 0x60 ADD MLOAD MLOAD DUP4 PUSH2 0x3513 SWAP2 SWAP1 PUSH2 0xA13F JUMP JUMPDEST SWAP3 POP DUP4 PUSH1 0x80 ADD MLOAD MLOAD DUP4 PUSH2 0x3526 SWAP2 SWAP1 PUSH2 0xA13F JUMP JUMPDEST SWAP3 POP DUP4 PUSH1 0xA0 ADD MLOAD MLOAD DUP4 PUSH2 0x3539 SWAP2 SWAP1 PUSH2 0xA13F JUMP JUMPDEST SWAP3 POP DUP4 PUSH1 0xC0 ADD MLOAD MLOAD DUP4 PUSH2 0x354C SWAP2 SWAP1 PUSH2 0xA13F JUMP JUMPDEST SWAP3 POP DUP4 PUSH1 0xE0 ADD MLOAD MLOAD DUP4 PUSH2 0x355F SWAP2 SWAP1 PUSH2 0xA13F JUMP JUMPDEST SWAP3 POP DUP4 PUSH2 0x100 ADD MLOAD MLOAD DUP4 PUSH2 0x3573 SWAP2 SWAP1 PUSH2 0xA13F JUMP JUMPDEST SWAP3 POP DUP4 PUSH2 0x120 ADD MLOAD MLOAD DUP4 PUSH2 0x3587 SWAP2 SWAP1 PUSH2 0xA13F JUMP JUMPDEST SWAP3 POP DUP4 PUSH2 0x140 ADD MLOAD MLOAD DUP4 PUSH2 0x359B SWAP2 SWAP1 PUSH2 0xA13F JUMP JUMPDEST SWAP3 POP DUP4 PUSH2 0x160 ADD MLOAD MLOAD DUP4 PUSH2 0x35AF SWAP2 SWAP1 PUSH2 0xA13F JUMP JUMPDEST SWAP3 POP DUP4 PUSH2 0x180 ADD MLOAD MLOAD DUP4 PUSH2 0x35C3 SWAP2 SWAP1 PUSH2 0xA13F JUMP JUMPDEST SWAP3 POP DUP3 PUSH8 0xFFFFFFFFFFFFFFFF AND PUSH8 0xFFFFFFFFFFFFFFFF DUP2 GT ISZERO PUSH2 0x35E9 JUMPI PUSH2 0x35E8 PUSH2 0xA485 JUMP JUMPDEST JUMPDEST PUSH1 0x40 MLOAD SWAP1 DUP1 DUP3 MSTORE DUP1 PUSH1 0x1F ADD PUSH1 0x1F NOT AND PUSH1 0x20 ADD DUP3 ADD PUSH1 0x40 MSTORE DUP1 ISZERO PUSH2 0x361B JUMPI DUP2 PUSH1 0x20 ADD PUSH1 0x1 DUP3 MUL DUP1 CALLDATASIZE DUP4 CALLDATACOPY DUP1 DUP3 ADD SWAP2 POP POP SWAP1 POP JUMPDEST POP SWAP1 POP PUSH1 0x0 JUMPDEST DUP5 PUSH1 0x0 ADD MLOAD MLOAD DUP2 PUSH8 0xFFFFFFFFFFFFFFFF AND LT ISZERO PUSH2 0x36CD JUMPI DUP5 PUSH1 0x0 ADD MLOAD DUP2 DUP1 PUSH2 0x3648 SWAP1 PUSH2 0xA398 JUMP JUMPDEST SWAP3 POP PUSH8 0xFFFFFFFFFFFFFFFF AND DUP2 MLOAD DUP2 LT PUSH2 0x3665 JUMPI PUSH2 0x3664 PUSH2 0xA456 JUMP JUMPDEST JUMPDEST PUSH1 0x20 ADD ADD MLOAD PUSH1 0xF8 SHR PUSH1 0xF8 SHL DUP3 DUP5 DUP1 PUSH2 0x367C SWAP1 PUSH2 0xA398 JUMP JUMPDEST SWAP6 POP PUSH8 0xFFFFFFFFFFFFFFFF AND DUP2 MLOAD DUP2 LT PUSH2 0x3699 JUMPI PUSH2 0x3698 PUSH2 0xA456 JUMP JUMPDEST JUMPDEST PUSH1 0x20 ADD ADD SWAP1 PUSH31 0xFFFFFFFFFFFFFFFFFFFFFFFFFFFFFFFFFFFFFFFFFFFFFFFFFFFFFFFFFFFFFF NOT AND SWAP1 DUP2 PUSH1 0x0 BYTE SWAP1 MSTORE8 POP PUSH2 0x3621 JUMP JUMPDEST PUSH1 0x0 SWAP1 POP JUMPDEST DUP5 PUSH1 0x20 ADD MLOAD MLOAD DUP2 PUSH8 0xFFFFFFFFFFFFFFFF AND LT ISZERO PUSH2 0x377E JUMPI DUP5 PUSH1 0x20 ADD MLOAD DUP2 DUP1 PUSH2 0x36F9 SWAP1 PUSH2 0xA398 JUMP JUMPDEST SWAP3 POP PUSH8 0xFFFFFFFFFFFFFFFF AND DUP2 MLOAD DUP2 LT PUSH2 0x3716 JUMPI PUSH2 0x3715 PUSH2 0xA456 JUMP JUMPDEST JUMPDEST PUSH1 0x20 ADD ADD MLOAD PUSH1 0xF8 SHR PUSH1 0xF8 SHL DUP3 DUP5 DUP1 PUSH2 0x372D SWAP1 PUSH2 0xA398 JUMP JUMPDEST SWAP6 POP PUSH8 0xFFFFFFFFFFFFFFFF AND DUP2 MLOAD DUP2 LT PUSH2 0x374A JUMPI PUSH2 0x3749 PUSH2 0xA456 JUMP JUMPDEST JUMPDEST PUSH1 0x20 ADD ADD SWAP1 PUSH31 0xFFFFFFFFFFFFFFFFFFFFFFFFFFFFFFFFFFFFFFFFFFFFFFFFFFFFFFFFFFFFFF NOT AND SWAP1 DUP2 PUSH1 0x0 BYTE SWAP1 MSTORE8 POP PUSH2 0x36D2 JUMP JUMPDEST PUSH1 0x0 SWAP1 POP JUMPDEST DUP5 PUSH1 0x40 ADD MLOAD MLOAD DUP2 PUSH8 0xFFFFFFFFFFFFFFFF AND LT ISZERO PUSH2 0x382F JUMPI DUP5 PUSH1 0x40 ADD MLOAD DUP2 DUP1 PUSH2 0x37AA SWAP1 PUSH2 0xA398 JUMP JUMPDEST SWAP3 POP PUSH8 0xFFFFFFFFFFFFFFFF AND DUP2 MLOAD DUP2 LT PUSH2 0x37C7 JUMPI PUSH2 0x37C6 PUSH2 0xA456 JUMP JUMPDEST JUMPDEST PUSH1 0x20 ADD ADD MLOAD PUSH1 0xF8 SHR PUSH1 0xF8 SHL DUP3 DUP5 DUP1 PUSH2 0x37DE SWAP1 PUSH2 0xA398 JUMP JUMPDEST SWAP6 POP PUSH8 0xFFFFFFFFFFFFFFFF AND DUP2 MLOAD DUP2 LT PUSH2 0x37FB JUMPI PUSH2 0x37FA PUSH2 0xA456 JUMP JUMPDEST JUMPDEST PUSH1 0x20 ADD ADD SWAP1 PUSH31 0xFFFFFFFFFFFFFFFFFFFFFFFFFFFFFFFFFFFFFFFFFFFFFFFFFFFFFFFFFFFFFF NOT AND SWAP1 DUP2 PUSH1 0x0 BYTE SWAP1 MSTORE8 POP PUSH2 0x3783 JUMP JUMPDEST PUSH1 0x0 SWAP1 POP JUMPDEST DUP5 PUSH1 0x60 ADD MLOAD MLOAD DUP2 PUSH8 0xFFFFFFFFFFFFFFFF AND LT ISZERO PUSH2 0x38E0 JUMPI DUP5 PUSH1 0x60 ADD MLOAD DUP2 DUP1 PUSH2 0x385B SWAP1 PUSH2 0xA398 JUMP JUMPDEST SWAP3 POP PUSH8 0xFFFFFFFFFFFFFFFF AND DUP2 MLOAD DUP2 LT PUSH2 0x3878 JUMPI PUSH2 0x3877 PUSH2 0xA456 JUMP JUMPDEST JUMPDEST PUSH1 0x20 ADD ADD MLOAD PUSH1 0xF8 SHR PUSH1 0xF8 SHL DUP3 DUP5 DUP1 PUSH2 0x388F SWAP1 PUSH2 0xA398 JUMP JUMPDEST SWAP6 POP PUSH8 0xFFFFFFFFFFFFFFFF AND DUP2 MLOAD DUP2 LT PUSH2 0x38AC JUMPI PUSH2 0x38AB PUSH2 0xA456 JUMP JUMPDEST JUMPDEST PUSH1 0x20 ADD ADD SWAP1 PUSH31 0xFFFFFFFFFFFFFFFFFFFFFFFFFFFFFFFFFFFFFFFFFFFFFFFFFFFFFFFFFFFFFF NOT AND SWAP1 DUP2 PUSH1 0x0 BYTE SWAP1 MSTORE8 POP PUSH2 0x3834 JUMP JUMPDEST PUSH1 0x0 SWAP1 POP JUMPDEST DUP5 PUSH1 0x80 ADD MLOAD MLOAD DUP2 PUSH8 0xFFFFFFFFFFFFFFFF AND LT ISZERO PUSH2 0x3991 JUMPI DUP5 PUSH1 0x80 ADD MLOAD DUP2 DUP1 PUSH2 0x390C SWAP1 PUSH2 0xA398 JUMP JUMPDEST SWAP3 POP PUSH8 0xFFFFFFFFFFFFFFFF AND DUP2 MLOAD DUP2 LT PUSH2 0x3929 JUMPI PUSH2 0x3928 PUSH2 0xA456 JUMP JUMPDEST JUMPDEST PUSH1 0x20 ADD ADD MLOAD PUSH1 0xF8 SHR PUSH1 0xF8 SHL DUP3 DUP5 DUP1 PUSH2 0x3940 SWAP1 PUSH2 0xA398 JUMP JUMPDEST SWAP6 POP PUSH8 0xFFFFFFFFFFFFFFFF AND DUP2 MLOAD DUP2 LT PUSH2 0x395D JUMPI PUSH2 0x395C PUSH2 0xA456 JUMP JUMPDEST JUMPDEST PUSH1 0x20 ADD ADD SWAP1 PUSH31 0xFFFFFFFFFFFFFFFFFFFFFFFFFFFFFFFFFFFFFFFFFFFFFFFFFFFFFFFFFFFFFF NOT AND SWAP1 DUP2 PUSH1 0x0 BYTE SWAP1 MSTORE8 POP PUSH2 0x38E5 JUMP JUMPDEST PUSH1 0x0 SWAP1 POP JUMPDEST DUP5 PUSH1 0xA0 ADD MLOAD MLOAD DUP2 PUSH8 0xFFFFFFFFFFFFFFFF AND LT ISZERO PUSH2 0x3A42 JUMPI DUP5 PUSH1 0xA0 ADD MLOAD DUP2 DUP1 PUSH2 0x39BD SWAP1 PUSH2 0xA398 JUMP JUMPDEST SWAP3 POP PUSH8 0xFFFFFFFFFFFFFFFF AND DUP2 MLOAD DUP2 LT PUSH2 0x39DA JUMPI PUSH2 0x39D9 PUSH2 0xA456 JUMP JUMPDEST JUMPDEST PUSH1 0x20 ADD ADD MLOAD PUSH1 0xF8 SHR PUSH1 0xF8 SHL DUP3 DUP5 DUP1 PUSH2 0x39F1 SWAP1 PUSH2 0xA398 JUMP JUMPDEST SWAP6 POP PUSH8 0xFFFFFFFFFFFFFFFF AND DUP2 MLOAD DUP2 LT PUSH2 0x3A0E JUMPI PUSH2 0x3A0D PUSH2 0xA456 JUMP JUMPDEST JUMPDEST PUSH1 0x20 ADD ADD SWAP1 PUSH31 0xFFFFFFFFFFFFFFFFFFFFFFFFFFFFFFFFFFFFFFFFFFFFFFFFFFFFFFFFFFFFFF NOT AND SWAP1 DUP2 PUSH1 0x0 BYTE SWAP1 MSTORE8 POP PUSH2 0x3996 JUMP JUMPDEST PUSH1 0x0 SWAP1 POP JUMPDEST DUP5 PUSH1 0xC0 ADD MLOAD MLOAD DUP2 PUSH8 0xFFFFFFFFFFFFFFFF AND LT ISZERO PUSH2 0x3AF3 JUMPI DUP5 PUSH1 0xC0 ADD MLOAD DUP2 DUP1 PUSH2 0x3A6E SWAP1 PUSH2 0xA398 JUMP JUMPDEST SWAP3 POP PUSH8 0xFFFFFFFFFFFFFFFF AND DUP2 MLOAD DUP2 LT PUSH2 0x3A8B JUMPI PUSH2 0x3A8A PUSH2 0xA456 JUMP JUMPDEST JUMPDEST PUSH1 0x20 ADD ADD MLOAD PUSH1 0xF8 SHR PUSH1 0xF8 SHL DUP3 DUP5 DUP1 PUSH2 0x3AA2 SWAP1 PUSH2 0xA398 JUMP JUMPDEST SWAP6 POP PUSH8 0xFFFFFFFFFFFFFFFF AND DUP2 MLOAD DUP2 LT PUSH2 0x3ABF JUMPI PUSH2 0x3ABE PUSH2 0xA456 JUMP JUMPDEST JUMPDEST PUSH1 0x20 ADD ADD SWAP1 PUSH31 0xFFFFFFFFFFFFFFFFFFFFFFFFFFFFFFFFFFFFFFFFFFFFFFFFFFFFFFFFFFFFFF NOT AND SWAP1 DUP2 PUSH1 0x0 BYTE SWAP1 MSTORE8 POP PUSH2 0x3A47 JUMP JUMPDEST PUSH1 0x0 SWAP1 POP JUMPDEST DUP5 PUSH1 0xE0 ADD MLOAD MLOAD DUP2 PUSH8 0xFFFFFFFFFFFFFFFF AND LT ISZERO PUSH2 0x3BA4 JUMPI DUP5 PUSH1 0xE0 ADD MLOAD DUP2 DUP1 PUSH2 0x3B1F SWAP1 PUSH2 0xA398 JUMP JUMPDEST SWAP3 POP PUSH8 0xFFFFFFFFFFFFFFFF AND DUP2 MLOAD DUP2 LT PUSH2 0x3B3C JUMPI PUSH2 0x3B3B PUSH2 0xA456 JUMP JUMPDEST JUMPDEST PUSH1 0x20 ADD ADD MLOAD PUSH1 0xF8 SHR PUSH1 0xF8 SHL DUP3 DUP5 DUP1 PUSH2 0x3B53 SWAP1 PUSH2 0xA398 JUMP JUMPDEST SWAP6 POP PUSH8 0xFFFFFFFFFFFFFFFF AND DUP2 MLOAD DUP2 LT PUSH2 0x3B70 JUMPI PUSH2 0x3B6F PUSH2 0xA456 JUMP JUMPDEST JUMPDEST PUSH1 0x20 ADD ADD SWAP1 PUSH31 0xFFFFFFFFFFFFFFFFFFFFFFFFFFFFFFFFFFFFFFFFFFFFFFFFFFFFFFFFFFFFFF NOT AND SWAP1 DUP2 PUSH1 0x0 BYTE SWAP1 MSTORE8 POP PUSH2 0x3AF8 JUMP JUMPDEST PUSH1 0x0 SWAP1 POP JUMPDEST DUP5 PUSH2 0x100 ADD MLOAD MLOAD DUP2 PUSH8 0xFFFFFFFFFFFFFFFF AND LT ISZERO PUSH2 0x3C57 JUMPI DUP5 PUSH2 0x100 ADD MLOAD DUP2 DUP1 PUSH2 0x3BD2 SWAP1 PUSH2 0xA398 JUMP JUMPDEST SWAP3 POP PUSH8 0xFFFFFFFFFFFFFFFF AND DUP2 MLOAD DUP2 LT PUSH2 0x3BEF JUMPI PUSH2 0x3BEE PUSH2 0xA456 JUMP JUMPDEST JUMPDEST PUSH1 0x20 ADD ADD MLOAD PUSH1 0xF8 SHR PUSH1 0xF8 SHL DUP3 DUP5 DUP1 PUSH2 0x3C06 SWAP1 PUSH2 0xA398 JUMP JUMPDEST SWAP6 POP PUSH8 0xFFFFFFFFFFFFFFFF AND DUP2 MLOAD DUP2 LT PUSH2 0x3C23 JUMPI PUSH2 0x3C22 PUSH2 0xA456 JUMP JUMPDEST JUMPDEST PUSH1 0x20 ADD ADD SWAP1 PUSH31 0xFFFFFFFFFFFFFFFFFFFFFFFFFFFFFFFFFFFFFFFFFFFFFFFFFFFFFFFFFFFFFF NOT AND SWAP1 DUP2 PUSH1 0x0 BYTE SWAP1 MSTORE8 POP PUSH2 0x3BA9 JUMP JUMPDEST PUSH1 0x0 SWAP1 POP JUMPDEST DUP5 PUSH2 0x120 ADD MLOAD MLOAD DUP2 PUSH8 0xFFFFFFFFFFFFFFFF AND LT ISZERO PUSH2 0x3D0A JUMPI DUP5 PUSH2 0x120 ADD MLOAD DUP2 DUP1 PUSH2 0x3C85 SWAP1 PUSH2 0xA398 JUMP JUMPDEST SWAP3 POP PUSH8 0xFFFFFFFFFFFFFFFF AND DUP2 MLOAD DUP2 LT PUSH2 0x3CA2 JUMPI PUSH2 0x3CA1 PUSH2 0xA456 JUMP JUMPDEST JUMPDEST PUSH1 0x20 ADD ADD MLOAD PUSH1 0xF8 SHR PUSH1 0xF8 SHL DUP3 DUP5 DUP1 PUSH2 0x3CB9 SWAP1 PUSH2 0xA398 JUMP JUMPDEST SWAP6 POP PUSH8 0xFFFFFFFFFFFFFFFF AND DUP2 MLOAD DUP2 LT PUSH2 0x3CD6 JUMPI PUSH2 0x3CD5 PUSH2 0xA456 JUMP JUMPDEST JUMPDEST PUSH1 0x20 ADD ADD SWAP1 PUSH31 0xFFFFFFFFFFFFFFFFFFFFFFFFFFFFFFFFFFFFFFFFFFFFFFFFFFFFFFFFFFFFFF NOT AND SWAP1 DUP2 PUSH1 0x0 BYTE SWAP1 MSTORE8 POP PUSH2 0x3C5C JUMP JUMPDEST PUSH1 0x0 SWAP1 POP JUMPDEST DUP5 PUSH2 0x140 ADD MLOAD MLOAD DUP2 PUSH8 0xFFFFFFFFFFFFFFFF AND LT ISZERO PUSH2 0x3DBD JUMPI DUP5 PUSH2 0x140 ADD MLOAD DUP2 DUP1 PUSH2 0x3D38 SWAP1 PUSH2 0xA398 JUMP JUMPDEST SWAP3 POP PUSH8 0xFFFFFFFFFFFFFFFF AND DUP2 MLOAD DUP2 LT PUSH2 0x3D55 JUMPI PUSH2 0x3D54 PUSH2 0xA456 JUMP JUMPDEST JUMPDEST PUSH1 0x20 ADD ADD MLOAD PUSH1 0xF8 SHR PUSH1 0xF8 SHL DUP3 DUP5 DUP1 PUSH2 0x3D6C SWAP1 PUSH2 0xA398 JUMP JUMPDEST SWAP6 POP PUSH8 0xFFFFFFFFFFFFFFFF AND DUP2 MLOAD DUP2 LT PUSH2 0x3D89 JUMPI PUSH2 0x3D88 PUSH2 0xA456 JUMP JUMPDEST JUMPDEST PUSH1 0x20 ADD ADD SWAP1 PUSH31 0xFFFFFFFFFFFFFFFFFFFFFFFFFFFFFFFFFFFFFFFFFFFFFFFFFFFFFFFFFFFFFF NOT AND SWAP1 DUP2 PUSH1 0x0 BYTE SWAP1 MSTORE8 POP PUSH2 0x3D0F JUMP JUMPDEST PUSH1 0x0 SWAP1 POP JUMPDEST DUP5 PUSH2 0x160 ADD MLOAD MLOAD DUP2 PUSH8 0xFFFFFFFFFFFFFFFF AND LT ISZERO PUSH2 0x3E70 JUMPI DUP5 PUSH2 0x160 ADD MLOAD DUP2 DUP1 PUSH2 0x3DEB SWAP1 PUSH2 0xA398 JUMP JUMPDEST SWAP3 POP PUSH8 0xFFFFFFFFFFFFFFFF AND DUP2 MLOAD DUP2 LT PUSH2 0x3E08 JUMPI PUSH2 0x3E07 PUSH2 0xA456 JUMP JUMPDEST JUMPDEST PUSH1 0x20 ADD ADD MLOAD PUSH1 0xF8 SHR PUSH1 0xF8 SHL DUP3 DUP5 DUP1 PUSH2 0x3E1F SWAP1 PUSH2 0xA398 JUMP JUMPDEST SWAP6 POP PUSH8 0xFFFFFFFFFFFFFFFF AND DUP2 MLOAD DUP2 LT PUSH2 0x3E3C JUMPI PUSH2 0x3E3B PUSH2 0xA456 JUMP JUMPDEST JUMPDEST PUSH1 0x20 ADD ADD SWAP1 PUSH31 0xFFFFFFFFFFFFFFFFFFFFFFFFFFFFFFFFFFFFFFFFFFFFFFFFFFFFFFFFFFFFFF NOT AND SWAP1 DUP2 PUSH1 0x0 BYTE SWAP1 MSTORE8 POP PUSH2 0x3DC2 JUMP JUMPDEST PUSH1 0x0 SWAP1 POP JUMPDEST DUP5 PUSH2 0x180 ADD MLOAD MLOAD DUP2 PUSH8 0xFFFFFFFFFFFFFFFF AND LT ISZERO PUSH2 0x3F23 JUMPI DUP5 PUSH2 0x180 ADD MLOAD DUP2 DUP1 PUSH2 0x3E9E SWAP1 PUSH2 0xA398 JUMP JUMPDEST SWAP3 POP PUSH8 0xFFFFFFFFFFFFFFFF AND DUP2 MLOAD DUP2 LT PUSH2 0x3EBB JUMPI PUSH2 0x3EBA PUSH2 0xA456 JUMP JUMPDEST JUMPDEST PUSH1 0x20 ADD ADD MLOAD PUSH1 0xF8 SHR PUSH1 0xF8 SHL DUP3 DUP5 DUP1 PUSH2 0x3ED2 SWAP1 PUSH2 0xA398 JUMP JUMPDEST SWAP6 POP PUSH8 0xFFFFFFFFFFFFFFFF AND DUP2 MLOAD DUP2 LT PUSH2 0x3EEF JUMPI PUSH2 0x3EEE PUSH2 0xA456 JUMP JUMPDEST JUMPDEST PUSH1 0x20 ADD ADD SWAP1 PUSH31 0xFFFFFFFFFFFFFFFFFFFFFFFFFFFFFFFFFFFFFFFFFFFFFFFFFFFFFFFFFFFFFF NOT AND SWAP1 DUP2 PUSH1 0x0 BYTE SWAP1 MSTORE8 POP PUSH2 0x3E75 JUMP JUMPDEST DUP2 SWAP6 POP POP POP POP POP POP SWAP2 SWAP1 POP JUMP JUMPDEST PUSH1 0x2 PUSH1 0x0 SWAP1 SLOAD SWAP1 PUSH2 0x100 EXP SWAP1 DIV PUSH20 0xFFFFFFFFFFFFFFFFFFFFFFFFFFFFFFFFFFFFFFFF AND PUSH20 0xFFFFFFFFFFFFFFFFFFFFFFFFFFFFFFFFFFFFFFFF AND PUSH4 0x8FE8BB96 DUP3 PUSH1 0x40 MLOAD DUP3 PUSH4 0xFFFFFFFF AND PUSH1 0xE0 SHL DUP2 MSTORE PUSH1 0x4 ADD PUSH2 0x3F8B SWAP2 SWAP1 PUSH2 0xA022 JUMP JUMPDEST PUSH1 0x0 PUSH1 0x40 MLOAD DUP1 DUP4 SUB DUP2 PUSH1 0x0 DUP8 DUP1 EXTCODESIZE ISZERO DUP1 ISZERO PUSH2 0x3FA5 JUMPI PUSH1 0x0 DUP1 REVERT JUMPDEST POP GAS CALL ISZERO DUP1 ISZERO PUSH2 0x3FB9 JUMPI RETURNDATASIZE PUSH1 0x0 DUP1 RETURNDATACOPY RETURNDATASIZE PUSH1 0x0 REVERT JUMPDEST POP POP POP POP PUSH1 0x4 PUSH1 0x1 DUP2 DUP2 SWAP1 SLOAD SWAP1 PUSH2 0x100 EXP SWAP1 DIV PUSH8 0xFFFFFFFFFFFFFFFF AND DUP1 SWAP3 SWAP2 SWAP1 PUSH2 0x3FE3 SWAP1 PUSH2 0xA398 JUMP JUMPDEST SWAP2 SWAP1 PUSH2 0x100 EXP DUP2 SLOAD DUP2 PUSH8 0xFFFFFFFFFFFFFFFF MUL NOT AND SWAP1 DUP4 PUSH8 0xFFFFFFFFFFFFFFFF AND MUL OR SWAP1 SSTORE POP POP PUSH1 0x3 DUP2 SWAP1 DUP1 PUSH1 0x1 DUP2 SLOAD ADD DUP1 DUP3 SSTORE DUP1 SWAP2 POP POP PUSH1 0x1 SWAP1 SUB SWAP1 PUSH1 0x0 MSTORE PUSH1 0x20 PUSH1 0x0 KECCAK256 SWAP1 PUSH1 0x2 MUL ADD PUSH1 0x0 SWAP1 SWAP2 SWAP1 SWAP2 SWAP1 SWAP2 POP PUSH1 0x0 DUP3 ADD MLOAD DUP2 PUSH1 0x0 ADD PUSH1 0x0 PUSH2 0x100 EXP DUP2 SLOAD DUP2 PUSH8 0xFFFFFFFFFFFFFFFF MUL NOT AND SWAP1 DUP4 PUSH8 0xFFFFFFFFFFFFFFFF AND MUL OR SWAP1 SSTORE POP PUSH1 0x20 DUP3 ADD MLOAD DUP2 PUSH1 0x0 ADD PUSH1 0x8 PUSH2 0x100 EXP DUP2 SLOAD DUP2 PUSH1 0xFF MUL NOT AND SWAP1 DUP4 PUSH1 0x8 DUP2 GT ISZERO PUSH2 0x4090 JUMPI PUSH2 0x408F PUSH2 0xA3F8 JUMP JUMPDEST JUMPDEST MUL OR SWAP1 SSTORE POP PUSH1 0x40 DUP3 ADD MLOAD DUP2 PUSH1 0x1 ADD SWAP1 DUP1 MLOAD SWAP1 PUSH1 0x20 ADD SWAP1 PUSH2 0x40B1 SWAP3 SWAP2 SWAP1 PUSH2 0x91AF JUMP JUMPDEST POP POP POP POP JUMP JUMPDEST PUSH1 0x0 PUSH1 0x1 DUP4 PUSH8 0xFFFFFFFFFFFFFFFF AND EQ ISZERO PUSH2 0x40FB JUMPI PUSH1 0x0 PUSH1 0x6 DUP2 GT ISZERO PUSH2 0x40E0 JUMPI PUSH2 0x40DF PUSH2 0xA3F8 JUMP JUMPDEST JUMPDEST DUP3 PUSH1 0x6 DUP2 GT ISZERO PUSH2 0x40F3 JUMPI PUSH2 0x40F2 PUSH2 0xA3F8 JUMP JUMPDEST JUMPDEST EQ SWAP1 POP PUSH2 0x4184 JUMP JUMPDEST PUSH1 0x2 DUP4 PUSH8 0xFFFFFFFFFFFFFFFF AND EQ ISZERO PUSH2 0x413D JUMPI PUSH1 0x2 PUSH1 0x6 DUP2 GT ISZERO PUSH2 0x4122 JUMPI PUSH2 0x4121 PUSH2 0xA3F8 JUMP JUMPDEST JUMPDEST DUP3 PUSH1 0x6 DUP2 GT ISZERO PUSH2 0x4135 JUMPI PUSH2 0x4134 PUSH2 0xA3F8 JUMP JUMPDEST JUMPDEST EQ SWAP1 POP PUSH2 0x4184 JUMP JUMPDEST PUSH1 0x3 DUP4 PUSH8 0xFFFFFFFFFFFFFFFF AND EQ ISZERO PUSH2 0x417F JUMPI PUSH1 0x2 PUSH1 0x6 DUP2 GT ISZERO PUSH2 0x4164 JUMPI PUSH2 0x4163 PUSH2 0xA3F8 JUMP JUMPDEST JUMPDEST DUP3 PUSH1 0x6 DUP2 GT ISZERO PUSH2 0x4177 JUMPI PUSH2 0x4176 PUSH2 0xA3F8 JUMP JUMPDEST JUMPDEST EQ SWAP1 POP PUSH2 0x4184 JUMP JUMPDEST PUSH1 0x0 SWAP1 POP JUMPDEST SWAP3 SWAP2 POP POP JUMP JUMPDEST PUSH1 0x0 DUP1 PUSH1 0x0 DUP8 SWAP1 POP PUSH1 0x1 DUP6 PUSH8 0xFFFFFFFFFFFFFFFF AND EQ ISZERO PUSH2 0x41DB JUMPI PUSH1 0x0 PUSH2 0x41B2 DUP3 DUP10 DUP8 PUSH2 0x7C82 JUMP JUMPDEST DUP1 SWAP4 POP DUP2 SWAP3 POP POP POP DUP1 PUSH2 0x41CD JUMPI PUSH1 0x0 DUP3 SWAP4 POP SWAP4 POP POP POP PUSH2 0x4276 JUMP JUMPDEST PUSH1 0x1 DUP3 SWAP4 POP SWAP4 POP POP POP PUSH2 0x4276 JUMP JUMPDEST PUSH1 0x2 DUP6 PUSH8 0xFFFFFFFFFFFFFFFF AND EQ ISZERO PUSH2 0x4224 JUMPI PUSH1 0x0 PUSH2 0x41FB DUP3 DUP10 DUP8 PUSH2 0x7D04 JUMP JUMPDEST DUP1 SWAP4 POP DUP2 SWAP3 POP POP POP DUP1 PUSH2 0x4216 JUMPI PUSH1 0x0 DUP3 SWAP4 POP SWAP4 POP POP POP PUSH2 0x4276 JUMP JUMPDEST PUSH1 0x1 DUP3 SWAP4 POP SWAP4 POP POP POP PUSH2 0x4276 JUMP JUMPDEST PUSH1 0x3 DUP6 PUSH8 0xFFFFFFFFFFFFFFFF AND EQ ISZERO PUSH2 0x426D JUMPI PUSH1 0x0 PUSH2 0x4244 DUP3 DUP10 DUP8 PUSH2 0x7E89 JUMP JUMPDEST DUP1 SWAP4 POP DUP2 SWAP3 POP POP POP DUP1 PUSH2 0x425F JUMPI PUSH1 0x0 DUP3 SWAP4 POP SWAP4 POP POP POP PUSH2 0x4276 JUMP JUMPDEST PUSH1 0x1 DUP3 SWAP4 POP SWAP4 POP POP POP PUSH2 0x4276 JUMP JUMPDEST PUSH1 0x0 DUP2 SWAP3 POP SWAP3 POP POP JUMPDEST SWAP6 POP SWAP6 SWAP4 POP POP POP POP JUMP JUMPDEST PUSH1 0x0 DUP2 PUSH1 0x40 MLOAD PUSH1 0x20 ADD PUSH2 0x4293 SWAP2 SWAP1 PUSH2 0x9D53 JUMP JUMPDEST PUSH1 0x40 MLOAD PUSH1 0x20 DUP2 DUP4 SUB SUB DUP2 MSTORE SWAP1 PUSH1 0x40 MSTORE DUP1 MLOAD SWAP1 PUSH1 0x20 ADD KECCAK256 DUP4 PUSH1 0x40 MLOAD PUSH1 0x20 ADD PUSH2 0x42BA SWAP2 SWAP1 PUSH2 0x9D53 JUMP JUMPDEST PUSH1 0x40 MLOAD PUSH1 0x20 DUP2 DUP4 SUB SUB DUP2 MSTORE SWAP1 PUSH1 0x40 MSTORE DUP1 MLOAD SWAP1 PUSH1 0x20 ADD KECCAK256 EQ SWAP1 POP SWAP3 SWAP2 POP POP JUMP JUMPDEST PUSH1 0x60 PUSH2 0x42E3 PUSH2 0x9235 JUMP JUMPDEST PUSH1 0x0 DUP1 PUSH1 0x0 DUP6 PUSH1 0x0 ADD MLOAD MLOAD GT ISZERO PUSH2 0x433E JUMPI PUSH2 0x4312 PUSH1 0x1 PUSH1 0x2 PUSH1 0x6 DUP2 GT ISZERO PUSH2 0x430D JUMPI PUSH2 0x430C PUSH2 0xA3F8 JUMP JUMPDEST JUMPDEST PUSH2 0x7C41 JUMP JUMPDEST DUP4 PUSH1 0x0 ADD DUP2 SWAP1 MSTORE POP PUSH2 0x4328 DUP6 PUSH1 0x0 ADD MLOAD MLOAD PUSH2 0x7C70 JUMP JUMPDEST DUP4 PUSH1 0x20 ADD DUP2 SWAP1 MSTORE POP DUP5 PUSH1 0x0 ADD MLOAD DUP4 PUSH1 0x40 ADD DUP2 SWAP1 MSTORE POP JUMPDEST PUSH1 0x0 DUP6 PUSH1 0x20 ADD MLOAD PUSH8 0xFFFFFFFFFFFFFFFF AND EQ PUSH2 0x4390 JUMPI PUSH2 0x4372 PUSH1 0x2 PUSH1 0x0 PUSH1 0x6 DUP2 GT ISZERO PUSH2 0x436D JUMPI PUSH2 0x436C PUSH2 0xA3F8 JUMP JUMPDEST JUMPDEST PUSH2 0x7C41 JUMP JUMPDEST DUP4 PUSH1 0x60 ADD DUP2 SWAP1 MSTORE POP PUSH2 0x4387 DUP6 PUSH1 0x20 ADD MLOAD PUSH2 0x7C70 JUMP JUMPDEST DUP4 PUSH1 0x80 ADD DUP2 SWAP1 MSTORE POP JUMPDEST PUSH1 0x0 DUP6 PUSH1 0x40 ADD MLOAD MLOAD GT ISZERO PUSH2 0x43E8 JUMPI PUSH2 0x43BC PUSH1 0x3 PUSH1 0x2 PUSH1 0x6 DUP2 GT ISZERO PUSH2 0x43B7 JUMPI PUSH2 0x43B6 PUSH2 0xA3F8 JUMP JUMPDEST JUMPDEST PUSH2 0x7C41 JUMP JUMPDEST DUP4 PUSH1 0xA0 ADD DUP2 SWAP1 MSTORE POP PUSH2 0x43D2 DUP6 PUSH1 0x40 ADD MLOAD MLOAD PUSH2 0x7C70 JUMP JUMPDEST DUP4 PUSH1 0xC0 ADD DUP2 SWAP1 MSTORE POP DUP5 PUSH1 0x40 ADD MLOAD DUP4 PUSH1 0xE0 ADD DUP2 SWAP1 MSTORE POP JUMPDEST PUSH1 0x60 PUSH1 0x0 SWAP2 POP PUSH1 0x0 SWAP3 POP DUP4 PUSH1 0x0 ADD MLOAD MLOAD DUP4 PUSH2 0x4403 SWAP2 SWAP1 PUSH2 0xA13F JUMP JUMPDEST SWAP3 POP DUP4 PUSH1 0x20 ADD MLOAD MLOAD DUP4 PUSH2 0x4416 SWAP2 SWAP1 PUSH2 0xA13F JUMP JUMPDEST SWAP3 POP DUP4 PUSH1 0x40 ADD MLOAD MLOAD DUP4 PUSH2 0x4429 SWAP2 SWAP1 PUSH2 0xA13F JUMP JUMPDEST SWAP3 POP DUP4 PUSH1 0x60 ADD MLOAD MLOAD DUP4 PUSH2 0x443C SWAP2 SWAP1 PUSH2 0xA13F JUMP JUMPDEST SWAP3 POP DUP4 PUSH1 0x80 ADD MLOAD MLOAD DUP4 PUSH2 0x444F SWAP2 SWAP1 PUSH2 0xA13F JUMP JUMPDEST SWAP3 POP DUP4 PUSH1 0xA0 ADD MLOAD MLOAD DUP4 PUSH2 0x4462 SWAP2 SWAP1 PUSH2 0xA13F JUMP JUMPDEST SWAP3 POP DUP4 PUSH1 0xC0 ADD MLOAD MLOAD DUP4 PUSH2 0x4475 SWAP2 SWAP1 PUSH2 0xA13F JUMP JUMPDEST SWAP3 POP DUP4 PUSH1 0xE0 ADD MLOAD MLOAD DUP4 PUSH2 0x4488 SWAP2 SWAP1 PUSH2 0xA13F JUMP JUMPDEST SWAP3 POP DUP3 PUSH8 0xFFFFFFFFFFFFFFFF AND PUSH8 0xFFFFFFFFFFFFFFFF DUP2 GT ISZERO PUSH2 0x44AE JUMPI PUSH2 0x44AD PUSH2 0xA485 JUMP JUMPDEST JUMPDEST PUSH1 0x40 MLOAD SWAP1 DUP1 DUP3 MSTORE DUP1 PUSH1 0x1F ADD PUSH1 0x1F NOT AND PUSH1 0x20 ADD DUP3 ADD PUSH1 0x40 MSTORE DUP1 ISZERO PUSH2 0x44E0 JUMPI DUP2 PUSH1 0x20 ADD PUSH1 0x1 DUP3 MUL DUP1 CALLDATASIZE DUP4 CALLDATACOPY DUP1 DUP3 ADD SWAP2 POP POP SWAP1 POP JUMPDEST POP SWAP1 POP PUSH1 0x0 JUMPDEST DUP5 PUSH1 0x0 ADD MLOAD MLOAD DUP2 PUSH8 0xFFFFFFFFFFFFFFFF AND LT ISZERO PUSH2 0x4592 JUMPI DUP5 PUSH1 0x0 ADD MLOAD DUP2 DUP1 PUSH2 0x450D SWAP1 PUSH2 0xA398 JUMP JUMPDEST SWAP3 POP PUSH8 0xFFFFFFFFFFFFFFFF AND DUP2 MLOAD DUP2 LT PUSH2 0x452A JUMPI PUSH2 0x4529 PUSH2 0xA456 JUMP JUMPDEST JUMPDEST PUSH1 0x20 ADD ADD MLOAD PUSH1 0xF8 SHR PUSH1 0xF8 SHL DUP3 DUP5 DUP1 PUSH2 0x4541 SWAP1 PUSH2 0xA398 JUMP JUMPDEST SWAP6 POP PUSH8 0xFFFFFFFFFFFFFFFF AND DUP2 MLOAD DUP2 LT PUSH2 0x455E JUMPI PUSH2 0x455D PUSH2 0xA456 JUMP JUMPDEST JUMPDEST PUSH1 0x20 ADD ADD SWAP1 PUSH31 0xFFFFFFFFFFFFFFFFFFFFFFFFFFFFFFFFFFFFFFFFFFFFFFFFFFFFFFFFFFFFFF NOT AND SWAP1 DUP2 PUSH1 0x0 BYTE SWAP1 MSTORE8 POP PUSH2 0x44E6 JUMP JUMPDEST PUSH1 0x0 SWAP1 POP JUMPDEST DUP5 PUSH1 0x20 ADD MLOAD MLOAD DUP2 PUSH8 0xFFFFFFFFFFFFFFFF AND LT ISZERO PUSH2 0x4643 JUMPI DUP5 PUSH1 0x20 ADD MLOAD DUP2 DUP1 PUSH2 0x45BE SWAP1 PUSH2 0xA398 JUMP JUMPDEST SWAP3 POP PUSH8 0xFFFFFFFFFFFFFFFF AND DUP2 MLOAD DUP2 LT PUSH2 0x45DB JUMPI PUSH2 0x45DA PUSH2 0xA456 JUMP JUMPDEST JUMPDEST PUSH1 0x20 ADD ADD MLOAD PUSH1 0xF8 SHR PUSH1 0xF8 SHL DUP3 DUP5 DUP1 PUSH2 0x45F2 SWAP1 PUSH2 0xA398 JUMP JUMPDEST SWAP6 POP PUSH8 0xFFFFFFFFFFFFFFFF AND DUP2 MLOAD DUP2 LT PUSH2 0x460F JUMPI PUSH2 0x460E PUSH2 0xA456 JUMP JUMPDEST JUMPDEST PUSH1 0x20 ADD ADD SWAP1 PUSH31 0xFFFFFFFFFFFFFFFFFFFFFFFFFFFFFFFFFFFFFFFFFFFFFFFFFFFFFFFFFFFFFF NOT AND SWAP1 DUP2 PUSH1 0x0 BYTE SWAP1 MSTORE8 POP PUSH2 0x4597 JUMP JUMPDEST PUSH1 0x0 SWAP1 POP JUMPDEST DUP5 PUSH1 0x40 ADD MLOAD MLOAD DUP2 PUSH8 0xFFFFFFFFFFFFFFFF AND LT ISZERO PUSH2 0x46F4 JUMPI DUP5 PUSH1 0x40 ADD MLOAD DUP2 DUP1 PUSH2 0x466F SWAP1 PUSH2 0xA398 JUMP JUMPDEST SWAP3 POP PUSH8 0xFFFFFFFFFFFFFFFF AND DUP2 MLOAD DUP2 LT PUSH2 0x468C JUMPI PUSH2 0x468B PUSH2 0xA456 JUMP JUMPDEST JUMPDEST PUSH1 0x20 ADD ADD MLOAD PUSH1 0xF8 SHR PUSH1 0xF8 SHL DUP3 DUP5 DUP1 PUSH2 0x46A3 SWAP1 PUSH2 0xA398 JUMP JUMPDEST SWAP6 POP PUSH8 0xFFFFFFFFFFFFFFFF AND DUP2 MLOAD DUP2 LT PUSH2 0x46C0 JUMPI PUSH2 0x46BF PUSH2 0xA456 JUMP JUMPDEST JUMPDEST PUSH1 0x20 ADD ADD SWAP1 PUSH31 0xFFFFFFFFFFFFFFFFFFFFFFFFFFFFFFFFFFFFFFFFFFFFFFFFFFFFFFFFFFFFFF NOT AND SWAP1 DUP2 PUSH1 0x0 BYTE SWAP1 MSTORE8 POP PUSH2 0x4648 JUMP JUMPDEST PUSH1 0x0 SWAP1 POP JUMPDEST DUP5 PUSH1 0x60 ADD MLOAD MLOAD DUP2 PUSH8 0xFFFFFFFFFFFFFFFF AND LT ISZERO PUSH2 0x47A5 JUMPI DUP5 PUSH1 0x60 ADD MLOAD DUP2 DUP1 PUSH2 0x4720 SWAP1 PUSH2 0xA398 JUMP JUMPDEST SWAP3 POP PUSH8 0xFFFFFFFFFFFFFFFF AND DUP2 MLOAD DUP2 LT PUSH2 0x473D JUMPI PUSH2 0x473C PUSH2 0xA456 JUMP JUMPDEST JUMPDEST PUSH1 0x20 ADD ADD MLOAD PUSH1 0xF8 SHR PUSH1 0xF8 SHL DUP3 DUP5 DUP1 PUSH2 0x4754 SWAP1 PUSH2 0xA398 JUMP JUMPDEST SWAP6 POP PUSH8 0xFFFFFFFFFFFFFFFF AND DUP2 MLOAD DUP2 LT PUSH2 0x4771 JUMPI PUSH2 0x4770 PUSH2 0xA456 JUMP JUMPDEST JUMPDEST PUSH1 0x20 ADD ADD SWAP1 PUSH31 0xFFFFFFFFFFFFFFFFFFFFFFFFFFFFFFFFFFFFFFFFFFFFFFFFFFFFFFFFFFFFFF NOT AND SWAP1 DUP2 PUSH1 0x0 BYTE SWAP1 MSTORE8 POP PUSH2 0x46F9 JUMP JUMPDEST PUSH1 0x0 SWAP1 POP JUMPDEST DUP5 PUSH1 0x80 ADD MLOAD MLOAD DUP2 PUSH8 0xFFFFFFFFFFFFFFFF AND LT ISZERO PUSH2 0x4856 JUMPI DUP5 PUSH1 0x80 ADD MLOAD DUP2 DUP1 PUSH2 0x47D1 SWAP1 PUSH2 0xA398 JUMP JUMPDEST SWAP3 POP PUSH8 0xFFFFFFFFFFFFFFFF AND DUP2 MLOAD DUP2 LT PUSH2 0x47EE JUMPI PUSH2 0x47ED PUSH2 0xA456 JUMP JUMPDEST JUMPDEST PUSH1 0x20 ADD ADD MLOAD PUSH1 0xF8 SHR PUSH1 0xF8 SHL DUP3 DUP5 DUP1 PUSH2 0x4805 SWAP1 PUSH2 0xA398 JUMP JUMPDEST SWAP6 POP PUSH8 0xFFFFFFFFFFFFFFFF AND DUP2 MLOAD DUP2 LT PUSH2 0x4822 JUMPI PUSH2 0x4821 PUSH2 0xA456 JUMP JUMPDEST JUMPDEST PUSH1 0x20 ADD ADD SWAP1 PUSH31 0xFFFFFFFFFFFFFFFFFFFFFFFFFFFFFFFFFFFFFFFFFFFFFFFFFFFFFFFFFFFFFF NOT AND SWAP1 DUP2 PUSH1 0x0 BYTE SWAP1 MSTORE8 POP PUSH2 0x47AA JUMP JUMPDEST PUSH1 0x0 SWAP1 POP JUMPDEST DUP5 PUSH1 0xA0 ADD MLOAD MLOAD DUP2 PUSH8 0xFFFFFFFFFFFFFFFF AND LT ISZERO PUSH2 0x4907 JUMPI DUP5 PUSH1 0xA0 ADD MLOAD DUP2 DUP1 PUSH2 0x4882 SWAP1 PUSH2 0xA398 JUMP JUMPDEST SWAP3 POP PUSH8 0xFFFFFFFFFFFFFFFF AND DUP2 MLOAD DUP2 LT PUSH2 0x489F JUMPI PUSH2 0x489E PUSH2 0xA456 JUMP JUMPDEST JUMPDEST PUSH1 0x20 ADD ADD MLOAD PUSH1 0xF8 SHR PUSH1 0xF8 SHL DUP3 DUP5 DUP1 PUSH2 0x48B6 SWAP1 PUSH2 0xA398 JUMP JUMPDEST SWAP6 POP PUSH8 0xFFFFFFFFFFFFFFFF AND DUP2 MLOAD DUP2 LT PUSH2 0x48D3 JUMPI PUSH2 0x48D2 PUSH2 0xA456 JUMP JUMPDEST JUMPDEST PUSH1 0x20 ADD ADD SWAP1 PUSH31 0xFFFFFFFFFFFFFFFFFFFFFFFFFFFFFFFFFFFFFFFFFFFFFFFFFFFFFFFFFFFFFF NOT AND SWAP1 DUP2 PUSH1 0x0 BYTE SWAP1 MSTORE8 POP PUSH2 0x485B JUMP JUMPDEST PUSH1 0x0 SWAP1 POP JUMPDEST DUP5 PUSH1 0xC0 ADD MLOAD MLOAD DUP2 PUSH8 0xFFFFFFFFFFFFFFFF AND LT ISZERO PUSH2 0x49B8 JUMPI DUP5 PUSH1 0xC0 ADD MLOAD DUP2 DUP1 PUSH2 0x4933 SWAP1 PUSH2 0xA398 JUMP JUMPDEST SWAP3 POP PUSH8 0xFFFFFFFFFFFFFFFF AND DUP2 MLOAD DUP2 LT PUSH2 0x4950 JUMPI PUSH2 0x494F PUSH2 0xA456 JUMP JUMPDEST JUMPDEST PUSH1 0x20 ADD ADD MLOAD PUSH1 0xF8 SHR PUSH1 0xF8 SHL DUP3 DUP5 DUP1 PUSH2 0x4967 SWAP1 PUSH2 0xA398 JUMP JUMPDEST SWAP6 POP PUSH8 0xFFFFFFFFFFFFFFFF AND DUP2 MLOAD DUP2 LT PUSH2 0x4984 JUMPI PUSH2 0x4983 PUSH2 0xA456 JUMP JUMPDEST JUMPDEST PUSH1 0x20 ADD ADD SWAP1 PUSH31 0xFFFFFFFFFFFFFFFFFFFFFFFFFFFFFFFFFFFFFFFFFFFFFFFFFFFFFFFFFFFFFF NOT AND SWAP1 DUP2 PUSH1 0x0 BYTE SWAP1 MSTORE8 POP PUSH2 0x490C JUMP JUMPDEST PUSH1 0x0 SWAP1 POP JUMPDEST DUP5 PUSH1 0xE0 ADD MLOAD MLOAD DUP2 PUSH8 0xFFFFFFFFFFFFFFFF AND LT ISZERO PUSH2 0x4A69 JUMPI DUP5 PUSH1 0xE0 ADD MLOAD DUP2 DUP1 PUSH2 0x49E4 SWAP1 PUSH2 0xA398 JUMP JUMPDEST SWAP3 POP PUSH8 0xFFFFFFFFFFFFFFFF AND DUP2 MLOAD DUP2 LT PUSH2 0x4A01 JUMPI PUSH2 0x4A00 PUSH2 0xA456 JUMP JUMPDEST JUMPDEST PUSH1 0x20 ADD ADD MLOAD PUSH1 0xF8 SHR PUSH1 0xF8 SHL DUP3 DUP5 DUP1 PUSH2 0x4A18 SWAP1 PUSH2 0xA398 JUMP JUMPDEST SWAP6 POP PUSH8 0xFFFFFFFFFFFFFFFF AND DUP2 MLOAD DUP2 LT PUSH2 0x4A35 JUMPI PUSH2 0x4A34 PUSH2 0xA456 JUMP JUMPDEST JUMPDEST PUSH1 0x20 ADD ADD SWAP1 PUSH31 0xFFFFFFFFFFFFFFFFFFFFFFFFFFFFFFFFFFFFFFFFFFFFFFFFFFFFFFFFFFFFFF NOT AND SWAP1 DUP2 PUSH1 0x0 BYTE SWAP1 MSTORE8 POP PUSH2 0x49BD JUMP JUMPDEST DUP2 SWAP6 POP POP POP POP POP POP SWAP2 SWAP1 POP JUMP JUMPDEST PUSH1 0x0 PUSH1 0x1 DUP4 PUSH8 0xFFFFFFFFFFFFFFFF AND EQ ISZERO PUSH2 0x4ABA JUMPI PUSH1 0x0 PUSH1 0x6 DUP2 GT ISZERO PUSH2 0x4A9F JUMPI PUSH2 0x4A9E PUSH2 0xA3F8 JUMP JUMPDEST JUMPDEST DUP3 PUSH1 0x6 DUP2 GT ISZERO PUSH2 0x4AB2 JUMPI PUSH2 0x4AB1 PUSH2 0xA3F8 JUMP JUMPDEST JUMPDEST EQ SWAP1 POP PUSH2 0x4B43 JUMP JUMPDEST PUSH1 0x2 DUP4 PUSH8 0xFFFFFFFFFFFFFFFF AND EQ ISZERO PUSH2 0x4AFC JUMPI PUSH1 0x2 PUSH1 0x6 DUP2 GT ISZERO PUSH2 0x4AE1 JUMPI PUSH2 0x4AE0 PUSH2 0xA3F8 JUMP JUMPDEST JUMPDEST DUP3 PUSH1 0x6 DUP2 GT ISZERO PUSH2 0x4AF4 JUMPI PUSH2 0x4AF3 PUSH2 0xA3F8 JUMP JUMPDEST JUMPDEST EQ SWAP1 POP PUSH2 0x4B43 JUMP JUMPDEST PUSH1 0x3 DUP4 PUSH8 0xFFFFFFFFFFFFFFFF AND EQ ISZERO PUSH2 0x4B3E JUMPI PUSH1 0x2 PUSH1 0x6 DUP2 GT ISZERO PUSH2 0x4B23 JUMPI PUSH2 0x4B22 PUSH2 0xA3F8 JUMP JUMPDEST JUMPDEST DUP3 PUSH1 0x6 DUP2 GT ISZERO PUSH2 0x4B36 JUMPI PUSH2 0x4B35 PUSH2 0xA3F8 JUMP JUMPDEST JUMPDEST EQ SWAP1 POP PUSH2 0x4B43 JUMP JUMPDEST PUSH1 0x0 SWAP1 POP JUMPDEST SWAP3 SWAP2 POP POP JUMP JUMPDEST PUSH1 0x0 DUP1 PUSH1 0x0 DUP8 SWAP1 POP PUSH1 0x1 DUP6 PUSH8 0xFFFFFFFFFFFFFFFF AND EQ ISZERO PUSH2 0x4B9A JUMPI PUSH1 0x0 PUSH2 0x4B71 DUP3 DUP10 DUP8 PUSH2 0x800E JUMP JUMPDEST DUP1 SWAP4 POP DUP2 SWAP3 POP POP POP DUP1 PUSH2 0x4B8C JUMPI PUSH1 0x0 DUP3 SWAP4 POP SWAP4 POP POP POP PUSH2 0x4C35 JUMP JUMPDEST PUSH1 0x1 DUP3 SWAP4 POP SWAP4 POP POP POP PUSH2 0x4C35 JUMP JUMPDEST PUSH1 0x2 DUP6 PUSH8 0xFFFFFFFFFFFFFFFF AND EQ ISZERO PUSH2 0x4BE3 JUMPI PUSH1 0x0 PUSH2 0x4BBA DUP3 DUP10 DUP8 PUSH2 0x8090 JUMP JUMPDEST DUP1 SWAP4 POP DUP2 SWAP3 POP POP POP DUP1 PUSH2 0x4BD5 JUMPI PUSH1 0x0 DUP3 SWAP4 POP SWAP4 POP POP POP PUSH2 0x4C35 JUMP JUMPDEST PUSH1 0x1 DUP3 SWAP4 POP SWAP4 POP POP POP PUSH2 0x4C35 JUMP JUMPDEST PUSH1 0x3 DUP6 PUSH8 0xFFFFFFFFFFFFFFFF AND EQ ISZERO PUSH2 0x4C2C JUMPI PUSH1 0x0 PUSH2 0x4C03 DUP3 DUP10 DUP8 PUSH2 0x8215 JUMP JUMPDEST DUP1 SWAP4 POP DUP2 SWAP3 POP POP POP DUP1 PUSH2 0x4C1E JUMPI PUSH1 0x0 DUP3 SWAP4 POP SWAP4 POP POP POP PUSH2 0x4C35 JUMP JUMPDEST PUSH1 0x1 DUP3 SWAP4 POP SWAP4 POP POP POP PUSH2 0x4C35 JUMP JUMPDEST PUSH1 0x0 DUP2 SWAP3 POP SWAP3 POP POP JUMPDEST SWAP6 POP SWAP6 SWAP4 POP POP POP POP JUMP JUMPDEST PUSH1 0x0 PUSH1 0x14 DUP3 MLOAD EQ PUSH2 0x4C85 JUMPI PUSH1 0x40 MLOAD PUSH32 0x8C379A000000000000000000000000000000000000000000000000000000000 DUP2 MSTORE PUSH1 0x4 ADD PUSH2 0x4C7C SWAP1 PUSH2 0x9EA2 JUMP JUMPDEST PUSH1 0x40 MLOAD DUP1 SWAP2 SUB SWAP1 REVERT JUMPDEST PUSH1 0x0 PUSH1 0x14 DUP4 ADD MLOAD SWAP1 POP DUP1 SWAP2 POP POP SWAP2 SWAP1 POP JUMP JUMPDEST PUSH1 0x60 PUSH2 0x4CA1 PUSH2 0x927A JUMP JUMPDEST PUSH1 0x0 DUP1 PUSH1 0x0 DUP6 PUSH1 0x0 ADD MLOAD MLOAD GT ISZERO PUSH2 0x4CFC JUMPI PUSH2 0x4CD0 PUSH1 0x1 PUSH1 0x2 PUSH1 0x6 DUP2 GT ISZERO PUSH2 0x4CCB JUMPI PUSH2 0x4CCA PUSH2 0xA3F8 JUMP JUMPDEST JUMPDEST PUSH2 0x7C41 JUMP JUMPDEST DUP4 PUSH1 0x0 ADD DUP2 SWAP1 MSTORE POP PUSH2 0x4CE6 DUP6 PUSH1 0x0 ADD MLOAD MLOAD PUSH2 0x7C70 JUMP JUMPDEST DUP4 PUSH1 0x20 ADD DUP2 SWAP1 MSTORE POP DUP5 PUSH1 0x0 ADD MLOAD DUP4 PUSH1 0x40 ADD DUP2 SWAP1 MSTORE POP JUMPDEST PUSH1 0x0 DUP6 PUSH1 0x20 ADD MLOAD PUSH8 0xFFFFFFFFFFFFFFFF AND EQ PUSH2 0x4D4E JUMPI PUSH2 0x4D30 PUSH1 0x2 PUSH1 0x0 PUSH1 0x6 DUP2 GT ISZERO PUSH2 0x4D2B JUMPI PUSH2 0x4D2A PUSH2 0xA3F8 JUMP JUMPDEST JUMPDEST PUSH2 0x7C41 JUMP JUMPDEST DUP4 PUSH1 0x60 ADD DUP2 SWAP1 MSTORE POP PUSH2 0x4D45 DUP6 PUSH1 0x20 ADD MLOAD PUSH2 0x7C70 JUMP JUMPDEST DUP4 PUSH1 0x80 ADD DUP2 SWAP1 MSTORE POP JUMPDEST PUSH1 0x0 DUP6 PUSH1 0x40 ADD MLOAD MLOAD GT ISZERO PUSH2 0x4DA6 JUMPI PUSH2 0x4D7A PUSH1 0x3 PUSH1 0x2 PUSH1 0x6 DUP2 GT ISZERO PUSH2 0x4D75 JUMPI PUSH2 0x4D74 PUSH2 0xA3F8 JUMP JUMPDEST JUMPDEST PUSH2 0x7C41 JUMP JUMPDEST DUP4 PUSH1 0xA0 ADD DUP2 SWAP1 MSTORE POP PUSH2 0x4D90 DUP6 PUSH1 0x40 ADD MLOAD MLOAD PUSH2 0x7C70 JUMP JUMPDEST DUP4 PUSH1 0xC0 ADD DUP2 SWAP1 MSTORE POP DUP5 PUSH1 0x40 ADD MLOAD DUP4 PUSH1 0xE0 ADD DUP2 SWAP1 MSTORE POP JUMPDEST PUSH1 0x60 PUSH1 0x0 SWAP2 POP PUSH1 0x0 SWAP3 POP DUP4 PUSH1 0x0 ADD MLOAD MLOAD DUP4 PUSH2 0x4DC1 SWAP2 SWAP1 PUSH2 0xA13F JUMP JUMPDEST SWAP3 POP DUP4 PUSH1 0x20 ADD MLOAD MLOAD DUP4 PUSH2 0x4DD4 SWAP2 SWAP1 PUSH2 0xA13F JUMP JUMPDEST SWAP3 POP DUP4 PUSH1 0x40 ADD MLOAD MLOAD DUP4 PUSH2 0x4DE7 SWAP2 SWAP1 PUSH2 0xA13F JUMP JUMPDEST SWAP3 POP DUP4 PUSH1 0x60 ADD MLOAD MLOAD DUP4 PUSH2 0x4DFA SWAP2 SWAP1 PUSH2 0xA13F JUMP JUMPDEST SWAP3 POP DUP4 PUSH1 0x80 ADD MLOAD MLOAD DUP4 PUSH2 0x4E0D SWAP2 SWAP1 PUSH2 0xA13F JUMP JUMPDEST SWAP3 POP DUP4 PUSH1 0xA0 ADD MLOAD MLOAD DUP4 PUSH2 0x4E20 SWAP2 SWAP1 PUSH2 0xA13F JUMP JUMPDEST SWAP3 POP DUP4 PUSH1 0xC0 ADD MLOAD MLOAD DUP4 PUSH2 0x4E33 SWAP2 SWAP1 PUSH2 0xA13F JUMP JUMPDEST SWAP3 POP DUP4 PUSH1 0xE0 ADD MLOAD MLOAD DUP4 PUSH2 0x4E46 SWAP2 SWAP1 PUSH2 0xA13F JUMP JUMPDEST SWAP3 POP DUP3 PUSH8 0xFFFFFFFFFFFFFFFF AND PUSH8 0xFFFFFFFFFFFFFFFF DUP2 GT ISZERO PUSH2 0x4E6C JUMPI PUSH2 0x4E6B PUSH2 0xA485 JUMP JUMPDEST JUMPDEST PUSH1 0x40 MLOAD SWAP1 DUP1 DUP3 MSTORE DUP1 PUSH1 0x1F ADD PUSH1 0x1F NOT AND PUSH1 0x20 ADD DUP3 ADD PUSH1 0x40 MSTORE DUP1 ISZERO PUSH2 0x4E9E JUMPI DUP2 PUSH1 0x20 ADD PUSH1 0x1 DUP3 MUL DUP1 CALLDATASIZE DUP4 CALLDATACOPY DUP1 DUP3 ADD SWAP2 POP POP SWAP1 POP JUMPDEST POP SWAP1 POP PUSH1 0x0 JUMPDEST DUP5 PUSH1 0x0 ADD MLOAD MLOAD DUP2 PUSH8 0xFFFFFFFFFFFFFFFF AND LT ISZERO PUSH2 0x4F50 JUMPI DUP5 PUSH1 0x0 ADD MLOAD DUP2 DUP1 PUSH2 0x4ECB SWAP1 PUSH2 0xA398 JUMP JUMPDEST SWAP3 POP PUSH8 0xFFFFFFFFFFFFFFFF AND DUP2 MLOAD DUP2 LT PUSH2 0x4EE8 JUMPI PUSH2 0x4EE7 PUSH2 0xA456 JUMP JUMPDEST JUMPDEST PUSH1 0x20 ADD ADD MLOAD PUSH1 0xF8 SHR PUSH1 0xF8 SHL DUP3 DUP5 DUP1 PUSH2 0x4EFF SWAP1 PUSH2 0xA398 JUMP JUMPDEST SWAP6 POP PUSH8 0xFFFFFFFFFFFFFFFF AND DUP2 MLOAD DUP2 LT PUSH2 0x4F1C JUMPI PUSH2 0x4F1B PUSH2 0xA456 JUMP JUMPDEST JUMPDEST PUSH1 0x20 ADD ADD SWAP1 PUSH31 0xFFFFFFFFFFFFFFFFFFFFFFFFFFFFFFFFFFFFFFFFFFFFFFFFFFFFFFFFFFFFFF NOT AND SWAP1 DUP2 PUSH1 0x0 BYTE SWAP1 MSTORE8 POP PUSH2 0x4EA4 JUMP JUMPDEST PUSH1 0x0 SWAP1 POP JUMPDEST DUP5 PUSH1 0x20 ADD MLOAD MLOAD DUP2 PUSH8 0xFFFFFFFFFFFFFFFF AND LT ISZERO PUSH2 0x5001 JUMPI DUP5 PUSH1 0x20 ADD MLOAD DUP2 DUP1 PUSH2 0x4F7C SWAP1 PUSH2 0xA398 JUMP JUMPDEST SWAP3 POP PUSH8 0xFFFFFFFFFFFFFFFF AND DUP2 MLOAD DUP2 LT PUSH2 0x4F99 JUMPI PUSH2 0x4F98 PUSH2 0xA456 JUMP JUMPDEST JUMPDEST PUSH1 0x20 ADD ADD MLOAD PUSH1 0xF8 SHR PUSH1 0xF8 SHL DUP3 DUP5 DUP1 PUSH2 0x4FB0 SWAP1 PUSH2 0xA398 JUMP JUMPDEST SWAP6 POP PUSH8 0xFFFFFFFFFFFFFFFF AND DUP2 MLOAD DUP2 LT PUSH2 0x4FCD JUMPI PUSH2 0x4FCC PUSH2 0xA456 JUMP JUMPDEST JUMPDEST PUSH1 0x20 ADD ADD SWAP1 PUSH31 0xFFFFFFFFFFFFFFFFFFFFFFFFFFFFFFFFFFFFFFFFFFFFFFFFFFFFFFFFFFFFFF NOT AND SWAP1 DUP2 PUSH1 0x0 BYTE SWAP1 MSTORE8 POP PUSH2 0x4F55 JUMP JUMPDEST PUSH1 0x0 SWAP1 POP JUMPDEST DUP5 PUSH1 0x40 ADD MLOAD MLOAD DUP2 PUSH8 0xFFFFFFFFFFFFFFFF AND LT ISZERO PUSH2 0x50B2 JUMPI DUP5 PUSH1 0x40 ADD MLOAD DUP2 DUP1 PUSH2 0x502D SWAP1 PUSH2 0xA398 JUMP JUMPDEST SWAP3 POP PUSH8 0xFFFFFFFFFFFFFFFF AND DUP2 MLOAD DUP2 LT PUSH2 0x504A JUMPI PUSH2 0x5049 PUSH2 0xA456 JUMP JUMPDEST JUMPDEST PUSH1 0x20 ADD ADD MLOAD PUSH1 0xF8 SHR PUSH1 0xF8 SHL DUP3 DUP5 DUP1 PUSH2 0x5061 SWAP1 PUSH2 0xA398 JUMP JUMPDEST SWAP6 POP PUSH8 0xFFFFFFFFFFFFFFFF AND DUP2 MLOAD DUP2 LT PUSH2 0x507E JUMPI PUSH2 0x507D PUSH2 0xA456 JUMP JUMPDEST JUMPDEST PUSH1 0x20 ADD ADD SWAP1 PUSH31 0xFFFFFFFFFFFFFFFFFFFFFFFFFFFFFFFFFFFFFFFFFFFFFFFFFFFFFFFFFFFFFF NOT AND SWAP1 DUP2 PUSH1 0x0 BYTE SWAP1 MSTORE8 POP PUSH2 0x5006 JUMP JUMPDEST PUSH1 0x0 SWAP1 POP JUMPDEST DUP5 PUSH1 0x60 ADD MLOAD MLOAD DUP2 PUSH8 0xFFFFFFFFFFFFFFFF AND LT ISZERO PUSH2 0x5163 JUMPI DUP5 PUSH1 0x60 ADD MLOAD DUP2 DUP1 PUSH2 0x50DE SWAP1 PUSH2 0xA398 JUMP JUMPDEST SWAP3 POP PUSH8 0xFFFFFFFFFFFFFFFF AND DUP2 MLOAD DUP2 LT PUSH2 0x50FB JUMPI PUSH2 0x50FA PUSH2 0xA456 JUMP JUMPDEST JUMPDEST PUSH1 0x20 ADD ADD MLOAD PUSH1 0xF8 SHR PUSH1 0xF8 SHL DUP3 DUP5 DUP1 PUSH2 0x5112 SWAP1 PUSH2 0xA398 JUMP JUMPDEST SWAP6 POP PUSH8 0xFFFFFFFFFFFFFFFF AND DUP2 MLOAD DUP2 LT PUSH2 0x512F JUMPI PUSH2 0x512E PUSH2 0xA456 JUMP JUMPDEST JUMPDEST PUSH1 0x20 ADD ADD SWAP1 PUSH31 0xFFFFFFFFFFFFFFFFFFFFFFFFFFFFFFFFFFFFFFFFFFFFFFFFFFFFFFFFFFFFFF NOT AND SWAP1 DUP2 PUSH1 0x0 BYTE SWAP1 MSTORE8 POP PUSH2 0x50B7 JUMP JUMPDEST PUSH1 0x0 SWAP1 POP JUMPDEST DUP5 PUSH1 0x80 ADD MLOAD MLOAD DUP2 PUSH8 0xFFFFFFFFFFFFFFFF AND LT ISZERO PUSH2 0x5214 JUMPI DUP5 PUSH1 0x80 ADD MLOAD DUP2 DUP1 PUSH2 0x518F SWAP1 PUSH2 0xA398 JUMP JUMPDEST SWAP3 POP PUSH8 0xFFFFFFFFFFFFFFFF AND DUP2 MLOAD DUP2 LT PUSH2 0x51AC JUMPI PUSH2 0x51AB PUSH2 0xA456 JUMP JUMPDEST JUMPDEST PUSH1 0x20 ADD ADD MLOAD PUSH1 0xF8 SHR PUSH1 0xF8 SHL DUP3 DUP5 DUP1 PUSH2 0x51C3 SWAP1 PUSH2 0xA398 JUMP JUMPDEST SWAP6 POP PUSH8 0xFFFFFFFFFFFFFFFF AND DUP2 MLOAD DUP2 LT PUSH2 0x51E0 JUMPI PUSH2 0x51DF PUSH2 0xA456 JUMP JUMPDEST JUMPDEST PUSH1 0x20 ADD ADD SWAP1 PUSH31 0xFFFFFFFFFFFFFFFFFFFFFFFFFFFFFFFFFFFFFFFFFFFFFFFFFFFFFFFFFFFFFF NOT AND SWAP1 DUP2 PUSH1 0x0 BYTE SWAP1 MSTORE8 POP PUSH2 0x5168 JUMP JUMPDEST PUSH1 0x0 SWAP1 POP JUMPDEST DUP5 PUSH1 0xA0 ADD MLOAD MLOAD DUP2 PUSH8 0xFFFFFFFFFFFFFFFF AND LT ISZERO PUSH2 0x52C5 JUMPI DUP5 PUSH1 0xA0 ADD MLOAD DUP2 DUP1 PUSH2 0x5240 SWAP1 PUSH2 0xA398 JUMP JUMPDEST SWAP3 POP PUSH8 0xFFFFFFFFFFFFFFFF AND DUP2 MLOAD DUP2 LT PUSH2 0x525D JUMPI PUSH2 0x525C PUSH2 0xA456 JUMP JUMPDEST JUMPDEST PUSH1 0x20 ADD ADD MLOAD PUSH1 0xF8 SHR PUSH1 0xF8 SHL DUP3 DUP5 DUP1 PUSH2 0x5274 SWAP1 PUSH2 0xA398 JUMP JUMPDEST SWAP6 POP PUSH8 0xFFFFFFFFFFFFFFFF AND DUP2 MLOAD DUP2 LT PUSH2 0x5291 JUMPI PUSH2 0x5290 PUSH2 0xA456 JUMP JUMPDEST JUMPDEST PUSH1 0x20 ADD ADD SWAP1 PUSH31 0xFFFFFFFFFFFFFFFFFFFFFFFFFFFFFFFFFFFFFFFFFFFFFFFFFFFFFFFFFFFFFF NOT AND SWAP1 DUP2 PUSH1 0x0 BYTE SWAP1 MSTORE8 POP PUSH2 0x5219 JUMP JUMPDEST PUSH1 0x0 SWAP1 POP JUMPDEST DUP5 PUSH1 0xC0 ADD MLOAD MLOAD DUP2 PUSH8 0xFFFFFFFFFFFFFFFF AND LT ISZERO PUSH2 0x5376 JUMPI DUP5 PUSH1 0xC0 ADD MLOAD DUP2 DUP1 PUSH2 0x52F1 SWAP1 PUSH2 0xA398 JUMP JUMPDEST SWAP3 POP PUSH8 0xFFFFFFFFFFFFFFFF AND DUP2 MLOAD DUP2 LT PUSH2 0x530E JUMPI PUSH2 0x530D PUSH2 0xA456 JUMP JUMPDEST JUMPDEST PUSH1 0x20 ADD ADD MLOAD PUSH1 0xF8 SHR PUSH1 0xF8 SHL DUP3 DUP5 DUP1 PUSH2 0x5325 SWAP1 PUSH2 0xA398 JUMP JUMPDEST SWAP6 POP PUSH8 0xFFFFFFFFFFFFFFFF AND DUP2 MLOAD DUP2 LT PUSH2 0x5342 JUMPI PUSH2 0x5341 PUSH2 0xA456 JUMP JUMPDEST JUMPDEST PUSH1 0x20 ADD ADD SWAP1 PUSH31 0xFFFFFFFFFFFFFFFFFFFFFFFFFFFFFFFFFFFFFFFFFFFFFFFFFFFFFFFFFFFFFF NOT AND SWAP1 DUP2 PUSH1 0x0 BYTE SWAP1 MSTORE8 POP PUSH2 0x52CA JUMP JUMPDEST PUSH1 0x0 SWAP1 POP JUMPDEST DUP5 PUSH1 0xE0 ADD MLOAD MLOAD DUP2 PUSH8 0xFFFFFFFFFFFFFFFF AND LT ISZERO PUSH2 0x5427 JUMPI DUP5 PUSH1 0xE0 ADD MLOAD DUP2 DUP1 PUSH2 0x53A2 SWAP1 PUSH2 0xA398 JUMP JUMPDEST SWAP3 POP PUSH8 0xFFFFFFFFFFFFFFFF AND DUP2 MLOAD DUP2 LT PUSH2 0x53BF JUMPI PUSH2 0x53BE PUSH2 0xA456 JUMP JUMPDEST JUMPDEST PUSH1 0x20 ADD ADD MLOAD PUSH1 0xF8 SHR PUSH1 0xF8 SHL DUP3 DUP5 DUP1 PUSH2 0x53D6 SWAP1 PUSH2 0xA398 JUMP JUMPDEST SWAP6 POP PUSH8 0xFFFFFFFFFFFFFFFF AND DUP2 MLOAD DUP2 LT PUSH2 0x53F3 JUMPI PUSH2 0x53F2 PUSH2 0xA456 JUMP JUMPDEST JUMPDEST PUSH1 0x20 ADD ADD SWAP1 PUSH31 0xFFFFFFFFFFFFFFFFFFFFFFFFFFFFFFFFFFFFFFFFFFFFFFFFFFFFFFFFFFFFFF NOT AND SWAP1 DUP2 PUSH1 0x0 BYTE SWAP1 MSTORE8 POP PUSH2 0x537B JUMP JUMPDEST DUP2 SWAP6 POP POP POP POP POP POP SWAP2 SWAP1 POP JUMP JUMPDEST PUSH1 0x0 PUSH1 0x1 DUP4 PUSH8 0xFFFFFFFFFFFFFFFF AND EQ ISZERO PUSH2 0x5478 JUMPI PUSH1 0x0 PUSH1 0x6 DUP2 GT ISZERO PUSH2 0x545D JUMPI PUSH2 0x545C PUSH2 0xA3F8 JUMP JUMPDEST JUMPDEST DUP3 PUSH1 0x6 DUP2 GT ISZERO PUSH2 0x5470 JUMPI PUSH2 0x546F PUSH2 0xA3F8 JUMP JUMPDEST JUMPDEST EQ SWAP1 POP PUSH2 0x5501 JUMP JUMPDEST PUSH1 0x2 DUP4 PUSH8 0xFFFFFFFFFFFFFFFF AND EQ ISZERO PUSH2 0x54BA JUMPI PUSH1 0x0 PUSH1 0x6 DUP2 GT ISZERO PUSH2 0x549F JUMPI PUSH2 0x549E PUSH2 0xA3F8 JUMP JUMPDEST JUMPDEST DUP3 PUSH1 0x6 DUP2 GT ISZERO PUSH2 0x54B2 JUMPI PUSH2 0x54B1 PUSH2 0xA3F8 JUMP JUMPDEST JUMPDEST EQ SWAP1 POP PUSH2 0x5501 JUMP JUMPDEST PUSH1 0x3 DUP4 PUSH8 0xFFFFFFFFFFFFFFFF AND EQ ISZERO PUSH2 0x54FC JUMPI PUSH1 0x2 PUSH1 0x6 DUP2 GT ISZERO PUSH2 0x54E1 JUMPI PUSH2 0x54E0 PUSH2 0xA3F8 JUMP JUMPDEST JUMPDEST DUP3 PUSH1 0x6 DUP2 GT ISZERO PUSH2 0x54F4 JUMPI PUSH2 0x54F3 PUSH2 0xA3F8 JUMP JUMPDEST JUMPDEST EQ SWAP1 POP PUSH2 0x5501 JUMP JUMPDEST PUSH1 0x0 SWAP1 POP JUMPDEST SWAP3 SWAP2 POP POP JUMP JUMPDEST PUSH1 0x0 DUP1 PUSH1 0x0 DUP8 SWAP1 POP PUSH1 0x1 DUP6 PUSH8 0xFFFFFFFFFFFFFFFF AND EQ ISZERO PUSH2 0x5558 JUMPI PUSH1 0x0 PUSH2 0x552F DUP3 DUP10 DUP8 PUSH2 0x839A JUMP JUMPDEST DUP1 SWAP4 POP DUP2 SWAP3 POP POP POP DUP1 PUSH2 0x554A JUMPI PUSH1 0x0 DUP3 SWAP4 POP SWAP4 POP POP POP PUSH2 0x55F3 JUMP JUMPDEST PUSH1 0x1 DUP3 SWAP4 POP SWAP4 POP POP POP PUSH2 0x55F3 JUMP JUMPDEST PUSH1 0x2 DUP6 PUSH8 0xFFFFFFFFFFFFFFFF AND EQ ISZERO PUSH2 0x55A1 JUMPI PUSH1 0x0 PUSH2 0x5578 DUP3 DUP10 DUP8 PUSH2 0x841C JUMP JUMPDEST DUP1 SWAP4 POP DUP2 SWAP3 POP POP POP DUP1 PUSH2 0x5593 JUMPI PUSH1 0x0 DUP3 SWAP4 POP SWAP4 POP POP POP PUSH2 0x55F3 JUMP JUMPDEST PUSH1 0x1 DUP3 SWAP4 POP SWAP4 POP POP POP PUSH2 0x55F3 JUMP JUMPDEST PUSH1 0x3 DUP6 PUSH8 0xFFFFFFFFFFFFFFFF AND EQ ISZERO PUSH2 0x55EA JUMPI PUSH1 0x0 PUSH2 0x55C1 DUP3 DUP10 DUP8 PUSH2 0x849E JUMP JUMPDEST DUP1 SWAP4 POP DUP2 SWAP3 POP POP POP DUP1 PUSH2 0x55DC JUMPI PUSH1 0x0 DUP3 SWAP4 POP SWAP4 POP POP POP PUSH2 0x55F3 JUMP JUMPDEST PUSH1 0x1 DUP3 SWAP4 POP SWAP4 POP POP POP PUSH2 0x55F3 JUMP JUMPDEST PUSH1 0x0 DUP2 SWAP3 POP SWAP3 POP POP JUMPDEST SWAP6 POP SWAP6 SWAP4 POP POP POP POP JUMP JUMPDEST PUSH1 0x60 PUSH2 0x5607 PUSH2 0x92BF JUMP JUMPDEST PUSH1 0x0 DUP1 PUSH1 0x0 DUP6 PUSH1 0x0 ADD MLOAD PUSH8 0xFFFFFFFFFFFFFFFF AND EQ PUSH2 0x565C JUMPI PUSH2 0x563E PUSH1 0x1 PUSH1 0x0 PUSH1 0x6 DUP2 GT ISZERO PUSH2 0x5639 JUMPI PUSH2 0x5638 PUSH2 0xA3F8 JUMP JUMPDEST JUMPDEST PUSH2 0x7C41 JUMP JUMPDEST DUP4 PUSH1 0x0 ADD DUP2 SWAP1 MSTORE POP PUSH2 0x5653 DUP6 PUSH1 0x0 ADD MLOAD PUSH2 0x7C70 JUMP JUMPDEST DUP4 PUSH1 0x20 ADD DUP2 SWAP1 MSTORE POP JUMPDEST PUSH1 0x0 DUP6 PUSH1 0x20 ADD MLOAD PUSH8 0xFFFFFFFFFFFFFFFF AND EQ PUSH2 0x56AE JUMPI PUSH2 0x5690 PUSH1 0x2 PUSH1 0x0 PUSH1 0x6 DUP2 GT ISZERO PUSH2 0x568B JUMPI PUSH2 0x568A PUSH2 0xA3F8 JUMP JUMPDEST JUMPDEST PUSH2 0x7C41 JUMP JUMPDEST DUP4 PUSH1 0x40 ADD DUP2 SWAP1 MSTORE POP PUSH2 0x56A5 DUP6 PUSH1 0x20 ADD MLOAD PUSH2 0x7C70 JUMP JUMPDEST DUP4 PUSH1 0x60 ADD DUP2 SWAP1 MSTORE POP JUMPDEST PUSH1 0x0 DUP6 PUSH1 0x40 ADD MLOAD MLOAD GT ISZERO PUSH2 0x5706 JUMPI PUSH2 0x56DA PUSH1 0x3 PUSH1 0x2 PUSH1 0x6 DUP2 GT ISZERO PUSH2 0x56D5 JUMPI PUSH2 0x56D4 PUSH2 0xA3F8 JUMP JUMPDEST JUMPDEST PUSH2 0x7C41 JUMP JUMPDEST DUP4 PUSH1 0x80 ADD DUP2 SWAP1 MSTORE POP PUSH2 0x56F0 DUP6 PUSH1 0x40 ADD MLOAD MLOAD PUSH2 0x7C70 JUMP JUMPDEST DUP4 PUSH1 0xA0 ADD DUP2 SWAP1 MSTORE POP DUP5 PUSH1 0x40 ADD MLOAD DUP4 PUSH1 0xC0 ADD DUP2 SWAP1 MSTORE POP JUMPDEST PUSH1 0x60 PUSH1 0x0 SWAP2 POP PUSH1 0x0 SWAP3 POP DUP4 PUSH1 0x0 ADD MLOAD MLOAD DUP4 PUSH2 0x5721 SWAP2 SWAP1 PUSH2 0xA13F JUMP JUMPDEST SWAP3 POP DUP4 PUSH1 0x20 ADD MLOAD MLOAD DUP4 PUSH2 0x5734 SWAP2 SWAP1 PUSH2 0xA13F JUMP JUMPDEST SWAP3 POP DUP4 PUSH1 0x40 ADD MLOAD MLOAD DUP4 PUSH2 0x5747 SWAP2 SWAP1 PUSH2 0xA13F JUMP JUMPDEST SWAP3 POP DUP4 PUSH1 0x60 ADD MLOAD MLOAD DUP4 PUSH2 0x575A SWAP2 SWAP1 PUSH2 0xA13F JUMP JUMPDEST SWAP3 POP DUP4 PUSH1 0x80 ADD MLOAD MLOAD DUP4 PUSH2 0x576D SWAP2 SWAP1 PUSH2 0xA13F JUMP JUMPDEST SWAP3 POP DUP4 PUSH1 0xA0 ADD MLOAD MLOAD DUP4 PUSH2 0x5780 SWAP2 SWAP1 PUSH2 0xA13F JUMP JUMPDEST SWAP3 POP DUP4 PUSH1 0xC0 ADD MLOAD MLOAD DUP4 PUSH2 0x5793 SWAP2 SWAP1 PUSH2 0xA13F JUMP JUMPDEST SWAP3 POP DUP3 PUSH8 0xFFFFFFFFFFFFFFFF AND PUSH8 0xFFFFFFFFFFFFFFFF DUP2 GT ISZERO PUSH2 0x57B9 JUMPI PUSH2 0x57B8 PUSH2 0xA485 JUMP JUMPDEST JUMPDEST PUSH1 0x40 MLOAD SWAP1 DUP1 DUP3 MSTORE DUP1 PUSH1 0x1F ADD PUSH1 0x1F NOT AND PUSH1 0x20 ADD DUP3 ADD PUSH1 0x40 MSTORE DUP1 ISZERO PUSH2 0x57EB JUMPI DUP2 PUSH1 0x20 ADD PUSH1 0x1 DUP3 MUL DUP1 CALLDATASIZE DUP4 CALLDATACOPY DUP1 DUP3 ADD SWAP2 POP POP SWAP1 POP JUMPDEST POP SWAP1 POP PUSH1 0x0 JUMPDEST DUP5 PUSH1 0x0 ADD MLOAD MLOAD DUP2 PUSH8 0xFFFFFFFFFFFFFFFF AND LT ISZERO PUSH2 0x589D JUMPI DUP5 PUSH1 0x0 ADD MLOAD DUP2 DUP1 PUSH2 0x5818 SWAP1 PUSH2 0xA398 JUMP JUMPDEST SWAP3 POP PUSH8 0xFFFFFFFFFFFFFFFF AND DUP2 MLOAD DUP2 LT PUSH2 0x5835 JUMPI PUSH2 0x5834 PUSH2 0xA456 JUMP JUMPDEST JUMPDEST PUSH1 0x20 ADD ADD MLOAD PUSH1 0xF8 SHR PUSH1 0xF8 SHL DUP3 DUP5 DUP1 PUSH2 0x584C SWAP1 PUSH2 0xA398 JUMP JUMPDEST SWAP6 POP PUSH8 0xFFFFFFFFFFFFFFFF AND DUP2 MLOAD DUP2 LT PUSH2 0x5869 JUMPI PUSH2 0x5868 PUSH2 0xA456 JUMP JUMPDEST JUMPDEST PUSH1 0x20 ADD ADD SWAP1 PUSH31 0xFFFFFFFFFFFFFFFFFFFFFFFFFFFFFFFFFFFFFFFFFFFFFFFFFFFFFFFFFFFFFF NOT AND SWAP1 DUP2 PUSH1 0x0 BYTE SWAP1 MSTORE8 POP PUSH2 0x57F1 JUMP JUMPDEST PUSH1 0x0 SWAP1 POP JUMPDEST DUP5 PUSH1 0x20 ADD MLOAD MLOAD DUP2 PUSH8 0xFFFFFFFFFFFFFFFF AND LT ISZERO PUSH2 0x594E JUMPI DUP5 PUSH1 0x20 ADD MLOAD DUP2 DUP1 PUSH2 0x58C9 SWAP1 PUSH2 0xA398 JUMP JUMPDEST SWAP3 POP PUSH8 0xFFFFFFFFFFFFFFFF AND DUP2 MLOAD DUP2 LT PUSH2 0x58E6 JUMPI PUSH2 0x58E5 PUSH2 0xA456 JUMP JUMPDEST JUMPDEST PUSH1 0x20 ADD ADD MLOAD PUSH1 0xF8 SHR PUSH1 0xF8 SHL DUP3 DUP5 DUP1 PUSH2 0x58FD SWAP1 PUSH2 0xA398 JUMP JUMPDEST SWAP6 POP PUSH8 0xFFFFFFFFFFFFFFFF AND DUP2 MLOAD DUP2 LT PUSH2 0x591A JUMPI PUSH2 0x5919 PUSH2 0xA456 JUMP JUMPDEST JUMPDEST PUSH1 0x20 ADD ADD SWAP1 PUSH31 0xFFFFFFFFFFFFFFFFFFFFFFFFFFFFFFFFFFFFFFFFFFFFFFFFFFFFFFFFFFFFFF NOT AND SWAP1 DUP2 PUSH1 0x0 BYTE SWAP1 MSTORE8 POP PUSH2 0x58A2 JUMP JUMPDEST PUSH1 0x0 SWAP1 POP JUMPDEST DUP5 PUSH1 0x40 ADD MLOAD MLOAD DUP2 PUSH8 0xFFFFFFFFFFFFFFFF AND LT ISZERO PUSH2 0x59FF JUMPI DUP5 PUSH1 0x40 ADD MLOAD DUP2 DUP1 PUSH2 0x597A SWAP1 PUSH2 0xA398 JUMP JUMPDEST SWAP3 POP PUSH8 0xFFFFFFFFFFFFFFFF AND DUP2 MLOAD DUP2 LT PUSH2 0x5997 JUMPI PUSH2 0x5996 PUSH2 0xA456 JUMP JUMPDEST JUMPDEST PUSH1 0x20 ADD ADD MLOAD PUSH1 0xF8 SHR PUSH1 0xF8 SHL DUP3 DUP5 DUP1 PUSH2 0x59AE SWAP1 PUSH2 0xA398 JUMP JUMPDEST SWAP6 POP PUSH8 0xFFFFFFFFFFFFFFFF AND DUP2 MLOAD DUP2 LT PUSH2 0x59CB JUMPI PUSH2 0x59CA PUSH2 0xA456 JUMP JUMPDEST JUMPDEST PUSH1 0x20 ADD ADD SWAP1 PUSH31 0xFFFFFFFFFFFFFFFFFFFFFFFFFFFFFFFFFFFFFFFFFFFFFFFFFFFFFFFFFFFFFF NOT AND SWAP1 DUP2 PUSH1 0x0 BYTE SWAP1 MSTORE8 POP PUSH2 0x5953 JUMP JUMPDEST PUSH1 0x0 SWAP1 POP JUMPDEST DUP5 PUSH1 0x60 ADD MLOAD MLOAD DUP2 PUSH8 0xFFFFFFFFFFFFFFFF AND LT ISZERO PUSH2 0x5AB0 JUMPI DUP5 PUSH1 0x60 ADD MLOAD DUP2 DUP1 PUSH2 0x5A2B SWAP1 PUSH2 0xA398 JUMP JUMPDEST SWAP3 POP PUSH8 0xFFFFFFFFFFFFFFFF AND DUP2 MLOAD DUP2 LT PUSH2 0x5A48 JUMPI PUSH2 0x5A47 PUSH2 0xA456 JUMP JUMPDEST JUMPDEST PUSH1 0x20 ADD ADD MLOAD PUSH1 0xF8 SHR PUSH1 0xF8 SHL DUP3 DUP5 DUP1 PUSH2 0x5A5F SWAP1 PUSH2 0xA398 JUMP JUMPDEST SWAP6 POP PUSH8 0xFFFFFFFFFFFFFFFF AND DUP2 MLOAD DUP2 LT PUSH2 0x5A7C JUMPI PUSH2 0x5A7B PUSH2 0xA456 JUMP JUMPDEST JUMPDEST PUSH1 0x20 ADD ADD SWAP1 PUSH31 0xFFFFFFFFFFFFFFFFFFFFFFFFFFFFFFFFFFFFFFFFFFFFFFFFFFFFFFFFFFFFFF NOT AND SWAP1 DUP2 PUSH1 0x0 BYTE SWAP1 MSTORE8 POP PUSH2 0x5A04 JUMP JUMPDEST PUSH1 0x0 SWAP1 POP JUMPDEST DUP5 PUSH1 0x80 ADD MLOAD MLOAD DUP2 PUSH8 0xFFFFFFFFFFFFFFFF AND LT ISZERO PUSH2 0x5B61 JUMPI DUP5 PUSH1 0x80 ADD MLOAD DUP2 DUP1 PUSH2 0x5ADC SWAP1 PUSH2 0xA398 JUMP JUMPDEST SWAP3 POP PUSH8 0xFFFFFFFFFFFFFFFF AND DUP2 MLOAD DUP2 LT PUSH2 0x5AF9 JUMPI PUSH2 0x5AF8 PUSH2 0xA456 JUMP JUMPDEST JUMPDEST PUSH1 0x20 ADD ADD MLOAD PUSH1 0xF8 SHR PUSH1 0xF8 SHL DUP3 DUP5 DUP1 PUSH2 0x5B10 SWAP1 PUSH2 0xA398 JUMP JUMPDEST SWAP6 POP PUSH8 0xFFFFFFFFFFFFFFFF AND DUP2 MLOAD DUP2 LT PUSH2 0x5B2D JUMPI PUSH2 0x5B2C PUSH2 0xA456 JUMP JUMPDEST JUMPDEST PUSH1 0x20 ADD ADD SWAP1 PUSH31 0xFFFFFFFFFFFFFFFFFFFFFFFFFFFFFFFFFFFFFFFFFFFFFFFFFFFFFFFFFFFFFF NOT AND SWAP1 DUP2 PUSH1 0x0 BYTE SWAP1 MSTORE8 POP PUSH2 0x5AB5 JUMP JUMPDEST PUSH1 0x0 SWAP1 POP JUMPDEST DUP5 PUSH1 0xA0 ADD MLOAD MLOAD DUP2 PUSH8 0xFFFFFFFFFFFFFFFF AND LT ISZERO PUSH2 0x5C12 JUMPI DUP5 PUSH1 0xA0 ADD MLOAD DUP2 DUP1 PUSH2 0x5B8D SWAP1 PUSH2 0xA398 JUMP JUMPDEST SWAP3 POP PUSH8 0xFFFFFFFFFFFFFFFF AND DUP2 MLOAD DUP2 LT PUSH2 0x5BAA JUMPI PUSH2 0x5BA9 PUSH2 0xA456 JUMP JUMPDEST JUMPDEST PUSH1 0x20 ADD ADD MLOAD PUSH1 0xF8 SHR PUSH1 0xF8 SHL DUP3 DUP5 DUP1 PUSH2 0x5BC1 SWAP1 PUSH2 0xA398 JUMP JUMPDEST SWAP6 POP PUSH8 0xFFFFFFFFFFFFFFFF AND DUP2 MLOAD DUP2 LT PUSH2 0x5BDE JUMPI PUSH2 0x5BDD PUSH2 0xA456 JUMP JUMPDEST JUMPDEST PUSH1 0x20 ADD ADD SWAP1 PUSH31 0xFFFFFFFFFFFFFFFFFFFFFFFFFFFFFFFFFFFFFFFFFFFFFFFFFFFFFFFFFFFFFF NOT AND SWAP1 DUP2 PUSH1 0x0 BYTE SWAP1 MSTORE8 POP PUSH2 0x5B66 JUMP JUMPDEST PUSH1 0x0 SWAP1 POP JUMPDEST DUP5 PUSH1 0xC0 ADD MLOAD MLOAD DUP2 PUSH8 0xFFFFFFFFFFFFFFFF AND LT ISZERO PUSH2 0x5CC3 JUMPI DUP5 PUSH1 0xC0 ADD MLOAD DUP2 DUP1 PUSH2 0x5C3E SWAP1 PUSH2 0xA398 JUMP JUMPDEST SWAP3 POP PUSH8 0xFFFFFFFFFFFFFFFF AND DUP2 MLOAD DUP2 LT PUSH2 0x5C5B JUMPI PUSH2 0x5C5A PUSH2 0xA456 JUMP JUMPDEST JUMPDEST PUSH1 0x20 ADD ADD MLOAD PUSH1 0xF8 SHR PUSH1 0xF8 SHL DUP3 DUP5 DUP1 PUSH2 0x5C72 SWAP1 PUSH2 0xA398 JUMP JUMPDEST SWAP6 POP PUSH8 0xFFFFFFFFFFFFFFFF AND DUP2 MLOAD DUP2 LT PUSH2 0x5C8F JUMPI PUSH2 0x5C8E PUSH2 0xA456 JUMP JUMPDEST JUMPDEST PUSH1 0x20 ADD ADD SWAP1 PUSH31 0xFFFFFFFFFFFFFFFFFFFFFFFFFFFFFFFFFFFFFFFFFFFFFFFFFFFFFFFFFFFFFF NOT AND SWAP1 DUP2 PUSH1 0x0 BYTE SWAP1 MSTORE8 POP PUSH2 0x5C17 JUMP JUMPDEST DUP2 SWAP6 POP POP POP POP POP POP SWAP2 SWAP1 POP JUMP JUMPDEST PUSH1 0x0 PUSH1 0x1 DUP4 PUSH8 0xFFFFFFFFFFFFFFFF AND EQ ISZERO PUSH2 0x5D14 JUMPI PUSH1 0x0 PUSH1 0x6 DUP2 GT ISZERO PUSH2 0x5CF9 JUMPI PUSH2 0x5CF8 PUSH2 0xA3F8 JUMP JUMPDEST JUMPDEST DUP3 PUSH1 0x6 DUP2 GT ISZERO PUSH2 0x5D0C JUMPI PUSH2 0x5D0B PUSH2 0xA3F8 JUMP JUMPDEST JUMPDEST EQ SWAP1 POP PUSH2 0x5D5B JUMP JUMPDEST PUSH1 0x2 DUP4 PUSH8 0xFFFFFFFFFFFFFFFF AND EQ ISZERO PUSH2 0x5D56 JUMPI PUSH1 0x2 PUSH1 0x6 DUP2 GT ISZERO PUSH2 0x5D3B JUMPI PUSH2 0x5D3A PUSH2 0xA3F8 JUMP JUMPDEST JUMPDEST DUP3 PUSH1 0x6 DUP2 GT ISZERO PUSH2 0x5D4E JUMPI PUSH2 0x5D4D PUSH2 0xA3F8 JUMP JUMPDEST JUMPDEST EQ SWAP1 POP PUSH2 0x5D5B JUMP JUMPDEST PUSH1 0x0 SWAP1 POP JUMPDEST SWAP3 SWAP2 POP POP JUMP JUMPDEST PUSH1 0x0 DUP1 PUSH1 0x0 DUP8 SWAP1 POP PUSH1 0x1 DUP6 PUSH8 0xFFFFFFFFFFFFFFFF AND EQ ISZERO PUSH2 0x5DB2 JUMPI PUSH1 0x0 PUSH2 0x5D89 DUP3 DUP10 DUP8 PUSH2 0x8623 JUMP JUMPDEST DUP1 SWAP4 POP DUP2 SWAP3 POP POP POP DUP1 PUSH2 0x5DA4 JUMPI PUSH1 0x0 DUP3 SWAP4 POP SWAP4 POP POP POP PUSH2 0x5E04 JUMP JUMPDEST PUSH1 0x1 DUP3 SWAP4 POP SWAP4 POP POP POP PUSH2 0x5E04 JUMP JUMPDEST PUSH1 0x2 DUP6 PUSH8 0xFFFFFFFFFFFFFFFF AND EQ ISZERO PUSH2 0x5DFB JUMPI PUSH1 0x0 PUSH2 0x5DD2 DUP3 DUP10 DUP8 PUSH2 0x86A5 JUMP JUMPDEST DUP1 SWAP4 POP DUP2 SWAP3 POP POP POP DUP1 PUSH2 0x5DED JUMPI PUSH1 0x0 DUP3 SWAP4 POP SWAP4 POP POP POP PUSH2 0x5E04 JUMP JUMPDEST PUSH1 0x1 DUP3 SWAP4 POP SWAP4 POP POP POP PUSH2 0x5E04 JUMP JUMPDEST PUSH1 0x0 DUP2 SWAP3 POP SWAP3 POP POP JUMPDEST SWAP6 POP SWAP6 SWAP4 POP POP POP POP JUMP JUMPDEST PUSH1 0x60 PUSH2 0x5E18 PUSH2 0x92FC JUMP JUMPDEST PUSH1 0x0 DUP1 PUSH1 0x0 DUP6 PUSH1 0x0 ADD MLOAD PUSH8 0xFFFFFFFFFFFFFFFF AND EQ PUSH2 0x5E6D JUMPI PUSH2 0x5E4F PUSH1 0x1 PUSH1 0x0 PUSH1 0x6 DUP2 GT ISZERO PUSH2 0x5E4A JUMPI PUSH2 0x5E49 PUSH2 0xA3F8 JUMP JUMPDEST JUMPDEST PUSH2 0x7C41 JUMP JUMPDEST DUP4 PUSH1 0x0 ADD DUP2 SWAP1 MSTORE POP PUSH2 0x5E64 DUP6 PUSH1 0x0 ADD MLOAD PUSH2 0x7C70 JUMP JUMPDEST DUP4 PUSH1 0x20 ADD DUP2 SWAP1 MSTORE POP JUMPDEST PUSH1 0x0 DUP6 PUSH1 0x20 ADD MLOAD PUSH8 0xFFFFFFFFFFFFFFFF AND EQ PUSH2 0x5EBF JUMPI PUSH2 0x5EA1 PUSH1 0x2 PUSH1 0x0 PUSH1 0x6 DUP2 GT ISZERO PUSH2 0x5E9C JUMPI PUSH2 0x5E9B PUSH2 0xA3F8 JUMP JUMPDEST JUMPDEST PUSH2 0x7C41 JUMP JUMPDEST DUP4 PUSH1 0x40 ADD DUP2 SWAP1 MSTORE POP PUSH2 0x5EB6 DUP6 PUSH1 0x20 ADD MLOAD PUSH2 0x7C70 JUMP JUMPDEST DUP4 PUSH1 0x60 ADD DUP2 SWAP1 MSTORE POP JUMPDEST PUSH1 0x0 DUP6 PUSH1 0x40 ADD MLOAD PUSH8 0xFFFFFFFFFFFFFFFF AND EQ PUSH2 0x5F11 JUMPI PUSH2 0x5EF3 PUSH1 0x3 PUSH1 0x0 PUSH1 0x6 DUP2 GT ISZERO PUSH2 0x5EEE JUMPI PUSH2 0x5EED PUSH2 0xA3F8 JUMP JUMPDEST JUMPDEST PUSH2 0x7C41 JUMP JUMPDEST DUP4 PUSH1 0x80 ADD DUP2 SWAP1 MSTORE POP PUSH2 0x5F08 DUP6 PUSH1 0x40 ADD MLOAD PUSH2 0x7C70 JUMP JUMPDEST DUP4 PUSH1 0xA0 ADD DUP2 SWAP1 MSTORE POP JUMPDEST PUSH1 0x0 DUP6 PUSH1 0x60 ADD MLOAD MLOAD GT ISZERO PUSH2 0x5F6A JUMPI PUSH2 0x5F3D PUSH1 0x4 PUSH1 0x2 PUSH1 0x6 DUP2 GT ISZERO PUSH2 0x5F38 JUMPI PUSH2 0x5F37 PUSH2 0xA3F8 JUMP JUMPDEST JUMPDEST PUSH2 0x7C41 JUMP JUMPDEST DUP4 PUSH1 0xC0 ADD DUP2 SWAP1 MSTORE POP PUSH2 0x5F53 DUP6 PUSH1 0x60 ADD MLOAD MLOAD PUSH2 0x7C70 JUMP JUMPDEST DUP4 PUSH1 0xE0 ADD DUP2 SWAP1 MSTORE POP DUP5 PUSH1 0x60 ADD MLOAD DUP4 PUSH2 0x100 ADD DUP2 SWAP1 MSTORE POP JUMPDEST PUSH1 0x60 PUSH1 0x0 SWAP2 POP PUSH1 0x0 SWAP3 POP DUP4 PUSH1 0x0 ADD MLOAD MLOAD DUP4 PUSH2 0x5F85 SWAP2 SWAP1 PUSH2 0xA13F JUMP JUMPDEST SWAP3 POP DUP4 PUSH1 0x20 ADD MLOAD MLOAD DUP4 PUSH2 0x5F98 SWAP2 SWAP1 PUSH2 0xA13F JUMP JUMPDEST SWAP3 POP DUP4 PUSH1 0x40 ADD MLOAD MLOAD DUP4 PUSH2 0x5FAB SWAP2 SWAP1 PUSH2 0xA13F JUMP JUMPDEST SWAP3 POP DUP4 PUSH1 0x60 ADD MLOAD MLOAD DUP4 PUSH2 0x5FBE SWAP2 SWAP1 PUSH2 0xA13F JUMP JUMPDEST SWAP3 POP DUP4 PUSH1 0x80 ADD MLOAD MLOAD DUP4 PUSH2 0x5FD1 SWAP2 SWAP1 PUSH2 0xA13F JUMP JUMPDEST SWAP3 POP DUP4 PUSH1 0xA0 ADD MLOAD MLOAD DUP4 PUSH2 0x5FE4 SWAP2 SWAP1 PUSH2 0xA13F JUMP JUMPDEST SWAP3 POP DUP4 PUSH1 0xC0 ADD MLOAD MLOAD DUP4 PUSH2 0x5FF7 SWAP2 SWAP1 PUSH2 0xA13F JUMP JUMPDEST SWAP3 POP DUP4 PUSH1 0xE0 ADD MLOAD MLOAD DUP4 PUSH2 0x600A SWAP2 SWAP1 PUSH2 0xA13F JUMP JUMPDEST SWAP3 POP DUP4 PUSH2 0x100 ADD MLOAD MLOAD DUP4 PUSH2 0x601E SWAP2 SWAP1 PUSH2 0xA13F JUMP JUMPDEST SWAP3 POP DUP3 PUSH8 0xFFFFFFFFFFFFFFFF AND PUSH8 0xFFFFFFFFFFFFFFFF DUP2 GT ISZERO PUSH2 0x6044 JUMPI PUSH2 0x6043 PUSH2 0xA485 JUMP JUMPDEST JUMPDEST PUSH1 0x40 MLOAD SWAP1 DUP1 DUP3 MSTORE DUP1 PUSH1 0x1F ADD PUSH1 0x1F NOT AND PUSH1 0x20 ADD DUP3 ADD PUSH1 0x40 MSTORE DUP1 ISZERO PUSH2 0x6076 JUMPI DUP2 PUSH1 0x20 ADD PUSH1 0x1 DUP3 MUL DUP1 CALLDATASIZE DUP4 CALLDATACOPY DUP1 DUP3 ADD SWAP2 POP POP SWAP1 POP JUMPDEST POP SWAP1 POP PUSH1 0x0 JUMPDEST DUP5 PUSH1 0x0 ADD MLOAD MLOAD DUP2 PUSH8 0xFFFFFFFFFFFFFFFF AND LT ISZERO PUSH2 0x6128 JUMPI DUP5 PUSH1 0x0 ADD MLOAD DUP2 DUP1 PUSH2 0x60A3 SWAP1 PUSH2 0xA398 JUMP JUMPDEST SWAP3 POP PUSH8 0xFFFFFFFFFFFFFFFF AND DUP2 MLOAD DUP2 LT PUSH2 0x60C0 JUMPI PUSH2 0x60BF PUSH2 0xA456 JUMP JUMPDEST JUMPDEST PUSH1 0x20 ADD ADD MLOAD PUSH1 0xF8 SHR PUSH1 0xF8 SHL DUP3 DUP5 DUP1 PUSH2 0x60D7 SWAP1 PUSH2 0xA398 JUMP JUMPDEST SWAP6 POP PUSH8 0xFFFFFFFFFFFFFFFF AND DUP2 MLOAD DUP2 LT PUSH2 0x60F4 JUMPI PUSH2 0x60F3 PUSH2 0xA456 JUMP JUMPDEST JUMPDEST PUSH1 0x20 ADD ADD SWAP1 PUSH31 0xFFFFFFFFFFFFFFFFFFFFFFFFFFFFFFFFFFFFFFFFFFFFFFFFFFFFFFFFFFFFFF NOT AND SWAP1 DUP2 PUSH1 0x0 BYTE SWAP1 MSTORE8 POP PUSH2 0x607C JUMP JUMPDEST PUSH1 0x0 SWAP1 POP JUMPDEST DUP5 PUSH1 0x20 ADD MLOAD MLOAD DUP2 PUSH8 0xFFFFFFFFFFFFFFFF AND LT ISZERO PUSH2 0x61D9 JUMPI DUP5 PUSH1 0x20 ADD MLOAD DUP2 DUP1 PUSH2 0x6154 SWAP1 PUSH2 0xA398 JUMP JUMPDEST SWAP3 POP PUSH8 0xFFFFFFFFFFFFFFFF AND DUP2 MLOAD DUP2 LT PUSH2 0x6171 JUMPI PUSH2 0x6170 PUSH2 0xA456 JUMP JUMPDEST JUMPDEST PUSH1 0x20 ADD ADD MLOAD PUSH1 0xF8 SHR PUSH1 0xF8 SHL DUP3 DUP5 DUP1 PUSH2 0x6188 SWAP1 PUSH2 0xA398 JUMP JUMPDEST SWAP6 POP PUSH8 0xFFFFFFFFFFFFFFFF AND DUP2 MLOAD DUP2 LT PUSH2 0x61A5 JUMPI PUSH2 0x61A4 PUSH2 0xA456 JUMP JUMPDEST JUMPDEST PUSH1 0x20 ADD ADD SWAP1 PUSH31 0xFFFFFFFFFFFFFFFFFFFFFFFFFFFFFFFFFFFFFFFFFFFFFFFFFFFFFFFFFFFFFF NOT AND SWAP1 DUP2 PUSH1 0x0 BYTE SWAP1 MSTORE8 POP PUSH2 0x612D JUMP JUMPDEST PUSH1 0x0 SWAP1 POP JUMPDEST DUP5 PUSH1 0x40 ADD MLOAD MLOAD DUP2 PUSH8 0xFFFFFFFFFFFFFFFF AND LT ISZERO PUSH2 0x628A JUMPI DUP5 PUSH1 0x40 ADD MLOAD DUP2 DUP1 PUSH2 0x6205 SWAP1 PUSH2 0xA398 JUMP JUMPDEST SWAP3 POP PUSH8 0xFFFFFFFFFFFFFFFF AND DUP2 MLOAD DUP2 LT PUSH2 0x6222 JUMPI PUSH2 0x6221 PUSH2 0xA456 JUMP JUMPDEST JUMPDEST PUSH1 0x20 ADD ADD MLOAD PUSH1 0xF8 SHR PUSH1 0xF8 SHL DUP3 DUP5 DUP1 PUSH2 0x6239 SWAP1 PUSH2 0xA398 JUMP JUMPDEST SWAP6 POP PUSH8 0xFFFFFFFFFFFFFFFF AND DUP2 MLOAD DUP2 LT PUSH2 0x6256 JUMPI PUSH2 0x6255 PUSH2 0xA456 JUMP JUMPDEST JUMPDEST PUSH1 0x20 ADD ADD SWAP1 PUSH31 0xFFFFFFFFFFFFFFFFFFFFFFFFFFFFFFFFFFFFFFFFFFFFFFFFFFFFFFFFFFFFFF NOT AND SWAP1 DUP2 PUSH1 0x0 BYTE SWAP1 MSTORE8 POP PUSH2 0x61DE JUMP JUMPDEST PUSH1 0x0 SWAP1 POP JUMPDEST DUP5 PUSH1 0x60 ADD MLOAD MLOAD DUP2 PUSH8 0xFFFFFFFFFFFFFFFF AND LT ISZERO PUSH2 0x633B JUMPI DUP5 PUSH1 0x60 ADD MLOAD DUP2 DUP1 PUSH2 0x62B6 SWAP1 PUSH2 0xA398 JUMP JUMPDEST SWAP3 POP PUSH8 0xFFFFFFFFFFFFFFFF AND DUP2 MLOAD DUP2 LT PUSH2 0x62D3 JUMPI PUSH2 0x62D2 PUSH2 0xA456 JUMP JUMPDEST JUMPDEST PUSH1 0x20 ADD ADD MLOAD PUSH1 0xF8 SHR PUSH1 0xF8 SHL DUP3 DUP5 DUP1 PUSH2 0x62EA SWAP1 PUSH2 0xA398 JUMP JUMPDEST SWAP6 POP PUSH8 0xFFFFFFFFFFFFFFFF AND DUP2 MLOAD DUP2 LT PUSH2 0x6307 JUMPI PUSH2 0x6306 PUSH2 0xA456 JUMP JUMPDEST JUMPDEST PUSH1 0x20 ADD ADD SWAP1 PUSH31 0xFFFFFFFFFFFFFFFFFFFFFFFFFFFFFFFFFFFFFFFFFFFFFFFFFFFFFFFFFFFFFF NOT AND SWAP1 DUP2 PUSH1 0x0 BYTE SWAP1 MSTORE8 POP PUSH2 0x628F JUMP JUMPDEST PUSH1 0x0 SWAP1 POP JUMPDEST DUP5 PUSH1 0x80 ADD MLOAD MLOAD DUP2 PUSH8 0xFFFFFFFFFFFFFFFF AND LT ISZERO PUSH2 0x63EC JUMPI DUP5 PUSH1 0x80 ADD MLOAD DUP2 DUP1 PUSH2 0x6367 SWAP1 PUSH2 0xA398 JUMP JUMPDEST SWAP3 POP PUSH8 0xFFFFFFFFFFFFFFFF AND DUP2 MLOAD DUP2 LT PUSH2 0x6384 JUMPI PUSH2 0x6383 PUSH2 0xA456 JUMP JUMPDEST JUMPDEST PUSH1 0x20 ADD ADD MLOAD PUSH1 0xF8 SHR PUSH1 0xF8 SHL DUP3 DUP5 DUP1 PUSH2 0x639B SWAP1 PUSH2 0xA398 JUMP JUMPDEST SWAP6 POP PUSH8 0xFFFFFFFFFFFFFFFF AND DUP2 MLOAD DUP2 LT PUSH2 0x63B8 JUMPI PUSH2 0x63B7 PUSH2 0xA456 JUMP JUMPDEST JUMPDEST PUSH1 0x20 ADD ADD SWAP1 PUSH31 0xFFFFFFFFFFFFFFFFFFFFFFFFFFFFFFFFFFFFFFFFFFFFFFFFFFFFFFFFFFFFFF NOT AND SWAP1 DUP2 PUSH1 0x0 BYTE SWAP1 MSTORE8 POP PUSH2 0x6340 JUMP JUMPDEST PUSH1 0x0 SWAP1 POP JUMPDEST DUP5 PUSH1 0xA0 ADD MLOAD MLOAD DUP2 PUSH8 0xFFFFFFFFFFFFFFFF AND LT ISZERO PUSH2 0x649D JUMPI DUP5 PUSH1 0xA0 ADD MLOAD DUP2 DUP1 PUSH2 0x6418 SWAP1 PUSH2 0xA398 JUMP JUMPDEST SWAP3 POP PUSH8 0xFFFFFFFFFFFFFFFF AND DUP2 MLOAD DUP2 LT PUSH2 0x6435 JUMPI PUSH2 0x6434 PUSH2 0xA456 JUMP JUMPDEST JUMPDEST PUSH1 0x20 ADD ADD MLOAD PUSH1 0xF8 SHR PUSH1 0xF8 SHL DUP3 DUP5 DUP1 PUSH2 0x644C SWAP1 PUSH2 0xA398 JUMP JUMPDEST SWAP6 POP PUSH8 0xFFFFFFFFFFFFFFFF AND DUP2 MLOAD DUP2 LT PUSH2 0x6469 JUMPI PUSH2 0x6468 PUSH2 0xA456 JUMP JUMPDEST JUMPDEST PUSH1 0x20 ADD ADD SWAP1 PUSH31 0xFFFFFFFFFFFFFFFFFFFFFFFFFFFFFFFFFFFFFFFFFFFFFFFFFFFFFFFFFFFFFF NOT AND SWAP1 DUP2 PUSH1 0x0 BYTE SWAP1 MSTORE8 POP PUSH2 0x63F1 JUMP JUMPDEST PUSH1 0x0 SWAP1 POP JUMPDEST DUP5 PUSH1 0xC0 ADD MLOAD MLOAD DUP2 PUSH8 0xFFFFFFFFFFFFFFFF AND LT ISZERO PUSH2 0x654E JUMPI DUP5 PUSH1 0xC0 ADD MLOAD DUP2 DUP1 PUSH2 0x64C9 SWAP1 PUSH2 0xA398 JUMP JUMPDEST SWAP3 POP PUSH8 0xFFFFFFFFFFFFFFFF AND DUP2 MLOAD DUP2 LT PUSH2 0x64E6 JUMPI PUSH2 0x64E5 PUSH2 0xA456 JUMP JUMPDEST JUMPDEST PUSH1 0x20 ADD ADD MLOAD PUSH1 0xF8 SHR PUSH1 0xF8 SHL DUP3 DUP5 DUP1 PUSH2 0x64FD SWAP1 PUSH2 0xA398 JUMP JUMPDEST SWAP6 POP PUSH8 0xFFFFFFFFFFFFFFFF AND DUP2 MLOAD DUP2 LT PUSH2 0x651A JUMPI PUSH2 0x6519 PUSH2 0xA456 JUMP JUMPDEST JUMPDEST PUSH1 0x20 ADD ADD SWAP1 PUSH31 0xFFFFFFFFFFFFFFFFFFFFFFFFFFFFFFFFFFFFFFFFFFFFFFFFFFFFFFFFFFFFFF NOT AND SWAP1 DUP2 PUSH1 0x0 BYTE SWAP1 MSTORE8 POP PUSH2 0x64A2 JUMP JUMPDEST PUSH1 0x0 SWAP1 POP JUMPDEST DUP5 PUSH1 0xE0 ADD MLOAD MLOAD DUP2 PUSH8 0xFFFFFFFFFFFFFFFF AND LT ISZERO PUSH2 0x65FF JUMPI DUP5 PUSH1 0xE0 ADD MLOAD DUP2 DUP1 PUSH2 0x657A SWAP1 PUSH2 0xA398 JUMP JUMPDEST SWAP3 POP PUSH8 0xFFFFFFFFFFFFFFFF AND DUP2 MLOAD DUP2 LT PUSH2 0x6597 JUMPI PUSH2 0x6596 PUSH2 0xA456 JUMP JUMPDEST JUMPDEST PUSH1 0x20 ADD ADD MLOAD PUSH1 0xF8 SHR PUSH1 0xF8 SHL DUP3 DUP5 DUP1 PUSH2 0x65AE SWAP1 PUSH2 0xA398 JUMP JUMPDEST SWAP6 POP PUSH8 0xFFFFFFFFFFFFFFFF AND DUP2 MLOAD DUP2 LT PUSH2 0x65CB JUMPI PUSH2 0x65CA PUSH2 0xA456 JUMP JUMPDEST JUMPDEST PUSH1 0x20 ADD ADD SWAP1 PUSH31 0xFFFFFFFFFFFFFFFFFFFFFFFFFFFFFFFFFFFFFFFFFFFFFFFFFFFFFFFFFFFFFF NOT AND SWAP1 DUP2 PUSH1 0x0 BYTE SWAP1 MSTORE8 POP PUSH2 0x6553 JUMP JUMPDEST PUSH1 0x0 SWAP1 POP JUMPDEST DUP5 PUSH2 0x100 ADD MLOAD MLOAD DUP2 PUSH8 0xFFFFFFFFFFFFFFFF AND LT ISZERO PUSH2 0x66B2 JUMPI DUP5 PUSH2 0x100 ADD MLOAD DUP2 DUP1 PUSH2 0x662D SWAP1 PUSH2 0xA398 JUMP JUMPDEST SWAP3 POP PUSH8 0xFFFFFFFFFFFFFFFF AND DUP2 MLOAD DUP2 LT PUSH2 0x664A JUMPI PUSH2 0x6649 PUSH2 0xA456 JUMP JUMPDEST JUMPDEST PUSH1 0x20 ADD ADD MLOAD PUSH1 0xF8 SHR PUSH1 0xF8 SHL DUP3 DUP5 DUP1 PUSH2 0x6661 SWAP1 PUSH2 0xA398 JUMP JUMPDEST SWAP6 POP PUSH8 0xFFFFFFFFFFFFFFFF AND DUP2 MLOAD DUP2 LT PUSH2 0x667E JUMPI PUSH2 0x667D PUSH2 0xA456 JUMP JUMPDEST JUMPDEST PUSH1 0x20 ADD ADD SWAP1 PUSH31 0xFFFFFFFFFFFFFFFFFFFFFFFFFFFFFFFFFFFFFFFFFFFFFFFFFFFFFFFFFFFFFF NOT AND SWAP1 DUP2 PUSH1 0x0 BYTE SWAP1 MSTORE8 POP PUSH2 0x6604 JUMP JUMPDEST DUP2 SWAP6 POP POP POP POP POP POP SWAP2 SWAP1 POP JUMP JUMPDEST PUSH1 0x0 PUSH1 0x1 DUP4 PUSH8 0xFFFFFFFFFFFFFFFF AND EQ ISZERO PUSH2 0x6703 JUMPI PUSH1 0x0 PUSH1 0x6 DUP2 GT ISZERO PUSH2 0x66E8 JUMPI PUSH2 0x66E7 PUSH2 0xA3F8 JUMP JUMPDEST JUMPDEST DUP3 PUSH1 0x6 DUP2 GT ISZERO PUSH2 0x66FB JUMPI PUSH2 0x66FA PUSH2 0xA3F8 JUMP JUMPDEST JUMPDEST EQ SWAP1 POP PUSH2 0x678C JUMP JUMPDEST PUSH1 0x2 DUP4 PUSH8 0xFFFFFFFFFFFFFFFF AND EQ ISZERO PUSH2 0x6745 JUMPI PUSH1 0x2 PUSH1 0x6 DUP2 GT ISZERO PUSH2 0x672A JUMPI PUSH2 0x6729 PUSH2 0xA3F8 JUMP JUMPDEST JUMPDEST DUP3 PUSH1 0x6 DUP2 GT ISZERO PUSH2 0x673D JUMPI PUSH2 0x673C PUSH2 0xA3F8 JUMP JUMPDEST JUMPDEST EQ SWAP1 POP PUSH2 0x678C JUMP JUMPDEST PUSH1 0x3 DUP4 PUSH8 0xFFFFFFFFFFFFFFFF AND EQ ISZERO PUSH2 0x6787 JUMPI PUSH1 0x2 PUSH1 0x6 DUP2 GT ISZERO PUSH2 0x676C JUMPI PUSH2 0x676B PUSH2 0xA3F8 JUMP JUMPDEST JUMPDEST DUP3 PUSH1 0x6 DUP2 GT ISZERO PUSH2 0x677F JUMPI PUSH2 0x677E PUSH2 0xA3F8 JUMP JUMPDEST JUMPDEST EQ SWAP1 POP PUSH2 0x678C JUMP JUMPDEST PUSH1 0x0 SWAP1 POP JUMPDEST SWAP3 SWAP2 POP POP JUMP JUMPDEST PUSH1 0x0 DUP1 PUSH1 0x0 DUP8 SWAP1 POP PUSH1 0x1 DUP6 PUSH8 0xFFFFFFFFFFFFFFFF AND EQ ISZERO PUSH2 0x67E3 JUMPI PUSH1 0x0 PUSH2 0x67BA DUP3 DUP10 DUP8 PUSH2 0x882A JUMP JUMPDEST DUP1 SWAP4 POP DUP2 SWAP3 POP POP POP DUP1 PUSH2 0x67D5 JUMPI PUSH1 0x0 DUP3 SWAP4 POP SWAP4 POP POP POP PUSH2 0x687E JUMP JUMPDEST PUSH1 0x1 DUP3 SWAP4 POP SWAP4 POP POP POP PUSH2 0x687E JUMP JUMPDEST PUSH1 0x2 DUP6 PUSH8 0xFFFFFFFFFFFFFFFF AND EQ ISZERO PUSH2 0x682C JUMPI PUSH1 0x0 PUSH2 0x6803 DUP3 DUP10 DUP8 PUSH2 0x88AC JUMP JUMPDEST DUP1 SWAP4 POP DUP2 SWAP3 POP POP POP DUP1 PUSH2 0x681E JUMPI PUSH1 0x0 DUP3 SWAP4 POP SWAP4 POP POP POP PUSH2 0x687E JUMP JUMPDEST PUSH1 0x1 DUP3 SWAP4 POP SWAP4 POP POP POP PUSH2 0x687E JUMP JUMPDEST PUSH1 0x3 DUP6 PUSH8 0xFFFFFFFFFFFFFFFF AND EQ ISZERO PUSH2 0x6875 JUMPI PUSH1 0x0 PUSH2 0x684C DUP3 DUP10 DUP8 PUSH2 0x8A31 JUMP JUMPDEST DUP1 SWAP4 POP DUP2 SWAP3 POP POP POP DUP1 PUSH2 0x6867 JUMPI PUSH1 0x0 DUP3 SWAP4 POP SWAP4 POP POP POP PUSH2 0x687E JUMP JUMPDEST PUSH1 0x1 DUP3 SWAP4 POP SWAP4 POP POP POP PUSH2 0x687E JUMP JUMPDEST PUSH1 0x0 DUP2 SWAP3 POP SWAP3 POP POP JUMPDEST SWAP6 POP SWAP6 SWAP4 POP POP POP POP JUMP JUMPDEST PUSH1 0x60 PUSH2 0x6892 PUSH2 0x9348 JUMP JUMPDEST PUSH1 0x0 DUP1 PUSH1 0x0 DUP6 PUSH1 0x0 ADD MLOAD PUSH8 0xFFFFFFFFFFFFFFFF AND EQ PUSH2 0x68E7 JUMPI PUSH2 0x68C9 PUSH1 0x1 PUSH1 0x0 PUSH1 0x6 DUP2 GT ISZERO PUSH2 0x68C4 JUMPI PUSH2 0x68C3 PUSH2 0xA3F8 JUMP JUMPDEST JUMPDEST PUSH2 0x7C41 JUMP JUMPDEST DUP4 PUSH1 0x0 ADD DUP2 SWAP1 MSTORE POP PUSH2 0x68DE DUP6 PUSH1 0x0 ADD MLOAD PUSH2 0x7C70 JUMP JUMPDEST DUP4 PUSH1 0x20 ADD DUP2 SWAP1 MSTORE POP JUMPDEST PUSH1 0x0 DUP6 PUSH1 0x20 ADD MLOAD MLOAD GT ISZERO PUSH2 0x693E JUMPI PUSH2 0x6912 PUSH1 0x2 DUP1 PUSH1 0x6 DUP2 GT ISZERO PUSH2 0x690D JUMPI PUSH2 0x690C PUSH2 0xA3F8 JUMP JUMPDEST JUMPDEST PUSH2 0x7C41 JUMP JUMPDEST DUP4 PUSH1 0x40 ADD DUP2 SWAP1 MSTORE POP PUSH2 0x6928 DUP6 PUSH1 0x20 ADD MLOAD MLOAD PUSH2 0x7C70 JUMP JUMPDEST DUP4 PUSH1 0x60 ADD DUP2 SWAP1 MSTORE POP DUP5 PUSH1 0x20 ADD MLOAD DUP4 PUSH1 0x80 ADD DUP2 SWAP1 MSTORE POP JUMPDEST PUSH1 0x0 DUP6 PUSH1 0x40 ADD MLOAD PUSH8 0xFFFFFFFFFFFFFFFF AND EQ PUSH2 0x6990 JUMPI PUSH2 0x6972 PUSH1 0x3 PUSH1 0x0 PUSH1 0x6 DUP2 GT ISZERO PUSH2 0x696D JUMPI PUSH2 0x696C PUSH2 0xA3F8 JUMP JUMPDEST JUMPDEST PUSH2 0x7C41 JUMP JUMPDEST DUP4 PUSH1 0xA0 ADD DUP2 SWAP1 MSTORE POP PUSH2 0x6987 DUP6 PUSH1 0x40 ADD MLOAD PUSH2 0x7C70 JUMP JUMPDEST DUP4 PUSH1 0xC0 ADD DUP2 SWAP1 MSTORE POP JUMPDEST PUSH1 0x0 DUP6 PUSH1 0x60 ADD MLOAD MLOAD GT ISZERO PUSH2 0x69EA JUMPI PUSH2 0x69BC PUSH1 0x4 PUSH1 0x2 PUSH1 0x6 DUP2 GT ISZERO PUSH2 0x69B7 JUMPI PUSH2 0x69B6 PUSH2 0xA3F8 JUMP JUMPDEST JUMPDEST PUSH2 0x7C41 JUMP JUMPDEST DUP4 PUSH1 0xE0 ADD DUP2 SWAP1 MSTORE POP PUSH2 0x69D2 DUP6 PUSH1 0x60 ADD MLOAD MLOAD PUSH2 0x7C70 JUMP JUMPDEST DUP4 PUSH2 0x100 ADD DUP2 SWAP1 MSTORE POP DUP5 PUSH1 0x60 ADD MLOAD DUP4 PUSH2 0x120 ADD DUP2 SWAP1 MSTORE POP JUMPDEST PUSH1 0x0 DUP6 PUSH1 0x80 ADD MLOAD MLOAD GT ISZERO PUSH2 0x6A45 JUMPI PUSH2 0x6A16 PUSH1 0x5 PUSH1 0x2 PUSH1 0x6 DUP2 GT ISZERO PUSH2 0x6A11 JUMPI PUSH2 0x6A10 PUSH2 0xA3F8 JUMP JUMPDEST JUMPDEST PUSH2 0x7C41 JUMP JUMPDEST DUP4 PUSH2 0x140 ADD DUP2 SWAP1 MSTORE POP PUSH2 0x6A2D DUP6 PUSH1 0x80 ADD MLOAD MLOAD PUSH2 0x7C70 JUMP JUMPDEST DUP4 PUSH2 0x160 ADD DUP2 SWAP1 MSTORE POP DUP5 PUSH1 0x80 ADD MLOAD DUP4 PUSH2 0x180 ADD DUP2 SWAP1 MSTORE POP JUMPDEST PUSH1 0x60 PUSH1 0x0 SWAP2 POP PUSH1 0x0 SWAP3 POP DUP4 PUSH1 0x0 ADD MLOAD MLOAD DUP4 PUSH2 0x6A60 SWAP2 SWAP1 PUSH2 0xA13F JUMP JUMPDEST SWAP3 POP DUP4 PUSH1 0x20 ADD MLOAD MLOAD DUP4 PUSH2 0x6A73 SWAP2 SWAP1 PUSH2 0xA13F JUMP JUMPDEST SWAP3 POP DUP4 PUSH1 0x40 ADD MLOAD MLOAD DUP4 PUSH2 0x6A86 SWAP2 SWAP1 PUSH2 0xA13F JUMP JUMPDEST SWAP3 POP DUP4 PUSH1 0x60 ADD MLOAD MLOAD DUP4 PUSH2 0x6A99 SWAP2 SWAP1 PUSH2 0xA13F JUMP JUMPDEST SWAP3 POP DUP4 PUSH1 0x80 ADD MLOAD MLOAD DUP4 PUSH2 0x6AAC SWAP2 SWAP1 PUSH2 0xA13F JUMP JUMPDEST SWAP3 POP DUP4 PUSH1 0xA0 ADD MLOAD MLOAD DUP4 PUSH2 0x6ABF SWAP2 SWAP1 PUSH2 0xA13F JUMP JUMPDEST SWAP3 POP DUP4 PUSH1 0xC0 ADD MLOAD MLOAD DUP4 PUSH2 0x6AD2 SWAP2 SWAP1 PUSH2 0xA13F JUMP JUMPDEST SWAP3 POP DUP4 PUSH1 0xE0 ADD MLOAD MLOAD DUP4 PUSH2 0x6AE5 SWAP2 SWAP1 PUSH2 0xA13F JUMP JUMPDEST SWAP3 POP DUP4 PUSH2 0x100 ADD MLOAD MLOAD DUP4 PUSH2 0x6AF9 SWAP2 SWAP1 PUSH2 0xA13F JUMP JUMPDEST SWAP3 POP DUP4 PUSH2 0x120 ADD MLOAD MLOAD DUP4 PUSH2 0x6B0D SWAP2 SWAP1 PUSH2 0xA13F JUMP JUMPDEST SWAP3 POP DUP4 PUSH2 0x140 ADD MLOAD MLOAD DUP4 PUSH2 0x6B21 SWAP2 SWAP1 PUSH2 0xA13F JUMP JUMPDEST SWAP3 POP DUP4 PUSH2 0x160 ADD MLOAD MLOAD DUP4 PUSH2 0x6B35 SWAP2 SWAP1 PUSH2 0xA13F JUMP JUMPDEST SWAP3 POP DUP4 PUSH2 0x180 ADD MLOAD MLOAD DUP4 PUSH2 0x6B49 SWAP2 SWAP1 PUSH2 0xA13F JUMP JUMPDEST SWAP3 POP DUP3 PUSH8 0xFFFFFFFFFFFFFFFF AND PUSH8 0xFFFFFFFFFFFFFFFF DUP2 GT ISZERO PUSH2 0x6B6F JUMPI PUSH2 0x6B6E PUSH2 0xA485 JUMP JUMPDEST JUMPDEST PUSH1 0x40 MLOAD SWAP1 DUP1 DUP3 MSTORE DUP1 PUSH1 0x1F ADD PUSH1 0x1F NOT AND PUSH1 0x20 ADD DUP3 ADD PUSH1 0x40 MSTORE DUP1 ISZERO PUSH2 0x6BA1 JUMPI DUP2 PUSH1 0x20 ADD PUSH1 0x1 DUP3 MUL DUP1 CALLDATASIZE DUP4 CALLDATACOPY DUP1 DUP3 ADD SWAP2 POP POP SWAP1 POP JUMPDEST POP SWAP1 POP PUSH1 0x0 JUMPDEST DUP5 PUSH1 0x0 ADD MLOAD MLOAD DUP2 PUSH8 0xFFFFFFFFFFFFFFFF AND LT ISZERO PUSH2 0x6C53 JUMPI DUP5 PUSH1 0x0 ADD MLOAD DUP2 DUP1 PUSH2 0x6BCE SWAP1 PUSH2 0xA398 JUMP JUMPDEST SWAP3 POP PUSH8 0xFFFFFFFFFFFFFFFF AND DUP2 MLOAD DUP2 LT PUSH2 0x6BEB JUMPI PUSH2 0x6BEA PUSH2 0xA456 JUMP JUMPDEST JUMPDEST PUSH1 0x20 ADD ADD MLOAD PUSH1 0xF8 SHR PUSH1 0xF8 SHL DUP3 DUP5 DUP1 PUSH2 0x6C02 SWAP1 PUSH2 0xA398 JUMP JUMPDEST SWAP6 POP PUSH8 0xFFFFFFFFFFFFFFFF AND DUP2 MLOAD DUP2 LT PUSH2 0x6C1F JUMPI PUSH2 0x6C1E PUSH2 0xA456 JUMP JUMPDEST JUMPDEST PUSH1 0x20 ADD ADD SWAP1 PUSH31 0xFFFFFFFFFFFFFFFFFFFFFFFFFFFFFFFFFFFFFFFFFFFFFFFFFFFFFFFFFFFFFF NOT AND SWAP1 DUP2 PUSH1 0x0 BYTE SWAP1 MSTORE8 POP PUSH2 0x6BA7 JUMP JUMPDEST PUSH1 0x0 SWAP1 POP JUMPDEST DUP5 PUSH1 0x20 ADD MLOAD MLOAD DUP2 PUSH8 0xFFFFFFFFFFFFFFFF AND LT ISZERO PUSH2 0x6D04 JUMPI DUP5 PUSH1 0x20 ADD MLOAD DUP2 DUP1 PUSH2 0x6C7F SWAP1 PUSH2 0xA398 JUMP JUMPDEST SWAP3 POP PUSH8 0xFFFFFFFFFFFFFFFF AND DUP2 MLOAD DUP2 LT PUSH2 0x6C9C JUMPI PUSH2 0x6C9B PUSH2 0xA456 JUMP JUMPDEST JUMPDEST PUSH1 0x20 ADD ADD MLOAD PUSH1 0xF8 SHR PUSH1 0xF8 SHL DUP3 DUP5 DUP1 PUSH2 0x6CB3 SWAP1 PUSH2 0xA398 JUMP JUMPDEST SWAP6 POP PUSH8 0xFFFFFFFFFFFFFFFF AND DUP2 MLOAD DUP2 LT PUSH2 0x6CD0 JUMPI PUSH2 0x6CCF PUSH2 0xA456 JUMP JUMPDEST JUMPDEST PUSH1 0x20 ADD ADD SWAP1 PUSH31 0xFFFFFFFFFFFFFFFFFFFFFFFFFFFFFFFFFFFFFFFFFFFFFFFFFFFFFFFFFFFFFF NOT AND SWAP1 DUP2 PUSH1 0x0 BYTE SWAP1 MSTORE8 POP PUSH2 0x6C58 JUMP JUMPDEST PUSH1 0x0 SWAP1 POP JUMPDEST DUP5 PUSH1 0x40 ADD MLOAD MLOAD DUP2 PUSH8 0xFFFFFFFFFFFFFFFF AND LT ISZERO PUSH2 0x6DB5 JUMPI DUP5 PUSH1 0x40 ADD MLOAD DUP2 DUP1 PUSH2 0x6D30 SWAP1 PUSH2 0xA398 JUMP JUMPDEST SWAP3 POP PUSH8 0xFFFFFFFFFFFFFFFF AND DUP2 MLOAD DUP2 LT PUSH2 0x6D4D JUMPI PUSH2 0x6D4C PUSH2 0xA456 JUMP JUMPDEST JUMPDEST PUSH1 0x20 ADD ADD MLOAD PUSH1 0xF8 SHR PUSH1 0xF8 SHL DUP3 DUP5 DUP1 PUSH2 0x6D64 SWAP1 PUSH2 0xA398 JUMP JUMPDEST SWAP6 POP PUSH8 0xFFFFFFFFFFFFFFFF AND DUP2 MLOAD DUP2 LT PUSH2 0x6D81 JUMPI PUSH2 0x6D80 PUSH2 0xA456 JUMP JUMPDEST JUMPDEST PUSH1 0x20 ADD ADD SWAP1 PUSH31 0xFFFFFFFFFFFFFFFFFFFFFFFFFFFFFFFFFFFFFFFFFFFFFFFFFFFFFFFFFFFFFF NOT AND SWAP1 DUP2 PUSH1 0x0 BYTE SWAP1 MSTORE8 POP PUSH2 0x6D09 JUMP JUMPDEST PUSH1 0x0 SWAP1 POP JUMPDEST DUP5 PUSH1 0x60 ADD MLOAD MLOAD DUP2 PUSH8 0xFFFFFFFFFFFFFFFF AND LT ISZERO PUSH2 0x6E66 JUMPI DUP5 PUSH1 0x60 ADD MLOAD DUP2 DUP1 PUSH2 0x6DE1 SWAP1 PUSH2 0xA398 JUMP JUMPDEST SWAP3 POP PUSH8 0xFFFFFFFFFFFFFFFF AND DUP2 MLOAD DUP2 LT PUSH2 0x6DFE JUMPI PUSH2 0x6DFD PUSH2 0xA456 JUMP JUMPDEST JUMPDEST PUSH1 0x20 ADD ADD MLOAD PUSH1 0xF8 SHR PUSH1 0xF8 SHL DUP3 DUP5 DUP1 PUSH2 0x6E15 SWAP1 PUSH2 0xA398 JUMP JUMPDEST SWAP6 POP PUSH8 0xFFFFFFFFFFFFFFFF AND DUP2 MLOAD DUP2 LT PUSH2 0x6E32 JUMPI PUSH2 0x6E31 PUSH2 0xA456 JUMP JUMPDEST JUMPDEST PUSH1 0x20 ADD ADD SWAP1 PUSH31 0xFFFFFFFFFFFFFFFFFFFFFFFFFFFFFFFFFFFFFFFFFFFFFFFFFFFFFFFFFFFFFF NOT AND SWAP1 DUP2 PUSH1 0x0 BYTE SWAP1 MSTORE8 POP PUSH2 0x6DBA JUMP JUMPDEST PUSH1 0x0 SWAP1 POP JUMPDEST DUP5 PUSH1 0x80 ADD MLOAD MLOAD DUP2 PUSH8 0xFFFFFFFFFFFFFFFF AND LT ISZERO PUSH2 0x6F17 JUMPI DUP5 PUSH1 0x80 ADD MLOAD DUP2 DUP1 PUSH2 0x6E92 SWAP1 PUSH2 0xA398 JUMP JUMPDEST SWAP3 POP PUSH8 0xFFFFFFFFFFFFFFFF AND DUP2 MLOAD DUP2 LT PUSH2 0x6EAF JUMPI PUSH2 0x6EAE PUSH2 0xA456 JUMP JUMPDEST JUMPDEST PUSH1 0x20 ADD ADD MLOAD PUSH1 0xF8 SHR PUSH1 0xF8 SHL DUP3 DUP5 DUP1 PUSH2 0x6EC6 SWAP1 PUSH2 0xA398 JUMP JUMPDEST SWAP6 POP PUSH8 0xFFFFFFFFFFFFFFFF AND DUP2 MLOAD DUP2 LT PUSH2 0x6EE3 JUMPI PUSH2 0x6EE2 PUSH2 0xA456 JUMP JUMPDEST JUMPDEST PUSH1 0x20 ADD ADD SWAP1 PUSH31 0xFFFFFFFFFFFFFFFFFFFFFFFFFFFFFFFFFFFFFFFFFFFFFFFFFFFFFFFFFFFFFF NOT AND SWAP1 DUP2 PUSH1 0x0 BYTE SWAP1 MSTORE8 POP PUSH2 0x6E6B JUMP JUMPDEST PUSH1 0x0 SWAP1 POP JUMPDEST DUP5 PUSH1 0xA0 ADD MLOAD MLOAD DUP2 PUSH8 0xFFFFFFFFFFFFFFFF AND LT ISZERO PUSH2 0x6FC8 JUMPI DUP5 PUSH1 0xA0 ADD MLOAD DUP2 DUP1 PUSH2 0x6F43 SWAP1 PUSH2 0xA398 JUMP JUMPDEST SWAP3 POP PUSH8 0xFFFFFFFFFFFFFFFF AND DUP2 MLOAD DUP2 LT PUSH2 0x6F60 JUMPI PUSH2 0x6F5F PUSH2 0xA456 JUMP JUMPDEST JUMPDEST PUSH1 0x20 ADD ADD MLOAD PUSH1 0xF8 SHR PUSH1 0xF8 SHL DUP3 DUP5 DUP1 PUSH2 0x6F77 SWAP1 PUSH2 0xA398 JUMP JUMPDEST SWAP6 POP PUSH8 0xFFFFFFFFFFFFFFFF AND DUP2 MLOAD DUP2 LT PUSH2 0x6F94 JUMPI PUSH2 0x6F93 PUSH2 0xA456 JUMP JUMPDEST JUMPDEST PUSH1 0x20 ADD ADD SWAP1 PUSH31 0xFFFFFFFFFFFFFFFFFFFFFFFFFFFFFFFFFFFFFFFFFFFFFFFFFFFFFFFFFFFFFF NOT AND SWAP1 DUP2 PUSH1 0x0 BYTE SWAP1 MSTORE8 POP PUSH2 0x6F1C JUMP JUMPDEST PUSH1 0x0 SWAP1 POP JUMPDEST DUP5 PUSH1 0xC0 ADD MLOAD MLOAD DUP2 PUSH8 0xFFFFFFFFFFFFFFFF AND LT ISZERO PUSH2 0x7079 JUMPI DUP5 PUSH1 0xC0 ADD MLOAD DUP2 DUP1 PUSH2 0x6FF4 SWAP1 PUSH2 0xA398 JUMP JUMPDEST SWAP3 POP PUSH8 0xFFFFFFFFFFFFFFFF AND DUP2 MLOAD DUP2 LT PUSH2 0x7011 JUMPI PUSH2 0x7010 PUSH2 0xA456 JUMP JUMPDEST JUMPDEST PUSH1 0x20 ADD ADD MLOAD PUSH1 0xF8 SHR PUSH1 0xF8 SHL DUP3 DUP5 DUP1 PUSH2 0x7028 SWAP1 PUSH2 0xA398 JUMP JUMPDEST SWAP6 POP PUSH8 0xFFFFFFFFFFFFFFFF AND DUP2 MLOAD DUP2 LT PUSH2 0x7045 JUMPI PUSH2 0x7044 PUSH2 0xA456 JUMP JUMPDEST JUMPDEST PUSH1 0x20 ADD ADD SWAP1 PUSH31 0xFFFFFFFFFFFFFFFFFFFFFFFFFFFFFFFFFFFFFFFFFFFFFFFFFFFFFFFFFFFFFF NOT AND SWAP1 DUP2 PUSH1 0x0 BYTE SWAP1 MSTORE8 POP PUSH2 0x6FCD JUMP JUMPDEST PUSH1 0x0 SWAP1 POP JUMPDEST DUP5 PUSH1 0xE0 ADD MLOAD MLOAD DUP2 PUSH8 0xFFFFFFFFFFFFFFFF AND LT ISZERO PUSH2 0x712A JUMPI DUP5 PUSH1 0xE0 ADD MLOAD DUP2 DUP1 PUSH2 0x70A5 SWAP1 PUSH2 0xA398 JUMP JUMPDEST SWAP3 POP PUSH8 0xFFFFFFFFFFFFFFFF AND DUP2 MLOAD DUP2 LT PUSH2 0x70C2 JUMPI PUSH2 0x70C1 PUSH2 0xA456 JUMP JUMPDEST JUMPDEST PUSH1 0x20 ADD ADD MLOAD PUSH1 0xF8 SHR PUSH1 0xF8 SHL DUP3 DUP5 DUP1 PUSH2 0x70D9 SWAP1 PUSH2 0xA398 JUMP JUMPDEST SWAP6 POP PUSH8 0xFFFFFFFFFFFFFFFF AND DUP2 MLOAD DUP2 LT PUSH2 0x70F6 JUMPI PUSH2 0x70F5 PUSH2 0xA456 JUMP JUMPDEST JUMPDEST PUSH1 0x20 ADD ADD SWAP1 PUSH31 0xFFFFFFFFFFFFFFFFFFFFFFFFFFFFFFFFFFFFFFFFFFFFFFFFFFFFFFFFFFFFFF NOT AND SWAP1 DUP2 PUSH1 0x0 BYTE SWAP1 MSTORE8 POP PUSH2 0x707E JUMP JUMPDEST PUSH1 0x0 SWAP1 POP JUMPDEST DUP5 PUSH2 0x100 ADD MLOAD MLOAD DUP2 PUSH8 0xFFFFFFFFFFFFFFFF AND LT ISZERO PUSH2 0x71DD JUMPI DUP5 PUSH2 0x100 ADD MLOAD DUP2 DUP1 PUSH2 0x7158 SWAP1 PUSH2 0xA398 JUMP JUMPDEST SWAP3 POP PUSH8 0xFFFFFFFFFFFFFFFF AND DUP2 MLOAD DUP2 LT PUSH2 0x7175 JUMPI PUSH2 0x7174 PUSH2 0xA456 JUMP JUMPDEST JUMPDEST PUSH1 0x20 ADD ADD MLOAD PUSH1 0xF8 SHR PUSH1 0xF8 SHL DUP3 DUP5 DUP1 PUSH2 0x718C SWAP1 PUSH2 0xA398 JUMP JUMPDEST SWAP6 POP PUSH8 0xFFFFFFFFFFFFFFFF AND DUP2 MLOAD DUP2 LT PUSH2 0x71A9 JUMPI PUSH2 0x71A8 PUSH2 0xA456 JUMP JUMPDEST JUMPDEST PUSH1 0x20 ADD ADD SWAP1 PUSH31 0xFFFFFFFFFFFFFFFFFFFFFFFFFFFFFFFFFFFFFFFFFFFFFFFFFFFFFFFFFFFFFF NOT AND SWAP1 DUP2 PUSH1 0x0 BYTE SWAP1 MSTORE8 POP PUSH2 0x712F JUMP JUMPDEST PUSH1 0x0 SWAP1 POP JUMPDEST DUP5 PUSH2 0x120 ADD MLOAD MLOAD DUP2 PUSH8 0xFFFFFFFFFFFFFFFF AND LT ISZERO PUSH2 0x7290 JUMPI DUP5 PUSH2 0x120 ADD MLOAD DUP2 DUP1 PUSH2 0x720B SWAP1 PUSH2 0xA398 JUMP JUMPDEST SWAP3 POP PUSH8 0xFFFFFFFFFFFFFFFF AND DUP2 MLOAD DUP2 LT PUSH2 0x7228 JUMPI PUSH2 0x7227 PUSH2 0xA456 JUMP JUMPDEST JUMPDEST PUSH1 0x20 ADD ADD MLOAD PUSH1 0xF8 SHR PUSH1 0xF8 SHL DUP3 DUP5 DUP1 PUSH2 0x723F SWAP1 PUSH2 0xA398 JUMP JUMPDEST SWAP6 POP PUSH8 0xFFFFFFFFFFFFFFFF AND DUP2 MLOAD DUP2 LT PUSH2 0x725C JUMPI PUSH2 0x725B PUSH2 0xA456 JUMP JUMPDEST JUMPDEST PUSH1 0x20 ADD ADD SWAP1 PUSH31 0xFFFFFFFFFFFFFFFFFFFFFFFFFFFFFFFFFFFFFFFFFFFFFFFFFFFFFFFFFFFFFF NOT AND SWAP1 DUP2 PUSH1 0x0 BYTE SWAP1 MSTORE8 POP PUSH2 0x71E2 JUMP JUMPDEST PUSH1 0x0 SWAP1 POP JUMPDEST DUP5 PUSH2 0x140 ADD MLOAD MLOAD DUP2 PUSH8 0xFFFFFFFFFFFFFFFF AND LT ISZERO PUSH2 0x7343 JUMPI DUP5 PUSH2 0x140 ADD MLOAD DUP2 DUP1 PUSH2 0x72BE SWAP1 PUSH2 0xA398 JUMP JUMPDEST SWAP3 POP PUSH8 0xFFFFFFFFFFFFFFFF AND DUP2 MLOAD DUP2 LT PUSH2 0x72DB JUMPI PUSH2 0x72DA PUSH2 0xA456 JUMP JUMPDEST JUMPDEST PUSH1 0x20 ADD ADD MLOAD PUSH1 0xF8 SHR PUSH1 0xF8 SHL DUP3 DUP5 DUP1 PUSH2 0x72F2 SWAP1 PUSH2 0xA398 JUMP JUMPDEST SWAP6 POP PUSH8 0xFFFFFFFFFFFFFFFF AND DUP2 MLOAD DUP2 LT PUSH2 0x730F JUMPI PUSH2 0x730E PUSH2 0xA456 JUMP JUMPDEST JUMPDEST PUSH1 0x20 ADD ADD SWAP1 PUSH31 0xFFFFFFFFFFFFFFFFFFFFFFFFFFFFFFFFFFFFFFFFFFFFFFFFFFFFFFFFFFFFFF NOT AND SWAP1 DUP2 PUSH1 0x0 BYTE SWAP1 MSTORE8 POP PUSH2 0x7295 JUMP JUMPDEST PUSH1 0x0 SWAP1 POP JUMPDEST DUP5 PUSH2 0x160 ADD MLOAD MLOAD DUP2 PUSH8 0xFFFFFFFFFFFFFFFF AND LT ISZERO PUSH2 0x73F6 JUMPI DUP5 PUSH2 0x160 ADD MLOAD DUP2 DUP1 PUSH2 0x7371 SWAP1 PUSH2 0xA398 JUMP JUMPDEST SWAP3 POP PUSH8 0xFFFFFFFFFFFFFFFF AND DUP2 MLOAD DUP2 LT PUSH2 0x738E JUMPI PUSH2 0x738D PUSH2 0xA456 JUMP JUMPDEST JUMPDEST PUSH1 0x20 ADD ADD MLOAD PUSH1 0xF8 SHR PUSH1 0xF8 SHL DUP3 DUP5 DUP1 PUSH2 0x73A5 SWAP1 PUSH2 0xA398 JUMP JUMPDEST SWAP6 POP PUSH8 0xFFFFFFFFFFFFFFFF AND DUP2 MLOAD DUP2 LT PUSH2 0x73C2 JUMPI PUSH2 0x73C1 PUSH2 0xA456 JUMP JUMPDEST JUMPDEST PUSH1 0x20 ADD ADD SWAP1 PUSH31 0xFFFFFFFFFFFFFFFFFFFFFFFFFFFFFFFFFFFFFFFFFFFFFFFFFFFFFFFFFFFFFF NOT AND SWAP1 DUP2 PUSH1 0x0 BYTE SWAP1 MSTORE8 POP PUSH2 0x7348 JUMP JUMPDEST PUSH1 0x0 SWAP1 POP JUMPDEST DUP5 PUSH2 0x180 ADD MLOAD MLOAD DUP2 PUSH8 0xFFFFFFFFFFFFFFFF AND LT ISZERO PUSH2 0x74A9 JUMPI DUP5 PUSH2 0x180 ADD MLOAD DUP2 DUP1 PUSH2 0x7424 SWAP1 PUSH2 0xA398 JUMP JUMPDEST SWAP3 POP PUSH8 0xFFFFFFFFFFFFFFFF AND DUP2 MLOAD DUP2 LT PUSH2 0x7441 JUMPI PUSH2 0x7440 PUSH2 0xA456 JUMP JUMPDEST JUMPDEST PUSH1 0x20 ADD ADD MLOAD PUSH1 0xF8 SHR PUSH1 0xF8 SHL DUP3 DUP5 DUP1 PUSH2 0x7458 SWAP1 PUSH2 0xA398 JUMP JUMPDEST SWAP6 POP PUSH8 0xFFFFFFFFFFFFFFFF AND DUP2 MLOAD DUP2 LT PUSH2 0x7475 JUMPI PUSH2 0x7474 PUSH2 0xA456 JUMP JUMPDEST JUMPDEST PUSH1 0x20 ADD ADD SWAP1 PUSH31 0xFFFFFFFFFFFFFFFFFFFFFFFFFFFFFFFFFFFFFFFFFFFFFFFFFFFFFFFFFFFFFF NOT AND SWAP1 DUP2 PUSH1 0x0 BYTE SWAP1 MSTORE8 POP PUSH2 0x73FB JUMP JUMPDEST DUP2 SWAP6 POP POP POP POP POP POP SWAP2 SWAP1 POP JUMP JUMPDEST PUSH1 0x0 DUP1 PUSH1 0x0 DUP1 PUSH1 0x0 JUMPDEST PUSH1 0xA PUSH8 0xFFFFFFFFFFFFFFFF AND DUP2 PUSH8 0xFFFFFFFFFFFFFFFF AND LT ISZERO PUSH2 0x75D9 JUMPI DUP6 MLOAD DUP8 DUP3 PUSH2 0x74EA SWAP2 SWAP1 PUSH2 0xA13F JUMP JUMPDEST PUSH8 0xFFFFFFFFFFFFFFFF AND LT PUSH2 0x750B JUMPI PUSH1 0x0 DUP8 PUSH1 0x0 SWAP5 POP SWAP5 POP SWAP5 POP POP POP PUSH2 0x76A7 JUMP JUMPDEST PUSH1 0x0 DUP7 DUP3 DUP10 PUSH2 0x751A SWAP2 SWAP1 PUSH2 0xA13F JUMP JUMPDEST PUSH8 0xFFFFFFFFFFFFFFFF AND DUP2 MLOAD DUP2 LT PUSH2 0x7535 JUMPI PUSH2 0x7534 PUSH2 0xA456 JUMP JUMPDEST JUMPDEST PUSH1 0x20 ADD ADD MLOAD PUSH1 0xF8 SHR PUSH1 0xF8 SHL PUSH1 0xF8 SHR SWAP1 POP PUSH1 0x0 PUSH1 0x7F DUP3 AND SWAP1 POP PUSH1 0x7 DUP4 PUSH2 0x755A SWAP2 SWAP1 PUSH2 0xA17D JUMP JUMPDEST PUSH8 0xFFFFFFFFFFFFFFFF AND DUP2 PUSH1 0xFF AND PUSH8 0xFFFFFFFFFFFFFFFF AND SWAP1 SHL DUP5 OR SWAP4 POP PUSH1 0x0 PUSH1 0x80 DUP4 AND PUSH1 0xFF AND EQ ISZERO PUSH2 0x75C4 JUMPI PUSH1 0x0 DUP4 PUSH8 0xFFFFFFFFFFFFFFFF AND GT DUP1 ISZERO PUSH2 0x75A4 JUMPI POP PUSH1 0x0 DUP2 PUSH1 0xFF AND EQ JUMPDEST ISZERO PUSH2 0x75BD JUMPI PUSH1 0x0 DUP10 PUSH1 0x0 SWAP7 POP SWAP7 POP SWAP7 POP POP POP POP POP PUSH2 0x76A7 JUMP JUMPDEST POP POP PUSH2 0x75D9 JUMP JUMPDEST POP POP DUP1 DUP1 PUSH2 0x75D1 SWAP1 PUSH2 0xA398 JUMP JUMPDEST SWAP2 POP POP PUSH2 0x74BF JUMP JUMPDEST PUSH1 0xA PUSH8 0xFFFFFFFFFFFFFFFF AND DUP2 PUSH8 0xFFFFFFFFFFFFFFFF AND LT PUSH2 0x7607 JUMPI PUSH1 0x0 DUP8 PUSH1 0x0 SWAP5 POP SWAP5 POP SWAP5 POP POP POP PUSH2 0x76A7 JUMP JUMPDEST PUSH1 0x1 PUSH1 0xA PUSH2 0x7615 SWAP2 SWAP1 PUSH2 0xA1BF JUMP JUMPDEST PUSH8 0xFFFFFFFFFFFFFFFF AND DUP2 PUSH8 0xFFFFFFFFFFFFFFFF AND EQ ISZERO PUSH2 0x7684 JUMPI PUSH1 0x1 DUP7 DUP3 DUP10 PUSH2 0x763F SWAP2 SWAP1 PUSH2 0xA13F JUMP JUMPDEST PUSH8 0xFFFFFFFFFFFFFFFF AND DUP2 MLOAD DUP2 LT PUSH2 0x765A JUMPI PUSH2 0x7659 PUSH2 0xA456 JUMP JUMPDEST JUMPDEST PUSH1 0x20 ADD ADD MLOAD PUSH1 0xF8 SHR PUSH1 0xF8 SHL PUSH1 0xF8 SHR PUSH1 0xFF AND GT ISZERO PUSH2 0x7683 JUMPI PUSH1 0x0 DUP8 PUSH1 0x0 SWAP5 POP SWAP5 POP SWAP5 POP POP POP PUSH2 0x76A7 JUMP JUMPDEST JUMPDEST PUSH1 0x1 DUP1 DUP3 DUP10 PUSH2 0x7693 SWAP2 SWAP1 PUSH2 0xA13F JUMP JUMPDEST PUSH2 0x769D SWAP2 SWAP1 PUSH2 0xA13F JUMP JUMPDEST DUP4 SWAP5 POP SWAP5 POP SWAP5 POP POP POP JUMPDEST SWAP3 POP SWAP3 POP SWAP3 JUMP JUMPDEST PUSH1 0x0 DUP1 PUSH1 0x0 DUP1 PUSH2 0x76BE DUP8 DUP8 PUSH2 0x8BB6 JUMP JUMPDEST DUP1 SWAP4 POP DUP2 SWAP10 POP DUP3 SWAP5 POP POP POP POP DUP2 PUSH2 0x76DD JUMPI PUSH1 0x0 DUP8 SWAP4 POP SWAP4 POP POP POP PUSH2 0x782B JUMP JUMPDEST PUSH1 0x0 DUP2 PUSH8 0xFFFFFFFFFFFFFFFF AND EQ ISZERO PUSH2 0x76FE JUMPI PUSH1 0x0 DUP8 SWAP4 POP SWAP4 POP POP POP PUSH2 0x782B JUMP JUMPDEST DUP1 PUSH8 0xFFFFFFFFFFFFFFFF AND PUSH8 0xFFFFFFFFFFFFFFFF DUP2 GT ISZERO PUSH2 0x7722 JUMPI PUSH2 0x7721 PUSH2 0xA485 JUMP JUMPDEST JUMPDEST PUSH1 0x40 MLOAD SWAP1 DUP1 DUP3 MSTORE DUP1 PUSH1 0x1F ADD PUSH1 0x1F NOT AND PUSH1 0x20 ADD DUP3 ADD PUSH1 0x40 MSTORE DUP1 ISZERO PUSH2 0x7754 JUMPI DUP2 PUSH1 0x20 ADD PUSH1 0x1 DUP3 MUL DUP1 CALLDATASIZE DUP4 CALLDATACOPY DUP1 DUP3 ADD SWAP2 POP POP SWAP1 POP JUMPDEST POP DUP6 PUSH1 0x0 ADD DUP2 SWAP1 MSTORE POP PUSH1 0x0 JUMPDEST DUP2 PUSH8 0xFFFFFFFFFFFFFFFF AND DUP2 PUSH8 0xFFFFFFFFFFFFFFFF AND LT ISZERO PUSH2 0x7812 JUMPI DUP7 DUP2 DUP10 PUSH2 0x7789 SWAP2 SWAP1 PUSH2 0xA13F JUMP JUMPDEST PUSH8 0xFFFFFFFFFFFFFFFF AND DUP2 MLOAD DUP2 LT PUSH2 0x77A4 JUMPI PUSH2 0x77A3 PUSH2 0xA456 JUMP JUMPDEST JUMPDEST PUSH1 0x20 ADD ADD MLOAD PUSH1 0xF8 SHR PUSH1 0xF8 SHL DUP7 PUSH1 0x0 ADD MLOAD DUP3 PUSH8 0xFFFFFFFFFFFFFFFF AND DUP2 MLOAD DUP2 LT PUSH2 0x77D0 JUMPI PUSH2 0x77CF PUSH2 0xA456 JUMP JUMPDEST JUMPDEST PUSH1 0x20 ADD ADD SWAP1 PUSH31 0xFFFFFFFFFFFFFFFFFFFFFFFFFFFFFFFFFFFFFFFFFFFFFFFFFFFFFFFFFFFFFF NOT AND SWAP1 DUP2 PUSH1 0x0 BYTE SWAP1 MSTORE8 POP DUP1 DUP1 PUSH2 0x780A SWAP1 PUSH2 0xA398 JUMP JUMPDEST SWAP2 POP POP PUSH2 0x7760 JUMP JUMPDEST POP DUP1 DUP8 PUSH2 0x781F SWAP2 SWAP1 PUSH2 0xA13F JUMP JUMPDEST SWAP7 POP PUSH1 0x1 DUP8 SWAP4 POP SWAP4 POP POP POP JUMPDEST SWAP4 POP SWAP4 SWAP2 POP POP JUMP JUMPDEST PUSH1 0x0 DUP1 PUSH1 0x0 DUP1 PUSH2 0x7843 DUP8 DUP8 PUSH2 0x8BB6 JUMP JUMPDEST DUP1 SWAP4 POP DUP2 SWAP10 POP DUP3 SWAP5 POP POP POP POP DUP2 PUSH2 0x7862 JUMPI PUSH1 0x0 DUP8 SWAP4 POP SWAP4 POP POP POP PUSH2 0x79B0 JUMP JUMPDEST PUSH1 0x0 DUP2 PUSH8 0xFFFFFFFFFFFFFFFF AND EQ ISZERO PUSH2 0x7883 JUMPI PUSH1 0x0 DUP8 SWAP4 POP SWAP4 POP POP POP PUSH2 0x79B0 JUMP JUMPDEST DUP1 PUSH8 0xFFFFFFFFFFFFFFFF AND PUSH8 0xFFFFFFFFFFFFFFFF DUP2 GT ISZERO PUSH2 0x78A7 JUMPI PUSH2 0x78A6 PUSH2 0xA485 JUMP JUMPDEST JUMPDEST PUSH1 0x40 MLOAD SWAP1 DUP1 DUP3 MSTORE DUP1 PUSH1 0x1F ADD PUSH1 0x1F NOT AND PUSH1 0x20 ADD DUP3 ADD PUSH1 0x40 MSTORE DUP1 ISZERO PUSH2 0x78D9 JUMPI DUP2 PUSH1 0x20 ADD PUSH1 0x1 DUP3 MUL DUP1 CALLDATASIZE DUP4 CALLDATACOPY DUP1 DUP3 ADD SWAP2 POP POP SWAP1 POP JUMPDEST POP DUP6 PUSH1 0x20 ADD DUP2 SWAP1 MSTORE POP PUSH1 0x0 JUMPDEST DUP2 PUSH8 0xFFFFFFFFFFFFFFFF AND DUP2 PUSH8 0xFFFFFFFFFFFFFFFF AND LT ISZERO PUSH2 0x7997 JUMPI DUP7 DUP2 DUP10 PUSH2 0x790E SWAP2 SWAP1 PUSH2 0xA13F JUMP JUMPDEST PUSH8 0xFFFFFFFFFFFFFFFF AND DUP2 MLOAD DUP2 LT PUSH2 0x7929 JUMPI PUSH2 0x7928 PUSH2 0xA456 JUMP JUMPDEST JUMPDEST PUSH1 0x20 ADD ADD MLOAD PUSH1 0xF8 SHR PUSH1 0xF8 SHL DUP7 PUSH1 0x20 ADD MLOAD DUP3 PUSH8 0xFFFFFFFFFFFFFFFF AND DUP2 MLOAD DUP2 LT PUSH2 0x7955 JUMPI PUSH2 0x7954 PUSH2 0xA456 JUMP JUMPDEST JUMPDEST PUSH1 0x20 ADD ADD SWAP1 PUSH31 0xFFFFFFFFFFFFFFFFFFFFFFFFFFFFFFFFFFFFFFFFFFFFFFFFFFFFFFFFFFFFFF NOT AND SWAP1 DUP2 PUSH1 0x0 BYTE SWAP1 MSTORE8 POP DUP1 DUP1 PUSH2 0x798F SWAP1 PUSH2 0xA398 JUMP JUMPDEST SWAP2 POP POP PUSH2 0x78E5 JUMP JUMPDEST POP DUP1 DUP8 PUSH2 0x79A4 SWAP2 SWAP1 PUSH2 0xA13F JUMP JUMPDEST SWAP7 POP PUSH1 0x1 DUP8 SWAP4 POP SWAP4 POP POP POP JUMPDEST SWAP4 POP SWAP4 SWAP2 POP POP JUMP JUMPDEST PUSH1 0x0 DUP1 PUSH1 0x0 DUP1 PUSH2 0x79C8 DUP8 DUP8 PUSH2 0x8BD2 JUMP JUMPDEST DUP1 SWAP4 POP DUP2 SWAP10 POP DUP3 SWAP5 POP POP POP POP DUP2 PUSH2 0x79E7 JUMPI PUSH1 0x0 DUP8 SWAP4 POP SWAP4 POP POP POP PUSH2 0x7A32 JUMP JUMPDEST PUSH1 0x0 DUP2 PUSH8 0xFFFFFFFFFFFFFFFF AND EQ ISZERO PUSH2 0x7A08 JUMPI PUSH1 0x0 DUP8 SWAP4 POP SWAP4 POP POP POP PUSH2 0x7A32 JUMP JUMPDEST DUP1 DUP6 PUSH1 0x40 ADD SWAP1 PUSH8 0xFFFFFFFFFFFFFFFF AND SWAP1 DUP2 PUSH8 0xFFFFFFFFFFFFFFFF AND DUP2 MSTORE POP POP PUSH1 0x1 DUP8 SWAP4 POP SWAP4 POP POP POP JUMPDEST SWAP4 POP SWAP4 SWAP2 POP POP JUMP JUMPDEST PUSH1 0x0 DUP1 PUSH1 0x0 DUP1 PUSH2 0x7A4A DUP8 DUP8 PUSH2 0x8BD2 JUMP JUMPDEST DUP1 SWAP4 POP DUP2 SWAP10 POP DUP3 SWAP5 POP POP POP POP DUP2 PUSH2 0x7A69 JUMPI PUSH1 0x0 DUP8 SWAP4 POP SWAP4 POP POP POP PUSH2 0x7AB4 JUMP JUMPDEST PUSH1 0x0 DUP2 PUSH8 0xFFFFFFFFFFFFFFFF AND EQ ISZERO PUSH2 0x7A8A JUMPI PUSH1 0x0 DUP8 SWAP4 POP SWAP4 POP POP POP PUSH2 0x7AB4 JUMP JUMPDEST DUP1 DUP6 PUSH1 0x60 ADD SWAP1 PUSH8 0xFFFFFFFFFFFFFFFF AND SWAP1 DUP2 PUSH8 0xFFFFFFFFFFFFFFFF AND DUP2 MSTORE POP POP PUSH1 0x1 DUP8 SWAP4 POP SWAP4 POP POP POP JUMPDEST SWAP4 POP SWAP4 SWAP2 POP POP JUMP JUMPDEST PUSH1 0x0 DUP1 PUSH1 0x0 DUP1 PUSH2 0x7ACC DUP8 DUP8 PUSH2 0x8BB6 JUMP JUMPDEST DUP1 SWAP4 POP DUP2 SWAP10 POP DUP3 SWAP5 POP POP POP POP DUP2 PUSH2 0x7AEB JUMPI PUSH1 0x0 DUP8 SWAP4 POP SWAP4 POP POP POP PUSH2 0x7C39 JUMP JUMPDEST PUSH1 0x0 DUP2 PUSH8 0xFFFFFFFFFFFFFFFF AND EQ ISZERO PUSH2 0x7B0C JUMPI PUSH1 0x0 DUP8 SWAP4 POP SWAP4 POP POP POP PUSH2 0x7C39 JUMP JUMPDEST DUP1 PUSH8 0xFFFFFFFFFFFFFFFF AND PUSH8 0xFFFFFFFFFFFFFFFF DUP2 GT ISZERO PUSH2 0x7B30 JUMPI PUSH2 0x7B2F PUSH2 0xA485 JUMP JUMPDEST JUMPDEST PUSH1 0x40 MLOAD SWAP1 DUP1 DUP3 MSTORE DUP1 PUSH1 0x1F ADD PUSH1 0x1F NOT AND PUSH1 0x20 ADD DUP3 ADD PUSH1 0x40 MSTORE DUP1 ISZERO PUSH2 0x7B62 JUMPI DUP2 PUSH1 0x20 ADD PUSH1 0x1 DUP3 MUL DUP1 CALLDATASIZE DUP4 CALLDATACOPY DUP1 DUP3 ADD SWAP2 POP POP SWAP1 POP JUMPDEST POP DUP6 PUSH1 0x80 ADD DUP2 SWAP1 MSTORE POP PUSH1 0x0 JUMPDEST DUP2 PUSH8 0xFFFFFFFFFFFFFFFF AND DUP2 PUSH8 0xFFFFFFFFFFFFFFFF AND LT ISZERO PUSH2 0x7C20 JUMPI DUP7 DUP2 DUP10 PUSH2 0x7B97 SWAP2 SWAP1 PUSH2 0xA13F JUMP JUMPDEST PUSH8 0xFFFFFFFFFFFFFFFF AND DUP2 MLOAD DUP2 LT PUSH2 0x7BB2 JUMPI PUSH2 0x7BB1 PUSH2 0xA456 JUMP JUMPDEST JUMPDEST PUSH1 0x20 ADD ADD MLOAD PUSH1 0xF8 SHR PUSH1 0xF8 SHL DUP7 PUSH1 0x80 ADD MLOAD DUP3 PUSH8 0xFFFFFFFFFFFFFFFF AND DUP2 MLOAD DUP2 LT PUSH2 0x7BDE JUMPI PUSH2 0x7BDD PUSH2 0xA456 JUMP JUMPDEST JUMPDEST PUSH1 0x20 ADD ADD SWAP1 PUSH31 0xFFFFFFFFFFFFFFFFFFFFFFFFFFFFFFFFFFFFFFFFFFFFFFFFFFFFFFFFFFFFFF NOT AND SWAP1 DUP2 PUSH1 0x0 BYTE SWAP1 MSTORE8 POP DUP1 DUP1 PUSH2 0x7C18 SWAP1 PUSH2 0xA398 JUMP JUMPDEST SWAP2 POP POP PUSH2 0x7B6E JUMP JUMPDEST POP DUP1 DUP8 PUSH2 0x7C2D SWAP2 SWAP1 PUSH2 0xA13F JUMP JUMPDEST SWAP7 POP PUSH1 0x1 DUP8 SWAP4 POP SWAP4 POP POP POP JUMPDEST SWAP4 POP SWAP4 SWAP2 POP POP JUMP JUMPDEST PUSH1 0x60 PUSH1 0x0 DUP3 PUSH1 0x3 DUP6 PUSH8 0xFFFFFFFFFFFFFFFF AND SWAP1 SHL OR SWAP1 POP PUSH1 0x0 PUSH2 0x7C63 DUP3 PUSH2 0x8C18 JUMP JUMPDEST SWAP1 POP DUP1 SWAP3 POP POP POP SWAP3 SWAP2 POP POP JUMP JUMPDEST PUSH1 0x60 PUSH2 0x7C7B DUP3 PUSH2 0x8C18 JUMP JUMPDEST SWAP1 POP SWAP2 SWAP1 POP JUMP JUMPDEST PUSH1 0x0 DUP1 PUSH1 0x0 DUP1 PUSH2 0x7C92 DUP8 DUP8 PUSH2 0x8BD2 JUMP JUMPDEST DUP1 SWAP4 POP DUP2 SWAP10 POP DUP3 SWAP5 POP POP POP POP DUP2 PUSH2 0x7CB1 JUMPI PUSH1 0x0 DUP8 SWAP4 POP SWAP4 POP POP POP PUSH2 0x7CFC JUMP JUMPDEST PUSH1 0x0 DUP2 PUSH8 0xFFFFFFFFFFFFFFFF AND EQ ISZERO PUSH2 0x7CD2 JUMPI PUSH1 0x0 DUP8 SWAP4 POP SWAP4 POP POP POP PUSH2 0x7CFC JUMP JUMPDEST DUP1 DUP6 PUSH1 0x0 ADD SWAP1 PUSH8 0xFFFFFFFFFFFFFFFF AND SWAP1 DUP2 PUSH8 0xFFFFFFFFFFFFFFFF AND DUP2 MSTORE POP POP PUSH1 0x1 DUP8 SWAP4 POP SWAP4 POP POP POP JUMPDEST SWAP4 POP SWAP4 SWAP2 POP POP JUMP JUMPDEST PUSH1 0x0 DUP1 PUSH1 0x0 DUP1 PUSH2 0x7D14 DUP8 DUP8 PUSH2 0x8BB6 JUMP JUMPDEST DUP1 SWAP4 POP DUP2 SWAP10 POP DUP3 SWAP5 POP POP POP POP DUP2 PUSH2 0x7D33 JUMPI PUSH1 0x0 DUP8 SWAP4 POP SWAP4 POP POP POP PUSH2 0x7E81 JUMP JUMPDEST PUSH1 0x0 DUP2 PUSH8 0xFFFFFFFFFFFFFFFF AND EQ ISZERO PUSH2 0x7D54 JUMPI PUSH1 0x0 DUP8 SWAP4 POP SWAP4 POP POP POP PUSH2 0x7E81 JUMP JUMPDEST DUP1 PUSH8 0xFFFFFFFFFFFFFFFF AND PUSH8 0xFFFFFFFFFFFFFFFF DUP2 GT ISZERO PUSH2 0x7D78 JUMPI PUSH2 0x7D77 PUSH2 0xA485 JUMP JUMPDEST JUMPDEST PUSH1 0x40 MLOAD SWAP1 DUP1 DUP3 MSTORE DUP1 PUSH1 0x1F ADD PUSH1 0x1F NOT AND PUSH1 0x20 ADD DUP3 ADD PUSH1 0x40 MSTORE DUP1 ISZERO PUSH2 0x7DAA JUMPI DUP2 PUSH1 0x20 ADD PUSH1 0x1 DUP3 MUL DUP1 CALLDATASIZE DUP4 CALLDATACOPY DUP1 DUP3 ADD SWAP2 POP POP SWAP1 POP JUMPDEST POP DUP6 PUSH1 0x20 ADD DUP2 SWAP1 MSTORE POP PUSH1 0x0 JUMPDEST DUP2 PUSH8 0xFFFFFFFFFFFFFFFF AND DUP2 PUSH8 0xFFFFFFFFFFFFFFFF AND LT ISZERO PUSH2 0x7E68 JUMPI DUP7 DUP2 DUP10 PUSH2 0x7DDF SWAP2 SWAP1 PUSH2 0xA13F JUMP JUMPDEST PUSH8 0xFFFFFFFFFFFFFFFF AND DUP2 MLOAD DUP2 LT PUSH2 0x7DFA JUMPI PUSH2 0x7DF9 PUSH2 0xA456 JUMP JUMPDEST JUMPDEST PUSH1 0x20 ADD ADD MLOAD PUSH1 0xF8 SHR PUSH1 0xF8 SHL DUP7 PUSH1 0x20 ADD MLOAD DUP3 PUSH8 0xFFFFFFFFFFFFFFFF AND DUP2 MLOAD DUP2 LT PUSH2 0x7E26 JUMPI PUSH2 0x7E25 PUSH2 0xA456 JUMP JUMPDEST JUMPDEST PUSH1 0x20 ADD ADD SWAP1 PUSH31 0xFFFFFFFFFFFFFFFFFFFFFFFFFFFFFFFFFFFFFFFFFFFFFFFFFFFFFFFFFFFFFF NOT AND SWAP1 DUP2 PUSH1 0x0 BYTE SWAP1 MSTORE8 POP DUP1 DUP1 PUSH2 0x7E60 SWAP1 PUSH2 0xA398 JUMP JUMPDEST SWAP2 POP POP PUSH2 0x7DB6 JUMP JUMPDEST POP DUP1 DUP8 PUSH2 0x7E75 SWAP2 SWAP1 PUSH2 0xA13F JUMP JUMPDEST SWAP7 POP PUSH1 0x1 DUP8 SWAP4 POP SWAP4 POP POP POP JUMPDEST SWAP4 POP SWAP4 SWAP2 POP POP JUMP JUMPDEST PUSH1 0x0 DUP1 PUSH1 0x0 DUP1 PUSH2 0x7E99 DUP8 DUP8 PUSH2 0x8BB6 JUMP JUMPDEST DUP1 SWAP4 POP DUP2 SWAP10 POP DUP3 SWAP5 POP POP POP POP DUP2 PUSH2 0x7EB8 JUMPI PUSH1 0x0 DUP8 SWAP4 POP SWAP4 POP POP POP PUSH2 0x8006 JUMP JUMPDEST PUSH1 0x0 DUP2 PUSH8 0xFFFFFFFFFFFFFFFF AND EQ ISZERO PUSH2 0x7ED9 JUMPI PUSH1 0x0 DUP8 SWAP4 POP SWAP4 POP POP POP PUSH2 0x8006 JUMP JUMPDEST DUP1 PUSH8 0xFFFFFFFFFFFFFFFF AND PUSH8 0xFFFFFFFFFFFFFFFF DUP2 GT ISZERO PUSH2 0x7EFD JUMPI PUSH2 0x7EFC PUSH2 0xA485 JUMP JUMPDEST JUMPDEST PUSH1 0x40 MLOAD SWAP1 DUP1 DUP3 MSTORE DUP1 PUSH1 0x1F ADD PUSH1 0x1F NOT AND PUSH1 0x20 ADD DUP3 ADD PUSH1 0x40 MSTORE DUP1 ISZERO PUSH2 0x7F2F JUMPI DUP2 PUSH1 0x20 ADD PUSH1 0x1 DUP3 MUL DUP1 CALLDATASIZE DUP4 CALLDATACOPY DUP1 DUP3 ADD SWAP2 POP POP SWAP1 POP JUMPDEST POP DUP6 PUSH1 0x40 ADD DUP2 SWAP1 MSTORE POP PUSH1 0x0 JUMPDEST DUP2 PUSH8 0xFFFFFFFFFFFFFFFF AND DUP2 PUSH8 0xFFFFFFFFFFFFFFFF AND LT ISZERO PUSH2 0x7FED JUMPI DUP7 DUP2 DUP10 PUSH2 0x7F64 SWAP2 SWAP1 PUSH2 0xA13F JUMP JUMPDEST PUSH8 0xFFFFFFFFFFFFFFFF AND DUP2 MLOAD DUP2 LT PUSH2 0x7F7F JUMPI PUSH2 0x7F7E PUSH2 0xA456 JUMP JUMPDEST JUMPDEST PUSH1 0x20 ADD ADD MLOAD PUSH1 0xF8 SHR PUSH1 0xF8 SHL DUP7 PUSH1 0x40 ADD MLOAD DUP3 PUSH8 0xFFFFFFFFFFFFFFFF AND DUP2 MLOAD DUP2 LT PUSH2 0x7FAB JUMPI PUSH2 0x7FAA PUSH2 0xA456 JUMP JUMPDEST JUMPDEST PUSH1 0x20 ADD ADD SWAP1 PUSH31 0xFFFFFFFFFFFFFFFFFFFFFFFFFFFFFFFFFFFFFFFFFFFFFFFFFFFFFFFFFFFFFF NOT AND SWAP1 DUP2 PUSH1 0x0 BYTE SWAP1 MSTORE8 POP DUP1 DUP1 PUSH2 0x7FE5 SWAP1 PUSH2 0xA398 JUMP JUMPDEST SWAP2 POP POP PUSH2 0x7F3B JUMP JUMPDEST POP DUP1 DUP8 PUSH2 0x7FFA SWAP2 SWAP1 PUSH2 0xA13F JUMP JUMPDEST SWAP7 POP PUSH1 0x1 DUP8 SWAP4 POP SWAP4 POP POP POP JUMPDEST SWAP4 POP SWAP4 SWAP2 POP POP JUMP JUMPDEST PUSH1 0x0 DUP1 PUSH1 0x0 DUP1 PUSH2 0x801E DUP8 DUP8 PUSH2 0x8BD2 JUMP JUMPDEST DUP1 SWAP4 POP DUP2 SWAP10 POP DUP3 SWAP5 POP POP POP POP DUP2 PUSH2 0x803D JUMPI PUSH1 0x0 DUP8 SWAP4 POP SWAP4 POP POP POP PUSH2 0x8088 JUMP JUMPDEST PUSH1 0x0 DUP2 PUSH8 0xFFFFFFFFFFFFFFFF AND EQ ISZERO PUSH2 0x805E JUMPI PUSH1 0x0 DUP8 SWAP4 POP SWAP4 POP POP POP PUSH2 0x8088 JUMP JUMPDEST DUP1 DUP6 PUSH1 0x0 ADD SWAP1 PUSH8 0xFFFFFFFFFFFFFFFF AND SWAP1 DUP2 PUSH8 0xFFFFFFFFFFFFFFFF AND DUP2 MSTORE POP POP PUSH1 0x1 DUP8 SWAP4 POP SWAP4 POP POP POP JUMPDEST SWAP4 POP SWAP4 SWAP2 POP POP JUMP JUMPDEST PUSH1 0x0 DUP1 PUSH1 0x0 DUP1 PUSH2 0x80A0 DUP8 DUP8 PUSH2 0x8BB6 JUMP JUMPDEST DUP1 SWAP4 POP DUP2 SWAP10 POP DUP3 SWAP5 POP POP POP POP DUP2 PUSH2 0x80BF JUMPI PUSH1 0x0 DUP8 SWAP4 POP SWAP4 POP POP POP PUSH2 0x820D JUMP JUMPDEST PUSH1 0x0 DUP2 PUSH8 0xFFFFFFFFFFFFFFFF AND EQ ISZERO PUSH2 0x80E0 JUMPI PUSH1 0x0 DUP8 SWAP4 POP SWAP4 POP POP POP PUSH2 0x820D JUMP JUMPDEST DUP1 PUSH8 0xFFFFFFFFFFFFFFFF AND PUSH8 0xFFFFFFFFFFFFFFFF DUP2 GT ISZERO PUSH2 0x8104 JUMPI PUSH2 0x8103 PUSH2 0xA485 JUMP JUMPDEST JUMPDEST PUSH1 0x40 MLOAD SWAP1 DUP1 DUP3 MSTORE DUP1 PUSH1 0x1F ADD PUSH1 0x1F NOT AND PUSH1 0x20 ADD DUP3 ADD PUSH1 0x40 MSTORE DUP1 ISZERO PUSH2 0x8136 JUMPI DUP2 PUSH1 0x20 ADD PUSH1 0x1 DUP3 MUL DUP1 CALLDATASIZE DUP4 CALLDATACOPY DUP1 DUP3 ADD SWAP2 POP POP SWAP1 POP JUMPDEST POP DUP6 PUSH1 0x20 ADD DUP2 SWAP1 MSTORE POP PUSH1 0x0 JUMPDEST DUP2 PUSH8 0xFFFFFFFFFFFFFFFF AND DUP2 PUSH8 0xFFFFFFFFFFFFFFFF AND LT ISZERO PUSH2 0x81F4 JUMPI DUP7 DUP2 DUP10 PUSH2 0x816B SWAP2 SWAP1 PUSH2 0xA13F JUMP JUMPDEST PUSH8 0xFFFFFFFFFFFFFFFF AND DUP2 MLOAD DUP2 LT PUSH2 0x8186 JUMPI PUSH2 0x8185 PUSH2 0xA456 JUMP JUMPDEST JUMPDEST PUSH1 0x20 ADD ADD MLOAD PUSH1 0xF8 SHR PUSH1 0xF8 SHL DUP7 PUSH1 0x20 ADD MLOAD DUP3 PUSH8 0xFFFFFFFFFFFFFFFF AND DUP2 MLOAD DUP2 LT PUSH2 0x81B2 JUMPI PUSH2 0x81B1 PUSH2 0xA456 JUMP JUMPDEST JUMPDEST PUSH1 0x20 ADD ADD SWAP1 PUSH31 0xFFFFFFFFFFFFFFFFFFFFFFFFFFFFFFFFFFFFFFFFFFFFFFFFFFFFFFFFFFFFFF NOT AND SWAP1 DUP2 PUSH1 0x0 BYTE SWAP1 MSTORE8 POP DUP1 DUP1 PUSH2 0x81EC SWAP1 PUSH2 0xA398 JUMP JUMPDEST SWAP2 POP POP PUSH2 0x8142 JUMP JUMPDEST POP DUP1 DUP8 PUSH2 0x8201 SWAP2 SWAP1 PUSH2 0xA13F JUMP JUMPDEST SWAP7 POP PUSH1 0x1 DUP8 SWAP4 POP SWAP4 POP POP POP JUMPDEST SWAP4 POP SWAP4 SWAP2 POP POP JUMP JUMPDEST PUSH1 0x0 DUP1 PUSH1 0x0 DUP1 PUSH2 0x8225 DUP8 DUP8 PUSH2 0x8BB6 JUMP JUMPDEST DUP1 SWAP4 POP DUP2 SWAP10 POP DUP3 SWAP5 POP POP POP POP DUP2 PUSH2 0x8244 JUMPI PUSH1 0x0 DUP8 SWAP4 POP SWAP4 POP POP POP PUSH2 0x8392 JUMP JUMPDEST PUSH1 0x0 DUP2 PUSH8 0xFFFFFFFFFFFFFFFF AND EQ ISZERO PUSH2 0x8265 JUMPI PUSH1 0x0 DUP8 SWAP4 POP SWAP4 POP POP POP PUSH2 0x8392 JUMP JUMPDEST DUP1 PUSH8 0xFFFFFFFFFFFFFFFF AND PUSH8 0xFFFFFFFFFFFFFFFF DUP2 GT ISZERO PUSH2 0x8289 JUMPI PUSH2 0x8288 PUSH2 0xA485 JUMP JUMPDEST JUMPDEST PUSH1 0x40 MLOAD SWAP1 DUP1 DUP3 MSTORE DUP1 PUSH1 0x1F ADD PUSH1 0x1F NOT AND PUSH1 0x20 ADD DUP3 ADD PUSH1 0x40 MSTORE DUP1 ISZERO PUSH2 0x82BB JUMPI DUP2 PUSH1 0x20 ADD PUSH1 0x1 DUP3 MUL DUP1 CALLDATASIZE DUP4 CALLDATACOPY DUP1 DUP3 ADD SWAP2 POP POP SWAP1 POP JUMPDEST POP DUP6 PUSH1 0x40 ADD DUP2 SWAP1 MSTORE POP PUSH1 0x0 JUMPDEST DUP2 PUSH8 0xFFFFFFFFFFFFFFFF AND DUP2 PUSH8 0xFFFFFFFFFFFFFFFF AND LT ISZERO PUSH2 0x8379 JUMPI DUP7 DUP2 DUP10 PUSH2 0x82F0 SWAP2 SWAP1 PUSH2 0xA13F JUMP JUMPDEST PUSH8 0xFFFFFFFFFFFFFFFF AND DUP2 MLOAD DUP2 LT PUSH2 0x830B JUMPI PUSH2 0x830A PUSH2 0xA456 JUMP JUMPDEST JUMPDEST PUSH1 0x20 ADD ADD MLOAD PUSH1 0xF8 SHR PUSH1 0xF8 SHL DUP7 PUSH1 0x40 ADD MLOAD DUP3 PUSH8 0xFFFFFFFFFFFFFFFF AND DUP2 MLOAD DUP2 LT PUSH2 0x8337 JUMPI PUSH2 0x8336 PUSH2 0xA456 JUMP JUMPDEST JUMPDEST PUSH1 0x20 ADD ADD SWAP1 PUSH31 0xFFFFFFFFFFFFFFFFFFFFFFFFFFFFFFFFFFFFFFFFFFFFFFFFFFFFFFFFFFFFFF NOT AND SWAP1 DUP2 PUSH1 0x0 BYTE SWAP1 MSTORE8 POP DUP1 DUP1 PUSH2 0x8371 SWAP1 PUSH2 0xA398 JUMP JUMPDEST SWAP2 POP POP PUSH2 0x82C7 JUMP JUMPDEST POP DUP1 DUP8 PUSH2 0x8386 SWAP2 SWAP1 PUSH2 0xA13F JUMP JUMPDEST SWAP7 POP PUSH1 0x1 DUP8 SWAP4 POP SWAP4 POP POP POP JUMPDEST SWAP4 POP SWAP4 SWAP2 POP POP JUMP JUMPDEST PUSH1 0x0 DUP1 PUSH1 0x0 DUP1 PUSH2 0x83AA DUP8 DUP8 PUSH2 0x8BD2 JUMP JUMPDEST DUP1 SWAP4 POP DUP2 SWAP10 POP DUP3 SWAP5 POP POP POP POP DUP2 PUSH2 0x83C9 JUMPI PUSH1 0x0 DUP8 SWAP4 POP SWAP4 POP POP POP PUSH2 0x8414 JUMP JUMPDEST PUSH1 0x0 DUP2 PUSH8 0xFFFFFFFFFFFFFFFF AND EQ ISZERO PUSH2 0x83EA JUMPI PUSH1 0x0 DUP8 SWAP4 POP SWAP4 POP POP POP PUSH2 0x8414 JUMP JUMPDEST DUP1 DUP6 PUSH1 0x0 ADD SWAP1 PUSH8 0xFFFFFFFFFFFFFFFF AND SWAP1 DUP2 PUSH8 0xFFFFFFFFFFFFFFFF AND DUP2 MSTORE POP POP PUSH1 0x1 DUP8 SWAP4 POP SWAP4 POP POP POP JUMPDEST SWAP4 POP SWAP4 SWAP2 POP POP JUMP JUMPDEST PUSH1 0x0 DUP1 PUSH1 0x0 DUP1 PUSH2 0x842C DUP8 DUP8 PUSH2 0x8BD2 JUMP JUMPDEST DUP1 SWAP4 POP DUP2 SWAP10 POP DUP3 SWAP5 POP POP POP POP DUP2 PUSH2 0x844B JUMPI PUSH1 0x0 DUP8 SWAP4 POP SWAP4 POP POP POP PUSH2 0x8496 JUMP JUMPDEST PUSH1 0x0 DUP2 PUSH8 0xFFFFFFFFFFFFFFFF AND EQ ISZERO PUSH2 0x846C JUMPI PUSH1 0x0 DUP8 SWAP4 POP SWAP4 POP POP POP PUSH2 0x8496 JUMP JUMPDEST DUP1 DUP6 PUSH1 0x20 ADD SWAP1 PUSH8 0xFFFFFFFFFFFFFFFF AND SWAP1 DUP2 PUSH8 0xFFFFFFFFFFFFFFFF AND DUP2 MSTORE POP POP PUSH1 0x1 DUP8 SWAP4 POP SWAP4 POP POP POP JUMPDEST SWAP4 POP SWAP4 SWAP2 POP POP JUMP JUMPDEST PUSH1 0x0 DUP1 PUSH1 0x0 DUP1 PUSH2 0x84AE DUP8 DUP8 PUSH2 0x8BB6 JUMP JUMPDEST DUP1 SWAP4 POP DUP2 SWAP10 POP DUP3 SWAP5 POP POP POP POP DUP2 PUSH2 0x84CD JUMPI PUSH1 0x0 DUP8 SWAP4 POP SWAP4 POP POP POP PUSH2 0x861B JUMP JUMPDEST PUSH1 0x0 DUP2 PUSH8 0xFFFFFFFFFFFFFFFF AND EQ ISZERO PUSH2 0x84EE JUMPI PUSH1 0x0 DUP8 SWAP4 POP SWAP4 POP POP POP PUSH2 0x861B JUMP JUMPDEST DUP1 PUSH8 0xFFFFFFFFFFFFFFFF AND PUSH8 0xFFFFFFFFFFFFFFFF DUP2 GT ISZERO PUSH2 0x8512 JUMPI PUSH2 0x8511 PUSH2 0xA485 JUMP JUMPDEST JUMPDEST PUSH1 0x40 MLOAD SWAP1 DUP1 DUP3 MSTORE DUP1 PUSH1 0x1F ADD PUSH1 0x1F NOT AND PUSH1 0x20 ADD DUP3 ADD PUSH1 0x40 MSTORE DUP1 ISZERO PUSH2 0x8544 JUMPI DUP2 PUSH1 0x20 ADD PUSH1 0x1 DUP3 MUL DUP1 CALLDATASIZE DUP4 CALLDATACOPY DUP1 DUP3 ADD SWAP2 POP POP SWAP1 POP JUMPDEST POP DUP6 PUSH1 0x40 ADD DUP2 SWAP1 MSTORE POP PUSH1 0x0 JUMPDEST DUP2 PUSH8 0xFFFFFFFFFFFFFFFF AND DUP2 PUSH8 0xFFFFFFFFFFFFFFFF AND LT ISZERO PUSH2 0x8602 JUMPI DUP7 DUP2 DUP10 PUSH2 0x8579 SWAP2 SWAP1 PUSH2 0xA13F JUMP JUMPDEST PUSH8 0xFFFFFFFFFFFFFFFF AND DUP2 MLOAD DUP2 LT PUSH2 0x8594 JUMPI PUSH2 0x8593 PUSH2 0xA456 JUMP JUMPDEST JUMPDEST PUSH1 0x20 ADD ADD MLOAD PUSH1 0xF8 SHR PUSH1 0xF8 SHL DUP7 PUSH1 0x40 ADD MLOAD DUP3 PUSH8 0xFFFFFFFFFFFFFFFF AND DUP2 MLOAD DUP2 LT PUSH2 0x85C0 JUMPI PUSH2 0x85BF PUSH2 0xA456 JUMP JUMPDEST JUMPDEST PUSH1 0x20 ADD ADD SWAP1 PUSH31 0xFFFFFFFFFFFFFFFFFFFFFFFFFFFFFFFFFFFFFFFFFFFFFFFFFFFFFFFFFFFFFF NOT AND SWAP1 DUP2 PUSH1 0x0 BYTE SWAP1 MSTORE8 POP DUP1 DUP1 PUSH2 0x85FA SWAP1 PUSH2 0xA398 JUMP JUMPDEST SWAP2 POP POP PUSH2 0x8550 JUMP JUMPDEST POP DUP1 DUP8 PUSH2 0x860F SWAP2 SWAP1 PUSH2 0xA13F JUMP JUMPDEST SWAP7 POP PUSH1 0x1 DUP8 SWAP4 POP SWAP4 POP POP POP JUMPDEST SWAP4 POP SWAP4 SWAP2 POP POP JUMP JUMPDEST PUSH1 0x0 DUP1 PUSH1 0x0 DUP1 PUSH2 0x8633 DUP8 DUP8 PUSH2 0x8BD2 JUMP JUMPDEST DUP1 SWAP4 POP DUP2 SWAP10 POP DUP3 SWAP5 POP POP POP POP DUP2 PUSH2 0x8652 JUMPI PUSH1 0x0 DUP8 SWAP4 POP SWAP4 POP POP POP PUSH2 0x869D JUMP JUMPDEST PUSH1 0x0 DUP2 PUSH8 0xFFFFFFFFFFFFFFFF AND EQ ISZERO PUSH2 0x8673 JUMPI PUSH1 0x0 DUP8 SWAP4 POP SWAP4 POP POP POP PUSH2 0x869D JUMP JUMPDEST DUP1 DUP6 PUSH1 0x0 ADD SWAP1 PUSH8 0xFFFFFFFFFFFFFFFF AND SWAP1 DUP2 PUSH8 0xFFFFFFFFFFFFFFFF AND DUP2 MSTORE POP POP PUSH1 0x1 DUP8 SWAP4 POP SWAP4 POP POP POP JUMPDEST SWAP4 POP SWAP4 SWAP2 POP POP JUMP JUMPDEST PUSH1 0x0 DUP1 PUSH1 0x0 DUP1 PUSH2 0x86B5 DUP8 DUP8 PUSH2 0x8BB6 JUMP JUMPDEST DUP1 SWAP4 POP DUP2 SWAP10 POP DUP3 SWAP5 POP POP POP POP DUP2 PUSH2 0x86D4 JUMPI PUSH1 0x0 DUP8 SWAP4 POP SWAP4 POP POP POP PUSH2 0x8822 JUMP JUMPDEST PUSH1 0x0 DUP2 PUSH8 0xFFFFFFFFFFFFFFFF AND EQ ISZERO PUSH2 0x86F5 JUMPI PUSH1 0x0 DUP8 SWAP4 POP SWAP4 POP POP POP PUSH2 0x8822 JUMP JUMPDEST DUP1 PUSH8 0xFFFFFFFFFFFFFFFF AND PUSH8 0xFFFFFFFFFFFFFFFF DUP2 GT ISZERO PUSH2 0x8719 JUMPI PUSH2 0x8718 PUSH2 0xA485 JUMP JUMPDEST JUMPDEST PUSH1 0x40 MLOAD SWAP1 DUP1 DUP3 MSTORE DUP1 PUSH1 0x1F ADD PUSH1 0x1F NOT AND PUSH1 0x20 ADD DUP3 ADD PUSH1 0x40 MSTORE DUP1 ISZERO PUSH2 0x874B JUMPI DUP2 PUSH1 0x20 ADD PUSH1 0x1 DUP3 MUL DUP1 CALLDATASIZE DUP4 CALLDATACOPY DUP1 DUP3 ADD SWAP2 POP POP SWAP1 POP JUMPDEST POP DUP6 PUSH1 0x20 ADD DUP2 SWAP1 MSTORE POP PUSH1 0x0 JUMPDEST DUP2 PUSH8 0xFFFFFFFFFFFFFFFF AND DUP2 PUSH8 0xFFFFFFFFFFFFFFFF AND LT ISZERO PUSH2 0x8809 JUMPI DUP7 DUP2 DUP10 PUSH2 0x8780 SWAP2 SWAP1 PUSH2 0xA13F JUMP JUMPDEST PUSH8 0xFFFFFFFFFFFFFFFF AND DUP2 MLOAD DUP2 LT PUSH2 0x879B JUMPI PUSH2 0x879A PUSH2 0xA456 JUMP JUMPDEST JUMPDEST PUSH1 0x20 ADD ADD MLOAD PUSH1 0xF8 SHR PUSH1 0xF8 SHL DUP7 PUSH1 0x20 ADD MLOAD DUP3 PUSH8 0xFFFFFFFFFFFFFFFF AND DUP2 MLOAD DUP2 LT PUSH2 0x87C7 JUMPI PUSH2 0x87C6 PUSH2 0xA456 JUMP JUMPDEST JUMPDEST PUSH1 0x20 ADD ADD SWAP1 PUSH31 0xFFFFFFFFFFFFFFFFFFFFFFFFFFFFFFFFFFFFFFFFFFFFFFFFFFFFFFFFFFFFFF NOT AND SWAP1 DUP2 PUSH1 0x0 BYTE SWAP1 MSTORE8 POP DUP1 DUP1 PUSH2 0x8801 SWAP1 PUSH2 0xA398 JUMP JUMPDEST SWAP2 POP POP PUSH2 0x8757 JUMP JUMPDEST POP DUP1 DUP8 PUSH2 0x8816 SWAP2 SWAP1 PUSH2 0xA13F JUMP JUMPDEST SWAP7 POP PUSH1 0x1 DUP8 SWAP4 POP SWAP4 POP POP POP JUMPDEST SWAP4 POP SWAP4 SWAP2 POP POP JUMP JUMPDEST PUSH1 0x0 DUP1 PUSH1 0x0 DUP1 PUSH2 0x883A DUP8 DUP8 PUSH2 0x8BD2 JUMP JUMPDEST DUP1 SWAP4 POP DUP2 SWAP10 POP DUP3 SWAP5 POP POP POP POP DUP2 PUSH2 0x8859 JUMPI PUSH1 0x0 DUP8 SWAP4 POP SWAP4 POP POP POP PUSH2 0x88A4 JUMP JUMPDEST PUSH1 0x0 DUP2 PUSH8 0xFFFFFFFFFFFFFFFF AND EQ ISZERO PUSH2 0x887A JUMPI PUSH1 0x0 DUP8 SWAP4 POP SWAP4 POP POP POP PUSH2 0x88A4 JUMP JUMPDEST DUP1 DUP6 PUSH1 0x0 ADD SWAP1 PUSH8 0xFFFFFFFFFFFFFFFF AND SWAP1 DUP2 PUSH8 0xFFFFFFFFFFFFFFFF AND DUP2 MSTORE POP POP PUSH1 0x1 DUP8 SWAP4 POP SWAP4 POP POP POP JUMPDEST SWAP4 POP SWAP4 SWAP2 POP POP JUMP JUMPDEST PUSH1 0x0 DUP1 PUSH1 0x0 DUP1 PUSH2 0x88BC DUP8 DUP8 PUSH2 0x8BB6 JUMP JUMPDEST DUP1 SWAP4 POP DUP2 SWAP10 POP DUP3 SWAP5 POP POP POP POP DUP2 PUSH2 0x88DB JUMPI PUSH1 0x0 DUP8 SWAP4 POP SWAP4 POP POP POP PUSH2 0x8A29 JUMP JUMPDEST PUSH1 0x0 DUP2 PUSH8 0xFFFFFFFFFFFFFFFF AND EQ ISZERO PUSH2 0x88FC JUMPI PUSH1 0x0 DUP8 SWAP4 POP SWAP4 POP POP POP PUSH2 0x8A29 JUMP JUMPDEST DUP1 PUSH8 0xFFFFFFFFFFFFFFFF AND PUSH8 0xFFFFFFFFFFFFFFFF DUP2 GT ISZERO PUSH2 0x8920 JUMPI PUSH2 0x891F PUSH2 0xA485 JUMP JUMPDEST JUMPDEST PUSH1 0x40 MLOAD SWAP1 DUP1 DUP3 MSTORE DUP1 PUSH1 0x1F ADD PUSH1 0x1F NOT AND PUSH1 0x20 ADD DUP3 ADD PUSH1 0x40 MSTORE DUP1 ISZERO PUSH2 0x8952 JUMPI DUP2 PUSH1 0x20 ADD PUSH1 0x1 DUP3 MUL DUP1 CALLDATASIZE DUP4 CALLDATACOPY DUP1 DUP3 ADD SWAP2 POP POP SWAP1 POP JUMPDEST POP DUP6 PUSH1 0x20 ADD DUP2 SWAP1 MSTORE POP PUSH1 0x0 JUMPDEST DUP2 PUSH8 0xFFFFFFFFFFFFFFFF AND DUP2 PUSH8 0xFFFFFFFFFFFFFFFF AND LT ISZERO PUSH2 0x8A10 JUMPI DUP7 DUP2 DUP10 PUSH2 0x8987 SWAP2 SWAP1 PUSH2 0xA13F JUMP JUMPDEST PUSH8 0xFFFFFFFFFFFFFFFF AND DUP2 MLOAD DUP2 LT PUSH2 0x89A2 JUMPI PUSH2 0x89A1 PUSH2 0xA456 JUMP JUMPDEST JUMPDEST PUSH1 0x20 ADD ADD MLOAD PUSH1 0xF8 SHR PUSH1 0xF8 SHL DUP7 PUSH1 0x20 ADD MLOAD DUP3 PUSH8 0xFFFFFFFFFFFFFFFF AND DUP2 MLOAD DUP2 LT PUSH2 0x89CE JUMPI PUSH2 0x89CD PUSH2 0xA456 JUMP JUMPDEST JUMPDEST PUSH1 0x20 ADD ADD SWAP1 PUSH31 0xFFFFFFFFFFFFFFFFFFFFFFFFFFFFFFFFFFFFFFFFFFFFFFFFFFFFFFFFFFFFFF NOT AND SWAP1 DUP2 PUSH1 0x0 BYTE SWAP1 MSTORE8 POP DUP1 DUP1 PUSH2 0x8A08 SWAP1 PUSH2 0xA398 JUMP JUMPDEST SWAP2 POP POP PUSH2 0x895E JUMP JUMPDEST POP DUP1 DUP8 PUSH2 0x8A1D SWAP2 SWAP1 PUSH2 0xA13F JUMP JUMPDEST SWAP7 POP PUSH1 0x1 DUP8 SWAP4 POP SWAP4 POP POP POP JUMPDEST SWAP4 POP SWAP4 SWAP2 POP POP JUMP JUMPDEST PUSH1 0x0 DUP1 PUSH1 0x0 DUP1 PUSH2 0x8A41 DUP8 DUP8 PUSH2 0x8BB6 JUMP JUMPDEST DUP1 SWAP4 POP DUP2 SWAP10 POP DUP3 SWAP5 POP POP POP POP DUP2 PUSH2 0x8A60 JUMPI PUSH1 0x0 DUP8 SWAP4 POP SWAP4 POP POP POP PUSH2 0x8BAE JUMP JUMPDEST PUSH1 0x0 DUP2 PUSH8 0xFFFFFFFFFFFFFFFF AND EQ ISZERO PUSH2 0x8A81 JUMPI PUSH1 0x0 DUP8 SWAP4 POP SWAP4 POP POP POP PUSH2 0x8BAE JUMP JUMPDEST DUP1 PUSH8 0xFFFFFFFFFFFFFFFF AND PUSH8 0xFFFFFFFFFFFFFFFF DUP2 GT ISZERO PUSH2 0x8AA5 JUMPI PUSH2 0x8AA4 PUSH2 0xA485 JUMP JUMPDEST JUMPDEST PUSH1 0x40 MLOAD SWAP1 DUP1 DUP3 MSTORE DUP1 PUSH1 0x1F ADD PUSH1 0x1F NOT AND PUSH1 0x20 ADD DUP3 ADD PUSH1 0x40 MSTORE DUP1 ISZERO PUSH2 0x8AD7 JUMPI DUP2 PUSH1 0x20 ADD PUSH1 0x1 DUP3 MUL DUP1 CALLDATASIZE DUP4 CALLDATACOPY DUP1 DUP3 ADD SWAP2 POP POP SWAP1 POP JUMPDEST POP DUP6 PUSH1 0x40 ADD DUP2 SWAP1 MSTORE POP PUSH1 0x0 JUMPDEST DUP2 PUSH8 0xFFFFFFFFFFFFFFFF AND DUP2 PUSH8 0xFFFFFFFFFFFFFFFF AND LT ISZERO PUSH2 0x8B95 JUMPI DUP7 DUP2 DUP10 PUSH2 0x8B0C SWAP2 SWAP1 PUSH2 0xA13F JUMP JUMPDEST PUSH8 0xFFFFFFFFFFFFFFFF AND DUP2 MLOAD DUP2 LT PUSH2 0x8B27 JUMPI PUSH2 0x8B26 PUSH2 0xA456 JUMP JUMPDEST JUMPDEST PUSH1 0x20 ADD ADD MLOAD PUSH1 0xF8 SHR PUSH1 0xF8 SHL DUP7 PUSH1 0x40 ADD MLOAD DUP3 PUSH8 0xFFFFFFFFFFFFFFFF AND DUP2 MLOAD DUP2 LT PUSH2 0x8B53 JUMPI PUSH2 0x8B52 PUSH2 0xA456 JUMP JUMPDEST JUMPDEST PUSH1 0x20 ADD ADD SWAP1 PUSH31 0xFFFFFFFFFFFFFFFFFFFFFFFFFFFFFFFFFFFFFFFFFFFFFFFFFFFFFFFFFFFFFF NOT AND SWAP1 DUP2 PUSH1 0x0 BYTE SWAP1 MSTORE8 POP DUP1 DUP1 PUSH2 0x8B8D SWAP1 PUSH2 0xA398 JUMP JUMPDEST SWAP2 POP POP PUSH2 0x8AE3 JUMP JUMPDEST POP DUP1 DUP8 PUSH2 0x8BA2 SWAP2 SWAP1 PUSH2 0xA13F JUMP JUMPDEST SWAP7 POP PUSH1 0x1 DUP8 SWAP4 POP SWAP4 POP POP POP JUMPDEST SWAP4 POP SWAP4 SWAP2 POP POP JUMP JUMPDEST PUSH1 0x0 DUP1 PUSH1 0x0 PUSH2 0x8BC5 DUP6 DUP6 PUSH2 0x8DCA JUMP JUMPDEST SWAP3 POP SWAP3 POP SWAP3 POP SWAP3 POP SWAP3 POP SWAP3 JUMP JUMPDEST PUSH1 0x0 DUP1 PUSH1 0x0 DUP1 PUSH1 0x0 DUP1 PUSH2 0x8BE5 DUP9 DUP9 PUSH2 0x74B6 JUMP JUMPDEST SWAP3 POP SWAP3 POP SWAP3 POP DUP3 PUSH2 0x8C03 JUMPI PUSH1 0x0 DUP3 PUSH1 0x0 SWAP6 POP SWAP6 POP SWAP6 POP POP POP POP PUSH2 0x8C11 JUMP JUMPDEST PUSH1 0x1 DUP3 DUP3 SWAP6 POP SWAP6 POP SWAP6 POP POP POP POP JUMPDEST SWAP3 POP SWAP3 POP SWAP3 JUMP JUMPDEST PUSH1 0x60 PUSH1 0x0 DUP3 SWAP1 POP PUSH1 0x0 PUSH1 0x1 SWAP1 POP JUMPDEST PUSH1 0x7F DUP3 PUSH8 0xFFFFFFFFFFFFFFFF AND GT ISZERO PUSH2 0x8C5E JUMPI PUSH1 0x7 DUP3 PUSH8 0xFFFFFFFFFFFFFFFF AND SWAP1 SHR SWAP2 POP PUSH1 0x1 DUP2 PUSH2 0x8C57 SWAP2 SWAP1 PUSH2 0xA13F JUMP JUMPDEST SWAP1 POP PUSH2 0x8C26 JUMP JUMPDEST PUSH1 0x0 DUP2 PUSH8 0xFFFFFFFFFFFFFFFF AND PUSH8 0xFFFFFFFFFFFFFFFF DUP2 GT ISZERO PUSH2 0x8C84 JUMPI PUSH2 0x8C83 PUSH2 0xA485 JUMP JUMPDEST JUMPDEST PUSH1 0x40 MLOAD SWAP1 DUP1 DUP3 MSTORE DUP1 PUSH1 0x1F ADD PUSH1 0x1F NOT AND PUSH1 0x20 ADD DUP3 ADD PUSH1 0x40 MSTORE DUP1 ISZERO PUSH2 0x8CB6 JUMPI DUP2 PUSH1 0x20 ADD PUSH1 0x1 DUP3 MUL DUP1 CALLDATASIZE DUP4 CALLDATACOPY DUP1 DUP3 ADD SWAP2 POP POP SWAP1 POP JUMPDEST POP SWAP1 POP DUP5 SWAP3 POP PUSH1 0x0 JUMPDEST DUP3 PUSH8 0xFFFFFFFFFFFFFFFF AND DUP2 PUSH8 0xFFFFFFFFFFFFFFFF AND LT ISZERO PUSH2 0x8D55 JUMPI PUSH1 0x7F DUP5 AND PUSH1 0x80 OR PUSH1 0xF8 SHL DUP3 DUP3 PUSH8 0xFFFFFFFFFFFFFFFF AND DUP2 MLOAD DUP2 LT PUSH2 0x8D02 JUMPI PUSH2 0x8D01 PUSH2 0xA456 JUMP JUMPDEST JUMPDEST PUSH1 0x20 ADD ADD SWAP1 PUSH31 0xFFFFFFFFFFFFFFFFFFFFFFFFFFFFFFFFFFFFFFFFFFFFFFFFFFFFFFFFFFFFFF NOT AND SWAP1 DUP2 PUSH1 0x0 BYTE SWAP1 MSTORE8 POP PUSH1 0x7 DUP5 PUSH8 0xFFFFFFFFFFFFFFFF AND SWAP1 SHR SWAP4 POP DUP1 DUP1 PUSH2 0x8D4D SWAP1 PUSH2 0xA398 JUMP JUMPDEST SWAP2 POP POP PUSH2 0x8CBF JUMP JUMPDEST POP PUSH1 0x7F PUSH1 0xF8 SHL DUP2 PUSH1 0x1 DUP5 PUSH2 0x8D69 SWAP2 SWAP1 PUSH2 0xA1BF JUMP JUMPDEST PUSH8 0xFFFFFFFFFFFFFFFF AND DUP2 MLOAD DUP2 LT PUSH2 0x8D84 JUMPI PUSH2 0x8D83 PUSH2 0xA456 JUMP JUMPDEST JUMPDEST PUSH1 0x20 ADD ADD DUP2 DUP2 MLOAD PUSH1 0xF8 SHR PUSH1 0xF8 SHL AND SWAP2 POP SWAP1 PUSH31 0xFFFFFFFFFFFFFFFFFFFFFFFFFFFFFFFFFFFFFFFFFFFFFFFFFFFFFFFFFFFFFF NOT AND SWAP1 DUP2 PUSH1 0x0 BYTE SWAP1 MSTORE8 POP DUP1 SWAP4 POP POP POP POP SWAP2 SWAP1 POP JUMP JUMPDEST PUSH1 0x0 DUP1 PUSH1 0x0 DUP1 PUSH1 0x0 DUP1 PUSH2 0x8DDD DUP9 DUP9 PUSH2 0x74B6 JUMP JUMPDEST SWAP3 POP SWAP3 POP SWAP3 POP DUP3 PUSH2 0x8DFB JUMPI PUSH1 0x0 DUP3 PUSH1 0x0 SWAP6 POP SWAP6 POP SWAP6 POP POP POP POP PUSH2 0x8E6B JUMP JUMPDEST DUP2 PUSH8 0xFFFFFFFFFFFFFFFF AND DUP2 DUP4 ADD PUSH8 0xFFFFFFFFFFFFFFFF AND LT ISZERO PUSH2 0x8E2C JUMPI PUSH1 0x0 DUP3 PUSH1 0x0 SWAP6 POP SWAP6 POP SWAP6 POP POP POP POP PUSH2 0x8E6B JUMP JUMPDEST DUP7 MLOAD DUP3 DUP3 PUSH2 0x8E3A SWAP2 SWAP1 PUSH2 0xA13F JUMP JUMPDEST PUSH8 0xFFFFFFFFFFFFFFFF AND GT ISZERO PUSH2 0x8E5D JUMPI PUSH1 0x0 DUP3 PUSH1 0x0 SWAP6 POP SWAP6 POP SWAP6 POP POP POP POP PUSH2 0x8E6B JUMP JUMPDEST PUSH1 0x1 DUP3 DUP3 SWAP6 POP SWAP6 POP SWAP6 POP POP POP POP JUMPDEST SWAP3 POP SWAP3 POP SWAP3 JUMP JUMPDEST PUSH1 0x40 MLOAD DUP1 PUSH1 0x60 ADD PUSH1 0x40 MSTORE DUP1 PUSH1 0x0 PUSH8 0xFFFFFFFFFFFFFFFF AND DUP2 MSTORE PUSH1 0x20 ADD PUSH1 0x0 PUSH1 0x8 DUP2 GT ISZERO PUSH2 0x8EA2 JUMPI PUSH2 0x8EA1 PUSH2 0xA3F8 JUMP JUMPDEST JUMPDEST DUP2 MSTORE PUSH1 0x20 ADD PUSH1 0x60 DUP2 MSTORE POP SWAP1 JUMP JUMPDEST POP DUP1 SLOAD PUSH1 0x0 DUP3 SSTORE PUSH1 0x2 MUL SWAP1 PUSH1 0x0 MSTORE PUSH1 0x20 PUSH1 0x0 KECCAK256 SWAP1 DUP2 ADD SWAP1 PUSH2 0x8ED0 SWAP2 SWAP1 PUSH2 0x93B0 JUMP JUMPDEST POP JUMP JUMPDEST PUSH1 0x40 MLOAD DUP1 PUSH1 0xA0 ADD PUSH1 0x40 MSTORE DUP1 PUSH1 0x60 DUP2 MSTORE PUSH1 0x20 ADD PUSH1 0x60 DUP2 MSTORE PUSH1 0x20 ADD PUSH1 0x0 PUSH8 0xFFFFFFFFFFFFFFFF AND DUP2 MSTORE PUSH1 0x20 ADD PUSH1 0x0 PUSH8 0xFFFFFFFFFFFFFFFF AND DUP2 MSTORE PUSH1 0x20 ADD PUSH1 0x60 DUP2 MSTORE POP SWAP1 JUMP JUMPDEST PUSH1 0x40 MLOAD DUP1 PUSH1 0xA0 ADD PUSH1 0x40 MSTORE DUP1 PUSH1 0x60 DUP2 MSTORE PUSH1 0x20 ADD PUSH1 0x60 DUP2 MSTORE PUSH1 0x20 ADD PUSH1 0x0 PUSH8 0xFFFFFFFFFFFFFFFF AND DUP2 MSTORE PUSH1 0x20 ADD PUSH1 0x0 PUSH8 0xFFFFFFFFFFFFFFFF AND DUP2 MSTORE PUSH1 0x20 ADD PUSH1 0x60 DUP2 MSTORE POP SWAP1 JUMP JUMPDEST PUSH1 0x40 MLOAD DUP1 PUSH1 0x60 ADD PUSH1 0x40 MSTORE DUP1 PUSH1 0x0 PUSH8 0xFFFFFFFFFFFFFFFF AND DUP2 MSTORE PUSH1 0x20 ADD PUSH1 0x60 DUP2 MSTORE PUSH1 0x20 ADD PUSH1 0x60 DUP2 MSTORE POP SWAP1 JUMP JUMPDEST PUSH1 0x40 MLOAD DUP1 PUSH1 0x60 ADD PUSH1 0x40 MSTORE DUP1 PUSH1 0x60 DUP2 MSTORE PUSH1 0x20 ADD PUSH1 0x0 PUSH8 0xFFFFFFFFFFFFFFFF AND DUP2 MSTORE PUSH1 0x20 ADD PUSH1 0x60 DUP2 MSTORE POP SWAP1 JUMP JUMPDEST PUSH1 0x40 MLOAD DUP1 PUSH1 0x60 ADD PUSH1 0x40 MSTORE DUP1 PUSH1 0x0 PUSH8 0xFFFFFFFFFFFFFFFF AND DUP2 MSTORE PUSH1 0x20 ADD PUSH1 0x60 DUP2 MSTORE PUSH1 0x20 ADD PUSH1 0x60 DUP2 MSTORE POP SWAP1 JUMP JUMPDEST PUSH1 0x40 MLOAD DUP1 PUSH1 0x60 ADD PUSH1 0x40 MSTORE DUP1 PUSH1 0x60 DUP2 MSTORE PUSH1 0x20 ADD PUSH1 0x0 PUSH8 0xFFFFFFFFFFFFFFFF AND DUP2 MSTORE PUSH1 0x20 ADD PUSH1 0x60 DUP2 MSTORE POP SWAP1 JUMP JUMPDEST PUSH1 0x40 MLOAD DUP1 PUSH1 0x60 ADD PUSH1 0x40 MSTORE DUP1 PUSH1 0x0 PUSH8 0xFFFFFFFFFFFFFFFF AND DUP2 MSTORE PUSH1 0x20 ADD PUSH1 0x0 PUSH8 0xFFFFFFFFFFFFFFFF AND DUP2 MSTORE PUSH1 0x20 ADD PUSH1 0x60 DUP2 MSTORE POP SWAP1 JUMP JUMPDEST PUSH1 0x40 MLOAD DUP1 PUSH1 0x60 ADD PUSH1 0x40 MSTORE DUP1 PUSH1 0x0 PUSH8 0xFFFFFFFFFFFFFFFF AND DUP2 MSTORE PUSH1 0x20 ADD PUSH1 0x0 PUSH8 0xFFFFFFFFFFFFFFFF AND DUP2 MSTORE PUSH1 0x20 ADD PUSH1 0x60 DUP2 MSTORE POP SWAP1 JUMP JUMPDEST PUSH1 0x40 MLOAD DUP1 PUSH1 0x40 ADD PUSH1 0x40 MSTORE DUP1 PUSH1 0x0 PUSH8 0xFFFFFFFFFFFFFFFF AND DUP2 MSTORE PUSH1 0x20 ADD PUSH1 0x60 DUP2 MSTORE POP SWAP1 JUMP JUMPDEST PUSH1 0x40 MLOAD DUP1 PUSH1 0x80 ADD PUSH1 0x40 MSTORE DUP1 PUSH1 0x0 PUSH8 0xFFFFFFFFFFFFFFFF AND DUP2 MSTORE PUSH1 0x20 ADD PUSH1 0x0 PUSH8 0xFFFFFFFFFFFFFFFF AND DUP2 MSTORE PUSH1 0x20 ADD PUSH1 0x0 PUSH8 0xFFFFFFFFFFFFFFFF AND DUP2 MSTORE PUSH1 0x20 ADD PUSH1 0x60 DUP2 MSTORE POP SWAP1 JUMP JUMPDEST PUSH1 0x40 MLOAD DUP1 PUSH1 0x60 ADD PUSH1 0x40 MSTORE DUP1 PUSH1 0x0 PUSH8 0xFFFFFFFFFFFFFFFF AND DUP2 MSTORE PUSH1 0x20 ADD PUSH1 0x60 DUP2 MSTORE PUSH1 0x20 ADD PUSH1 0x60 DUP2 MSTORE POP SWAP1 JUMP JUMPDEST PUSH1 0x40 MLOAD DUP1 PUSH1 0xA0 ADD PUSH1 0x40 MSTORE DUP1 PUSH1 0x0 PUSH8 0xFFFFFFFFFFFFFFFF AND DUP2 MSTORE PUSH1 0x20 ADD PUSH1 0x60 DUP2 MSTORE PUSH1 0x20 ADD PUSH1 0x0 PUSH8 0xFFFFFFFFFFFFFFFF AND DUP2 MSTORE PUSH1 0x20 ADD PUSH1 0x60 DUP2 MSTORE PUSH1 0x20 ADD PUSH1 0x60 DUP2 MSTORE POP SWAP1 JUMP JUMPDEST PUSH1 0x40 MLOAD DUP1 PUSH2 0x1A0 ADD PUSH1 0x40 MSTORE DUP1 PUSH1 0x60 DUP2 MSTORE PUSH1 0x20 ADD PUSH1 0x60 DUP2 MSTORE PUSH1 0x20 ADD PUSH1 0x60 DUP2 MSTORE PUSH1 0x20 ADD PUSH1 0x60 DUP2 MSTORE PUSH1 0x20 ADD PUSH1 0x60 DUP2 MSTORE PUSH1 0x20 ADD PUSH1 0x60 DUP2 MSTORE PUSH1 0x20 ADD PUSH1 0x60 DUP2 MSTORE PUSH1 0x20 ADD PUSH1 0x60 DUP2 MSTORE PUSH1 0x20 ADD PUSH1 0x60 DUP2 MSTORE PUSH1 0x20 ADD PUSH1 0x60 DUP2 MSTORE PUSH1 0x20 ADD PUSH1 0x60 DUP2 MSTORE PUSH1 0x20 ADD PUSH1 0x60 DUP2 MSTORE PUSH1 0x20 ADD PUSH1 0x60 DUP2 MSTORE POP SWAP1 JUMP JUMPDEST DUP3 DUP1 SLOAD PUSH2 0x91BB SWAP1 PUSH2 0xA2EC JUMP JUMPDEST SWAP1 PUSH1 0x0 MSTORE PUSH1 0x20 PUSH1 0x0 KECCAK256 SWAP1 PUSH1 0x1F ADD PUSH1 0x20 SWAP1 DIV DUP2 ADD SWAP3 DUP3 PUSH2 0x91DD JUMPI PUSH1 0x0 DUP6 SSTORE PUSH2 0x9224 JUMP JUMPDEST DUP3 PUSH1 0x1F LT PUSH2 0x91F6 JUMPI DUP1 MLOAD PUSH1 0xFF NOT AND DUP4 DUP1 ADD OR DUP6 SSTORE PUSH2 0x9224 JUMP JUMPDEST DUP3 DUP1 ADD PUSH1 0x1 ADD DUP6 SSTORE DUP3 ISZERO PUSH2 0x9224 JUMPI SWAP2 DUP3 ADD JUMPDEST DUP3 DUP2 GT ISZERO PUSH2 0x9223 JUMPI DUP3 MLOAD DUP3 SSTORE SWAP2 PUSH1 0x20 ADD SWAP2 SWAP1 PUSH1 0x1 ADD SWAP1 PUSH2 0x9208 JUMP JUMPDEST JUMPDEST POP SWAP1 POP PUSH2 0x9231 SWAP2 SWAP1 PUSH2 0x9406 JUMP JUMPDEST POP SWAP1 JUMP JUMPDEST PUSH1 0x40 MLOAD DUP1 PUSH2 0x100 ADD PUSH1 0x40 MSTORE DUP1 PUSH1 0x60 DUP2 MSTORE PUSH1 0x20 ADD PUSH1 0x60 DUP2 MSTORE PUSH1 0x20 ADD PUSH1 0x60 DUP2 MSTORE PUSH1 0x20 ADD PUSH1 0x60 DUP2 MSTORE PUSH1 0x20 ADD PUSH1 0x60 DUP2 MSTORE PUSH1 0x20 ADD PUSH1 0x60 DUP2 MSTORE PUSH1 0x20 ADD PUSH1 0x60 DUP2 MSTORE PUSH1 0x20 ADD PUSH1 0x60 DUP2 MSTORE POP SWAP1 JUMP JUMPDEST PUSH1 0x40 MLOAD DUP1 PUSH2 0x100 ADD PUSH1 0x40 MSTORE DUP1 PUSH1 0x60 DUP2 MSTORE PUSH1 0x20 ADD PUSH1 0x60 DUP2 MSTORE PUSH1 0x20 ADD PUSH1 0x60 DUP2 MSTORE PUSH1 0x20 ADD PUSH1 0x60 DUP2 MSTORE PUSH1 0x20 ADD PUSH1 0x60 DUP2 MSTORE PUSH1 0x20 ADD PUSH1 0x60 DUP2 MSTORE PUSH1 0x20 ADD PUSH1 0x60 DUP2 MSTORE PUSH1 0x20 ADD PUSH1 0x60 DUP2 MSTORE POP SWAP1 JUMP JUMPDEST PUSH1 0x40 MLOAD DUP1 PUSH1 0xE0 ADD PUSH1 0x40 MSTORE DUP1 PUSH1 0x60 DUP2 MSTORE PUSH1 0x20 ADD PUSH1 0x60 DUP2 MSTORE PUSH1 0x20 ADD PUSH1 0x60 DUP2 MSTORE PUSH1 0x20 ADD PUSH1 0x60 DUP2 MSTORE PUSH1 0x20 ADD PUSH1 0x60 DUP2 MSTORE PUSH1 0x20 ADD PUSH1 0x60 DUP2 MSTORE PUSH1 0x20 ADD PUSH1 0x60 DUP2 MSTORE POP SWAP1 JUMP JUMPDEST PUSH1 0x40 MLOAD DUP1 PUSH2 0x120 ADD PUSH1 0x40 MSTORE DUP1 PUSH1 0x60 DUP2 MSTORE PUSH1 0x20 ADD PUSH1 0x60 DUP2 MSTORE PUSH1 0x20 ADD PUSH1 0x60 DUP2 MSTORE PUSH1 0x20 ADD PUSH1 0x60 DUP2 MSTORE PUSH1 0x20 ADD PUSH1 0x60 DUP2 MSTORE PUSH1 0x20 ADD PUSH1 0x60 DUP2 MSTORE PUSH1 0x20 ADD PUSH1 0x60 DUP2 MSTORE PUSH1 0x20 ADD PUSH1 0x60 DUP2 MSTORE PUSH1 0x20 ADD PUSH1 0x60 DUP2 MSTORE POP SWAP1 JUMP JUMPDEST PUSH1 0x40 MLOAD DUP1 PUSH2 0x1A0 ADD PUSH1 0x40 MSTORE DUP1 PUSH1 0x60 DUP2 MSTORE PUSH1 0x20 ADD PUSH1 0x60 DUP2 MSTORE PUSH1 0x20 ADD PUSH1 0x60 DUP2 MSTORE PUSH1 0x20 ADD PUSH1 0x60 DUP2 MSTORE PUSH1 0x20 ADD PUSH1 0x60 DUP2 MSTORE PUSH1 0x20 ADD PUSH1 0x60 DUP2 MSTORE PUSH1 0x20 ADD PUSH1 0x60 DUP2 MSTORE PUSH1 0x20 ADD PUSH1 0x60 DUP2 MSTORE PUSH1 0x20 ADD PUSH1 0x60 DUP2 MSTORE PUSH1 0x20 ADD PUSH1 0x60 DUP2 MSTORE PUSH1 0x20 ADD PUSH1 0x60 DUP2 MSTORE PUSH1 0x20 ADD PUSH1 0x60 DUP2 MSTORE PUSH1 0x20 ADD PUSH1 0x60 DUP2 MSTORE POP SWAP1 JUMP JUMPDEST JUMPDEST DUP1 DUP3 GT ISZERO PUSH2 0x9402 JUMPI PUSH1 0x0 DUP1 DUP3 ADD PUSH1 0x0 PUSH2 0x100 EXP DUP2 SLOAD SWAP1 PUSH8 0xFFFFFFFFFFFFFFFF MUL NOT AND SWAP1 SSTORE PUSH1 0x0 DUP3 ADD PUSH1 0x8 PUSH2 0x100 EXP DUP2 SLOAD SWAP1 PUSH1 0xFF MUL NOT AND SWAP1 SSTORE PUSH1 0x1 DUP3 ADD PUSH1 0x0 PUSH2 0x93F9 SWAP2 SWAP1 PUSH2 0x9423 JUMP JUMPDEST POP PUSH1 0x2 ADD PUSH2 0x93B1 JUMP JUMPDEST POP SWAP1 JUMP JUMPDEST JUMPDEST DUP1 DUP3 GT ISZERO PUSH2 0x941F JUMPI PUSH1 0x0 DUP2 PUSH1 0x0 SWAP1 SSTORE POP PUSH1 0x1 ADD PUSH2 0x9407 JUMP JUMPDEST POP SWAP1 JUMP JUMPDEST POP DUP1 SLOAD PUSH2 0x942F SWAP1 PUSH2 0xA2EC JUMP JUMPDEST PUSH1 0x0 DUP3 SSTORE DUP1 PUSH1 0x1F LT PUSH2 0x9441 JUMPI POP PUSH2 0x9460 JUMP JUMPDEST PUSH1 0x1F ADD PUSH1 0x20 SWAP1 DIV SWAP1 PUSH1 0x0 MSTORE PUSH1 0x20 PUSH1 0x0 KECCAK256 SWAP1 DUP2 ADD SWAP1 PUSH2 0x945F SWAP2 SWAP1 PUSH2 0x9406 JUMP JUMPDEST JUMPDEST POP JUMP JUMPDEST PUSH1 0x0 PUSH2 0x9476 PUSH2 0x9471 DUP5 PUSH2 0xA09F JUMP JUMPDEST PUSH2 0xA07A JUMP JUMPDEST SWAP1 POP DUP1 DUP4 DUP3 MSTORE PUSH1 0x20 DUP3 ADD SWAP1 POP DUP3 DUP6 PUSH1 0x20 DUP7 MUL DUP3 ADD GT ISZERO PUSH2 0x9499 JUMPI PUSH2 0x9498 PUSH2 0xA4C3 JUMP JUMPDEST JUMPDEST PUSH1 0x0 JUMPDEST DUP6 DUP2 LT ISZERO PUSH2 0x94E7 JUMPI DUP2 CALLDATALOAD PUSH8 0xFFFFFFFFFFFFFFFF DUP2 GT ISZERO PUSH2 0x94BF JUMPI PUSH2 0x94BE PUSH2 0xA4B4 JUMP JUMPDEST JUMPDEST DUP1 DUP7 ADD PUSH2 0x94CC DUP10 DUP3 PUSH2 0x971F JUMP JUMPDEST DUP6 MSTORE PUSH1 0x20 DUP6 ADD SWAP5 POP PUSH1 0x20 DUP5 ADD SWAP4 POP POP POP PUSH1 0x1 DUP2 ADD SWAP1 POP PUSH2 0x949C JUMP JUMPDEST POP POP POP SWAP4 SWAP3 POP POP POP JUMP JUMPDEST PUSH1 0x0 PUSH2 0x9504 PUSH2 0x94FF DUP5 PUSH2 0xA0CB JUMP JUMPDEST PUSH2 0xA07A JUMP JUMPDEST SWAP1 POP DUP3 DUP2 MSTORE PUSH1 0x20 DUP2 ADD DUP5 DUP5 DUP5 ADD GT ISZERO PUSH2 0x9520 JUMPI PUSH2 0x951F PUSH2 0xA4C8 JUMP JUMPDEST JUMPDEST PUSH2 0x952B DUP5 DUP3 DUP6 PUSH2 0xA2AA JUMP JUMPDEST POP SWAP4 SWAP3 POP POP POP JUMP JUMPDEST PUSH1 0x0 PUSH2 0x9546 PUSH2 0x9541 DUP5 PUSH2 0xA0CB JUMP JUMPDEST PUSH2 0xA07A JUMP JUMPDEST SWAP1 POP DUP3 DUP2 MSTORE PUSH1 0x20 DUP2 ADD DUP5 DUP5 DUP5 ADD GT ISZERO PUSH2 0x9562 JUMPI PUSH2 0x9561 PUSH2 0xA4C8 JUMP JUMPDEST JUMPDEST PUSH2 0x956D DUP5 DUP3 DUP6 PUSH2 0xA2B9 JUMP JUMPDEST POP SWAP4 SWAP3 POP POP POP JUMP JUMPDEST PUSH1 0x0 DUP2 CALLDATALOAD SWAP1 POP PUSH2 0x9584 DUP2 PUSH2 0xA95D JUMP JUMPDEST SWAP3 SWAP2 POP POP JUMP JUMPDEST PUSH1 0x0 DUP3 PUSH1 0x1F DUP4 ADD SLT PUSH2 0x959F JUMPI PUSH2 0x959E PUSH2 0xA4B4 JUMP JUMPDEST JUMPDEST DUP2 CALLDATALOAD PUSH2 0x95AF DUP5 DUP3 PUSH1 0x20 DUP7 ADD PUSH2 0x9463 JUMP JUMPDEST SWAP2 POP POP SWAP3 SWAP2 POP POP JUMP JUMPDEST PUSH1 0x0 DUP2 MLOAD SWAP1 POP PUSH2 0x95C7 DUP2 PUSH2 0xA974 JUMP JUMPDEST SWAP3 SWAP2 POP POP JUMP JUMPDEST PUSH1 0x0 DUP3 PUSH1 0x1F DUP4 ADD SLT PUSH2 0x95E2 JUMPI PUSH2 0x95E1 PUSH2 0xA4B4 JUMP JUMPDEST JUMPDEST DUP2 CALLDATALOAD PUSH2 0x95F2 DUP5 DUP3 PUSH1 0x20 DUP7 ADD PUSH2 0x94F1 JUMP JUMPDEST SWAP2 POP POP SWAP3 SWAP2 POP POP JUMP JUMPDEST PUSH1 0x0 DUP3 PUSH1 0x1F DUP4 ADD SLT PUSH2 0x9610 JUMPI PUSH2 0x960F PUSH2 0xA4B4 JUMP JUMPDEST JUMPDEST DUP2 MLOAD PUSH2 0x9620 DUP5 DUP3 PUSH1 0x20 DUP7 ADD PUSH2 0x9533 JUMP JUMPDEST SWAP2 POP POP SWAP3 SWAP2 POP POP JUMP JUMPDEST PUSH1 0x0 DUP2 CALLDATALOAD SWAP1 POP PUSH2 0x9638 DUP2 PUSH2 0xA98B JUMP JUMPDEST SWAP3 SWAP2 POP POP JUMP JUMPDEST PUSH1 0x0 DUP2 CALLDATALOAD SWAP1 POP PUSH2 0x964D DUP2 PUSH2 0xA99B JUMP JUMPDEST SWAP3 SWAP2 POP POP JUMP JUMPDEST PUSH1 0x0 PUSH1 0x80 DUP3 DUP5 SUB SLT ISZERO PUSH2 0x9669 JUMPI PUSH2 0x9668 PUSH2 0xA4B9 JUMP JUMPDEST JUMPDEST PUSH2 0x9673 PUSH1 0x80 PUSH2 0xA07A JUMP JUMPDEST SWAP1 POP PUSH1 0x0 DUP3 ADD CALLDATALOAD PUSH8 0xFFFFFFFFFFFFFFFF DUP2 GT ISZERO PUSH2 0x9693 JUMPI PUSH2 0x9692 PUSH2 0xA4BE JUMP JUMPDEST JUMPDEST PUSH2 0x969F DUP5 DUP3 DUP6 ADD PUSH2 0x95CD JUMP JUMPDEST PUSH1 0x0 DUP4 ADD MSTORE POP PUSH1 0x20 DUP3 ADD CALLDATALOAD PUSH8 0xFFFFFFFFFFFFFFFF DUP2 GT ISZERO PUSH2 0x96C3 JUMPI PUSH2 0x96C2 PUSH2 0xA4BE JUMP JUMPDEST JUMPDEST PUSH2 0x96CF DUP5 DUP3 DUP6 ADD PUSH2 0x95CD JUMP JUMPDEST PUSH1 0x20 DUP4 ADD MSTORE POP PUSH1 0x40 PUSH2 0x96E3 DUP5 DUP3 DUP6 ADD PUSH2 0x9629 JUMP JUMPDEST PUSH1 0x40 DUP4 ADD MSTORE POP PUSH1 0x60 DUP3 ADD CALLDATALOAD PUSH8 0xFFFFFFFFFFFFFFFF DUP2 GT ISZERO PUSH2 0x9707 JUMPI PUSH2 0x9706 PUSH2 0xA4BE JUMP JUMPDEST JUMPDEST PUSH2 0x9713 DUP5 DUP3 DUP6 ADD PUSH2 0x95CD JUMP JUMPDEST PUSH1 0x60 DUP4 ADD MSTORE POP SWAP3 SWAP2 POP POP JUMP JUMPDEST PUSH1 0x0 PUSH1 0x60 DUP3 DUP5 SUB SLT ISZERO PUSH2 0x9735 JUMPI PUSH2 0x9734 PUSH2 0xA4B9 JUMP JUMPDEST JUMPDEST PUSH2 0x973F PUSH1 0x60 PUSH2 0xA07A JUMP JUMPDEST SWAP1 POP PUSH1 0x0 PUSH2 0x974F DUP5 DUP3 DUP6 ADD PUSH2 0x97C9 JUMP JUMPDEST PUSH1 0x0 DUP4 ADD MSTORE POP PUSH1 0x20 PUSH2 0x9763 DUP5 DUP3 DUP6 ADD PUSH2 0x963E JUMP JUMPDEST PUSH1 0x20 DUP4 ADD MSTORE POP PUSH1 0x40 DUP3 ADD CALLDATALOAD PUSH8 0xFFFFFFFFFFFFFFFF DUP2 GT ISZERO PUSH2 0x9787 JUMPI PUSH2 0x9786 PUSH2 0xA4BE JUMP JUMPDEST JUMPDEST PUSH2 0x9793 DUP5 DUP3 DUP6 ADD PUSH2 0x95CD JUMP JUMPDEST PUSH1 0x40 DUP4 ADD MSTORE POP SWAP3 SWAP2 POP POP JUMP JUMPDEST PUSH1 0x0 DUP2 CALLDATALOAD SWAP1 POP PUSH2 0x97AE DUP2 PUSH2 0xA9AB JUMP JUMPDEST SWAP3 SWAP2 POP POP JUMP JUMPDEST PUSH1 0x0 DUP2 MLOAD SWAP1 POP PUSH2 0x97C3 DUP2 PUSH2 0xA9AB JUMP JUMPDEST SWAP3 SWAP2 POP POP JUMP JUMPDEST PUSH1 0x0 DUP2 CALLDATALOAD SWAP1 POP PUSH2 0x97D8 DUP2 PUSH2 0xA9C2 JUMP JUMPDEST SWAP3 SWAP2 POP POP JUMP JUMPDEST PUSH1 0x0 PUSH1 0x20 DUP3 DUP5 SUB SLT ISZERO PUSH2 0x97F4 JUMPI PUSH2 0x97F3 PUSH2 0xA4D2 JUMP JUMPDEST JUMPDEST PUSH1 0x0 PUSH2 0x9802 DUP5 DUP3 DUP6 ADD PUSH2 0x9575 JUMP JUMPDEST SWAP2 POP POP SWAP3 SWAP2 POP POP JUMP JUMPDEST PUSH1 0x0 PUSH1 0x20 DUP3 DUP5 SUB SLT ISZERO PUSH2 0x9821 JUMPI PUSH2 0x9820 PUSH2 0xA4D2 JUMP JUMPDEST JUMPDEST PUSH1 0x0 DUP3 ADD CALLDATALOAD PUSH8 0xFFFFFFFFFFFFFFFF DUP2 GT ISZERO PUSH2 0x983F JUMPI PUSH2 0x983E PUSH2 0xA4CD JUMP JUMPDEST JUMPDEST PUSH2 0x984B DUP5 DUP3 DUP6 ADD PUSH2 0x958A JUMP JUMPDEST SWAP2 POP POP SWAP3 SWAP2 POP POP JUMP JUMPDEST PUSH1 0x0 PUSH1 0x20 DUP3 DUP5 SUB SLT ISZERO PUSH2 0x986A JUMPI PUSH2 0x9869 PUSH2 0xA4D2 JUMP JUMPDEST JUMPDEST PUSH1 0x0 PUSH2 0x9878 DUP5 DUP3 DUP6 ADD PUSH2 0x95B8 JUMP JUMPDEST SWAP2 POP POP SWAP3 SWAP2 POP POP JUMP JUMPDEST PUSH1 0x0 PUSH1 0x20 DUP3 DUP5 SUB SLT ISZERO PUSH2 0x9897 JUMPI PUSH2 0x9896 PUSH2 0xA4D2 JUMP JUMPDEST JUMPDEST PUSH1 0x0 DUP3 ADD MLOAD PUSH8 0xFFFFFFFFFFFFFFFF DUP2 GT ISZERO PUSH2 0x98B5 JUMPI PUSH2 0x98B4 PUSH2 0xA4CD JUMP JUMPDEST JUMPDEST PUSH2 0x98C1 DUP5 DUP3 DUP6 ADD PUSH2 0x95FB JUMP JUMPDEST SWAP2 POP POP SWAP3 SWAP2 POP POP JUMP JUMPDEST PUSH1 0x0 PUSH1 0x20 DUP3 DUP5 SUB SLT ISZERO PUSH2 0x98E0 JUMPI PUSH2 0x98DF PUSH2 0xA4D2 JUMP JUMPDEST JUMPDEST PUSH1 0x0 DUP3 ADD CALLDATALOAD PUSH8 0xFFFFFFFFFFFFFFFF DUP2 GT ISZERO PUSH2 0x98FE JUMPI PUSH2 0x98FD PUSH2 0xA4CD JUMP JUMPDEST JUMPDEST PUSH2 0x990A DUP5 DUP3 DUP6 ADD PUSH2 0x9653 JUMP JUMPDEST SWAP2 POP POP SWAP3 SWAP2 POP POP JUMP JUMPDEST PUSH1 0x0 PUSH1 0x20 DUP3 DUP5 SUB SLT ISZERO PUSH2 0x9929 JUMPI PUSH2 0x9928 PUSH2 0xA4D2 JUMP JUMPDEST JUMPDEST PUSH1 0x0 PUSH2 0x9937 DUP5 DUP3 DUP6 ADD PUSH2 0x979F JUMP JUMPDEST SWAP2 POP POP SWAP3 SWAP2 POP POP JUMP JUMPDEST PUSH1 0x0 PUSH1 0x20 DUP3 DUP5 SUB SLT ISZERO PUSH2 0x9956 JUMPI PUSH2 0x9955 PUSH2 0xA4D2 JUMP JUMPDEST JUMPDEST PUSH1 0x0 PUSH2 0x9964 DUP5 DUP3 DUP6 ADD PUSH2 0x97B4 JUMP JUMPDEST SWAP2 POP POP SWAP3 SWAP2 POP POP JUMP JUMPDEST PUSH2 0x9976 DUP2 PUSH2 0xA1F3 JUMP JUMPDEST DUP3 MSTORE POP POP JUMP JUMPDEST PUSH1 0x0 PUSH2 0x9987 DUP3 PUSH2 0xA0FC JUMP JUMPDEST PUSH2 0x9991 DUP2 DUP6 PUSH2 0xA112 JUMP JUMPDEST SWAP4 POP PUSH2 0x99A1 DUP2 DUP6 PUSH1 0x20 DUP7 ADD PUSH2 0xA2B9 JUMP JUMPDEST PUSH2 0x99AA DUP2 PUSH2 0xA4D7 JUMP JUMPDEST DUP5 ADD SWAP2 POP POP SWAP3 SWAP2 POP POP JUMP JUMPDEST PUSH1 0x0 PUSH2 0x99C0 DUP3 PUSH2 0xA0FC JUMP JUMPDEST PUSH2 0x99CA DUP2 DUP6 PUSH2 0xA123 JUMP JUMPDEST SWAP4 POP PUSH2 0x99DA DUP2 DUP6 PUSH1 0x20 DUP7 ADD PUSH2 0xA2B9 JUMP JUMPDEST DUP1 DUP5 ADD SWAP2 POP POP SWAP3 SWAP2 POP POP JUMP JUMPDEST PUSH2 0x99EF DUP2 PUSH2 0xA262 JUMP JUMPDEST DUP3 MSTORE POP POP JUMP JUMPDEST PUSH2 0x99FE DUP2 PUSH2 0xA286 JUMP JUMPDEST DUP3 MSTORE POP POP JUMP JUMPDEST PUSH1 0x0 PUSH2 0x9A0F DUP3 PUSH2 0xA107 JUMP JUMPDEST PUSH2 0x9A19 DUP2 DUP6 PUSH2 0xA12E JUMP JUMPDEST SWAP4 POP PUSH2 0x9A29 DUP2 DUP6 PUSH1 0x20 DUP7 ADD PUSH2 0xA2B9 JUMP JUMPDEST PUSH2 0x9A32 DUP2 PUSH2 0xA4D7 JUMP JUMPDEST DUP5 ADD SWAP2 POP POP SWAP3 SWAP2 POP POP JUMP JUMPDEST PUSH1 0x0 PUSH2 0x9A4A PUSH1 0x28 DUP4 PUSH2 0xA12E JUMP JUMPDEST SWAP2 POP PUSH2 0x9A55 DUP3 PUSH2 0xA4E8 JUMP JUMPDEST PUSH1 0x40 DUP3 ADD SWAP1 POP SWAP2 SWAP1 POP JUMP JUMPDEST PUSH1 0x0 PUSH2 0x9A6D PUSH1 0x17 DUP4 PUSH2 0xA12E JUMP JUMPDEST SWAP2 POP PUSH2 0x9A78 DUP3 PUSH2 0xA537 JUMP JUMPDEST PUSH1 0x20 DUP3 ADD SWAP1 POP SWAP2 SWAP1 POP JUMP JUMPDEST PUSH1 0x0 PUSH2 0x9A90 PUSH1 0x26 DUP4 PUSH2 0xA12E JUMP JUMPDEST SWAP2 POP PUSH2 0x9A9B DUP3 PUSH2 0xA560 JUMP JUMPDEST PUSH1 0x40 DUP3 ADD SWAP1 POP SWAP2 SWAP1 POP JUMP JUMPDEST PUSH1 0x0 PUSH2 0x9AB3 PUSH1 0x12 DUP4 PUSH2 0xA12E JUMP JUMPDEST SWAP2 POP PUSH2 0x9ABE DUP3 PUSH2 0xA5AF JUMP JUMPDEST PUSH1 0x20 DUP3 ADD SWAP1 POP SWAP2 SWAP1 POP JUMP JUMPDEST PUSH1 0x0 PUSH2 0x9AD6 PUSH1 0x1B DUP4 PUSH2 0xA12E JUMP JUMPDEST SWAP2 POP PUSH2 0x9AE1 DUP3 PUSH2 0xA5D8 JUMP JUMPDEST PUSH1 0x20 DUP3 ADD SWAP1 POP SWAP2 SWAP1 POP JUMP JUMPDEST PUSH1 0x0 PUSH2 0x9AF9 PUSH1 0x1C DUP4 PUSH2 0xA12E JUMP JUMPDEST SWAP2 POP PUSH2 0x9B04 DUP3 PUSH2 0xA601 JUMP JUMPDEST PUSH1 0x20 DUP3 ADD SWAP1 POP SWAP2 SWAP1 POP JUMP JUMPDEST PUSH1 0x0 PUSH2 0x9B1C PUSH1 0x23 DUP4 PUSH2 0xA12E JUMP JUMPDEST SWAP2 POP PUSH2 0x9B27 DUP3 PUSH2 0xA62A JUMP JUMPDEST PUSH1 0x40 DUP3 ADD SWAP1 POP SWAP2 SWAP1 POP JUMP JUMPDEST PUSH1 0x0 PUSH2 0x9B3F PUSH1 0x16 DUP4 PUSH2 0xA12E JUMP JUMPDEST SWAP2 POP PUSH2 0x9B4A DUP3 PUSH2 0xA679 JUMP JUMPDEST PUSH1 0x20 DUP3 ADD SWAP1 POP SWAP2 SWAP1 POP JUMP JUMPDEST PUSH1 0x0 PUSH2 0x9B62 PUSH1 0x27 DUP4 PUSH2 0xA12E JUMP JUMPDEST SWAP2 POP PUSH2 0x9B6D DUP3 PUSH2 0xA6A2 JUMP JUMPDEST PUSH1 0x40 DUP3 ADD SWAP1 POP SWAP2 SWAP1 POP JUMP JUMPDEST PUSH1 0x0 PUSH2 0x9B85 PUSH1 0x2D DUP4 PUSH2 0xA12E JUMP JUMPDEST SWAP2 POP PUSH2 0x9B90 DUP3 PUSH2 0xA6F1 JUMP JUMPDEST PUSH1 0x40 DUP3 ADD SWAP1 POP SWAP2 SWAP1 POP JUMP JUMPDEST PUSH1 0x0 PUSH2 0x9BA8 PUSH1 0x24 DUP4 PUSH2 0xA12E JUMP JUMPDEST SWAP2 POP PUSH2 0x9BB3 DUP3 PUSH2 0xA740 JUMP JUMPDEST PUSH1 0x40 DUP3 ADD SWAP1 POP SWAP2 SWAP1 POP JUMP JUMPDEST PUSH1 0x0 PUSH2 0x9BCB PUSH1 0x20 DUP4 PUSH2 0xA12E JUMP JUMPDEST SWAP2 POP PUSH2 0x9BD6 DUP3 PUSH2 0xA78F JUMP JUMPDEST PUSH1 0x20 DUP3 ADD SWAP1 POP SWAP2 SWAP1 POP JUMP JUMPDEST PUSH1 0x0 PUSH2 0x9BEE PUSH1 0x2B DUP4 PUSH2 0xA12E JUMP JUMPDEST SWAP2 POP PUSH2 0x9BF9 DUP3 PUSH2 0xA7B8 JUMP JUMPDEST PUSH1 0x40 DUP3 ADD SWAP1 POP SWAP2 SWAP1 POP JUMP JUMPDEST PUSH1 0x0 PUSH2 0x9C11 PUSH1 0x2A DUP4 PUSH2 0xA12E JUMP JUMPDEST SWAP2 POP PUSH2 0x9C1C DUP3 PUSH2 0xA807 JUMP JUMPDEST PUSH1 0x40 DUP3 ADD SWAP1 POP SWAP2 SWAP1 POP JUMP JUMPDEST PUSH1 0x0 PUSH2 0x9C34 PUSH1 0x2A DUP4 PUSH2 0xA12E JUMP JUMPDEST SWAP2 POP PUSH2 0x9C3F DUP3 PUSH2 0xA856 JUMP JUMPDEST PUSH1 0x40 DUP3 ADD SWAP1 POP SWAP2 SWAP1 POP JUMP JUMPDEST PUSH1 0x0 PUSH2 0x9C57 PUSH1 0x19 DUP4 PUSH2 0xA12E JUMP JUMPDEST SWAP2 POP PUSH2 0x9C62 DUP3 PUSH2 0xA8A5 JUMP JUMPDEST PUSH1 0x20 DUP3 ADD SWAP1 POP SWAP2 SWAP1 POP JUMP JUMPDEST PUSH1 0x0 PUSH2 0x9C7A PUSH1 0x19 DUP4 PUSH2 0xA12E JUMP JUMPDEST SWAP2 POP PUSH2 0x9C85 DUP3 PUSH2 0xA8CE JUMP JUMPDEST PUSH1 0x20 DUP3 ADD SWAP1 POP SWAP2 SWAP1 POP JUMP JUMPDEST PUSH1 0x0 PUSH2 0x9C9D PUSH1 0x12 DUP4 PUSH2 0xA12E JUMP JUMPDEST SWAP2 POP PUSH2 0x9CA8 DUP3 PUSH2 0xA8F7 JUMP JUMPDEST PUSH1 0x20 DUP3 ADD SWAP1 POP SWAP2 SWAP1 POP JUMP JUMPDEST PUSH1 0x0 PUSH2 0x9CC0 PUSH1 0x1F DUP4 PUSH2 0xA12E JUMP JUMPDEST SWAP2 POP PUSH2 0x9CCB DUP3 PUSH2 0xA920 JUMP JUMPDEST PUSH1 0x20 DUP3 ADD SWAP1 POP SWAP2 SWAP1 POP JUMP JUMPDEST PUSH1 0x0 PUSH1 0x60 DUP4 ADD PUSH1 0x0 DUP4 ADD MLOAD PUSH2 0x9CEE PUSH1 0x0 DUP7 ADD DUP3 PUSH2 0x9D44 JUMP JUMPDEST POP PUSH1 0x20 DUP4 ADD MLOAD PUSH2 0x9D01 PUSH1 0x20 DUP7 ADD DUP3 PUSH2 0x99F5 JUMP JUMPDEST POP PUSH1 0x40 DUP4 ADD MLOAD DUP5 DUP3 SUB PUSH1 0x40 DUP7 ADD MSTORE PUSH2 0x9D19 DUP3 DUP3 PUSH2 0x997C JUMP JUMPDEST SWAP2 POP POP DUP1 SWAP2 POP POP SWAP3 SWAP2 POP POP JUMP JUMPDEST PUSH2 0x9D2F DUP2 PUSH2 0xA244 JUMP JUMPDEST DUP3 MSTORE POP POP JUMP JUMPDEST PUSH2 0x9D3E DUP2 PUSH2 0xA298 JUMP JUMPDEST DUP3 MSTORE POP POP JUMP JUMPDEST PUSH2 0x9D4D DUP2 PUSH2 0xA24E JUMP JUMPDEST DUP3 MSTORE POP POP JUMP JUMPDEST PUSH1 0x0 PUSH2 0x9D5F DUP3 DUP5 PUSH2 0x99B5 JUMP JUMPDEST SWAP2 POP DUP2 SWAP1 POP SWAP3 SWAP2 POP POP JUMP JUMPDEST PUSH1 0x0 PUSH1 0x20 DUP3 ADD SWAP1 POP PUSH2 0x9D7F PUSH1 0x0 DUP4 ADD DUP5 PUSH2 0x996D JUMP JUMPDEST SWAP3 SWAP2 POP POP JUMP JUMPDEST PUSH1 0x0 PUSH1 0x20 DUP3 ADD SWAP1 POP PUSH2 0x9D9A PUSH1 0x0 DUP4 ADD DUP5 PUSH2 0x99E6 JUMP JUMPDEST SWAP3 SWAP2 POP POP JUMP JUMPDEST PUSH1 0x0 PUSH1 0x20 DUP3 ADD SWAP1 POP DUP2 DUP2 SUB PUSH1 0x0 DUP4 ADD MSTORE PUSH2 0x9DBA DUP2 DUP5 PUSH2 0x9A04 JUMP JUMPDEST SWAP1 POP SWAP3 SWAP2 POP POP JUMP JUMPDEST PUSH1 0x0 PUSH1 0x20 DUP3 ADD SWAP1 POP DUP2 DUP2 SUB PUSH1 0x0 DUP4 ADD MSTORE PUSH2 0x9DDB DUP2 PUSH2 0x9A3D JUMP JUMPDEST SWAP1 POP SWAP2 SWAP1 POP JUMP JUMPDEST PUSH1 0x0 PUSH1 0x20 DUP3 ADD SWAP1 POP DUP2 DUP2 SUB PUSH1 0x0 DUP4 ADD MSTORE PUSH2 0x9DFB DUP2 PUSH2 0x9A60 JUMP JUMPDEST SWAP1 POP SWAP2 SWAP1 POP JUMP JUMPDEST PUSH1 0x0 PUSH1 0x20 DUP3 ADD SWAP1 POP DUP2 DUP2 SUB PUSH1 0x0 DUP4 ADD MSTORE PUSH2 0x9E1B DUP2 PUSH2 0x9A83 JUMP JUMPDEST SWAP1 POP SWAP2 SWAP1 POP JUMP JUMPDEST PUSH1 0x0 PUSH1 0x20 DUP3 ADD SWAP1 POP DUP2 DUP2 SUB PUSH1 0x0 DUP4 ADD MSTORE PUSH2 0x9E3B DUP2 PUSH2 0x9AA6 JUMP JUMPDEST SWAP1 POP SWAP2 SWAP1 POP JUMP JUMPDEST PUSH1 0x0 PUSH1 0x20 DUP3 ADD SWAP1 POP DUP2 DUP2 SUB PUSH1 0x0 DUP4 ADD MSTORE PUSH2 0x9E5B DUP2 PUSH2 0x9AC9 JUMP JUMPDEST SWAP1 POP SWAP2 SWAP1 POP JUMP JUMPDEST PUSH1 0x0 PUSH1 0x20 DUP3 ADD SWAP1 POP DUP2 DUP2 SUB PUSH1 0x0 DUP4 ADD MSTORE PUSH2 0x9E7B DUP2 PUSH2 0x9AEC JUMP JUMPDEST SWAP1 POP SWAP2 SWAP1 POP JUMP JUMPDEST PUSH1 0x0 PUSH1 0x20 DUP3 ADD SWAP1 POP DUP2 DUP2 SUB PUSH1 0x0 DUP4 ADD MSTORE PUSH2 0x9E9B DUP2 PUSH2 0x9B0F JUMP JUMPDEST SWAP1 POP SWAP2 SWAP1 POP JUMP JUMPDEST PUSH1 0x0 PUSH1 0x20 DUP3 ADD SWAP1 POP DUP2 DUP2 SUB PUSH1 0x0 DUP4 ADD MSTORE PUSH2 0x9EBB DUP2 PUSH2 0x9B32 JUMP JUMPDEST SWAP1 POP SWAP2 SWAP1 POP JUMP JUMPDEST PUSH1 0x0 PUSH1 0x20 DUP3 ADD SWAP1 POP DUP2 DUP2 SUB PUSH1 0x0 DUP4 ADD MSTORE PUSH2 0x9EDB DUP2 PUSH2 0x9B55 JUMP JUMPDEST SWAP1 POP SWAP2 SWAP1 POP JUMP JUMPDEST PUSH1 0x0 PUSH1 0x20 DUP3 ADD SWAP1 POP DUP2 DUP2 SUB PUSH1 0x0 DUP4 ADD MSTORE PUSH2 0x9EFB DUP2 PUSH2 0x9B78 JUMP JUMPDEST SWAP1 POP SWAP2 SWAP1 POP JUMP JUMPDEST PUSH1 0x0 PUSH1 0x20 DUP3 ADD SWAP1 POP DUP2 DUP2 SUB PUSH1 0x0 DUP4 ADD MSTORE PUSH2 0x9F1B DUP2 PUSH2 0x9B9B JUMP JUMPDEST SWAP1 POP SWAP2 SWAP1 POP JUMP JUMPDEST PUSH1 0x0 PUSH1 0x20 DUP3 ADD SWAP1 POP DUP2 DUP2 SUB PUSH1 0x0 DUP4 ADD MSTORE PUSH2 0x9F3B DUP2 PUSH2 0x9BBE JUMP JUMPDEST SWAP1 POP SWAP2 SWAP1 POP JUMP JUMPDEST PUSH1 0x0 PUSH1 0x20 DUP3 ADD SWAP1 POP DUP2 DUP2 SUB PUSH1 0x0 DUP4 ADD MSTORE PUSH2 0x9F5B DUP2 PUSH2 0x9BE1 JUMP JUMPDEST SWAP1 POP SWAP2 SWAP1 POP JUMP JUMPDEST PUSH1 0x0 PUSH1 0x20 DUP3 ADD SWAP1 POP DUP2 DUP2 SUB PUSH1 0x0 DUP4 ADD MSTORE PUSH2 0x9F7B DUP2 PUSH2 0x9C04 JUMP JUMPDEST SWAP1 POP SWAP2 SWAP1 POP JUMP JUMPDEST PUSH1 0x0 PUSH1 0x20 DUP3 ADD SWAP1 POP DUP2 DUP2 SUB PUSH1 0x0 DUP4 ADD MSTORE PUSH2 0x9F9B DUP2 PUSH2 0x9C27 JUMP JUMPDEST SWAP1 POP SWAP2 SWAP1 POP JUMP JUMPDEST PUSH1 0x0 PUSH1 0x20 DUP3 ADD SWAP1 POP DUP2 DUP2 SUB PUSH1 0x0 DUP4 ADD MSTORE PUSH2 0x9FBB DUP2 PUSH2 0x9C4A JUMP JUMPDEST SWAP1 POP SWAP2 SWAP1 POP JUMP JUMPDEST PUSH1 0x0 PUSH1 0x20 DUP3 ADD SWAP1 POP DUP2 DUP2 SUB PUSH1 0x0 DUP4 ADD MSTORE PUSH2 0x9FDB DUP2 PUSH2 0x9C6D JUMP JUMPDEST SWAP1 POP SWAP2 SWAP1 POP JUMP JUMPDEST PUSH1 0x0 PUSH1 0x20 DUP3 ADD SWAP1 POP DUP2 DUP2 SUB PUSH1 0x0 DUP4 ADD MSTORE PUSH2 0x9FFB DUP2 PUSH2 0x9C90 JUMP JUMPDEST SWAP1 POP SWAP2 SWAP1 POP JUMP JUMPDEST PUSH1 0x0 PUSH1 0x20 DUP3 ADD SWAP1 POP DUP2 DUP2 SUB PUSH1 0x0 DUP4 ADD MSTORE PUSH2 0xA01B DUP2 PUSH2 0x9CB3 JUMP JUMPDEST SWAP1 POP SWAP2 SWAP1 POP JUMP JUMPDEST PUSH1 0x0 PUSH1 0x20 DUP3 ADD SWAP1 POP DUP2 DUP2 SUB PUSH1 0x0 DUP4 ADD MSTORE PUSH2 0xA03C DUP2 DUP5 PUSH2 0x9CD6 JUMP JUMPDEST SWAP1 POP SWAP3 SWAP2 POP POP JUMP JUMPDEST PUSH1 0x0 PUSH1 0x20 DUP3 ADD SWAP1 POP PUSH2 0xA059 PUSH1 0x0 DUP4 ADD DUP5 PUSH2 0x9D26 JUMP JUMPDEST SWAP3 SWAP2 POP POP JUMP JUMPDEST PUSH1 0x0 PUSH1 0x20 DUP3 ADD SWAP1 POP PUSH2 0xA074 PUSH1 0x0 DUP4 ADD DUP5 PUSH2 0x9D35 JUMP JUMPDEST SWAP3 SWAP2 POP POP JUMP JUMPDEST PUSH1 0x0 PUSH2 0xA084 PUSH2 0xA095 JUMP JUMPDEST SWAP1 POP PUSH2 0xA090 DUP3 DUP3 PUSH2 0xA31E JUMP JUMPDEST SWAP2 SWAP1 POP JUMP JUMPDEST PUSH1 0x0 PUSH1 0x40 MLOAD SWAP1 POP SWAP1 JUMP JUMPDEST PUSH1 0x0 PUSH8 0xFFFFFFFFFFFFFFFF DUP3 GT ISZERO PUSH2 0xA0BA JUMPI PUSH2 0xA0B9 PUSH2 0xA485 JUMP JUMPDEST JUMPDEST PUSH1 0x20 DUP3 MUL SWAP1 POP PUSH1 0x20 DUP2 ADD SWAP1 POP SWAP2 SWAP1 POP JUMP JUMPDEST PUSH1 0x0 PUSH8 0xFFFFFFFFFFFFFFFF DUP3 GT ISZERO PUSH2 0xA0E6 JUMPI PUSH2 0xA0E5 PUSH2 0xA485 JUMP JUMPDEST JUMPDEST PUSH2 0xA0EF DUP3 PUSH2 0xA4D7 JUMP JUMPDEST SWAP1 POP PUSH1 0x20 DUP2 ADD SWAP1 POP SWAP2 SWAP1 POP JUMP JUMPDEST PUSH1 0x0 DUP2 MLOAD SWAP1 POP SWAP2 SWAP1 POP JUMP JUMPDEST PUSH1 0x0 DUP2 MLOAD SWAP1 POP SWAP2 SWAP1 POP JUMP JUMPDEST PUSH1 0x0 DUP3 DUP3 MSTORE PUSH1 0x20 DUP3 ADD SWAP1 POP SWAP3 SWAP2 POP POP JUMP JUMPDEST PUSH1 0x0 DUP2 SWAP1 POP SWAP3 SWAP2 POP POP JUMP JUMPDEST PUSH1 0x0 DUP3 DUP3 MSTORE PUSH1 0x20 DUP3 ADD SWAP1 POP SWAP3 SWAP2 POP POP JUMP JUMPDEST PUSH1 0x0 PUSH2 0xA14A DUP3 PUSH2 0xA24E JUMP JUMPDEST SWAP2 POP PUSH2 0xA155 DUP4 PUSH2 0xA24E JUMP JUMPDEST SWAP3 POP DUP3 PUSH8 0xFFFFFFFFFFFFFFFF SUB DUP3 GT ISZERO PUSH2 0xA172 JUMPI PUSH2 0xA171 PUSH2 0xA3C9 JUMP JUMPDEST JUMPDEST DUP3 DUP3 ADD SWAP1 POP SWAP3 SWAP2 POP POP JUMP JUMPDEST PUSH1 0x0 PUSH2 0xA188 DUP3 PUSH2 0xA24E JUMP JUMPDEST SWAP2 POP PUSH2 0xA193 DUP4 PUSH2 0xA24E JUMP JUMPDEST SWAP3 POP DUP2 PUSH8 0xFFFFFFFFFFFFFFFF DIV DUP4 GT DUP3 ISZERO ISZERO AND ISZERO PUSH2 0xA1B4 JUMPI PUSH2 0xA1B3 PUSH2 0xA3C9 JUMP JUMPDEST JUMPDEST DUP3 DUP3 MUL SWAP1 POP SWAP3 SWAP2 POP POP JUMP JUMPDEST PUSH1 0x0 PUSH2 0xA1CA DUP3 PUSH2 0xA24E JUMP JUMPDEST SWAP2 POP PUSH2 0xA1D5 DUP4 PUSH2 0xA24E JUMP JUMPDEST SWAP3 POP DUP3 DUP3 LT ISZERO PUSH2 0xA1E8 JUMPI PUSH2 0xA1E7 PUSH2 0xA3C9 JUMP JUMPDEST JUMPDEST DUP3 DUP3 SUB SWAP1 POP SWAP3 SWAP2 POP POP JUMP JUMPDEST PUSH1 0x0 PUSH2 0xA1FE DUP3 PUSH2 0xA224 JUMP JUMPDEST SWAP1 POP SWAP2 SWAP1 POP JUMP JUMPDEST PUSH1 0x0 DUP2 ISZERO ISZERO SWAP1 POP SWAP2 SWAP1 POP JUMP JUMPDEST PUSH1 0x0 DUP2 SWAP1 POP PUSH2 0xA21F DUP3 PUSH2 0xA949 JUMP JUMPDEST SWAP2 SWAP1 POP JUMP JUMPDEST PUSH1 0x0 PUSH20 0xFFFFFFFFFFFFFFFFFFFFFFFFFFFFFFFFFFFFFFFF DUP3 AND SWAP1 POP SWAP2 SWAP1 POP JUMP JUMPDEST PUSH1 0x0 DUP2 SWAP1 POP SWAP2 SWAP1 POP JUMP JUMPDEST PUSH1 0x0 PUSH8 0xFFFFFFFFFFFFFFFF DUP3 AND SWAP1 POP SWAP2 SWAP1 POP JUMP JUMPDEST PUSH1 0x0 PUSH2 0xA26D DUP3 PUSH2 0xA274 JUMP JUMPDEST SWAP1 POP SWAP2 SWAP1 POP JUMP JUMPDEST PUSH1 0x0 PUSH2 0xA27F DUP3 PUSH2 0xA224 JUMP JUMPDEST SWAP1 POP SWAP2 SWAP1 POP JUMP JUMPDEST PUSH1 0x0 PUSH2 0xA291 DUP3 PUSH2 0xA211 JUMP JUMPDEST SWAP1 POP SWAP2 SWAP1 POP JUMP JUMPDEST PUSH1 0x0 PUSH2 0xA2A3 DUP3 PUSH2 0xA24E JUMP JUMPDEST SWAP1 POP SWAP2 SWAP1 POP JUMP JUMPDEST DUP3 DUP2 DUP4 CALLDATACOPY PUSH1 0x0 DUP4 DUP4 ADD MSTORE POP POP POP JUMP JUMPDEST PUSH1 0x0 JUMPDEST DUP4 DUP2 LT ISZERO PUSH2 0xA2D7 JUMPI DUP1 DUP3 ADD MLOAD DUP2 DUP5 ADD MSTORE PUSH1 0x20 DUP2 ADD SWAP1 POP PUSH2 0xA2BC JUMP JUMPDEST DUP4 DUP2 GT ISZERO PUSH2 0xA2E6 JUMPI PUSH1 0x0 DUP5 DUP5 ADD MSTORE JUMPDEST POP POP POP POP JUMP JUMPDEST PUSH1 0x0 PUSH1 0x2 DUP3 DIV SWAP1 POP PUSH1 0x1 DUP3 AND DUP1 PUSH2 0xA304 JUMPI PUSH1 0x7F DUP3 AND SWAP2 POP JUMPDEST PUSH1 0x20 DUP3 LT DUP2 EQ ISZERO PUSH2 0xA318 JUMPI PUSH2 0xA317 PUSH2 0xA427 JUMP JUMPDEST JUMPDEST POP SWAP2 SWAP1 POP JUMP JUMPDEST PUSH2 0xA327 DUP3 PUSH2 0xA4D7 JUMP JUMPDEST DUP2 ADD DUP2 DUP2 LT PUSH8 0xFFFFFFFFFFFFFFFF DUP3 GT OR ISZERO PUSH2 0xA346 JUMPI PUSH2 0xA345 PUSH2 0xA485 JUMP JUMPDEST JUMPDEST DUP1 PUSH1 0x40 MSTORE POP POP POP JUMP JUMPDEST PUSH1 0x0 PUSH2 0xA35A DUP3 PUSH2 0xA244 JUMP JUMPDEST SWAP2 POP PUSH32 0xFFFFFFFFFFFFFFFFFFFFFFFFFFFFFFFFFFFFFFFFFFFFFFFFFFFFFFFFFFFFFFFF DUP3 EQ ISZERO PUSH2 0xA38D JUMPI PUSH2 0xA38C PUSH2 0xA3C9 JUMP JUMPDEST JUMPDEST PUSH1 0x1 DUP3 ADD SWAP1 POP SWAP2 SWAP1 POP JUMP JUMPDEST PUSH1 0x0 PUSH2 0xA3A3 DUP3 PUSH2 0xA24E JUMP JUMPDEST SWAP2 POP PUSH8 0xFFFFFFFFFFFFFFFF DUP3 EQ ISZERO PUSH2 0xA3BE JUMPI PUSH2 0xA3BD PUSH2 0xA3C9 JUMP JUMPDEST JUMPDEST PUSH1 0x1 DUP3 ADD SWAP1 POP SWAP2 SWAP1 POP JUMP JUMPDEST PUSH32 0x4E487B7100000000000000000000000000000000000000000000000000000000 PUSH1 0x0 MSTORE PUSH1 0x11 PUSH1 0x4 MSTORE PUSH1 0x24 PUSH1 0x0 REVERT JUMPDEST PUSH32 0x4E487B7100000000000000000000000000000000000000000000000000000000 PUSH1 0x0 MSTORE PUSH1 0x21 PUSH1 0x4 MSTORE PUSH1 0x24 PUSH1 0x0 REVERT JUMPDEST PUSH32 0x4E487B7100000000000000000000000000000000000000000000000000000000 PUSH1 0x0 MSTORE PUSH1 0x22 PUSH1 0x4 MSTORE PUSH1 0x24 PUSH1 0x0 REVERT JUMPDEST PUSH32 0x4E487B7100000000000000000000000000000000000000000000000000000000 PUSH1 0x0 MSTORE PUSH1 0x32 PUSH1 0x4 MSTORE PUSH1 0x24 PUSH1 0x0 REVERT JUMPDEST PUSH32 0x4E487B7100000000000000000000000000000000000000000000000000000000 PUSH1 0x0 MSTORE PUSH1 0x41 PUSH1 0x4 MSTORE PUSH1 0x24 PUSH1 0x0 REVERT JUMPDEST PUSH1 0x0 DUP1 REVERT JUMPDEST PUSH1 0x0 DUP1 REVERT JUMPDEST PUSH1 0x0 DUP1 REVERT JUMPDEST PUSH1 0x0 DUP1 REVERT JUMPDEST PUSH1 0x0 DUP1 REVERT JUMPDEST PUSH1 0x0 DUP1 REVERT JUMPDEST PUSH1 0x0 DUP1 REVERT JUMPDEST PUSH1 0x0 PUSH1 0x1F NOT PUSH1 0x1F DUP4 ADD AND SWAP1 POP SWAP2 SWAP1 POP JUMP JUMPDEST PUSH32 0x53776170546F6B656E735061796C6F616420646573657269616C697A6174696F PUSH1 0x0 DUP3 ADD MSTORE PUSH32 0x6E206661696C6564000000000000000000000000000000000000000000000000 PUSH1 0x20 DUP3 ADD MSTORE POP JUMP JUMPDEST PUSH32 0x416767726567617465206973206E6F7420736574207570000000000000000000 PUSH1 0x0 DUP3 ADD MSTORE POP JUMP JUMPDEST PUSH32 0x4F776E61626C653A206E6577206F776E657220697320746865207A65726F2061 PUSH1 0x0 DUP3 ADD MSTORE PUSH32 0x6464726573730000000000000000000000000000000000000000000000000000 PUSH1 0x20 DUP3 ADD MSTORE POP JUMP JUMPDEST PUSH32 0x414D4D20616C7265616479206578697374730000000000000000000000000000 PUSH1 0x0 DUP3 ADD MSTORE POP JUMP JUMPDEST PUSH32 0x4E6F7420656E6F7567682066756E647320746F206465706F7369740000000000 PUSH1 0x0 DUP3 ADD MSTORE POP JUMP JUMPDEST PUSH32 0x4E6F7420656E6F7567682066756E647320746F20776974686472617700000000 PUSH1 0x0 DUP3 ADD MSTORE POP JUMP JUMPDEST PUSH32 0x4E6F7420656E6F7567682062616C616E636520746F20616464206C6971756964 PUSH1 0x0 DUP3 ADD MSTORE PUSH32 0x6974790000000000000000000000000000000000000000000000000000000000 PUSH1 0x20 DUP3 ADD MSTORE POP JUMP JUMPDEST PUSH32 0x496E76616C6964206164647265737320666F726D617400000000000000000000 PUSH1 0x0 DUP3 ADD MSTORE POP JUMP JUMPDEST PUSH32 0x437265617465414D4D5061796C6F616420646573657269616C697A6174696F6E PUSH1 0x0 DUP3 ADD MSTORE PUSH32 0x206661696C656400000000000000000000000000000000000000000000000000 PUSH1 0x20 DUP3 ADD MSTORE POP JUMP JUMPDEST PUSH32 0x52656D6F76654C69717569646974795061796C6F616420646573657269616C69 PUSH1 0x0 DUP3 ADD MSTORE PUSH32 0x7A6174696F6E206661696C656400000000000000000000000000000000000000 PUSH1 0x20 DUP3 ADD MSTORE POP JUMP JUMPDEST PUSH32 0x4E6F7420656E6F75676820736861726520746F2072656D6F7665206C69717569 PUSH1 0x0 DUP3 ADD MSTORE PUSH32 0x6469747900000000000000000000000000000000000000000000000000000000 PUSH1 0x20 DUP3 ADD MSTORE POP JUMP JUMPDEST PUSH32 0x4F776E61626C653A2063616C6C6572206973206E6F7420746865206F776E6572 PUSH1 0x0 DUP3 ADD MSTORE POP JUMP JUMPDEST PUSH32 0x576974686472617746756E64735061796C6F616420646573657269616C697A61 PUSH1 0x0 DUP3 ADD MSTORE PUSH32 0x74696F6E206661696C6564000000000000000000000000000000000000000000 PUSH1 0x20 DUP3 ADD MSTORE POP JUMP JUMPDEST PUSH32 0x4164644C69717569646974795061796C6F616420646573657269616C697A6174 PUSH1 0x0 DUP3 ADD MSTORE PUSH32 0x696F6E206661696C656400000000000000000000000000000000000000000000 PUSH1 0x20 DUP3 ADD MSTORE POP JUMP JUMPDEST PUSH32 0x4465706F73697446756E64735061796C6F616420646573657269616C697A6174 PUSH1 0x0 DUP3 ADD MSTORE PUSH32 0x696F6E206661696C656400000000000000000000000000000000000000000000 PUSH1 0x20 DUP3 ADD MSTORE POP JUMP JUMPDEST PUSH32 0x4E6F7420656E6F75676820746F6B656E3120746F207377617000000000000000 PUSH1 0x0 DUP3 ADD MSTORE POP JUMP JUMPDEST PUSH32 0x4E6F7420656E6F75676820746F6B656E3220746F207377617000000000000000 PUSH1 0x0 DUP3 ADD MSTORE POP JUMP JUMPDEST PUSH32 0x414D4D20646F6573206E6F742065786973740000000000000000000000000000 PUSH1 0x0 DUP3 ADD MSTORE POP JUMP JUMPDEST PUSH32 0x506C65617365206465706F73697420737570706F7274656420746F6B656E7300 PUSH1 0x0 DUP3 ADD MSTORE POP JUMP JUMPDEST PUSH1 0x9 DUP2 LT PUSH2 0xA95A JUMPI PUSH2 0xA959 PUSH2 0xA3F8 JUMP JUMPDEST JUMPDEST POP JUMP JUMPDEST PUSH2 0xA966 DUP2 PUSH2 0xA1F3 JUMP JUMPDEST DUP2 EQ PUSH2 0xA971 JUMPI PUSH1 0x0 DUP1 REVERT JUMPDEST POP JUMP JUMPDEST PUSH2 0xA97D DUP2 PUSH2 0xA205 JUMP JUMPDEST DUP2 EQ PUSH2 0xA988 JUMPI PUSH1 0x0 DUP1 REVERT JUMPDEST POP JUMP JUMPDEST PUSH1 0x9 DUP2 LT PUSH2 0xA998 JUMPI PUSH1 0x0 DUP1 REVERT JUMPDEST POP JUMP JUMPDEST PUSH1 0x9 DUP2 LT PUSH2 0xA9A8 JUMPI PUSH1 0x0 DUP1 REVERT JUMPDEST POP JUMP JUMPDEST PUSH2 0xA9B4 DUP2 PUSH2 0xA244 JUMP JUMPDEST DUP2 EQ PUSH2 0xA9BF JUMPI PUSH1 0x0 DUP1 REVERT JUMPDEST POP JUMP JUMPDEST PUSH2 0xA9CB DUP2 PUSH2 0xA24E JUMP JUMPDEST DUP2 EQ PUSH2 0xA9D6 JUMPI PUSH1 0x0 DUP1 REVERT JUMPDEST POP JUMP INVALID LOG2 PUSH5 0x6970667358 0x22 SLT KECCAK256 DIV 0x25 LOG2 0xB3 0xBC 0xD3 0xC PUSH13 0xF9698AE6FAFC0828BB8F5D9BDA DUP14 0x2D 0x22 PUSH31 0x81E7E3F948D97964736F6C6343000806003360806040526000600C60006101 STOP EXP DUP2 SLOAD DUP2 PUSH1 0xFF MUL NOT AND SWAP1 DUP4 ISZERO ISZERO MUL OR SWAP1 SSTORE POP CALLVALUE DUP1 ISZERO PUSH3 0x2C JUMPI PUSH1 0x0 DUP1 REVERT JUMPDEST POP PUSH3 0x4D PUSH3 0x41 PUSH3 0x53 PUSH1 0x20 SHL PUSH1 0x20 SHR JUMP JUMPDEST PUSH3 0x5B PUSH1 0x20 SHL PUSH1 0x20 SHR JUMP JUMPDEST PUSH3 0x11F JUMP JUMPDEST PUSH1 0x0 CALLER SWAP1 POP SWAP1 JUMP JUMPDEST PUSH1 0x0 DUP1 PUSH1 0x0 SWAP1 SLOAD SWAP1 PUSH2 0x100 EXP SWAP1 DIV PUSH20 0xFFFFFFFFFFFFFFFFFFFFFFFFFFFFFFFFFFFFFFFF AND SWAP1 POP DUP2 PUSH1 0x0 DUP1 PUSH2 0x100 EXP DUP2 SLOAD DUP2 PUSH20 0xFFFFFFFFFFFFFFFFFFFFFFFFFFFFFFFFFFFFFFFF MUL NOT AND SWAP1 DUP4 PUSH20 0xFFFFFFFFFFFFFFFFFFFFFFFFFFFFFFFFFFFFFFFF AND MUL OR SWAP1 SSTORE POP DUP2 PUSH20 0xFFFFFFFFFFFFFFFFFFFFFFFFFFFFFFFFFFFFFFFF AND DUP2 PUSH20 0xFFFFFFFFFFFFFFFFFFFFFFFFFFFFFFFFFFFFFFFF AND PUSH32 0x8BE0079C531659141344CD1FD0A4F28419497F9722A3DAAFE3B4186F6B6457E0 PUSH1 0x40 MLOAD PUSH1 0x40 MLOAD DUP1 SWAP2 SUB SWAP1 LOG3 POP POP JUMP JUMPDEST PUSH2 0x6419 DUP1 PUSH3 0x12F PUSH1 0x0 CODECOPY PUSH1 0x0 RETURN INVALID PUSH1 0x80 PUSH1 0x40 MSTORE CALLVALUE DUP1 ISZERO PUSH2 0x10 JUMPI PUSH1 0x0 DUP1 REVERT JUMPDEST POP PUSH1 0x4 CALLDATASIZE LT PUSH2 0xEA JUMPI PUSH1 0x0 CALLDATALOAD PUSH1 0xE0 SHR DUP1 PUSH4 0x93217888 GT PUSH2 0x8C JUMPI DUP1 PUSH4 0xD21220A7 GT PUSH2 0x66 JUMPI DUP1 PUSH4 0xD21220A7 EQ PUSH2 0x260 JUMPI DUP1 PUSH4 0xD3817B4A EQ PUSH2 0x27E JUMPI DUP1 PUSH4 0xD826F88F EQ PUSH2 0x2AE JUMPI DUP1 PUSH4 0xF2FDE38B EQ PUSH2 0x2B8 JUMPI PUSH2 0xEA JUMP JUMPDEST DUP1 PUSH4 0x93217888 EQ PUSH2 0x1CF JUMPI DUP1 PUSH4 0xAF62DB3F EQ PUSH2 0x200 JUMPI DUP1 PUSH4 0xCE7C2AC2 EQ PUSH2 0x230 JUMPI PUSH2 0xEA JUMP JUMPDEST DUP1 PUSH4 0x715018A6 GT PUSH2 0xC8 JUMPI DUP1 PUSH4 0x715018A6 EQ PUSH2 0x16D JUMPI DUP1 PUSH4 0x86174396 EQ PUSH2 0x177 JUMPI DUP1 PUSH4 0x8DA5CB5B EQ PUSH2 0x195 JUMPI DUP1 PUSH4 0x8FE8BB96 EQ PUSH2 0x1B3 JUMPI PUSH2 0xEA JUMP JUMPDEST DUP1 PUSH4 0xC1FC829 EQ PUSH2 0xEF JUMPI DUP1 PUSH4 0x25BE124E EQ PUSH2 0x11F JUMPI DUP1 PUSH4 0x450177C6 EQ PUSH2 0x13D JUMPI JUMPDEST PUSH1 0x0 DUP1 REVERT JUMPDEST PUSH2 0x109 PUSH1 0x4 DUP1 CALLDATASIZE SUB DUP2 ADD SWAP1 PUSH2 0x104 SWAP2 SWAP1 PUSH2 0x5564 JUMP JUMPDEST PUSH2 0x2D4 JUMP JUMPDEST PUSH1 0x40 MLOAD PUSH2 0x116 SWAP2 SWAP1 PUSH2 0x5A74 JUMP JUMPDEST PUSH1 0x40 MLOAD DUP1 SWAP2 SUB SWAP1 RETURN JUMPDEST PUSH2 0x127 PUSH2 0x2EC JUMP JUMPDEST PUSH1 0x40 MLOAD PUSH2 0x134 SWAP2 SWAP1 PUSH2 0x58B2 JUMP JUMPDEST PUSH1 0x40 MLOAD DUP1 SWAP2 SUB SWAP1 RETURN JUMPDEST PUSH2 0x157 PUSH1 0x4 DUP1 CALLDATASIZE SUB DUP2 ADD SWAP1 PUSH2 0x152 SWAP2 SWAP1 PUSH2 0x55DA JUMP JUMPDEST PUSH2 0x37A JUMP JUMPDEST PUSH1 0x40 MLOAD PUSH2 0x164 SWAP2 SWAP1 PUSH2 0x5A74 JUMP JUMPDEST PUSH1 0x40 MLOAD DUP1 SWAP2 SUB SWAP1 RETURN JUMPDEST PUSH2 0x175 PUSH2 0x3E4 JUMP JUMPDEST STOP JUMPDEST PUSH2 0x17F PUSH2 0x3F8 JUMP JUMPDEST PUSH1 0x40 MLOAD PUSH2 0x18C SWAP2 SWAP1 PUSH2 0x5897 JUMP JUMPDEST PUSH1 0x40 MLOAD DUP1 SWAP2 SUB SWAP1 RETURN JUMPDEST PUSH2 0x19D PUSH2 0x40B JUMP JUMPDEST PUSH1 0x40 MLOAD PUSH2 0x1AA SWAP2 SWAP1 PUSH2 0x587C JUMP JUMPDEST PUSH1 0x40 MLOAD DUP1 SWAP2 SUB SWAP1 RETURN JUMPDEST PUSH2 0x1CD PUSH1 0x4 DUP1 CALLDATASIZE SUB DUP2 ADD SWAP1 PUSH2 0x1C8 SWAP2 SWAP1 PUSH2 0x5591 JUMP JUMPDEST PUSH2 0x434 JUMP JUMPDEST STOP JUMPDEST PUSH2 0x1E9 PUSH1 0x4 DUP1 CALLDATASIZE SUB DUP2 ADD SWAP1 PUSH2 0x1E4 SWAP2 SWAP1 PUSH2 0x55DA JUMP JUMPDEST PUSH2 0x448 JUMP JUMPDEST PUSH1 0x40 MLOAD PUSH2 0x1F7 SWAP3 SWAP2 SWAP1 PUSH2 0x5A8F JUMP JUMPDEST PUSH1 0x40 MLOAD DUP1 SWAP2 SUB SWAP1 RETURN JUMPDEST PUSH2 0x21A PUSH1 0x4 DUP1 CALLDATASIZE SUB DUP2 ADD SWAP1 PUSH2 0x215 SWAP2 SWAP1 PUSH2 0x5564 JUMP JUMPDEST PUSH2 0x530 JUMP JUMPDEST PUSH1 0x40 MLOAD PUSH2 0x227 SWAP2 SWAP1 PUSH2 0x5A74 JUMP JUMPDEST PUSH1 0x40 MLOAD DUP1 SWAP2 SUB SWAP1 RETURN JUMPDEST PUSH2 0x24A PUSH1 0x4 DUP1 CALLDATASIZE SUB DUP2 ADD SWAP1 PUSH2 0x245 SWAP2 SWAP1 PUSH2 0x5564 JUMP JUMPDEST PUSH2 0x548 JUMP JUMPDEST PUSH1 0x40 MLOAD PUSH2 0x257 SWAP2 SWAP1 PUSH2 0x5A74 JUMP JUMPDEST PUSH1 0x40 MLOAD DUP1 SWAP2 SUB SWAP1 RETURN JUMPDEST PUSH2 0x268 PUSH2 0x560 JUMP JUMPDEST PUSH1 0x40 MLOAD PUSH2 0x275 SWAP2 SWAP1 PUSH2 0x58B2 JUMP JUMPDEST PUSH1 0x40 MLOAD DUP1 SWAP2 SUB SWAP1 RETURN JUMPDEST PUSH2 0x298 PUSH1 0x4 DUP1 CALLDATASIZE SUB DUP2 ADD SWAP1 PUSH2 0x293 SWAP2 SWAP1 PUSH2 0x55DA JUMP JUMPDEST PUSH2 0x5EE JUMP JUMPDEST PUSH1 0x40 MLOAD PUSH2 0x2A5 SWAP2 SWAP1 PUSH2 0x5A74 JUMP JUMPDEST PUSH1 0x40 MLOAD DUP1 SWAP2 SUB SWAP1 RETURN JUMPDEST PUSH2 0x2B6 PUSH2 0x658 JUMP JUMPDEST STOP JUMPDEST PUSH2 0x2D2 PUSH1 0x4 DUP1 CALLDATASIZE SUB DUP2 ADD SWAP1 PUSH2 0x2CD SWAP2 SWAP1 PUSH2 0x5564 JUMP JUMPDEST PUSH2 0x66A JUMP JUMPDEST STOP JUMPDEST PUSH1 0xA PUSH1 0x20 MSTORE DUP1 PUSH1 0x0 MSTORE PUSH1 0x40 PUSH1 0x0 KECCAK256 PUSH1 0x0 SWAP2 POP SWAP1 POP SLOAD DUP2 JUMP JUMPDEST PUSH1 0x2 DUP1 SLOAD PUSH2 0x2F9 SWAP1 PUSH2 0x5DD7 JUMP JUMPDEST DUP1 PUSH1 0x1F ADD PUSH1 0x20 DUP1 SWAP2 DIV MUL PUSH1 0x20 ADD PUSH1 0x40 MLOAD SWAP1 DUP2 ADD PUSH1 0x40 MSTORE DUP1 SWAP3 SWAP2 SWAP1 DUP2 DUP2 MSTORE PUSH1 0x20 ADD DUP3 DUP1 SLOAD PUSH2 0x325 SWAP1 PUSH2 0x5DD7 JUMP JUMPDEST DUP1 ISZERO PUSH2 0x372 JUMPI DUP1 PUSH1 0x1F LT PUSH2 0x347 JUMPI PUSH2 0x100 DUP1 DUP4 SLOAD DIV MUL DUP4 MSTORE SWAP2 PUSH1 0x20 ADD SWAP2 PUSH2 0x372 JUMP JUMPDEST DUP3 ADD SWAP2 SWAP1 PUSH1 0x0 MSTORE PUSH1 0x20 PUSH1 0x0 KECCAK256 SWAP1 JUMPDEST DUP2 SLOAD DUP2 MSTORE SWAP1 PUSH1 0x1 ADD SWAP1 PUSH1 0x20 ADD DUP1 DUP4 GT PUSH2 0x355 JUMPI DUP3 SWAP1 SUB PUSH1 0x1F AND DUP3 ADD SWAP2 JUMPDEST POP POP POP POP POP DUP2 JUMP JUMPDEST PUSH1 0x0 DUP1 PUSH2 0x392 DUP4 PUSH1 0x3 SLOAD PUSH2 0x6EE SWAP1 SWAP2 SWAP1 PUSH4 0xFFFFFFFF AND JUMP JUMPDEST SWAP1 POP PUSH1 0x0 PUSH2 0x3AB DUP3 PUSH1 0x5 SLOAD PUSH2 0x704 SWAP1 SWAP2 SWAP1 PUSH4 0xFFFFFFFF AND JUMP JUMPDEST SWAP1 POP PUSH2 0x3C2 DUP2 PUSH1 0x4 SLOAD PUSH2 0x71A SWAP1 SWAP2 SWAP1 PUSH4 0xFFFFFFFF AND JUMP JUMPDEST SWAP3 POP PUSH1 0x4 SLOAD DUP4 EQ ISZERO PUSH2 0x3DD JUMPI DUP3 DUP1 PUSH2 0x3D9 SWAP1 PUSH2 0x5DAD JUMP JUMPDEST SWAP4 POP POP JUMPDEST POP POP SWAP2 SWAP1 POP JUMP JUMPDEST PUSH2 0x3EC PUSH2 0x730 JUMP JUMPDEST PUSH2 0x3F6 PUSH1 0x0 PUSH2 0x7AE JUMP JUMPDEST JUMP JUMPDEST PUSH1 0xC PUSH1 0x0 SWAP1 SLOAD SWAP1 PUSH2 0x100 EXP SWAP1 DIV PUSH1 0xFF AND DUP2 JUMP JUMPDEST PUSH1 0x0 DUP1 PUSH1 0x0 SWAP1 SLOAD SWAP1 PUSH2 0x100 EXP SWAP1 DIV PUSH20 0xFFFFFFFFFFFFFFFFFFFFFFFFFFFFFFFFFFFFFFFF AND SWAP1 POP SWAP1 JUMP JUMPDEST PUSH2 0x43C PUSH2 0x730 JUMP JUMPDEST PUSH2 0x445 DUP2 PUSH2 0x872 JUMP JUMPDEST POP JUMP JUMPDEST PUSH1 0x0 DUP1 PUSH1 0x0 PUSH1 0x8 SLOAD GT PUSH2 0x490 JUMPI PUSH1 0x40 MLOAD PUSH32 0x8C379A000000000000000000000000000000000000000000000000000000000 DUP2 MSTORE PUSH1 0x4 ADD PUSH2 0x487 SWAP1 PUSH2 0x5A34 JUMP JUMPDEST PUSH1 0x40 MLOAD DUP1 SWAP2 SUB SWAP1 REVERT JUMPDEST PUSH1 0x8 SLOAD DUP4 GT ISZERO PUSH2 0x4D5 JUMPI PUSH1 0x40 MLOAD PUSH32 0x8C379A000000000000000000000000000000000000000000000000000000000 DUP2 MSTORE PUSH1 0x4 ADD PUSH2 0x4CC SWAP1 PUSH2 0x59D4 JUMP JUMPDEST PUSH1 0x40 MLOAD DUP1 SWAP2 SUB SWAP1 REVERT JUMPDEST PUSH2 0x4FE PUSH1 0x8 SLOAD PUSH2 0x4F0 PUSH1 0x3 SLOAD DUP7 PUSH2 0xC10 SWAP1 SWAP2 SWAP1 PUSH4 0xFFFFFFFF AND JUMP JUMPDEST PUSH2 0x704 SWAP1 SWAP2 SWAP1 PUSH4 0xFFFFFFFF AND JUMP JUMPDEST SWAP2 POP PUSH2 0x529 PUSH1 0x8 SLOAD PUSH2 0x51B PUSH1 0x4 SLOAD DUP7 PUSH2 0xC10 SWAP1 SWAP2 SWAP1 PUSH4 0xFFFFFFFF AND JUMP JUMPDEST PUSH2 0x704 SWAP1 SWAP2 SWAP1 PUSH4 0xFFFFFFFF AND JUMP JUMPDEST SWAP1 POP SWAP2 POP SWAP2 JUMP JUMPDEST PUSH1 0x9 PUSH1 0x20 MSTORE DUP1 PUSH1 0x0 MSTORE PUSH1 0x40 PUSH1 0x0 KECCAK256 PUSH1 0x0 SWAP2 POP SWAP1 POP SLOAD DUP2 JUMP JUMPDEST PUSH1 0x6 PUSH1 0x20 MSTORE DUP1 PUSH1 0x0 MSTORE PUSH1 0x40 PUSH1 0x0 KECCAK256 PUSH1 0x0 SWAP2 POP SWAP1 POP SLOAD DUP2 JUMP JUMPDEST PUSH1 0x1 DUP1 SLOAD PUSH2 0x56D SWAP1 PUSH2 0x5DD7 JUMP JUMPDEST DUP1 PUSH1 0x1F ADD PUSH1 0x20 DUP1 SWAP2 DIV MUL PUSH1 0x20 ADD PUSH1 0x40 MLOAD SWAP1 DUP2 ADD PUSH1 0x40 MSTORE DUP1 SWAP3 SWAP2 SWAP1 DUP2 DUP2 MSTORE PUSH1 0x20 ADD DUP3 DUP1 SLOAD PUSH2 0x599 SWAP1 PUSH2 0x5DD7 JUMP JUMPDEST DUP1 ISZERO PUSH2 0x5E6 JUMPI DUP1 PUSH1 0x1F LT PUSH2 0x5BB JUMPI PUSH2 0x100 DUP1 DUP4 SLOAD DIV MUL DUP4 MSTORE SWAP2 PUSH1 0x20 ADD SWAP2 PUSH2 0x5E6 JUMP JUMPDEST DUP3 ADD SWAP2 SWAP1 PUSH1 0x0 MSTORE PUSH1 0x20 PUSH1 0x0 KECCAK256 SWAP1 JUMPDEST DUP2 SLOAD DUP2 MSTORE SWAP1 PUSH1 0x1 ADD SWAP1 PUSH1 0x20 ADD DUP1 DUP4 GT PUSH2 0x5C9 JUMPI DUP3 SWAP1 SUB PUSH1 0x1F AND DUP3 ADD SWAP2 JUMPDEST POP POP POP POP POP DUP2 JUMP JUMPDEST PUSH1 0x0 DUP1 PUSH2 0x606 DUP4 PUSH1 0x4 SLOAD PUSH2 0x6EE SWAP1 SWAP2 SWAP1 PUSH4 0xFFFFFFFF AND JUMP JUMPDEST SWAP1 POP PUSH1 0x0 PUSH2 0x61F DUP3 PUSH1 0x5 SLOAD PUSH2 0x704 SWAP1 SWAP2 SWAP1 PUSH4 0xFFFFFFFF AND JUMP JUMPDEST SWAP1 POP PUSH2 0x636 DUP2 PUSH1 0x3 SLOAD PUSH2 0x71A SWAP1 SWAP2 SWAP1 PUSH4 0xFFFFFFFF AND JUMP JUMPDEST SWAP3 POP PUSH1 0x3 SLOAD DUP4 EQ ISZERO PUSH2 0x651 JUMPI DUP3 DUP1 PUSH2 0x64D SWAP1 PUSH2 0x5DAD JUMP JUMPDEST SWAP4 POP POP JUMPDEST POP POP SWAP2 SWAP1 POP JUMP JUMPDEST PUSH2 0x660 PUSH2 0x730 JUMP JUMPDEST PUSH2 0x668 PUSH2 0xC26 JUMP JUMPDEST JUMP JUMPDEST PUSH2 0x672 PUSH2 0x730 JUMP JUMPDEST PUSH1 0x0 PUSH20 0xFFFFFFFFFFFFFFFFFFFFFFFFFFFFFFFFFFFFFFFF AND DUP2 PUSH20 0xFFFFFFFFFFFFFFFFFFFFFFFFFFFFFFFFFFFFFFFF AND EQ ISZERO PUSH2 0x6E2 JUMPI PUSH1 0x40 MLOAD PUSH32 0x8C379A000000000000000000000000000000000000000000000000000000000 DUP2 MSTORE PUSH1 0x4 ADD PUSH2 0x6D9 SWAP1 PUSH2 0x58F4 JUMP JUMPDEST PUSH1 0x40 MLOAD DUP1 SWAP2 SUB SWAP1 REVERT JUMPDEST PUSH2 0x6EB DUP2 PUSH2 0x7AE JUMP JUMPDEST POP JUMP JUMPDEST PUSH1 0x0 DUP2 DUP4 PUSH2 0x6FC SWAP2 SWAP1 PUSH2 0x5B46 JUMP JUMPDEST SWAP1 POP SWAP3 SWAP2 POP POP JUMP JUMPDEST PUSH1 0x0 DUP2 DUP4 PUSH2 0x712 SWAP2 SWAP1 PUSH2 0x5BDA JUMP JUMPDEST SWAP1 POP SWAP3 SWAP2 POP POP JUMP JUMPDEST PUSH1 0x0 DUP2 DUP4 PUSH2 0x728 SWAP2 SWAP1 PUSH2 0x5CA7 JUMP JUMPDEST SWAP1 POP SWAP3 SWAP2 POP POP JUMP JUMPDEST PUSH2 0x738 PUSH2 0xE8B JUMP JUMPDEST PUSH20 0xFFFFFFFFFFFFFFFFFFFFFFFFFFFFFFFFFFFFFFFF AND PUSH2 0x756 PUSH2 0x40B JUMP JUMPDEST PUSH20 0xFFFFFFFFFFFFFFFFFFFFFFFFFFFFFFFFFFFFFFFF AND EQ PUSH2 0x7AC JUMPI PUSH1 0x40 MLOAD PUSH32 0x8C379A000000000000000000000000000000000000000000000000000000000 DUP2 MSTORE PUSH1 0x4 ADD PUSH2 0x7A3 SWAP1 PUSH2 0x59B4 JUMP JUMPDEST PUSH1 0x40 MLOAD DUP1 SWAP2 SUB SWAP1 REVERT JUMPDEST JUMP JUMPDEST PUSH1 0x0 DUP1 PUSH1 0x0 SWAP1 SLOAD SWAP1 PUSH2 0x100 EXP SWAP1 DIV PUSH20 0xFFFFFFFFFFFFFFFFFFFFFFFFFFFFFFFFFFFFFFFF AND SWAP1 POP DUP2 PUSH1 0x0 DUP1 PUSH2 0x100 EXP DUP2 SLOAD DUP2 PUSH20 0xFFFFFFFFFFFFFFFFFFFFFFFFFFFFFFFFFFFFFFFF MUL NOT AND SWAP1 DUP4 PUSH20 0xFFFFFFFFFFFFFFFFFFFFFFFFFFFFFFFFFFFFFFFF AND MUL OR SWAP1 SSTORE POP DUP2 PUSH20 0xFFFFFFFFFFFFFFFFFFFFFFFFFFFFFFFFFFFFFFFF AND DUP2 PUSH20 0xFFFFFFFFFFFFFFFFFFFFFFFFFFFFFFFFFFFFFFFF AND PUSH32 0x8BE0079C531659141344CD1FD0A4F28419497F9722A3DAAFE3B4186F6B6457E0 PUSH1 0x40 MLOAD PUSH1 0x40 MLOAD DUP1 SWAP2 SUB SWAP1 LOG3 POP POP JUMP JUMPDEST PUSH1 0x3 PUSH1 0x8 DUP2 GT ISZERO PUSH2 0x886 JUMPI PUSH2 0x885 PUSH2 0x5F12 JUMP JUMPDEST JUMPDEST DUP2 PUSH1 0x20 ADD MLOAD PUSH1 0x8 DUP2 GT ISZERO PUSH2 0x89D JUMPI PUSH2 0x89C PUSH2 0x5F12 JUMP JUMPDEST JUMPDEST EQ ISZERO PUSH2 0x90C JUMPI PUSH1 0x0 DUP1 PUSH2 0x8BB PUSH1 0x0 DUP5 PUSH1 0x40 ADD MLOAD DUP6 PUSH1 0x40 ADD MLOAD MLOAD PUSH2 0xE93 JUMP JUMPDEST SWAP3 POP POP SWAP2 POP DUP2 PUSH2 0x900 JUMPI PUSH1 0x40 MLOAD PUSH32 0x8C379A000000000000000000000000000000000000000000000000000000000 DUP2 MSTORE PUSH1 0x4 ADD PUSH2 0x8F7 SWAP1 PUSH2 0x59F4 JUMP JUMPDEST PUSH1 0x40 MLOAD DUP1 SWAP2 SUB SWAP1 REVERT JUMPDEST PUSH2 0x909 DUP2 PUSH2 0x104D JUMP JUMPDEST POP POP JUMPDEST PUSH1 0x7 PUSH1 0x8 DUP2 GT ISZERO PUSH2 0x920 JUMPI PUSH2 0x91F PUSH2 0x5F12 JUMP JUMPDEST JUMPDEST DUP2 PUSH1 0x20 ADD MLOAD PUSH1 0x8 DUP2 GT ISZERO PUSH2 0x937 JUMPI PUSH2 0x936 PUSH2 0x5F12 JUMP JUMPDEST JUMPDEST EQ ISZERO PUSH2 0x9A6 JUMPI PUSH1 0x0 DUP1 PUSH2 0x955 PUSH1 0x0 DUP5 PUSH1 0x40 ADD MLOAD DUP6 PUSH1 0x40 ADD MLOAD MLOAD PUSH2 0x1207 JUMP JUMPDEST SWAP3 POP POP SWAP2 POP DUP2 PUSH2 0x99A JUMPI PUSH1 0x40 MLOAD PUSH32 0x8C379A000000000000000000000000000000000000000000000000000000000 DUP2 MSTORE PUSH1 0x4 ADD PUSH2 0x991 SWAP1 PUSH2 0x5994 JUMP JUMPDEST PUSH1 0x40 MLOAD DUP1 SWAP2 SUB SWAP1 REVERT JUMPDEST PUSH2 0x9A3 DUP2 PUSH2 0x13C1 JUMP JUMPDEST POP POP JUMPDEST PUSH1 0x8 DUP1 DUP2 GT ISZERO PUSH2 0x9B9 JUMPI PUSH2 0x9B8 PUSH2 0x5F12 JUMP JUMPDEST JUMPDEST DUP2 PUSH1 0x20 ADD MLOAD PUSH1 0x8 DUP2 GT ISZERO PUSH2 0x9D0 JUMPI PUSH2 0x9CF PUSH2 0x5F12 JUMP JUMPDEST JUMPDEST EQ ISZERO PUSH2 0xA3F JUMPI PUSH1 0x0 DUP1 PUSH2 0x9EE PUSH1 0x0 DUP5 PUSH1 0x40 ADD MLOAD DUP6 PUSH1 0x40 ADD MLOAD MLOAD PUSH2 0x16D1 JUMP JUMPDEST SWAP3 POP POP SWAP2 POP DUP2 PUSH2 0xA33 JUMPI PUSH1 0x40 MLOAD PUSH32 0x8C379A000000000000000000000000000000000000000000000000000000000 DUP2 MSTORE PUSH1 0x4 ADD PUSH2 0xA2A SWAP1 PUSH2 0x5934 JUMP JUMPDEST PUSH1 0x40 MLOAD DUP1 SWAP2 SUB SWAP1 REVERT JUMPDEST PUSH2 0xA3C DUP2 PUSH2 0x188B JUMP JUMPDEST POP POP JUMPDEST PUSH1 0x4 PUSH1 0x8 DUP2 GT ISZERO PUSH2 0xA53 JUMPI PUSH2 0xA52 PUSH2 0x5F12 JUMP JUMPDEST JUMPDEST DUP2 PUSH1 0x20 ADD MLOAD PUSH1 0x8 DUP2 GT ISZERO PUSH2 0xA6A JUMPI PUSH2 0xA69 PUSH2 0x5F12 JUMP JUMPDEST JUMPDEST EQ ISZERO PUSH2 0xAD9 JUMPI PUSH1 0x0 DUP1 PUSH2 0xA88 PUSH1 0x0 DUP5 PUSH1 0x40 ADD MLOAD DUP6 PUSH1 0x40 ADD MLOAD MLOAD PUSH2 0x1AA4 JUMP JUMPDEST SWAP3 POP POP SWAP2 POP DUP2 PUSH2 0xACD JUMPI PUSH1 0x40 MLOAD PUSH32 0x8C379A000000000000000000000000000000000000000000000000000000000 DUP2 MSTORE PUSH1 0x4 ADD PUSH2 0xAC4 SWAP1 PUSH2 0x5914 JUMP JUMPDEST PUSH1 0x40 MLOAD DUP1 SWAP2 SUB SWAP1 REVERT JUMPDEST PUSH2 0xAD6 DUP2 PUSH2 0x1C5E JUMP JUMPDEST POP POP JUMPDEST PUSH1 0x5 PUSH1 0x8 DUP2 GT ISZERO PUSH2 0xAED JUMPI PUSH2 0xAEC PUSH2 0x5F12 JUMP JUMPDEST JUMPDEST DUP2 PUSH1 0x20 ADD MLOAD PUSH1 0x8 DUP2 GT ISZERO PUSH2 0xB04 JUMPI PUSH2 0xB03 PUSH2 0x5F12 JUMP JUMPDEST JUMPDEST EQ ISZERO PUSH2 0xB73 JUMPI PUSH1 0x0 DUP1 PUSH2 0xB22 PUSH1 0x0 DUP5 PUSH1 0x40 ADD MLOAD DUP6 PUSH1 0x40 ADD MLOAD MLOAD PUSH2 0x1F44 JUMP JUMPDEST SWAP3 POP POP SWAP2 POP DUP2 PUSH2 0xB67 JUMPI PUSH1 0x40 MLOAD PUSH32 0x8C379A000000000000000000000000000000000000000000000000000000000 DUP2 MSTORE PUSH1 0x4 ADD PUSH2 0xB5E SWAP1 PUSH2 0x5A54 JUMP JUMPDEST PUSH1 0x40 MLOAD DUP1 SWAP2 SUB SWAP1 REVERT JUMPDEST PUSH2 0xB70 DUP2 PUSH2 0x20FE JUMP JUMPDEST POP POP JUMPDEST PUSH1 0x6 PUSH1 0x8 DUP2 GT ISZERO PUSH2 0xB87 JUMPI PUSH2 0xB86 PUSH2 0x5F12 JUMP JUMPDEST JUMPDEST DUP2 PUSH1 0x20 ADD MLOAD PUSH1 0x8 DUP2 GT ISZERO PUSH2 0xB9E JUMPI PUSH2 0xB9D PUSH2 0x5F12 JUMP JUMPDEST JUMPDEST EQ ISZERO PUSH2 0xC0D JUMPI PUSH1 0x0 DUP1 PUSH2 0xBBC PUSH1 0x0 DUP5 PUSH1 0x40 ADD MLOAD DUP6 PUSH1 0x40 ADD MLOAD MLOAD PUSH2 0x22A3 JUMP JUMPDEST SWAP3 POP POP SWAP2 POP DUP2 PUSH2 0xC01 JUMPI PUSH1 0x40 MLOAD PUSH32 0x8C379A000000000000000000000000000000000000000000000000000000000 DUP2 MSTORE PUSH1 0x4 ADD PUSH2 0xBF8 SWAP1 PUSH2 0x58D4 JUMP JUMPDEST PUSH1 0x40 MLOAD DUP1 SWAP2 SUB SWAP1 REVERT JUMPDEST PUSH2 0xC0A DUP2 PUSH2 0x245D JUMP JUMPDEST POP POP JUMPDEST POP JUMP JUMPDEST PUSH1 0x0 DUP2 DUP4 PUSH2 0xC1E SWAP2 SWAP1 PUSH2 0x5C0B JUMP JUMPDEST SWAP1 POP SWAP3 SWAP2 POP POP JUMP JUMPDEST PUSH1 0x0 JUMPDEST PUSH1 0x7 DUP1 SLOAD SWAP1 POP DUP2 LT ISZERO PUSH2 0xCCA JUMPI PUSH1 0x6 PUSH1 0x0 PUSH1 0x7 DUP4 DUP2 SLOAD DUP2 LT PUSH2 0xC4E JUMPI PUSH2 0xC4D PUSH2 0x5F70 JUMP JUMPDEST JUMPDEST SWAP1 PUSH1 0x0 MSTORE PUSH1 0x20 PUSH1 0x0 KECCAK256 ADD PUSH1 0x0 SWAP1 SLOAD SWAP1 PUSH2 0x100 EXP SWAP1 DIV PUSH20 0xFFFFFFFFFFFFFFFFFFFFFFFFFFFFFFFFFFFFFFFF AND PUSH20 0xFFFFFFFFFFFFFFFFFFFFFFFFFFFFFFFFFFFFFFFF AND PUSH20 0xFFFFFFFFFFFFFFFFFFFFFFFFFFFFFFFFFFFFFFFF AND DUP2 MSTORE PUSH1 0x20 ADD SWAP1 DUP2 MSTORE PUSH1 0x20 ADD PUSH1 0x0 KECCAK256 PUSH1 0x0 SWAP1 SSTORE DUP1 DUP1 PUSH2 0xCC2 SWAP1 PUSH2 0x5E3A JUMP JUMPDEST SWAP2 POP POP PUSH2 0xC29 JUMP JUMPDEST POP PUSH1 0x7 PUSH1 0x0 PUSH2 0xCD9 SWAP2 SWAP1 PUSH2 0x517F JUMP JUMPDEST PUSH3 0xF4240 PUSH1 0x0 PUSH2 0xCE9 SWAP2 SWAP1 PUSH2 0x5C65 JUMP JUMPDEST PUSH8 0xFFFFFFFFFFFFFFFF AND PUSH1 0x8 DUP2 SWAP1 SSTORE POP PUSH1 0x0 JUMPDEST PUSH1 0xB DUP1 SLOAD SWAP1 POP DUP2 LT ISZERO PUSH2 0xE1E JUMPI PUSH1 0x9 PUSH1 0x0 PUSH1 0xB DUP4 DUP2 SLOAD DUP2 LT PUSH2 0xD21 JUMPI PUSH2 0xD20 PUSH2 0x5F70 JUMP JUMPDEST JUMPDEST SWAP1 PUSH1 0x0 MSTORE PUSH1 0x20 PUSH1 0x0 KECCAK256 ADD PUSH1 0x0 SWAP1 SLOAD SWAP1 PUSH2 0x100 EXP SWAP1 DIV PUSH20 0xFFFFFFFFFFFFFFFFFFFFFFFFFFFFFFFFFFFFFFFF AND PUSH20 0xFFFFFFFFFFFFFFFFFFFFFFFFFFFFFFFFFFFFFFFF AND PUSH20 0xFFFFFFFFFFFFFFFFFFFFFFFFFFFFFFFFFFFFFFFF AND DUP2 MSTORE PUSH1 0x20 ADD SWAP1 DUP2 MSTORE PUSH1 0x20 ADD PUSH1 0x0 KECCAK256 PUSH1 0x0 SWAP1 SSTORE PUSH1 0xA PUSH1 0x0 PUSH1 0xB DUP4 DUP2 SLOAD DUP2 LT PUSH2 0xDA2 JUMPI PUSH2 0xDA1 PUSH2 0x5F70 JUMP JUMPDEST JUMPDEST SWAP1 PUSH1 0x0 MSTORE PUSH1 0x20 PUSH1 0x0 KECCAK256 ADD PUSH1 0x0 SWAP1 SLOAD SWAP1 PUSH2 0x100 EXP SWAP1 DIV PUSH20 0xFFFFFFFFFFFFFFFFFFFFFFFFFFFFFFFFFFFFFFFF AND PUSH20 0xFFFFFFFFFFFFFFFFFFFFFFFFFFFFFFFFFFFFFFFF AND PUSH20 0xFFFFFFFFFFFFFFFFFFFFFFFFFFFFFFFFFFFFFFFF AND DUP2 MSTORE PUSH1 0x20 ADD SWAP1 DUP2 MSTORE PUSH1 0x20 ADD PUSH1 0x0 KECCAK256 PUSH1 0x0 SWAP1 SSTORE DUP1 DUP1 PUSH2 0xE16 SWAP1 PUSH2 0x5E3A JUMP JUMPDEST SWAP2 POP POP PUSH2 0xCFC JUMP JUMPDEST POP PUSH1 0xB PUSH1 0x0 PUSH2 0xE2D SWAP2 SWAP1 PUSH2 0x517F JUMP JUMPDEST PUSH1 0x40 MLOAD DUP1 PUSH1 0x20 ADD PUSH1 0x40 MSTORE DUP1 PUSH1 0x0 DUP2 MSTORE POP PUSH1 0x1 SWAP1 DUP1 MLOAD SWAP1 PUSH1 0x20 ADD SWAP1 PUSH2 0xE52 SWAP3 SWAP2 SWAP1 PUSH2 0x51A0 JUMP JUMPDEST POP PUSH1 0x40 MLOAD DUP1 PUSH1 0x20 ADD PUSH1 0x40 MSTORE DUP1 PUSH1 0x0 DUP2 MSTORE POP PUSH1 0x2 SWAP1 DUP1 MLOAD SWAP1 PUSH1 0x20 ADD SWAP1 PUSH2 0xE78 SWAP3 SWAP2 SWAP1 PUSH2 0x51A0 JUMP JUMPDEST POP PUSH1 0x0 PUSH1 0x3 DUP2 SWAP1 SSTORE POP PUSH1 0x0 PUSH1 0x4 DUP2 SWAP1 SSTORE POP JUMP JUMPDEST PUSH1 0x0 CALLER SWAP1 POP SWAP1 JUMP JUMPDEST PUSH1 0x0 DUP1 PUSH2 0xE9E PUSH2 0x5226 JUMP JUMPDEST PUSH2 0xEA6 PUSH2 0x5226 JUMP JUMPDEST PUSH1 0x0 DUP1 DUP9 SWAP1 POP DUP1 PUSH8 0xFFFFFFFFFFFFFFFF AND DUP8 DUP3 PUSH2 0xEC3 SWAP2 SWAP1 PUSH2 0x5B9C JUMP JUMPDEST PUSH8 0xFFFFFFFFFFFFFFFF AND LT ISZERO PUSH2 0xEE5 JUMPI PUSH1 0x0 DUP2 DUP5 SWAP6 POP SWAP6 POP SWAP6 POP POP POP POP PUSH2 0x1044 JUMP JUMPDEST JUMPDEST DUP7 PUSH8 0xFFFFFFFFFFFFFFFF AND DUP10 DUP3 PUSH2 0xEFD SWAP2 SWAP1 PUSH2 0x5CDB JUMP JUMPDEST PUSH8 0xFFFFFFFFFFFFFFFF AND LT ISZERO PUSH2 0xFFE JUMPI PUSH1 0x0 DUP1 PUSH1 0x0 PUSH2 0xF1C DUP5 DUP13 PUSH2 0x2741 JUMP JUMPDEST DUP1 SWAP5 POP DUP2 SWAP6 POP DUP3 SWAP8 POP DUP4 SWAP7 POP POP POP POP POP DUP3 PUSH2 0xF46 JUMPI PUSH1 0x0 DUP5 DUP8 SWAP9 POP SWAP9 POP SWAP9 POP POP POP POP POP POP POP PUSH2 0x1044 JUMP JUMPDEST PUSH1 0x5 DUP3 PUSH8 0xFFFFFFFFFFFFFFFF AND GT ISZERO PUSH2 0xF6E JUMPI PUSH1 0x0 DUP5 DUP8 SWAP9 POP SWAP9 POP SWAP9 POP POP POP POP POP POP POP PUSH2 0x1044 JUMP JUMPDEST DUP5 PUSH8 0xFFFFFFFFFFFFFFFF AND DUP3 PUSH8 0xFFFFFFFFFFFFFFFF AND GT PUSH2 0xF9E JUMPI PUSH1 0x0 DUP5 DUP8 SWAP9 POP SWAP9 POP SWAP9 POP POP POP POP POP POP POP PUSH2 0x1044 JUMP JUMPDEST PUSH2 0xFA8 DUP3 DUP3 PUSH2 0x288D JUMP JUMPDEST SWAP3 POP DUP3 PUSH2 0xFC4 JUMPI PUSH1 0x0 DUP5 DUP8 SWAP9 POP SWAP9 POP SWAP9 POP POP POP POP POP POP POP PUSH2 0x1044 JUMP JUMPDEST PUSH2 0xFD1 DUP5 DUP13 DUP13 DUP6 DUP11 PUSH2 0x29E4 JUMP JUMPDEST DUP1 SWAP6 POP DUP2 SWAP5 POP POP POP DUP3 PUSH2 0xFF3 JUMPI PUSH1 0x0 DUP5 DUP8 SWAP9 POP SWAP9 POP SWAP9 POP POP POP POP POP POP POP PUSH2 0x1044 JUMP JUMPDEST DUP2 SWAP5 POP POP POP POP PUSH2 0xEE6 JUMP JUMPDEST DUP7 DUP10 PUSH2 0x100A SWAP2 SWAP1 PUSH2 0x5B9C JUMP JUMPDEST PUSH8 0xFFFFFFFFFFFFFFFF AND DUP2 PUSH8 0xFFFFFFFFFFFFFFFF AND EQ PUSH2 0x1036 JUMPI PUSH1 0x0 DUP2 DUP5 SWAP6 POP SWAP6 POP SWAP6 POP POP POP POP PUSH2 0x1044 JUMP JUMPDEST PUSH1 0x1 DUP2 DUP5 SWAP6 POP SWAP6 POP SWAP6 POP POP POP POP JUMPDEST SWAP4 POP SWAP4 POP SWAP4 SWAP1 POP JUMP JUMPDEST DUP1 PUSH1 0x0 ADD MLOAD PUSH1 0x1 SWAP1 DUP1 MLOAD SWAP1 PUSH1 0x20 ADD SWAP1 PUSH2 0x1067 SWAP3 SWAP2 SWAP1 PUSH2 0x5269 JUMP JUMPDEST POP PUSH1 0x0 PUSH1 0x3 DUP2 SWAP1 SSTORE POP DUP1 PUSH1 0x20 ADD MLOAD PUSH1 0x2 SWAP1 DUP1 MLOAD SWAP1 PUSH1 0x20 ADD SWAP1 PUSH2 0x108A SWAP3 SWAP2 SWAP1 PUSH2 0x5269 JUMP JUMPDEST POP PUSH1 0x0 PUSH1 0x4 DUP2 SWAP1 SSTORE POP PUSH2 0x10AA PUSH1 0x4 SLOAD PUSH1 0x3 SLOAD PUSH2 0xC10 SWAP1 SWAP2 SWAP1 PUSH4 0xFFFFFFFF AND JUMP JUMPDEST PUSH1 0x5 DUP2 SWAP1 SSTORE POP PUSH3 0xF4240 PUSH1 0x0 PUSH2 0x10C0 SWAP2 SWAP1 PUSH2 0x5C65 JUMP JUMPDEST PUSH8 0xFFFFFFFFFFFFFFFF AND PUSH1 0x8 DUP2 SWAP1 SSTORE POP PUSH1 0x0 PUSH2 0x10DF DUP3 PUSH1 0x80 ADD MLOAD PUSH2 0x2B6C JUMP JUMPDEST SWAP1 POP DUP2 PUSH1 0x40 ADD MLOAD PUSH8 0xFFFFFFFFFFFFFFFF AND PUSH1 0x9 PUSH1 0x0 DUP4 PUSH20 0xFFFFFFFFFFFFFFFFFFFFFFFFFFFFFFFFFFFFFFFF AND PUSH20 0xFFFFFFFFFFFFFFFFFFFFFFFFFFFFFFFFFFFFFFFF AND DUP2 MSTORE PUSH1 0x20 ADD SWAP1 DUP2 MSTORE PUSH1 0x20 ADD PUSH1 0x0 KECCAK256 DUP2 SWAP1 SSTORE POP DUP2 PUSH1 0x60 ADD MLOAD PUSH8 0xFFFFFFFFFFFFFFFF AND PUSH1 0xA PUSH1 0x0 DUP4 PUSH20 0xFFFFFFFFFFFFFFFFFFFFFFFFFFFFFFFFFFFFFFFF AND PUSH20 0xFFFFFFFFFFFFFFFFFFFFFFFFFFFFFFFFFFFFFFFF AND DUP2 MSTORE PUSH1 0x20 ADD SWAP1 DUP2 MSTORE PUSH1 0x20 ADD PUSH1 0x0 KECCAK256 DUP2 SWAP1 SSTORE POP PUSH1 0xB DUP2 SWAP1 DUP1 PUSH1 0x1 DUP2 SLOAD ADD DUP1 DUP3 SSTORE DUP1 SWAP2 POP POP PUSH1 0x1 SWAP1 SUB SWAP1 PUSH1 0x0 MSTORE PUSH1 0x20 PUSH1 0x0 KECCAK256 ADD PUSH1 0x0 SWAP1 SWAP2 SWAP1 SWAP2 SWAP1 SWAP2 PUSH2 0x100 EXP DUP2 SLOAD DUP2 PUSH20 0xFFFFFFFFFFFFFFFFFFFFFFFFFFFFFFFFFFFFFFFF MUL NOT AND SWAP1 DUP4 PUSH20 0xFFFFFFFFFFFFFFFFFFFFFFFFFFFFFFFFFFFFFFFF AND MUL OR SWAP1 SSTORE POP PUSH1 0x1 PUSH1 0xC PUSH1 0x0 PUSH2 0x100 EXP DUP2 SLOAD DUP2 PUSH1 0xFF MUL NOT AND SWAP1 DUP4 ISZERO ISZERO MUL OR SWAP1 SSTORE POP POP POP JUMP JUMPDEST PUSH1 0x0 DUP1 PUSH2 0x1212 PUSH2 0x52EF JUMP JUMPDEST PUSH2 0x121A PUSH2 0x52EF JUMP JUMPDEST PUSH1 0x0 DUP1 DUP9 SWAP1 POP DUP1 PUSH8 0xFFFFFFFFFFFFFFFF AND DUP8 DUP3 PUSH2 0x1237 SWAP2 SWAP1 PUSH2 0x5B9C JUMP JUMPDEST PUSH8 0xFFFFFFFFFFFFFFFF AND LT ISZERO PUSH2 0x1259 JUMPI PUSH1 0x0 DUP2 DUP5 SWAP6 POP SWAP6 POP SWAP6 POP POP POP POP PUSH2 0x13B8 JUMP JUMPDEST JUMPDEST DUP7 PUSH8 0xFFFFFFFFFFFFFFFF AND DUP10 DUP3 PUSH2 0x1271 SWAP2 SWAP1 PUSH2 0x5CDB JUMP JUMPDEST PUSH8 0xFFFFFFFFFFFFFFFF AND LT ISZERO PUSH2 0x1372 JUMPI PUSH1 0x0 DUP1 PUSH1 0x0 PUSH2 0x1290 DUP5 DUP13 PUSH2 0x2741 JUMP JUMPDEST DUP1 SWAP5 POP DUP2 SWAP6 POP DUP3 SWAP8 POP DUP4 SWAP7 POP POP POP POP POP DUP3 PUSH2 0x12BA JUMPI PUSH1 0x0 DUP5 DUP8 SWAP9 POP SWAP9 POP SWAP9 POP POP POP POP POP POP POP PUSH2 0x13B8 JUMP JUMPDEST PUSH1 0x3 DUP3 PUSH8 0xFFFFFFFFFFFFFFFF AND GT ISZERO PUSH2 0x12E2 JUMPI PUSH1 0x0 DUP5 DUP8 SWAP9 POP SWAP9 POP SWAP9 POP POP POP POP POP POP POP PUSH2 0x13B8 JUMP JUMPDEST DUP5 PUSH8 0xFFFFFFFFFFFFFFFF AND DUP3 PUSH8 0xFFFFFFFFFFFFFFFF AND GT PUSH2 0x1312 JUMPI PUSH1 0x0 DUP5 DUP8 SWAP9 POP SWAP9 POP SWAP9 POP POP POP POP POP POP POP PUSH2 0x13B8 JUMP JUMPDEST PUSH2 0x131C DUP3 DUP3 PUSH2 0x2BC4 JUMP JUMPDEST SWAP3 POP DUP3 PUSH2 0x1338 JUMPI PUSH1 0x0 DUP5 DUP8 SWAP9 POP SWAP9 POP SWAP9 POP POP POP POP POP POP POP PUSH2 0x13B8 JUMP JUMPDEST PUSH2 0x1345 DUP5 DUP13 DUP13 DUP6 DUP11 PUSH2 0x2C97 JUMP JUMPDEST DUP1 SWAP6 POP DUP2 SWAP5 POP POP POP DUP3 PUSH2 0x1367 JUMPI PUSH1 0x0 DUP5 DUP8 SWAP9 POP SWAP9 POP SWAP9 POP POP POP POP POP POP POP PUSH2 0x13B8 JUMP JUMPDEST DUP2 SWAP5 POP POP POP POP PUSH2 0x125A JUMP JUMPDEST DUP7 DUP10 PUSH2 0x137E SWAP2 SWAP1 PUSH2 0x5B9C JUMP JUMPDEST PUSH8 0xFFFFFFFFFFFFFFFF AND DUP2 PUSH8 0xFFFFFFFFFFFFFFFF AND EQ PUSH2 0x13AA JUMPI PUSH1 0x0 DUP2 DUP5 SWAP6 POP SWAP6 POP SWAP6 POP POP POP POP PUSH2 0x13B8 JUMP JUMPDEST PUSH1 0x1 DUP2 DUP5 SWAP6 POP SWAP6 POP SWAP6 POP POP POP POP JUMPDEST SWAP4 POP SWAP4 POP SWAP4 SWAP1 POP JUMP JUMPDEST PUSH1 0x0 PUSH2 0x13D0 DUP3 PUSH1 0x40 ADD MLOAD PUSH2 0x2B6C JUMP JUMPDEST SWAP1 POP PUSH2 0x146A PUSH1 0x1 DUP1 SLOAD PUSH2 0x13E2 SWAP1 PUSH2 0x5DD7 JUMP JUMPDEST DUP1 PUSH1 0x1F ADD PUSH1 0x20 DUP1 SWAP2 DIV MUL PUSH1 0x20 ADD PUSH1 0x40 MLOAD SWAP1 DUP2 ADD PUSH1 0x40 MSTORE DUP1 SWAP3 SWAP2 SWAP1 DUP2 DUP2 MSTORE PUSH1 0x20 ADD DUP3 DUP1 SLOAD PUSH2 0x140E SWAP1 PUSH2 0x5DD7 JUMP JUMPDEST DUP1 ISZERO PUSH2 0x145B JUMPI DUP1 PUSH1 0x1F LT PUSH2 0x1430 JUMPI PUSH2 0x100 DUP1 DUP4 SLOAD DIV MUL DUP4 MSTORE SWAP2 PUSH1 0x20 ADD SWAP2 PUSH2 0x145B JUMP JUMPDEST DUP3 ADD SWAP2 SWAP1 PUSH1 0x0 MSTORE PUSH1 0x20 PUSH1 0x0 KECCAK256 SWAP1 JUMPDEST DUP2 SLOAD DUP2 MSTORE SWAP1 PUSH1 0x1 ADD SWAP1 PUSH1 0x20 ADD DUP1 DUP4 GT PUSH2 0x143E JUMPI DUP3 SWAP1 SUB PUSH1 0x1F AND DUP3 ADD SWAP2 JUMPDEST POP POP POP POP POP DUP4 PUSH1 0x0 ADD MLOAD PUSH2 0x2D8D JUMP JUMPDEST ISZERO PUSH2 0x14D4 JUMPI DUP2 PUSH1 0x20 ADD MLOAD PUSH8 0xFFFFFFFFFFFFFFFF AND PUSH1 0x9 PUSH1 0x0 DUP4 PUSH20 0xFFFFFFFFFFFFFFFFFFFFFFFFFFFFFFFFFFFFFFFF AND PUSH20 0xFFFFFFFFFFFFFFFFFFFFFFFFFFFFFFFFFFFFFFFF AND DUP2 MSTORE PUSH1 0x20 ADD SWAP1 DUP2 MSTORE PUSH1 0x20 ADD PUSH1 0x0 KECCAK256 PUSH1 0x0 DUP3 DUP3 SLOAD PUSH2 0x14CC SWAP2 SWAP1 PUSH2 0x5B46 JUMP JUMPDEST SWAP3 POP POP DUP2 SWAP1 SSTORE POP JUMPDEST PUSH2 0x156C PUSH1 0x2 DUP1 SLOAD PUSH2 0x14E4 SWAP1 PUSH2 0x5DD7 JUMP JUMPDEST DUP1 PUSH1 0x1F ADD PUSH1 0x20 DUP1 SWAP2 DIV MUL PUSH1 0x20 ADD PUSH1 0x40 MLOAD SWAP1 DUP2 ADD PUSH1 0x40 MSTORE DUP1 SWAP3 SWAP2 SWAP1 DUP2 DUP2 MSTORE PUSH1 0x20 ADD DUP3 DUP1 SLOAD PUSH2 0x1510 SWAP1 PUSH2 0x5DD7 JUMP JUMPDEST DUP1 ISZERO PUSH2 0x155D JUMPI DUP1 PUSH1 0x1F LT PUSH2 0x1532 JUMPI PUSH2 0x100 DUP1 DUP4 SLOAD DIV MUL DUP4 MSTORE SWAP2 PUSH1 0x20 ADD SWAP2 PUSH2 0x155D JUMP JUMPDEST DUP3 ADD SWAP2 SWAP1 PUSH1 0x0 MSTORE PUSH1 0x20 PUSH1 0x0 KECCAK256 SWAP1 JUMPDEST DUP2 SLOAD DUP2 MSTORE SWAP1 PUSH1 0x1 ADD SWAP1 PUSH1 0x20 ADD DUP1 DUP4 GT PUSH2 0x1540 JUMPI DUP3 SWAP1 SUB PUSH1 0x1F AND DUP3 ADD SWAP2 JUMPDEST POP POP POP POP POP DUP4 PUSH1 0x0 ADD MLOAD PUSH2 0x2D8D JUMP JUMPDEST ISZERO PUSH2 0x15D6 JUMPI DUP2 PUSH1 0x20 ADD MLOAD PUSH8 0xFFFFFFFFFFFFFFFF AND PUSH1 0xA PUSH1 0x0 DUP4 PUSH20 0xFFFFFFFFFFFFFFFFFFFFFFFFFFFFFFFFFFFFFFFF AND PUSH20 0xFFFFFFFFFFFFFFFFFFFFFFFFFFFFFFFFFFFFFFFF AND DUP2 MSTORE PUSH1 0x20 ADD SWAP1 DUP2 MSTORE PUSH1 0x20 ADD PUSH1 0x0 KECCAK256 PUSH1 0x0 DUP3 DUP3 SLOAD PUSH2 0x15CE SWAP2 SWAP1 PUSH2 0x5B46 JUMP JUMPDEST SWAP3 POP POP DUP2 SWAP1 SSTORE POP JUMPDEST PUSH1 0x0 PUSH1 0x9 PUSH1 0x0 DUP4 PUSH20 0xFFFFFFFFFFFFFFFFFFFFFFFFFFFFFFFFFFFFFFFF AND PUSH20 0xFFFFFFFFFFFFFFFFFFFFFFFFFFFFFFFFFFFFFFFF AND DUP2 MSTORE PUSH1 0x20 ADD SWAP1 DUP2 MSTORE PUSH1 0x20 ADD PUSH1 0x0 KECCAK256 SLOAD EQ DUP1 ISZERO PUSH2 0x1664 JUMPI POP PUSH1 0x0 PUSH1 0xA PUSH1 0x0 DUP4 PUSH20 0xFFFFFFFFFFFFFFFFFFFFFFFFFFFFFFFFFFFFFFFF AND PUSH20 0xFFFFFFFFFFFFFFFFFFFFFFFFFFFFFFFFFFFFFFFF AND DUP2 MSTORE PUSH1 0x20 ADD SWAP1 DUP2 MSTORE PUSH1 0x20 ADD PUSH1 0x0 KECCAK256 SLOAD EQ JUMPDEST ISZERO PUSH2 0x16CD JUMPI PUSH1 0xB DUP2 SWAP1 DUP1 PUSH1 0x1 DUP2 SLOAD ADD DUP1 DUP3 SSTORE DUP1 SWAP2 POP POP PUSH1 0x1 SWAP1 SUB SWAP1 PUSH1 0x0 MSTORE PUSH1 0x20 PUSH1 0x0 KECCAK256 ADD PUSH1 0x0 SWAP1 SWAP2 SWAP1 SWAP2 SWAP1 SWAP2 PUSH2 0x100 EXP DUP2 SLOAD DUP2 PUSH20 0xFFFFFFFFFFFFFFFFFFFFFFFFFFFFFFFFFFFFFFFF MUL NOT AND SWAP1 DUP4 PUSH20 0xFFFFFFFFFFFFFFFFFFFFFFFFFFFFFFFFFFFFFFFF AND MUL OR SWAP1 SSTORE POP JUMPDEST POP POP JUMP JUMPDEST PUSH1 0x0 DUP1 PUSH2 0x16DC PUSH2 0x531A JUMP JUMPDEST PUSH2 0x16E4 PUSH2 0x531A JUMP JUMPDEST PUSH1 0x0 DUP1 DUP9 SWAP1 POP DUP1 PUSH8 0xFFFFFFFFFFFFFFFF AND DUP8 DUP3 PUSH2 0x1701 SWAP2 SWAP1 PUSH2 0x5B9C JUMP JUMPDEST PUSH8 0xFFFFFFFFFFFFFFFF AND LT ISZERO PUSH2 0x1723 JUMPI PUSH1 0x0 DUP2 DUP5 SWAP6 POP SWAP6 POP SWAP6 POP POP POP POP PUSH2 0x1882 JUMP JUMPDEST JUMPDEST DUP7 PUSH8 0xFFFFFFFFFFFFFFFF AND DUP10 DUP3 PUSH2 0x173B SWAP2 SWAP1 PUSH2 0x5CDB JUMP JUMPDEST PUSH8 0xFFFFFFFFFFFFFFFF AND LT ISZERO PUSH2 0x183C JUMPI PUSH1 0x0 DUP1 PUSH1 0x0 PUSH2 0x175A DUP5 DUP13 PUSH2 0x2741 JUMP JUMPDEST DUP1 SWAP5 POP DUP2 SWAP6 POP DUP3 SWAP8 POP DUP4 SWAP7 POP POP POP POP POP DUP3 PUSH2 0x1784 JUMPI PUSH1 0x0 DUP5 DUP8 SWAP9 POP SWAP9 POP SWAP9 POP POP POP POP POP POP POP PUSH2 0x1882 JUMP JUMPDEST PUSH1 0x3 DUP3 PUSH8 0xFFFFFFFFFFFFFFFF AND GT ISZERO PUSH2 0x17AC JUMPI PUSH1 0x0 DUP5 DUP8 SWAP9 POP SWAP9 POP SWAP9 POP POP POP POP POP POP POP PUSH2 0x1882 JUMP JUMPDEST DUP5 PUSH8 0xFFFFFFFFFFFFFFFF AND DUP3 PUSH8 0xFFFFFFFFFFFFFFFF AND GT PUSH2 0x17DC JUMPI PUSH1 0x0 DUP5 DUP8 SWAP9 POP SWAP9 POP SWAP9 POP POP POP POP POP POP POP PUSH2 0x1882 JUMP JUMPDEST PUSH2 0x17E6 DUP3 DUP3 PUSH2 0x2DE6 JUMP JUMPDEST SWAP3 POP DUP3 PUSH2 0x1802 JUMPI PUSH1 0x0 DUP5 DUP8 SWAP9 POP SWAP9 POP SWAP9 POP POP POP POP POP POP POP PUSH2 0x1882 JUMP JUMPDEST PUSH2 0x180F DUP5 DUP13 DUP13 DUP6 DUP11 PUSH2 0x2EB9 JUMP JUMPDEST DUP1 SWAP6 POP DUP2 SWAP5 POP POP POP DUP3 PUSH2 0x1831 JUMPI PUSH1 0x0 DUP5 DUP8 SWAP9 POP SWAP9 POP SWAP9 POP POP POP POP POP POP POP PUSH2 0x1882 JUMP JUMPDEST DUP2 SWAP5 POP POP POP POP PUSH2 0x1724 JUMP JUMPDEST DUP7 DUP10 PUSH2 0x1848 SWAP2 SWAP1 PUSH2 0x5B9C JUMP JUMPDEST PUSH8 0xFFFFFFFFFFFFFFFF AND DUP2 PUSH8 0xFFFFFFFFFFFFFFFF AND EQ PUSH2 0x1874 JUMPI PUSH1 0x0 DUP2 DUP5 SWAP6 POP SWAP6 POP SWAP6 POP POP POP POP PUSH2 0x1882 JUMP JUMPDEST PUSH1 0x1 DUP2 DUP5 SWAP6 POP SWAP6 POP SWAP6 POP POP POP POP JUMPDEST SWAP4 POP SWAP4 POP SWAP4 SWAP1 POP JUMP JUMPDEST PUSH1 0x0 PUSH2 0x189A DUP3 PUSH1 0x40 ADD MLOAD PUSH2 0x2B6C JUMP JUMPDEST SWAP1 POP PUSH2 0x1934 PUSH1 0x1 DUP1 SLOAD PUSH2 0x18AC SWAP1 PUSH2 0x5DD7 JUMP JUMPDEST DUP1 PUSH1 0x1F ADD PUSH1 0x20 DUP1 SWAP2 DIV MUL PUSH1 0x20 ADD PUSH1 0x40 MLOAD SWAP1 DUP2 ADD PUSH1 0x40 MSTORE DUP1 SWAP3 SWAP2 SWAP1 DUP2 DUP2 MSTORE PUSH1 0x20 ADD DUP3 DUP1 SLOAD PUSH2 0x18D8 SWAP1 PUSH2 0x5DD7 JUMP JUMPDEST DUP1 ISZERO PUSH2 0x1925 JUMPI DUP1 PUSH1 0x1F LT PUSH2 0x18FA JUMPI PUSH2 0x100 DUP1 DUP4 SLOAD DIV MUL DUP4 MSTORE SWAP2 PUSH1 0x20 ADD SWAP2 PUSH2 0x1925 JUMP JUMPDEST DUP3 ADD SWAP2 SWAP1 PUSH1 0x0 MSTORE PUSH1 0x20 PUSH1 0x0 KECCAK256 SWAP1 JUMPDEST DUP2 SLOAD DUP2 MSTORE SWAP1 PUSH1 0x1 ADD SWAP1 PUSH1 0x20 ADD DUP1 DUP4 GT PUSH2 0x1908 JUMPI DUP3 SWAP1 SUB PUSH1 0x1F AND DUP3 ADD SWAP2 JUMPDEST POP POP POP POP POP DUP4 PUSH1 0x0 ADD MLOAD PUSH2 0x2D8D JUMP JUMPDEST ISZERO PUSH2 0x199E JUMPI DUP2 PUSH1 0x20 ADD MLOAD PUSH8 0xFFFFFFFFFFFFFFFF AND PUSH1 0x9 PUSH1 0x0 DUP4 PUSH20 0xFFFFFFFFFFFFFFFFFFFFFFFFFFFFFFFFFFFFFFFF AND PUSH20 0xFFFFFFFFFFFFFFFFFFFFFFFFFFFFFFFFFFFFFFFF AND DUP2 MSTORE PUSH1 0x20 ADD SWAP1 DUP2 MSTORE PUSH1 0x20 ADD PUSH1 0x0 KECCAK256 PUSH1 0x0 DUP3 DUP3 SLOAD PUSH2 0x1996 SWAP2 SWAP1 PUSH2 0x5CA7 JUMP JUMPDEST SWAP3 POP POP DUP2 SWAP1 SSTORE POP JUMPDEST PUSH2 0x1A36 PUSH1 0x2 DUP1 SLOAD PUSH2 0x19AE SWAP1 PUSH2 0x5DD7 JUMP JUMPDEST DUP1 PUSH1 0x1F ADD PUSH1 0x20 DUP1 SWAP2 DIV MUL PUSH1 0x20 ADD PUSH1 0x40 MLOAD SWAP1 DUP2 ADD PUSH1 0x40 MSTORE DUP1 SWAP3 SWAP2 SWAP1 DUP2 DUP2 MSTORE PUSH1 0x20 ADD DUP3 DUP1 SLOAD PUSH2 0x19DA SWAP1 PUSH2 0x5DD7 JUMP JUMPDEST DUP1 ISZERO PUSH2 0x1A27 JUMPI DUP1 PUSH1 0x1F LT PUSH2 0x19FC JUMPI PUSH2 0x100 DUP1 DUP4 SLOAD DIV MUL DUP4 MSTORE SWAP2 PUSH1 0x20 ADD SWAP2 PUSH2 0x1A27 JUMP JUMPDEST DUP3 ADD SWAP2 SWAP1 PUSH1 0x0 MSTORE PUSH1 0x20 PUSH1 0x0 KECCAK256 SWAP1 JUMPDEST DUP2 SLOAD DUP2 MSTORE SWAP1 PUSH1 0x1 ADD SWAP1 PUSH1 0x20 ADD DUP1 DUP4 GT PUSH2 0x1A0A JUMPI DUP3 SWAP1 SUB PUSH1 0x1F AND DUP3 ADD SWAP2 JUMPDEST POP POP POP POP POP DUP4 PUSH1 0x0 ADD MLOAD PUSH2 0x2D8D JUMP JUMPDEST ISZERO PUSH2 0x1AA0 JUMPI DUP2 PUSH1 0x20 ADD MLOAD PUSH8 0xFFFFFFFFFFFFFFFF AND PUSH1 0xA PUSH1 0x0 DUP4 PUSH20 0xFFFFFFFFFFFFFFFFFFFFFFFFFFFFFFFFFFFFFFFF AND PUSH20 0xFFFFFFFFFFFFFFFFFFFFFFFFFFFFFFFFFFFFFFFF AND DUP2 MSTORE PUSH1 0x20 ADD SWAP1 DUP2 MSTORE PUSH1 0x20 ADD PUSH1 0x0 KECCAK256 PUSH1 0x0 DUP3 DUP3 SLOAD PUSH2 0x1A98 SWAP2 SWAP1 PUSH2 0x5CA7 JUMP JUMPDEST SWAP3 POP POP DUP2 SWAP1 SSTORE POP JUMPDEST POP POP JUMP JUMPDEST PUSH1 0x0 DUP1 PUSH2 0x1AAF PUSH2 0x5345 JUMP JUMPDEST PUSH2 0x1AB7 PUSH2 0x5345 JUMP JUMPDEST PUSH1 0x0 DUP1 DUP9 SWAP1 POP DUP1 PUSH8 0xFFFFFFFFFFFFFFFF AND DUP8 DUP3 PUSH2 0x1AD4 SWAP2 SWAP1 PUSH2 0x5B9C JUMP JUMPDEST PUSH8 0xFFFFFFFFFFFFFFFF AND LT ISZERO PUSH2 0x1AF6 JUMPI PUSH1 0x0 DUP2 DUP5 SWAP6 POP SWAP6 POP SWAP6 POP POP POP POP PUSH2 0x1C55 JUMP JUMPDEST JUMPDEST DUP7 PUSH8 0xFFFFFFFFFFFFFFFF AND DUP10 DUP3 PUSH2 0x1B0E SWAP2 SWAP1 PUSH2 0x5CDB JUMP JUMPDEST PUSH8 0xFFFFFFFFFFFFFFFF AND LT ISZERO PUSH2 0x1C0F JUMPI PUSH1 0x0 DUP1 PUSH1 0x0 PUSH2 0x1B2D DUP5 DUP13 PUSH2 0x2741 JUMP JUMPDEST DUP1 SWAP5 POP DUP2 SWAP6 POP DUP3 SWAP8 POP DUP4 SWAP7 POP POP POP POP POP DUP3 PUSH2 0x1B57 JUMPI PUSH1 0x0 DUP5 DUP8 SWAP9 POP SWAP9 POP SWAP9 POP POP POP POP POP POP POP PUSH2 0x1C55 JUMP JUMPDEST PUSH1 0x3 DUP3 PUSH8 0xFFFFFFFFFFFFFFFF AND GT ISZERO PUSH2 0x1B7F JUMPI PUSH1 0x0 DUP5 DUP8 SWAP9 POP SWAP9 POP SWAP9 POP POP POP POP POP POP POP PUSH2 0x1C55 JUMP JUMPDEST DUP5 PUSH8 0xFFFFFFFFFFFFFFFF AND DUP3 PUSH8 0xFFFFFFFFFFFFFFFF AND GT PUSH2 0x1BAF JUMPI PUSH1 0x0 DUP5 DUP8 SWAP9 POP SWAP9 POP SWAP9 POP POP POP POP POP POP POP PUSH2 0x1C55 JUMP JUMPDEST PUSH2 0x1BB9 DUP3 DUP3 PUSH2 0x2FAF JUMP JUMPDEST SWAP3 POP DUP3 PUSH2 0x1BD5 JUMPI PUSH1 0x0 DUP5 DUP8 SWAP9 POP SWAP9 POP SWAP9 POP POP POP POP POP POP POP PUSH2 0x1C55 JUMP JUMPDEST PUSH2 0x1BE2 DUP5 DUP13 DUP13 DUP6 DUP11 PUSH2 0x3082 JUMP JUMPDEST DUP1 SWAP6 POP DUP2 SWAP5 POP POP POP DUP3 PUSH2 0x1C04 JUMPI PUSH1 0x0 DUP5 DUP8 SWAP9 POP SWAP9 POP SWAP9 POP POP POP POP POP POP POP PUSH2 0x1C55 JUMP JUMPDEST DUP2 SWAP5 POP POP POP POP PUSH2 0x1AF7 JUMP JUMPDEST DUP7 DUP10 PUSH2 0x1C1B SWAP2 SWAP1 PUSH2 0x5B9C JUMP JUMPDEST PUSH8 0xFFFFFFFFFFFFFFFF AND DUP2 PUSH8 0xFFFFFFFFFFFFFFFF AND EQ PUSH2 0x1C47 JUMPI PUSH1 0x0 DUP2 DUP5 SWAP6 POP SWAP6 POP SWAP6 POP POP POP POP PUSH2 0x1C55 JUMP JUMPDEST PUSH1 0x1 DUP2 DUP5 SWAP6 POP SWAP6 POP SWAP6 POP POP POP POP JUMPDEST SWAP4 POP SWAP4 POP SWAP4 SWAP1 POP JUMP JUMPDEST PUSH1 0x0 PUSH2 0x1C6D DUP3 PUSH1 0x40 ADD MLOAD PUSH2 0x2B6C JUMP JUMPDEST SWAP1 POP PUSH1 0x0 DUP1 PUSH1 0x8 SLOAD EQ ISZERO PUSH2 0x1C9C JUMPI PUSH3 0xF4240 PUSH1 0x64 PUSH2 0x1C8B SWAP2 SWAP1 PUSH2 0x5C65 JUMP JUMPDEST PUSH8 0xFFFFFFFFFFFFFFFF AND SWAP1 POP PUSH2 0x1D5A JUMP JUMPDEST PUSH1 0x0 PUSH2 0x1CD5 PUSH1 0x3 SLOAD PUSH2 0x1CC7 DUP7 PUSH1 0x0 ADD MLOAD PUSH8 0xFFFFFFFFFFFFFFFF AND PUSH1 0x8 SLOAD PUSH2 0xC10 SWAP1 SWAP2 SWAP1 PUSH4 0xFFFFFFFF AND JUMP JUMPDEST PUSH2 0x704 SWAP1 SWAP2 SWAP1 PUSH4 0xFFFFFFFF AND JUMP JUMPDEST SWAP1 POP PUSH1 0x0 PUSH2 0x1D10 PUSH1 0x4 SLOAD PUSH2 0x1D02 DUP8 PUSH1 0x20 ADD MLOAD PUSH8 0xFFFFFFFFFFFFFFFF AND PUSH1 0x8 SLOAD PUSH2 0xC10 SWAP1 SWAP2 SWAP1 PUSH4 0xFFFFFFFF AND JUMP JUMPDEST PUSH2 0x704 SWAP1 SWAP2 SWAP1 PUSH4 0xFFFFFFFF AND JUMP JUMPDEST SWAP1 POP DUP1 DUP3 EQ PUSH2 0x1D54 JUMPI PUSH1 0x40 MLOAD PUSH32 0x8C379A000000000000000000000000000000000000000000000000000000000 DUP2 MSTORE PUSH1 0x4 ADD PUSH2 0x1D4B SWAP1 PUSH2 0x5A14 JUMP JUMPDEST PUSH1 0x40 MLOAD DUP1 SWAP2 SUB SWAP1 REVERT JUMPDEST DUP2 SWAP3 POP POP POP JUMPDEST PUSH1 0x0 DUP2 GT PUSH2 0x1D9D JUMPI PUSH1 0x40 MLOAD PUSH32 0x8C379A000000000000000000000000000000000000000000000000000000000 DUP2 MSTORE PUSH1 0x4 ADD PUSH2 0x1D94 SWAP1 PUSH2 0x5974 JUMP JUMPDEST PUSH1 0x40 MLOAD DUP1 SWAP2 SUB SWAP1 REVERT JUMPDEST DUP3 PUSH1 0x0 ADD MLOAD PUSH8 0xFFFFFFFFFFFFFFFF AND PUSH1 0x9 PUSH1 0x0 DUP5 PUSH20 0xFFFFFFFFFFFFFFFFFFFFFFFFFFFFFFFFFFFFFFFF AND PUSH20 0xFFFFFFFFFFFFFFFFFFFFFFFFFFFFFFFFFFFFFFFF AND DUP2 MSTORE PUSH1 0x20 ADD SWAP1 DUP2 MSTORE PUSH1 0x20 ADD PUSH1 0x0 KECCAK256 PUSH1 0x0 DUP3 DUP3 SLOAD PUSH2 0x1DFA SWAP2 SWAP1 PUSH2 0x5CA7 JUMP JUMPDEST SWAP3 POP POP DUP2 SWAP1 SSTORE POP DUP3 PUSH1 0x20 ADD MLOAD PUSH8 0xFFFFFFFFFFFFFFFF AND PUSH1 0xA PUSH1 0x0 DUP5 PUSH20 0xFFFFFFFFFFFFFFFFFFFFFFFFFFFFFFFFFFFFFFFF AND PUSH20 0xFFFFFFFFFFFFFFFFFFFFFFFFFFFFFFFFFFFFFFFF AND DUP2 MSTORE PUSH1 0x20 ADD SWAP1 DUP2 MSTORE PUSH1 0x20 ADD PUSH1 0x0 KECCAK256 PUSH1 0x0 DUP3 DUP3 SLOAD PUSH2 0x1E5E SWAP2 SWAP1 PUSH2 0x5CA7 JUMP JUMPDEST SWAP3 POP POP DUP2 SWAP1 SSTORE POP DUP3 PUSH1 0x0 ADD MLOAD PUSH8 0xFFFFFFFFFFFFFFFF AND PUSH1 0x3 PUSH1 0x0 DUP3 DUP3 SLOAD PUSH2 0x1E85 SWAP2 SWAP1 PUSH2 0x5B46 JUMP JUMPDEST SWAP3 POP POP DUP2 SWAP1 SSTORE POP DUP3 PUSH1 0x20 ADD MLOAD PUSH8 0xFFFFFFFFFFFFFFFF AND PUSH1 0x4 PUSH1 0x0 DUP3 DUP3 SLOAD PUSH2 0x1EAC SWAP2 SWAP1 PUSH2 0x5B46 JUMP JUMPDEST SWAP3 POP POP DUP2 SWAP1 SSTORE POP PUSH2 0x1ECA PUSH1 0x4 SLOAD PUSH1 0x3 SLOAD PUSH2 0xC10 SWAP1 SWAP2 SWAP1 PUSH4 0xFFFFFFFF AND JUMP JUMPDEST PUSH1 0x5 DUP2 SWAP1 SSTORE POP DUP1 PUSH1 0x8 PUSH1 0x0 DUP3 DUP3 SLOAD PUSH2 0x1EE2 SWAP2 SWAP1 PUSH2 0x5B46 JUMP JUMPDEST SWAP3 POP POP DUP2 SWAP1 SSTORE POP DUP1 PUSH1 0x6 PUSH1 0x0 DUP5 PUSH20 0xFFFFFFFFFFFFFFFFFFFFFFFFFFFFFFFFFFFFFFFF AND PUSH20 0xFFFFFFFFFFFFFFFFFFFFFFFFFFFFFFFFFFFFFFFF AND DUP2 MSTORE PUSH1 0x20 ADD SWAP1 DUP2 MSTORE PUSH1 0x20 ADD PUSH1 0x0 KECCAK256 PUSH1 0x0 DUP3 DUP3 SLOAD PUSH2 0x1F38 SWAP2 SWAP1 PUSH2 0x5B46 JUMP JUMPDEST SWAP3 POP POP DUP2 SWAP1 SSTORE POP POP POP POP JUMP JUMPDEST PUSH1 0x0 DUP1 PUSH2 0x1F4F PUSH2 0x537A JUMP JUMPDEST PUSH2 0x1F57 PUSH2 0x537A JUMP JUMPDEST PUSH1 0x0 DUP1 DUP9 SWAP1 POP DUP1 PUSH8 0xFFFFFFFFFFFFFFFF AND DUP8 DUP3 PUSH2 0x1F74 SWAP2 SWAP1 PUSH2 0x5B9C JUMP JUMPDEST PUSH8 0xFFFFFFFFFFFFFFFF AND LT ISZERO PUSH2 0x1F96 JUMPI PUSH1 0x0 DUP2 DUP5 SWAP6 POP SWAP6 POP SWAP6 POP POP POP POP PUSH2 0x20F5 JUMP JUMPDEST JUMPDEST DUP7 PUSH8 0xFFFFFFFFFFFFFFFF AND DUP10 DUP3 PUSH2 0x1FAE SWAP2 SWAP1 PUSH2 0x5CDB JUMP JUMPDEST PUSH8 0xFFFFFFFFFFFFFFFF AND LT ISZERO PUSH2 0x20AF JUMPI PUSH1 0x0 DUP1 PUSH1 0x0 PUSH2 0x1FCD DUP5 DUP13 PUSH2 0x2741 JUMP JUMPDEST DUP1 SWAP5 POP DUP2 SWAP6 POP DUP3 SWAP8 POP DUP4 SWAP7 POP POP POP POP POP DUP3 PUSH2 0x1FF7 JUMPI PUSH1 0x0 DUP5 DUP8 SWAP9 POP SWAP9 POP SWAP9 POP POP POP POP POP POP POP PUSH2 0x20F5 JUMP JUMPDEST PUSH1 0x4 DUP3 PUSH8 0xFFFFFFFFFFFFFFFF AND GT ISZERO PUSH2 0x201F JUMPI PUSH1 0x0 DUP5 DUP8 SWAP9 POP SWAP9 POP SWAP9 POP POP POP POP POP POP POP PUSH2 0x20F5 JUMP JUMPDEST DUP5 PUSH8 0xFFFFFFFFFFFFFFFF AND DUP3 PUSH8 0xFFFFFFFFFFFFFFFF AND GT PUSH2 0x204F JUMPI PUSH1 0x0 DUP5 DUP8 SWAP9 POP SWAP9 POP SWAP9 POP POP POP POP POP POP POP PUSH2 0x20F5 JUMP JUMPDEST PUSH2 0x2059 DUP3 DUP3 PUSH2 0x3178 JUMP JUMPDEST SWAP3 POP DUP3 PUSH2 0x2075 JUMPI PUSH1 0x0 DUP5 DUP8 SWAP9 POP SWAP9 POP SWAP9 POP POP POP POP POP POP POP PUSH2 0x20F5 JUMP JUMPDEST PUSH2 0x2082 DUP5 DUP13 DUP13 DUP6 DUP11 PUSH2 0x328D JUMP JUMPDEST DUP1 SWAP6 POP DUP2 SWAP5 POP POP POP DUP3 PUSH2 0x20A4 JUMPI PUSH1 0x0 DUP5 DUP8 SWAP9 POP SWAP9 POP SWAP9 POP POP POP POP POP POP POP PUSH2 0x20F5 JUMP JUMPDEST DUP2 SWAP5 POP POP POP POP PUSH2 0x1F97 JUMP JUMPDEST DUP7 DUP10 PUSH2 0x20BB SWAP2 SWAP1 PUSH2 0x5B9C JUMP JUMPDEST PUSH8 0xFFFFFFFFFFFFFFFF AND DUP2 PUSH8 0xFFFFFFFFFFFFFFFF AND EQ PUSH2 0x20E7 JUMPI PUSH1 0x0 DUP2 DUP5 SWAP6 POP SWAP6 POP SWAP6 POP POP POP POP PUSH2 0x20F5 JUMP JUMPDEST PUSH1 0x1 DUP2 DUP5 SWAP6 POP SWAP6 POP SWAP6 POP POP POP POP JUMPDEST SWAP4 POP SWAP4 POP SWAP4 SWAP1 POP JUMP JUMPDEST PUSH1 0x0 PUSH2 0x210D DUP3 PUSH1 0x60 ADD MLOAD PUSH2 0x2B6C JUMP JUMPDEST SWAP1 POP PUSH1 0x0 DUP3 PUSH1 0x0 ADD MLOAD PUSH8 0xFFFFFFFFFFFFFFFF AND SWAP1 POP PUSH1 0x0 DUP1 PUSH2 0x212E DUP4 PUSH2 0x448 JUMP JUMPDEST SWAP2 POP SWAP2 POP DUP3 PUSH1 0x6 PUSH1 0x0 CALLER PUSH20 0xFFFFFFFFFFFFFFFFFFFFFFFFFFFFFFFFFFFFFFFF AND PUSH20 0xFFFFFFFFFFFFFFFFFFFFFFFFFFFFFFFFFFFFFFFF AND DUP2 MSTORE PUSH1 0x20 ADD SWAP1 DUP2 MSTORE PUSH1 0x20 ADD PUSH1 0x0 KECCAK256 PUSH1 0x0 DUP3 DUP3 SLOAD PUSH2 0x2181 SWAP2 SWAP1 PUSH2 0x5CA7 JUMP JUMPDEST SWAP3 POP POP DUP2 SWAP1 SSTORE POP DUP3 PUSH1 0x8 PUSH1 0x0 DUP3 DUP3 SLOAD PUSH2 0x219A SWAP2 SWAP1 PUSH2 0x5CA7 JUMP JUMPDEST SWAP3 POP POP DUP2 SWAP1 SSTORE POP DUP2 PUSH1 0x3 PUSH1 0x0 DUP3 DUP3 SLOAD PUSH2 0x21B3 SWAP2 SWAP1 PUSH2 0x5CA7 JUMP JUMPDEST SWAP3 POP POP DUP2 SWAP1 SSTORE POP DUP1 PUSH1 0x4 PUSH1 0x0 DUP3 DUP3 SLOAD PUSH2 0x21CC SWAP2 SWAP1 PUSH2 0x5CA7 JUMP JUMPDEST SWAP3 POP POP DUP2 SWAP1 SSTORE POP PUSH2 0x21EA PUSH1 0x4 SLOAD PUSH1 0x3 SLOAD PUSH2 0xC10 SWAP1 SWAP2 SWAP1 PUSH4 0xFFFFFFFF AND JUMP JUMPDEST PUSH1 0x5 DUP2 SWAP1 SSTORE POP DUP2 PUSH1 0x9 PUSH1 0x0 DUP7 PUSH20 0xFFFFFFFFFFFFFFFFFFFFFFFFFFFFFFFFFFFFFFFF AND PUSH20 0xFFFFFFFFFFFFFFFFFFFFFFFFFFFFFFFFFFFFFFFF AND DUP2 MSTORE PUSH1 0x20 ADD SWAP1 DUP2 MSTORE PUSH1 0x20 ADD PUSH1 0x0 KECCAK256 PUSH1 0x0 DUP3 DUP3 SLOAD PUSH2 0x223F SWAP2 SWAP1 PUSH2 0x5B46 JUMP JUMPDEST SWAP3 POP POP DUP2 SWAP1 SSTORE POP DUP1 PUSH1 0xA PUSH1 0x0 DUP7 PUSH20 0xFFFFFFFFFFFFFFFFFFFFFFFFFFFFFFFFFFFFFFFF AND PUSH20 0xFFFFFFFFFFFFFFFFFFFFFFFFFFFFFFFFFFFFFFFF AND DUP2 MSTORE PUSH1 0x20 ADD SWAP1 DUP2 MSTORE PUSH1 0x20 ADD PUSH1 0x0 KECCAK256 PUSH1 0x0 DUP3 DUP3 SLOAD PUSH2 0x2295 SWAP2 SWAP1 PUSH2 0x5B46 JUMP JUMPDEST SWAP3 POP POP DUP2 SWAP1 SSTORE POP POP POP POP POP POP JUMP JUMPDEST PUSH1 0x0 DUP1 PUSH2 0x22AE PUSH2 0x53C0 JUMP JUMPDEST PUSH2 0x22B6 PUSH2 0x53C0 JUMP JUMPDEST PUSH1 0x0 DUP1 DUP9 SWAP1 POP DUP1 PUSH8 0xFFFFFFFFFFFFFFFF AND DUP8 DUP3 PUSH2 0x22D3 SWAP2 SWAP1 PUSH2 0x5B9C JUMP JUMPDEST PUSH8 0xFFFFFFFFFFFFFFFF AND LT ISZERO PUSH2 0x22F5 JUMPI PUSH1 0x0 DUP2 DUP5 SWAP6 POP SWAP6 POP SWAP6 POP POP POP POP PUSH2 0x2454 JUMP JUMPDEST JUMPDEST DUP7 PUSH8 0xFFFFFFFFFFFFFFFF AND DUP10 DUP3 PUSH2 0x230D SWAP2 SWAP1 PUSH2 0x5CDB JUMP JUMPDEST PUSH8 0xFFFFFFFFFFFFFFFF AND LT ISZERO PUSH2 0x240E JUMPI PUSH1 0x0 DUP1 PUSH1 0x0 PUSH2 0x232C DUP5 DUP13 PUSH2 0x2741 JUMP JUMPDEST DUP1 SWAP5 POP DUP2 SWAP6 POP DUP3 SWAP8 POP DUP4 SWAP7 POP POP POP POP POP DUP3 PUSH2 0x2356 JUMPI PUSH1 0x0 DUP5 DUP8 SWAP9 POP SWAP9 POP SWAP9 POP POP POP POP POP POP POP PUSH2 0x2454 JUMP JUMPDEST PUSH1 0x5 DUP3 PUSH8 0xFFFFFFFFFFFFFFFF AND GT ISZERO PUSH2 0x237E JUMPI PUSH1 0x0 DUP5 DUP8 SWAP9 POP SWAP9 POP SWAP9 POP POP POP POP POP POP POP PUSH2 0x2454 JUMP JUMPDEST DUP5 PUSH8 0xFFFFFFFFFFFFFFFF AND DUP3 PUSH8 0xFFFFFFFFFFFFFFFF AND GT PUSH2 0x23AE JUMPI PUSH1 0x0 DUP5 DUP8 SWAP9 POP SWAP9 POP SWAP9 POP POP POP POP POP POP POP PUSH2 0x2454 JUMP JUMPDEST PUSH2 0x23B8 DUP3 DUP3 PUSH2 0x33CC JUMP JUMPDEST SWAP3 POP DUP3 PUSH2 0x23D4 JUMPI PUSH1 0x0 DUP5 DUP8 SWAP9 POP SWAP9 POP SWAP9 POP POP POP POP POP POP POP PUSH2 0x2454 JUMP JUMPDEST PUSH2 0x23E1 DUP5 DUP13 DUP13 DUP6 DUP11 PUSH2 0x3523 JUMP JUMPDEST DUP1 SWAP6 POP DUP2 SWAP5 POP POP POP DUP3 PUSH2 0x2403 JUMPI PUSH1 0x0 DUP5 DUP8 SWAP9 POP SWAP9 POP SWAP9 POP POP POP POP POP POP POP PUSH2 0x2454 JUMP JUMPDEST DUP2 SWAP5 POP POP POP POP PUSH2 0x22F6 JUMP JUMPDEST DUP7 DUP10 PUSH2 0x241A SWAP2 SWAP1 PUSH2 0x5B9C JUMP JUMPDEST PUSH8 0xFFFFFFFFFFFFFFFF AND DUP2 PUSH8 0xFFFFFFFFFFFFFFFF AND EQ PUSH2 0x2446 JUMPI PUSH1 0x0 DUP2 DUP5 SWAP6 POP SWAP6 POP SWAP6 POP POP POP POP PUSH2 0x2454 JUMP JUMPDEST PUSH1 0x1 DUP2 DUP5 SWAP6 POP SWAP6 POP SWAP6 POP POP POP POP JUMPDEST SWAP4 POP SWAP4 POP SWAP4 SWAP1 POP JUMP JUMPDEST PUSH1 0x0 PUSH2 0x246C DUP3 PUSH1 0x80 ADD MLOAD PUSH2 0x2B6C JUMP JUMPDEST SWAP1 POP PUSH2 0x2506 PUSH1 0x1 DUP1 SLOAD PUSH2 0x247E SWAP1 PUSH2 0x5DD7 JUMP JUMPDEST DUP1 PUSH1 0x1F ADD PUSH1 0x20 DUP1 SWAP2 DIV MUL PUSH1 0x20 ADD PUSH1 0x40 MLOAD SWAP1 DUP2 ADD PUSH1 0x40 MSTORE DUP1 SWAP3 SWAP2 SWAP1 DUP2 DUP2 MSTORE PUSH1 0x20 ADD DUP3 DUP1 SLOAD PUSH2 0x24AA SWAP1 PUSH2 0x5DD7 JUMP JUMPDEST DUP1 ISZERO PUSH2 0x24F7 JUMPI DUP1 PUSH1 0x1F LT PUSH2 0x24CC JUMPI PUSH2 0x100 DUP1 DUP4 SLOAD DIV MUL DUP4 MSTORE SWAP2 PUSH1 0x20 ADD SWAP2 PUSH2 0x24F7 JUMP JUMPDEST DUP3 ADD SWAP2 SWAP1 PUSH1 0x0 MSTORE PUSH1 0x20 PUSH1 0x0 KECCAK256 SWAP1 JUMPDEST DUP2 SLOAD DUP2 MSTORE SWAP1 PUSH1 0x1 ADD SWAP1 PUSH1 0x20 ADD DUP1 DUP4 GT PUSH2 0x24DA JUMPI DUP3 SWAP1 SUB PUSH1 0x1F AND DUP3 ADD SWAP2 JUMPDEST POP POP POP POP POP DUP4 PUSH1 0x20 ADD MLOAD PUSH2 0x2D8D JUMP JUMPDEST ISZERO PUSH2 0x2626 JUMPI DUP2 PUSH1 0x0 ADD MLOAD PUSH8 0xFFFFFFFFFFFFFFFF AND PUSH1 0x9 PUSH1 0x0 DUP4 PUSH20 0xFFFFFFFFFFFFFFFFFFFFFFFFFFFFFFFFFFFFFFFF AND PUSH20 0xFFFFFFFFFFFFFFFFFFFFFFFFFFFFFFFFFFFFFFFF AND DUP2 MSTORE PUSH1 0x20 ADD SWAP1 DUP2 MSTORE PUSH1 0x20 ADD PUSH1 0x0 KECCAK256 PUSH1 0x0 DUP3 DUP3 SLOAD PUSH2 0x2568 SWAP2 SWAP1 PUSH2 0x5CA7 JUMP JUMPDEST SWAP3 POP POP DUP2 SWAP1 SSTORE POP DUP2 PUSH1 0x0 ADD MLOAD PUSH8 0xFFFFFFFFFFFFFFFF AND PUSH1 0x3 PUSH1 0x0 DUP3 DUP3 SLOAD PUSH2 0x258F SWAP2 SWAP1 PUSH2 0x5B46 JUMP JUMPDEST SWAP3 POP POP DUP2 SWAP1 SSTORE POP DUP2 PUSH1 0x40 ADD MLOAD PUSH8 0xFFFFFFFFFFFFFFFF AND PUSH1 0x4 PUSH1 0x0 DUP3 DUP3 SLOAD PUSH2 0x25B6 SWAP2 SWAP1 PUSH2 0x5CA7 JUMP JUMPDEST SWAP3 POP POP DUP2 SWAP1 SSTORE POP DUP2 PUSH1 0x40 ADD MLOAD PUSH8 0xFFFFFFFFFFFFFFFF AND PUSH1 0xA PUSH1 0x0 DUP4 PUSH20 0xFFFFFFFFFFFFFFFFFFFFFFFFFFFFFFFFFFFFFFFF AND PUSH20 0xFFFFFFFFFFFFFFFFFFFFFFFFFFFFFFFFFFFFFFFF AND DUP2 MSTORE PUSH1 0x20 ADD SWAP1 DUP2 MSTORE PUSH1 0x20 ADD PUSH1 0x0 KECCAK256 PUSH1 0x0 DUP3 DUP3 SLOAD PUSH2 0x261A SWAP2 SWAP1 PUSH2 0x5B46 JUMP JUMPDEST SWAP3 POP POP DUP2 SWAP1 SSTORE POP PUSH2 0x273D JUMP JUMPDEST DUP2 PUSH1 0x0 ADD MLOAD PUSH8 0xFFFFFFFFFFFFFFFF AND PUSH1 0xA PUSH1 0x0 DUP4 PUSH20 0xFFFFFFFFFFFFFFFFFFFFFFFFFFFFFFFFFFFFFFFF AND PUSH20 0xFFFFFFFFFFFFFFFFFFFFFFFFFFFFFFFFFFFFFFFF AND DUP2 MSTORE PUSH1 0x20 ADD SWAP1 DUP2 MSTORE PUSH1 0x20 ADD PUSH1 0x0 KECCAK256 PUSH1 0x0 DUP3 DUP3 SLOAD PUSH2 0x2683 SWAP2 SWAP1 PUSH2 0x5CA7 JUMP JUMPDEST SWAP3 POP POP DUP2 SWAP1 SSTORE POP DUP2 PUSH1 0x0 ADD MLOAD PUSH8 0xFFFFFFFFFFFFFFFF AND PUSH1 0x4 PUSH1 0x0 DUP3 DUP3 SLOAD PUSH2 0x26AA SWAP2 SWAP1 PUSH2 0x5B46 JUMP JUMPDEST SWAP3 POP POP DUP2 SWAP1 SSTORE POP DUP2 PUSH1 0x40 ADD MLOAD PUSH8 0xFFFFFFFFFFFFFFFF AND PUSH1 0x3 PUSH1 0x0 DUP3 DUP3 SLOAD PUSH2 0x26D1 SWAP2 SWAP1 PUSH2 0x5CA7 JUMP JUMPDEST SWAP3 POP POP DUP2 SWAP1 SSTORE POP DUP2 PUSH1 0x40 ADD MLOAD PUSH8 0xFFFFFFFFFFFFFFFF AND PUSH1 0x9 PUSH1 0x0 DUP4 PUSH20 0xFFFFFFFFFFFFFFFFFFFFFFFFFFFFFFFFFFFFFFFF AND PUSH20 0xFFFFFFFFFFFFFFFFFFFFFFFFFFFFFFFFFFFFFFFF AND DUP2 MSTORE PUSH1 0x20 ADD SWAP1 DUP2 MSTORE PUSH1 0x20 ADD PUSH1 0x0 KECCAK256 PUSH1 0x0 DUP3 DUP3 SLOAD PUSH2 0x2735 SWAP2 SWAP1 PUSH2 0x5B46 JUMP JUMPDEST SWAP3 POP POP DUP2 SWAP1 SSTORE POP JUMPDEST POP POP JUMP JUMPDEST PUSH1 0x0 DUP1 PUSH1 0x0 DUP1 PUSH1 0x0 DUP1 PUSH1 0x0 PUSH2 0x2756 DUP10 DUP10 PUSH2 0x36AB JUMP JUMPDEST SWAP3 POP SWAP3 POP SWAP3 POP DUP3 PUSH2 0x2778 JUMPI PUSH1 0x0 DUP3 PUSH1 0x0 PUSH1 0x6 SWAP7 POP SWAP7 POP SWAP7 POP SWAP7 POP POP POP POP PUSH2 0x2884 JUMP JUMPDEST PUSH1 0x0 PUSH1 0x3 DUP3 PUSH8 0xFFFFFFFFFFFFFFFF AND SWAP1 SHR SWAP1 POP PUSH1 0x0 PUSH1 0x7 DUP4 AND SWAP1 POP PUSH1 0x6 DUP1 DUP2 GT ISZERO PUSH2 0x27A6 JUMPI PUSH2 0x27A5 PUSH2 0x5F12 JUMP JUMPDEST JUMPDEST PUSH8 0xFFFFFFFFFFFFFFFF AND DUP2 PUSH8 0xFFFFFFFFFFFFFFFF AND LT PUSH2 0x27D9 JUMPI PUSH1 0x0 DUP5 PUSH1 0x0 PUSH1 0x6 SWAP9 POP SWAP9 POP SWAP9 POP SWAP9 POP POP POP POP POP POP PUSH2 0x2884 JUMP JUMPDEST PUSH1 0x0 DUP2 PUSH8 0xFFFFFFFFFFFFFFFF AND PUSH1 0x6 DUP2 GT ISZERO PUSH2 0x27F8 JUMPI PUSH2 0x27F7 PUSH2 0x5F12 JUMP JUMPDEST JUMPDEST SWAP1 POP PUSH1 0x3 PUSH1 0x6 DUP2 GT ISZERO PUSH2 0x280E JUMPI PUSH2 0x280D PUSH2 0x5F12 JUMP JUMPDEST JUMPDEST DUP2 PUSH1 0x6 DUP2 GT ISZERO PUSH2 0x2821 JUMPI PUSH2 0x2820 PUSH2 0x5F12 JUMP JUMPDEST JUMPDEST EQ DUP1 PUSH2 0x2851 JUMPI POP PUSH1 0x4 PUSH1 0x6 DUP2 GT ISZERO PUSH2 0x283C JUMPI PUSH2 0x283B PUSH2 0x5F12 JUMP JUMPDEST JUMPDEST DUP2 PUSH1 0x6 DUP2 GT ISZERO PUSH2 0x284F JUMPI PUSH2 0x284E PUSH2 0x5F12 JUMP JUMPDEST JUMPDEST EQ JUMPDEST ISZERO PUSH2 0x2870 JUMPI PUSH1 0x0 DUP6 PUSH1 0x0 PUSH1 0x6 SWAP10 POP SWAP10 POP SWAP10 POP SWAP10 POP POP POP POP POP POP POP PUSH2 0x2884 JUMP JUMPDEST PUSH1 0x1 DUP6 DUP5 DUP4 SWAP10 POP SWAP10 POP SWAP10 POP SWAP10 POP POP POP POP POP POP POP JUMPDEST SWAP3 SWAP6 SWAP2 SWAP5 POP SWAP3 POP JUMP JUMPDEST PUSH1 0x0 PUSH1 0x1 DUP4 PUSH8 0xFFFFFFFFFFFFFFFF AND EQ ISZERO PUSH2 0x28D1 JUMPI PUSH1 0x2 PUSH1 0x6 DUP2 GT ISZERO PUSH2 0x28B6 JUMPI PUSH2 0x28B5 PUSH2 0x5F12 JUMP JUMPDEST JUMPDEST DUP3 PUSH1 0x6 DUP2 GT ISZERO PUSH2 0x28C9 JUMPI PUSH2 0x28C8 PUSH2 0x5F12 JUMP JUMPDEST JUMPDEST EQ SWAP1 POP PUSH2 0x29DE JUMP JUMPDEST PUSH1 0x2 DUP4 PUSH8 0xFFFFFFFFFFFFFFFF AND EQ ISZERO PUSH2 0x2913 JUMPI PUSH1 0x2 PUSH1 0x6 DUP2 GT ISZERO PUSH2 0x28F8 JUMPI PUSH2 0x28F7 PUSH2 0x5F12 JUMP JUMPDEST JUMPDEST DUP3 PUSH1 0x6 DUP2 GT ISZERO PUSH2 0x290B JUMPI PUSH2 0x290A PUSH2 0x5F12 JUMP JUMPDEST JUMPDEST EQ SWAP1 POP PUSH2 0x29DE JUMP JUMPDEST PUSH1 0x3 DUP4 PUSH8 0xFFFFFFFFFFFFFFFF AND EQ ISZERO PUSH2 0x2955 JUMPI PUSH1 0x0 PUSH1 0x6 DUP2 GT ISZERO PUSH2 0x293A JUMPI PUSH2 0x2939 PUSH2 0x5F12 JUMP JUMPDEST JUMPDEST DUP3 PUSH1 0x6 DUP2 GT ISZERO PUSH2 0x294D JUMPI PUSH2 0x294C PUSH2 0x5F12 JUMP JUMPDEST JUMPDEST EQ SWAP1 POP PUSH2 0x29DE JUMP JUMPDEST PUSH1 0x4 DUP4 PUSH8 0xFFFFFFFFFFFFFFFF AND EQ ISZERO PUSH2 0x2997 JUMPI PUSH1 0x0 PUSH1 0x6 DUP2 GT ISZERO PUSH2 0x297C JUMPI PUSH2 0x297B PUSH2 0x5F12 JUMP JUMPDEST JUMPDEST DUP3 PUSH1 0x6 DUP2 GT ISZERO PUSH2 0x298F JUMPI PUSH2 0x298E PUSH2 0x5F12 JUMP JUMPDEST JUMPDEST EQ SWAP1 POP PUSH2 0x29DE JUMP JUMPDEST PUSH1 0x5 DUP4 PUSH8 0xFFFFFFFFFFFFFFFF AND EQ ISZERO PUSH2 0x29D9 JUMPI PUSH1 0x2 PUSH1 0x6 DUP2 GT ISZERO PUSH2 0x29BE JUMPI PUSH2 0x29BD PUSH2 0x5F12 JUMP JUMPDEST JUMPDEST DUP3 PUSH1 0x6 DUP2 GT ISZERO PUSH2 0x29D1 JUMPI PUSH2 0x29D0 PUSH2 0x5F12 JUMP JUMPDEST JUMPDEST EQ SWAP1 POP PUSH2 0x29DE JUMP JUMPDEST PUSH1 0x0 SWAP1 POP JUMPDEST SWAP3 SWAP2 POP POP JUMP JUMPDEST PUSH1 0x0 DUP1 PUSH1 0x0 DUP8 SWAP1 POP PUSH1 0x1 DUP6 PUSH8 0xFFFFFFFFFFFFFFFF AND EQ ISZERO PUSH2 0x2A35 JUMPI PUSH1 0x0 PUSH2 0x2A0C DUP3 DUP10 DUP8 PUSH2 0x38A3 JUMP JUMPDEST DUP1 SWAP4 POP DUP2 SWAP3 POP POP POP DUP1 PUSH2 0x2A27 JUMPI PUSH1 0x0 DUP3 SWAP4 POP SWAP4 POP POP POP PUSH2 0x2B62 JUMP JUMPDEST PUSH1 0x1 DUP3 SWAP4 POP SWAP4 POP POP POP PUSH2 0x2B62 JUMP JUMPDEST PUSH1 0x2 DUP6 PUSH8 0xFFFFFFFFFFFFFFFF AND EQ ISZERO PUSH2 0x2A7E JUMPI PUSH1 0x0 PUSH2 0x2A55 DUP3 DUP10 DUP8 PUSH2 0x3A28 JUMP JUMPDEST DUP1 SWAP4 POP DUP2 SWAP3 POP POP POP DUP1 PUSH2 0x2A70 JUMPI PUSH1 0x0 DUP3 SWAP4 POP SWAP4 POP POP POP PUSH2 0x2B62 JUMP JUMPDEST PUSH1 0x1 DUP3 SWAP4 POP SWAP4 POP POP POP PUSH2 0x2B62 JUMP JUMPDEST PUSH1 0x3 DUP6 PUSH8 0xFFFFFFFFFFFFFFFF AND EQ ISZERO PUSH2 0x2AC7 JUMPI PUSH1 0x0 PUSH2 0x2A9E DUP3 DUP10 DUP8 PUSH2 0x3BAD JUMP JUMPDEST DUP1 SWAP4 POP DUP2 SWAP3 POP POP POP DUP1 PUSH2 0x2AB9 JUMPI PUSH1 0x0 DUP3 SWAP4 POP SWAP4 POP POP POP PUSH2 0x2B62 JUMP JUMPDEST PUSH1 0x1 DUP3 SWAP4 POP SWAP4 POP POP POP PUSH2 0x2B62 JUMP JUMPDEST PUSH1 0x4 DUP6 PUSH8 0xFFFFFFFFFFFFFFFF AND EQ ISZERO PUSH2 0x2B10 JUMPI PUSH1 0x0 PUSH2 0x2AE7 DUP3 DUP10 DUP8 PUSH2 0x3C2F JUMP JUMPDEST DUP1 SWAP4 POP DUP2 SWAP3 POP POP POP DUP1 PUSH2 0x2B02 JUMPI PUSH1 0x0 DUP3 SWAP4 POP SWAP4 POP POP POP PUSH2 0x2B62 JUMP JUMPDEST PUSH1 0x1 DUP3 SWAP4 POP SWAP4 POP POP POP PUSH2 0x2B62 JUMP JUMPDEST PUSH1 0x5 DUP6 PUSH8 0xFFFFFFFFFFFFFFFF AND EQ ISZERO PUSH2 0x2B59 JUMPI PUSH1 0x0 PUSH2 0x2B30 DUP3 DUP10 DUP8 PUSH2 0x3CB1 JUMP JUMPDEST DUP1 SWAP4 POP DUP2 SWAP3 POP POP POP DUP1 PUSH2 0x2B4B JUMPI PUSH1 0x0 DUP3 SWAP4 POP SWAP4 POP POP POP PUSH2 0x2B62 JUMP JUMPDEST PUSH1 0x1 DUP3 SWAP4 POP SWAP4 POP POP POP PUSH2 0x2B62 JUMP JUMPDEST PUSH1 0x0 DUP2 SWAP3 POP SWAP3 POP POP JUMPDEST SWAP6 POP SWAP6 SWAP4 POP POP POP POP JUMP JUMPDEST PUSH1 0x0 PUSH1 0x14 DUP3 MLOAD EQ PUSH2 0x2BB2 JUMPI PUSH1 0x40 MLOAD PUSH32 0x8C379A000000000000000000000000000000000000000000000000000000000 DUP2 MSTORE PUSH1 0x4 ADD PUSH2 0x2BA9 SWAP1 PUSH2 0x5954 JUMP JUMPDEST PUSH1 0x40 MLOAD DUP1 SWAP2 SUB SWAP1 REVERT JUMPDEST PUSH1 0x0 PUSH1 0x14 DUP4 ADD MLOAD SWAP1 POP DUP1 SWAP2 POP POP SWAP2 SWAP1 POP JUMP JUMPDEST PUSH1 0x0 PUSH1 0x1 DUP4 PUSH8 0xFFFFFFFFFFFFFFFF AND EQ ISZERO PUSH2 0x2C08 JUMPI PUSH1 0x2 PUSH1 0x6 DUP2 GT ISZERO PUSH2 0x2BED JUMPI PUSH2 0x2BEC PUSH2 0x5F12 JUMP JUMPDEST JUMPDEST DUP3 PUSH1 0x6 DUP2 GT ISZERO PUSH2 0x2C00 JUMPI PUSH2 0x2BFF PUSH2 0x5F12 JUMP JUMPDEST JUMPDEST EQ SWAP1 POP PUSH2 0x2C91 JUMP JUMPDEST PUSH1 0x2 DUP4 PUSH8 0xFFFFFFFFFFFFFFFF AND EQ ISZERO PUSH2 0x2C4A JUMPI PUSH1 0x0 PUSH1 0x6 DUP2 GT ISZERO PUSH2 0x2C2F JUMPI PUSH2 0x2C2E PUSH2 0x5F12 JUMP JUMPDEST JUMPDEST DUP3 PUSH1 0x6 DUP2 GT ISZERO PUSH2 0x2C42 JUMPI PUSH2 0x2C41 PUSH2 0x5F12 JUMP JUMPDEST JUMPDEST EQ SWAP1 POP PUSH2 0x2C91 JUMP JUMPDEST PUSH1 0x3 DUP4 PUSH8 0xFFFFFFFFFFFFFFFF AND EQ ISZERO PUSH2 0x2C8C JUMPI PUSH1 0x2 PUSH1 0x6 DUP2 GT ISZERO PUSH2 0x2C71 JUMPI PUSH2 0x2C70 PUSH2 0x5F12 JUMP JUMPDEST JUMPDEST DUP3 PUSH1 0x6 DUP2 GT ISZERO PUSH2 0x2C84 JUMPI PUSH2 0x2C83 PUSH2 0x5F12 JUMP JUMPDEST JUMPDEST EQ SWAP1 POP PUSH2 0x2C91 JUMP JUMPDEST PUSH1 0x0 SWAP1 POP JUMPDEST SWAP3 SWAP2 POP POP JUMP JUMPDEST PUSH1 0x0 DUP1 PUSH1 0x0 DUP8 SWAP1 POP PUSH1 0x1 DUP6 PUSH8 0xFFFFFFFFFFFFFFFF AND EQ ISZERO PUSH2 0x2CE8 JUMPI PUSH1 0x0 PUSH2 0x2CBF DUP3 DUP10 DUP8 PUSH2 0x3E36 JUMP JUMPDEST DUP1 SWAP4 POP DUP2 SWAP3 POP POP POP DUP1 PUSH2 0x2CDA JUMPI PUSH1 0x0 DUP3 SWAP4 POP SWAP4 POP POP POP PUSH2 0x2D83 JUMP JUMPDEST PUSH1 0x1 DUP3 SWAP4 POP SWAP4 POP POP POP PUSH2 0x2D83 JUMP JUMPDEST PUSH1 0x2 DUP6 PUSH8 0xFFFFFFFFFFFFFFFF AND EQ ISZERO PUSH2 0x2D31 JUMPI PUSH1 0x0 PUSH2 0x2D08 DUP3 DUP10 DUP8 PUSH2 0x3FBB JUMP JUMPDEST DUP1 SWAP4 POP DUP2 SWAP3 POP POP POP DUP1 PUSH2 0x2D23 JUMPI PUSH1 0x0 DUP3 SWAP4 POP SWAP4 POP POP POP PUSH2 0x2D83 JUMP JUMPDEST PUSH1 0x1 DUP3 SWAP4 POP SWAP4 POP POP POP PUSH2 0x2D83 JUMP JUMPDEST PUSH1 0x3 DUP6 PUSH8 0xFFFFFFFFFFFFFFFF AND EQ ISZERO PUSH2 0x2D7A JUMPI PUSH1 0x0 PUSH2 0x2D51 DUP3 DUP10 DUP8 PUSH2 0x403D JUMP JUMPDEST DUP1 SWAP4 POP DUP2 SWAP3 POP POP POP DUP1 PUSH2 0x2D6C JUMPI PUSH1 0x0 DUP3 SWAP4 POP SWAP4 POP POP POP PUSH2 0x2D83 JUMP JUMPDEST PUSH1 0x1 DUP3 SWAP4 POP SWAP4 POP POP POP PUSH2 0x2D83 JUMP JUMPDEST PUSH1 0x0 DUP2 SWAP3 POP SWAP3 POP POP JUMPDEST SWAP6 POP SWAP6 SWAP4 POP POP POP POP JUMP JUMPDEST PUSH1 0x0 DUP2 PUSH1 0x40 MLOAD PUSH1 0x20 ADD PUSH2 0x2DA0 SWAP2 SWAP1 PUSH2 0x5865 JUMP JUMPDEST PUSH1 0x40 MLOAD PUSH1 0x20 DUP2 DUP4 SUB SUB DUP2 MSTORE SWAP1 PUSH1 0x40 MSTORE DUP1 MLOAD SWAP1 PUSH1 0x20 ADD KECCAK256 DUP4 PUSH1 0x40 MLOAD PUSH1 0x20 ADD PUSH2 0x2DC7 SWAP2 SWAP1 PUSH2 0x5865 JUMP JUMPDEST PUSH1 0x40 MLOAD PUSH1 0x20 DUP2 DUP4 SUB SUB DUP2 MSTORE SWAP1 PUSH1 0x40 MSTORE DUP1 MLOAD SWAP1 PUSH1 0x20 ADD KECCAK256 EQ SWAP1 POP SWAP3 SWAP2 POP POP JUMP JUMPDEST PUSH1 0x0 PUSH1 0x1 DUP4 PUSH8 0xFFFFFFFFFFFFFFFF AND EQ ISZERO PUSH2 0x2E2A JUMPI PUSH1 0x2 PUSH1 0x6 DUP2 GT ISZERO PUSH2 0x2E0F JUMPI PUSH2 0x2E0E PUSH2 0x5F12 JUMP JUMPDEST JUMPDEST DUP3 PUSH1 0x6 DUP2 GT ISZERO PUSH2 0x2E22 JUMPI PUSH2 0x2E21 PUSH2 0x5F12 JUMP JUMPDEST JUMPDEST EQ SWAP1 POP PUSH2 0x2EB3 JUMP JUMPDEST PUSH1 0x2 DUP4 PUSH8 0xFFFFFFFFFFFFFFFF AND EQ ISZERO PUSH2 0x2E6C JUMPI PUSH1 0x0 PUSH1 0x6 DUP2 GT ISZERO PUSH2 0x2E51 JUMPI PUSH2 0x2E50 PUSH2 0x5F12 JUMP JUMPDEST JUMPDEST DUP3 PUSH1 0x6 DUP2 GT ISZERO PUSH2 0x2E64 JUMPI PUSH2 0x2E63 PUSH2 0x5F12 JUMP JUMPDEST JUMPDEST EQ SWAP1 POP PUSH2 0x2EB3 JUMP JUMPDEST PUSH1 0x3 DUP4 PUSH8 0xFFFFFFFFFFFFFFFF AND EQ ISZERO PUSH2 0x2EAE JUMPI PUSH1 0x2 PUSH1 0x6 DUP2 GT ISZERO PUSH2 0x2E93 JUMPI PUSH2 0x2E92 PUSH2 0x5F12 JUMP JUMPDEST JUMPDEST DUP3 PUSH1 0x6 DUP2 GT ISZERO PUSH2 0x2EA6 JUMPI PUSH2 0x2EA5 PUSH2 0x5F12 JUMP JUMPDEST JUMPDEST EQ SWAP1 POP PUSH2 0x2EB3 JUMP JUMPDEST PUSH1 0x0 SWAP1 POP JUMPDEST SWAP3 SWAP2 POP POP JUMP JUMPDEST PUSH1 0x0 DUP1 PUSH1 0x0 DUP8 SWAP1 POP PUSH1 0x1 DUP6 PUSH8 0xFFFFFFFFFFFFFFFF AND EQ ISZERO PUSH2 0x2F0A JUMPI PUSH1 0x0 PUSH2 0x2EE1 DUP3 DUP10 DUP8 PUSH2 0x41C2 JUMP JUMPDEST DUP1 SWAP4 POP DUP2 SWAP3 POP POP POP DUP1 PUSH2 0x2EFC JUMPI PUSH1 0x0 DUP3 SWAP4 POP SWAP4 POP POP POP PUSH2 0x2FA5 JUMP JUMPDEST PUSH1 0x1 DUP3 SWAP4 POP SWAP4 POP POP POP PUSH2 0x2FA5 JUMP JUMPDEST PUSH1 0x2 DUP6 PUSH8 0xFFFFFFFFFFFFFFFF AND EQ ISZERO PUSH2 0x2F53 JUMPI PUSH1 0x0 PUSH2 0x2F2A DUP3 DUP10 DUP8 PUSH2 0x4347 JUMP JUMPDEST DUP1 SWAP4 POP DUP2 SWAP3 POP POP POP DUP1 PUSH2 0x2F45 JUMPI PUSH1 0x0 DUP3 SWAP4 POP SWAP4 POP POP POP PUSH2 0x2FA5 JUMP JUMPDEST PUSH1 0x1 DUP3 SWAP4 POP SWAP4 POP POP POP PUSH2 0x2FA5 JUMP JUMPDEST PUSH1 0x3 DUP6 PUSH8 0xFFFFFFFFFFFFFFFF AND EQ ISZERO PUSH2 0x2F9C JUMPI PUSH1 0x0 PUSH2 0x2F73 DUP3 DUP10 DUP8 PUSH2 0x43C9 JUMP JUMPDEST DUP1 SWAP4 POP DUP2 SWAP3 POP POP POP DUP1 PUSH2 0x2F8E JUMPI PUSH1 0x0 DUP3 SWAP4 POP SWAP4 POP POP POP PUSH2 0x2FA5 JUMP JUMPDEST PUSH1 0x1 DUP3 SWAP4 POP SWAP4 POP POP POP PUSH2 0x2FA5 JUMP JUMPDEST PUSH1 0x0 DUP2 SWAP3 POP SWAP3 POP POP JUMPDEST SWAP6 POP SWAP6 SWAP4 POP POP POP POP JUMP JUMPDEST PUSH1 0x0 PUSH1 0x1 DUP4 PUSH8 0xFFFFFFFFFFFFFFFF AND EQ ISZERO PUSH2 0x2FF3 JUMPI PUSH1 0x0 PUSH1 0x6 DUP2 GT ISZERO PUSH2 0x2FD8 JUMPI PUSH2 0x2FD7 PUSH2 0x5F12 JUMP JUMPDEST JUMPDEST DUP3 PUSH1 0x6 DUP2 GT ISZERO PUSH2 0x2FEB JUMPI PUSH2 0x2FEA PUSH2 0x5F12 JUMP JUMPDEST JUMPDEST EQ SWAP1 POP PUSH2 0x307C JUMP JUMPDEST PUSH1 0x2 DUP4 PUSH8 0xFFFFFFFFFFFFFFFF AND EQ ISZERO PUSH2 0x3035 JUMPI PUSH1 0x0 PUSH1 0x6 DUP2 GT ISZERO PUSH2 0x301A JUMPI PUSH2 0x3019 PUSH2 0x5F12 JUMP JUMPDEST JUMPDEST DUP3 PUSH1 0x6 DUP2 GT ISZERO PUSH2 0x302D JUMPI PUSH2 0x302C PUSH2 0x5F12 JUMP JUMPDEST JUMPDEST EQ SWAP1 POP PUSH2 0x307C JUMP JUMPDEST PUSH1 0x3 DUP4 PUSH8 0xFFFFFFFFFFFFFFFF AND EQ ISZERO PUSH2 0x3077 JUMPI PUSH1 0x2 PUSH1 0x6 DUP2 GT ISZERO PUSH2 0x305C JUMPI PUSH2 0x305B PUSH2 0x5F12 JUMP JUMPDEST JUMPDEST DUP3 PUSH1 0x6 DUP2 GT ISZERO PUSH2 0x306F JUMPI PUSH2 0x306E PUSH2 0x5F12 JUMP JUMPDEST JUMPDEST EQ SWAP1 POP PUSH2 0x307C JUMP JUMPDEST PUSH1 0x0 SWAP1 POP JUMPDEST SWAP3 SWAP2 POP POP JUMP JUMPDEST PUSH1 0x0 DUP1 PUSH1 0x0 DUP8 SWAP1 POP PUSH1 0x1 DUP6 PUSH8 0xFFFFFFFFFFFFFFFF AND EQ ISZERO PUSH2 0x30D3 JUMPI PUSH1 0x0 PUSH2 0x30AA DUP3 DUP10 DUP8 PUSH2 0x454E JUMP JUMPDEST DUP1 SWAP4 POP DUP2 SWAP3 POP POP POP DUP1 PUSH2 0x30C5 JUMPI PUSH1 0x0 DUP3 SWAP4 POP SWAP4 POP POP POP PUSH2 0x316E JUMP JUMPDEST PUSH1 0x1 DUP3 SWAP4 POP SWAP4 POP POP POP PUSH2 0x316E JUMP JUMPDEST PUSH1 0x2 DUP6 PUSH8 0xFFFFFFFFFFFFFFFF AND EQ ISZERO PUSH2 0x311C JUMPI PUSH1 0x0 PUSH2 0x30F3 DUP3 DUP10 DUP8 PUSH2 0x45D0 JUMP JUMPDEST DUP1 SWAP4 POP DUP2 SWAP3 POP POP POP DUP1 PUSH2 0x310E JUMPI PUSH1 0x0 DUP3 SWAP4 POP SWAP4 POP POP POP PUSH2 0x316E JUMP JUMPDEST PUSH1 0x1 DUP3 SWAP4 POP SWAP4 POP POP POP PUSH2 0x316E JUMP JUMPDEST PUSH1 0x3 DUP6 PUSH8 0xFFFFFFFFFFFFFFFF AND EQ ISZERO PUSH2 0x3165 JUMPI PUSH1 0x0 PUSH2 0x313C DUP3 DUP10 DUP8 PUSH2 0x4652 JUMP JUMPDEST DUP1 SWAP4 POP DUP2 SWAP3 POP POP POP DUP1 PUSH2 0x3157 JUMPI PUSH1 0x0 DUP3 SWAP4 POP SWAP4 POP POP POP PUSH2 0x316E JUMP JUMPDEST PUSH1 0x1 DUP3 SWAP4 POP SWAP4 POP POP POP PUSH2 0x316E JUMP JUMPDEST PUSH1 0x0 DUP2 SWAP3 POP SWAP3 POP POP JUMPDEST SWAP6 POP SWAP6 SWAP4 POP POP POP POP JUMP JUMPDEST PUSH1 0x0 PUSH1 0x1 DUP4 PUSH8 0xFFFFFFFFFFFFFFFF AND EQ ISZERO PUSH2 0x31BC JUMPI PUSH1 0x0 PUSH1 0x6 DUP2 GT ISZERO PUSH2 0x31A1 JUMPI PUSH2 0x31A0 PUSH2 0x5F12 JUMP JUMPDEST JUMPDEST DUP3 PUSH1 0x6 DUP2 GT ISZERO PUSH2 0x31B4 JUMPI PUSH2 0x31B3 PUSH2 0x5F12 JUMP JUMPDEST JUMPDEST EQ SWAP1 POP PUSH2 0x3287 JUMP JUMPDEST PUSH1 0x2 DUP4 PUSH8 0xFFFFFFFFFFFFFFFF AND EQ ISZERO PUSH2 0x31FE JUMPI PUSH1 0x0 PUSH1 0x6 DUP2 GT ISZERO PUSH2 0x31E3 JUMPI PUSH2 0x31E2 PUSH2 0x5F12 JUMP JUMPDEST JUMPDEST DUP3 PUSH1 0x6 DUP2 GT ISZERO PUSH2 0x31F6 JUMPI PUSH2 0x31F5 PUSH2 0x5F12 JUMP JUMPDEST JUMPDEST EQ SWAP1 POP PUSH2 0x3287 JUMP JUMPDEST PUSH1 0x3 DUP4 PUSH8 0xFFFFFFFFFFFFFFFF AND EQ ISZERO PUSH2 0x3240 JUMPI PUSH1 0x0 PUSH1 0x6 DUP2 GT ISZERO PUSH2 0x3225 JUMPI PUSH2 0x3224 PUSH2 0x5F12 JUMP JUMPDEST JUMPDEST DUP3 PUSH1 0x6 DUP2 GT ISZERO PUSH2 0x3238 JUMPI PUSH2 0x3237 PUSH2 0x5F12 JUMP JUMPDEST JUMPDEST EQ SWAP1 POP PUSH2 0x3287 JUMP JUMPDEST PUSH1 0x4 DUP4 PUSH8 0xFFFFFFFFFFFFFFFF AND EQ ISZERO PUSH2 0x3282 JUMPI PUSH1 0x2 PUSH1 0x6 DUP2 GT ISZERO PUSH2 0x3267 JUMPI PUSH2 0x3266 PUSH2 0x5F12 JUMP JUMPDEST JUMPDEST DUP3 PUSH1 0x6 DUP2 GT ISZERO PUSH2 0x327A JUMPI PUSH2 0x3279 PUSH2 0x5F12 JUMP JUMPDEST JUMPDEST EQ SWAP1 POP PUSH2 0x3287 JUMP JUMPDEST PUSH1 0x0 SWAP1 POP JUMPDEST SWAP3 SWAP2 POP POP JUMP JUMPDEST PUSH1 0x0 DUP1 PUSH1 0x0 DUP8 SWAP1 POP PUSH1 0x1 DUP6 PUSH8 0xFFFFFFFFFFFFFFFF AND EQ ISZERO PUSH2 0x32DE JUMPI PUSH1 0x0 PUSH2 0x32B5 DUP3 DUP10 DUP8 PUSH2 0x47D7 JUMP JUMPDEST DUP1 SWAP4 POP DUP2 SWAP3 POP POP POP DUP1 PUSH2 0x32D0 JUMPI PUSH1 0x0 DUP3 SWAP4 POP SWAP4 POP POP POP PUSH2 0x33C2 JUMP JUMPDEST PUSH1 0x1 DUP3 SWAP4 POP SWAP4 POP POP POP PUSH2 0x33C2 JUMP JUMPDEST PUSH1 0x2 DUP6 PUSH8 0xFFFFFFFFFFFFFFFF AND EQ ISZERO PUSH2 0x3327 JUMPI PUSH1 0x0 PUSH2 0x32FE DUP3 DUP10 DUP8 PUSH2 0x4859 JUMP JUMPDEST DUP1 SWAP4 POP DUP2 SWAP3 POP POP POP DUP1 PUSH2 0x3319 JUMPI PUSH1 0x0 DUP3 SWAP4 POP SWAP4 POP POP POP PUSH2 0x33C2 JUMP JUMPDEST PUSH1 0x1 DUP3 SWAP4 POP SWAP4 POP POP POP PUSH2 0x33C2 JUMP JUMPDEST PUSH1 0x3 DUP6 PUSH8 0xFFFFFFFFFFFFFFFF AND EQ ISZERO PUSH2 0x3370 JUMPI PUSH1 0x0 PUSH2 0x3347 DUP3 DUP10 DUP8 PUSH2 0x48DB JUMP JUMPDEST DUP1 SWAP4 POP DUP2 SWAP3 POP POP POP DUP1 PUSH2 0x3362 JUMPI PUSH1 0x0 DUP3 SWAP4 POP SWAP4 POP POP POP PUSH2 0x33C2 JUMP JUMPDEST PUSH1 0x1 DUP3 SWAP4 POP SWAP4 POP POP POP PUSH2 0x33C2 JUMP JUMPDEST PUSH1 0x4 DUP6 PUSH8 0xFFFFFFFFFFFFFFFF AND EQ ISZERO PUSH2 0x33B9 JUMPI PUSH1 0x0 PUSH2 0x3390 DUP3 DUP10 DUP8 PUSH2 0x495D JUMP JUMPDEST DUP1 SWAP4 POP DUP2 SWAP3 POP POP POP DUP1 PUSH2 0x33AB JUMPI PUSH1 0x0 DUP3 SWAP4 POP SWAP4 POP POP POP PUSH2 0x33C2 JUMP JUMPDEST PUSH1 0x1 DUP3 SWAP4 POP SWAP4 POP POP POP PUSH2 0x33C2 JUMP JUMPDEST PUSH1 0x0 DUP2 SWAP3 POP SWAP3 POP POP JUMPDEST SWAP6 POP SWAP6 SWAP4 POP POP POP POP JUMP JUMPDEST PUSH1 0x0 PUSH1 0x1 DUP4 PUSH8 0xFFFFFFFFFFFFFFFF AND EQ ISZERO PUSH2 0x3410 JUMPI PUSH1 0x0 PUSH1 0x6 DUP2 GT ISZERO PUSH2 0x33F5 JUMPI PUSH2 0x33F4 PUSH2 0x5F12 JUMP JUMPDEST JUMPDEST DUP3 PUSH1 0x6 DUP2 GT ISZERO PUSH2 0x3408 JUMPI PUSH2 0x3407 PUSH2 0x5F12 JUMP JUMPDEST JUMPDEST EQ SWAP1 POP PUSH2 0x351D JUMP JUMPDEST PUSH1 0x2 DUP4 PUSH8 0xFFFFFFFFFFFFFFFF AND EQ ISZERO PUSH2 0x3452 JUMPI PUSH1 0x2 PUSH1 0x6 DUP2 GT ISZERO PUSH2 0x3437 JUMPI PUSH2 0x3436 PUSH2 0x5F12 JUMP JUMPDEST JUMPDEST DUP3 PUSH1 0x6 DUP2 GT ISZERO PUSH2 0x344A JUMPI PUSH2 0x3449 PUSH2 0x5F12 JUMP JUMPDEST JUMPDEST EQ SWAP1 POP PUSH2 0x351D JUMP JUMPDEST PUSH1 0x3 DUP4 PUSH8 0xFFFFFFFFFFFFFFFF AND EQ ISZERO PUSH2 0x3494 JUMPI PUSH1 0x0 PUSH1 0x6 DUP2 GT ISZERO PUSH2 0x3479 JUMPI PUSH2 0x3478 PUSH2 0x5F12 JUMP JUMPDEST JUMPDEST DUP3 PUSH1 0x6 DUP2 GT ISZERO PUSH2 0x348C JUMPI PUSH2 0x348B PUSH2 0x5F12 JUMP JUMPDEST JUMPDEST EQ SWAP1 POP PUSH2 0x351D JUMP JUMPDEST PUSH1 0x4 DUP4 PUSH8 0xFFFFFFFFFFFFFFFF AND EQ ISZERO PUSH2 0x34D6 JUMPI PUSH1 0x2 PUSH1 0x6 DUP2 GT ISZERO PUSH2 0x34BB JUMPI PUSH2 0x34BA PUSH2 0x5F12 JUMP JUMPDEST JUMPDEST DUP3 PUSH1 0x6 DUP2 GT ISZERO PUSH2 0x34CE JUMPI PUSH2 0x34CD PUSH2 0x5F12 JUMP JUMPDEST JUMPDEST EQ SWAP1 POP PUSH2 0x351D JUMP JUMPDEST PUSH1 0x5 DUP4 PUSH8 0xFFFFFFFFFFFFFFFF AND EQ ISZERO PUSH2 0x3518 JUMPI PUSH1 0x2 PUSH1 0x6 DUP2 GT ISZERO PUSH2 0x34FD JUMPI PUSH2 0x34FC PUSH2 0x5F12 JUMP JUMPDEST JUMPDEST DUP3 PUSH1 0x6 DUP2 GT ISZERO PUSH2 0x3510 JUMPI PUSH2 0x350F PUSH2 0x5F12 JUMP JUMPDEST JUMPDEST EQ SWAP1 POP PUSH2 0x351D JUMP JUMPDEST PUSH1 0x0 SWAP1 POP JUMPDEST SWAP3 SWAP2 POP POP JUMP JUMPDEST PUSH1 0x0 DUP1 PUSH1 0x0 DUP8 SWAP1 POP PUSH1 0x1 DUP6 PUSH8 0xFFFFFFFFFFFFFFFF AND EQ ISZERO PUSH2 0x3574 JUMPI PUSH1 0x0 PUSH2 0x354B DUP3 DUP10 DUP8 PUSH2 0x4AE2 JUMP JUMPDEST DUP1 SWAP4 POP DUP2 SWAP3 POP POP POP DUP1 PUSH2 0x3566 JUMPI PUSH1 0x0 DUP3 SWAP4 POP SWAP4 POP POP POP PUSH2 0x36A1 JUMP JUMPDEST PUSH1 0x1 DUP3 SWAP4 POP SWAP4 POP POP POP PUSH2 0x36A1 JUMP JUMPDEST PUSH1 0x2 DUP6 PUSH8 0xFFFFFFFFFFFFFFFF AND EQ ISZERO PUSH2 0x35BD JUMPI PUSH1 0x0 PUSH2 0x3594 DUP3 DUP10 DUP8 PUSH2 0x4B64 JUMP JUMPDEST DUP1 SWAP4 POP DUP2 SWAP3 POP POP POP DUP1 PUSH2 0x35AF JUMPI PUSH1 0x0 DUP3 SWAP4 POP SWAP4 POP POP POP PUSH2 0x36A1 JUMP JUMPDEST PUSH1 0x1 DUP3 SWAP4 POP SWAP4 POP POP POP PUSH2 0x36A1 JUMP JUMPDEST PUSH1 0x3 DUP6 PUSH8 0xFFFFFFFFFFFFFFFF AND EQ ISZERO PUSH2 0x3606 JUMPI PUSH1 0x0 PUSH2 0x35DD DUP3 DUP10 DUP8 PUSH2 0x4CE9 JUMP JUMPDEST DUP1 SWAP4 POP DUP2 SWAP3 POP POP POP DUP1 PUSH2 0x35F8 JUMPI PUSH1 0x0 DUP3 SWAP4 POP SWAP4 POP POP POP PUSH2 0x36A1 JUMP JUMPDEST PUSH1 0x1 DUP3 SWAP4 POP SWAP4 POP POP POP PUSH2 0x36A1 JUMP JUMPDEST PUSH1 0x4 DUP6 PUSH8 0xFFFFFFFFFFFFFFFF AND EQ ISZERO PUSH2 0x364F JUMPI PUSH1 0x0 PUSH2 0x3626 DUP3 DUP10 DUP8 PUSH2 0x4D6B JUMP JUMPDEST DUP1 SWAP4 POP DUP2 SWAP3 POP POP POP DUP1 PUSH2 0x3641 JUMPI PUSH1 0x0 DUP3 SWAP4 POP SWAP4 POP POP POP PUSH2 0x36A1 JUMP JUMPDEST PUSH1 0x1 DUP3 SWAP4 POP SWAP4 POP POP POP PUSH2 0x36A1 JUMP JUMPDEST PUSH1 0x5 DUP6 PUSH8 0xFFFFFFFFFFFFFFFF AND EQ ISZERO PUSH2 0x3698 JUMPI PUSH1 0x0 PUSH2 0x366F DUP3 DUP10 DUP8 PUSH2 0x4EF0 JUMP JUMPDEST DUP1 SWAP4 POP DUP2 SWAP3 POP POP POP DUP1 PUSH2 0x368A JUMPI PUSH1 0x0 DUP3 SWAP4 POP SWAP4 POP POP POP PUSH2 0x36A1 JUMP JUMPDEST PUSH1 0x1 DUP3 SWAP4 POP SWAP4 POP POP POP PUSH2 0x36A1 JUMP JUMPDEST PUSH1 0x0 DUP2 SWAP3 POP SWAP3 POP POP JUMPDEST SWAP6 POP SWAP6 SWAP4 POP POP POP POP JUMP JUMPDEST PUSH1 0x0 DUP1 PUSH1 0x0 DUP1 PUSH1 0x0 JUMPDEST PUSH1 0xA PUSH8 0xFFFFFFFFFFFFFFFF AND DUP2 PUSH8 0xFFFFFFFFFFFFFFFF AND LT ISZERO PUSH2 0x37CE JUMPI DUP6 MLOAD DUP8 DUP3 PUSH2 0x36DF SWAP2 SWAP1 PUSH2 0x5B9C JUMP JUMPDEST PUSH8 0xFFFFFFFFFFFFFFFF AND LT PUSH2 0x3700 JUMPI PUSH1 0x0 DUP8 PUSH1 0x0 SWAP5 POP SWAP5 POP SWAP5 POP POP POP PUSH2 0x389C JUMP JUMPDEST PUSH1 0x0 DUP7 DUP3 DUP10 PUSH2 0x370F SWAP2 SWAP1 PUSH2 0x5B9C JUMP JUMPDEST PUSH8 0xFFFFFFFFFFFFFFFF AND DUP2 MLOAD DUP2 LT PUSH2 0x372A JUMPI PUSH2 0x3729 PUSH2 0x5F70 JUMP JUMPDEST JUMPDEST PUSH1 0x20 ADD ADD MLOAD PUSH1 0xF8 SHR PUSH1 0xF8 SHL PUSH1 0xF8 SHR SWAP1 POP PUSH1 0x0 PUSH1 0x7F DUP3 AND SWAP1 POP PUSH1 0x7 DUP4 PUSH2 0x374F SWAP2 SWAP1 PUSH2 0x5C65 JUMP JUMPDEST PUSH8 0xFFFFFFFFFFFFFFFF AND DUP2 PUSH1 0xFF AND PUSH8 0xFFFFFFFFFFFFFFFF AND SWAP1 SHL DUP5 OR SWAP4 POP PUSH1 0x0 PUSH1 0x80 DUP4 AND PUSH1 0xFF AND EQ ISZERO PUSH2 0x37B9 JUMPI PUSH1 0x0 DUP4 PUSH8 0xFFFFFFFFFFFFFFFF AND GT DUP1 ISZERO PUSH2 0x3799 JUMPI POP PUSH1 0x0 DUP2 PUSH1 0xFF AND EQ JUMPDEST ISZERO PUSH2 0x37B2 JUMPI PUSH1 0x0 DUP10 PUSH1 0x0 SWAP7 POP SWAP7 POP SWAP7 POP POP POP POP POP PUSH2 0x389C JUMP JUMPDEST POP POP PUSH2 0x37CE JUMP JUMPDEST POP POP DUP1 DUP1 PUSH2 0x37C6 SWAP1 PUSH2 0x5E83 JUMP JUMPDEST SWAP2 POP POP PUSH2 0x36B4 JUMP JUMPDEST PUSH1 0xA PUSH8 0xFFFFFFFFFFFFFFFF AND DUP2 PUSH8 0xFFFFFFFFFFFFFFFF AND LT PUSH2 0x37FC JUMPI PUSH1 0x0 DUP8 PUSH1 0x0 SWAP5 POP SWAP5 POP SWAP5 POP POP POP PUSH2 0x389C JUMP JUMPDEST PUSH1 0x1 PUSH1 0xA PUSH2 0x380A SWAP2 SWAP1 PUSH2 0x5CDB JUMP JUMPDEST PUSH8 0xFFFFFFFFFFFFFFFF AND DUP2 PUSH8 0xFFFFFFFFFFFFFFFF AND EQ ISZERO PUSH2 0x3879 JUMPI PUSH1 0x1 DUP7 DUP3 DUP10 PUSH2 0x3834 SWAP2 SWAP1 PUSH2 0x5B9C JUMP JUMPDEST PUSH8 0xFFFFFFFFFFFFFFFF AND DUP2 MLOAD DUP2 LT PUSH2 0x384F JUMPI PUSH2 0x384E PUSH2 0x5F70 JUMP JUMPDEST JUMPDEST PUSH1 0x20 ADD ADD MLOAD PUSH1 0xF8 SHR PUSH1 0xF8 SHL PUSH1 0xF8 SHR PUSH1 0xFF AND GT ISZERO PUSH2 0x3878 JUMPI PUSH1 0x0 DUP8 PUSH1 0x0 SWAP5 POP SWAP5 POP SWAP5 POP POP POP PUSH2 0x389C JUMP JUMPDEST JUMPDEST PUSH1 0x1 DUP1 DUP3 DUP10 PUSH2 0x3888 SWAP2 SWAP1 PUSH2 0x5B9C JUMP JUMPDEST PUSH2 0x3892 SWAP2 SWAP1 PUSH2 0x5B9C JUMP JUMPDEST DUP4 SWAP5 POP SWAP5 POP SWAP5 POP POP POP JUMPDEST SWAP3 POP SWAP3 POP SWAP3 JUMP JUMPDEST PUSH1 0x0 DUP1 PUSH1 0x0 DUP1 PUSH2 0x38B3 DUP8 DUP8 PUSH2 0x5075 JUMP JUMPDEST DUP1 SWAP4 POP DUP2 SWAP10 POP DUP3 SWAP5 POP POP POP POP DUP2 PUSH2 0x38D2 JUMPI PUSH1 0x0 DUP8 SWAP4 POP SWAP4 POP POP POP PUSH2 0x3A20 JUMP JUMPDEST PUSH1 0x0 DUP2 PUSH8 0xFFFFFFFFFFFFFFFF AND EQ ISZERO PUSH2 0x38F3 JUMPI PUSH1 0x0 DUP8 SWAP4 POP SWAP4 POP POP POP PUSH2 0x3A20 JUMP JUMPDEST DUP1 PUSH8 0xFFFFFFFFFFFFFFFF AND PUSH8 0xFFFFFFFFFFFFFFFF DUP2 GT ISZERO PUSH2 0x3917 JUMPI PUSH2 0x3916 PUSH2 0x5F9F JUMP JUMPDEST JUMPDEST PUSH1 0x40 MLOAD SWAP1 DUP1 DUP3 MSTORE DUP1 PUSH1 0x1F ADD PUSH1 0x1F NOT AND PUSH1 0x20 ADD DUP3 ADD PUSH1 0x40 MSTORE DUP1 ISZERO PUSH2 0x3949 JUMPI DUP2 PUSH1 0x20 ADD PUSH1 0x1 DUP3 MUL DUP1 CALLDATASIZE DUP4 CALLDATACOPY DUP1 DUP3 ADD SWAP2 POP POP SWAP1 POP JUMPDEST POP DUP6 PUSH1 0x0 ADD DUP2 SWAP1 MSTORE POP PUSH1 0x0 JUMPDEST DUP2 PUSH8 0xFFFFFFFFFFFFFFFF AND DUP2 PUSH8 0xFFFFFFFFFFFFFFFF AND LT ISZERO PUSH2 0x3A07 JUMPI DUP7 DUP2 DUP10 PUSH2 0x397E SWAP2 SWAP1 PUSH2 0x5B9C JUMP JUMPDEST PUSH8 0xFFFFFFFFFFFFFFFF AND DUP2 MLOAD DUP2 LT PUSH2 0x3999 JUMPI PUSH2 0x3998 PUSH2 0x5F70 JUMP JUMPDEST JUMPDEST PUSH1 0x20 ADD ADD MLOAD PUSH1 0xF8 SHR PUSH1 0xF8 SHL DUP7 PUSH1 0x0 ADD MLOAD DUP3 PUSH8 0xFFFFFFFFFFFFFFFF AND DUP2 MLOAD DUP2 LT PUSH2 0x39C5 JUMPI PUSH2 0x39C4 PUSH2 0x5F70 JUMP JUMPDEST JUMPDEST PUSH1 0x20 ADD ADD SWAP1 PUSH31 0xFFFFFFFFFFFFFFFFFFFFFFFFFFFFFFFFFFFFFFFFFFFFFFFFFFFFFFFFFFFFFF NOT AND SWAP1 DUP2 PUSH1 0x0 BYTE SWAP1 MSTORE8 POP DUP1 DUP1 PUSH2 0x39FF SWAP1 PUSH2 0x5E83 JUMP JUMPDEST SWAP2 POP POP PUSH2 0x3955 JUMP JUMPDEST POP DUP1 DUP8 PUSH2 0x3A14 SWAP2 SWAP1 PUSH2 0x5B9C JUMP JUMPDEST SWAP7 POP PUSH1 0x1 DUP8 SWAP4 POP SWAP4 POP POP POP JUMPDEST SWAP4 POP SWAP4 SWAP2 POP POP JUMP JUMPDEST PUSH1 0x0 DUP1 PUSH1 0x0 DUP1 PUSH2 0x3A38 DUP8 DUP8 PUSH2 0x5075 JUMP JUMPDEST DUP1 SWAP4 POP DUP2 SWAP10 POP DUP3 SWAP5 POP POP POP POP DUP2 PUSH2 0x3A57 JUMPI PUSH1 0x0 DUP8 SWAP4 POP SWAP4 POP POP POP PUSH2 0x3BA5 JUMP JUMPDEST PUSH1 0x0 DUP2 PUSH8 0xFFFFFFFFFFFFFFFF AND EQ ISZERO PUSH2 0x3A78 JUMPI PUSH1 0x0 DUP8 SWAP4 POP SWAP4 POP POP POP PUSH2 0x3BA5 JUMP JUMPDEST DUP1 PUSH8 0xFFFFFFFFFFFFFFFF AND PUSH8 0xFFFFFFFFFFFFFFFF DUP2 GT ISZERO PUSH2 0x3A9C JUMPI PUSH2 0x3A9B PUSH2 0x5F9F JUMP JUMPDEST JUMPDEST PUSH1 0x40 MLOAD SWAP1 DUP1 DUP3 MSTORE DUP1 PUSH1 0x1F ADD PUSH1 0x1F NOT AND PUSH1 0x20 ADD DUP3 ADD PUSH1 0x40 MSTORE DUP1 ISZERO PUSH2 0x3ACE JUMPI DUP2 PUSH1 0x20 ADD PUSH1 0x1 DUP3 MUL DUP1 CALLDATASIZE DUP4 CALLDATACOPY DUP1 DUP3 ADD SWAP2 POP POP SWAP1 POP JUMPDEST POP DUP6 PUSH1 0x20 ADD DUP2 SWAP1 MSTORE POP PUSH1 0x0 JUMPDEST DUP2 PUSH8 0xFFFFFFFFFFFFFFFF AND DUP2 PUSH8 0xFFFFFFFFFFFFFFFF AND LT ISZERO PUSH2 0x3B8C JUMPI DUP7 DUP2 DUP10 PUSH2 0x3B03 SWAP2 SWAP1 PUSH2 0x5B9C JUMP JUMPDEST PUSH8 0xFFFFFFFFFFFFFFFF AND DUP2 MLOAD DUP2 LT PUSH2 0x3B1E JUMPI PUSH2 0x3B1D PUSH2 0x5F70 JUMP JUMPDEST JUMPDEST PUSH1 0x20 ADD ADD MLOAD PUSH1 0xF8 SHR PUSH1 0xF8 SHL DUP7 PUSH1 0x20 ADD MLOAD DUP3 PUSH8 0xFFFFFFFFFFFFFFFF AND DUP2 MLOAD DUP2 LT PUSH2 0x3B4A JUMPI PUSH2 0x3B49 PUSH2 0x5F70 JUMP JUMPDEST JUMPDEST PUSH1 0x20 ADD ADD SWAP1 PUSH31 0xFFFFFFFFFFFFFFFFFFFFFFFFFFFFFFFFFFFFFFFFFFFFFFFFFFFFFFFFFFFFFF NOT AND SWAP1 DUP2 PUSH1 0x0 BYTE SWAP1 MSTORE8 POP DUP1 DUP1 PUSH2 0x3B84 SWAP1 PUSH2 0x5E83 JUMP JUMPDEST SWAP2 POP POP PUSH2 0x3ADA JUMP JUMPDEST POP DUP1 DUP8 PUSH2 0x3B99 SWAP2 SWAP1 PUSH2 0x5B9C JUMP JUMPDEST SWAP7 POP PUSH1 0x1 DUP8 SWAP4 POP SWAP4 POP POP POP JUMPDEST SWAP4 POP SWAP4 SWAP2 POP POP JUMP JUMPDEST PUSH1 0x0 DUP1 PUSH1 0x0 DUP1 PUSH2 0x3BBD DUP8 DUP8 PUSH2 0x5091 JUMP JUMPDEST DUP1 SWAP4 POP DUP2 SWAP10 POP DUP3 SWAP5 POP POP POP POP DUP2 PUSH2 0x3BDC JUMPI PUSH1 0x0 DUP8 SWAP4 POP SWAP4 POP POP POP PUSH2 0x3C27 JUMP JUMPDEST PUSH1 0x0 DUP2 PUSH8 0xFFFFFFFFFFFFFFFF AND EQ ISZERO PUSH2 0x3BFD JUMPI PUSH1 0x0 DUP8 SWAP4 POP SWAP4 POP POP POP PUSH2 0x3C27 JUMP JUMPDEST DUP1 DUP6 PUSH1 0x40 ADD SWAP1 PUSH8 0xFFFFFFFFFFFFFFFF AND SWAP1 DUP2 PUSH8 0xFFFFFFFFFFFFFFFF AND DUP2 MSTORE POP POP PUSH1 0x1 DUP8 SWAP4 POP SWAP4 POP POP POP JUMPDEST SWAP4 POP SWAP4 SWAP2 POP POP JUMP JUMPDEST PUSH1 0x0 DUP1 PUSH1 0x0 DUP1 PUSH2 0x3C3F DUP8 DUP8 PUSH2 0x5091 JUMP JUMPDEST DUP1 SWAP4 POP DUP2 SWAP10 POP DUP3 SWAP5 POP POP POP POP DUP2 PUSH2 0x3C5E JUMPI PUSH1 0x0 DUP8 SWAP4 POP SWAP4 POP POP POP PUSH2 0x3CA9 JUMP JUMPDEST PUSH1 0x0 DUP2 PUSH8 0xFFFFFFFFFFFFFFFF AND EQ ISZERO PUSH2 0x3C7F JUMPI PUSH1 0x0 DUP8 SWAP4 POP SWAP4 POP POP POP PUSH2 0x3CA9 JUMP JUMPDEST DUP1 DUP6 PUSH1 0x60 ADD SWAP1 PUSH8 0xFFFFFFFFFFFFFFFF AND SWAP1 DUP2 PUSH8 0xFFFFFFFFFFFFFFFF AND DUP2 MSTORE POP POP PUSH1 0x1 DUP8 SWAP4 POP SWAP4 POP POP POP JUMPDEST SWAP4 POP SWAP4 SWAP2 POP POP JUMP JUMPDEST PUSH1 0x0 DUP1 PUSH1 0x0 DUP1 PUSH2 0x3CC1 DUP8 DUP8 PUSH2 0x5075 JUMP JUMPDEST DUP1 SWAP4 POP DUP2 SWAP10 POP DUP3 SWAP5 POP POP POP POP DUP2 PUSH2 0x3CE0 JUMPI PUSH1 0x0 DUP8 SWAP4 POP SWAP4 POP POP POP PUSH2 0x3E2E JUMP JUMPDEST PUSH1 0x0 DUP2 PUSH8 0xFFFFFFFFFFFFFFFF AND EQ ISZERO PUSH2 0x3D01 JUMPI PUSH1 0x0 DUP8 SWAP4 POP SWAP4 POP POP POP PUSH2 0x3E2E JUMP JUMPDEST DUP1 PUSH8 0xFFFFFFFFFFFFFFFF AND PUSH8 0xFFFFFFFFFFFFFFFF DUP2 GT ISZERO PUSH2 0x3D25 JUMPI PUSH2 0x3D24 PUSH2 0x5F9F JUMP JUMPDEST JUMPDEST PUSH1 0x40 MLOAD SWAP1 DUP1 DUP3 MSTORE DUP1 PUSH1 0x1F ADD PUSH1 0x1F NOT AND PUSH1 0x20 ADD DUP3 ADD PUSH1 0x40 MSTORE DUP1 ISZERO PUSH2 0x3D57 JUMPI DUP2 PUSH1 0x20 ADD PUSH1 0x1 DUP3 MUL DUP1 CALLDATASIZE DUP4 CALLDATACOPY DUP1 DUP3 ADD SWAP2 POP POP SWAP1 POP JUMPDEST POP DUP6 PUSH1 0x80 ADD DUP2 SWAP1 MSTORE POP PUSH1 0x0 JUMPDEST DUP2 PUSH8 0xFFFFFFFFFFFFFFFF AND DUP2 PUSH8 0xFFFFFFFFFFFFFFFF AND LT ISZERO PUSH2 0x3E15 JUMPI DUP7 DUP2 DUP10 PUSH2 0x3D8C SWAP2 SWAP1 PUSH2 0x5B9C JUMP JUMPDEST PUSH8 0xFFFFFFFFFFFFFFFF AND DUP2 MLOAD DUP2 LT PUSH2 0x3DA7 JUMPI PUSH2 0x3DA6 PUSH2 0x5F70 JUMP JUMPDEST JUMPDEST PUSH1 0x20 ADD ADD MLOAD PUSH1 0xF8 SHR PUSH1 0xF8 SHL DUP7 PUSH1 0x80 ADD MLOAD DUP3 PUSH8 0xFFFFFFFFFFFFFFFF AND DUP2 MLOAD DUP2 LT PUSH2 0x3DD3 JUMPI PUSH2 0x3DD2 PUSH2 0x5F70 JUMP JUMPDEST JUMPDEST PUSH1 0x20 ADD ADD SWAP1 PUSH31 0xFFFFFFFFFFFFFFFFFFFFFFFFFFFFFFFFFFFFFFFFFFFFFFFFFFFFFFFFFFFFFF NOT AND SWAP1 DUP2 PUSH1 0x0 BYTE SWAP1 MSTORE8 POP DUP1 DUP1 PUSH2 0x3E0D SWAP1 PUSH2 0x5E83 JUMP JUMPDEST SWAP2 POP POP PUSH2 0x3D63 JUMP JUMPDEST POP DUP1 DUP8 PUSH2 0x3E22 SWAP2 SWAP1 PUSH2 0x5B9C JUMP JUMPDEST SWAP7 POP PUSH1 0x1 DUP8 SWAP4 POP SWAP4 POP POP POP JUMPDEST SWAP4 POP SWAP4 SWAP2 POP POP JUMP JUMPDEST PUSH1 0x0 DUP1 PUSH1 0x0 DUP1 PUSH2 0x3E46 DUP8 DUP8 PUSH2 0x5075 JUMP JUMPDEST DUP1 SWAP4 POP DUP2 SWAP10 POP DUP3 SWAP5 POP POP POP POP DUP2 PUSH2 0x3E65 JUMPI PUSH1 0x0 DUP8 SWAP4 POP SWAP4 POP POP POP PUSH2 0x3FB3 JUMP JUMPDEST PUSH1 0x0 DUP2 PUSH8 0xFFFFFFFFFFFFFFFF AND EQ ISZERO PUSH2 0x3E86 JUMPI PUSH1 0x0 DUP8 SWAP4 POP SWAP4 POP POP POP PUSH2 0x3FB3 JUMP JUMPDEST DUP1 PUSH8 0xFFFFFFFFFFFFFFFF AND PUSH8 0xFFFFFFFFFFFFFFFF DUP2 GT ISZERO PUSH2 0x3EAA JUMPI PUSH2 0x3EA9 PUSH2 0x5F9F JUMP JUMPDEST JUMPDEST PUSH1 0x40 MLOAD SWAP1 DUP1 DUP3 MSTORE DUP1 PUSH1 0x1F ADD PUSH1 0x1F NOT AND PUSH1 0x20 ADD DUP3 ADD PUSH1 0x40 MSTORE DUP1 ISZERO PUSH2 0x3EDC JUMPI DUP2 PUSH1 0x20 ADD PUSH1 0x1 DUP3 MUL DUP1 CALLDATASIZE DUP4 CALLDATACOPY DUP1 DUP3 ADD SWAP2 POP POP SWAP1 POP JUMPDEST POP DUP6 PUSH1 0x0 ADD DUP2 SWAP1 MSTORE POP PUSH1 0x0 JUMPDEST DUP2 PUSH8 0xFFFFFFFFFFFFFFFF AND DUP2 PUSH8 0xFFFFFFFFFFFFFFFF AND LT ISZERO PUSH2 0x3F9A JUMPI DUP7 DUP2 DUP10 PUSH2 0x3F11 SWAP2 SWAP1 PUSH2 0x5B9C JUMP JUMPDEST PUSH8 0xFFFFFFFFFFFFFFFF AND DUP2 MLOAD DUP2 LT PUSH2 0x3F2C JUMPI PUSH2 0x3F2B PUSH2 0x5F70 JUMP JUMPDEST JUMPDEST PUSH1 0x20 ADD ADD MLOAD PUSH1 0xF8 SHR PUSH1 0xF8 SHL DUP7 PUSH1 0x0 ADD MLOAD DUP3 PUSH8 0xFFFFFFFFFFFFFFFF AND DUP2 MLOAD DUP2 LT PUSH2 0x3F58 JUMPI PUSH2 0x3F57 PUSH2 0x5F70 JUMP JUMPDEST JUMPDEST PUSH1 0x20 ADD ADD SWAP1 PUSH31 0xFFFFFFFFFFFFFFFFFFFFFFFFFFFFFFFFFFFFFFFFFFFFFFFFFFFFFFFFFFFFFF NOT AND SWAP1 DUP2 PUSH1 0x0 BYTE SWAP1 MSTORE8 POP DUP1 DUP1 PUSH2 0x3F92 SWAP1 PUSH2 0x5E83 JUMP JUMPDEST SWAP2 POP POP PUSH2 0x3EE8 JUMP JUMPDEST POP DUP1 DUP8 PUSH2 0x3FA7 SWAP2 SWAP1 PUSH2 0x5B9C JUMP JUMPDEST SWAP7 POP PUSH1 0x1 DUP8 SWAP4 POP SWAP4 POP POP POP JUMPDEST SWAP4 POP SWAP4 SWAP2 POP POP JUMP JUMPDEST PUSH1 0x0 DUP1 PUSH1 0x0 DUP1 PUSH2 0x3FCB DUP8 DUP8 PUSH2 0x5091 JUMP JUMPDEST DUP1 SWAP4 POP DUP2 SWAP10 POP DUP3 SWAP5 POP POP POP POP DUP2 PUSH2 0x3FEA JUMPI PUSH1 0x0 DUP8 SWAP4 POP SWAP4 POP POP POP PUSH2 0x4035 JUMP JUMPDEST PUSH1 0x0 DUP2 PUSH8 0xFFFFFFFFFFFFFFFF AND EQ ISZERO PUSH2 0x400B JUMPI PUSH1 0x0 DUP8 SWAP4 POP SWAP4 POP POP POP PUSH2 0x4035 JUMP JUMPDEST DUP1 DUP6 PUSH1 0x20 ADD SWAP1 PUSH8 0xFFFFFFFFFFFFFFFF AND SWAP1 DUP2 PUSH8 0xFFFFFFFFFFFFFFFF AND DUP2 MSTORE POP POP PUSH1 0x1 DUP8 SWAP4 POP SWAP4 POP POP POP JUMPDEST SWAP4 POP SWAP4 SWAP2 POP POP JUMP JUMPDEST PUSH1 0x0 DUP1 PUSH1 0x0 DUP1 PUSH2 0x404D DUP8 DUP8 PUSH2 0x5075 JUMP JUMPDEST DUP1 SWAP4 POP DUP2 SWAP10 POP DUP3 SWAP5 POP POP POP POP DUP2 PUSH2 0x406C JUMPI PUSH1 0x0 DUP8 SWAP4 POP SWAP4 POP POP POP PUSH2 0x41BA JUMP JUMPDEST PUSH1 0x0 DUP2 PUSH8 0xFFFFFFFFFFFFFFFF AND EQ ISZERO PUSH2 0x408D JUMPI PUSH1 0x0 DUP8 SWAP4 POP SWAP4 POP POP POP PUSH2 0x41BA JUMP JUMPDEST DUP1 PUSH8 0xFFFFFFFFFFFFFFFF AND PUSH8 0xFFFFFFFFFFFFFFFF DUP2 GT ISZERO PUSH2 0x40B1 JUMPI PUSH2 0x40B0 PUSH2 0x5F9F JUMP JUMPDEST JUMPDEST PUSH1 0x40 MLOAD SWAP1 DUP1 DUP3 MSTORE DUP1 PUSH1 0x1F ADD PUSH1 0x1F NOT AND PUSH1 0x20 ADD DUP3 ADD PUSH1 0x40 MSTORE DUP1 ISZERO PUSH2 0x40E3 JUMPI DUP2 PUSH1 0x20 ADD PUSH1 0x1 DUP3 MUL DUP1 CALLDATASIZE DUP4 CALLDATACOPY DUP1 DUP3 ADD SWAP2 POP POP SWAP1 POP JUMPDEST POP DUP6 PUSH1 0x40 ADD DUP2 SWAP1 MSTORE POP PUSH1 0x0 JUMPDEST DUP2 PUSH8 0xFFFFFFFFFFFFFFFF AND DUP2 PUSH8 0xFFFFFFFFFFFFFFFF AND LT ISZERO PUSH2 0x41A1 JUMPI DUP7 DUP2 DUP10 PUSH2 0x4118 SWAP2 SWAP1 PUSH2 0x5B9C JUMP JUMPDEST PUSH8 0xFFFFFFFFFFFFFFFF AND DUP2 MLOAD DUP2 LT PUSH2 0x4133 JUMPI PUSH2 0x4132 PUSH2 0x5F70 JUMP JUMPDEST JUMPDEST PUSH1 0x20 ADD ADD MLOAD PUSH1 0xF8 SHR PUSH1 0xF8 SHL DUP7 PUSH1 0x40 ADD MLOAD DUP3 PUSH8 0xFFFFFFFFFFFFFFFF AND DUP2 MLOAD DUP2 LT PUSH2 0x415F JUMPI PUSH2 0x415E PUSH2 0x5F70 JUMP JUMPDEST JUMPDEST PUSH1 0x20 ADD ADD SWAP1 PUSH31 0xFFFFFFFFFFFFFFFFFFFFFFFFFFFFFFFFFFFFFFFFFFFFFFFFFFFFFFFFFFFFFF NOT AND SWAP1 DUP2 PUSH1 0x0 BYTE SWAP1 MSTORE8 POP DUP1 DUP1 PUSH2 0x4199 SWAP1 PUSH2 0x5E83 JUMP JUMPDEST SWAP2 POP POP PUSH2 0x40EF JUMP JUMPDEST POP DUP1 DUP8 PUSH2 0x41AE SWAP2 SWAP1 PUSH2 0x5B9C JUMP JUMPDEST SWAP7 POP PUSH1 0x1 DUP8 SWAP4 POP SWAP4 POP POP POP JUMPDEST SWAP4 POP SWAP4 SWAP2 POP POP JUMP JUMPDEST PUSH1 0x0 DUP1 PUSH1 0x0 DUP1 PUSH2 0x41D2 DUP8 DUP8 PUSH2 0x5075 JUMP JUMPDEST DUP1 SWAP4 POP DUP2 SWAP10 POP DUP3 SWAP5 POP POP POP POP DUP2 PUSH2 0x41F1 JUMPI PUSH1 0x0 DUP8 SWAP4 POP SWAP4 POP POP POP PUSH2 0x433F JUMP JUMPDEST PUSH1 0x0 DUP2 PUSH8 0xFFFFFFFFFFFFFFFF AND EQ ISZERO PUSH2 0x4212 JUMPI PUSH1 0x0 DUP8 SWAP4 POP SWAP4 POP POP POP PUSH2 0x433F JUMP JUMPDEST DUP1 PUSH8 0xFFFFFFFFFFFFFFFF AND PUSH8 0xFFFFFFFFFFFFFFFF DUP2 GT ISZERO PUSH2 0x4236 JUMPI PUSH2 0x4235 PUSH2 0x5F9F JUMP JUMPDEST JUMPDEST PUSH1 0x40 MLOAD SWAP1 DUP1 DUP3 MSTORE DUP1 PUSH1 0x1F ADD PUSH1 0x1F NOT AND PUSH1 0x20 ADD DUP3 ADD PUSH1 0x40 MSTORE DUP1 ISZERO PUSH2 0x4268 JUMPI DUP2 PUSH1 0x20 ADD PUSH1 0x1 DUP3 MUL DUP1 CALLDATASIZE DUP4 CALLDATACOPY DUP1 DUP3 ADD SWAP2 POP POP SWAP1 POP JUMPDEST POP DUP6 PUSH1 0x0 ADD DUP2 SWAP1 MSTORE POP PUSH1 0x0 JUMPDEST DUP2 PUSH8 0xFFFFFFFFFFFFFFFF AND DUP2 PUSH8 0xFFFFFFFFFFFFFFFF AND LT ISZERO PUSH2 0x4326 JUMPI DUP7 DUP2 DUP10 PUSH2 0x429D SWAP2 SWAP1 PUSH2 0x5B9C JUMP JUMPDEST PUSH8 0xFFFFFFFFFFFFFFFF AND DUP2 MLOAD DUP2 LT PUSH2 0x42B8 JUMPI PUSH2 0x42B7 PUSH2 0x5F70 JUMP JUMPDEST JUMPDEST PUSH1 0x20 ADD ADD MLOAD PUSH1 0xF8 SHR PUSH1 0xF8 SHL DUP7 PUSH1 0x0 ADD MLOAD DUP3 PUSH8 0xFFFFFFFFFFFFFFFF AND DUP2 MLOAD DUP2 LT PUSH2 0x42E4 JUMPI PUSH2 0x42E3 PUSH2 0x5F70 JUMP JUMPDEST JUMPDEST PUSH1 0x20 ADD ADD SWAP1 PUSH31 0xFFFFFFFFFFFFFFFFFFFFFFFFFFFFFFFFFFFFFFFFFFFFFFFFFFFFFFFFFFFFFF NOT AND SWAP1 DUP2 PUSH1 0x0 BYTE SWAP1 MSTORE8 POP DUP1 DUP1 PUSH2 0x431E SWAP1 PUSH2 0x5E83 JUMP JUMPDEST SWAP2 POP POP PUSH2 0x4274 JUMP JUMPDEST POP DUP1 DUP8 PUSH2 0x4333 SWAP2 SWAP1 PUSH2 0x5B9C JUMP JUMPDEST SWAP7 POP PUSH1 0x1 DUP8 SWAP4 POP SWAP4 POP POP POP JUMPDEST SWAP4 POP SWAP4 SWAP2 POP POP JUMP JUMPDEST PUSH1 0x0 DUP1 PUSH1 0x0 DUP1 PUSH2 0x4357 DUP8 DUP8 PUSH2 0x5091 JUMP JUMPDEST DUP1 SWAP4 POP DUP2 SWAP10 POP DUP3 SWAP5 POP POP POP POP DUP2 PUSH2 0x4376 JUMPI PUSH1 0x0 DUP8 SWAP4 POP SWAP4 POP POP POP PUSH2 0x43C1 JUMP JUMPDEST PUSH1 0x0 DUP2 PUSH8 0xFFFFFFFFFFFFFFFF AND EQ ISZERO PUSH2 0x4397 JUMPI PUSH1 0x0 DUP8 SWAP4 POP SWAP4 POP POP POP PUSH2 0x43C1 JUMP JUMPDEST DUP1 DUP6 PUSH1 0x20 ADD SWAP1 PUSH8 0xFFFFFFFFFFFFFFFF AND SWAP1 DUP2 PUSH8 0xFFFFFFFFFFFFFFFF AND DUP2 MSTORE POP POP PUSH1 0x1 DUP8 SWAP4 POP SWAP4 POP POP POP JUMPDEST SWAP4 POP SWAP4 SWAP2 POP POP JUMP JUMPDEST PUSH1 0x0 DUP1 PUSH1 0x0 DUP1 PUSH2 0x43D9 DUP8 DUP8 PUSH2 0x5075 JUMP JUMPDEST DUP1 SWAP4 POP DUP2 SWAP10 POP DUP3 SWAP5 POP POP POP POP DUP2 PUSH2 0x43F8 JUMPI PUSH1 0x0 DUP8 SWAP4 POP SWAP4 POP POP POP PUSH2 0x4546 JUMP JUMPDEST PUSH1 0x0 DUP2 PUSH8 0xFFFFFFFFFFFFFFFF AND EQ ISZERO PUSH2 0x4419 JUMPI PUSH1 0x0 DUP8 SWAP4 POP SWAP4 POP POP POP PUSH2 0x4546 JUMP JUMPDEST DUP1 PUSH8 0xFFFFFFFFFFFFFFFF AND PUSH8 0xFFFFFFFFFFFFFFFF DUP2 GT ISZERO PUSH2 0x443D JUMPI PUSH2 0x443C PUSH2 0x5F9F JUMP JUMPDEST JUMPDEST PUSH1 0x40 MLOAD SWAP1 DUP1 DUP3 MSTORE DUP1 PUSH1 0x1F ADD PUSH1 0x1F NOT AND PUSH1 0x20 ADD DUP3 ADD PUSH1 0x40 MSTORE DUP1 ISZERO PUSH2 0x446F JUMPI DUP2 PUSH1 0x20 ADD PUSH1 0x1 DUP3 MUL DUP1 CALLDATASIZE DUP4 CALLDATACOPY DUP1 DUP3 ADD SWAP2 POP POP SWAP1 POP JUMPDEST POP DUP6 PUSH1 0x40 ADD DUP2 SWAP1 MSTORE POP PUSH1 0x0 JUMPDEST DUP2 PUSH8 0xFFFFFFFFFFFFFFFF AND DUP2 PUSH8 0xFFFFFFFFFFFFFFFF AND LT ISZERO PUSH2 0x452D JUMPI DUP7 DUP2 DUP10 PUSH2 0x44A4 SWAP2 SWAP1 PUSH2 0x5B9C JUMP JUMPDEST PUSH8 0xFFFFFFFFFFFFFFFF AND DUP2 MLOAD DUP2 LT PUSH2 0x44BF JUMPI PUSH2 0x44BE PUSH2 0x5F70 JUMP JUMPDEST JUMPDEST PUSH1 0x20 ADD ADD MLOAD PUSH1 0xF8 SHR PUSH1 0xF8 SHL DUP7 PUSH1 0x40 ADD MLOAD DUP3 PUSH8 0xFFFFFFFFFFFFFFFF AND DUP2 MLOAD DUP2 LT PUSH2 0x44EB JUMPI PUSH2 0x44EA PUSH2 0x5F70 JUMP JUMPDEST JUMPDEST PUSH1 0x20 ADD ADD SWAP1 PUSH31 0xFFFFFFFFFFFFFFFFFFFFFFFFFFFFFFFFFFFFFFFFFFFFFFFFFFFFFFFFFFFFFF NOT AND SWAP1 DUP2 PUSH1 0x0 BYTE SWAP1 MSTORE8 POP DUP1 DUP1 PUSH2 0x4525 SWAP1 PUSH2 0x5E83 JUMP JUMPDEST SWAP2 POP POP PUSH2 0x447B JUMP JUMPDEST POP DUP1 DUP8 PUSH2 0x453A SWAP2 SWAP1 PUSH2 0x5B9C JUMP JUMPDEST SWAP7 POP PUSH1 0x1 DUP8 SWAP4 POP SWAP4 POP POP POP JUMPDEST SWAP4 POP SWAP4 SWAP2 POP POP JUMP JUMPDEST PUSH1 0x0 DUP1 PUSH1 0x0 DUP1 PUSH2 0x455E DUP8 DUP8 PUSH2 0x5091 JUMP JUMPDEST DUP1 SWAP4 POP DUP2 SWAP10 POP DUP3 SWAP5 POP POP POP POP DUP2 PUSH2 0x457D JUMPI PUSH1 0x0 DUP8 SWAP4 POP SWAP4 POP POP POP PUSH2 0x45C8 JUMP JUMPDEST PUSH1 0x0 DUP2 PUSH8 0xFFFFFFFFFFFFFFFF AND EQ ISZERO PUSH2 0x459E JUMPI PUSH1 0x0 DUP8 SWAP4 POP SWAP4 POP POP POP PUSH2 0x45C8 JUMP JUMPDEST DUP1 DUP6 PUSH1 0x0 ADD SWAP1 PUSH8 0xFFFFFFFFFFFFFFFF AND SWAP1 DUP2 PUSH8 0xFFFFFFFFFFFFFFFF AND DUP2 MSTORE POP POP PUSH1 0x1 DUP8 SWAP4 POP SWAP4 POP POP POP JUMPDEST SWAP4 POP SWAP4 SWAP2 POP POP JUMP JUMPDEST PUSH1 0x0 DUP1 PUSH1 0x0 DUP1 PUSH2 0x45E0 DUP8 DUP8 PUSH2 0x5091 JUMP JUMPDEST DUP1 SWAP4 POP DUP2 SWAP10 POP DUP3 SWAP5 POP POP POP POP DUP2 PUSH2 0x45FF JUMPI PUSH1 0x0 DUP8 SWAP4 POP SWAP4 POP POP POP PUSH2 0x464A JUMP JUMPDEST PUSH1 0x0 DUP2 PUSH8 0xFFFFFFFFFFFFFFFF AND EQ ISZERO PUSH2 0x4620 JUMPI PUSH1 0x0 DUP8 SWAP4 POP SWAP4 POP POP POP PUSH2 0x464A JUMP JUMPDEST DUP1 DUP6 PUSH1 0x20 ADD SWAP1 PUSH8 0xFFFFFFFFFFFFFFFF AND SWAP1 DUP2 PUSH8 0xFFFFFFFFFFFFFFFF AND DUP2 MSTORE POP POP PUSH1 0x1 DUP8 SWAP4 POP SWAP4 POP POP POP JUMPDEST SWAP4 POP SWAP4 SWAP2 POP POP JUMP JUMPDEST PUSH1 0x0 DUP1 PUSH1 0x0 DUP1 PUSH2 0x4662 DUP8 DUP8 PUSH2 0x5075 JUMP JUMPDEST DUP1 SWAP4 POP DUP2 SWAP10 POP DUP3 SWAP5 POP POP POP POP DUP2 PUSH2 0x4681 JUMPI PUSH1 0x0 DUP8 SWAP4 POP SWAP4 POP POP POP PUSH2 0x47CF JUMP JUMPDEST PUSH1 0x0 DUP2 PUSH8 0xFFFFFFFFFFFFFFFF AND EQ ISZERO PUSH2 0x46A2 JUMPI PUSH1 0x0 DUP8 SWAP4 POP SWAP4 POP POP POP PUSH2 0x47CF JUMP JUMPDEST DUP1 PUSH8 0xFFFFFFFFFFFFFFFF AND PUSH8 0xFFFFFFFFFFFFFFFF DUP2 GT ISZERO PUSH2 0x46C6 JUMPI PUSH2 0x46C5 PUSH2 0x5F9F JUMP JUMPDEST JUMPDEST PUSH1 0x40 MLOAD SWAP1 DUP1 DUP3 MSTORE DUP1 PUSH1 0x1F ADD PUSH1 0x1F NOT AND PUSH1 0x20 ADD DUP3 ADD PUSH1 0x40 MSTORE DUP1 ISZERO PUSH2 0x46F8 JUMPI DUP2 PUSH1 0x20 ADD PUSH1 0x1 DUP3 MUL DUP1 CALLDATASIZE DUP4 CALLDATACOPY DUP1 DUP3 ADD SWAP2 POP POP SWAP1 POP JUMPDEST POP DUP6 PUSH1 0x40 ADD DUP2 SWAP1 MSTORE POP PUSH1 0x0 JUMPDEST DUP2 PUSH8 0xFFFFFFFFFFFFFFFF AND DUP2 PUSH8 0xFFFFFFFFFFFFFFFF AND LT ISZERO PUSH2 0x47B6 JUMPI DUP7 DUP2 DUP10 PUSH2 0x472D SWAP2 SWAP1 PUSH2 0x5B9C JUMP JUMPDEST PUSH8 0xFFFFFFFFFFFFFFFF AND DUP2 MLOAD DUP2 LT PUSH2 0x4748 JUMPI PUSH2 0x4747 PUSH2 0x5F70 JUMP JUMPDEST JUMPDEST PUSH1 0x20 ADD ADD MLOAD PUSH1 0xF8 SHR PUSH1 0xF8 SHL DUP7 PUSH1 0x40 ADD MLOAD DUP3 PUSH8 0xFFFFFFFFFFFFFFFF AND DUP2 MLOAD DUP2 LT PUSH2 0x4774 JUMPI PUSH2 0x4773 PUSH2 0x5F70 JUMP JUMPDEST JUMPDEST PUSH1 0x20 ADD ADD SWAP1 PUSH31 0xFFFFFFFFFFFFFFFFFFFFFFFFFFFFFFFFFFFFFFFFFFFFFFFFFFFFFFFFFFFFFF NOT AND SWAP1 DUP2 PUSH1 0x0 BYTE SWAP1 MSTORE8 POP DUP1 DUP1 PUSH2 0x47AE SWAP1 PUSH2 0x5E83 JUMP JUMPDEST SWAP2 POP POP PUSH2 0x4704 JUMP JUMPDEST POP DUP1 DUP8 PUSH2 0x47C3 SWAP2 SWAP1 PUSH2 0x5B9C JUMP JUMPDEST SWAP7 POP PUSH1 0x1 DUP8 SWAP4 POP SWAP4 POP POP POP JUMPDEST SWAP4 POP SWAP4 SWAP2 POP POP JUMP JUMPDEST PUSH1 0x0 DUP1 PUSH1 0x0 DUP1 PUSH2 0x47E7 DUP8 DUP8 PUSH2 0x5091 JUMP JUMPDEST DUP1 SWAP4 POP DUP2 SWAP10 POP DUP3 SWAP5 POP POP POP POP DUP2 PUSH2 0x4806 JUMPI PUSH1 0x0 DUP8 SWAP4 POP SWAP4 POP POP POP PUSH2 0x4851 JUMP JUMPDEST PUSH1 0x0 DUP2 PUSH8 0xFFFFFFFFFFFFFFFF AND EQ ISZERO PUSH2 0x4827 JUMPI PUSH1 0x0 DUP8 SWAP4 POP SWAP4 POP POP POP PUSH2 0x4851 JUMP JUMPDEST DUP1 DUP6 PUSH1 0x0 ADD SWAP1 PUSH8 0xFFFFFFFFFFFFFFFF AND SWAP1 DUP2 PUSH8 0xFFFFFFFFFFFFFFFF AND DUP2 MSTORE POP POP PUSH1 0x1 DUP8 SWAP4 POP SWAP4 POP POP POP JUMPDEST SWAP4 POP SWAP4 SWAP2 POP POP JUMP JUMPDEST PUSH1 0x0 DUP1 PUSH1 0x0 DUP1 PUSH2 0x4869 DUP8 DUP8 PUSH2 0x5091 JUMP JUMPDEST DUP1 SWAP4 POP DUP2 SWAP10 POP DUP3 SWAP5 POP POP POP POP DUP2 PUSH2 0x4888 JUMPI PUSH1 0x0 DUP8 SWAP4 POP SWAP4 POP POP POP PUSH2 0x48D3 JUMP JUMPDEST PUSH1 0x0 DUP2 PUSH8 0xFFFFFFFFFFFFFFFF AND EQ ISZERO PUSH2 0x48A9 JUMPI PUSH1 0x0 DUP8 SWAP4 POP SWAP4 POP POP POP PUSH2 0x48D3 JUMP JUMPDEST DUP1 DUP6 PUSH1 0x20 ADD SWAP1 PUSH8 0xFFFFFFFFFFFFFFFF AND SWAP1 DUP2 PUSH8 0xFFFFFFFFFFFFFFFF AND DUP2 MSTORE POP POP PUSH1 0x1 DUP8 SWAP4 POP SWAP4 POP POP POP JUMPDEST SWAP4 POP SWAP4 SWAP2 POP POP JUMP JUMPDEST PUSH1 0x0 DUP1 PUSH1 0x0 DUP1 PUSH2 0x48EB DUP8 DUP8 PUSH2 0x5091 JUMP JUMPDEST DUP1 SWAP4 POP DUP2 SWAP10 POP DUP3 SWAP5 POP POP POP POP DUP2 PUSH2 0x490A JUMPI PUSH1 0x0 DUP8 SWAP4 POP SWAP4 POP POP POP PUSH2 0x4955 JUMP JUMPDEST PUSH1 0x0 DUP2 PUSH8 0xFFFFFFFFFFFFFFFF AND EQ ISZERO PUSH2 0x492B JUMPI PUSH1 0x0 DUP8 SWAP4 POP SWAP4 POP POP POP PUSH2 0x4955 JUMP JUMPDEST DUP1 DUP6 PUSH1 0x40 ADD SWAP1 PUSH8 0xFFFFFFFFFFFFFFFF AND SWAP1 DUP2 PUSH8 0xFFFFFFFFFFFFFFFF AND DUP2 MSTORE POP POP PUSH1 0x1 DUP8 SWAP4 POP SWAP4 POP POP POP JUMPDEST SWAP4 POP SWAP4 SWAP2 POP POP JUMP JUMPDEST PUSH1 0x0 DUP1 PUSH1 0x0 DUP1 PUSH2 0x496D DUP8 DUP8 PUSH2 0x5075 JUMP JUMPDEST DUP1 SWAP4 POP DUP2 SWAP10 POP DUP3 SWAP5 POP POP POP POP DUP2 PUSH2 0x498C JUMPI PUSH1 0x0 DUP8 SWAP4 POP SWAP4 POP POP POP PUSH2 0x4ADA JUMP JUMPDEST PUSH1 0x0 DUP2 PUSH8 0xFFFFFFFFFFFFFFFF AND EQ ISZERO PUSH2 0x49AD JUMPI PUSH1 0x0 DUP8 SWAP4 POP SWAP4 POP POP POP PUSH2 0x4ADA JUMP JUMPDEST DUP1 PUSH8 0xFFFFFFFFFFFFFFFF AND PUSH8 0xFFFFFFFFFFFFFFFF DUP2 GT ISZERO PUSH2 0x49D1 JUMPI PUSH2 0x49D0 PUSH2 0x5F9F JUMP JUMPDEST JUMPDEST PUSH1 0x40 MLOAD SWAP1 DUP1 DUP3 MSTORE DUP1 PUSH1 0x1F ADD PUSH1 0x1F NOT AND PUSH1 0x20 ADD DUP3 ADD PUSH1 0x40 MSTORE DUP1 ISZERO PUSH2 0x4A03 JUMPI DUP2 PUSH1 0x20 ADD PUSH1 0x1 DUP3 MUL DUP1 CALLDATASIZE DUP4 CALLDATACOPY DUP1 DUP3 ADD SWAP2 POP POP SWAP1 POP JUMPDEST POP DUP6 PUSH1 0x60 ADD DUP2 SWAP1 MSTORE POP PUSH1 0x0 JUMPDEST DUP2 PUSH8 0xFFFFFFFFFFFFFFFF AND DUP2 PUSH8 0xFFFFFFFFFFFFFFFF AND LT ISZERO PUSH2 0x4AC1 JUMPI DUP7 DUP2 DUP10 PUSH2 0x4A38 SWAP2 SWAP1 PUSH2 0x5B9C JUMP JUMPDEST PUSH8 0xFFFFFFFFFFFFFFFF AND DUP2 MLOAD DUP2 LT PUSH2 0x4A53 JUMPI PUSH2 0x4A52 PUSH2 0x5F70 JUMP JUMPDEST JUMPDEST PUSH1 0x20 ADD ADD MLOAD PUSH1 0xF8 SHR PUSH1 0xF8 SHL DUP7 PUSH1 0x60 ADD MLOAD DUP3 PUSH8 0xFFFFFFFFFFFFFFFF AND DUP2 MLOAD DUP2 LT PUSH2 0x4A7F JUMPI PUSH2 0x4A7E PUSH2 0x5F70 JUMP JUMPDEST JUMPDEST PUSH1 0x20 ADD ADD SWAP1 PUSH31 0xFFFFFFFFFFFFFFFFFFFFFFFFFFFFFFFFFFFFFFFFFFFFFFFFFFFFFFFFFFFFFF NOT AND SWAP1 DUP2 PUSH1 0x0 BYTE SWAP1 MSTORE8 POP DUP1 DUP1 PUSH2 0x4AB9 SWAP1 PUSH2 0x5E83 JUMP JUMPDEST SWAP2 POP POP PUSH2 0x4A0F JUMP JUMPDEST POP DUP1 DUP8 PUSH2 0x4ACE SWAP2 SWAP1 PUSH2 0x5B9C JUMP JUMPDEST SWAP7 POP PUSH1 0x1 DUP8 SWAP4 POP SWAP4 POP POP POP JUMPDEST SWAP4 POP SWAP4 SWAP2 POP POP JUMP JUMPDEST PUSH1 0x0 DUP1 PUSH1 0x0 DUP1 PUSH2 0x4AF2 DUP8 DUP8 PUSH2 0x5091 JUMP JUMPDEST DUP1 SWAP4 POP DUP2 SWAP10 POP DUP3 SWAP5 POP POP POP POP DUP2 PUSH2 0x4B11 JUMPI PUSH1 0x0 DUP8 SWAP4 POP SWAP4 POP POP POP PUSH2 0x4B5C JUMP JUMPDEST PUSH1 0x0 DUP2 PUSH8 0xFFFFFFFFFFFFFFFF AND EQ ISZERO PUSH2 0x4B32 JUMPI PUSH1 0x0 DUP8 SWAP4 POP SWAP4 POP POP POP PUSH2 0x4B5C JUMP JUMPDEST DUP1 DUP6 PUSH1 0x0 ADD SWAP1 PUSH8 0xFFFFFFFFFFFFFFFF AND SWAP1 DUP2 PUSH8 0xFFFFFFFFFFFFFFFF AND DUP2 MSTORE POP POP PUSH1 0x1 DUP8 SWAP4 POP SWAP4 POP POP POP JUMPDEST SWAP4 POP SWAP4 SWAP2 POP POP JUMP JUMPDEST PUSH1 0x0 DUP1 PUSH1 0x0 DUP1 PUSH2 0x4B74 DUP8 DUP8 PUSH2 0x5075 JUMP JUMPDEST DUP1 SWAP4 POP DUP2 SWAP10 POP DUP3 SWAP5 POP POP POP POP DUP2 PUSH2 0x4B93 JUMPI PUSH1 0x0 DUP8 SWAP4 POP SWAP4 POP POP POP PUSH2 0x4CE1 JUMP JUMPDEST PUSH1 0x0 DUP2 PUSH8 0xFFFFFFFFFFFFFFFF AND EQ ISZERO PUSH2 0x4BB4 JUMPI PUSH1 0x0 DUP8 SWAP4 POP SWAP4 POP POP POP PUSH2 0x4CE1 JUMP JUMPDEST DUP1 PUSH8 0xFFFFFFFFFFFFFFFF AND PUSH8 0xFFFFFFFFFFFFFFFF DUP2 GT ISZERO PUSH2 0x4BD8 JUMPI PUSH2 0x4BD7 PUSH2 0x5F9F JUMP JUMPDEST JUMPDEST PUSH1 0x40 MLOAD SWAP1 DUP1 DUP3 MSTORE DUP1 PUSH1 0x1F ADD PUSH1 0x1F NOT AND PUSH1 0x20 ADD DUP3 ADD PUSH1 0x40 MSTORE DUP1 ISZERO PUSH2 0x4C0A JUMPI DUP2 PUSH1 0x20 ADD PUSH1 0x1 DUP3 MUL DUP1 CALLDATASIZE DUP4 CALLDATACOPY DUP1 DUP3 ADD SWAP2 POP POP SWAP1 POP JUMPDEST POP DUP6 PUSH1 0x20 ADD DUP2 SWAP1 MSTORE POP PUSH1 0x0 JUMPDEST DUP2 PUSH8 0xFFFFFFFFFFFFFFFF AND DUP2 PUSH8 0xFFFFFFFFFFFFFFFF AND LT ISZERO PUSH2 0x4CC8 JUMPI DUP7 DUP2 DUP10 PUSH2 0x4C3F SWAP2 SWAP1 PUSH2 0x5B9C JUMP JUMPDEST PUSH8 0xFFFFFFFFFFFFFFFF AND DUP2 MLOAD DUP2 LT PUSH2 0x4C5A JUMPI PUSH2 0x4C59 PUSH2 0x5F70 JUMP JUMPDEST JUMPDEST PUSH1 0x20 ADD ADD MLOAD PUSH1 0xF8 SHR PUSH1 0xF8 SHL DUP7 PUSH1 0x20 ADD MLOAD DUP3 PUSH8 0xFFFFFFFFFFFFFFFF AND DUP2 MLOAD DUP2 LT PUSH2 0x4C86 JUMPI PUSH2 0x4C85 PUSH2 0x5F70 JUMP JUMPDEST JUMPDEST PUSH1 0x20 ADD ADD SWAP1 PUSH31 0xFFFFFFFFFFFFFFFFFFFFFFFFFFFFFFFFFFFFFFFFFFFFFFFFFFFFFFFFFFFFFF NOT AND SWAP1 DUP2 PUSH1 0x0 BYTE SWAP1 MSTORE8 POP DUP1 DUP1 PUSH2 0x4CC0 SWAP1 PUSH2 0x5E83 JUMP JUMPDEST SWAP2 POP POP PUSH2 0x4C16 JUMP JUMPDEST POP DUP1 DUP8 PUSH2 0x4CD5 SWAP2 SWAP1 PUSH2 0x5B9C JUMP JUMPDEST SWAP7 POP PUSH1 0x1 DUP8 SWAP4 POP SWAP4 POP POP POP JUMPDEST SWAP4 POP SWAP4 SWAP2 POP POP JUMP JUMPDEST PUSH1 0x0 DUP1 PUSH1 0x0 DUP1 PUSH2 0x4CF9 DUP8 DUP8 PUSH2 0x5091 JUMP JUMPDEST DUP1 SWAP4 POP DUP2 SWAP10 POP DUP3 SWAP5 POP POP POP POP DUP2 PUSH2 0x4D18 JUMPI PUSH1 0x0 DUP8 SWAP4 POP SWAP4 POP POP POP PUSH2 0x4D63 JUMP JUMPDEST PUSH1 0x0 DUP2 PUSH8 0xFFFFFFFFFFFFFFFF AND EQ ISZERO PUSH2 0x4D39 JUMPI PUSH1 0x0 DUP8 SWAP4 POP SWAP4 POP POP POP PUSH2 0x4D63 JUMP JUMPDEST DUP1 DUP6 PUSH1 0x40 ADD SWAP1 PUSH8 0xFFFFFFFFFFFFFFFF AND SWAP1 DUP2 PUSH8 0xFFFFFFFFFFFFFFFF AND DUP2 MSTORE POP POP PUSH1 0x1 DUP8 SWAP4 POP SWAP4 POP POP POP JUMPDEST SWAP4 POP SWAP4 SWAP2 POP POP JUMP JUMPDEST PUSH1 0x0 DUP1 PUSH1 0x0 DUP1 PUSH2 0x4D7B DUP8 DUP8 PUSH2 0x5075 JUMP JUMPDEST DUP1 SWAP4 POP DUP2 SWAP10 POP DUP3 SWAP5 POP POP POP POP DUP2 PUSH2 0x4D9A JUMPI PUSH1 0x0 DUP8 SWAP4 POP SWAP4 POP POP POP PUSH2 0x4EE8 JUMP JUMPDEST PUSH1 0x0 DUP2 PUSH8 0xFFFFFFFFFFFFFFFF AND EQ ISZERO PUSH2 0x4DBB JUMPI PUSH1 0x0 DUP8 SWAP4 POP SWAP4 POP POP POP PUSH2 0x4EE8 JUMP JUMPDEST DUP1 PUSH8 0xFFFFFFFFFFFFFFFF AND PUSH8 0xFFFFFFFFFFFFFFFF DUP2 GT ISZERO PUSH2 0x4DDF JUMPI PUSH2 0x4DDE PUSH2 0x5F9F JUMP JUMPDEST JUMPDEST PUSH1 0x40 MLOAD SWAP1 DUP1 DUP3 MSTORE DUP1 PUSH1 0x1F ADD PUSH1 0x1F NOT AND PUSH1 0x20 ADD DUP3 ADD PUSH1 0x40 MSTORE DUP1 ISZERO PUSH2 0x4E11 JUMPI DUP2 PUSH1 0x20 ADD PUSH1 0x1 DUP3 MUL DUP1 CALLDATASIZE DUP4 CALLDATACOPY DUP1 DUP3 ADD SWAP2 POP POP SWAP1 POP JUMPDEST POP DUP6 PUSH1 0x60 ADD DUP2 SWAP1 MSTORE POP PUSH1 0x0 JUMPDEST DUP2 PUSH8 0xFFFFFFFFFFFFFFFF AND DUP2 PUSH8 0xFFFFFFFFFFFFFFFF AND LT ISZERO PUSH2 0x4ECF JUMPI DUP7 DUP2 DUP10 PUSH2 0x4E46 SWAP2 SWAP1 PUSH2 0x5B9C JUMP JUMPDEST PUSH8 0xFFFFFFFFFFFFFFFF AND DUP2 MLOAD DUP2 LT PUSH2 0x4E61 JUMPI PUSH2 0x4E60 PUSH2 0x5F70 JUMP JUMPDEST JUMPDEST PUSH1 0x20 ADD ADD MLOAD PUSH1 0xF8 SHR PUSH1 0xF8 SHL DUP7 PUSH1 0x60 ADD MLOAD DUP3 PUSH8 0xFFFFFFFFFFFFFFFF AND DUP2 MLOAD DUP2 LT PUSH2 0x4E8D JUMPI PUSH2 0x4E8C PUSH2 0x5F70 JUMP JUMPDEST JUMPDEST PUSH1 0x20 ADD ADD SWAP1 PUSH31 0xFFFFFFFFFFFFFFFFFFFFFFFFFFFFFFFFFFFFFFFFFFFFFFFFFFFFFFFFFFFFFF NOT AND SWAP1 DUP2 PUSH1 0x0 BYTE SWAP1 MSTORE8 POP DUP1 DUP1 PUSH2 0x4EC7 SWAP1 PUSH2 0x5E83 JUMP JUMPDEST SWAP2 POP POP PUSH2 0x4E1D JUMP JUMPDEST POP DUP1 DUP8 PUSH2 0x4EDC SWAP2 SWAP1 PUSH2 0x5B9C JUMP JUMPDEST SWAP7 POP PUSH1 0x1 DUP8 SWAP4 POP SWAP4 POP POP POP JUMPDEST SWAP4 POP SWAP4 SWAP2 POP POP JUMP JUMPDEST PUSH1 0x0 DUP1 PUSH1 0x0 DUP1 PUSH2 0x4F00 DUP8 DUP8 PUSH2 0x5075 JUMP JUMPDEST DUP1 SWAP4 POP DUP2 SWAP10 POP DUP3 SWAP5 POP POP POP POP DUP2 PUSH2 0x4F1F JUMPI PUSH1 0x0 DUP8 SWAP4 POP SWAP4 POP POP POP PUSH2 0x506D JUMP JUMPDEST PUSH1 0x0 DUP2 PUSH8 0xFFFFFFFFFFFFFFFF AND EQ ISZERO PUSH2 0x4F40 JUMPI PUSH1 0x0 DUP8 SWAP4 POP SWAP4 POP POP POP PUSH2 0x506D JUMP JUMPDEST DUP1 PUSH8 0xFFFFFFFFFFFFFFFF AND PUSH8 0xFFFFFFFFFFFFFFFF DUP2 GT ISZERO PUSH2 0x4F64 JUMPI PUSH2 0x4F63 PUSH2 0x5F9F JUMP JUMPDEST JUMPDEST PUSH1 0x40 MLOAD SWAP1 DUP1 DUP3 MSTORE DUP1 PUSH1 0x1F ADD PUSH1 0x1F NOT AND PUSH1 0x20 ADD DUP3 ADD PUSH1 0x40 MSTORE DUP1 ISZERO PUSH2 0x4F96 JUMPI DUP2 PUSH1 0x20 ADD PUSH1 0x1 DUP3 MUL DUP1 CALLDATASIZE DUP4 CALLDATACOPY DUP1 DUP3 ADD SWAP2 POP POP SWAP1 POP JUMPDEST POP DUP6 PUSH1 0x80 ADD DUP2 SWAP1 MSTORE POP PUSH1 0x0 JUMPDEST DUP2 PUSH8 0xFFFFFFFFFFFFFFFF AND DUP2 PUSH8 0xFFFFFFFFFFFFFFFF AND LT ISZERO PUSH2 0x5054 JUMPI DUP7 DUP2 DUP10 PUSH2 0x4FCB SWAP2 SWAP1 PUSH2 0x5B9C JUMP JUMPDEST PUSH8 0xFFFFFFFFFFFFFFFF AND DUP2 MLOAD DUP2 LT PUSH2 0x4FE6 JUMPI PUSH2 0x4FE5 PUSH2 0x5F70 JUMP JUMPDEST JUMPDEST PUSH1 0x20 ADD ADD MLOAD PUSH1 0xF8 SHR PUSH1 0xF8 SHL DUP7 PUSH1 0x80 ADD MLOAD DUP3 PUSH8 0xFFFFFFFFFFFFFFFF AND DUP2 MLOAD DUP2 LT PUSH2 0x5012 JUMPI PUSH2 0x5011 PUSH2 0x5F70 JUMP JUMPDEST JUMPDEST PUSH1 0x20 ADD ADD SWAP1 PUSH31 0xFFFFFFFFFFFFFFFFFFFFFFFFFFFFFFFFFFFFFFFFFFFFFFFFFFFFFFFFFFFFFF NOT AND SWAP1 DUP2 PUSH1 0x0 BYTE SWAP1 MSTORE8 POP DUP1 DUP1 PUSH2 0x504C SWAP1 PUSH2 0x5E83 JUMP JUMPDEST SWAP2 POP POP PUSH2 0x4FA2 JUMP JUMPDEST POP DUP1 DUP8 PUSH2 0x5061 SWAP2 SWAP1 PUSH2 0x5B9C JUMP JUMPDEST SWAP7 POP PUSH1 0x1 DUP8 SWAP4 POP SWAP4 POP POP POP JUMPDEST SWAP4 POP SWAP4 SWAP2 POP POP JUMP JUMPDEST PUSH1 0x0 DUP1 PUSH1 0x0 PUSH2 0x5084 DUP6 DUP6 PUSH2 0x50D7 JUMP JUMPDEST SWAP3 POP SWAP3 POP SWAP3 POP SWAP3 POP SWAP3 POP SWAP3 JUMP JUMPDEST PUSH1 0x0 DUP1 PUSH1 0x0 DUP1 PUSH1 0x0 DUP1 PUSH2 0x50A4 DUP9 DUP9 PUSH2 0x36AB JUMP JUMPDEST SWAP3 POP SWAP3 POP SWAP3 POP DUP3 PUSH2 0x50C2 JUMPI PUSH1 0x0 DUP3 PUSH1 0x0 SWAP6 POP SWAP6 POP SWAP6 POP POP POP POP PUSH2 0x50D0 JUMP JUMPDEST PUSH1 0x1 DUP3 DUP3 SWAP6 POP SWAP6 POP SWAP6 POP POP POP POP JUMPDEST SWAP3 POP SWAP3 POP SWAP3 JUMP JUMPDEST PUSH1 0x0 DUP1 PUSH1 0x0 DUP1 PUSH1 0x0 DUP1 PUSH2 0x50EA DUP9 DUP9 PUSH2 0x36AB JUMP JUMPDEST SWAP3 POP SWAP3 POP SWAP3 POP DUP3 PUSH2 0x5108 JUMPI PUSH1 0x0 DUP3 PUSH1 0x0 SWAP6 POP SWAP6 POP SWAP6 POP POP POP POP PUSH2 0x5178 JUMP JUMPDEST DUP2 PUSH8 0xFFFFFFFFFFFFFFFF AND DUP2 DUP4 ADD PUSH8 0xFFFFFFFFFFFFFFFF AND LT ISZERO PUSH2 0x5139 JUMPI PUSH1 0x0 DUP3 PUSH1 0x0 SWAP6 POP SWAP6 POP SWAP6 POP POP POP POP PUSH2 0x5178 JUMP JUMPDEST DUP7 MLOAD DUP3 DUP3 PUSH2 0x5147 SWAP2 SWAP1 PUSH2 0x5B9C JUMP JUMPDEST PUSH8 0xFFFFFFFFFFFFFFFF AND GT ISZERO PUSH2 0x516A JUMPI PUSH1 0x0 DUP3 PUSH1 0x0 SWAP6 POP SWAP6 POP SWAP6 POP POP POP POP PUSH2 0x5178 JUMP JUMPDEST PUSH1 0x1 DUP3 DUP3 SWAP6 POP SWAP6 POP SWAP6 POP POP POP POP JUMPDEST SWAP3 POP SWAP3 POP SWAP3 JUMP JUMPDEST POP DUP1 SLOAD PUSH1 0x0 DUP3 SSTORE SWAP1 PUSH1 0x0 MSTORE PUSH1 0x20 PUSH1 0x0 KECCAK256 SWAP1 DUP2 ADD SWAP1 PUSH2 0x519D SWAP2 SWAP1 PUSH2 0x5403 JUMP JUMPDEST POP JUMP JUMPDEST DUP3 DUP1 SLOAD PUSH2 0x51AC SWAP1 PUSH2 0x5DD7 JUMP JUMPDEST SWAP1 PUSH1 0x0 MSTORE PUSH1 0x20 PUSH1 0x0 KECCAK256 SWAP1 PUSH1 0x1F ADD PUSH1 0x20 SWAP1 DIV DUP2 ADD SWAP3 DUP3 PUSH2 0x51CE JUMPI PUSH1 0x0 DUP6 SSTORE PUSH2 0x5215 JUMP JUMPDEST DUP3 PUSH1 0x1F LT PUSH2 0x51E7 JUMPI DUP1 MLOAD PUSH1 0xFF NOT AND DUP4 DUP1 ADD OR DUP6 SSTORE PUSH2 0x5215 JUMP JUMPDEST DUP3 DUP1 ADD PUSH1 0x1 ADD DUP6 SSTORE DUP3 ISZERO PUSH2 0x5215 JUMPI SWAP2 DUP3 ADD JUMPDEST DUP3 DUP2 GT ISZERO PUSH2 0x5214 JUMPI DUP3 MLOAD DUP3 SSTORE SWAP2 PUSH1 0x20 ADD SWAP2 SWAP1 PUSH1 0x1 ADD SWAP1 PUSH2 0x51F9 JUMP JUMPDEST JUMPDEST POP SWAP1 POP PUSH2 0x5222 SWAP2 SWAP1 PUSH2 0x5403 JUMP JUMPDEST POP SWAP1 JUMP JUMPDEST PUSH1 0x40 MLOAD DUP1 PUSH1 0xA0 ADD PUSH1 0x40 MSTORE DUP1 PUSH1 0x60 DUP2 MSTORE PUSH1 0x20 ADD PUSH1 0x60 DUP2 MSTORE PUSH1 0x20 ADD PUSH1 0x0 PUSH8 0xFFFFFFFFFFFFFFFF AND DUP2 MSTORE PUSH1 0x20 ADD PUSH1 0x0 PUSH8 0xFFFFFFFFFFFFFFFF AND DUP2 MSTORE PUSH1 0x20 ADD PUSH1 0x60 DUP2 MSTORE POP SWAP1 JUMP JUMPDEST DUP3 DUP1 SLOAD PUSH2 0x5275 SWAP1 PUSH2 0x5DD7 JUMP JUMPDEST SWAP1 PUSH1 0x0 MSTORE PUSH1 0x20 PUSH1 0x0 KECCAK256 SWAP1 PUSH1 0x1F ADD PUSH1 0x20 SWAP1 DIV DUP2 ADD SWAP3 DUP3 PUSH2 0x5297 JUMPI PUSH1 0x0 DUP6 SSTORE PUSH2 0x52DE JUMP JUMPDEST DUP3 PUSH1 0x1F LT PUSH2 0x52B0 JUMPI DUP1 MLOAD PUSH1 0xFF NOT AND DUP4 DUP1 ADD OR DUP6 SSTORE PUSH2 0x52DE JUMP JUMPDEST DUP3 DUP1 ADD PUSH1 0x1 ADD DUP6 SSTORE DUP3 ISZERO PUSH2 0x52DE JUMPI SWAP2 DUP3 ADD JUMPDEST DUP3 DUP2 GT ISZERO PUSH2 0x52DD JUMPI DUP3 MLOAD DUP3 SSTORE SWAP2 PUSH1 0x20 ADD SWAP2 SWAP1 PUSH1 0x1 ADD SWAP1 PUSH2 0x52C2 JUMP JUMPDEST JUMPDEST POP SWAP1 POP PUSH2 0x52EB SWAP2 SWAP1 PUSH2 0x5403 JUMP JUMPDEST POP SWAP1 JUMP JUMPDEST PUSH1 0x40 MLOAD DUP1 PUSH1 0x60 ADD PUSH1 0x40 MSTORE DUP1 PUSH1 0x60 DUP2 MSTORE PUSH1 0x20 ADD PUSH1 0x0 PUSH8 0xFFFFFFFFFFFFFFFF AND DUP2 MSTORE PUSH1 0x20 ADD PUSH1 0x60 DUP2 MSTORE POP SWAP1 JUMP JUMPDEST PUSH1 0x40 MLOAD DUP1 PUSH1 0x60 ADD PUSH1 0x40 MSTORE DUP1 PUSH1 0x60 DUP2 MSTORE PUSH1 0x20 ADD PUSH1 0x0 PUSH8 0xFFFFFFFFFFFFFFFF AND DUP2 MSTORE PUSH1 0x20 ADD PUSH1 0x60 DUP2 MSTORE POP SWAP1 JUMP JUMPDEST PUSH1 0x40 MLOAD DUP1 PUSH1 0x60 ADD PUSH1 0x40 MSTORE DUP1 PUSH1 0x0 PUSH8 0xFFFFFFFFFFFFFFFF AND DUP2 MSTORE PUSH1 0x20 ADD PUSH1 0x0 PUSH8 0xFFFFFFFFFFFFFFFF AND DUP2 MSTORE PUSH1 0x20 ADD PUSH1 0x60 DUP2 MSTORE POP SWAP1 JUMP JUMPDEST PUSH1 0x40 MLOAD DUP1 PUSH1 0x80 ADD PUSH1 0x40 MSTORE DUP1 PUSH1 0x0 PUSH8 0xFFFFFFFFFFFFFFFF AND DUP2 MSTORE PUSH1 0x20 ADD PUSH1 0x0 PUSH8 0xFFFFFFFFFFFFFFFF AND DUP2 MSTORE PUSH1 0x20 ADD PUSH1 0x0 PUSH8 0xFFFFFFFFFFFFFFFF AND DUP2 MSTORE PUSH1 0x20 ADD PUSH1 0x60 DUP2 MSTORE POP SWAP1 JUMP JUMPDEST PUSH1 0x40 MLOAD DUP1 PUSH1 0xA0 ADD PUSH1 0x40 MSTORE DUP1 PUSH1 0x0 PUSH8 0xFFFFFFFFFFFFFFFF AND DUP2 MSTORE PUSH1 0x20 ADD PUSH1 0x60 DUP2 MSTORE PUSH1 0x20 ADD PUSH1 0x0 PUSH8 0xFFFFFFFFFFFFFFFF AND DUP2 MSTORE PUSH1 0x20 ADD PUSH1 0x60 DUP2 MSTORE PUSH1 0x20 ADD PUSH1 0x60 DUP2 MSTORE POP SWAP1 JUMP JUMPDEST JUMPDEST DUP1 DUP3 GT ISZERO PUSH2 0x541C JUMPI PUSH1 0x0 DUP2 PUSH1 0x0 SWAP1 SSTORE POP PUSH1 0x1 ADD PUSH2 0x5404 JUMP JUMPDEST POP SWAP1 JUMP JUMPDEST PUSH1 0x0 PUSH2 0x5433 PUSH2 0x542E DUP5 PUSH2 0x5ADD JUMP JUMPDEST PUSH2 0x5AB8 JUMP JUMPDEST SWAP1 POP DUP3 DUP2 MSTORE PUSH1 0x20 DUP2 ADD DUP5 DUP5 DUP5 ADD GT ISZERO PUSH2 0x544F JUMPI PUSH2 0x544E PUSH2 0x5FDD JUMP JUMPDEST JUMPDEST PUSH2 0x545A DUP5 DUP3 DUP6 PUSH2 0x5D6B JUMP JUMPDEST POP SWAP4 SWAP3 POP POP POP JUMP JUMPDEST PUSH1 0x0 DUP2 CALLDATALOAD SWAP1 POP PUSH2 0x5471 DUP2 PUSH2 0x638E JUMP JUMPDEST SWAP3 SWAP2 POP POP JUMP JUMPDEST PUSH1 0x0 DUP3 PUSH1 0x1F DUP4 ADD SLT PUSH2 0x548C JUMPI PUSH2 0x548B PUSH2 0x5FCE JUMP JUMPDEST JUMPDEST DUP2 CALLDATALOAD PUSH2 0x549C DUP5 DUP3 PUSH1 0x20 DUP7 ADD PUSH2 0x5420 JUMP JUMPDEST SWAP2 POP POP SWAP3 SWAP2 POP POP JUMP JUMPDEST PUSH1 0x0 DUP2 CALLDATALOAD SWAP1 POP PUSH2 0x54B4 DUP2 PUSH2 0x63A5 JUMP JUMPDEST SWAP3 SWAP2 POP POP JUMP JUMPDEST PUSH1 0x0 PUSH1 0x60 DUP3 DUP5 SUB SLT ISZERO PUSH2 0x54D0 JUMPI PUSH2 0x54CF PUSH2 0x5FD3 JUMP JUMPDEST JUMPDEST PUSH2 0x54DA PUSH1 0x60 PUSH2 0x5AB8 JUMP JUMPDEST SWAP1 POP PUSH1 0x0 PUSH2 0x54EA DUP5 DUP3 DUP6 ADD PUSH2 0x554F JUMP JUMPDEST PUSH1 0x0 DUP4 ADD MSTORE POP PUSH1 0x20 PUSH2 0x54FE DUP5 DUP3 DUP6 ADD PUSH2 0x54A5 JUMP JUMPDEST PUSH1 0x20 DUP4 ADD MSTORE POP PUSH1 0x40 DUP3 ADD CALLDATALOAD PUSH8 0xFFFFFFFFFFFFFFFF DUP2 GT ISZERO PUSH2 0x5522 JUMPI PUSH2 0x5521 PUSH2 0x5FD8 JUMP JUMPDEST JUMPDEST PUSH2 0x552E DUP5 DUP3 DUP6 ADD PUSH2 0x5477 JUMP JUMPDEST PUSH1 0x40 DUP4 ADD MSTORE POP SWAP3 SWAP2 POP POP JUMP JUMPDEST PUSH1 0x0 DUP2 CALLDATALOAD SWAP1 POP PUSH2 0x5549 DUP2 PUSH2 0x63B5 JUMP JUMPDEST SWAP3 SWAP2 POP POP JUMP JUMPDEST PUSH1 0x0 DUP2 CALLDATALOAD SWAP1 POP PUSH2 0x555E DUP2 PUSH2 0x63CC JUMP JUMPDEST SWAP3 SWAP2 POP POP JUMP JUMPDEST PUSH1 0x0 PUSH1 0x20 DUP3 DUP5 SUB SLT ISZERO PUSH2 0x557A JUMPI PUSH2 0x5579 PUSH2 0x5FE7 JUMP JUMPDEST JUMPDEST PUSH1 0x0 PUSH2 0x5588 DUP5 DUP3 DUP6 ADD PUSH2 0x5462 JUMP JUMPDEST SWAP2 POP POP SWAP3 SWAP2 POP POP JUMP JUMPDEST PUSH1 0x0 PUSH1 0x20 DUP3 DUP5 SUB SLT ISZERO PUSH2 0x55A7 JUMPI PUSH2 0x55A6 PUSH2 0x5FE7 JUMP JUMPDEST JUMPDEST PUSH1 0x0 DUP3 ADD CALLDATALOAD PUSH8 0xFFFFFFFFFFFFFFFF DUP2 GT ISZERO PUSH2 0x55C5 JUMPI PUSH2 0x55C4 PUSH2 0x5FE2 JUMP JUMPDEST JUMPDEST PUSH2 0x55D1 DUP5 DUP3 DUP6 ADD PUSH2 0x54BA JUMP JUMPDEST SWAP2 POP POP SWAP3 SWAP2 POP POP JUMP JUMPDEST PUSH1 0x0 PUSH1 0x20 DUP3 DUP5 SUB SLT ISZERO PUSH2 0x55F0 JUMPI PUSH2 0x55EF PUSH2 0x5FE7 JUMP JUMPDEST JUMPDEST PUSH1 0x0 PUSH2 0x55FE DUP5 DUP3 DUP6 ADD PUSH2 0x553A JUMP JUMPDEST SWAP2 POP POP SWAP3 SWAP2 POP POP JUMP JUMPDEST PUSH2 0x5610 DUP2 PUSH2 0x5D0F JUMP JUMPDEST DUP3 MSTORE POP POP JUMP JUMPDEST PUSH2 0x561F DUP2 PUSH2 0x5D21 JUMP JUMPDEST DUP3 MSTORE POP POP JUMP JUMPDEST PUSH1 0x0 PUSH2 0x5630 DUP3 PUSH2 0x5B0E JUMP JUMPDEST PUSH2 0x563A DUP2 DUP6 PUSH2 0x5B19 JUMP JUMPDEST SWAP4 POP PUSH2 0x564A DUP2 DUP6 PUSH1 0x20 DUP7 ADD PUSH2 0x5D7A JUMP JUMPDEST PUSH2 0x5653 DUP2 PUSH2 0x5FEC JUMP JUMPDEST DUP5 ADD SWAP2 POP POP SWAP3 SWAP2 POP POP JUMP JUMPDEST PUSH1 0x0 PUSH2 0x5669 DUP3 PUSH2 0x5B0E JUMP JUMPDEST PUSH2 0x5673 DUP2 DUP6 PUSH2 0x5B2A JUMP JUMPDEST SWAP4 POP PUSH2 0x5683 DUP2 DUP6 PUSH1 0x20 DUP7 ADD PUSH2 0x5D7A JUMP JUMPDEST DUP1 DUP5 ADD SWAP2 POP POP SWAP3 SWAP2 POP POP JUMP JUMPDEST PUSH1 0x0 PUSH2 0x569C PUSH1 0x2A DUP4 PUSH2 0x5B35 JUMP JUMPDEST SWAP2 POP PUSH2 0x56A7 DUP3 PUSH2 0x5FFD JUMP JUMPDEST PUSH1 0x40 DUP3 ADD SWAP1 POP SWAP2 SWAP1 POP JUMP JUMPDEST PUSH1 0x0 PUSH2 0x56BF PUSH1 0x26 DUP4 PUSH2 0x5B35 JUMP JUMPDEST SWAP2 POP PUSH2 0x56CA DUP3 PUSH2 0x604C JUMP JUMPDEST PUSH1 0x40 DUP3 ADD SWAP1 POP SWAP2 SWAP1 POP JUMP JUMPDEST PUSH1 0x0 PUSH2 0x56E2 PUSH1 0x2C DUP4 PUSH2 0x5B35 JUMP JUMPDEST SWAP2 POP PUSH2 0x56ED DUP3 PUSH2 0x609B JUMP JUMPDEST PUSH1 0x40 DUP3 ADD SWAP1 POP SWAP2 SWAP1 POP JUMP JUMPDEST PUSH1 0x0 PUSH2 0x5705 PUSH1 0x2C DUP4 PUSH2 0x5B35 JUMP JUMPDEST SWAP2 POP PUSH2 0x5710 DUP3 PUSH2 0x60EA JUMP JUMPDEST PUSH1 0x40 DUP3 ADD SWAP1 POP SWAP2 SWAP1 POP JUMP JUMPDEST PUSH1 0x0 PUSH2 0x5728 PUSH1 0x16 DUP4 PUSH2 0x5B35 JUMP JUMPDEST SWAP2 POP PUSH2 0x5733 DUP3 PUSH2 0x6139 JUMP JUMPDEST PUSH1 0x20 DUP3 ADD SWAP1 POP SWAP2 SWAP1 POP JUMP JUMPDEST PUSH1 0x0 PUSH2 0x574B PUSH1 0x31 DUP4 PUSH2 0x5B35 JUMP JUMPDEST SWAP2 POP PUSH2 0x5756 DUP3 PUSH2 0x6162 JUMP JUMPDEST PUSH1 0x40 DUP3 ADD SWAP1 POP SWAP2 SWAP1 POP JUMP JUMPDEST PUSH1 0x0 PUSH2 0x576E PUSH1 0x2C DUP4 PUSH2 0x5B35 JUMP JUMPDEST SWAP2 POP PUSH2 0x5779 DUP3 PUSH2 0x61B1 JUMP JUMPDEST PUSH1 0x40 DUP3 ADD SWAP1 POP SWAP2 SWAP1 POP JUMP JUMPDEST PUSH1 0x0 PUSH2 0x5791 PUSH1 0x20 DUP4 PUSH2 0x5B35 JUMP JUMPDEST SWAP2 POP PUSH2 0x579C DUP3 PUSH2 0x6200 JUMP JUMPDEST PUSH1 0x20 DUP3 ADD SWAP1 POP SWAP2 SWAP1 POP JUMP JUMPDEST PUSH1 0x0 PUSH2 0x57B4 PUSH1 0x24 DUP4 PUSH2 0x5B35 JUMP JUMPDEST SWAP2 POP PUSH2 0x57BF DUP3 PUSH2 0x6229 JUMP JUMPDEST PUSH1 0x40 DUP3 ADD SWAP1 POP SWAP2 SWAP1 POP JUMP JUMPDEST PUSH1 0x0 PUSH2 0x57D7 PUSH1 0x28 DUP4 PUSH2 0x5B35 JUMP JUMPDEST SWAP2 POP PUSH2 0x57E2 DUP3 PUSH2 0x6278 JUMP JUMPDEST PUSH1 0x40 DUP3 ADD SWAP1 POP SWAP2 SWAP1 POP JUMP JUMPDEST PUSH1 0x0 PUSH2 0x57FA PUSH1 0x2A DUP4 PUSH2 0x5B35 JUMP JUMPDEST SWAP2 POP PUSH2 0x5805 DUP3 PUSH2 0x62C7 JUMP JUMPDEST PUSH1 0x40 DUP3 ADD SWAP1 POP SWAP2 SWAP1 POP JUMP JUMPDEST PUSH1 0x0 PUSH2 0x581D PUSH1 0x14 DUP4 PUSH2 0x5B35 JUMP JUMPDEST SWAP2 POP PUSH2 0x5828 DUP3 PUSH2 0x6316 JUMP JUMPDEST PUSH1 0x20 DUP3 ADD SWAP1 POP SWAP2 SWAP1 POP JUMP JUMPDEST PUSH1 0x0 PUSH2 0x5840 PUSH1 0x2E DUP4 PUSH2 0x5B35 JUMP JUMPDEST SWAP2 POP PUSH2 0x584B DUP3 PUSH2 0x633F JUMP JUMPDEST PUSH1 0x40 DUP3 ADD SWAP1 POP SWAP2 SWAP1 POP JUMP JUMPDEST PUSH2 0x585F DUP2 PUSH2 0x5D4D JUMP JUMPDEST DUP3 MSTORE POP POP JUMP JUMPDEST PUSH1 0x0 PUSH2 0x5871 DUP3 DUP5 PUSH2 0x565E JUMP JUMPDEST SWAP2 POP DUP2 SWAP1 POP SWAP3 SWAP2 POP POP JUMP JUMPDEST PUSH1 0x0 PUSH1 0x20 DUP3 ADD SWAP1 POP PUSH2 0x5891 PUSH1 0x0 DUP4 ADD DUP5 PUSH2 0x5607 JUMP JUMPDEST SWAP3 SWAP2 POP POP JUMP JUMPDEST PUSH1 0x0 PUSH1 0x20 DUP3 ADD SWAP1 POP PUSH2 0x58AC PUSH1 0x0 DUP4 ADD DUP5 PUSH2 0x5616 JUMP JUMPDEST SWAP3 SWAP2 POP POP JUMP JUMPDEST PUSH1 0x0 PUSH1 0x20 DUP3 ADD SWAP1 POP DUP2 DUP2 SUB PUSH1 0x0 DUP4 ADD MSTORE PUSH2 0x58CC DUP2 DUP5 PUSH2 0x5625 JUMP JUMPDEST SWAP1 POP SWAP3 SWAP2 POP POP JUMP JUMPDEST PUSH1 0x0 PUSH1 0x20 DUP3 ADD SWAP1 POP DUP2 DUP2 SUB PUSH1 0x0 DUP4 ADD MSTORE PUSH2 0x58ED DUP2 PUSH2 0x568F JUMP JUMPDEST SWAP1 POP SWAP2 SWAP1 POP JUMP JUMPDEST PUSH1 0x0 PUSH1 0x20 DUP3 ADD SWAP1 POP DUP2 DUP2 SUB PUSH1 0x0 DUP4 ADD MSTORE PUSH2 0x590D DUP2 PUSH2 0x56B2 JUMP JUMPDEST SWAP1 POP SWAP2 SWAP1 POP JUMP JUMPDEST PUSH1 0x0 PUSH1 0x20 DUP3 ADD SWAP1 POP DUP2 DUP2 SUB PUSH1 0x0 DUP4 ADD MSTORE PUSH2 0x592D DUP2 PUSH2 0x56D5 JUMP JUMPDEST SWAP1 POP SWAP2 SWAP1 POP JUMP JUMPDEST PUSH1 0x0 PUSH1 0x20 DUP3 ADD SWAP1 POP DUP2 DUP2 SUB PUSH1 0x0 DUP4 ADD MSTORE PUSH2 0x594D DUP2 PUSH2 0x56F8 JUMP JUMPDEST SWAP1 POP SWAP2 SWAP1 POP JUMP JUMPDEST PUSH1 0x0 PUSH1 0x20 DUP3 ADD SWAP1 POP DUP2 DUP2 SUB PUSH1 0x0 DUP4 ADD MSTORE PUSH2 0x596D DUP2 PUSH2 0x571B JUMP JUMPDEST SWAP1 POP SWAP2 SWAP1 POP JUMP JUMPDEST PUSH1 0x0 PUSH1 0x20 DUP3 ADD SWAP1 POP DUP2 DUP2 SUB PUSH1 0x0 DUP4 ADD MSTORE PUSH2 0x598D DUP2 PUSH2 0x573E JUMP JUMPDEST SWAP1 POP SWAP2 SWAP1 POP JUMP JUMPDEST PUSH1 0x0 PUSH1 0x20 DUP3 ADD SWAP1 POP DUP2 DUP2 SUB PUSH1 0x0 DUP4 ADD MSTORE PUSH2 0x59AD DUP2 PUSH2 0x5761 JUMP JUMPDEST SWAP1 POP SWAP2 SWAP1 POP JUMP JUMPDEST PUSH1 0x0 PUSH1 0x20 DUP3 ADD SWAP1 POP DUP2 DUP2 SUB PUSH1 0x0 DUP4 ADD MSTORE PUSH2 0x59CD DUP2 PUSH2 0x5784 JUMP JUMPDEST SWAP1 POP SWAP2 SWAP1 POP JUMP JUMPDEST PUSH1 0x0 PUSH1 0x20 DUP3 ADD SWAP1 POP DUP2 DUP2 SUB PUSH1 0x0 DUP4 ADD MSTORE PUSH2 0x59ED DUP2 PUSH2 0x57A7 JUMP JUMPDEST SWAP1 POP SWAP2 SWAP1 POP JUMP JUMPDEST PUSH1 0x0 PUSH1 0x20 DUP3 ADD SWAP1 POP DUP2 DUP2 SUB PUSH1 0x0 DUP4 ADD MSTORE PUSH2 0x5A0D DUP2 PUSH2 0x57CA JUMP JUMPDEST SWAP1 POP SWAP2 SWAP1 POP JUMP JUMPDEST PUSH1 0x0 PUSH1 0x20 DUP3 ADD SWAP1 POP DUP2 DUP2 SUB PUSH1 0x0 DUP4 ADD MSTORE PUSH2 0x5A2D DUP2 PUSH2 0x57ED JUMP JUMPDEST SWAP1 POP SWAP2 SWAP1 POP JUMP JUMPDEST PUSH1 0x0 PUSH1 0x20 DUP3 ADD SWAP1 POP DUP2 DUP2 SUB PUSH1 0x0 DUP4 ADD MSTORE PUSH2 0x5A4D DUP2 PUSH2 0x5810 JUMP JUMPDEST SWAP1 POP SWAP2 SWAP1 POP JUMP JUMPDEST PUSH1 0x0 PUSH1 0x20 DUP3 ADD SWAP1 POP DUP2 DUP2 SUB PUSH1 0x0 DUP4 ADD MSTORE PUSH2 0x5A6D DUP2 PUSH2 0x5833 JUMP JUMPDEST SWAP1 POP SWAP2 SWAP1 POP JUMP JUMPDEST PUSH1 0x0 PUSH1 0x20 DUP3 ADD SWAP1 POP PUSH2 0x5A89 PUSH1 0x0 DUP4 ADD DUP5 PUSH2 0x5856 JUMP JUMPDEST SWAP3 SWAP2 POP POP JUMP JUMPDEST PUSH1 0x0 PUSH1 0x40 DUP3 ADD SWAP1 POP PUSH2 0x5AA4 PUSH1 0x0 DUP4 ADD DUP6 PUSH2 0x5856 JUMP JUMPDEST PUSH2 0x5AB1 PUSH1 0x20 DUP4 ADD DUP5 PUSH2 0x5856 JUMP JUMPDEST SWAP4 SWAP3 POP POP POP JUMP JUMPDEST PUSH1 0x0 PUSH2 0x5AC2 PUSH2 0x5AD3 JUMP JUMPDEST SWAP1 POP PUSH2 0x5ACE DUP3 DUP3 PUSH2 0x5E09 JUMP JUMPDEST SWAP2 SWAP1 POP JUMP JUMPDEST PUSH1 0x0 PUSH1 0x40 MLOAD SWAP1 POP SWAP1 JUMP JUMPDEST PUSH1 0x0 PUSH8 0xFFFFFFFFFFFFFFFF DUP3 GT ISZERO PUSH2 0x5AF8 JUMPI PUSH2 0x5AF7 PUSH2 0x5F9F JUMP JUMPDEST JUMPDEST PUSH2 0x5B01 DUP3 PUSH2 0x5FEC JUMP JUMPDEST SWAP1 POP PUSH1 0x20 DUP2 ADD SWAP1 POP SWAP2 SWAP1 POP JUMP JUMPDEST PUSH1 0x0 DUP2 MLOAD SWAP1 POP SWAP2 SWAP1 POP JUMP JUMPDEST PUSH1 0x0 DUP3 DUP3 MSTORE PUSH1 0x20 DUP3 ADD SWAP1 POP SWAP3 SWAP2 POP POP JUMP JUMPDEST PUSH1 0x0 DUP2 SWAP1 POP SWAP3 SWAP2 POP POP JUMP JUMPDEST PUSH1 0x0 DUP3 DUP3 MSTORE PUSH1 0x20 DUP3 ADD SWAP1 POP SWAP3 SWAP2 POP POP JUMP JUMPDEST PUSH1 0x0 PUSH2 0x5B51 DUP3 PUSH2 0x5D4D JUMP JUMPDEST SWAP2 POP PUSH2 0x5B5C DUP4 PUSH2 0x5D4D JUMP JUMPDEST SWAP3 POP DUP3 PUSH32 0xFFFFFFFFFFFFFFFFFFFFFFFFFFFFFFFFFFFFFFFFFFFFFFFFFFFFFFFFFFFFFFFF SUB DUP3 GT ISZERO PUSH2 0x5B91 JUMPI PUSH2 0x5B90 PUSH2 0x5EB4 JUMP JUMPDEST JUMPDEST DUP3 DUP3 ADD SWAP1 POP SWAP3 SWAP2 POP POP JUMP JUMPDEST PUSH1 0x0 PUSH2 0x5BA7 DUP3 PUSH2 0x5D57 JUMP JUMPDEST SWAP2 POP PUSH2 0x5BB2 DUP4 PUSH2 0x5D57 JUMP JUMPDEST SWAP3 POP DUP3 PUSH8 0xFFFFFFFFFFFFFFFF SUB DUP3 GT ISZERO PUSH2 0x5BCF JUMPI PUSH2 0x5BCE PUSH2 0x5EB4 JUMP JUMPDEST JUMPDEST DUP3 DUP3 ADD SWAP1 POP SWAP3 SWAP2 POP POP JUMP JUMPDEST PUSH1 0x0 PUSH2 0x5BE5 DUP3 PUSH2 0x5D4D JUMP JUMPDEST SWAP2 POP PUSH2 0x5BF0 DUP4 PUSH2 0x5D4D JUMP JUMPDEST SWAP3 POP DUP3 PUSH2 0x5C00 JUMPI PUSH2 0x5BFF PUSH2 0x5EE3 JUMP JUMPDEST JUMPDEST DUP3 DUP3 DIV SWAP1 POP SWAP3 SWAP2 POP POP JUMP JUMPDEST PUSH1 0x0 PUSH2 0x5C16 DUP3 PUSH2 0x5D4D JUMP JUMPDEST SWAP2 POP PUSH2 0x5C21 DUP4 PUSH2 0x5D4D JUMP JUMPDEST SWAP3 POP DUP2 PUSH32 0xFFFFFFFFFFFFFFFFFFFFFFFFFFFFFFFFFFFFFFFFFFFFFFFFFFFFFFFFFFFFFFFF DIV DUP4 GT DUP3 ISZERO ISZERO AND ISZERO PUSH2 0x5C5A JUMPI PUSH2 0x5C59 PUSH2 0x5EB4 JUMP JUMPDEST JUMPDEST DUP3 DUP3 MUL SWAP1 POP SWAP3 SWAP2 POP POP JUMP JUMPDEST PUSH1 0x0 PUSH2 0x5C70 DUP3 PUSH2 0x5D57 JUMP JUMPDEST SWAP2 POP PUSH2 0x5C7B DUP4 PUSH2 0x5D57 JUMP JUMPDEST SWAP3 POP DUP2 PUSH8 0xFFFFFFFFFFFFFFFF DIV DUP4 GT DUP3 ISZERO ISZERO AND ISZERO PUSH2 0x5C9C JUMPI PUSH2 0x5C9B PUSH2 0x5EB4 JUMP JUMPDEST JUMPDEST DUP3 DUP3 MUL SWAP1 POP SWAP3 SWAP2 POP POP JUMP JUMPDEST PUSH1 0x0 PUSH2 0x5CB2 DUP3 PUSH2 0x5D4D JUMP JUMPDEST SWAP2 POP PUSH2 0x5CBD DUP4 PUSH2 0x5D4D JUMP JUMPDEST SWAP3 POP DUP3 DUP3 LT ISZERO PUSH2 0x5CD0 JUMPI PUSH2 0x5CCF PUSH2 0x5EB4 JUMP JUMPDEST JUMPDEST DUP3 DUP3 SUB SWAP1 POP SWAP3 SWAP2 POP POP JUMP JUMPDEST PUSH1 0x0 PUSH2 0x5CE6 DUP3 PUSH2 0x5D57 JUMP JUMPDEST SWAP2 POP PUSH2 0x5CF1 DUP4 PUSH2 0x5D57 JUMP JUMPDEST SWAP3 POP DUP3 DUP3 LT ISZERO PUSH2 0x5D04 JUMPI PUSH2 0x5D03 PUSH2 0x5EB4 JUMP JUMPDEST JUMPDEST DUP3 DUP3 SUB SWAP1 POP SWAP3 SWAP2 POP POP JUMP JUMPDEST PUSH1 0x0 PUSH2 0x5D1A DUP3 PUSH2 0x5D2D JUMP JUMPDEST SWAP1 POP SWAP2 SWAP1 POP JUMP JUMPDEST PUSH1 0x0 DUP2 ISZERO ISZERO SWAP1 POP SWAP2 SWAP1 POP JUMP JUMPDEST PUSH1 0x0 PUSH20 0xFFFFFFFFFFFFFFFFFFFFFFFFFFFFFFFFFFFFFFFF DUP3 AND SWAP1 POP SWAP2 SWAP1 POP JUMP JUMPDEST PUSH1 0x0 DUP2 SWAP1 POP SWAP2 SWAP1 POP JUMP JUMPDEST PUSH1 0x0 PUSH8 0xFFFFFFFFFFFFFFFF DUP3 AND SWAP1 POP SWAP2 SWAP1 POP JUMP JUMPDEST DUP3 DUP2 DUP4 CALLDATACOPY PUSH1 0x0 DUP4 DUP4 ADD MSTORE POP POP POP JUMP JUMPDEST PUSH1 0x0 JUMPDEST DUP4 DUP2 LT ISZERO PUSH2 0x5D98 JUMPI DUP1 DUP3 ADD MLOAD DUP2 DUP5 ADD MSTORE PUSH1 0x20 DUP2 ADD SWAP1 POP PUSH2 0x5D7D JUMP JUMPDEST DUP4 DUP2 GT ISZERO PUSH2 0x5DA7 JUMPI PUSH1 0x0 DUP5 DUP5 ADD MSTORE JUMPDEST POP POP POP POP JUMP JUMPDEST PUSH1 0x0 PUSH2 0x5DB8 DUP3 PUSH2 0x5D4D JUMP JUMPDEST SWAP2 POP PUSH1 0x0 DUP3 EQ ISZERO PUSH2 0x5DCC JUMPI PUSH2 0x5DCB PUSH2 0x5EB4 JUMP JUMPDEST JUMPDEST PUSH1 0x1 DUP3 SUB SWAP1 POP SWAP2 SWAP1 POP JUMP JUMPDEST PUSH1 0x0 PUSH1 0x2 DUP3 DIV SWAP1 POP PUSH1 0x1 DUP3 AND DUP1 PUSH2 0x5DEF JUMPI PUSH1 0x7F DUP3 AND SWAP2 POP JUMPDEST PUSH1 0x20 DUP3 LT DUP2 EQ ISZERO PUSH2 0x5E03 JUMPI PUSH2 0x5E02 PUSH2 0x5F41 JUMP JUMPDEST JUMPDEST POP SWAP2 SWAP1 POP JUMP JUMPDEST PUSH2 0x5E12 DUP3 PUSH2 0x5FEC JUMP JUMPDEST DUP2 ADD DUP2 DUP2 LT PUSH8 0xFFFFFFFFFFFFFFFF DUP3 GT OR ISZERO PUSH2 0x5E31 JUMPI PUSH2 0x5E30 PUSH2 0x5F9F JUMP JUMPDEST JUMPDEST DUP1 PUSH1 0x40 MSTORE POP POP POP JUMP JUMPDEST PUSH1 0x0 PUSH2 0x5E45 DUP3 PUSH2 0x5D4D JUMP JUMPDEST SWAP2 POP PUSH32 0xFFFFFFFFFFFFFFFFFFFFFFFFFFFFFFFFFFFFFFFFFFFFFFFFFFFFFFFFFFFFFFFF DUP3 EQ ISZERO PUSH2 0x5E78 JUMPI PUSH2 0x5E77 PUSH2 0x5EB4 JUMP JUMPDEST JUMPDEST PUSH1 0x1 DUP3 ADD SWAP1 POP SWAP2 SWAP1 POP JUMP JUMPDEST PUSH1 0x0 PUSH2 0x5E8E DUP3 PUSH2 0x5D57 JUMP JUMPDEST SWAP2 POP PUSH8 0xFFFFFFFFFFFFFFFF DUP3 EQ ISZERO PUSH2 0x5EA9 JUMPI PUSH2 0x5EA8 PUSH2 0x5EB4 JUMP JUMPDEST JUMPDEST PUSH1 0x1 DUP3 ADD SWAP1 POP SWAP2 SWAP1 POP JUMP JUMPDEST PUSH32 0x4E487B7100000000000000000000000000000000000000000000000000000000 PUSH1 0x0 MSTORE PUSH1 0x11 PUSH1 0x4 MSTORE PUSH1 0x24 PUSH1 0x0 REVERT JUMPDEST PUSH32 0x4E487B7100000000000000000000000000000000000000000000000000000000 PUSH1 0x0 MSTORE PUSH1 0x12 PUSH1 0x4 MSTORE PUSH1 0x24 PUSH1 0x0 REVERT JUMPDEST PUSH32 0x4E487B7100000000000000000000000000000000000000000000000000000000 PUSH1 0x0 MSTORE PUSH1 0x21 PUSH1 0x4 MSTORE PUSH1 0x24 PUSH1 0x0 REVERT JUMPDEST PUSH32 0x4E487B7100000000000000000000000000000000000000000000000000000000 PUSH1 0x0 MSTORE PUSH1 0x22 PUSH1 0x4 MSTORE PUSH1 0x24 PUSH1 0x0 REVERT JUMPDEST PUSH32 0x4E487B7100000000000000000000000000000000000000000000000000000000 PUSH1 0x0 MSTORE PUSH1 0x32 PUSH1 0x4 MSTORE PUSH1 0x24 PUSH1 0x0 REVERT JUMPDEST PUSH32 0x4E487B7100000000000000000000000000000000000000000000000000000000 PUSH1 0x0 MSTORE PUSH1 0x41 PUSH1 0x4 MSTORE PUSH1 0x24 PUSH1 0x0 REVERT JUMPDEST PUSH1 0x0 DUP1 REVERT JUMPDEST PUSH1 0x0 DUP1 REVERT JUMPDEST PUSH1 0x0 DUP1 REVERT JUMPDEST PUSH1 0x0 DUP1 REVERT JUMPDEST PUSH1 0x0 DUP1 REVERT JUMPDEST PUSH1 0x0 DUP1 REVERT JUMPDEST PUSH1 0x0 PUSH1 0x1F NOT PUSH1 0x1F DUP4 ADD AND SWAP1 POP SWAP2 SWAP1 POP JUMP JUMPDEST PUSH32 0x546F6B656E735377617065645061796C6F616420646573657269616C697A6174 PUSH1 0x0 DUP3 ADD MSTORE PUSH32 0x696F6E206661696C656400000000000000000000000000000000000000000000 PUSH1 0x20 DUP3 ADD MSTORE POP JUMP JUMPDEST PUSH32 0x4F776E61626C653A206E6577206F776E657220697320746865207A65726F2061 PUSH1 0x0 DUP3 ADD MSTORE PUSH32 0x6464726573730000000000000000000000000000000000000000000000000000 PUSH1 0x20 DUP3 ADD MSTORE POP JUMP JUMPDEST PUSH32 0x4C697175696469747941646465645061796C6F616420646573657269616C697A PUSH1 0x0 DUP3 ADD MSTORE PUSH32 0x6174696F6E206661696C65640000000000000000000000000000000000000000 PUSH1 0x20 DUP3 ADD MSTORE POP JUMP JUMPDEST PUSH32 0x46756E647357697468647261776E5061796C6F616420646573657269616C697A PUSH1 0x0 DUP3 ADD MSTORE PUSH32 0x6174696F6E206661696C65640000000000000000000000000000000000000000 PUSH1 0x20 DUP3 ADD MSTORE POP JUMP JUMPDEST PUSH32 0x496E76616C6964206164647265737320666F726D617400000000000000000000 PUSH1 0x0 DUP3 ADD MSTORE POP JUMP JUMPDEST PUSH32 0x41737365742076616C7565206C657373207468616E207468726573686F6C6420 PUSH1 0x0 DUP3 ADD MSTORE PUSH32 0x666F7220636F6E747269627574696F6E21000000000000000000000000000000 PUSH1 0x20 DUP3 ADD MSTORE POP JUMP JUMPDEST PUSH32 0x46756E64734465706F73697465645061796C6F616420646573657269616C697A PUSH1 0x0 DUP3 ADD MSTORE PUSH32 0x6174696F6E206661696C65640000000000000000000000000000000000000000 PUSH1 0x20 DUP3 ADD MSTORE POP JUMP JUMPDEST PUSH32 0x4F776E61626C653A2063616C6C6572206973206E6F7420746865206F776E6572 PUSH1 0x0 DUP3 ADD MSTORE POP JUMP JUMPDEST PUSH32 0x53686172652073686F756C64206265206C657373207468616E20746F74616C53 PUSH1 0x0 DUP3 ADD MSTORE PUSH32 0x6861726500000000000000000000000000000000000000000000000000000000 PUSH1 0x20 DUP3 ADD MSTORE POP JUMP JUMPDEST PUSH32 0x414D4D437265617465645061796C6F616420646573657269616C697A6174696F PUSH1 0x0 DUP3 ADD MSTORE PUSH32 0x6E206661696C6564000000000000000000000000000000000000000000000000 PUSH1 0x20 DUP3 ADD MSTORE POP JUMP JUMPDEST PUSH32 0x4571756976616C656E742076616C7565206F6620746F6B656E73206E6F742070 PUSH1 0x0 DUP3 ADD MSTORE PUSH32 0x726F76696465642E2E2E00000000000000000000000000000000000000000000 PUSH1 0x20 DUP3 ADD MSTORE POP JUMP JUMPDEST PUSH32 0x4E6F206C697175696469747920696E20706F6F6C000000000000000000000000 PUSH1 0x0 DUP3 ADD MSTORE POP JUMP JUMPDEST PUSH32 0x4C697175696469747952656D6F7665645061796C6F616420646573657269616C PUSH1 0x0 DUP3 ADD MSTORE PUSH32 0x697A6174696F6E206661696C6564000000000000000000000000000000000000 PUSH1 0x20 DUP3 ADD MSTORE POP JUMP JUMPDEST PUSH2 0x6397 DUP2 PUSH2 0x5D0F JUMP JUMPDEST DUP2 EQ PUSH2 0x63A2 JUMPI PUSH1 0x0 DUP1 REVERT JUMPDEST POP JUMP JUMPDEST PUSH1 0x9 DUP2 LT PUSH2 0x63B2 JUMPI PUSH1 0x0 DUP1 REVERT JUMPDEST POP JUMP JUMPDEST PUSH2 0x63BE DUP2 PUSH2 0x5D4D JUMP JUMPDEST DUP2 EQ PUSH2 0x63C9 JUMPI PUSH1 0x0 DUP1 REVERT JUMPDEST POP JUMP JUMPDEST PUSH2 0x63D5 DUP2 PUSH2 0x5D57 JUMP JUMPDEST DUP2 EQ PUSH2 0x63E0 JUMPI PUSH1 0x0 DUP1 REVERT JUMPDEST POP JUMP INVALID LOG2 PUSH5 0x6970667358 0x22 SLT KECCAK256 MSTORE PUSH6 0xF5DE0692465C 0xC4 0xE6 0xBA 0xC6 ISZERO 0xD7 PUSH24 0x8992B5E75DCFF94CD4D545A925B3E7146D64736F6C634300 ADDMOD MOD STOP CALLER "
		},
		"gasEstimates": {
			"creation": {
				"codeDepositCost": "8707000",
				"executionCost": "infinite",
				"totalCost": "infinite"
			},
			"external": {
				"getChange(uint256)": "infinite",
				"getChangesLength()": "2446",
				"handle((bytes,bytes,uint8,bytes))": "infinite",
				"id()": "infinite",
				"owner()": "2522",
				"renounceOwnership()": "30487",
				"reset()": "infinite",
				"setup((uint64,uint8,bytes)[])": "infinite",
				"state()": "2601",
				"transferOwnership(address)": "30835"
			},
			"internal": {
				"addLiquidity(struct AddLiquidityPayload memory)": "infinite",
				"create(struct CreateAMMPayload memory)": "infinite",
				"deposit(struct DepositFundsPayload memory)": "infinite",
				"handleCommand(struct Command memory)": "infinite",
				"removeLiquidity(struct RemoveLiquidityPayload memory)": "infinite",
				"swap(struct SwapTokensPayload memory)": "infinite",
				"withdraw(struct WithdrawFundsPayload memory)": "infinite"
			}
		},
		"methodIdentifiers": {
			"getChange(uint256)": "54a8bd07",
			"getChangesLength()": "08dd8cff",
			"handle((bytes,bytes,uint8,bytes))": "37306d84",
			"id()": "af640d0f",
			"owner()": "8da5cb5b",
			"renounceOwnership()": "715018a6",
			"reset()": "d826f88f",
			"setup((uint64,uint8,bytes)[])": "1650d3ce",
			"state()": "c19d93fb",
			"transferOwnership(address)": "f2fde38b"
		}
	},
	"abi": [
		{
			"inputs": [
				{
					"internalType": "string",
					"name": "id_",
					"type": "string"
				}
			],
			"stateMutability": "nonpayable",
			"type": "constructor"
		},
		{
			"anonymous": false,
			"inputs": [
				{
					"indexed": true,
					"internalType": "address",
					"name": "previousOwner",
					"type": "address"
				},
				{
					"indexed": true,
					"internalType": "address",
					"name": "newOwner",
					"type": "address"
				}
			],
			"name": "OwnershipTransferred",
			"type": "event"
		},
		{
			"inputs": [
				{
					"internalType": "uint256",
					"name": "i",
					"type": "uint256"
				}
			],
			"name": "getChange",
			"outputs": [
				{
					"components": [
						{
							"internalType": "uint64",
							"name": "evnt_idx",
							"type": "uint64"
						},
						{
							"internalType": "enum DomainEventType",
							"name": "evnt_type",
							"type": "uint8"
						},
						{
							"internalType": "bytes",
							"name": "evnt_payload",
							"type": "bytes"
						}
					],
					"internalType": "struct DomainEvent",
					"name": "",
					"type": "tuple"
				}
			],
			"stateMutability": "view",
			"type": "function"
		},
		{
			"inputs": [],
			"name": "getChangesLength",
			"outputs": [
				{
					"internalType": "uint256",
					"name": "",
					"type": "uint256"
				}
			],
			"stateMutability": "view",
			"type": "function"
		},
		{
			"inputs": [
				{
					"components": [
						{
							"internalType": "bytes",
							"name": "aggregate_id",
							"type": "bytes"
						},
						{
							"internalType": "bytes",
							"name": "cmd_signature",
							"type": "bytes"
						},
						{
							"internalType": "enum CommandType",
							"name": "cmd_type",
							"type": "uint8"
						},
						{
							"internalType": "bytes",
							"name": "cmd_payload",
							"type": "bytes"
						}
					],
					"internalType": "struct Command",
					"name": "cmd",
					"type": "tuple"
				}
			],
			"name": "handle",
			"outputs": [],
			"stateMutability": "nonpayable",
			"type": "function"
		},
		{
			"inputs": [],
			"name": "id",
			"outputs": [
				{
					"internalType": "string",
					"name": "",
					"type": "string"
				}
			],
			"stateMutability": "view",
			"type": "function"
		},
		{
			"inputs": [],
			"name": "owner",
			"outputs": [
				{
					"internalType": "address",
					"name": "",
					"type": "address"
				}
			],
			"stateMutability": "view",
			"type": "function"
		},
		{
			"inputs": [],
			"name": "renounceOwnership",
			"outputs": [],
			"stateMutability": "nonpayable",
			"type": "function"
		},
		{
			"inputs": [],
			"name": "reset",
			"outputs": [],
			"stateMutability": "nonpayable",
			"type": "function"
		},
		{
			"inputs": [
				{
					"components": [
						{
							"internalType": "uint64",
							"name": "evnt_idx",
							"type": "uint64"
						},
						{
							"internalType": "enum DomainEventType",
							"name": "evnt_type",
							"type": "uint8"
						},
						{
							"internalType": "bytes",
							"name": "evnt_payload",
							"type": "bytes"
						}
					],
					"internalType": "struct DomainEvent[]",
					"name": "evnts",
					"type": "tuple[]"
				}
			],
			"name": "setup",
			"outputs": [],
			"stateMutability": "nonpayable",
			"type": "function"
		},
		{
			"inputs": [],
			"name": "state",
			"outputs": [
				{
					"internalType": "contract AggregateState",
					"name": "",
					"type": "address"
				}
			],
			"stateMutability": "view",
			"type": "function"
		},
		{
			"inputs": [
				{
					"internalType": "address",
					"name": "newOwner",
					"type": "address"
				}
			],
			"name": "transferOwnership",
			"outputs": [],
			"stateMutability": "nonpayable",
			"type": "function"
		}
	]
}