{
	"data": {
		"bytecode": {
			"linkReferences": {},
			"object": "60806040526000600c60006101000a81548160ff0219169083151502179055503480156200002c57600080fd5b506200004d620000416200005360201b60201c565b6200005b60201b60201c565b6200011f565b600033905090565b60008060009054906101000a900473ffffffffffffffffffffffffffffffffffffffff169050816000806101000a81548173ffffffffffffffffffffffffffffffffffffffff021916908373ffffffffffffffffffffffffffffffffffffffff1602179055508173ffffffffffffffffffffffffffffffffffffffff168173ffffffffffffffffffffffffffffffffffffffff167f8be0079c531659141344cd1fd0a4f28419497f9722a3daafe3b4186f6b6457e060405160405180910390a35050565b616419806200012f6000396000f3fe608060405234801561001057600080fd5b50600436106100ea5760003560e01c8063932178881161008c578063d21220a711610066578063d21220a714610260578063d3817b4a1461027e578063d826f88f146102ae578063f2fde38b146102b8576100ea565b806393217888146101cf578063af62db3f14610200578063ce7c2ac214610230576100ea565b8063715018a6116100c8578063715018a61461016d57806386174396146101775780638da5cb5b146101955780638fe8bb96146101b3576100ea565b80630c1fc829146100ef57806325be124e1461011f578063450177c61461013d575b600080fd5b61010960048036038101906101049190615564565b6102d4565b6040516101169190615a74565b60405180910390f35b6101276102ec565b60405161013491906158b2565b60405180910390f35b610157600480360381019061015291906155da565b61037a565b6040516101649190615a74565b60405180910390f35b6101756103e4565b005b61017f6103f8565b60405161018c9190615897565b60405180910390f35b61019d61040b565b6040516101aa919061587c565b60405180910390f35b6101cd60048036038101906101c89190615591565b610434565b005b6101e960048036038101906101e491906155da565b610448565b6040516101f7929190615a8f565b60405180910390f35b61021a60048036038101906102159190615564565b610530565b6040516102279190615a74565b60405180910390f35b61024a60048036038101906102459190615564565b610548565b6040516102579190615a74565b60405180910390f35b610268610560565b60405161027591906158b2565b60405180910390f35b610298600480360381019061029391906155da565b6105ee565b6040516102a59190615a74565b60405180910390f35b6102b6610658565b005b6102d260048036038101906102cd9190615564565b61066a565b005b600a6020528060005260406000206000915090505481565b600280546102f990615dd7565b80601f016020809104026020016040519081016040528092919081815260200182805461032590615dd7565b80156103725780601f1061034757610100808354040283529160200191610372565b820191906000526020600020905b81548152906001019060200180831161035557829003601f168201915b505050505081565b600080610392836003546106ee90919063ffffffff16565b905060006103ab8260055461070490919063ffffffff16565b90506103c28160045461071a90919063ffffffff16565b92506004548314156103dd5782806103d990615dad565b9350505b5050919050565b6103ec610730565b6103f660006107ae565b565b600c60009054906101000a900460ff1681565b60008060009054906101000a900473ffffffffffffffffffffffffffffffffffffffff16905090565b61043c610730565b61044581610872565b50565b600080600060085411610490576040517f08c379a000000000000000000000000000000000000000000000000000000000815260040161048790615a34565b60405180910390fd5b6008548311156104d5576040517f08c379a00000000000000000000000000000000000000000000000000000000081526004016104cc906159d4565b60405180910390fd5b6104fe6008546104f060035486610c1090919063ffffffff16565b61070490919063ffffffff16565b915061052960085461051b60045486610c1090919063ffffffff16565b61070490919063ffffffff16565b9050915091565b60096020528060005260406000206000915090505481565b60066020528060005260406000206000915090505481565b6001805461056d90615dd7565b80601f016020809104026020016040519081016040528092919081815260200182805461059990615dd7565b80156105e65780601f106105bb576101008083540402835291602001916105e6565b820191906000526020600020905b8154815290600101906020018083116105c957829003601f168201915b505050505081565b600080610606836004546106ee90919063ffffffff16565b9050600061061f8260055461070490919063ffffffff16565b90506106368160035461071a90919063ffffffff16565b925060035483141561065157828061064d90615dad565b9350505b5050919050565b610660610730565b610668610c26565b565b610672610730565b600073ffffffffffffffffffffffffffffffffffffffff168173ffffffffffffffffffffffffffffffffffffffff1614156106e2576040517f08c379a00000000000000000000000000000000000000000000000000000000081526004016106d9906158f4565b60405180910390fd5b6106eb816107ae565b50565b600081836106fc9190615b46565b905092915050565b600081836107129190615bda565b905092915050565b600081836107289190615ca7565b905092915050565b610738610e8b565b73ffffffffffffffffffffffffffffffffffffffff1661075661040b565b73ffffffffffffffffffffffffffffffffffffffff16146107ac576040517f08c379a00000000000000000000000000000000000000000000000000000000081526004016107a3906159b4565b60405180910390fd5b565b60008060009054906101000a900473ffffffffffffffffffffffffffffffffffffffff169050816000806101000a81548173ffffffffffffffffffffffffffffffffffffffff021916908373ffffffffffffffffffffffffffffffffffffffff1602179055508173ffffffffffffffffffffffffffffffffffffffff168173ffffffffffffffffffffffffffffffffffffffff167f8be0079c531659141344cd1fd0a4f28419497f9722a3daafe3b4186f6b6457e060405160405180910390a35050565b6003600881111561088657610885615f12565b5b8160200151600881111561089d5761089c615f12565b5b141561090c576000806108bb60008460400151856040015151610e93565b925050915081610900576040517f08c379a00000000000000000000000000000000000000000000000000000000081526004016108f7906159f4565b60405180910390fd5b6109098161104d565b50505b600760088111156109205761091f615f12565b5b8160200151600881111561093757610936615f12565b5b14156109a65760008061095560008460400151856040015151611207565b92505091508161099a576040517f08c379a000000000000000000000000000000000000000000000000000000000815260040161099190615994565b60405180910390fd5b6109a3816113c1565b50505b6008808111156109b9576109b8615f12565b5b816020015160088111156109d0576109cf615f12565b5b1415610a3f576000806109ee600084604001518560400151516116d1565b925050915081610a33576040517f08c379a0000000000000000000000000000000000000000000000000000000008152600401610a2a90615934565b60405180910390fd5b610a3c8161188b565b50505b60046008811115610a5357610a52615f12565b5b81602001516008811115610a6a57610a69615f12565b5b1415610ad957600080610a8860008460400151856040015151611aa4565b925050915081610acd576040517f08c379a0000000000000000000000000000000000000000000000000000000008152600401610ac490615914565b60405180910390fd5b610ad681611c5e565b50505b60056008811115610aed57610aec615f12565b5b81602001516008811115610b0457610b03615f12565b5b1415610b7357600080610b2260008460400151856040015151611f44565b925050915081610b67576040517f08c379a0000000000000000000000000000000000000000000000000000000008152600401610b5e90615a54565b60405180910390fd5b610b70816120fe565b50505b60066008811115610b8757610b86615f12565b5b81602001516008811115610b9e57610b9d615f12565b5b1415610c0d57600080610bbc600084604001518560400151516122a3565b925050915081610c01576040517f08c379a0000000000000000000000000000000000000000000000000000000008152600401610bf8906158d4565b60405180910390fd5b610c0a8161245d565b50505b50565b60008183610c1e9190615c0b565b905092915050565b60005b600780549050811015610cca576006600060078381548110610c4e57610c4d615f70565b5b9060005260206000200160009054906101000a900473ffffffffffffffffffffffffffffffffffffffff1673ffffffffffffffffffffffffffffffffffffffff1673ffffffffffffffffffffffffffffffffffffffff168152602001908152602001600020600090558080610cc290615e3a565b915050610c29565b5060076000610cd9919061517f565b620f42406000610ce99190615c65565b67ffffffffffffffff1660088190555060005b600b80549050811015610e1e5760096000600b8381548110610d2157610d20615f70565b5b9060005260206000200160009054906101000a900473ffffffffffffffffffffffffffffffffffffffff1673ffffffffffffffffffffffffffffffffffffffff1673ffffffffffffffffffffffffffffffffffffffff16815260200190815260200160002060009055600a6000600b8381548110610da257610da1615f70565b5b9060005260206000200160009054906101000a900473ffffffffffffffffffffffffffffffffffffffff1673ffffffffffffffffffffffffffffffffffffffff1673ffffffffffffffffffffffffffffffffffffffff168152602001908152602001600020600090558080610e1690615e3a565b915050610cfc565b50600b6000610e2d919061517f565b6040518060200160405280600081525060019080519060200190610e529291906151a0565b506040518060200160405280600081525060029080519060200190610e789291906151a0565b5060006003819055506000600481905550565b600033905090565b600080610e9e615226565b610ea6615226565b6000808890508067ffffffffffffffff168782610ec39190615b9c565b67ffffffffffffffff161015610ee55760008184955095509550505050611044565b5b8667ffffffffffffffff168982610efd9190615cdb565b67ffffffffffffffff161015610ffe576000806000610f1c848c612741565b8094508195508297508396505050505082610f465760008487985098509850505050505050611044565b60058267ffffffffffffffff161115610f6e5760008487985098509850505050505050611044565b8467ffffffffffffffff168267ffffffffffffffff1611610f9e5760008487985098509850505050505050611044565b610fa8828261288d565b925082610fc45760008487985098509850505050505050611044565b610fd1848c8c858a6129e4565b809550819450505082610ff35760008487985098509850505050505050611044565b819450505050610ee6565b868961100a9190615b9c565b67ffffffffffffffff168167ffffffffffffffff16146110365760008184955095509550505050611044565b600181849550955095505050505b93509350939050565b806000015160019080519060200190611067929190615269565b50600060038190555080602001516002908051906020019061108a929190615269565b5060006004819055506110aa600454600354610c1090919063ffffffff16565b600581905550620f424060006110c09190615c65565b67ffffffffffffffff1660088190555060006110df8260800151612b6c565b9050816040015167ffffffffffffffff16600960008373ffffffffffffffffffffffffffffffffffffffff1673ffffffffffffffffffffffffffffffffffffffff16815260200190815260200160002081905550816060015167ffffffffffffffff16600a60008373ffffffffffffffffffffffffffffffffffffffff1673ffffffffffffffffffffffffffffffffffffffff16815260200190815260200160002081905550600b819080600181540180825580915050600190039060005260206000200160009091909190916101000a81548173ffffffffffffffffffffffffffffffffffffffff021916908373ffffffffffffffffffffffffffffffffffffffff1602179055506001600c60006101000a81548160ff0219169083151502179055505050565b6000806112126152ef565b61121a6152ef565b6000808890508067ffffffffffffffff1687826112379190615b9c565b67ffffffffffffffff16101561125957600081849550955095505050506113b8565b5b8667ffffffffffffffff1689826112719190615cdb565b67ffffffffffffffff161015611372576000806000611290848c612741565b80945081955082975083965050505050826112ba57600084879850985098505050505050506113b8565b60038267ffffffffffffffff1611156112e257600084879850985098505050505050506113b8565b8467ffffffffffffffff168267ffffffffffffffff161161131257600084879850985098505050505050506113b8565b61131c8282612bc4565b92508261133857600084879850985098505050505050506113b8565b611345848c8c858a612c97565b80955081945050508261136757600084879850985098505050505050506113b8565b81945050505061125a565b868961137e9190615b9c565b67ffffffffffffffff168167ffffffffffffffff16146113aa57600081849550955095505050506113b8565b600181849550955095505050505b93509350939050565b60006113d08260400151612b6c565b905061146a600180546113e290615dd7565b80601f016020809104026020016040519081016040528092919081815260200182805461140e90615dd7565b801561145b5780601f106114305761010080835404028352916020019161145b565b820191906000526020600020905b81548152906001019060200180831161143e57829003601f168201915b50505050508360000151612d8d565b156114d457816020015167ffffffffffffffff16600960008373ffffffffffffffffffffffffffffffffffffffff1673ffffffffffffffffffffffffffffffffffffffff16815260200190815260200160002060008282546114cc9190615b46565b925050819055505b61156c600280546114e490615dd7565b80601f016020809104026020016040519081016040528092919081815260200182805461151090615dd7565b801561155d5780601f106115325761010080835404028352916020019161155d565b820191906000526020600020905b81548152906001019060200180831161154057829003601f168201915b50505050508360000151612d8d565b156115d657816020015167ffffffffffffffff16600a60008373ffffffffffffffffffffffffffffffffffffffff1673ffffffffffffffffffffffffffffffffffffffff16815260200190815260200160002060008282546115ce9190615b46565b925050819055505b6000600960008373ffffffffffffffffffffffffffffffffffffffff1673ffffffffffffffffffffffffffffffffffffffff1681526020019081526020016000205414801561166457506000600a60008373ffffffffffffffffffffffffffffffffffffffff1673ffffffffffffffffffffffffffffffffffffffff16815260200190815260200160002054145b156116cd57600b819080600181540180825580915050600190039060005260206000200160009091909190916101000a81548173ffffffffffffffffffffffffffffffffffffffff021916908373ffffffffffffffffffffffffffffffffffffffff1602179055505b5050565b6000806116dc61531a565b6116e461531a565b6000808890508067ffffffffffffffff1687826117019190615b9c565b67ffffffffffffffff1610156117235760008184955095509550505050611882565b5b8667ffffffffffffffff16898261173b9190615cdb565b67ffffffffffffffff16101561183c57600080600061175a848c612741565b80945081955082975083965050505050826117845760008487985098509850505050505050611882565b60038267ffffffffffffffff1611156117ac5760008487985098509850505050505050611882565b8467ffffffffffffffff168267ffffffffffffffff16116117dc5760008487985098509850505050505050611882565b6117e68282612de6565b9250826118025760008487985098509850505050505050611882565b61180f848c8c858a612eb9565b8095508194505050826118315760008487985098509850505050505050611882565b819450505050611724565b86896118489190615b9c565b67ffffffffffffffff168167ffffffffffffffff16146118745760008184955095509550505050611882565b600181849550955095505050505b93509350939050565b600061189a8260400151612b6c565b9050611934600180546118ac90615dd7565b80601f01602080910402602001604051908101604052809291908181526020018280546118d890615dd7565b80156119255780601f106118fa57610100808354040283529160200191611925565b820191906000526020600020905b81548152906001019060200180831161190857829003601f168201915b50505050508360000151612d8d565b1561199e57816020015167ffffffffffffffff16600960008373ffffffffffffffffffffffffffffffffffffffff1673ffffffffffffffffffffffffffffffffffffffff16815260200190815260200160002060008282546119969190615ca7565b925050819055505b611a36600280546119ae90615dd7565b80601f01602080910402602001604051908101604052809291908181526020018280546119da90615dd7565b8015611a275780601f106119fc57610100808354040283529160200191611a27565b820191906000526020600020905b815481529060010190602001808311611a0a57829003601f168201915b50505050508360000151612d8d565b15611aa057816020015167ffffffffffffffff16600a60008373ffffffffffffffffffffffffffffffffffffffff1673ffffffffffffffffffffffffffffffffffffffff1681526020019081526020016000206000828254611a989190615ca7565b925050819055505b5050565b600080611aaf615345565b611ab7615345565b6000808890508067ffffffffffffffff168782611ad49190615b9c565b67ffffffffffffffff161015611af65760008184955095509550505050611c55565b5b8667ffffffffffffffff168982611b0e9190615cdb565b67ffffffffffffffff161015611c0f576000806000611b2d848c612741565b8094508195508297508396505050505082611b575760008487985098509850505050505050611c55565b60038267ffffffffffffffff161115611b7f5760008487985098509850505050505050611c55565b8467ffffffffffffffff168267ffffffffffffffff1611611baf5760008487985098509850505050505050611c55565b611bb98282612faf565b925082611bd55760008487985098509850505050505050611c55565b611be2848c8c858a613082565b809550819450505082611c045760008487985098509850505050505050611c55565b819450505050611af7565b8689611c1b9190615b9c565b67ffffffffffffffff168167ffffffffffffffff1614611c475760008184955095509550505050611c55565b600181849550955095505050505b93509350939050565b6000611c6d8260400151612b6c565b90506000806008541415611c9c57620f42406064611c8b9190615c65565b67ffffffffffffffff169050611d5a565b6000611cd5600354611cc7866000015167ffffffffffffffff16600854610c1090919063ffffffff16565b61070490919063ffffffff16565b90506000611d10600454611d02876020015167ffffffffffffffff16600854610c1090919063ffffffff16565b61070490919063ffffffff16565b9050808214611d54576040517f08c379a0000000000000000000000000000000000000000000000000000000008152600401611d4b90615a14565b60405180910390fd5b81925050505b60008111611d9d576040517f08c379a0000000000000000000000000000000000000000000000000000000008152600401611d9490615974565b60405180910390fd5b826000015167ffffffffffffffff16600960008473ffffffffffffffffffffffffffffffffffffffff1673ffffffffffffffffffffffffffffffffffffffff1681526020019081526020016000206000828254611dfa9190615ca7565b92505081905550826020015167ffffffffffffffff16600a60008473ffffffffffffffffffffffffffffffffffffffff1673ffffffffffffffffffffffffffffffffffffffff1681526020019081526020016000206000828254611e5e9190615ca7565b92505081905550826000015167ffffffffffffffff1660036000828254611e859190615b46565b92505081905550826020015167ffffffffffffffff1660046000828254611eac9190615b46565b92505081905550611eca600454600354610c1090919063ffffffff16565b6005819055508060086000828254611ee29190615b46565b9250508190555080600660008473ffffffffffffffffffffffffffffffffffffffff1673ffffffffffffffffffffffffffffffffffffffff1681526020019081526020016000206000828254611f389190615b46565b92505081905550505050565b600080611f4f61537a565b611f5761537a565b6000808890508067ffffffffffffffff168782611f749190615b9c565b67ffffffffffffffff161015611f9657600081849550955095505050506120f5565b5b8667ffffffffffffffff168982611fae9190615cdb565b67ffffffffffffffff1610156120af576000806000611fcd848c612741565b8094508195508297508396505050505082611ff757600084879850985098505050505050506120f5565b60048267ffffffffffffffff16111561201f57600084879850985098505050505050506120f5565b8467ffffffffffffffff168267ffffffffffffffff161161204f57600084879850985098505050505050506120f5565b6120598282613178565b92508261207557600084879850985098505050505050506120f5565b612082848c8c858a61328d565b8095508194505050826120a457600084879850985098505050505050506120f5565b819450505050611f97565b86896120bb9190615b9c565b67ffffffffffffffff168167ffffffffffffffff16146120e757600081849550955095505050506120f5565b600181849550955095505050505b93509350939050565b600061210d8260600151612b6c565b90506000826000015167ffffffffffffffff16905060008061212e83610448565b9150915082600660003373ffffffffffffffffffffffffffffffffffffffff1673ffffffffffffffffffffffffffffffffffffffff16815260200190815260200160002060008282546121819190615ca7565b92505081905550826008600082825461219a9190615ca7565b9250508190555081600360008282546121b39190615ca7565b9250508190555080600460008282546121cc9190615ca7565b925050819055506121ea600454600354610c1090919063ffffffff16565b60058190555081600960008673ffffffffffffffffffffffffffffffffffffffff1673ffffffffffffffffffffffffffffffffffffffff168152602001908152602001600020600082825461223f9190615b46565b9250508190555080600a60008673ffffffffffffffffffffffffffffffffffffffff1673ffffffffffffffffffffffffffffffffffffffff16815260200190815260200160002060008282546122959190615b46565b925050819055505050505050565b6000806122ae6153c0565b6122b66153c0565b6000808890508067ffffffffffffffff1687826122d39190615b9c565b67ffffffffffffffff1610156122f55760008184955095509550505050612454565b5b8667ffffffffffffffff16898261230d9190615cdb565b67ffffffffffffffff16101561240e57600080600061232c848c612741565b80945081955082975083965050505050826123565760008487985098509850505050505050612454565b60058267ffffffffffffffff16111561237e5760008487985098509850505050505050612454565b8467ffffffffffffffff168267ffffffffffffffff16116123ae5760008487985098509850505050505050612454565b6123b882826133cc565b9250826123d45760008487985098509850505050505050612454565b6123e1848c8c858a613523565b8095508194505050826124035760008487985098509850505050505050612454565b8194505050506122f6565b868961241a9190615b9c565b67ffffffffffffffff168167ffffffffffffffff16146124465760008184955095509550505050612454565b600181849550955095505050505b93509350939050565b600061246c8260800151612b6c565b90506125066001805461247e90615dd7565b80601f01602080910402602001604051908101604052809291908181526020018280546124aa90615dd7565b80156124f75780601f106124cc576101008083540402835291602001916124f7565b820191906000526020600020905b8154815290600101906020018083116124da57829003601f168201915b50505050508360200151612d8d565b1561262657816000015167ffffffffffffffff16600960008373ffffffffffffffffffffffffffffffffffffffff1673ffffffffffffffffffffffffffffffffffffffff16815260200190815260200160002060008282546125689190615ca7565b92505081905550816000015167ffffffffffffffff166003600082825461258f9190615b46565b92505081905550816040015167ffffffffffffffff16600460008282546125b69190615ca7565b92505081905550816040015167ffffffffffffffff16600a60008373ffffffffffffffffffffffffffffffffffffffff1673ffffffffffffffffffffffffffffffffffffffff168152602001908152602001600020600082825461261a9190615b46565b9250508190555061273d565b816000015167ffffffffffffffff16600a60008373ffffffffffffffffffffffffffffffffffffffff1673ffffffffffffffffffffffffffffffffffffffff16815260200190815260200160002060008282546126839190615ca7565b92505081905550816000015167ffffffffffffffff16600460008282546126aa9190615b46565b92505081905550816040015167ffffffffffffffff16600360008282546126d19190615ca7565b92505081905550816040015167ffffffffffffffff16600960008373ffffffffffffffffffffffffffffffffffffffff1673ffffffffffffffffffffffffffffffffffffffff16815260200190815260200160002060008282546127359190615b46565b925050819055505b5050565b600080600080600080600061275689896136ab565b9250925092508261277857600082600060069650965096509650505050612884565b600060038267ffffffffffffffff16901c905060006007831690506006808111156127a6576127a5615f12565b5b67ffffffffffffffff168167ffffffffffffffff16106127d9576000846000600698509850985098505050505050612884565b60008167ffffffffffffffff1660068111156127f8576127f7615f12565b5b90506003600681111561280e5761280d615f12565b5b81600681111561282157612820615f12565b5b148061285157506004600681111561283c5761283b615f12565b5b81600681111561284f5761284e615f12565b5b145b1561287057600085600060069950995099509950505050505050612884565b600185848399509950995099505050505050505b92959194509250565b600060018367ffffffffffffffff1614156128d157600260068111156128b6576128b5615f12565b5b8260068111156128c9576128c8615f12565b5b1490506129de565b60028367ffffffffffffffff16141561291357600260068111156128f8576128f7615f12565b5b82600681111561290b5761290a615f12565b5b1490506129de565b60038367ffffffffffffffff161415612955576000600681111561293a57612939615f12565b5b82600681111561294d5761294c615f12565b5b1490506129de565b60048367ffffffffffffffff161415612997576000600681111561297c5761297b615f12565b5b82600681111561298f5761298e615f12565b5b1490506129de565b60058367ffffffffffffffff1614156129d957600260068111156129be576129bd615f12565b5b8260068111156129d1576129d0615f12565b5b1490506129de565b600090505b92915050565b600080600087905060018567ffffffffffffffff161415612a35576000612a0c8289876138a3565b809350819250505080612a2757600082935093505050612b62565b600182935093505050612b62565b60028567ffffffffffffffff161415612a7e576000612a55828987613a28565b809350819250505080612a7057600082935093505050612b62565b600182935093505050612b62565b60038567ffffffffffffffff161415612ac7576000612a9e828987613bad565b809350819250505080612ab957600082935093505050612b62565b600182935093505050612b62565b60048567ffffffffffffffff161415612b10576000612ae7828987613c2f565b809350819250505080612b0257600082935093505050612b62565b600182935093505050612b62565b60058567ffffffffffffffff161415612b59576000612b30828987613cb1565b809350819250505080612b4b57600082935093505050612b62565b600182935093505050612b62565b60008192509250505b9550959350505050565b60006014825114612bb2576040517f08c379a0000000000000000000000000000000000000000000000000000000008152600401612ba990615954565b60405180910390fd5b60006014830151905080915050919050565b600060018367ffffffffffffffff161415612c085760026006811115612bed57612bec615f12565b5b826006811115612c0057612bff615f12565b5b149050612c91565b60028367ffffffffffffffff161415612c4a5760006006811115612c2f57612c2e615f12565b5b826006811115612c4257612c41615f12565b5b149050612c91565b60038367ffffffffffffffff161415612c8c5760026006811115612c7157612c70615f12565b5b826006811115612c8457612c83615f12565b5b149050612c91565b600090505b92915050565b600080600087905060018567ffffffffffffffff161415612ce8576000612cbf828987613e36565b809350819250505080612cda57600082935093505050612d83565b600182935093505050612d83565b60028567ffffffffffffffff161415612d31576000612d08828987613fbb565b809350819250505080612d2357600082935093505050612d83565b600182935093505050612d83565b60038567ffffffffffffffff161415612d7a576000612d5182898761403d565b809350819250505080612d6c57600082935093505050612d83565b600182935093505050612d83565b60008192509250505b9550959350505050565b600081604051602001612da09190615865565b6040516020818303038152906040528051906020012083604051602001612dc79190615865565b6040516020818303038152906040528051906020012014905092915050565b600060018367ffffffffffffffff161415612e2a5760026006811115612e0f57612e0e615f12565b5b826006811115612e2257612e21615f12565b5b149050612eb3565b60028367ffffffffffffffff161415612e6c5760006006811115612e5157612e50615f12565b5b826006811115612e6457612e63615f12565b5b149050612eb3565b60038367ffffffffffffffff161415612eae5760026006811115612e9357612e92615f12565b5b826006811115612ea657612ea5615f12565b5b149050612eb3565b600090505b92915050565b600080600087905060018567ffffffffffffffff161415612f0a576000612ee18289876141c2565b809350819250505080612efc57600082935093505050612fa5565b600182935093505050612fa5565b60028567ffffffffffffffff161415612f53576000612f2a828987614347565b809350819250505080612f4557600082935093505050612fa5565b600182935093505050612fa5565b60038567ffffffffffffffff161415612f9c576000612f738289876143c9565b809350819250505080612f8e57600082935093505050612fa5565b600182935093505050612fa5565b60008192509250505b9550959350505050565b600060018367ffffffffffffffff161415612ff35760006006811115612fd857612fd7615f12565b5b826006811115612feb57612fea615f12565b5b14905061307c565b60028367ffffffffffffffff161415613035576000600681111561301a57613019615f12565b5b82600681111561302d5761302c615f12565b5b14905061307c565b60038367ffffffffffffffff161415613077576002600681111561305c5761305b615f12565b5b82600681111561306f5761306e615f12565b5b14905061307c565b600090505b92915050565b600080600087905060018567ffffffffffffffff1614156130d35760006130aa82898761454e565b8093508192505050806130c55760008293509350505061316e565b60018293509350505061316e565b60028567ffffffffffffffff16141561311c5760006130f38289876145d0565b80935081925050508061310e5760008293509350505061316e565b60018293509350505061316e565b60038567ffffffffffffffff16141561316557600061313c828987614652565b8093508192505050806131575760008293509350505061316e565b60018293509350505061316e565b60008192509250505b9550959350505050565b600060018367ffffffffffffffff1614156131bc57600060068111156131a1576131a0615f12565b5b8260068111156131b4576131b3615f12565b5b149050613287565b60028367ffffffffffffffff1614156131fe57600060068111156131e3576131e2615f12565b5b8260068111156131f6576131f5615f12565b5b149050613287565b60038367ffffffffffffffff161415613240576000600681111561322557613224615f12565b5b82600681111561323857613237615f12565b5b149050613287565b60048367ffffffffffffffff161415613282576002600681111561326757613266615f12565b5b82600681111561327a57613279615f12565b5b149050613287565b600090505b92915050565b600080600087905060018567ffffffffffffffff1614156132de5760006132b58289876147d7565b8093508192505050806132d0576000829350935050506133c2565b6001829350935050506133c2565b60028567ffffffffffffffff1614156133275760006132fe828987614859565b809350819250505080613319576000829350935050506133c2565b6001829350935050506133c2565b60038567ffffffffffffffff1614156133705760006133478289876148db565b809350819250505080613362576000829350935050506133c2565b6001829350935050506133c2565b60048567ffffffffffffffff1614156133b957600061339082898761495d565b8093508192505050806133ab576000829350935050506133c2565b6001829350935050506133c2565b60008192509250505b9550959350505050565b600060018367ffffffffffffffff16141561341057600060068111156133f5576133f4615f12565b5b82600681111561340857613407615f12565b5b14905061351d565b60028367ffffffffffffffff161415613452576002600681111561343757613436615f12565b5b82600681111561344a57613449615f12565b5b14905061351d565b60038367ffffffffffffffff161415613494576000600681111561347957613478615f12565b5b82600681111561348c5761348b615f12565b5b14905061351d565b60048367ffffffffffffffff1614156134d657600260068111156134bb576134ba615f12565b5b8260068111156134ce576134cd615f12565b5b14905061351d565b60058367ffffffffffffffff16141561351857600260068111156134fd576134fc615f12565b5b8260068111156135105761350f615f12565b5b14905061351d565b600090505b92915050565b600080600087905060018567ffffffffffffffff16141561357457600061354b828987614ae2565b809350819250505080613566576000829350935050506136a1565b6001829350935050506136a1565b60028567ffffffffffffffff1614156135bd576000613594828987614b64565b8093508192505050806135af576000829350935050506136a1565b6001829350935050506136a1565b60038567ffffffffffffffff1614156136065760006135dd828987614ce9565b8093508192505050806135f8576000829350935050506136a1565b6001829350935050506136a1565b60048567ffffffffffffffff16141561364f576000613626828987614d6b565b809350819250505080613641576000829350935050506136a1565b6001829350935050506136a1565b60058567ffffffffffffffff16141561369857600061366f828987614ef0565b80935081925050508061368a576000829350935050506136a1565b6001829350935050506136a1565b60008192509250505b9550959350505050565b60008060008060005b600a67ffffffffffffffff168167ffffffffffffffff1610156137ce57855187826136df9190615b9c565b67ffffffffffffffff1610613700576000876000945094509450505061389c565b600086828961370f9190615b9c565b67ffffffffffffffff168151811061372a57613729615f70565b5b602001015160f81c60f81b60f81c90506000607f8216905060078361374f9190615c65565b67ffffffffffffffff168160ff1667ffffffffffffffff16901b8417935060006080831660ff1614156137b95760008367ffffffffffffffff16118015613799575060008160ff16145b156137b25760008960009650965096505050505061389c565b50506137ce565b505080806137c690615e83565b9150506136b4565b600a67ffffffffffffffff168167ffffffffffffffff16106137fc576000876000945094509450505061389c565b6001600a61380a9190615cdb565b67ffffffffffffffff168167ffffffffffffffff1614156138795760018682896138349190615b9c565b67ffffffffffffffff168151811061384f5761384e615f70565b5b602001015160f81c60f81b60f81c60ff161115613878576000876000945094509450505061389c565b5b60018082896138889190615b9c565b6138929190615b9c565b8394509450945050505b9250925092565b6000806000806138b38787615075565b809350819950829450505050816138d257600087935093505050613a20565b60008167ffffffffffffffff1614156138f357600087935093505050613a20565b8067ffffffffffffffff1667ffffffffffffffff81111561391757613916615f9f565b5b6040519080825280601f01601f1916602001820160405280156139495781602001600182028036833780820191505090505b50856000018190525060005b8167ffffffffffffffff168167ffffffffffffffff161015613a075786818961397e9190615b9c565b67ffffffffffffffff168151811061399957613998615f70565b5b602001015160f81c60f81b86600001518267ffffffffffffffff16815181106139c5576139c4615f70565b5b60200101907effffffffffffffffffffffffffffffffffffffffffffffffffffffffffffff1916908160001a90535080806139ff90615e83565b915050613955565b508087613a149190615b9c565b96506001879350935050505b935093915050565b600080600080613a388787615075565b80935081995082945050505081613a5757600087935093505050613ba5565b60008167ffffffffffffffff161415613a7857600087935093505050613ba5565b8067ffffffffffffffff1667ffffffffffffffff811115613a9c57613a9b615f9f565b5b6040519080825280601f01601f191660200182016040528015613ace5781602001600182028036833780820191505090505b50856020018190525060005b8167ffffffffffffffff168167ffffffffffffffff161015613b8c57868189613b039190615b9c565b67ffffffffffffffff1681518110613b1e57613b1d615f70565b5b602001015160f81c60f81b86602001518267ffffffffffffffff1681518110613b4a57613b49615f70565b5b60200101907effffffffffffffffffffffffffffffffffffffffffffffffffffffffffffff1916908160001a9053508080613b8490615e83565b915050613ada565b508087613b999190615b9c565b96506001879350935050505b935093915050565b600080600080613bbd8787615091565b80935081995082945050505081613bdc57600087935093505050613c27565b60008167ffffffffffffffff161415613bfd57600087935093505050613c27565b80856040019067ffffffffffffffff16908167ffffffffffffffff16815250506001879350935050505b935093915050565b600080600080613c3f8787615091565b80935081995082945050505081613c5e57600087935093505050613ca9565b60008167ffffffffffffffff161415613c7f57600087935093505050613ca9565b80856060019067ffffffffffffffff16908167ffffffffffffffff16815250506001879350935050505b935093915050565b600080600080613cc18787615075565b80935081995082945050505081613ce057600087935093505050613e2e565b60008167ffffffffffffffff161415613d0157600087935093505050613e2e565b8067ffffffffffffffff1667ffffffffffffffff811115613d2557613d24615f9f565b5b6040519080825280601f01601f191660200182016040528015613d575781602001600182028036833780820191505090505b50856080018190525060005b8167ffffffffffffffff168167ffffffffffffffff161015613e1557868189613d8c9190615b9c565b67ffffffffffffffff1681518110613da757613da6615f70565b5b602001015160f81c60f81b86608001518267ffffffffffffffff1681518110613dd357613dd2615f70565b5b60200101907effffffffffffffffffffffffffffffffffffffffffffffffffffffffffffff1916908160001a9053508080613e0d90615e83565b915050613d63565b508087613e229190615b9c565b96506001879350935050505b935093915050565b600080600080613e468787615075565b80935081995082945050505081613e6557600087935093505050613fb3565b60008167ffffffffffffffff161415613e8657600087935093505050613fb3565b8067ffffffffffffffff1667ffffffffffffffff811115613eaa57613ea9615f9f565b5b6040519080825280601f01601f191660200182016040528015613edc5781602001600182028036833780820191505090505b50856000018190525060005b8167ffffffffffffffff168167ffffffffffffffff161015613f9a57868189613f119190615b9c565b67ffffffffffffffff1681518110613f2c57613f2b615f70565b5b602001015160f81c60f81b86600001518267ffffffffffffffff1681518110613f5857613f57615f70565b5b60200101907effffffffffffffffffffffffffffffffffffffffffffffffffffffffffffff1916908160001a9053508080613f9290615e83565b915050613ee8565b508087613fa79190615b9c565b96506001879350935050505b935093915050565b600080600080613fcb8787615091565b80935081995082945050505081613fea57600087935093505050614035565b60008167ffffffffffffffff16141561400b57600087935093505050614035565b80856020019067ffffffffffffffff16908167ffffffffffffffff16815250506001879350935050505b935093915050565b60008060008061404d8787615075565b8093508199508294505050508161406c576000879350935050506141ba565b60008167ffffffffffffffff16141561408d576000879350935050506141ba565b8067ffffffffffffffff1667ffffffffffffffff8111156140b1576140b0615f9f565b5b6040519080825280601f01601f1916602001820160405280156140e35781602001600182028036833780820191505090505b50856040018190525060005b8167ffffffffffffffff168167ffffffffffffffff1610156141a1578681896141189190615b9c565b67ffffffffffffffff168151811061413357614132615f70565b5b602001015160f81c60f81b86604001518267ffffffffffffffff168151811061415f5761415e615f70565b5b60200101907effffffffffffffffffffffffffffffffffffffffffffffffffffffffffffff1916908160001a905350808061419990615e83565b9150506140ef565b5080876141ae9190615b9c565b96506001879350935050505b935093915050565b6000806000806141d28787615075565b809350819950829450505050816141f15760008793509350505061433f565b60008167ffffffffffffffff1614156142125760008793509350505061433f565b8067ffffffffffffffff1667ffffffffffffffff81111561423657614235615f9f565b5b6040519080825280601f01601f1916602001820160405280156142685781602001600182028036833780820191505090505b50856000018190525060005b8167ffffffffffffffff168167ffffffffffffffff1610156143265786818961429d9190615b9c565b67ffffffffffffffff16815181106142b8576142b7615f70565b5b602001015160f81c60f81b86600001518267ffffffffffffffff16815181106142e4576142e3615f70565b5b60200101907effffffffffffffffffffffffffffffffffffffffffffffffffffffffffffff1916908160001a905350808061431e90615e83565b915050614274565b5080876143339190615b9c565b96506001879350935050505b935093915050565b6000806000806143578787615091565b80935081995082945050505081614376576000879350935050506143c1565b60008167ffffffffffffffff161415614397576000879350935050506143c1565b80856020019067ffffffffffffffff16908167ffffffffffffffff16815250506001879350935050505b935093915050565b6000806000806143d98787615075565b809350819950829450505050816143f857600087935093505050614546565b60008167ffffffffffffffff16141561441957600087935093505050614546565b8067ffffffffffffffff1667ffffffffffffffff81111561443d5761443c615f9f565b5b6040519080825280601f01601f19166020018201604052801561446f5781602001600182028036833780820191505090505b50856040018190525060005b8167ffffffffffffffff168167ffffffffffffffff16101561452d578681896144a49190615b9c565b67ffffffffffffffff16815181106144bf576144be615f70565b5b602001015160f81c60f81b86604001518267ffffffffffffffff16815181106144eb576144ea615f70565b5b60200101907effffffffffffffffffffffffffffffffffffffffffffffffffffffffffffff1916908160001a905350808061452590615e83565b91505061447b565b50808761453a9190615b9c565b96506001879350935050505b935093915050565b60008060008061455e8787615091565b8093508199508294505050508161457d576000879350935050506145c8565b60008167ffffffffffffffff16141561459e576000879350935050506145c8565b80856000019067ffffffffffffffff16908167ffffffffffffffff16815250506001879350935050505b935093915050565b6000806000806145e08787615091565b809350819950829450505050816145ff5760008793509350505061464a565b60008167ffffffffffffffff1614156146205760008793509350505061464a565b80856020019067ffffffffffffffff16908167ffffffffffffffff16815250506001879350935050505b935093915050565b6000806000806146628787615075565b80935081995082945050505081614681576000879350935050506147cf565b60008167ffffffffffffffff1614156146a2576000879350935050506147cf565b8067ffffffffffffffff1667ffffffffffffffff8111156146c6576146c5615f9f565b5b6040519080825280601f01601f1916602001820160405280156146f85781602001600182028036833780820191505090505b50856040018190525060005b8167ffffffffffffffff168167ffffffffffffffff1610156147b65786818961472d9190615b9c565b67ffffffffffffffff168151811061474857614747615f70565b5b602001015160f81c60f81b86604001518267ffffffffffffffff168151811061477457614773615f70565b5b60200101907effffffffffffffffffffffffffffffffffffffffffffffffffffffffffffff1916908160001a90535080806147ae90615e83565b915050614704565b5080876147c39190615b9c565b96506001879350935050505b935093915050565b6000806000806147e78787615091565b8093508199508294505050508161480657600087935093505050614851565b60008167ffffffffffffffff16141561482757600087935093505050614851565b80856000019067ffffffffffffffff16908167ffffffffffffffff16815250506001879350935050505b935093915050565b6000806000806148698787615091565b80935081995082945050505081614888576000879350935050506148d3565b60008167ffffffffffffffff1614156148a9576000879350935050506148d3565b80856020019067ffffffffffffffff16908167ffffffffffffffff16815250506001879350935050505b935093915050565b6000806000806148eb8787615091565b8093508199508294505050508161490a57600087935093505050614955565b60008167ffffffffffffffff16141561492b57600087935093505050614955565b80856040019067ffffffffffffffff16908167ffffffffffffffff16815250506001879350935050505b935093915050565b60008060008061496d8787615075565b8093508199508294505050508161498c57600087935093505050614ada565b60008167ffffffffffffffff1614156149ad57600087935093505050614ada565b8067ffffffffffffffff1667ffffffffffffffff8111156149d1576149d0615f9f565b5b6040519080825280601f01601f191660200182016040528015614a035781602001600182028036833780820191505090505b50856060018190525060005b8167ffffffffffffffff168167ffffffffffffffff161015614ac157868189614a389190615b9c565b67ffffffffffffffff1681518110614a5357614a52615f70565b5b602001015160f81c60f81b86606001518267ffffffffffffffff1681518110614a7f57614a7e615f70565b5b60200101907effffffffffffffffffffffffffffffffffffffffffffffffffffffffffffff1916908160001a9053508080614ab990615e83565b915050614a0f565b508087614ace9190615b9c565b96506001879350935050505b935093915050565b600080600080614af28787615091565b80935081995082945050505081614b1157600087935093505050614b5c565b60008167ffffffffffffffff161415614b3257600087935093505050614b5c565b80856000019067ffffffffffffffff16908167ffffffffffffffff16815250506001879350935050505b935093915050565b600080600080614b748787615075565b80935081995082945050505081614b9357600087935093505050614ce1565b60008167ffffffffffffffff161415614bb457600087935093505050614ce1565b8067ffffffffffffffff1667ffffffffffffffff811115614bd857614bd7615f9f565b5b6040519080825280601f01601f191660200182016040528015614c0a5781602001600182028036833780820191505090505b50856020018190525060005b8167ffffffffffffffff168167ffffffffffffffff161015614cc857868189614c3f9190615b9c565b67ffffffffffffffff1681518110614c5a57614c59615f70565b5b602001015160f81c60f81b86602001518267ffffffffffffffff1681518110614c8657614c85615f70565b5b60200101907effffffffffffffffffffffffffffffffffffffffffffffffffffffffffffff1916908160001a9053508080614cc090615e83565b915050614c16565b508087614cd59190615b9c565b96506001879350935050505b935093915050565b600080600080614cf98787615091565b80935081995082945050505081614d1857600087935093505050614d63565b60008167ffffffffffffffff161415614d3957600087935093505050614d63565b80856040019067ffffffffffffffff16908167ffffffffffffffff16815250506001879350935050505b935093915050565b600080600080614d7b8787615075565b80935081995082945050505081614d9a57600087935093505050614ee8565b60008167ffffffffffffffff161415614dbb57600087935093505050614ee8565b8067ffffffffffffffff1667ffffffffffffffff811115614ddf57614dde615f9f565b5b6040519080825280601f01601f191660200182016040528015614e115781602001600182028036833780820191505090505b50856060018190525060005b8167ffffffffffffffff168167ffffffffffffffff161015614ecf57868189614e469190615b9c565b67ffffffffffffffff1681518110614e6157614e60615f70565b5b602001015160f81c60f81b86606001518267ffffffffffffffff1681518110614e8d57614e8c615f70565b5b60200101907effffffffffffffffffffffffffffffffffffffffffffffffffffffffffffff1916908160001a9053508080614ec790615e83565b915050614e1d565b508087614edc9190615b9c565b96506001879350935050505b935093915050565b600080600080614f008787615075565b80935081995082945050505081614f1f5760008793509350505061506d565b60008167ffffffffffffffff161415614f405760008793509350505061506d565b8067ffffffffffffffff1667ffffffffffffffff811115614f6457614f63615f9f565b5b6040519080825280601f01601f191660200182016040528015614f965781602001600182028036833780820191505090505b50856080018190525060005b8167ffffffffffffffff168167ffffffffffffffff16101561505457868189614fcb9190615b9c565b67ffffffffffffffff1681518110614fe657614fe5615f70565b5b602001015160f81c60f81b86608001518267ffffffffffffffff168151811061501257615011615f70565b5b60200101907effffffffffffffffffffffffffffffffffffffffffffffffffffffffffffff1916908160001a905350808061504c90615e83565b915050614fa2565b5080876150619190615b9c565b96506001879350935050505b935093915050565b600080600061508485856150d7565b9250925092509250925092565b6000806000806000806150a488886136ab565b925092509250826150c25760008260009550955095505050506150d0565b600182829550955095505050505b9250925092565b6000806000806000806150ea88886136ab565b92509250925082615108576000826000955095509550505050615178565b8167ffffffffffffffff1681830167ffffffffffffffff161015615139576000826000955095509550505050615178565b865182826151479190615b9c565b67ffffffffffffffff16111561516a576000826000955095509550505050615178565b600182829550955095505050505b9250925092565b508054600082559060005260206000209081019061519d9190615403565b50565b8280546151ac90615dd7565b90600052602060002090601f0160209004810192826151ce5760008555615215565b82601f106151e757805160ff1916838001178555615215565b82800160010185558215615215579182015b828111156152145782518255916020019190600101906151f9565b5b5090506152229190615403565b5090565b6040518060a001604052806060815260200160608152602001600067ffffffffffffffff168152602001600067ffffffffffffffff168152602001606081525090565b82805461527590615dd7565b90600052602060002090601f01602090048101928261529757600085556152de565b82601f106152b057805160ff19168380011785556152de565b828001600101855582156152de579182015b828111156152dd5782518255916020019190600101906152c2565b5b5090506152eb9190615403565b5090565b604051806060016040528060608152602001600067ffffffffffffffff168152602001606081525090565b604051806060016040528060608152602001600067ffffffffffffffff168152602001606081525090565b6040518060600160405280600067ffffffffffffffff168152602001600067ffffffffffffffff168152602001606081525090565b6040518060800160405280600067ffffffffffffffff168152602001600067ffffffffffffffff168152602001600067ffffffffffffffff168152602001606081525090565b6040518060a00160405280600067ffffffffffffffff16815260200160608152602001600067ffffffffffffffff16815260200160608152602001606081525090565b5b8082111561541c576000816000905550600101615404565b5090565b600061543361542e84615add565b615ab8565b90508281526020810184848401111561544f5761544e615fdd565b5b61545a848285615d6b565b509392505050565b6000813590506154718161638e565b92915050565b600082601f83011261548c5761548b615fce565b5b813561549c848260208601615420565b91505092915050565b6000813590506154b4816163a5565b92915050565b6000606082840312156154d0576154cf615fd3565b5b6154da6060615ab8565b905060006154ea8482850161554f565b60008301525060206154fe848285016154a5565b602083015250604082013567ffffffffffffffff81111561552257615521615fd8565b5b61552e84828501615477565b60408301525092915050565b600081359050615549816163b5565b92915050565b60008135905061555e816163cc565b92915050565b60006020828403121561557a57615579615fe7565b5b600061558884828501615462565b91505092915050565b6000602082840312156155a7576155a6615fe7565b5b600082013567ffffffffffffffff8111156155c5576155c4615fe2565b5b6155d1848285016154ba565b91505092915050565b6000602082840312156155f0576155ef615fe7565b5b60006155fe8482850161553a565b91505092915050565b61561081615d0f565b82525050565b61561f81615d21565b82525050565b600061563082615b0e565b61563a8185615b19565b935061564a818560208601615d7a565b61565381615fec565b840191505092915050565b600061566982615b0e565b6156738185615b2a565b9350615683818560208601615d7a565b80840191505092915050565b600061569c602a83615b35565b91506156a782615ffd565b604082019050919050565b60006156bf602683615b35565b91506156ca8261604c565b604082019050919050565b60006156e2602c83615b35565b91506156ed8261609b565b604082019050919050565b6000615705602c83615b35565b9150615710826160ea565b604082019050919050565b6000615728601683615b35565b915061573382616139565b602082019050919050565b600061574b603183615b35565b915061575682616162565b604082019050919050565b600061576e602c83615b35565b9150615779826161b1565b604082019050919050565b6000615791602083615b35565b915061579c82616200565b602082019050919050565b60006157b4602483615b35565b91506157bf82616229565b604082019050919050565b60006157d7602883615b35565b91506157e282616278565b604082019050919050565b60006157fa602a83615b35565b9150615805826162c7565b604082019050919050565b600061581d601483615b35565b915061582882616316565b602082019050919050565b6000615840602e83615b35565b915061584b8261633f565b604082019050919050565b61585f81615d4d565b82525050565b6000615871828461565e565b915081905092915050565b60006020820190506158916000830184615607565b92915050565b60006020820190506158ac6000830184615616565b92915050565b600060208201905081810360008301526158cc8184615625565b905092915050565b600060208201905081810360008301526158ed8161568f565b9050919050565b6000602082019050818103600083015261590d816156b2565b9050919050565b6000602082019050818103600083015261592d816156d5565b9050919050565b6000602082019050818103600083015261594d816156f8565b9050919050565b6000602082019050818103600083015261596d8161571b565b9050919050565b6000602082019050818103600083015261598d8161573e565b9050919050565b600060208201905081810360008301526159ad81615761565b9050919050565b600060208201905081810360008301526159cd81615784565b9050919050565b600060208201905081810360008301526159ed816157a7565b9050919050565b60006020820190508181036000830152615a0d816157ca565b9050919050565b60006020820190508181036000830152615a2d816157ed565b9050919050565b60006020820190508181036000830152615a4d81615810565b9050919050565b60006020820190508181036000830152615a6d81615833565b9050919050565b6000602082019050615a896000830184615856565b92915050565b6000604082019050615aa46000830185615856565b615ab16020830184615856565b9392505050565b6000615ac2615ad3565b9050615ace8282615e09565b919050565b6000604051905090565b600067ffffffffffffffff821115615af857615af7615f9f565b5b615b0182615fec565b9050602081019050919050565b600081519050919050565b600082825260208201905092915050565b600081905092915050565b600082825260208201905092915050565b6000615b5182615d4d565b9150615b5c83615d4d565b9250827fffffffffffffffffffffffffffffffffffffffffffffffffffffffffffffffff03821115615b9157615b90615eb4565b5b828201905092915050565b6000615ba782615d57565b9150615bb283615d57565b92508267ffffffffffffffff03821115615bcf57615bce615eb4565b5b828201905092915050565b6000615be582615d4d565b9150615bf083615d4d565b925082615c0057615bff615ee3565b5b828204905092915050565b6000615c1682615d4d565b9150615c2183615d4d565b9250817fffffffffffffffffffffffffffffffffffffffffffffffffffffffffffffffff0483118215151615615c5a57615c59615eb4565b5b828202905092915050565b6000615c7082615d57565b9150615c7b83615d57565b92508167ffffffffffffffff0483118215151615615c9c57615c9b615eb4565b5b828202905092915050565b6000615cb282615d4d565b9150615cbd83615d4d565b925082821015615cd057615ccf615eb4565b5b828203905092915050565b6000615ce682615d57565b9150615cf183615d57565b925082821015615d0457615d03615eb4565b5b828203905092915050565b6000615d1a82615d2d565b9050919050565b60008115159050919050565b600073ffffffffffffffffffffffffffffffffffffffff82169050919050565b6000819050919050565b600067ffffffffffffffff82169050919050565b82818337600083830152505050565b60005b83811015615d98578082015181840152602081019050615d7d565b83811115615da7576000848401525b50505050565b6000615db882615d4d565b91506000821415615dcc57615dcb615eb4565b5b600182039050919050565b60006002820490506001821680615def57607f821691505b60208210811415615e0357615e02615f41565b5b50919050565b615e1282615fec565b810181811067ffffffffffffffff82111715615e3157615e30615f9f565b5b80604052505050565b6000615e4582615d4d565b91507fffffffffffffffffffffffffffffffffffffffffffffffffffffffffffffffff821415615e7857615e77615eb4565b5b600182019050919050565b6000615e8e82615d57565b915067ffffffffffffffff821415615ea957615ea8615eb4565b5b600182019050919050565b7f4e487b7100000000000000000000000000000000000000000000000000000000600052601160045260246000fd5b7f4e487b7100000000000000000000000000000000000000000000000000000000600052601260045260246000fd5b7f4e487b7100000000000000000000000000000000000000000000000000000000600052602160045260246000fd5b7f4e487b7100000000000000000000000000000000000000000000000000000000600052602260045260246000fd5b7f4e487b7100000000000000000000000000000000000000000000000000000000600052603260045260246000fd5b7f4e487b7100000000000000000000000000000000000000000000000000000000600052604160045260246000fd5b600080fd5b600080fd5b600080fd5b600080fd5b600080fd5b600080fd5b6000601f19601f8301169050919050565b7f546f6b656e735377617065645061796c6f616420646573657269616c697a617460008201527f696f6e206661696c656400000000000000000000000000000000000000000000602082015250565b7f4f776e61626c653a206e6577206f776e657220697320746865207a65726f206160008201527f6464726573730000000000000000000000000000000000000000000000000000602082015250565b7f4c697175696469747941646465645061796c6f616420646573657269616c697a60008201527f6174696f6e206661696c65640000000000000000000000000000000000000000602082015250565b7f46756e647357697468647261776e5061796c6f616420646573657269616c697a60008201527f6174696f6e206661696c65640000000000000000000000000000000000000000602082015250565b7f496e76616c6964206164647265737320666f726d617400000000000000000000600082015250565b7f41737365742076616c7565206c657373207468616e207468726573686f6c642060008201527f666f7220636f6e747269627574696f6e21000000000000000000000000000000602082015250565b7f46756e64734465706f73697465645061796c6f616420646573657269616c697a60008201527f6174696f6e206661696c65640000000000000000000000000000000000000000602082015250565b7f4f776e61626c653a2063616c6c6572206973206e6f7420746865206f776e6572600082015250565b7f53686172652073686f756c64206265206c657373207468616e20746f74616c5360008201527f6861726500000000000000000000000000000000000000000000000000000000602082015250565b7f414d4d437265617465645061796c6f616420646573657269616c697a6174696f60008201527f6e206661696c6564000000000000000000000000000000000000000000000000602082015250565b7f4571756976616c656e742076616c7565206f6620746f6b656e73206e6f74207060008201527f726f76696465642e2e2e00000000000000000000000000000000000000000000602082015250565b7f4e6f206c697175696469747920696e20706f6f6c000000000000000000000000600082015250565b7f4c697175696469747952656d6f7665645061796c6f616420646573657269616c60008201527f697a6174696f6e206661696c6564000000000000000000000000000000000000602082015250565b61639781615d0f565b81146163a257600080fd5b50565b600981106163b257600080fd5b50565b6163be81615d4d565b81146163c957600080fd5b50565b6163d581615d57565b81146163e057600080fd5b5056fea26469706673582212205265f5de0692465cc4e6bac615d7778992b5e75dcff94cd4d545a925b3e7146d64736f6c63430008060033",
			"opcodes": "PUSH1 0x80 PUSH1 0x40 MSTORE PUSH1 0x0 PUSH1 0xC PUSH1 0x0 PUSH2 0x100 EXP DUP2 SLOAD DUP2 PUSH1 0xFF MUL NOT AND SWAP1 DUP4 ISZERO ISZERO MUL OR SWAP1 SSTORE POP CALLVALUE DUP1 ISZERO PUSH3 0x2C JUMPI PUSH1 0x0 DUP1 REVERT JUMPDEST POP PUSH3 0x4D PUSH3 0x41 PUSH3 0x53 PUSH1 0x20 SHL PUSH1 0x20 SHR JUMP JUMPDEST PUSH3 0x5B PUSH1 0x20 SHL PUSH1 0x20 SHR JUMP JUMPDEST PUSH3 0x11F JUMP JUMPDEST PUSH1 0x0 CALLER SWAP1 POP SWAP1 JUMP JUMPDEST PUSH1 0x0 DUP1 PUSH1 0x0 SWAP1 SLOAD SWAP1 PUSH2 0x100 EXP SWAP1 DIV PUSH20 0xFFFFFFFFFFFFFFFFFFFFFFFFFFFFFFFFFFFFFFFF AND SWAP1 POP DUP2 PUSH1 0x0 DUP1 PUSH2 0x100 EXP DUP2 SLOAD DUP2 PUSH20 0xFFFFFFFFFFFFFFFFFFFFFFFFFFFFFFFFFFFFFFFF MUL NOT AND SWAP1 DUP4 PUSH20 0xFFFFFFFFFFFFFFFFFFFFFFFFFFFFFFFFFFFFFFFF AND MUL OR SWAP1 SSTORE POP DUP2 PUSH20 0xFFFFFFFFFFFFFFFFFFFFFFFFFFFFFFFFFFFFFFFF AND DUP2 PUSH20 0xFFFFFFFFFFFFFFFFFFFFFFFFFFFFFFFFFFFFFFFF AND PUSH32 0x8BE0079C531659141344CD1FD0A4F28419497F9722A3DAAFE3B4186F6B6457E0 PUSH1 0x40 MLOAD PUSH1 0x40 MLOAD DUP1 SWAP2 SUB SWAP1 LOG3 POP POP JUMP JUMPDEST PUSH2 0x6419 DUP1 PUSH3 0x12F PUSH1 0x0 CODECOPY PUSH1 0x0 RETURN INVALID PUSH1 0x80 PUSH1 0x40 MSTORE CALLVALUE DUP1 ISZERO PUSH2 0x10 JUMPI PUSH1 0x0 DUP1 REVERT JUMPDEST POP PUSH1 0x4 CALLDATASIZE LT PUSH2 0xEA JUMPI PUSH1 0x0 CALLDATALOAD PUSH1 0xE0 SHR DUP1 PUSH4 0x93217888 GT PUSH2 0x8C JUMPI DUP1 PUSH4 0xD21220A7 GT PUSH2 0x66 JUMPI DUP1 PUSH4 0xD21220A7 EQ PUSH2 0x260 JUMPI DUP1 PUSH4 0xD3817B4A EQ PUSH2 0x27E JUMPI DUP1 PUSH4 0xD826F88F EQ PUSH2 0x2AE JUMPI DUP1 PUSH4 0xF2FDE38B EQ PUSH2 0x2B8 JUMPI PUSH2 0xEA JUMP JUMPDEST DUP1 PUSH4 0x93217888 EQ PUSH2 0x1CF JUMPI DUP1 PUSH4 0xAF62DB3F EQ PUSH2 0x200 JUMPI DUP1 PUSH4 0xCE7C2AC2 EQ PUSH2 0x230 JUMPI PUSH2 0xEA JUMP JUMPDEST DUP1 PUSH4 0x715018A6 GT PUSH2 0xC8 JUMPI DUP1 PUSH4 0x715018A6 EQ PUSH2 0x16D JUMPI DUP1 PUSH4 0x86174396 EQ PUSH2 0x177 JUMPI DUP1 PUSH4 0x8DA5CB5B EQ PUSH2 0x195 JUMPI DUP1 PUSH4 0x8FE8BB96 EQ PUSH2 0x1B3 JUMPI PUSH2 0xEA JUMP JUMPDEST DUP1 PUSH4 0xC1FC829 EQ PUSH2 0xEF JUMPI DUP1 PUSH4 0x25BE124E EQ PUSH2 0x11F JUMPI DUP1 PUSH4 0x450177C6 EQ PUSH2 0x13D JUMPI JUMPDEST PUSH1 0x0 DUP1 REVERT JUMPDEST PUSH2 0x109 PUSH1 0x4 DUP1 CALLDATASIZE SUB DUP2 ADD SWAP1 PUSH2 0x104 SWAP2 SWAP1 PUSH2 0x5564 JUMP JUMPDEST PUSH2 0x2D4 JUMP JUMPDEST PUSH1 0x40 MLOAD PUSH2 0x116 SWAP2 SWAP1 PUSH2 0x5A74 JUMP JUMPDEST PUSH1 0x40 MLOAD DUP1 SWAP2 SUB SWAP1 RETURN JUMPDEST PUSH2 0x127 PUSH2 0x2EC JUMP JUMPDEST PUSH1 0x40 MLOAD PUSH2 0x134 SWAP2 SWAP1 PUSH2 0x58B2 JUMP JUMPDEST PUSH1 0x40 MLOAD DUP1 SWAP2 SUB SWAP1 RETURN JUMPDEST PUSH2 0x157 PUSH1 0x4 DUP1 CALLDATASIZE SUB DUP2 ADD SWAP1 PUSH2 0x152 SWAP2 SWAP1 PUSH2 0x55DA JUMP JUMPDEST PUSH2 0x37A JUMP JUMPDEST PUSH1 0x40 MLOAD PUSH2 0x164 SWAP2 SWAP1 PUSH2 0x5A74 JUMP JUMPDEST PUSH1 0x40 MLOAD DUP1 SWAP2 SUB SWAP1 RETURN JUMPDEST PUSH2 0x175 PUSH2 0x3E4 JUMP JUMPDEST STOP JUMPDEST PUSH2 0x17F PUSH2 0x3F8 JUMP JUMPDEST PUSH1 0x40 MLOAD PUSH2 0x18C SWAP2 SWAP1 PUSH2 0x5897 JUMP JUMPDEST PUSH1 0x40 MLOAD DUP1 SWAP2 SUB SWAP1 RETURN JUMPDEST PUSH2 0x19D PUSH2 0x40B JUMP JUMPDEST PUSH1 0x40 MLOAD PUSH2 0x1AA SWAP2 SWAP1 PUSH2 0x587C JUMP JUMPDEST PUSH1 0x40 MLOAD DUP1 SWAP2 SUB SWAP1 RETURN JUMPDEST PUSH2 0x1CD PUSH1 0x4 DUP1 CALLDATASIZE SUB DUP2 ADD SWAP1 PUSH2 0x1C8 SWAP2 SWAP1 PUSH2 0x5591 JUMP JUMPDEST PUSH2 0x434 JUMP JUMPDEST STOP JUMPDEST PUSH2 0x1E9 PUSH1 0x4 DUP1 CALLDATASIZE SUB DUP2 ADD SWAP1 PUSH2 0x1E4 SWAP2 SWAP1 PUSH2 0x55DA JUMP JUMPDEST PUSH2 0x448 JUMP JUMPDEST PUSH1 0x40 MLOAD PUSH2 0x1F7 SWAP3 SWAP2 SWAP1 PUSH2 0x5A8F JUMP JUMPDEST PUSH1 0x40 MLOAD DUP1 SWAP2 SUB SWAP1 RETURN JUMPDEST PUSH2 0x21A PUSH1 0x4 DUP1 CALLDATASIZE SUB DUP2 ADD SWAP1 PUSH2 0x215 SWAP2 SWAP1 PUSH2 0x5564 JUMP JUMPDEST PUSH2 0x530 JUMP JUMPDEST PUSH1 0x40 MLOAD PUSH2 0x227 SWAP2 SWAP1 PUSH2 0x5A74 JUMP JUMPDEST PUSH1 0x40 MLOAD DUP1 SWAP2 SUB SWAP1 RETURN JUMPDEST PUSH2 0x24A PUSH1 0x4 DUP1 CALLDATASIZE SUB DUP2 ADD SWAP1 PUSH2 0x245 SWAP2 SWAP1 PUSH2 0x5564 JUMP JUMPDEST PUSH2 0x548 JUMP JUMPDEST PUSH1 0x40 MLOAD PUSH2 0x257 SWAP2 SWAP1 PUSH2 0x5A74 JUMP JUMPDEST PUSH1 0x40 MLOAD DUP1 SWAP2 SUB SWAP1 RETURN JUMPDEST PUSH2 0x268 PUSH2 0x560 JUMP JUMPDEST PUSH1 0x40 MLOAD PUSH2 0x275 SWAP2 SWAP1 PUSH2 0x58B2 JUMP JUMPDEST PUSH1 0x40 MLOAD DUP1 SWAP2 SUB SWAP1 RETURN JUMPDEST PUSH2 0x298 PUSH1 0x4 DUP1 CALLDATASIZE SUB DUP2 ADD SWAP1 PUSH2 0x293 SWAP2 SWAP1 PUSH2 0x55DA JUMP JUMPDEST PUSH2 0x5EE JUMP JUMPDEST PUSH1 0x40 MLOAD PUSH2 0x2A5 SWAP2 SWAP1 PUSH2 0x5A74 JUMP JUMPDEST PUSH1 0x40 MLOAD DUP1 SWAP2 SUB SWAP1 RETURN JUMPDEST PUSH2 0x2B6 PUSH2 0x658 JUMP JUMPDEST STOP JUMPDEST PUSH2 0x2D2 PUSH1 0x4 DUP1 CALLDATASIZE SUB DUP2 ADD SWAP1 PUSH2 0x2CD SWAP2 SWAP1 PUSH2 0x5564 JUMP JUMPDEST PUSH2 0x66A JUMP JUMPDEST STOP JUMPDEST PUSH1 0xA PUSH1 0x20 MSTORE DUP1 PUSH1 0x0 MSTORE PUSH1 0x40 PUSH1 0x0 KECCAK256 PUSH1 0x0 SWAP2 POP SWAP1 POP SLOAD DUP2 JUMP JUMPDEST PUSH1 0x2 DUP1 SLOAD PUSH2 0x2F9 SWAP1 PUSH2 0x5DD7 JUMP JUMPDEST DUP1 PUSH1 0x1F ADD PUSH1 0x20 DUP1 SWAP2 DIV MUL PUSH1 0x20 ADD PUSH1 0x40 MLOAD SWAP1 DUP2 ADD PUSH1 0x40 MSTORE DUP1 SWAP3 SWAP2 SWAP1 DUP2 DUP2 MSTORE PUSH1 0x20 ADD DUP3 DUP1 SLOAD PUSH2 0x325 SWAP1 PUSH2 0x5DD7 JUMP JUMPDEST DUP1 ISZERO PUSH2 0x372 JUMPI DUP1 PUSH1 0x1F LT PUSH2 0x347 JUMPI PUSH2 0x100 DUP1 DUP4 SLOAD DIV MUL DUP4 MSTORE SWAP2 PUSH1 0x20 ADD SWAP2 PUSH2 0x372 JUMP JUMPDEST DUP3 ADD SWAP2 SWAP1 PUSH1 0x0 MSTORE PUSH1 0x20 PUSH1 0x0 KECCAK256 SWAP1 JUMPDEST DUP2 SLOAD DUP2 MSTORE SWAP1 PUSH1 0x1 ADD SWAP1 PUSH1 0x20 ADD DUP1 DUP4 GT PUSH2 0x355 JUMPI DUP3 SWAP1 SUB PUSH1 0x1F AND DUP3 ADD SWAP2 JUMPDEST POP POP POP POP POP DUP2 JUMP JUMPDEST PUSH1 0x0 DUP1 PUSH2 0x392 DUP4 PUSH1 0x3 SLOAD PUSH2 0x6EE SWAP1 SWAP2 SWAP1 PUSH4 0xFFFFFFFF AND JUMP JUMPDEST SWAP1 POP PUSH1 0x0 PUSH2 0x3AB DUP3 PUSH1 0x5 SLOAD PUSH2 0x704 SWAP1 SWAP2 SWAP1 PUSH4 0xFFFFFFFF AND JUMP JUMPDEST SWAP1 POP PUSH2 0x3C2 DUP2 PUSH1 0x4 SLOAD PUSH2 0x71A SWAP1 SWAP2 SWAP1 PUSH4 0xFFFFFFFF AND JUMP JUMPDEST SWAP3 POP PUSH1 0x4 SLOAD DUP4 EQ ISZERO PUSH2 0x3DD JUMPI DUP3 DUP1 PUSH2 0x3D9 SWAP1 PUSH2 0x5DAD JUMP JUMPDEST SWAP4 POP POP JUMPDEST POP POP SWAP2 SWAP1 POP JUMP JUMPDEST PUSH2 0x3EC PUSH2 0x730 JUMP JUMPDEST PUSH2 0x3F6 PUSH1 0x0 PUSH2 0x7AE JUMP JUMPDEST JUMP JUMPDEST PUSH1 0xC PUSH1 0x0 SWAP1 SLOAD SWAP1 PUSH2 0x100 EXP SWAP1 DIV PUSH1 0xFF AND DUP2 JUMP JUMPDEST PUSH1 0x0 DUP1 PUSH1 0x0 SWAP1 SLOAD SWAP1 PUSH2 0x100 EXP SWAP1 DIV PUSH20 0xFFFFFFFFFFFFFFFFFFFFFFFFFFFFFFFFFFFFFFFF AND SWAP1 POP SWAP1 JUMP JUMPDEST PUSH2 0x43C PUSH2 0x730 JUMP JUMPDEST PUSH2 0x445 DUP2 PUSH2 0x872 JUMP JUMPDEST POP JUMP JUMPDEST PUSH1 0x0 DUP1 PUSH1 0x0 PUSH1 0x8 SLOAD GT PUSH2 0x490 JUMPI PUSH1 0x40 MLOAD PUSH32 0x8C379A000000000000000000000000000000000000000000000000000000000 DUP2 MSTORE PUSH1 0x4 ADD PUSH2 0x487 SWAP1 PUSH2 0x5A34 JUMP JUMPDEST PUSH1 0x40 MLOAD DUP1 SWAP2 SUB SWAP1 REVERT JUMPDEST PUSH1 0x8 SLOAD DUP4 GT ISZERO PUSH2 0x4D5 JUMPI PUSH1 0x40 MLOAD PUSH32 0x8C379A000000000000000000000000000000000000000000000000000000000 DUP2 MSTORE PUSH1 0x4 ADD PUSH2 0x4CC SWAP1 PUSH2 0x59D4 JUMP JUMPDEST PUSH1 0x40 MLOAD DUP1 SWAP2 SUB SWAP1 REVERT JUMPDEST PUSH2 0x4FE PUSH1 0x8 SLOAD PUSH2 0x4F0 PUSH1 0x3 SLOAD DUP7 PUSH2 0xC10 SWAP1 SWAP2 SWAP1 PUSH4 0xFFFFFFFF AND JUMP JUMPDEST PUSH2 0x704 SWAP1 SWAP2 SWAP1 PUSH4 0xFFFFFFFF AND JUMP JUMPDEST SWAP2 POP PUSH2 0x529 PUSH1 0x8 SLOAD PUSH2 0x51B PUSH1 0x4 SLOAD DUP7 PUSH2 0xC10 SWAP1 SWAP2 SWAP1 PUSH4 0xFFFFFFFF AND JUMP JUMPDEST PUSH2 0x704 SWAP1 SWAP2 SWAP1 PUSH4 0xFFFFFFFF AND JUMP JUMPDEST SWAP1 POP SWAP2 POP SWAP2 JUMP JUMPDEST PUSH1 0x9 PUSH1 0x20 MSTORE DUP1 PUSH1 0x0 MSTORE PUSH1 0x40 PUSH1 0x0 KECCAK256 PUSH1 0x0 SWAP2 POP SWAP1 POP SLOAD DUP2 JUMP JUMPDEST PUSH1 0x6 PUSH1 0x20 MSTORE DUP1 PUSH1 0x0 MSTORE PUSH1 0x40 PUSH1 0x0 KECCAK256 PUSH1 0x0 SWAP2 POP SWAP1 POP SLOAD DUP2 JUMP JUMPDEST PUSH1 0x1 DUP1 SLOAD PUSH2 0x56D SWAP1 PUSH2 0x5DD7 JUMP JUMPDEST DUP1 PUSH1 0x1F ADD PUSH1 0x20 DUP1 SWAP2 DIV MUL PUSH1 0x20 ADD PUSH1 0x40 MLOAD SWAP1 DUP2 ADD PUSH1 0x40 MSTORE DUP1 SWAP3 SWAP2 SWAP1 DUP2 DUP2 MSTORE PUSH1 0x20 ADD DUP3 DUP1 SLOAD PUSH2 0x599 SWAP1 PUSH2 0x5DD7 JUMP JUMPDEST DUP1 ISZERO PUSH2 0x5E6 JUMPI DUP1 PUSH1 0x1F LT PUSH2 0x5BB JUMPI PUSH2 0x100 DUP1 DUP4 SLOAD DIV MUL DUP4 MSTORE SWAP2 PUSH1 0x20 ADD SWAP2 PUSH2 0x5E6 JUMP JUMPDEST DUP3 ADD SWAP2 SWAP1 PUSH1 0x0 MSTORE PUSH1 0x20 PUSH1 0x0 KECCAK256 SWAP1 JUMPDEST DUP2 SLOAD DUP2 MSTORE SWAP1 PUSH1 0x1 ADD SWAP1 PUSH1 0x20 ADD DUP1 DUP4 GT PUSH2 0x5C9 JUMPI DUP3 SWAP1 SUB PUSH1 0x1F AND DUP3 ADD SWAP2 JUMPDEST POP POP POP POP POP DUP2 JUMP JUMPDEST PUSH1 0x0 DUP1 PUSH2 0x606 DUP4 PUSH1 0x4 SLOAD PUSH2 0x6EE SWAP1 SWAP2 SWAP1 PUSH4 0xFFFFFFFF AND JUMP JUMPDEST SWAP1 POP PUSH1 0x0 PUSH2 0x61F DUP3 PUSH1 0x5 SLOAD PUSH2 0x704 SWAP1 SWAP2 SWAP1 PUSH4 0xFFFFFFFF AND JUMP JUMPDEST SWAP1 POP PUSH2 0x636 DUP2 PUSH1 0x3 SLOAD PUSH2 0x71A SWAP1 SWAP2 SWAP1 PUSH4 0xFFFFFFFF AND JUMP JUMPDEST SWAP3 POP PUSH1 0x3 SLOAD DUP4 EQ ISZERO PUSH2 0x651 JUMPI DUP3 DUP1 PUSH2 0x64D SWAP1 PUSH2 0x5DAD JUMP JUMPDEST SWAP4 POP POP JUMPDEST POP POP SWAP2 SWAP1 POP JUMP JUMPDEST PUSH2 0x660 PUSH2 0x730 JUMP JUMPDEST PUSH2 0x668 PUSH2 0xC26 JUMP JUMPDEST JUMP JUMPDEST PUSH2 0x672 PUSH2 0x730 JUMP JUMPDEST PUSH1 0x0 PUSH20 0xFFFFFFFFFFFFFFFFFFFFFFFFFFFFFFFFFFFFFFFF AND DUP2 PUSH20 0xFFFFFFFFFFFFFFFFFFFFFFFFFFFFFFFFFFFFFFFF AND EQ ISZERO PUSH2 0x6E2 JUMPI PUSH1 0x40 MLOAD PUSH32 0x8C379A000000000000000000000000000000000000000000000000000000000 DUP2 MSTORE PUSH1 0x4 ADD PUSH2 0x6D9 SWAP1 PUSH2 0x58F4 JUMP JUMPDEST PUSH1 0x40 MLOAD DUP1 SWAP2 SUB SWAP1 REVERT JUMPDEST PUSH2 0x6EB DUP2 PUSH2 0x7AE JUMP JUMPDEST POP JUMP JUMPDEST PUSH1 0x0 DUP2 DUP4 PUSH2 0x6FC SWAP2 SWAP1 PUSH2 0x5B46 JUMP JUMPDEST SWAP1 POP SWAP3 SWAP2 POP POP JUMP JUMPDEST PUSH1 0x0 DUP2 DUP4 PUSH2 0x712 SWAP2 SWAP1 PUSH2 0x5BDA JUMP JUMPDEST SWAP1 POP SWAP3 SWAP2 POP POP JUMP JUMPDEST PUSH1 0x0 DUP2 DUP4 PUSH2 0x728 SWAP2 SWAP1 PUSH2 0x5CA7 JUMP JUMPDEST SWAP1 POP SWAP3 SWAP2 POP POP JUMP JUMPDEST PUSH2 0x738 PUSH2 0xE8B JUMP JUMPDEST PUSH20 0xFFFFFFFFFFFFFFFFFFFFFFFFFFFFFFFFFFFFFFFF AND PUSH2 0x756 PUSH2 0x40B JUMP JUMPDEST PUSH20 0xFFFFFFFFFFFFFFFFFFFFFFFFFFFFFFFFFFFFFFFF AND EQ PUSH2 0x7AC JUMPI PUSH1 0x40 MLOAD PUSH32 0x8C379A000000000000000000000000000000000000000000000000000000000 DUP2 MSTORE PUSH1 0x4 ADD PUSH2 0x7A3 SWAP1 PUSH2 0x59B4 JUMP JUMPDEST PUSH1 0x40 MLOAD DUP1 SWAP2 SUB SWAP1 REVERT JUMPDEST JUMP JUMPDEST PUSH1 0x0 DUP1 PUSH1 0x0 SWAP1 SLOAD SWAP1 PUSH2 0x100 EXP SWAP1 DIV PUSH20 0xFFFFFFFFFFFFFFFFFFFFFFFFFFFFFFFFFFFFFFFF AND SWAP1 POP DUP2 PUSH1 0x0 DUP1 PUSH2 0x100 EXP DUP2 SLOAD DUP2 PUSH20 0xFFFFFFFFFFFFFFFFFFFFFFFFFFFFFFFFFFFFFFFF MUL NOT AND SWAP1 DUP4 PUSH20 0xFFFFFFFFFFFFFFFFFFFFFFFFFFFFFFFFFFFFFFFF AND MUL OR SWAP1 SSTORE POP DUP2 PUSH20 0xFFFFFFFFFFFFFFFFFFFFFFFFFFFFFFFFFFFFFFFF AND DUP2 PUSH20 0xFFFFFFFFFFFFFFFFFFFFFFFFFFFFFFFFFFFFFFFF AND PUSH32 0x8BE0079C531659141344CD1FD0A4F28419497F9722A3DAAFE3B4186F6B6457E0 PUSH1 0x40 MLOAD PUSH1 0x40 MLOAD DUP1 SWAP2 SUB SWAP1 LOG3 POP POP JUMP JUMPDEST PUSH1 0x3 PUSH1 0x8 DUP2 GT ISZERO PUSH2 0x886 JUMPI PUSH2 0x885 PUSH2 0x5F12 JUMP JUMPDEST JUMPDEST DUP2 PUSH1 0x20 ADD MLOAD PUSH1 0x8 DUP2 GT ISZERO PUSH2 0x89D JUMPI PUSH2 0x89C PUSH2 0x5F12 JUMP JUMPDEST JUMPDEST EQ ISZERO PUSH2 0x90C JUMPI PUSH1 0x0 DUP1 PUSH2 0x8BB PUSH1 0x0 DUP5 PUSH1 0x40 ADD MLOAD DUP6 PUSH1 0x40 ADD MLOAD MLOAD PUSH2 0xE93 JUMP JUMPDEST SWAP3 POP POP SWAP2 POP DUP2 PUSH2 0x900 JUMPI PUSH1 0x40 MLOAD PUSH32 0x8C379A000000000000000000000000000000000000000000000000000000000 DUP2 MSTORE PUSH1 0x4 ADD PUSH2 0x8F7 SWAP1 PUSH2 0x59F4 JUMP JUMPDEST PUSH1 0x40 MLOAD DUP1 SWAP2 SUB SWAP1 REVERT JUMPDEST PUSH2 0x909 DUP2 PUSH2 0x104D JUMP JUMPDEST POP POP JUMPDEST PUSH1 0x7 PUSH1 0x8 DUP2 GT ISZERO PUSH2 0x920 JUMPI PUSH2 0x91F PUSH2 0x5F12 JUMP JUMPDEST JUMPDEST DUP2 PUSH1 0x20 ADD MLOAD PUSH1 0x8 DUP2 GT ISZERO PUSH2 0x937 JUMPI PUSH2 0x936 PUSH2 0x5F12 JUMP JUMPDEST JUMPDEST EQ ISZERO PUSH2 0x9A6 JUMPI PUSH1 0x0 DUP1 PUSH2 0x955 PUSH1 0x0 DUP5 PUSH1 0x40 ADD MLOAD DUP6 PUSH1 0x40 ADD MLOAD MLOAD PUSH2 0x1207 JUMP JUMPDEST SWAP3 POP POP SWAP2 POP DUP2 PUSH2 0x99A JUMPI PUSH1 0x40 MLOAD PUSH32 0x8C379A000000000000000000000000000000000000000000000000000000000 DUP2 MSTORE PUSH1 0x4 ADD PUSH2 0x991 SWAP1 PUSH2 0x5994 JUMP JUMPDEST PUSH1 0x40 MLOAD DUP1 SWAP2 SUB SWAP1 REVERT JUMPDEST PUSH2 0x9A3 DUP2 PUSH2 0x13C1 JUMP JUMPDEST POP POP JUMPDEST PUSH1 0x8 DUP1 DUP2 GT ISZERO PUSH2 0x9B9 JUMPI PUSH2 0x9B8 PUSH2 0x5F12 JUMP JUMPDEST JUMPDEST DUP2 PUSH1 0x20 ADD MLOAD PUSH1 0x8 DUP2 GT ISZERO PUSH2 0x9D0 JUMPI PUSH2 0x9CF PUSH2 0x5F12 JUMP JUMPDEST JUMPDEST EQ ISZERO PUSH2 0xA3F JUMPI PUSH1 0x0 DUP1 PUSH2 0x9EE PUSH1 0x0 DUP5 PUSH1 0x40 ADD MLOAD DUP6 PUSH1 0x40 ADD MLOAD MLOAD PUSH2 0x16D1 JUMP JUMPDEST SWAP3 POP POP SWAP2 POP DUP2 PUSH2 0xA33 JUMPI PUSH1 0x40 MLOAD PUSH32 0x8C379A000000000000000000000000000000000000000000000000000000000 DUP2 MSTORE PUSH1 0x4 ADD PUSH2 0xA2A SWAP1 PUSH2 0x5934 JUMP JUMPDEST PUSH1 0x40 MLOAD DUP1 SWAP2 SUB SWAP1 REVERT JUMPDEST PUSH2 0xA3C DUP2 PUSH2 0x188B JUMP JUMPDEST POP POP JUMPDEST PUSH1 0x4 PUSH1 0x8 DUP2 GT ISZERO PUSH2 0xA53 JUMPI PUSH2 0xA52 PUSH2 0x5F12 JUMP JUMPDEST JUMPDEST DUP2 PUSH1 0x20 ADD MLOAD PUSH1 0x8 DUP2 GT ISZERO PUSH2 0xA6A JUMPI PUSH2 0xA69 PUSH2 0x5F12 JUMP JUMPDEST JUMPDEST EQ ISZERO PUSH2 0xAD9 JUMPI PUSH1 0x0 DUP1 PUSH2 0xA88 PUSH1 0x0 DUP5 PUSH1 0x40 ADD MLOAD DUP6 PUSH1 0x40 ADD MLOAD MLOAD PUSH2 0x1AA4 JUMP JUMPDEST SWAP3 POP POP SWAP2 POP DUP2 PUSH2 0xACD JUMPI PUSH1 0x40 MLOAD PUSH32 0x8C379A000000000000000000000000000000000000000000000000000000000 DUP2 MSTORE PUSH1 0x4 ADD PUSH2 0xAC4 SWAP1 PUSH2 0x5914 JUMP JUMPDEST PUSH1 0x40 MLOAD DUP1 SWAP2 SUB SWAP1 REVERT JUMPDEST PUSH2 0xAD6 DUP2 PUSH2 0x1C5E JUMP JUMPDEST POP POP JUMPDEST PUSH1 0x5 PUSH1 0x8 DUP2 GT ISZERO PUSH2 0xAED JUMPI PUSH2 0xAEC PUSH2 0x5F12 JUMP JUMPDEST JUMPDEST DUP2 PUSH1 0x20 ADD MLOAD PUSH1 0x8 DUP2 GT ISZERO PUSH2 0xB04 JUMPI PUSH2 0xB03 PUSH2 0x5F12 JUMP JUMPDEST JUMPDEST EQ ISZERO PUSH2 0xB73 JUMPI PUSH1 0x0 DUP1 PUSH2 0xB22 PUSH1 0x0 DUP5 PUSH1 0x40 ADD MLOAD DUP6 PUSH1 0x40 ADD MLOAD MLOAD PUSH2 0x1F44 JUMP JUMPDEST SWAP3 POP POP SWAP2 POP DUP2 PUSH2 0xB67 JUMPI PUSH1 0x40 MLOAD PUSH32 0x8C379A000000000000000000000000000000000000000000000000000000000 DUP2 MSTORE PUSH1 0x4 ADD PUSH2 0xB5E SWAP1 PUSH2 0x5A54 JUMP JUMPDEST PUSH1 0x40 MLOAD DUP1 SWAP2 SUB SWAP1 REVERT JUMPDEST PUSH2 0xB70 DUP2 PUSH2 0x20FE JUMP JUMPDEST POP POP JUMPDEST PUSH1 0x6 PUSH1 0x8 DUP2 GT ISZERO PUSH2 0xB87 JUMPI PUSH2 0xB86 PUSH2 0x5F12 JUMP JUMPDEST JUMPDEST DUP2 PUSH1 0x20 ADD MLOAD PUSH1 0x8 DUP2 GT ISZERO PUSH2 0xB9E JUMPI PUSH2 0xB9D PUSH2 0x5F12 JUMP JUMPDEST JUMPDEST EQ ISZERO PUSH2 0xC0D JUMPI PUSH1 0x0 DUP1 PUSH2 0xBBC PUSH1 0x0 DUP5 PUSH1 0x40 ADD MLOAD DUP6 PUSH1 0x40 ADD MLOAD MLOAD PUSH2 0x22A3 JUMP JUMPDEST SWAP3 POP POP SWAP2 POP DUP2 PUSH2 0xC01 JUMPI PUSH1 0x40 MLOAD PUSH32 0x8C379A000000000000000000000000000000000000000000000000000000000 DUP2 MSTORE PUSH1 0x4 ADD PUSH2 0xBF8 SWAP1 PUSH2 0x58D4 JUMP JUMPDEST PUSH1 0x40 MLOAD DUP1 SWAP2 SUB SWAP1 REVERT JUMPDEST PUSH2 0xC0A DUP2 PUSH2 0x245D JUMP JUMPDEST POP POP JUMPDEST POP JUMP JUMPDEST PUSH1 0x0 DUP2 DUP4 PUSH2 0xC1E SWAP2 SWAP1 PUSH2 0x5C0B JUMP JUMPDEST SWAP1 POP SWAP3 SWAP2 POP POP JUMP JUMPDEST PUSH1 0x0 JUMPDEST PUSH1 0x7 DUP1 SLOAD SWAP1 POP DUP2 LT ISZERO PUSH2 0xCCA JUMPI PUSH1 0x6 PUSH1 0x0 PUSH1 0x7 DUP4 DUP2 SLOAD DUP2 LT PUSH2 0xC4E JUMPI PUSH2 0xC4D PUSH2 0x5F70 JUMP JUMPDEST JUMPDEST SWAP1 PUSH1 0x0 MSTORE PUSH1 0x20 PUSH1 0x0 KECCAK256 ADD PUSH1 0x0 SWAP1 SLOAD SWAP1 PUSH2 0x100 EXP SWAP1 DIV PUSH20 0xFFFFFFFFFFFFFFFFFFFFFFFFFFFFFFFFFFFFFFFF AND PUSH20 0xFFFFFFFFFFFFFFFFFFFFFFFFFFFFFFFFFFFFFFFF AND PUSH20 0xFFFFFFFFFFFFFFFFFFFFFFFFFFFFFFFFFFFFFFFF AND DUP2 MSTORE PUSH1 0x20 ADD SWAP1 DUP2 MSTORE PUSH1 0x20 ADD PUSH1 0x0 KECCAK256 PUSH1 0x0 SWAP1 SSTORE DUP1 DUP1 PUSH2 0xCC2 SWAP1 PUSH2 0x5E3A JUMP JUMPDEST SWAP2 POP POP PUSH2 0xC29 JUMP JUMPDEST POP PUSH1 0x7 PUSH1 0x0 PUSH2 0xCD9 SWAP2 SWAP1 PUSH2 0x517F JUMP JUMPDEST PUSH3 0xF4240 PUSH1 0x0 PUSH2 0xCE9 SWAP2 SWAP1 PUSH2 0x5C65 JUMP JUMPDEST PUSH8 0xFFFFFFFFFFFFFFFF AND PUSH1 0x8 DUP2 SWAP1 SSTORE POP PUSH1 0x0 JUMPDEST PUSH1 0xB DUP1 SLOAD SWAP1 POP DUP2 LT ISZERO PUSH2 0xE1E JUMPI PUSH1 0x9 PUSH1 0x0 PUSH1 0xB DUP4 DUP2 SLOAD DUP2 LT PUSH2 0xD21 JUMPI PUSH2 0xD20 PUSH2 0x5F70 JUMP JUMPDEST JUMPDEST SWAP1 PUSH1 0x0 MSTORE PUSH1 0x20 PUSH1 0x0 KECCAK256 ADD PUSH1 0x0 SWAP1 SLOAD SWAP1 PUSH2 0x100 EXP SWAP1 DIV PUSH20 0xFFFFFFFFFFFFFFFFFFFFFFFFFFFFFFFFFFFFFFFF AND PUSH20 0xFFFFFFFFFFFFFFFFFFFFFFFFFFFFFFFFFFFFFFFF AND PUSH20 0xFFFFFFFFFFFFFFFFFFFFFFFFFFFFFFFFFFFFFFFF AND DUP2 MSTORE PUSH1 0x20 ADD SWAP1 DUP2 MSTORE PUSH1 0x20 ADD PUSH1 0x0 KECCAK256 PUSH1 0x0 SWAP1 SSTORE PUSH1 0xA PUSH1 0x0 PUSH1 0xB DUP4 DUP2 SLOAD DUP2 LT PUSH2 0xDA2 JUMPI PUSH2 0xDA1 PUSH2 0x5F70 JUMP JUMPDEST JUMPDEST SWAP1 PUSH1 0x0 MSTORE PUSH1 0x20 PUSH1 0x0 KECCAK256 ADD PUSH1 0x0 SWAP1 SLOAD SWAP1 PUSH2 0x100 EXP SWAP1 DIV PUSH20 0xFFFFFFFFFFFFFFFFFFFFFFFFFFFFFFFFFFFFFFFF AND PUSH20 0xFFFFFFFFFFFFFFFFFFFFFFFFFFFFFFFFFFFFFFFF AND PUSH20 0xFFFFFFFFFFFFFFFFFFFFFFFFFFFFFFFFFFFFFFFF AND DUP2 MSTORE PUSH1 0x20 ADD SWAP1 DUP2 MSTORE PUSH1 0x20 ADD PUSH1 0x0 KECCAK256 PUSH1 0x0 SWAP1 SSTORE DUP1 DUP1 PUSH2 0xE16 SWAP1 PUSH2 0x5E3A JUMP JUMPDEST SWAP2 POP POP PUSH2 0xCFC JUMP JUMPDEST POP PUSH1 0xB PUSH1 0x0 PUSH2 0xE2D SWAP2 SWAP1 PUSH2 0x517F JUMP JUMPDEST PUSH1 0x40 MLOAD DUP1 PUSH1 0x20 ADD PUSH1 0x40 MSTORE DUP1 PUSH1 0x0 DUP2 MSTORE POP PUSH1 0x1 SWAP1 DUP1 MLOAD SWAP1 PUSH1 0x20 ADD SWAP1 PUSH2 0xE52 SWAP3 SWAP2 SWAP1 PUSH2 0x51A0 JUMP JUMPDEST POP PUSH1 0x40 MLOAD DUP1 PUSH1 0x20 ADD PUSH1 0x40 MSTORE DUP1 PUSH1 0x0 DUP2 MSTORE POP PUSH1 0x2 SWAP1 DUP1 MLOAD SWAP1 PUSH1 0x20 ADD SWAP1 PUSH2 0xE78 SWAP3 SWAP2 SWAP1 PUSH2 0x51A0 JUMP JUMPDEST POP PUSH1 0x0 PUSH1 0x3 DUP2 SWAP1 SSTORE POP PUSH1 0x0 PUSH1 0x4 DUP2 SWAP1 SSTORE POP JUMP JUMPDEST PUSH1 0x0 CALLER SWAP1 POP SWAP1 JUMP JUMPDEST PUSH1 0x0 DUP1 PUSH2 0xE9E PUSH2 0x5226 JUMP JUMPDEST PUSH2 0xEA6 PUSH2 0x5226 JUMP JUMPDEST PUSH1 0x0 DUP1 DUP9 SWAP1 POP DUP1 PUSH8 0xFFFFFFFFFFFFFFFF AND DUP8 DUP3 PUSH2 0xEC3 SWAP2 SWAP1 PUSH2 0x5B9C JUMP JUMPDEST PUSH8 0xFFFFFFFFFFFFFFFF AND LT ISZERO PUSH2 0xEE5 JUMPI PUSH1 0x0 DUP2 DUP5 SWAP6 POP SWAP6 POP SWAP6 POP POP POP POP PUSH2 0x1044 JUMP JUMPDEST JUMPDEST DUP7 PUSH8 0xFFFFFFFFFFFFFFFF AND DUP10 DUP3 PUSH2 0xEFD SWAP2 SWAP1 PUSH2 0x5CDB JUMP JUMPDEST PUSH8 0xFFFFFFFFFFFFFFFF AND LT ISZERO PUSH2 0xFFE JUMPI PUSH1 0x0 DUP1 PUSH1 0x0 PUSH2 0xF1C DUP5 DUP13 PUSH2 0x2741 JUMP JUMPDEST DUP1 SWAP5 POP DUP2 SWAP6 POP DUP3 SWAP8 POP DUP4 SWAP7 POP POP POP POP POP DUP3 PUSH2 0xF46 JUMPI PUSH1 0x0 DUP5 DUP8 SWAP9 POP SWAP9 POP SWAP9 POP POP POP POP POP POP POP PUSH2 0x1044 JUMP JUMPDEST PUSH1 0x5 DUP3 PUSH8 0xFFFFFFFFFFFFFFFF AND GT ISZERO PUSH2 0xF6E JUMPI PUSH1 0x0 DUP5 DUP8 SWAP9 POP SWAP9 POP SWAP9 POP POP POP POP POP POP POP PUSH2 0x1044 JUMP JUMPDEST DUP5 PUSH8 0xFFFFFFFFFFFFFFFF AND DUP3 PUSH8 0xFFFFFFFFFFFFFFFF AND GT PUSH2 0xF9E JUMPI PUSH1 0x0 DUP5 DUP8 SWAP9 POP SWAP9 POP SWAP9 POP POP POP POP POP POP POP PUSH2 0x1044 JUMP JUMPDEST PUSH2 0xFA8 DUP3 DUP3 PUSH2 0x288D JUMP JUMPDEST SWAP3 POP DUP3 PUSH2 0xFC4 JUMPI PUSH1 0x0 DUP5 DUP8 SWAP9 POP SWAP9 POP SWAP9 POP POP POP POP POP POP POP PUSH2 0x1044 JUMP JUMPDEST PUSH2 0xFD1 DUP5 DUP13 DUP13 DUP6 DUP11 PUSH2 0x29E4 JUMP JUMPDEST DUP1 SWAP6 POP DUP2 SWAP5 POP POP POP DUP3 PUSH2 0xFF3 JUMPI PUSH1 0x0 DUP5 DUP8 SWAP9 POP SWAP9 POP SWAP9 POP POP POP POP POP POP POP PUSH2 0x1044 JUMP JUMPDEST DUP2 SWAP5 POP POP POP POP PUSH2 0xEE6 JUMP JUMPDEST DUP7 DUP10 PUSH2 0x100A SWAP2 SWAP1 PUSH2 0x5B9C JUMP JUMPDEST PUSH8 0xFFFFFFFFFFFFFFFF AND DUP2 PUSH8 0xFFFFFFFFFFFFFFFF AND EQ PUSH2 0x1036 JUMPI PUSH1 0x0 DUP2 DUP5 SWAP6 POP SWAP6 POP SWAP6 POP POP POP POP PUSH2 0x1044 JUMP JUMPDEST PUSH1 0x1 DUP2 DUP5 SWAP6 POP SWAP6 POP SWAP6 POP POP POP POP JUMPDEST SWAP4 POP SWAP4 POP SWAP4 SWAP1 POP JUMP JUMPDEST DUP1 PUSH1 0x0 ADD MLOAD PUSH1 0x1 SWAP1 DUP1 MLOAD SWAP1 PUSH1 0x20 ADD SWAP1 PUSH2 0x1067 SWAP3 SWAP2 SWAP1 PUSH2 0x5269 JUMP JUMPDEST POP PUSH1 0x0 PUSH1 0x3 DUP2 SWAP1 SSTORE POP DUP1 PUSH1 0x20 ADD MLOAD PUSH1 0x2 SWAP1 DUP1 MLOAD SWAP1 PUSH1 0x20 ADD SWAP1 PUSH2 0x108A SWAP3 SWAP2 SWAP1 PUSH2 0x5269 JUMP JUMPDEST POP PUSH1 0x0 PUSH1 0x4 DUP2 SWAP1 SSTORE POP PUSH2 0x10AA PUSH1 0x4 SLOAD PUSH1 0x3 SLOAD PUSH2 0xC10 SWAP1 SWAP2 SWAP1 PUSH4 0xFFFFFFFF AND JUMP JUMPDEST PUSH1 0x5 DUP2 SWAP1 SSTORE POP PUSH3 0xF4240 PUSH1 0x0 PUSH2 0x10C0 SWAP2 SWAP1 PUSH2 0x5C65 JUMP JUMPDEST PUSH8 0xFFFFFFFFFFFFFFFF AND PUSH1 0x8 DUP2 SWAP1 SSTORE POP PUSH1 0x0 PUSH2 0x10DF DUP3 PUSH1 0x80 ADD MLOAD PUSH2 0x2B6C JUMP JUMPDEST SWAP1 POP DUP2 PUSH1 0x40 ADD MLOAD PUSH8 0xFFFFFFFFFFFFFFFF AND PUSH1 0x9 PUSH1 0x0 DUP4 PUSH20 0xFFFFFFFFFFFFFFFFFFFFFFFFFFFFFFFFFFFFFFFF AND PUSH20 0xFFFFFFFFFFFFFFFFFFFFFFFFFFFFFFFFFFFFFFFF AND DUP2 MSTORE PUSH1 0x20 ADD SWAP1 DUP2 MSTORE PUSH1 0x20 ADD PUSH1 0x0 KECCAK256 DUP2 SWAP1 SSTORE POP DUP2 PUSH1 0x60 ADD MLOAD PUSH8 0xFFFFFFFFFFFFFFFF AND PUSH1 0xA PUSH1 0x0 DUP4 PUSH20 0xFFFFFFFFFFFFFFFFFFFFFFFFFFFFFFFFFFFFFFFF AND PUSH20 0xFFFFFFFFFFFFFFFFFFFFFFFFFFFFFFFFFFFFFFFF AND DUP2 MSTORE PUSH1 0x20 ADD SWAP1 DUP2 MSTORE PUSH1 0x20 ADD PUSH1 0x0 KECCAK256 DUP2 SWAP1 SSTORE POP PUSH1 0xB DUP2 SWAP1 DUP1 PUSH1 0x1 DUP2 SLOAD ADD DUP1 DUP3 SSTORE DUP1 SWAP2 POP POP PUSH1 0x1 SWAP1 SUB SWAP1 PUSH1 0x0 MSTORE PUSH1 0x20 PUSH1 0x0 KECCAK256 ADD PUSH1 0x0 SWAP1 SWAP2 SWAP1 SWAP2 SWAP1 SWAP2 PUSH2 0x100 EXP DUP2 SLOAD DUP2 PUSH20 0xFFFFFFFFFFFFFFFFFFFFFFFFFFFFFFFFFFFFFFFF MUL NOT AND SWAP1 DUP4 PUSH20 0xFFFFFFFFFFFFFFFFFFFFFFFFFFFFFFFFFFFFFFFF AND MUL OR SWAP1 SSTORE POP PUSH1 0x1 PUSH1 0xC PUSH1 0x0 PUSH2 0x100 EXP DUP2 SLOAD DUP2 PUSH1 0xFF MUL NOT AND SWAP1 DUP4 ISZERO ISZERO MUL OR SWAP1 SSTORE POP POP POP JUMP JUMPDEST PUSH1 0x0 DUP1 PUSH2 0x1212 PUSH2 0x52EF JUMP JUMPDEST PUSH2 0x121A PUSH2 0x52EF JUMP JUMPDEST PUSH1 0x0 DUP1 DUP9 SWAP1 POP DUP1 PUSH8 0xFFFFFFFFFFFFFFFF AND DUP8 DUP3 PUSH2 0x1237 SWAP2 SWAP1 PUSH2 0x5B9C JUMP JUMPDEST PUSH8 0xFFFFFFFFFFFFFFFF AND LT ISZERO PUSH2 0x1259 JUMPI PUSH1 0x0 DUP2 DUP5 SWAP6 POP SWAP6 POP SWAP6 POP POP POP POP PUSH2 0x13B8 JUMP JUMPDEST JUMPDEST DUP7 PUSH8 0xFFFFFFFFFFFFFFFF AND DUP10 DUP3 PUSH2 0x1271 SWAP2 SWAP1 PUSH2 0x5CDB JUMP JUMPDEST PUSH8 0xFFFFFFFFFFFFFFFF AND LT ISZERO PUSH2 0x1372 JUMPI PUSH1 0x0 DUP1 PUSH1 0x0 PUSH2 0x1290 DUP5 DUP13 PUSH2 0x2741 JUMP JUMPDEST DUP1 SWAP5 POP DUP2 SWAP6 POP DUP3 SWAP8 POP DUP4 SWAP7 POP POP POP POP POP DUP3 PUSH2 0x12BA JUMPI PUSH1 0x0 DUP5 DUP8 SWAP9 POP SWAP9 POP SWAP9 POP POP POP POP POP POP POP PUSH2 0x13B8 JUMP JUMPDEST PUSH1 0x3 DUP3 PUSH8 0xFFFFFFFFFFFFFFFF AND GT ISZERO PUSH2 0x12E2 JUMPI PUSH1 0x0 DUP5 DUP8 SWAP9 POP SWAP9 POP SWAP9 POP POP POP POP POP POP POP PUSH2 0x13B8 JUMP JUMPDEST DUP5 PUSH8 0xFFFFFFFFFFFFFFFF AND DUP3 PUSH8 0xFFFFFFFFFFFFFFFF AND GT PUSH2 0x1312 JUMPI PUSH1 0x0 DUP5 DUP8 SWAP9 POP SWAP9 POP SWAP9 POP POP POP POP POP POP POP PUSH2 0x13B8 JUMP JUMPDEST PUSH2 0x131C DUP3 DUP3 PUSH2 0x2BC4 JUMP JUMPDEST SWAP3 POP DUP3 PUSH2 0x1338 JUMPI PUSH1 0x0 DUP5 DUP8 SWAP9 POP SWAP9 POP SWAP9 POP POP POP POP POP POP POP PUSH2 0x13B8 JUMP JUMPDEST PUSH2 0x1345 DUP5 DUP13 DUP13 DUP6 DUP11 PUSH2 0x2C97 JUMP JUMPDEST DUP1 SWAP6 POP DUP2 SWAP5 POP POP POP DUP3 PUSH2 0x1367 JUMPI PUSH1 0x0 DUP5 DUP8 SWAP9 POP SWAP9 POP SWAP9 POP POP POP POP POP POP POP PUSH2 0x13B8 JUMP JUMPDEST DUP2 SWAP5 POP POP POP POP PUSH2 0x125A JUMP JUMPDEST DUP7 DUP10 PUSH2 0x137E SWAP2 SWAP1 PUSH2 0x5B9C JUMP JUMPDEST PUSH8 0xFFFFFFFFFFFFFFFF AND DUP2 PUSH8 0xFFFFFFFFFFFFFFFF AND EQ PUSH2 0x13AA JUMPI PUSH1 0x0 DUP2 DUP5 SWAP6 POP SWAP6 POP SWAP6 POP POP POP POP PUSH2 0x13B8 JUMP JUMPDEST PUSH1 0x1 DUP2 DUP5 SWAP6 POP SWAP6 POP SWAP6 POP POP POP POP JUMPDEST SWAP4 POP SWAP4 POP SWAP4 SWAP1 POP JUMP JUMPDEST PUSH1 0x0 PUSH2 0x13D0 DUP3 PUSH1 0x40 ADD MLOAD PUSH2 0x2B6C JUMP JUMPDEST SWAP1 POP PUSH2 0x146A PUSH1 0x1 DUP1 SLOAD PUSH2 0x13E2 SWAP1 PUSH2 0x5DD7 JUMP JUMPDEST DUP1 PUSH1 0x1F ADD PUSH1 0x20 DUP1 SWAP2 DIV MUL PUSH1 0x20 ADD PUSH1 0x40 MLOAD SWAP1 DUP2 ADD PUSH1 0x40 MSTORE DUP1 SWAP3 SWAP2 SWAP1 DUP2 DUP2 MSTORE PUSH1 0x20 ADD DUP3 DUP1 SLOAD PUSH2 0x140E SWAP1 PUSH2 0x5DD7 JUMP JUMPDEST DUP1 ISZERO PUSH2 0x145B JUMPI DUP1 PUSH1 0x1F LT PUSH2 0x1430 JUMPI PUSH2 0x100 DUP1 DUP4 SLOAD DIV MUL DUP4 MSTORE SWAP2 PUSH1 0x20 ADD SWAP2 PUSH2 0x145B JUMP JUMPDEST DUP3 ADD SWAP2 SWAP1 PUSH1 0x0 MSTORE PUSH1 0x20 PUSH1 0x0 KECCAK256 SWAP1 JUMPDEST DUP2 SLOAD DUP2 MSTORE SWAP1 PUSH1 0x1 ADD SWAP1 PUSH1 0x20 ADD DUP1 DUP4 GT PUSH2 0x143E JUMPI DUP3 SWAP1 SUB PUSH1 0x1F AND DUP3 ADD SWAP2 JUMPDEST POP POP POP POP POP DUP4 PUSH1 0x0 ADD MLOAD PUSH2 0x2D8D JUMP JUMPDEST ISZERO PUSH2 0x14D4 JUMPI DUP2 PUSH1 0x20 ADD MLOAD PUSH8 0xFFFFFFFFFFFFFFFF AND PUSH1 0x9 PUSH1 0x0 DUP4 PUSH20 0xFFFFFFFFFFFFFFFFFFFFFFFFFFFFFFFFFFFFFFFF AND PUSH20 0xFFFFFFFFFFFFFFFFFFFFFFFFFFFFFFFFFFFFFFFF AND DUP2 MSTORE PUSH1 0x20 ADD SWAP1 DUP2 MSTORE PUSH1 0x20 ADD PUSH1 0x0 KECCAK256 PUSH1 0x0 DUP3 DUP3 SLOAD PUSH2 0x14CC SWAP2 SWAP1 PUSH2 0x5B46 JUMP JUMPDEST SWAP3 POP POP DUP2 SWAP1 SSTORE POP JUMPDEST PUSH2 0x156C PUSH1 0x2 DUP1 SLOAD PUSH2 0x14E4 SWAP1 PUSH2 0x5DD7 JUMP JUMPDEST DUP1 PUSH1 0x1F ADD PUSH1 0x20 DUP1 SWAP2 DIV MUL PUSH1 0x20 ADD PUSH1 0x40 MLOAD SWAP1 DUP2 ADD PUSH1 0x40 MSTORE DUP1 SWAP3 SWAP2 SWAP1 DUP2 DUP2 MSTORE PUSH1 0x20 ADD DUP3 DUP1 SLOAD PUSH2 0x1510 SWAP1 PUSH2 0x5DD7 JUMP JUMPDEST DUP1 ISZERO PUSH2 0x155D JUMPI DUP1 PUSH1 0x1F LT PUSH2 0x1532 JUMPI PUSH2 0x100 DUP1 DUP4 SLOAD DIV MUL DUP4 MSTORE SWAP2 PUSH1 0x20 ADD SWAP2 PUSH2 0x155D JUMP JUMPDEST DUP3 ADD SWAP2 SWAP1 PUSH1 0x0 MSTORE PUSH1 0x20 PUSH1 0x0 KECCAK256 SWAP1 JUMPDEST DUP2 SLOAD DUP2 MSTORE SWAP1 PUSH1 0x1 ADD SWAP1 PUSH1 0x20 ADD DUP1 DUP4 GT PUSH2 0x1540 JUMPI DUP3 SWAP1 SUB PUSH1 0x1F AND DUP3 ADD SWAP2 JUMPDEST POP POP POP POP POP DUP4 PUSH1 0x0 ADD MLOAD PUSH2 0x2D8D JUMP JUMPDEST ISZERO PUSH2 0x15D6 JUMPI DUP2 PUSH1 0x20 ADD MLOAD PUSH8 0xFFFFFFFFFFFFFFFF AND PUSH1 0xA PUSH1 0x0 DUP4 PUSH20 0xFFFFFFFFFFFFFFFFFFFFFFFFFFFFFFFFFFFFFFFF AND PUSH20 0xFFFFFFFFFFFFFFFFFFFFFFFFFFFFFFFFFFFFFFFF AND DUP2 MSTORE PUSH1 0x20 ADD SWAP1 DUP2 MSTORE PUSH1 0x20 ADD PUSH1 0x0 KECCAK256 PUSH1 0x0 DUP3 DUP3 SLOAD PUSH2 0x15CE SWAP2 SWAP1 PUSH2 0x5B46 JUMP JUMPDEST SWAP3 POP POP DUP2 SWAP1 SSTORE POP JUMPDEST PUSH1 0x0 PUSH1 0x9 PUSH1 0x0 DUP4 PUSH20 0xFFFFFFFFFFFFFFFFFFFFFFFFFFFFFFFFFFFFFFFF AND PUSH20 0xFFFFFFFFFFFFFFFFFFFFFFFFFFFFFFFFFFFFFFFF AND DUP2 MSTORE PUSH1 0x20 ADD SWAP1 DUP2 MSTORE PUSH1 0x20 ADD PUSH1 0x0 KECCAK256 SLOAD EQ DUP1 ISZERO PUSH2 0x1664 JUMPI POP PUSH1 0x0 PUSH1 0xA PUSH1 0x0 DUP4 PUSH20 0xFFFFFFFFFFFFFFFFFFFFFFFFFFFFFFFFFFFFFFFF AND PUSH20 0xFFFFFFFFFFFFFFFFFFFFFFFFFFFFFFFFFFFFFFFF AND DUP2 MSTORE PUSH1 0x20 ADD SWAP1 DUP2 MSTORE PUSH1 0x20 ADD PUSH1 0x0 KECCAK256 SLOAD EQ JUMPDEST ISZERO PUSH2 0x16CD JUMPI PUSH1 0xB DUP2 SWAP1 DUP1 PUSH1 0x1 DUP2 SLOAD ADD DUP1 DUP3 SSTORE DUP1 SWAP2 POP POP PUSH1 0x1 SWAP1 SUB SWAP1 PUSH1 0x0 MSTORE PUSH1 0x20 PUSH1 0x0 KECCAK256 ADD PUSH1 0x0 SWAP1 SWAP2 SWAP1 SWAP2 SWAP1 SWAP2 PUSH2 0x100 EXP DUP2 SLOAD DUP2 PUSH20 0xFFFFFFFFFFFFFFFFFFFFFFFFFFFFFFFFFFFFFFFF MUL NOT AND SWAP1 DUP4 PUSH20 0xFFFFFFFFFFFFFFFFFFFFFFFFFFFFFFFFFFFFFFFF AND MUL OR SWAP1 SSTORE POP JUMPDEST POP POP JUMP JUMPDEST PUSH1 0x0 DUP1 PUSH2 0x16DC PUSH2 0x531A JUMP JUMPDEST PUSH2 0x16E4 PUSH2 0x531A JUMP JUMPDEST PUSH1 0x0 DUP1 DUP9 SWAP1 POP DUP1 PUSH8 0xFFFFFFFFFFFFFFFF AND DUP8 DUP3 PUSH2 0x1701 SWAP2 SWAP1 PUSH2 0x5B9C JUMP JUMPDEST PUSH8 0xFFFFFFFFFFFFFFFF AND LT ISZERO PUSH2 0x1723 JUMPI PUSH1 0x0 DUP2 DUP5 SWAP6 POP SWAP6 POP SWAP6 POP POP POP POP PUSH2 0x1882 JUMP JUMPDEST JUMPDEST DUP7 PUSH8 0xFFFFFFFFFFFFFFFF AND DUP10 DUP3 PUSH2 0x173B SWAP2 SWAP1 PUSH2 0x5CDB JUMP JUMPDEST PUSH8 0xFFFFFFFFFFFFFFFF AND LT ISZERO PUSH2 0x183C JUMPI PUSH1 0x0 DUP1 PUSH1 0x0 PUSH2 0x175A DUP5 DUP13 PUSH2 0x2741 JUMP JUMPDEST DUP1 SWAP5 POP DUP2 SWAP6 POP DUP3 SWAP8 POP DUP4 SWAP7 POP POP POP POP POP DUP3 PUSH2 0x1784 JUMPI PUSH1 0x0 DUP5 DUP8 SWAP9 POP SWAP9 POP SWAP9 POP POP POP POP POP POP POP PUSH2 0x1882 JUMP JUMPDEST PUSH1 0x3 DUP3 PUSH8 0xFFFFFFFFFFFFFFFF AND GT ISZERO PUSH2 0x17AC JUMPI PUSH1 0x0 DUP5 DUP8 SWAP9 POP SWAP9 POP SWAP9 POP POP POP POP POP POP POP PUSH2 0x1882 JUMP JUMPDEST DUP5 PUSH8 0xFFFFFFFFFFFFFFFF AND DUP3 PUSH8 0xFFFFFFFFFFFFFFFF AND GT PUSH2 0x17DC JUMPI PUSH1 0x0 DUP5 DUP8 SWAP9 POP SWAP9 POP SWAP9 POP POP POP POP POP POP POP PUSH2 0x1882 JUMP JUMPDEST PUSH2 0x17E6 DUP3 DUP3 PUSH2 0x2DE6 JUMP JUMPDEST SWAP3 POP DUP3 PUSH2 0x1802 JUMPI PUSH1 0x0 DUP5 DUP8 SWAP9 POP SWAP9 POP SWAP9 POP POP POP POP POP POP POP PUSH2 0x1882 JUMP JUMPDEST PUSH2 0x180F DUP5 DUP13 DUP13 DUP6 DUP11 PUSH2 0x2EB9 JUMP JUMPDEST DUP1 SWAP6 POP DUP2 SWAP5 POP POP POP DUP3 PUSH2 0x1831 JUMPI PUSH1 0x0 DUP5 DUP8 SWAP9 POP SWAP9 POP SWAP9 POP POP POP POP POP POP POP PUSH2 0x1882 JUMP JUMPDEST DUP2 SWAP5 POP POP POP POP PUSH2 0x1724 JUMP JUMPDEST DUP7 DUP10 PUSH2 0x1848 SWAP2 SWAP1 PUSH2 0x5B9C JUMP JUMPDEST PUSH8 0xFFFFFFFFFFFFFFFF AND DUP2 PUSH8 0xFFFFFFFFFFFFFFFF AND EQ PUSH2 0x1874 JUMPI PUSH1 0x0 DUP2 DUP5 SWAP6 POP SWAP6 POP SWAP6 POP POP POP POP PUSH2 0x1882 JUMP JUMPDEST PUSH1 0x1 DUP2 DUP5 SWAP6 POP SWAP6 POP SWAP6 POP POP POP POP JUMPDEST SWAP4 POP SWAP4 POP SWAP4 SWAP1 POP JUMP JUMPDEST PUSH1 0x0 PUSH2 0x189A DUP3 PUSH1 0x40 ADD MLOAD PUSH2 0x2B6C JUMP JUMPDEST SWAP1 POP PUSH2 0x1934 PUSH1 0x1 DUP1 SLOAD PUSH2 0x18AC SWAP1 PUSH2 0x5DD7 JUMP JUMPDEST DUP1 PUSH1 0x1F ADD PUSH1 0x20 DUP1 SWAP2 DIV MUL PUSH1 0x20 ADD PUSH1 0x40 MLOAD SWAP1 DUP2 ADD PUSH1 0x40 MSTORE DUP1 SWAP3 SWAP2 SWAP1 DUP2 DUP2 MSTORE PUSH1 0x20 ADD DUP3 DUP1 SLOAD PUSH2 0x18D8 SWAP1 PUSH2 0x5DD7 JUMP JUMPDEST DUP1 ISZERO PUSH2 0x1925 JUMPI DUP1 PUSH1 0x1F LT PUSH2 0x18FA JUMPI PUSH2 0x100 DUP1 DUP4 SLOAD DIV MUL DUP4 MSTORE SWAP2 PUSH1 0x20 ADD SWAP2 PUSH2 0x1925 JUMP JUMPDEST DUP3 ADD SWAP2 SWAP1 PUSH1 0x0 MSTORE PUSH1 0x20 PUSH1 0x0 KECCAK256 SWAP1 JUMPDEST DUP2 SLOAD DUP2 MSTORE SWAP1 PUSH1 0x1 ADD SWAP1 PUSH1 0x20 ADD DUP1 DUP4 GT PUSH2 0x1908 JUMPI DUP3 SWAP1 SUB PUSH1 0x1F AND DUP3 ADD SWAP2 JUMPDEST POP POP POP POP POP DUP4 PUSH1 0x0 ADD MLOAD PUSH2 0x2D8D JUMP JUMPDEST ISZERO PUSH2 0x199E JUMPI DUP2 PUSH1 0x20 ADD MLOAD PUSH8 0xFFFFFFFFFFFFFFFF AND PUSH1 0x9 PUSH1 0x0 DUP4 PUSH20 0xFFFFFFFFFFFFFFFFFFFFFFFFFFFFFFFFFFFFFFFF AND PUSH20 0xFFFFFFFFFFFFFFFFFFFFFFFFFFFFFFFFFFFFFFFF AND DUP2 MSTORE PUSH1 0x20 ADD SWAP1 DUP2 MSTORE PUSH1 0x20 ADD PUSH1 0x0 KECCAK256 PUSH1 0x0 DUP3 DUP3 SLOAD PUSH2 0x1996 SWAP2 SWAP1 PUSH2 0x5CA7 JUMP JUMPDEST SWAP3 POP POP DUP2 SWAP1 SSTORE POP JUMPDEST PUSH2 0x1A36 PUSH1 0x2 DUP1 SLOAD PUSH2 0x19AE SWAP1 PUSH2 0x5DD7 JUMP JUMPDEST DUP1 PUSH1 0x1F ADD PUSH1 0x20 DUP1 SWAP2 DIV MUL PUSH1 0x20 ADD PUSH1 0x40 MLOAD SWAP1 DUP2 ADD PUSH1 0x40 MSTORE DUP1 SWAP3 SWAP2 SWAP1 DUP2 DUP2 MSTORE PUSH1 0x20 ADD DUP3 DUP1 SLOAD PUSH2 0x19DA SWAP1 PUSH2 0x5DD7 JUMP JUMPDEST DUP1 ISZERO PUSH2 0x1A27 JUMPI DUP1 PUSH1 0x1F LT PUSH2 0x19FC JUMPI PUSH2 0x100 DUP1 DUP4 SLOAD DIV MUL DUP4 MSTORE SWAP2 PUSH1 0x20 ADD SWAP2 PUSH2 0x1A27 JUMP JUMPDEST DUP3 ADD SWAP2 SWAP1 PUSH1 0x0 MSTORE PUSH1 0x20 PUSH1 0x0 KECCAK256 SWAP1 JUMPDEST DUP2 SLOAD DUP2 MSTORE SWAP1 PUSH1 0x1 ADD SWAP1 PUSH1 0x20 ADD DUP1 DUP4 GT PUSH2 0x1A0A JUMPI DUP3 SWAP1 SUB PUSH1 0x1F AND DUP3 ADD SWAP2 JUMPDEST POP POP POP POP POP DUP4 PUSH1 0x0 ADD MLOAD PUSH2 0x2D8D JUMP JUMPDEST ISZERO PUSH2 0x1AA0 JUMPI DUP2 PUSH1 0x20 ADD MLOAD PUSH8 0xFFFFFFFFFFFFFFFF AND PUSH1 0xA PUSH1 0x0 DUP4 PUSH20 0xFFFFFFFFFFFFFFFFFFFFFFFFFFFFFFFFFFFFFFFF AND PUSH20 0xFFFFFFFFFFFFFFFFFFFFFFFFFFFFFFFFFFFFFFFF AND DUP2 MSTORE PUSH1 0x20 ADD SWAP1 DUP2 MSTORE PUSH1 0x20 ADD PUSH1 0x0 KECCAK256 PUSH1 0x0 DUP3 DUP3 SLOAD PUSH2 0x1A98 SWAP2 SWAP1 PUSH2 0x5CA7 JUMP JUMPDEST SWAP3 POP POP DUP2 SWAP1 SSTORE POP JUMPDEST POP POP JUMP JUMPDEST PUSH1 0x0 DUP1 PUSH2 0x1AAF PUSH2 0x5345 JUMP JUMPDEST PUSH2 0x1AB7 PUSH2 0x5345 JUMP JUMPDEST PUSH1 0x0 DUP1 DUP9 SWAP1 POP DUP1 PUSH8 0xFFFFFFFFFFFFFFFF AND DUP8 DUP3 PUSH2 0x1AD4 SWAP2 SWAP1 PUSH2 0x5B9C JUMP JUMPDEST PUSH8 0xFFFFFFFFFFFFFFFF AND LT ISZERO PUSH2 0x1AF6 JUMPI PUSH1 0x0 DUP2 DUP5 SWAP6 POP SWAP6 POP SWAP6 POP POP POP POP PUSH2 0x1C55 JUMP JUMPDEST JUMPDEST DUP7 PUSH8 0xFFFFFFFFFFFFFFFF AND DUP10 DUP3 PUSH2 0x1B0E SWAP2 SWAP1 PUSH2 0x5CDB JUMP JUMPDEST PUSH8 0xFFFFFFFFFFFFFFFF AND LT ISZERO PUSH2 0x1C0F JUMPI PUSH1 0x0 DUP1 PUSH1 0x0 PUSH2 0x1B2D DUP5 DUP13 PUSH2 0x2741 JUMP JUMPDEST DUP1 SWAP5 POP DUP2 SWAP6 POP DUP3 SWAP8 POP DUP4 SWAP7 POP POP POP POP POP DUP3 PUSH2 0x1B57 JUMPI PUSH1 0x0 DUP5 DUP8 SWAP9 POP SWAP9 POP SWAP9 POP POP POP POP POP POP POP PUSH2 0x1C55 JUMP JUMPDEST PUSH1 0x3 DUP3 PUSH8 0xFFFFFFFFFFFFFFFF AND GT ISZERO PUSH2 0x1B7F JUMPI PUSH1 0x0 DUP5 DUP8 SWAP9 POP SWAP9 POP SWAP9 POP POP POP POP POP POP POP PUSH2 0x1C55 JUMP JUMPDEST DUP5 PUSH8 0xFFFFFFFFFFFFFFFF AND DUP3 PUSH8 0xFFFFFFFFFFFFFFFF AND GT PUSH2 0x1BAF JUMPI PUSH1 0x0 DUP5 DUP8 SWAP9 POP SWAP9 POP SWAP9 POP POP POP POP POP POP POP PUSH2 0x1C55 JUMP JUMPDEST PUSH2 0x1BB9 DUP3 DUP3 PUSH2 0x2FAF JUMP JUMPDEST SWAP3 POP DUP3 PUSH2 0x1BD5 JUMPI PUSH1 0x0 DUP5 DUP8 SWAP9 POP SWAP9 POP SWAP9 POP POP POP POP POP POP POP PUSH2 0x1C55 JUMP JUMPDEST PUSH2 0x1BE2 DUP5 DUP13 DUP13 DUP6 DUP11 PUSH2 0x3082 JUMP JUMPDEST DUP1 SWAP6 POP DUP2 SWAP5 POP POP POP DUP3 PUSH2 0x1C04 JUMPI PUSH1 0x0 DUP5 DUP8 SWAP9 POP SWAP9 POP SWAP9 POP POP POP POP POP POP POP PUSH2 0x1C55 JUMP JUMPDEST DUP2 SWAP5 POP POP POP POP PUSH2 0x1AF7 JUMP JUMPDEST DUP7 DUP10 PUSH2 0x1C1B SWAP2 SWAP1 PUSH2 0x5B9C JUMP JUMPDEST PUSH8 0xFFFFFFFFFFFFFFFF AND DUP2 PUSH8 0xFFFFFFFFFFFFFFFF AND EQ PUSH2 0x1C47 JUMPI PUSH1 0x0 DUP2 DUP5 SWAP6 POP SWAP6 POP SWAP6 POP POP POP POP PUSH2 0x1C55 JUMP JUMPDEST PUSH1 0x1 DUP2 DUP5 SWAP6 POP SWAP6 POP SWAP6 POP POP POP POP JUMPDEST SWAP4 POP SWAP4 POP SWAP4 SWAP1 POP JUMP JUMPDEST PUSH1 0x0 PUSH2 0x1C6D DUP3 PUSH1 0x40 ADD MLOAD PUSH2 0x2B6C JUMP JUMPDEST SWAP1 POP PUSH1 0x0 DUP1 PUSH1 0x8 SLOAD EQ ISZERO PUSH2 0x1C9C JUMPI PUSH3 0xF4240 PUSH1 0x64 PUSH2 0x1C8B SWAP2 SWAP1 PUSH2 0x5C65 JUMP JUMPDEST PUSH8 0xFFFFFFFFFFFFFFFF AND SWAP1 POP PUSH2 0x1D5A JUMP JUMPDEST PUSH1 0x0 PUSH2 0x1CD5 PUSH1 0x3 SLOAD PUSH2 0x1CC7 DUP7 PUSH1 0x0 ADD MLOAD PUSH8 0xFFFFFFFFFFFFFFFF AND PUSH1 0x8 SLOAD PUSH2 0xC10 SWAP1 SWAP2 SWAP1 PUSH4 0xFFFFFFFF AND JUMP JUMPDEST PUSH2 0x704 SWAP1 SWAP2 SWAP1 PUSH4 0xFFFFFFFF AND JUMP JUMPDEST SWAP1 POP PUSH1 0x0 PUSH2 0x1D10 PUSH1 0x4 SLOAD PUSH2 0x1D02 DUP8 PUSH1 0x20 ADD MLOAD PUSH8 0xFFFFFFFFFFFFFFFF AND PUSH1 0x8 SLOAD PUSH2 0xC10 SWAP1 SWAP2 SWAP1 PUSH4 0xFFFFFFFF AND JUMP JUMPDEST PUSH2 0x704 SWAP1 SWAP2 SWAP1 PUSH4 0xFFFFFFFF AND JUMP JUMPDEST SWAP1 POP DUP1 DUP3 EQ PUSH2 0x1D54 JUMPI PUSH1 0x40 MLOAD PUSH32 0x8C379A000000000000000000000000000000000000000000000000000000000 DUP2 MSTORE PUSH1 0x4 ADD PUSH2 0x1D4B SWAP1 PUSH2 0x5A14 JUMP JUMPDEST PUSH1 0x40 MLOAD DUP1 SWAP2 SUB SWAP1 REVERT JUMPDEST DUP2 SWAP3 POP POP POP JUMPDEST PUSH1 0x0 DUP2 GT PUSH2 0x1D9D JUMPI PUSH1 0x40 MLOAD PUSH32 0x8C379A000000000000000000000000000000000000000000000000000000000 DUP2 MSTORE PUSH1 0x4 ADD PUSH2 0x1D94 SWAP1 PUSH2 0x5974 JUMP JUMPDEST PUSH1 0x40 MLOAD DUP1 SWAP2 SUB SWAP1 REVERT JUMPDEST DUP3 PUSH1 0x0 ADD MLOAD PUSH8 0xFFFFFFFFFFFFFFFF AND PUSH1 0x9 PUSH1 0x0 DUP5 PUSH20 0xFFFFFFFFFFFFFFFFFFFFFFFFFFFFFFFFFFFFFFFF AND PUSH20 0xFFFFFFFFFFFFFFFFFFFFFFFFFFFFFFFFFFFFFFFF AND DUP2 MSTORE PUSH1 0x20 ADD SWAP1 DUP2 MSTORE PUSH1 0x20 ADD PUSH1 0x0 KECCAK256 PUSH1 0x0 DUP3 DUP3 SLOAD PUSH2 0x1DFA SWAP2 SWAP1 PUSH2 0x5CA7 JUMP JUMPDEST SWAP3 POP POP DUP2 SWAP1 SSTORE POP DUP3 PUSH1 0x20 ADD MLOAD PUSH8 0xFFFFFFFFFFFFFFFF AND PUSH1 0xA PUSH1 0x0 DUP5 PUSH20 0xFFFFFFFFFFFFFFFFFFFFFFFFFFFFFFFFFFFFFFFF AND PUSH20 0xFFFFFFFFFFFFFFFFFFFFFFFFFFFFFFFFFFFFFFFF AND DUP2 MSTORE PUSH1 0x20 ADD SWAP1 DUP2 MSTORE PUSH1 0x20 ADD PUSH1 0x0 KECCAK256 PUSH1 0x0 DUP3 DUP3 SLOAD PUSH2 0x1E5E SWAP2 SWAP1 PUSH2 0x5CA7 JUMP JUMPDEST SWAP3 POP POP DUP2 SWAP1 SSTORE POP DUP3 PUSH1 0x0 ADD MLOAD PUSH8 0xFFFFFFFFFFFFFFFF AND PUSH1 0x3 PUSH1 0x0 DUP3 DUP3 SLOAD PUSH2 0x1E85 SWAP2 SWAP1 PUSH2 0x5B46 JUMP JUMPDEST SWAP3 POP POP DUP2 SWAP1 SSTORE POP DUP3 PUSH1 0x20 ADD MLOAD PUSH8 0xFFFFFFFFFFFFFFFF AND PUSH1 0x4 PUSH1 0x0 DUP3 DUP3 SLOAD PUSH2 0x1EAC SWAP2 SWAP1 PUSH2 0x5B46 JUMP JUMPDEST SWAP3 POP POP DUP2 SWAP1 SSTORE POP PUSH2 0x1ECA PUSH1 0x4 SLOAD PUSH1 0x3 SLOAD PUSH2 0xC10 SWAP1 SWAP2 SWAP1 PUSH4 0xFFFFFFFF AND JUMP JUMPDEST PUSH1 0x5 DUP2 SWAP1 SSTORE POP DUP1 PUSH1 0x8 PUSH1 0x0 DUP3 DUP3 SLOAD PUSH2 0x1EE2 SWAP2 SWAP1 PUSH2 0x5B46 JUMP JUMPDEST SWAP3 POP POP DUP2 SWAP1 SSTORE POP DUP1 PUSH1 0x6 PUSH1 0x0 DUP5 PUSH20 0xFFFFFFFFFFFFFFFFFFFFFFFFFFFFFFFFFFFFFFFF AND PUSH20 0xFFFFFFFFFFFFFFFFFFFFFFFFFFFFFFFFFFFFFFFF AND DUP2 MSTORE PUSH1 0x20 ADD SWAP1 DUP2 MSTORE PUSH1 0x20 ADD PUSH1 0x0 KECCAK256 PUSH1 0x0 DUP3 DUP3 SLOAD PUSH2 0x1F38 SWAP2 SWAP1 PUSH2 0x5B46 JUMP JUMPDEST SWAP3 POP POP DUP2 SWAP1 SSTORE POP POP POP POP JUMP JUMPDEST PUSH1 0x0 DUP1 PUSH2 0x1F4F PUSH2 0x537A JUMP JUMPDEST PUSH2 0x1F57 PUSH2 0x537A JUMP JUMPDEST PUSH1 0x0 DUP1 DUP9 SWAP1 POP DUP1 PUSH8 0xFFFFFFFFFFFFFFFF AND DUP8 DUP3 PUSH2 0x1F74 SWAP2 SWAP1 PUSH2 0x5B9C JUMP JUMPDEST PUSH8 0xFFFFFFFFFFFFFFFF AND LT ISZERO PUSH2 0x1F96 JUMPI PUSH1 0x0 DUP2 DUP5 SWAP6 POP SWAP6 POP SWAP6 POP POP POP POP PUSH2 0x20F5 JUMP JUMPDEST JUMPDEST DUP7 PUSH8 0xFFFFFFFFFFFFFFFF AND DUP10 DUP3 PUSH2 0x1FAE SWAP2 SWAP1 PUSH2 0x5CDB JUMP JUMPDEST PUSH8 0xFFFFFFFFFFFFFFFF AND LT ISZERO PUSH2 0x20AF JUMPI PUSH1 0x0 DUP1 PUSH1 0x0 PUSH2 0x1FCD DUP5 DUP13 PUSH2 0x2741 JUMP JUMPDEST DUP1 SWAP5 POP DUP2 SWAP6 POP DUP3 SWAP8 POP DUP4 SWAP7 POP POP POP POP POP DUP3 PUSH2 0x1FF7 JUMPI PUSH1 0x0 DUP5 DUP8 SWAP9 POP SWAP9 POP SWAP9 POP POP POP POP POP POP POP PUSH2 0x20F5 JUMP JUMPDEST PUSH1 0x4 DUP3 PUSH8 0xFFFFFFFFFFFFFFFF AND GT ISZERO PUSH2 0x201F JUMPI PUSH1 0x0 DUP5 DUP8 SWAP9 POP SWAP9 POP SWAP9 POP POP POP POP POP POP POP PUSH2 0x20F5 JUMP JUMPDEST DUP5 PUSH8 0xFFFFFFFFFFFFFFFF AND DUP3 PUSH8 0xFFFFFFFFFFFFFFFF AND GT PUSH2 0x204F JUMPI PUSH1 0x0 DUP5 DUP8 SWAP9 POP SWAP9 POP SWAP9 POP POP POP POP POP POP POP PUSH2 0x20F5 JUMP JUMPDEST PUSH2 0x2059 DUP3 DUP3 PUSH2 0x3178 JUMP JUMPDEST SWAP3 POP DUP3 PUSH2 0x2075 JUMPI PUSH1 0x0 DUP5 DUP8 SWAP9 POP SWAP9 POP SWAP9 POP POP POP POP POP POP POP PUSH2 0x20F5 JUMP JUMPDEST PUSH2 0x2082 DUP5 DUP13 DUP13 DUP6 DUP11 PUSH2 0x328D JUMP JUMPDEST DUP1 SWAP6 POP DUP2 SWAP5 POP POP POP DUP3 PUSH2 0x20A4 JUMPI PUSH1 0x0 DUP5 DUP8 SWAP9 POP SWAP9 POP SWAP9 POP POP POP POP POP POP POP PUSH2 0x20F5 JUMP JUMPDEST DUP2 SWAP5 POP POP POP POP PUSH2 0x1F97 JUMP JUMPDEST DUP7 DUP10 PUSH2 0x20BB SWAP2 SWAP1 PUSH2 0x5B9C JUMP JUMPDEST PUSH8 0xFFFFFFFFFFFFFFFF AND DUP2 PUSH8 0xFFFFFFFFFFFFFFFF AND EQ PUSH2 0x20E7 JUMPI PUSH1 0x0 DUP2 DUP5 SWAP6 POP SWAP6 POP SWAP6 POP POP POP POP PUSH2 0x20F5 JUMP JUMPDEST PUSH1 0x1 DUP2 DUP5 SWAP6 POP SWAP6 POP SWAP6 POP POP POP POP JUMPDEST SWAP4 POP SWAP4 POP SWAP4 SWAP1 POP JUMP JUMPDEST PUSH1 0x0 PUSH2 0x210D DUP3 PUSH1 0x60 ADD MLOAD PUSH2 0x2B6C JUMP JUMPDEST SWAP1 POP PUSH1 0x0 DUP3 PUSH1 0x0 ADD MLOAD PUSH8 0xFFFFFFFFFFFFFFFF AND SWAP1 POP PUSH1 0x0 DUP1 PUSH2 0x212E DUP4 PUSH2 0x448 JUMP JUMPDEST SWAP2 POP SWAP2 POP DUP3 PUSH1 0x6 PUSH1 0x0 CALLER PUSH20 0xFFFFFFFFFFFFFFFFFFFFFFFFFFFFFFFFFFFFFFFF AND PUSH20 0xFFFFFFFFFFFFFFFFFFFFFFFFFFFFFFFFFFFFFFFF AND DUP2 MSTORE PUSH1 0x20 ADD SWAP1 DUP2 MSTORE PUSH1 0x20 ADD PUSH1 0x0 KECCAK256 PUSH1 0x0 DUP3 DUP3 SLOAD PUSH2 0x2181 SWAP2 SWAP1 PUSH2 0x5CA7 JUMP JUMPDEST SWAP3 POP POP DUP2 SWAP1 SSTORE POP DUP3 PUSH1 0x8 PUSH1 0x0 DUP3 DUP3 SLOAD PUSH2 0x219A SWAP2 SWAP1 PUSH2 0x5CA7 JUMP JUMPDEST SWAP3 POP POP DUP2 SWAP1 SSTORE POP DUP2 PUSH1 0x3 PUSH1 0x0 DUP3 DUP3 SLOAD PUSH2 0x21B3 SWAP2 SWAP1 PUSH2 0x5CA7 JUMP JUMPDEST SWAP3 POP POP DUP2 SWAP1 SSTORE POP DUP1 PUSH1 0x4 PUSH1 0x0 DUP3 DUP3 SLOAD PUSH2 0x21CC SWAP2 SWAP1 PUSH2 0x5CA7 JUMP JUMPDEST SWAP3 POP POP DUP2 SWAP1 SSTORE POP PUSH2 0x21EA PUSH1 0x4 SLOAD PUSH1 0x3 SLOAD PUSH2 0xC10 SWAP1 SWAP2 SWAP1 PUSH4 0xFFFFFFFF AND JUMP JUMPDEST PUSH1 0x5 DUP2 SWAP1 SSTORE POP DUP2 PUSH1 0x9 PUSH1 0x0 DUP7 PUSH20 0xFFFFFFFFFFFFFFFFFFFFFFFFFFFFFFFFFFFFFFFF AND PUSH20 0xFFFFFFFFFFFFFFFFFFFFFFFFFFFFFFFFFFFFFFFF AND DUP2 MSTORE PUSH1 0x20 ADD SWAP1 DUP2 MSTORE PUSH1 0x20 ADD PUSH1 0x0 KECCAK256 PUSH1 0x0 DUP3 DUP3 SLOAD PUSH2 0x223F SWAP2 SWAP1 PUSH2 0x5B46 JUMP JUMPDEST SWAP3 POP POP DUP2 SWAP1 SSTORE POP DUP1 PUSH1 0xA PUSH1 0x0 DUP7 PUSH20 0xFFFFFFFFFFFFFFFFFFFFFFFFFFFFFFFFFFFFFFFF AND PUSH20 0xFFFFFFFFFFFFFFFFFFFFFFFFFFFFFFFFFFFFFFFF AND DUP2 MSTORE PUSH1 0x20 ADD SWAP1 DUP2 MSTORE PUSH1 0x20 ADD PUSH1 0x0 KECCAK256 PUSH1 0x0 DUP3 DUP3 SLOAD PUSH2 0x2295 SWAP2 SWAP1 PUSH2 0x5B46 JUMP JUMPDEST SWAP3 POP POP DUP2 SWAP1 SSTORE POP POP POP POP POP POP JUMP JUMPDEST PUSH1 0x0 DUP1 PUSH2 0x22AE PUSH2 0x53C0 JUMP JUMPDEST PUSH2 0x22B6 PUSH2 0x53C0 JUMP JUMPDEST PUSH1 0x0 DUP1 DUP9 SWAP1 POP DUP1 PUSH8 0xFFFFFFFFFFFFFFFF AND DUP8 DUP3 PUSH2 0x22D3 SWAP2 SWAP1 PUSH2 0x5B9C JUMP JUMPDEST PUSH8 0xFFFFFFFFFFFFFFFF AND LT ISZERO PUSH2 0x22F5 JUMPI PUSH1 0x0 DUP2 DUP5 SWAP6 POP SWAP6 POP SWAP6 POP POP POP POP PUSH2 0x2454 JUMP JUMPDEST JUMPDEST DUP7 PUSH8 0xFFFFFFFFFFFFFFFF AND DUP10 DUP3 PUSH2 0x230D SWAP2 SWAP1 PUSH2 0x5CDB JUMP JUMPDEST PUSH8 0xFFFFFFFFFFFFFFFF AND LT ISZERO PUSH2 0x240E JUMPI PUSH1 0x0 DUP1 PUSH1 0x0 PUSH2 0x232C DUP5 DUP13 PUSH2 0x2741 JUMP JUMPDEST DUP1 SWAP5 POP DUP2 SWAP6 POP DUP3 SWAP8 POP DUP4 SWAP7 POP POP POP POP POP DUP3 PUSH2 0x2356 JUMPI PUSH1 0x0 DUP5 DUP8 SWAP9 POP SWAP9 POP SWAP9 POP POP POP POP POP POP POP PUSH2 0x2454 JUMP JUMPDEST PUSH1 0x5 DUP3 PUSH8 0xFFFFFFFFFFFFFFFF AND GT ISZERO PUSH2 0x237E JUMPI PUSH1 0x0 DUP5 DUP8 SWAP9 POP SWAP9 POP SWAP9 POP POP POP POP POP POP POP PUSH2 0x2454 JUMP JUMPDEST DUP5 PUSH8 0xFFFFFFFFFFFFFFFF AND DUP3 PUSH8 0xFFFFFFFFFFFFFFFF AND GT PUSH2 0x23AE JUMPI PUSH1 0x0 DUP5 DUP8 SWAP9 POP SWAP9 POP SWAP9 POP POP POP POP POP POP POP PUSH2 0x2454 JUMP JUMPDEST PUSH2 0x23B8 DUP3 DUP3 PUSH2 0x33CC JUMP JUMPDEST SWAP3 POP DUP3 PUSH2 0x23D4 JUMPI PUSH1 0x0 DUP5 DUP8 SWAP9 POP SWAP9 POP SWAP9 POP POP POP POP POP POP POP PUSH2 0x2454 JUMP JUMPDEST PUSH2 0x23E1 DUP5 DUP13 DUP13 DUP6 DUP11 PUSH2 0x3523 JUMP JUMPDEST DUP1 SWAP6 POP DUP2 SWAP5 POP POP POP DUP3 PUSH2 0x2403 JUMPI PUSH1 0x0 DUP5 DUP8 SWAP9 POP SWAP9 POP SWAP9 POP POP POP POP POP POP POP PUSH2 0x2454 JUMP JUMPDEST DUP2 SWAP5 POP POP POP POP PUSH2 0x22F6 JUMP JUMPDEST DUP7 DUP10 PUSH2 0x241A SWAP2 SWAP1 PUSH2 0x5B9C JUMP JUMPDEST PUSH8 0xFFFFFFFFFFFFFFFF AND DUP2 PUSH8 0xFFFFFFFFFFFFFFFF AND EQ PUSH2 0x2446 JUMPI PUSH1 0x0 DUP2 DUP5 SWAP6 POP SWAP6 POP SWAP6 POP POP POP POP PUSH2 0x2454 JUMP JUMPDEST PUSH1 0x1 DUP2 DUP5 SWAP6 POP SWAP6 POP SWAP6 POP POP POP POP JUMPDEST SWAP4 POP SWAP4 POP SWAP4 SWAP1 POP JUMP JUMPDEST PUSH1 0x0 PUSH2 0x246C DUP3 PUSH1 0x80 ADD MLOAD PUSH2 0x2B6C JUMP JUMPDEST SWAP1 POP PUSH2 0x2506 PUSH1 0x1 DUP1 SLOAD PUSH2 0x247E SWAP1 PUSH2 0x5DD7 JUMP JUMPDEST DUP1 PUSH1 0x1F ADD PUSH1 0x20 DUP1 SWAP2 DIV MUL PUSH1 0x20 ADD PUSH1 0x40 MLOAD SWAP1 DUP2 ADD PUSH1 0x40 MSTORE DUP1 SWAP3 SWAP2 SWAP1 DUP2 DUP2 MSTORE PUSH1 0x20 ADD DUP3 DUP1 SLOAD PUSH2 0x24AA SWAP1 PUSH2 0x5DD7 JUMP JUMPDEST DUP1 ISZERO PUSH2 0x24F7 JUMPI DUP1 PUSH1 0x1F LT PUSH2 0x24CC JUMPI PUSH2 0x100 DUP1 DUP4 SLOAD DIV MUL DUP4 MSTORE SWAP2 PUSH1 0x20 ADD SWAP2 PUSH2 0x24F7 JUMP JUMPDEST DUP3 ADD SWAP2 SWAP1 PUSH1 0x0 MSTORE PUSH1 0x20 PUSH1 0x0 KECCAK256 SWAP1 JUMPDEST DUP2 SLOAD DUP2 MSTORE SWAP1 PUSH1 0x1 ADD SWAP1 PUSH1 0x20 ADD DUP1 DUP4 GT PUSH2 0x24DA JUMPI DUP3 SWAP1 SUB PUSH1 0x1F AND DUP3 ADD SWAP2 JUMPDEST POP POP POP POP POP DUP4 PUSH1 0x20 ADD MLOAD PUSH2 0x2D8D JUMP JUMPDEST ISZERO PUSH2 0x2626 JUMPI DUP2 PUSH1 0x0 ADD MLOAD PUSH8 0xFFFFFFFFFFFFFFFF AND PUSH1 0x9 PUSH1 0x0 DUP4 PUSH20 0xFFFFFFFFFFFFFFFFFFFFFFFFFFFFFFFFFFFFFFFF AND PUSH20 0xFFFFFFFFFFFFFFFFFFFFFFFFFFFFFFFFFFFFFFFF AND DUP2 MSTORE PUSH1 0x20 ADD SWAP1 DUP2 MSTORE PUSH1 0x20 ADD PUSH1 0x0 KECCAK256 PUSH1 0x0 DUP3 DUP3 SLOAD PUSH2 0x2568 SWAP2 SWAP1 PUSH2 0x5CA7 JUMP JUMPDEST SWAP3 POP POP DUP2 SWAP1 SSTORE POP DUP2 PUSH1 0x0 ADD MLOAD PUSH8 0xFFFFFFFFFFFFFFFF AND PUSH1 0x3 PUSH1 0x0 DUP3 DUP3 SLOAD PUSH2 0x258F SWAP2 SWAP1 PUSH2 0x5B46 JUMP JUMPDEST SWAP3 POP POP DUP2 SWAP1 SSTORE POP DUP2 PUSH1 0x40 ADD MLOAD PUSH8 0xFFFFFFFFFFFFFFFF AND PUSH1 0x4 PUSH1 0x0 DUP3 DUP3 SLOAD PUSH2 0x25B6 SWAP2 SWAP1 PUSH2 0x5CA7 JUMP JUMPDEST SWAP3 POP POP DUP2 SWAP1 SSTORE POP DUP2 PUSH1 0x40 ADD MLOAD PUSH8 0xFFFFFFFFFFFFFFFF AND PUSH1 0xA PUSH1 0x0 DUP4 PUSH20 0xFFFFFFFFFFFFFFFFFFFFFFFFFFFFFFFFFFFFFFFF AND PUSH20 0xFFFFFFFFFFFFFFFFFFFFFFFFFFFFFFFFFFFFFFFF AND DUP2 MSTORE PUSH1 0x20 ADD SWAP1 DUP2 MSTORE PUSH1 0x20 ADD PUSH1 0x0 KECCAK256 PUSH1 0x0 DUP3 DUP3 SLOAD PUSH2 0x261A SWAP2 SWAP1 PUSH2 0x5B46 JUMP JUMPDEST SWAP3 POP POP DUP2 SWAP1 SSTORE POP PUSH2 0x273D JUMP JUMPDEST DUP2 PUSH1 0x0 ADD MLOAD PUSH8 0xFFFFFFFFFFFFFFFF AND PUSH1 0xA PUSH1 0x0 DUP4 PUSH20 0xFFFFFFFFFFFFFFFFFFFFFFFFFFFFFFFFFFFFFFFF AND PUSH20 0xFFFFFFFFFFFFFFFFFFFFFFFFFFFFFFFFFFFFFFFF AND DUP2 MSTORE PUSH1 0x20 ADD SWAP1 DUP2 MSTORE PUSH1 0x20 ADD PUSH1 0x0 KECCAK256 PUSH1 0x0 DUP3 DUP3 SLOAD PUSH2 0x2683 SWAP2 SWAP1 PUSH2 0x5CA7 JUMP JUMPDEST SWAP3 POP POP DUP2 SWAP1 SSTORE POP DUP2 PUSH1 0x0 ADD MLOAD PUSH8 0xFFFFFFFFFFFFFFFF AND PUSH1 0x4 PUSH1 0x0 DUP3 DUP3 SLOAD PUSH2 0x26AA SWAP2 SWAP1 PUSH2 0x5B46 JUMP JUMPDEST SWAP3 POP POP DUP2 SWAP1 SSTORE POP DUP2 PUSH1 0x40 ADD MLOAD PUSH8 0xFFFFFFFFFFFFFFFF AND PUSH1 0x3 PUSH1 0x0 DUP3 DUP3 SLOAD PUSH2 0x26D1 SWAP2 SWAP1 PUSH2 0x5CA7 JUMP JUMPDEST SWAP3 POP POP DUP2 SWAP1 SSTORE POP DUP2 PUSH1 0x40 ADD MLOAD PUSH8 0xFFFFFFFFFFFFFFFF AND PUSH1 0x9 PUSH1 0x0 DUP4 PUSH20 0xFFFFFFFFFFFFFFFFFFFFFFFFFFFFFFFFFFFFFFFF AND PUSH20 0xFFFFFFFFFFFFFFFFFFFFFFFFFFFFFFFFFFFFFFFF AND DUP2 MSTORE PUSH1 0x20 ADD SWAP1 DUP2 MSTORE PUSH1 0x20 ADD PUSH1 0x0 KECCAK256 PUSH1 0x0 DUP3 DUP3 SLOAD PUSH2 0x2735 SWAP2 SWAP1 PUSH2 0x5B46 JUMP JUMPDEST SWAP3 POP POP DUP2 SWAP1 SSTORE POP JUMPDEST POP POP JUMP JUMPDEST PUSH1 0x0 DUP1 PUSH1 0x0 DUP1 PUSH1 0x0 DUP1 PUSH1 0x0 PUSH2 0x2756 DUP10 DUP10 PUSH2 0x36AB JUMP JUMPDEST SWAP3 POP SWAP3 POP SWAP3 POP DUP3 PUSH2 0x2778 JUMPI PUSH1 0x0 DUP3 PUSH1 0x0 PUSH1 0x6 SWAP7 POP SWAP7 POP SWAP7 POP SWAP7 POP POP POP POP PUSH2 0x2884 JUMP JUMPDEST PUSH1 0x0 PUSH1 0x3 DUP3 PUSH8 0xFFFFFFFFFFFFFFFF AND SWAP1 SHR SWAP1 POP PUSH1 0x0 PUSH1 0x7 DUP4 AND SWAP1 POP PUSH1 0x6 DUP1 DUP2 GT ISZERO PUSH2 0x27A6 JUMPI PUSH2 0x27A5 PUSH2 0x5F12 JUMP JUMPDEST JUMPDEST PUSH8 0xFFFFFFFFFFFFFFFF AND DUP2 PUSH8 0xFFFFFFFFFFFFFFFF AND LT PUSH2 0x27D9 JUMPI PUSH1 0x0 DUP5 PUSH1 0x0 PUSH1 0x6 SWAP9 POP SWAP9 POP SWAP9 POP SWAP9 POP POP POP POP POP POP PUSH2 0x2884 JUMP JUMPDEST PUSH1 0x0 DUP2 PUSH8 0xFFFFFFFFFFFFFFFF AND PUSH1 0x6 DUP2 GT ISZERO PUSH2 0x27F8 JUMPI PUSH2 0x27F7 PUSH2 0x5F12 JUMP JUMPDEST JUMPDEST SWAP1 POP PUSH1 0x3 PUSH1 0x6 DUP2 GT ISZERO PUSH2 0x280E JUMPI PUSH2 0x280D PUSH2 0x5F12 JUMP JUMPDEST JUMPDEST DUP2 PUSH1 0x6 DUP2 GT ISZERO PUSH2 0x2821 JUMPI PUSH2 0x2820 PUSH2 0x5F12 JUMP JUMPDEST JUMPDEST EQ DUP1 PUSH2 0x2851 JUMPI POP PUSH1 0x4 PUSH1 0x6 DUP2 GT ISZERO PUSH2 0x283C JUMPI PUSH2 0x283B PUSH2 0x5F12 JUMP JUMPDEST JUMPDEST DUP2 PUSH1 0x6 DUP2 GT ISZERO PUSH2 0x284F JUMPI PUSH2 0x284E PUSH2 0x5F12 JUMP JUMPDEST JUMPDEST EQ JUMPDEST ISZERO PUSH2 0x2870 JUMPI PUSH1 0x0 DUP6 PUSH1 0x0 PUSH1 0x6 SWAP10 POP SWAP10 POP SWAP10 POP SWAP10 POP POP POP POP POP POP POP PUSH2 0x2884 JUMP JUMPDEST PUSH1 0x1 DUP6 DUP5 DUP4 SWAP10 POP SWAP10 POP SWAP10 POP SWAP10 POP POP POP POP POP POP POP JUMPDEST SWAP3 SWAP6 SWAP2 SWAP5 POP SWAP3 POP JUMP JUMPDEST PUSH1 0x0 PUSH1 0x1 DUP4 PUSH8 0xFFFFFFFFFFFFFFFF AND EQ ISZERO PUSH2 0x28D1 JUMPI PUSH1 0x2 PUSH1 0x6 DUP2 GT ISZERO PUSH2 0x28B6 JUMPI PUSH2 0x28B5 PUSH2 0x5F12 JUMP JUMPDEST JUMPDEST DUP3 PUSH1 0x6 DUP2 GT ISZERO PUSH2 0x28C9 JUMPI PUSH2 0x28C8 PUSH2 0x5F12 JUMP JUMPDEST JUMPDEST EQ SWAP1 POP PUSH2 0x29DE JUMP JUMPDEST PUSH1 0x2 DUP4 PUSH8 0xFFFFFFFFFFFFFFFF AND EQ ISZERO PUSH2 0x2913 JUMPI PUSH1 0x2 PUSH1 0x6 DUP2 GT ISZERO PUSH2 0x28F8 JUMPI PUSH2 0x28F7 PUSH2 0x5F12 JUMP JUMPDEST JUMPDEST DUP3 PUSH1 0x6 DUP2 GT ISZERO PUSH2 0x290B JUMPI PUSH2 0x290A PUSH2 0x5F12 JUMP JUMPDEST JUMPDEST EQ SWAP1 POP PUSH2 0x29DE JUMP JUMPDEST PUSH1 0x3 DUP4 PUSH8 0xFFFFFFFFFFFFFFFF AND EQ ISZERO PUSH2 0x2955 JUMPI PUSH1 0x0 PUSH1 0x6 DUP2 GT ISZERO PUSH2 0x293A JUMPI PUSH2 0x2939 PUSH2 0x5F12 JUMP JUMPDEST JUMPDEST DUP3 PUSH1 0x6 DUP2 GT ISZERO PUSH2 0x294D JUMPI PUSH2 0x294C PUSH2 0x5F12 JUMP JUMPDEST JUMPDEST EQ SWAP1 POP PUSH2 0x29DE JUMP JUMPDEST PUSH1 0x4 DUP4 PUSH8 0xFFFFFFFFFFFFFFFF AND EQ ISZERO PUSH2 0x2997 JUMPI PUSH1 0x0 PUSH1 0x6 DUP2 GT ISZERO PUSH2 0x297C JUMPI PUSH2 0x297B PUSH2 0x5F12 JUMP JUMPDEST JUMPDEST DUP3 PUSH1 0x6 DUP2 GT ISZERO PUSH2 0x298F JUMPI PUSH2 0x298E PUSH2 0x5F12 JUMP JUMPDEST JUMPDEST EQ SWAP1 POP PUSH2 0x29DE JUMP JUMPDEST PUSH1 0x5 DUP4 PUSH8 0xFFFFFFFFFFFFFFFF AND EQ ISZERO PUSH2 0x29D9 JUMPI PUSH1 0x2 PUSH1 0x6 DUP2 GT ISZERO PUSH2 0x29BE JUMPI PUSH2 0x29BD PUSH2 0x5F12 JUMP JUMPDEST JUMPDEST DUP3 PUSH1 0x6 DUP2 GT ISZERO PUSH2 0x29D1 JUMPI PUSH2 0x29D0 PUSH2 0x5F12 JUMP JUMPDEST JUMPDEST EQ SWAP1 POP PUSH2 0x29DE JUMP JUMPDEST PUSH1 0x0 SWAP1 POP JUMPDEST SWAP3 SWAP2 POP POP JUMP JUMPDEST PUSH1 0x0 DUP1 PUSH1 0x0 DUP8 SWAP1 POP PUSH1 0x1 DUP6 PUSH8 0xFFFFFFFFFFFFFFFF AND EQ ISZERO PUSH2 0x2A35 JUMPI PUSH1 0x0 PUSH2 0x2A0C DUP3 DUP10 DUP8 PUSH2 0x38A3 JUMP JUMPDEST DUP1 SWAP4 POP DUP2 SWAP3 POP POP POP DUP1 PUSH2 0x2A27 JUMPI PUSH1 0x0 DUP3 SWAP4 POP SWAP4 POP POP POP PUSH2 0x2B62 JUMP JUMPDEST PUSH1 0x1 DUP3 SWAP4 POP SWAP4 POP POP POP PUSH2 0x2B62 JUMP JUMPDEST PUSH1 0x2 DUP6 PUSH8 0xFFFFFFFFFFFFFFFF AND EQ ISZERO PUSH2 0x2A7E JUMPI PUSH1 0x0 PUSH2 0x2A55 DUP3 DUP10 DUP8 PUSH2 0x3A28 JUMP JUMPDEST DUP1 SWAP4 POP DUP2 SWAP3 POP POP POP DUP1 PUSH2 0x2A70 JUMPI PUSH1 0x0 DUP3 SWAP4 POP SWAP4 POP POP POP PUSH2 0x2B62 JUMP JUMPDEST PUSH1 0x1 DUP3 SWAP4 POP SWAP4 POP POP POP PUSH2 0x2B62 JUMP JUMPDEST PUSH1 0x3 DUP6 PUSH8 0xFFFFFFFFFFFFFFFF AND EQ ISZERO PUSH2 0x2AC7 JUMPI PUSH1 0x0 PUSH2 0x2A9E DUP3 DUP10 DUP8 PUSH2 0x3BAD JUMP JUMPDEST DUP1 SWAP4 POP DUP2 SWAP3 POP POP POP DUP1 PUSH2 0x2AB9 JUMPI PUSH1 0x0 DUP3 SWAP4 POP SWAP4 POP POP POP PUSH2 0x2B62 JUMP JUMPDEST PUSH1 0x1 DUP3 SWAP4 POP SWAP4 POP POP POP PUSH2 0x2B62 JUMP JUMPDEST PUSH1 0x4 DUP6 PUSH8 0xFFFFFFFFFFFFFFFF AND EQ ISZERO PUSH2 0x2B10 JUMPI PUSH1 0x0 PUSH2 0x2AE7 DUP3 DUP10 DUP8 PUSH2 0x3C2F JUMP JUMPDEST DUP1 SWAP4 POP DUP2 SWAP3 POP POP POP DUP1 PUSH2 0x2B02 JUMPI PUSH1 0x0 DUP3 SWAP4 POP SWAP4 POP POP POP PUSH2 0x2B62 JUMP JUMPDEST PUSH1 0x1 DUP3 SWAP4 POP SWAP4 POP POP POP PUSH2 0x2B62 JUMP JUMPDEST PUSH1 0x5 DUP6 PUSH8 0xFFFFFFFFFFFFFFFF AND EQ ISZERO PUSH2 0x2B59 JUMPI PUSH1 0x0 PUSH2 0x2B30 DUP3 DUP10 DUP8 PUSH2 0x3CB1 JUMP JUMPDEST DUP1 SWAP4 POP DUP2 SWAP3 POP POP POP DUP1 PUSH2 0x2B4B JUMPI PUSH1 0x0 DUP3 SWAP4 POP SWAP4 POP POP POP PUSH2 0x2B62 JUMP JUMPDEST PUSH1 0x1 DUP3 SWAP4 POP SWAP4 POP POP POP PUSH2 0x2B62 JUMP JUMPDEST PUSH1 0x0 DUP2 SWAP3 POP SWAP3 POP POP JUMPDEST SWAP6 POP SWAP6 SWAP4 POP POP POP POP JUMP JUMPDEST PUSH1 0x0 PUSH1 0x14 DUP3 MLOAD EQ PUSH2 0x2BB2 JUMPI PUSH1 0x40 MLOAD PUSH32 0x8C379A000000000000000000000000000000000000000000000000000000000 DUP2 MSTORE PUSH1 0x4 ADD PUSH2 0x2BA9 SWAP1 PUSH2 0x5954 JUMP JUMPDEST PUSH1 0x40 MLOAD DUP1 SWAP2 SUB SWAP1 REVERT JUMPDEST PUSH1 0x0 PUSH1 0x14 DUP4 ADD MLOAD SWAP1 POP DUP1 SWAP2 POP POP SWAP2 SWAP1 POP JUMP JUMPDEST PUSH1 0x0 PUSH1 0x1 DUP4 PUSH8 0xFFFFFFFFFFFFFFFF AND EQ ISZERO PUSH2 0x2C08 JUMPI PUSH1 0x2 PUSH1 0x6 DUP2 GT ISZERO PUSH2 0x2BED JUMPI PUSH2 0x2BEC PUSH2 0x5F12 JUMP JUMPDEST JUMPDEST DUP3 PUSH1 0x6 DUP2 GT ISZERO PUSH2 0x2C00 JUMPI PUSH2 0x2BFF PUSH2 0x5F12 JUMP JUMPDEST JUMPDEST EQ SWAP1 POP PUSH2 0x2C91 JUMP JUMPDEST PUSH1 0x2 DUP4 PUSH8 0xFFFFFFFFFFFFFFFF AND EQ ISZERO PUSH2 0x2C4A JUMPI PUSH1 0x0 PUSH1 0x6 DUP2 GT ISZERO PUSH2 0x2C2F JUMPI PUSH2 0x2C2E PUSH2 0x5F12 JUMP JUMPDEST JUMPDEST DUP3 PUSH1 0x6 DUP2 GT ISZERO PUSH2 0x2C42 JUMPI PUSH2 0x2C41 PUSH2 0x5F12 JUMP JUMPDEST JUMPDEST EQ SWAP1 POP PUSH2 0x2C91 JUMP JUMPDEST PUSH1 0x3 DUP4 PUSH8 0xFFFFFFFFFFFFFFFF AND EQ ISZERO PUSH2 0x2C8C JUMPI PUSH1 0x2 PUSH1 0x6 DUP2 GT ISZERO PUSH2 0x2C71 JUMPI PUSH2 0x2C70 PUSH2 0x5F12 JUMP JUMPDEST JUMPDEST DUP3 PUSH1 0x6 DUP2 GT ISZERO PUSH2 0x2C84 JUMPI PUSH2 0x2C83 PUSH2 0x5F12 JUMP JUMPDEST JUMPDEST EQ SWAP1 POP PUSH2 0x2C91 JUMP JUMPDEST PUSH1 0x0 SWAP1 POP JUMPDEST SWAP3 SWAP2 POP POP JUMP JUMPDEST PUSH1 0x0 DUP1 PUSH1 0x0 DUP8 SWAP1 POP PUSH1 0x1 DUP6 PUSH8 0xFFFFFFFFFFFFFFFF AND EQ ISZERO PUSH2 0x2CE8 JUMPI PUSH1 0x0 PUSH2 0x2CBF DUP3 DUP10 DUP8 PUSH2 0x3E36 JUMP JUMPDEST DUP1 SWAP4 POP DUP2 SWAP3 POP POP POP DUP1 PUSH2 0x2CDA JUMPI PUSH1 0x0 DUP3 SWAP4 POP SWAP4 POP POP POP PUSH2 0x2D83 JUMP JUMPDEST PUSH1 0x1 DUP3 SWAP4 POP SWAP4 POP POP POP PUSH2 0x2D83 JUMP JUMPDEST PUSH1 0x2 DUP6 PUSH8 0xFFFFFFFFFFFFFFFF AND EQ ISZERO PUSH2 0x2D31 JUMPI PUSH1 0x0 PUSH2 0x2D08 DUP3 DUP10 DUP8 PUSH2 0x3FBB JUMP JUMPDEST DUP1 SWAP4 POP DUP2 SWAP3 POP POP POP DUP1 PUSH2 0x2D23 JUMPI PUSH1 0x0 DUP3 SWAP4 POP SWAP4 POP POP POP PUSH2 0x2D83 JUMP JUMPDEST PUSH1 0x1 DUP3 SWAP4 POP SWAP4 POP POP POP PUSH2 0x2D83 JUMP JUMPDEST PUSH1 0x3 DUP6 PUSH8 0xFFFFFFFFFFFFFFFF AND EQ ISZERO PUSH2 0x2D7A JUMPI PUSH1 0x0 PUSH2 0x2D51 DUP3 DUP10 DUP8 PUSH2 0x403D JUMP JUMPDEST DUP1 SWAP4 POP DUP2 SWAP3 POP POP POP DUP1 PUSH2 0x2D6C JUMPI PUSH1 0x0 DUP3 SWAP4 POP SWAP4 POP POP POP PUSH2 0x2D83 JUMP JUMPDEST PUSH1 0x1 DUP3 SWAP4 POP SWAP4 POP POP POP PUSH2 0x2D83 JUMP JUMPDEST PUSH1 0x0 DUP2 SWAP3 POP SWAP3 POP POP JUMPDEST SWAP6 POP SWAP6 SWAP4 POP POP POP POP JUMP JUMPDEST PUSH1 0x0 DUP2 PUSH1 0x40 MLOAD PUSH1 0x20 ADD PUSH2 0x2DA0 SWAP2 SWAP1 PUSH2 0x5865 JUMP JUMPDEST PUSH1 0x40 MLOAD PUSH1 0x20 DUP2 DUP4 SUB SUB DUP2 MSTORE SWAP1 PUSH1 0x40 MSTORE DUP1 MLOAD SWAP1 PUSH1 0x20 ADD KECCAK256 DUP4 PUSH1 0x40 MLOAD PUSH1 0x20 ADD PUSH2 0x2DC7 SWAP2 SWAP1 PUSH2 0x5865 JUMP JUMPDEST PUSH1 0x40 MLOAD PUSH1 0x20 DUP2 DUP4 SUB SUB DUP2 MSTORE SWAP1 PUSH1 0x40 MSTORE DUP1 MLOAD SWAP1 PUSH1 0x20 ADD KECCAK256 EQ SWAP1 POP SWAP3 SWAP2 POP POP JUMP JUMPDEST PUSH1 0x0 PUSH1 0x1 DUP4 PUSH8 0xFFFFFFFFFFFFFFFF AND EQ ISZERO PUSH2 0x2E2A JUMPI PUSH1 0x2 PUSH1 0x6 DUP2 GT ISZERO PUSH2 0x2E0F JUMPI PUSH2 0x2E0E PUSH2 0x5F12 JUMP JUMPDEST JUMPDEST DUP3 PUSH1 0x6 DUP2 GT ISZERO PUSH2 0x2E22 JUMPI PUSH2 0x2E21 PUSH2 0x5F12 JUMP JUMPDEST JUMPDEST EQ SWAP1 POP PUSH2 0x2EB3 JUMP JUMPDEST PUSH1 0x2 DUP4 PUSH8 0xFFFFFFFFFFFFFFFF AND EQ ISZERO PUSH2 0x2E6C JUMPI PUSH1 0x0 PUSH1 0x6 DUP2 GT ISZERO PUSH2 0x2E51 JUMPI PUSH2 0x2E50 PUSH2 0x5F12 JUMP JUMPDEST JUMPDEST DUP3 PUSH1 0x6 DUP2 GT ISZERO PUSH2 0x2E64 JUMPI PUSH2 0x2E63 PUSH2 0x5F12 JUMP JUMPDEST JUMPDEST EQ SWAP1 POP PUSH2 0x2EB3 JUMP JUMPDEST PUSH1 0x3 DUP4 PUSH8 0xFFFFFFFFFFFFFFFF AND EQ ISZERO PUSH2 0x2EAE JUMPI PUSH1 0x2 PUSH1 0x6 DUP2 GT ISZERO PUSH2 0x2E93 JUMPI PUSH2 0x2E92 PUSH2 0x5F12 JUMP JUMPDEST JUMPDEST DUP3 PUSH1 0x6 DUP2 GT ISZERO PUSH2 0x2EA6 JUMPI PUSH2 0x2EA5 PUSH2 0x5F12 JUMP JUMPDEST JUMPDEST EQ SWAP1 POP PUSH2 0x2EB3 JUMP JUMPDEST PUSH1 0x0 SWAP1 POP JUMPDEST SWAP3 SWAP2 POP POP JUMP JUMPDEST PUSH1 0x0 DUP1 PUSH1 0x0 DUP8 SWAP1 POP PUSH1 0x1 DUP6 PUSH8 0xFFFFFFFFFFFFFFFF AND EQ ISZERO PUSH2 0x2F0A JUMPI PUSH1 0x0 PUSH2 0x2EE1 DUP3 DUP10 DUP8 PUSH2 0x41C2 JUMP JUMPDEST DUP1 SWAP4 POP DUP2 SWAP3 POP POP POP DUP1 PUSH2 0x2EFC JUMPI PUSH1 0x0 DUP3 SWAP4 POP SWAP4 POP POP POP PUSH2 0x2FA5 JUMP JUMPDEST PUSH1 0x1 DUP3 SWAP4 POP SWAP4 POP POP POP PUSH2 0x2FA5 JUMP JUMPDEST PUSH1 0x2 DUP6 PUSH8 0xFFFFFFFFFFFFFFFF AND EQ ISZERO PUSH2 0x2F53 JUMPI PUSH1 0x0 PUSH2 0x2F2A DUP3 DUP10 DUP8 PUSH2 0x4347 JUMP JUMPDEST DUP1 SWAP4 POP DUP2 SWAP3 POP POP POP DUP1 PUSH2 0x2F45 JUMPI PUSH1 0x0 DUP3 SWAP4 POP SWAP4 POP POP POP PUSH2 0x2FA5 JUMP JUMPDEST PUSH1 0x1 DUP3 SWAP4 POP SWAP4 POP POP POP PUSH2 0x2FA5 JUMP JUMPDEST PUSH1 0x3 DUP6 PUSH8 0xFFFFFFFFFFFFFFFF AND EQ ISZERO PUSH2 0x2F9C JUMPI PUSH1 0x0 PUSH2 0x2F73 DUP3 DUP10 DUP8 PUSH2 0x43C9 JUMP JUMPDEST DUP1 SWAP4 POP DUP2 SWAP3 POP POP POP DUP1 PUSH2 0x2F8E JUMPI PUSH1 0x0 DUP3 SWAP4 POP SWAP4 POP POP POP PUSH2 0x2FA5 JUMP JUMPDEST PUSH1 0x1 DUP3 SWAP4 POP SWAP4 POP POP POP PUSH2 0x2FA5 JUMP JUMPDEST PUSH1 0x0 DUP2 SWAP3 POP SWAP3 POP POP JUMPDEST SWAP6 POP SWAP6 SWAP4 POP POP POP POP JUMP JUMPDEST PUSH1 0x0 PUSH1 0x1 DUP4 PUSH8 0xFFFFFFFFFFFFFFFF AND EQ ISZERO PUSH2 0x2FF3 JUMPI PUSH1 0x0 PUSH1 0x6 DUP2 GT ISZERO PUSH2 0x2FD8 JUMPI PUSH2 0x2FD7 PUSH2 0x5F12 JUMP JUMPDEST JUMPDEST DUP3 PUSH1 0x6 DUP2 GT ISZERO PUSH2 0x2FEB JUMPI PUSH2 0x2FEA PUSH2 0x5F12 JUMP JUMPDEST JUMPDEST EQ SWAP1 POP PUSH2 0x307C JUMP JUMPDEST PUSH1 0x2 DUP4 PUSH8 0xFFFFFFFFFFFFFFFF AND EQ ISZERO PUSH2 0x3035 JUMPI PUSH1 0x0 PUSH1 0x6 DUP2 GT ISZERO PUSH2 0x301A JUMPI PUSH2 0x3019 PUSH2 0x5F12 JUMP JUMPDEST JUMPDEST DUP3 PUSH1 0x6 DUP2 GT ISZERO PUSH2 0x302D JUMPI PUSH2 0x302C PUSH2 0x5F12 JUMP JUMPDEST JUMPDEST EQ SWAP1 POP PUSH2 0x307C JUMP JUMPDEST PUSH1 0x3 DUP4 PUSH8 0xFFFFFFFFFFFFFFFF AND EQ ISZERO PUSH2 0x3077 JUMPI PUSH1 0x2 PUSH1 0x6 DUP2 GT ISZERO PUSH2 0x305C JUMPI PUSH2 0x305B PUSH2 0x5F12 JUMP JUMPDEST JUMPDEST DUP3 PUSH1 0x6 DUP2 GT ISZERO PUSH2 0x306F JUMPI PUSH2 0x306E PUSH2 0x5F12 JUMP JUMPDEST JUMPDEST EQ SWAP1 POP PUSH2 0x307C JUMP JUMPDEST PUSH1 0x0 SWAP1 POP JUMPDEST SWAP3 SWAP2 POP POP JUMP JUMPDEST PUSH1 0x0 DUP1 PUSH1 0x0 DUP8 SWAP1 POP PUSH1 0x1 DUP6 PUSH8 0xFFFFFFFFFFFFFFFF AND EQ ISZERO PUSH2 0x30D3 JUMPI PUSH1 0x0 PUSH2 0x30AA DUP3 DUP10 DUP8 PUSH2 0x454E JUMP JUMPDEST DUP1 SWAP4 POP DUP2 SWAP3 POP POP POP DUP1 PUSH2 0x30C5 JUMPI PUSH1 0x0 DUP3 SWAP4 POP SWAP4 POP POP POP PUSH2 0x316E JUMP JUMPDEST PUSH1 0x1 DUP3 SWAP4 POP SWAP4 POP POP POP PUSH2 0x316E JUMP JUMPDEST PUSH1 0x2 DUP6 PUSH8 0xFFFFFFFFFFFFFFFF AND EQ ISZERO PUSH2 0x311C JUMPI PUSH1 0x0 PUSH2 0x30F3 DUP3 DUP10 DUP8 PUSH2 0x45D0 JUMP JUMPDEST DUP1 SWAP4 POP DUP2 SWAP3 POP POP POP DUP1 PUSH2 0x310E JUMPI PUSH1 0x0 DUP3 SWAP4 POP SWAP4 POP POP POP PUSH2 0x316E JUMP JUMPDEST PUSH1 0x1 DUP3 SWAP4 POP SWAP4 POP POP POP PUSH2 0x316E JUMP JUMPDEST PUSH1 0x3 DUP6 PUSH8 0xFFFFFFFFFFFFFFFF AND EQ ISZERO PUSH2 0x3165 JUMPI PUSH1 0x0 PUSH2 0x313C DUP3 DUP10 DUP8 PUSH2 0x4652 JUMP JUMPDEST DUP1 SWAP4 POP DUP2 SWAP3 POP POP POP DUP1 PUSH2 0x3157 JUMPI PUSH1 0x0 DUP3 SWAP4 POP SWAP4 POP POP POP PUSH2 0x316E JUMP JUMPDEST PUSH1 0x1 DUP3 SWAP4 POP SWAP4 POP POP POP PUSH2 0x316E JUMP JUMPDEST PUSH1 0x0 DUP2 SWAP3 POP SWAP3 POP POP JUMPDEST SWAP6 POP SWAP6 SWAP4 POP POP POP POP JUMP JUMPDEST PUSH1 0x0 PUSH1 0x1 DUP4 PUSH8 0xFFFFFFFFFFFFFFFF AND EQ ISZERO PUSH2 0x31BC JUMPI PUSH1 0x0 PUSH1 0x6 DUP2 GT ISZERO PUSH2 0x31A1 JUMPI PUSH2 0x31A0 PUSH2 0x5F12 JUMP JUMPDEST JUMPDEST DUP3 PUSH1 0x6 DUP2 GT ISZERO PUSH2 0x31B4 JUMPI PUSH2 0x31B3 PUSH2 0x5F12 JUMP JUMPDEST JUMPDEST EQ SWAP1 POP PUSH2 0x3287 JUMP JUMPDEST PUSH1 0x2 DUP4 PUSH8 0xFFFFFFFFFFFFFFFF AND EQ ISZERO PUSH2 0x31FE JUMPI PUSH1 0x0 PUSH1 0x6 DUP2 GT ISZERO PUSH2 0x31E3 JUMPI PUSH2 0x31E2 PUSH2 0x5F12 JUMP JUMPDEST JUMPDEST DUP3 PUSH1 0x6 DUP2 GT ISZERO PUSH2 0x31F6 JUMPI PUSH2 0x31F5 PUSH2 0x5F12 JUMP JUMPDEST JUMPDEST EQ SWAP1 POP PUSH2 0x3287 JUMP JUMPDEST PUSH1 0x3 DUP4 PUSH8 0xFFFFFFFFFFFFFFFF AND EQ ISZERO PUSH2 0x3240 JUMPI PUSH1 0x0 PUSH1 0x6 DUP2 GT ISZERO PUSH2 0x3225 JUMPI PUSH2 0x3224 PUSH2 0x5F12 JUMP JUMPDEST JUMPDEST DUP3 PUSH1 0x6 DUP2 GT ISZERO PUSH2 0x3238 JUMPI PUSH2 0x3237 PUSH2 0x5F12 JUMP JUMPDEST JUMPDEST EQ SWAP1 POP PUSH2 0x3287 JUMP JUMPDEST PUSH1 0x4 DUP4 PUSH8 0xFFFFFFFFFFFFFFFF AND EQ ISZERO PUSH2 0x3282 JUMPI PUSH1 0x2 PUSH1 0x6 DUP2 GT ISZERO PUSH2 0x3267 JUMPI PUSH2 0x3266 PUSH2 0x5F12 JUMP JUMPDEST JUMPDEST DUP3 PUSH1 0x6 DUP2 GT ISZERO PUSH2 0x327A JUMPI PUSH2 0x3279 PUSH2 0x5F12 JUMP JUMPDEST JUMPDEST EQ SWAP1 POP PUSH2 0x3287 JUMP JUMPDEST PUSH1 0x0 SWAP1 POP JUMPDEST SWAP3 SWAP2 POP POP JUMP JUMPDEST PUSH1 0x0 DUP1 PUSH1 0x0 DUP8 SWAP1 POP PUSH1 0x1 DUP6 PUSH8 0xFFFFFFFFFFFFFFFF AND EQ ISZERO PUSH2 0x32DE JUMPI PUSH1 0x0 PUSH2 0x32B5 DUP3 DUP10 DUP8 PUSH2 0x47D7 JUMP JUMPDEST DUP1 SWAP4 POP DUP2 SWAP3 POP POP POP DUP1 PUSH2 0x32D0 JUMPI PUSH1 0x0 DUP3 SWAP4 POP SWAP4 POP POP POP PUSH2 0x33C2 JUMP JUMPDEST PUSH1 0x1 DUP3 SWAP4 POP SWAP4 POP POP POP PUSH2 0x33C2 JUMP JUMPDEST PUSH1 0x2 DUP6 PUSH8 0xFFFFFFFFFFFFFFFF AND EQ ISZERO PUSH2 0x3327 JUMPI PUSH1 0x0 PUSH2 0x32FE DUP3 DUP10 DUP8 PUSH2 0x4859 JUMP JUMPDEST DUP1 SWAP4 POP DUP2 SWAP3 POP POP POP DUP1 PUSH2 0x3319 JUMPI PUSH1 0x0 DUP3 SWAP4 POP SWAP4 POP POP POP PUSH2 0x33C2 JUMP JUMPDEST PUSH1 0x1 DUP3 SWAP4 POP SWAP4 POP POP POP PUSH2 0x33C2 JUMP JUMPDEST PUSH1 0x3 DUP6 PUSH8 0xFFFFFFFFFFFFFFFF AND EQ ISZERO PUSH2 0x3370 JUMPI PUSH1 0x0 PUSH2 0x3347 DUP3 DUP10 DUP8 PUSH2 0x48DB JUMP JUMPDEST DUP1 SWAP4 POP DUP2 SWAP3 POP POP POP DUP1 PUSH2 0x3362 JUMPI PUSH1 0x0 DUP3 SWAP4 POP SWAP4 POP POP POP PUSH2 0x33C2 JUMP JUMPDEST PUSH1 0x1 DUP3 SWAP4 POP SWAP4 POP POP POP PUSH2 0x33C2 JUMP JUMPDEST PUSH1 0x4 DUP6 PUSH8 0xFFFFFFFFFFFFFFFF AND EQ ISZERO PUSH2 0x33B9 JUMPI PUSH1 0x0 PUSH2 0x3390 DUP3 DUP10 DUP8 PUSH2 0x495D JUMP JUMPDEST DUP1 SWAP4 POP DUP2 SWAP3 POP POP POP DUP1 PUSH2 0x33AB JUMPI PUSH1 0x0 DUP3 SWAP4 POP SWAP4 POP POP POP PUSH2 0x33C2 JUMP JUMPDEST PUSH1 0x1 DUP3 SWAP4 POP SWAP4 POP POP POP PUSH2 0x33C2 JUMP JUMPDEST PUSH1 0x0 DUP2 SWAP3 POP SWAP3 POP POP JUMPDEST SWAP6 POP SWAP6 SWAP4 POP POP POP POP JUMP JUMPDEST PUSH1 0x0 PUSH1 0x1 DUP4 PUSH8 0xFFFFFFFFFFFFFFFF AND EQ ISZERO PUSH2 0x3410 JUMPI PUSH1 0x0 PUSH1 0x6 DUP2 GT ISZERO PUSH2 0x33F5 JUMPI PUSH2 0x33F4 PUSH2 0x5F12 JUMP JUMPDEST JUMPDEST DUP3 PUSH1 0x6 DUP2 GT ISZERO PUSH2 0x3408 JUMPI PUSH2 0x3407 PUSH2 0x5F12 JUMP JUMPDEST JUMPDEST EQ SWAP1 POP PUSH2 0x351D JUMP JUMPDEST PUSH1 0x2 DUP4 PUSH8 0xFFFFFFFFFFFFFFFF AND EQ ISZERO PUSH2 0x3452 JUMPI PUSH1 0x2 PUSH1 0x6 DUP2 GT ISZERO PUSH2 0x3437 JUMPI PUSH2 0x3436 PUSH2 0x5F12 JUMP JUMPDEST JUMPDEST DUP3 PUSH1 0x6 DUP2 GT ISZERO PUSH2 0x344A JUMPI PUSH2 0x3449 PUSH2 0x5F12 JUMP JUMPDEST JUMPDEST EQ SWAP1 POP PUSH2 0x351D JUMP JUMPDEST PUSH1 0x3 DUP4 PUSH8 0xFFFFFFFFFFFFFFFF AND EQ ISZERO PUSH2 0x3494 JUMPI PUSH1 0x0 PUSH1 0x6 DUP2 GT ISZERO PUSH2 0x3479 JUMPI PUSH2 0x3478 PUSH2 0x5F12 JUMP JUMPDEST JUMPDEST DUP3 PUSH1 0x6 DUP2 GT ISZERO PUSH2 0x348C JUMPI PUSH2 0x348B PUSH2 0x5F12 JUMP JUMPDEST JUMPDEST EQ SWAP1 POP PUSH2 0x351D JUMP JUMPDEST PUSH1 0x4 DUP4 PUSH8 0xFFFFFFFFFFFFFFFF AND EQ ISZERO PUSH2 0x34D6 JUMPI PUSH1 0x2 PUSH1 0x6 DUP2 GT ISZERO PUSH2 0x34BB JUMPI PUSH2 0x34BA PUSH2 0x5F12 JUMP JUMPDEST JUMPDEST DUP3 PUSH1 0x6 DUP2 GT ISZERO PUSH2 0x34CE JUMPI PUSH2 0x34CD PUSH2 0x5F12 JUMP JUMPDEST JUMPDEST EQ SWAP1 POP PUSH2 0x351D JUMP JUMPDEST PUSH1 0x5 DUP4 PUSH8 0xFFFFFFFFFFFFFFFF AND EQ ISZERO PUSH2 0x3518 JUMPI PUSH1 0x2 PUSH1 0x6 DUP2 GT ISZERO PUSH2 0x34FD JUMPI PUSH2 0x34FC PUSH2 0x5F12 JUMP JUMPDEST JUMPDEST DUP3 PUSH1 0x6 DUP2 GT ISZERO PUSH2 0x3510 JUMPI PUSH2 0x350F PUSH2 0x5F12 JUMP JUMPDEST JUMPDEST EQ SWAP1 POP PUSH2 0x351D JUMP JUMPDEST PUSH1 0x0 SWAP1 POP JUMPDEST SWAP3 SWAP2 POP POP JUMP JUMPDEST PUSH1 0x0 DUP1 PUSH1 0x0 DUP8 SWAP1 POP PUSH1 0x1 DUP6 PUSH8 0xFFFFFFFFFFFFFFFF AND EQ ISZERO PUSH2 0x3574 JUMPI PUSH1 0x0 PUSH2 0x354B DUP3 DUP10 DUP8 PUSH2 0x4AE2 JUMP JUMPDEST DUP1 SWAP4 POP DUP2 SWAP3 POP POP POP DUP1 PUSH2 0x3566 JUMPI PUSH1 0x0 DUP3 SWAP4 POP SWAP4 POP POP POP PUSH2 0x36A1 JUMP JUMPDEST PUSH1 0x1 DUP3 SWAP4 POP SWAP4 POP POP POP PUSH2 0x36A1 JUMP JUMPDEST PUSH1 0x2 DUP6 PUSH8 0xFFFFFFFFFFFFFFFF AND EQ ISZERO PUSH2 0x35BD JUMPI PUSH1 0x0 PUSH2 0x3594 DUP3 DUP10 DUP8 PUSH2 0x4B64 JUMP JUMPDEST DUP1 SWAP4 POP DUP2 SWAP3 POP POP POP DUP1 PUSH2 0x35AF JUMPI PUSH1 0x0 DUP3 SWAP4 POP SWAP4 POP POP POP PUSH2 0x36A1 JUMP JUMPDEST PUSH1 0x1 DUP3 SWAP4 POP SWAP4 POP POP POP PUSH2 0x36A1 JUMP JUMPDEST PUSH1 0x3 DUP6 PUSH8 0xFFFFFFFFFFFFFFFF AND EQ ISZERO PUSH2 0x3606 JUMPI PUSH1 0x0 PUSH2 0x35DD DUP3 DUP10 DUP8 PUSH2 0x4CE9 JUMP JUMPDEST DUP1 SWAP4 POP DUP2 SWAP3 POP POP POP DUP1 PUSH2 0x35F8 JUMPI PUSH1 0x0 DUP3 SWAP4 POP SWAP4 POP POP POP PUSH2 0x36A1 JUMP JUMPDEST PUSH1 0x1 DUP3 SWAP4 POP SWAP4 POP POP POP PUSH2 0x36A1 JUMP JUMPDEST PUSH1 0x4 DUP6 PUSH8 0xFFFFFFFFFFFFFFFF AND EQ ISZERO PUSH2 0x364F JUMPI PUSH1 0x0 PUSH2 0x3626 DUP3 DUP10 DUP8 PUSH2 0x4D6B JUMP JUMPDEST DUP1 SWAP4 POP DUP2 SWAP3 POP POP POP DUP1 PUSH2 0x3641 JUMPI PUSH1 0x0 DUP3 SWAP4 POP SWAP4 POP POP POP PUSH2 0x36A1 JUMP JUMPDEST PUSH1 0x1 DUP3 SWAP4 POP SWAP4 POP POP POP PUSH2 0x36A1 JUMP JUMPDEST PUSH1 0x5 DUP6 PUSH8 0xFFFFFFFFFFFFFFFF AND EQ ISZERO PUSH2 0x3698 JUMPI PUSH1 0x0 PUSH2 0x366F DUP3 DUP10 DUP8 PUSH2 0x4EF0 JUMP JUMPDEST DUP1 SWAP4 POP DUP2 SWAP3 POP POP POP DUP1 PUSH2 0x368A JUMPI PUSH1 0x0 DUP3 SWAP4 POP SWAP4 POP POP POP PUSH2 0x36A1 JUMP JUMPDEST PUSH1 0x1 DUP3 SWAP4 POP SWAP4 POP POP POP PUSH2 0x36A1 JUMP JUMPDEST PUSH1 0x0 DUP2 SWAP3 POP SWAP3 POP POP JUMPDEST SWAP6 POP SWAP6 SWAP4 POP POP POP POP JUMP JUMPDEST PUSH1 0x0 DUP1 PUSH1 0x0 DUP1 PUSH1 0x0 JUMPDEST PUSH1 0xA PUSH8 0xFFFFFFFFFFFFFFFF AND DUP2 PUSH8 0xFFFFFFFFFFFFFFFF AND LT ISZERO PUSH2 0x37CE JUMPI DUP6 MLOAD DUP8 DUP3 PUSH2 0x36DF SWAP2 SWAP1 PUSH2 0x5B9C JUMP JUMPDEST PUSH8 0xFFFFFFFFFFFFFFFF AND LT PUSH2 0x3700 JUMPI PUSH1 0x0 DUP8 PUSH1 0x0 SWAP5 POP SWAP5 POP SWAP5 POP POP POP PUSH2 0x389C JUMP JUMPDEST PUSH1 0x0 DUP7 DUP3 DUP10 PUSH2 0x370F SWAP2 SWAP1 PUSH2 0x5B9C JUMP JUMPDEST PUSH8 0xFFFFFFFFFFFFFFFF AND DUP2 MLOAD DUP2 LT PUSH2 0x372A JUMPI PUSH2 0x3729 PUSH2 0x5F70 JUMP JUMPDEST JUMPDEST PUSH1 0x20 ADD ADD MLOAD PUSH1 0xF8 SHR PUSH1 0xF8 SHL PUSH1 0xF8 SHR SWAP1 POP PUSH1 0x0 PUSH1 0x7F DUP3 AND SWAP1 POP PUSH1 0x7 DUP4 PUSH2 0x374F SWAP2 SWAP1 PUSH2 0x5C65 JUMP JUMPDEST PUSH8 0xFFFFFFFFFFFFFFFF AND DUP2 PUSH1 0xFF AND PUSH8 0xFFFFFFFFFFFFFFFF AND SWAP1 SHL DUP5 OR SWAP4 POP PUSH1 0x0 PUSH1 0x80 DUP4 AND PUSH1 0xFF AND EQ ISZERO PUSH2 0x37B9 JUMPI PUSH1 0x0 DUP4 PUSH8 0xFFFFFFFFFFFFFFFF AND GT DUP1 ISZERO PUSH2 0x3799 JUMPI POP PUSH1 0x0 DUP2 PUSH1 0xFF AND EQ JUMPDEST ISZERO PUSH2 0x37B2 JUMPI PUSH1 0x0 DUP10 PUSH1 0x0 SWAP7 POP SWAP7 POP SWAP7 POP POP POP POP POP PUSH2 0x389C JUMP JUMPDEST POP POP PUSH2 0x37CE JUMP JUMPDEST POP POP DUP1 DUP1 PUSH2 0x37C6 SWAP1 PUSH2 0x5E83 JUMP JUMPDEST SWAP2 POP POP PUSH2 0x36B4 JUMP JUMPDEST PUSH1 0xA PUSH8 0xFFFFFFFFFFFFFFFF AND DUP2 PUSH8 0xFFFFFFFFFFFFFFFF AND LT PUSH2 0x37FC JUMPI PUSH1 0x0 DUP8 PUSH1 0x0 SWAP5 POP SWAP5 POP SWAP5 POP POP POP PUSH2 0x389C JUMP JUMPDEST PUSH1 0x1 PUSH1 0xA PUSH2 0x380A SWAP2 SWAP1 PUSH2 0x5CDB JUMP JUMPDEST PUSH8 0xFFFFFFFFFFFFFFFF AND DUP2 PUSH8 0xFFFFFFFFFFFFFFFF AND EQ ISZERO PUSH2 0x3879 JUMPI PUSH1 0x1 DUP7 DUP3 DUP10 PUSH2 0x3834 SWAP2 SWAP1 PUSH2 0x5B9C JUMP JUMPDEST PUSH8 0xFFFFFFFFFFFFFFFF AND DUP2 MLOAD DUP2 LT PUSH2 0x384F JUMPI PUSH2 0x384E PUSH2 0x5F70 JUMP JUMPDEST JUMPDEST PUSH1 0x20 ADD ADD MLOAD PUSH1 0xF8 SHR PUSH1 0xF8 SHL PUSH1 0xF8 SHR PUSH1 0xFF AND GT ISZERO PUSH2 0x3878 JUMPI PUSH1 0x0 DUP8 PUSH1 0x0 SWAP5 POP SWAP5 POP SWAP5 POP POP POP PUSH2 0x389C JUMP JUMPDEST JUMPDEST PUSH1 0x1 DUP1 DUP3 DUP10 PUSH2 0x3888 SWAP2 SWAP1 PUSH2 0x5B9C JUMP JUMPDEST PUSH2 0x3892 SWAP2 SWAP1 PUSH2 0x5B9C JUMP JUMPDEST DUP4 SWAP5 POP SWAP5 POP SWAP5 POP POP POP JUMPDEST SWAP3 POP SWAP3 POP SWAP3 JUMP JUMPDEST PUSH1 0x0 DUP1 PUSH1 0x0 DUP1 PUSH2 0x38B3 DUP8 DUP8 PUSH2 0x5075 JUMP JUMPDEST DUP1 SWAP4 POP DUP2 SWAP10 POP DUP3 SWAP5 POP POP POP POP DUP2 PUSH2 0x38D2 JUMPI PUSH1 0x0 DUP8 SWAP4 POP SWAP4 POP POP POP PUSH2 0x3A20 JUMP JUMPDEST PUSH1 0x0 DUP2 PUSH8 0xFFFFFFFFFFFFFFFF AND EQ ISZERO PUSH2 0x38F3 JUMPI PUSH1 0x0 DUP8 SWAP4 POP SWAP4 POP POP POP PUSH2 0x3A20 JUMP JUMPDEST DUP1 PUSH8 0xFFFFFFFFFFFFFFFF AND PUSH8 0xFFFFFFFFFFFFFFFF DUP2 GT ISZERO PUSH2 0x3917 JUMPI PUSH2 0x3916 PUSH2 0x5F9F JUMP JUMPDEST JUMPDEST PUSH1 0x40 MLOAD SWAP1 DUP1 DUP3 MSTORE DUP1 PUSH1 0x1F ADD PUSH1 0x1F NOT AND PUSH1 0x20 ADD DUP3 ADD PUSH1 0x40 MSTORE DUP1 ISZERO PUSH2 0x3949 JUMPI DUP2 PUSH1 0x20 ADD PUSH1 0x1 DUP3 MUL DUP1 CALLDATASIZE DUP4 CALLDATACOPY DUP1 DUP3 ADD SWAP2 POP POP SWAP1 POP JUMPDEST POP DUP6 PUSH1 0x0 ADD DUP2 SWAP1 MSTORE POP PUSH1 0x0 JUMPDEST DUP2 PUSH8 0xFFFFFFFFFFFFFFFF AND DUP2 PUSH8 0xFFFFFFFFFFFFFFFF AND LT ISZERO PUSH2 0x3A07 JUMPI DUP7 DUP2 DUP10 PUSH2 0x397E SWAP2 SWAP1 PUSH2 0x5B9C JUMP JUMPDEST PUSH8 0xFFFFFFFFFFFFFFFF AND DUP2 MLOAD DUP2 LT PUSH2 0x3999 JUMPI PUSH2 0x3998 PUSH2 0x5F70 JUMP JUMPDEST JUMPDEST PUSH1 0x20 ADD ADD MLOAD PUSH1 0xF8 SHR PUSH1 0xF8 SHL DUP7 PUSH1 0x0 ADD MLOAD DUP3 PUSH8 0xFFFFFFFFFFFFFFFF AND DUP2 MLOAD DUP2 LT PUSH2 0x39C5 JUMPI PUSH2 0x39C4 PUSH2 0x5F70 JUMP JUMPDEST JUMPDEST PUSH1 0x20 ADD ADD SWAP1 PUSH31 0xFFFFFFFFFFFFFFFFFFFFFFFFFFFFFFFFFFFFFFFFFFFFFFFFFFFFFFFFFFFFFF NOT AND SWAP1 DUP2 PUSH1 0x0 BYTE SWAP1 MSTORE8 POP DUP1 DUP1 PUSH2 0x39FF SWAP1 PUSH2 0x5E83 JUMP JUMPDEST SWAP2 POP POP PUSH2 0x3955 JUMP JUMPDEST POP DUP1 DUP8 PUSH2 0x3A14 SWAP2 SWAP1 PUSH2 0x5B9C JUMP JUMPDEST SWAP7 POP PUSH1 0x1 DUP8 SWAP4 POP SWAP4 POP POP POP JUMPDEST SWAP4 POP SWAP4 SWAP2 POP POP JUMP JUMPDEST PUSH1 0x0 DUP1 PUSH1 0x0 DUP1 PUSH2 0x3A38 DUP8 DUP8 PUSH2 0x5075 JUMP JUMPDEST DUP1 SWAP4 POP DUP2 SWAP10 POP DUP3 SWAP5 POP POP POP POP DUP2 PUSH2 0x3A57 JUMPI PUSH1 0x0 DUP8 SWAP4 POP SWAP4 POP POP POP PUSH2 0x3BA5 JUMP JUMPDEST PUSH1 0x0 DUP2 PUSH8 0xFFFFFFFFFFFFFFFF AND EQ ISZERO PUSH2 0x3A78 JUMPI PUSH1 0x0 DUP8 SWAP4 POP SWAP4 POP POP POP PUSH2 0x3BA5 JUMP JUMPDEST DUP1 PUSH8 0xFFFFFFFFFFFFFFFF AND PUSH8 0xFFFFFFFFFFFFFFFF DUP2 GT ISZERO PUSH2 0x3A9C JUMPI PUSH2 0x3A9B PUSH2 0x5F9F JUMP JUMPDEST JUMPDEST PUSH1 0x40 MLOAD SWAP1 DUP1 DUP3 MSTORE DUP1 PUSH1 0x1F ADD PUSH1 0x1F NOT AND PUSH1 0x20 ADD DUP3 ADD PUSH1 0x40 MSTORE DUP1 ISZERO PUSH2 0x3ACE JUMPI DUP2 PUSH1 0x20 ADD PUSH1 0x1 DUP3 MUL DUP1 CALLDATASIZE DUP4 CALLDATACOPY DUP1 DUP3 ADD SWAP2 POP POP SWAP1 POP JUMPDEST POP DUP6 PUSH1 0x20 ADD DUP2 SWAP1 MSTORE POP PUSH1 0x0 JUMPDEST DUP2 PUSH8 0xFFFFFFFFFFFFFFFF AND DUP2 PUSH8 0xFFFFFFFFFFFFFFFF AND LT ISZERO PUSH2 0x3B8C JUMPI DUP7 DUP2 DUP10 PUSH2 0x3B03 SWAP2 SWAP1 PUSH2 0x5B9C JUMP JUMPDEST PUSH8 0xFFFFFFFFFFFFFFFF AND DUP2 MLOAD DUP2 LT PUSH2 0x3B1E JUMPI PUSH2 0x3B1D PUSH2 0x5F70 JUMP JUMPDEST JUMPDEST PUSH1 0x20 ADD ADD MLOAD PUSH1 0xF8 SHR PUSH1 0xF8 SHL DUP7 PUSH1 0x20 ADD MLOAD DUP3 PUSH8 0xFFFFFFFFFFFFFFFF AND DUP2 MLOAD DUP2 LT PUSH2 0x3B4A JUMPI PUSH2 0x3B49 PUSH2 0x5F70 JUMP JUMPDEST JUMPDEST PUSH1 0x20 ADD ADD SWAP1 PUSH31 0xFFFFFFFFFFFFFFFFFFFFFFFFFFFFFFFFFFFFFFFFFFFFFFFFFFFFFFFFFFFFFF NOT AND SWAP1 DUP2 PUSH1 0x0 BYTE SWAP1 MSTORE8 POP DUP1 DUP1 PUSH2 0x3B84 SWAP1 PUSH2 0x5E83 JUMP JUMPDEST SWAP2 POP POP PUSH2 0x3ADA JUMP JUMPDEST POP DUP1 DUP8 PUSH2 0x3B99 SWAP2 SWAP1 PUSH2 0x5B9C JUMP JUMPDEST SWAP7 POP PUSH1 0x1 DUP8 SWAP4 POP SWAP4 POP POP POP JUMPDEST SWAP4 POP SWAP4 SWAP2 POP POP JUMP JUMPDEST PUSH1 0x0 DUP1 PUSH1 0x0 DUP1 PUSH2 0x3BBD DUP8 DUP8 PUSH2 0x5091 JUMP JUMPDEST DUP1 SWAP4 POP DUP2 SWAP10 POP DUP3 SWAP5 POP POP POP POP DUP2 PUSH2 0x3BDC JUMPI PUSH1 0x0 DUP8 SWAP4 POP SWAP4 POP POP POP PUSH2 0x3C27 JUMP JUMPDEST PUSH1 0x0 DUP2 PUSH8 0xFFFFFFFFFFFFFFFF AND EQ ISZERO PUSH2 0x3BFD JUMPI PUSH1 0x0 DUP8 SWAP4 POP SWAP4 POP POP POP PUSH2 0x3C27 JUMP JUMPDEST DUP1 DUP6 PUSH1 0x40 ADD SWAP1 PUSH8 0xFFFFFFFFFFFFFFFF AND SWAP1 DUP2 PUSH8 0xFFFFFFFFFFFFFFFF AND DUP2 MSTORE POP POP PUSH1 0x1 DUP8 SWAP4 POP SWAP4 POP POP POP JUMPDEST SWAP4 POP SWAP4 SWAP2 POP POP JUMP JUMPDEST PUSH1 0x0 DUP1 PUSH1 0x0 DUP1 PUSH2 0x3C3F DUP8 DUP8 PUSH2 0x5091 JUMP JUMPDEST DUP1 SWAP4 POP DUP2 SWAP10 POP DUP3 SWAP5 POP POP POP POP DUP2 PUSH2 0x3C5E JUMPI PUSH1 0x0 DUP8 SWAP4 POP SWAP4 POP POP POP PUSH2 0x3CA9 JUMP JUMPDEST PUSH1 0x0 DUP2 PUSH8 0xFFFFFFFFFFFFFFFF AND EQ ISZERO PUSH2 0x3C7F JUMPI PUSH1 0x0 DUP8 SWAP4 POP SWAP4 POP POP POP PUSH2 0x3CA9 JUMP JUMPDEST DUP1 DUP6 PUSH1 0x60 ADD SWAP1 PUSH8 0xFFFFFFFFFFFFFFFF AND SWAP1 DUP2 PUSH8 0xFFFFFFFFFFFFFFFF AND DUP2 MSTORE POP POP PUSH1 0x1 DUP8 SWAP4 POP SWAP4 POP POP POP JUMPDEST SWAP4 POP SWAP4 SWAP2 POP POP JUMP JUMPDEST PUSH1 0x0 DUP1 PUSH1 0x0 DUP1 PUSH2 0x3CC1 DUP8 DUP8 PUSH2 0x5075 JUMP JUMPDEST DUP1 SWAP4 POP DUP2 SWAP10 POP DUP3 SWAP5 POP POP POP POP DUP2 PUSH2 0x3CE0 JUMPI PUSH1 0x0 DUP8 SWAP4 POP SWAP4 POP POP POP PUSH2 0x3E2E JUMP JUMPDEST PUSH1 0x0 DUP2 PUSH8 0xFFFFFFFFFFFFFFFF AND EQ ISZERO PUSH2 0x3D01 JUMPI PUSH1 0x0 DUP8 SWAP4 POP SWAP4 POP POP POP PUSH2 0x3E2E JUMP JUMPDEST DUP1 PUSH8 0xFFFFFFFFFFFFFFFF AND PUSH8 0xFFFFFFFFFFFFFFFF DUP2 GT ISZERO PUSH2 0x3D25 JUMPI PUSH2 0x3D24 PUSH2 0x5F9F JUMP JUMPDEST JUMPDEST PUSH1 0x40 MLOAD SWAP1 DUP1 DUP3 MSTORE DUP1 PUSH1 0x1F ADD PUSH1 0x1F NOT AND PUSH1 0x20 ADD DUP3 ADD PUSH1 0x40 MSTORE DUP1 ISZERO PUSH2 0x3D57 JUMPI DUP2 PUSH1 0x20 ADD PUSH1 0x1 DUP3 MUL DUP1 CALLDATASIZE DUP4 CALLDATACOPY DUP1 DUP3 ADD SWAP2 POP POP SWAP1 POP JUMPDEST POP DUP6 PUSH1 0x80 ADD DUP2 SWAP1 MSTORE POP PUSH1 0x0 JUMPDEST DUP2 PUSH8 0xFFFFFFFFFFFFFFFF AND DUP2 PUSH8 0xFFFFFFFFFFFFFFFF AND LT ISZERO PUSH2 0x3E15 JUMPI DUP7 DUP2 DUP10 PUSH2 0x3D8C SWAP2 SWAP1 PUSH2 0x5B9C JUMP JUMPDEST PUSH8 0xFFFFFFFFFFFFFFFF AND DUP2 MLOAD DUP2 LT PUSH2 0x3DA7 JUMPI PUSH2 0x3DA6 PUSH2 0x5F70 JUMP JUMPDEST JUMPDEST PUSH1 0x20 ADD ADD MLOAD PUSH1 0xF8 SHR PUSH1 0xF8 SHL DUP7 PUSH1 0x80 ADD MLOAD DUP3 PUSH8 0xFFFFFFFFFFFFFFFF AND DUP2 MLOAD DUP2 LT PUSH2 0x3DD3 JUMPI PUSH2 0x3DD2 PUSH2 0x5F70 JUMP JUMPDEST JUMPDEST PUSH1 0x20 ADD ADD SWAP1 PUSH31 0xFFFFFFFFFFFFFFFFFFFFFFFFFFFFFFFFFFFFFFFFFFFFFFFFFFFFFFFFFFFFFF NOT AND SWAP1 DUP2 PUSH1 0x0 BYTE SWAP1 MSTORE8 POP DUP1 DUP1 PUSH2 0x3E0D SWAP1 PUSH2 0x5E83 JUMP JUMPDEST SWAP2 POP POP PUSH2 0x3D63 JUMP JUMPDEST POP DUP1 DUP8 PUSH2 0x3E22 SWAP2 SWAP1 PUSH2 0x5B9C JUMP JUMPDEST SWAP7 POP PUSH1 0x1 DUP8 SWAP4 POP SWAP4 POP POP POP JUMPDEST SWAP4 POP SWAP4 SWAP2 POP POP JUMP JUMPDEST PUSH1 0x0 DUP1 PUSH1 0x0 DUP1 PUSH2 0x3E46 DUP8 DUP8 PUSH2 0x5075 JUMP JUMPDEST DUP1 SWAP4 POP DUP2 SWAP10 POP DUP3 SWAP5 POP POP POP POP DUP2 PUSH2 0x3E65 JUMPI PUSH1 0x0 DUP8 SWAP4 POP SWAP4 POP POP POP PUSH2 0x3FB3 JUMP JUMPDEST PUSH1 0x0 DUP2 PUSH8 0xFFFFFFFFFFFFFFFF AND EQ ISZERO PUSH2 0x3E86 JUMPI PUSH1 0x0 DUP8 SWAP4 POP SWAP4 POP POP POP PUSH2 0x3FB3 JUMP JUMPDEST DUP1 PUSH8 0xFFFFFFFFFFFFFFFF AND PUSH8 0xFFFFFFFFFFFFFFFF DUP2 GT ISZERO PUSH2 0x3EAA JUMPI PUSH2 0x3EA9 PUSH2 0x5F9F JUMP JUMPDEST JUMPDEST PUSH1 0x40 MLOAD SWAP1 DUP1 DUP3 MSTORE DUP1 PUSH1 0x1F ADD PUSH1 0x1F NOT AND PUSH1 0x20 ADD DUP3 ADD PUSH1 0x40 MSTORE DUP1 ISZERO PUSH2 0x3EDC JUMPI DUP2 PUSH1 0x20 ADD PUSH1 0x1 DUP3 MUL DUP1 CALLDATASIZE DUP4 CALLDATACOPY DUP1 DUP3 ADD SWAP2 POP POP SWAP1 POP JUMPDEST POP DUP6 PUSH1 0x0 ADD DUP2 SWAP1 MSTORE POP PUSH1 0x0 JUMPDEST DUP2 PUSH8 0xFFFFFFFFFFFFFFFF AND DUP2 PUSH8 0xFFFFFFFFFFFFFFFF AND LT ISZERO PUSH2 0x3F9A JUMPI DUP7 DUP2 DUP10 PUSH2 0x3F11 SWAP2 SWAP1 PUSH2 0x5B9C JUMP JUMPDEST PUSH8 0xFFFFFFFFFFFFFFFF AND DUP2 MLOAD DUP2 LT PUSH2 0x3F2C JUMPI PUSH2 0x3F2B PUSH2 0x5F70 JUMP JUMPDEST JUMPDEST PUSH1 0x20 ADD ADD MLOAD PUSH1 0xF8 SHR PUSH1 0xF8 SHL DUP7 PUSH1 0x0 ADD MLOAD DUP3 PUSH8 0xFFFFFFFFFFFFFFFF AND DUP2 MLOAD DUP2 LT PUSH2 0x3F58 JUMPI PUSH2 0x3F57 PUSH2 0x5F70 JUMP JUMPDEST JUMPDEST PUSH1 0x20 ADD ADD SWAP1 PUSH31 0xFFFFFFFFFFFFFFFFFFFFFFFFFFFFFFFFFFFFFFFFFFFFFFFFFFFFFFFFFFFFFF NOT AND SWAP1 DUP2 PUSH1 0x0 BYTE SWAP1 MSTORE8 POP DUP1 DUP1 PUSH2 0x3F92 SWAP1 PUSH2 0x5E83 JUMP JUMPDEST SWAP2 POP POP PUSH2 0x3EE8 JUMP JUMPDEST POP DUP1 DUP8 PUSH2 0x3FA7 SWAP2 SWAP1 PUSH2 0x5B9C JUMP JUMPDEST SWAP7 POP PUSH1 0x1 DUP8 SWAP4 POP SWAP4 POP POP POP JUMPDEST SWAP4 POP SWAP4 SWAP2 POP POP JUMP JUMPDEST PUSH1 0x0 DUP1 PUSH1 0x0 DUP1 PUSH2 0x3FCB DUP8 DUP8 PUSH2 0x5091 JUMP JUMPDEST DUP1 SWAP4 POP DUP2 SWAP10 POP DUP3 SWAP5 POP POP POP POP DUP2 PUSH2 0x3FEA JUMPI PUSH1 0x0 DUP8 SWAP4 POP SWAP4 POP POP POP PUSH2 0x4035 JUMP JUMPDEST PUSH1 0x0 DUP2 PUSH8 0xFFFFFFFFFFFFFFFF AND EQ ISZERO PUSH2 0x400B JUMPI PUSH1 0x0 DUP8 SWAP4 POP SWAP4 POP POP POP PUSH2 0x4035 JUMP JUMPDEST DUP1 DUP6 PUSH1 0x20 ADD SWAP1 PUSH8 0xFFFFFFFFFFFFFFFF AND SWAP1 DUP2 PUSH8 0xFFFFFFFFFFFFFFFF AND DUP2 MSTORE POP POP PUSH1 0x1 DUP8 SWAP4 POP SWAP4 POP POP POP JUMPDEST SWAP4 POP SWAP4 SWAP2 POP POP JUMP JUMPDEST PUSH1 0x0 DUP1 PUSH1 0x0 DUP1 PUSH2 0x404D DUP8 DUP8 PUSH2 0x5075 JUMP JUMPDEST DUP1 SWAP4 POP DUP2 SWAP10 POP DUP3 SWAP5 POP POP POP POP DUP2 PUSH2 0x406C JUMPI PUSH1 0x0 DUP8 SWAP4 POP SWAP4 POP POP POP PUSH2 0x41BA JUMP JUMPDEST PUSH1 0x0 DUP2 PUSH8 0xFFFFFFFFFFFFFFFF AND EQ ISZERO PUSH2 0x408D JUMPI PUSH1 0x0 DUP8 SWAP4 POP SWAP4 POP POP POP PUSH2 0x41BA JUMP JUMPDEST DUP1 PUSH8 0xFFFFFFFFFFFFFFFF AND PUSH8 0xFFFFFFFFFFFFFFFF DUP2 GT ISZERO PUSH2 0x40B1 JUMPI PUSH2 0x40B0 PUSH2 0x5F9F JUMP JUMPDEST JUMPDEST PUSH1 0x40 MLOAD SWAP1 DUP1 DUP3 MSTORE DUP1 PUSH1 0x1F ADD PUSH1 0x1F NOT AND PUSH1 0x20 ADD DUP3 ADD PUSH1 0x40 MSTORE DUP1 ISZERO PUSH2 0x40E3 JUMPI DUP2 PUSH1 0x20 ADD PUSH1 0x1 DUP3 MUL DUP1 CALLDATASIZE DUP4 CALLDATACOPY DUP1 DUP3 ADD SWAP2 POP POP SWAP1 POP JUMPDEST POP DUP6 PUSH1 0x40 ADD DUP2 SWAP1 MSTORE POP PUSH1 0x0 JUMPDEST DUP2 PUSH8 0xFFFFFFFFFFFFFFFF AND DUP2 PUSH8 0xFFFFFFFFFFFFFFFF AND LT ISZERO PUSH2 0x41A1 JUMPI DUP7 DUP2 DUP10 PUSH2 0x4118 SWAP2 SWAP1 PUSH2 0x5B9C JUMP JUMPDEST PUSH8 0xFFFFFFFFFFFFFFFF AND DUP2 MLOAD DUP2 LT PUSH2 0x4133 JUMPI PUSH2 0x4132 PUSH2 0x5F70 JUMP JUMPDEST JUMPDEST PUSH1 0x20 ADD ADD MLOAD PUSH1 0xF8 SHR PUSH1 0xF8 SHL DUP7 PUSH1 0x40 ADD MLOAD DUP3 PUSH8 0xFFFFFFFFFFFFFFFF AND DUP2 MLOAD DUP2 LT PUSH2 0x415F JUMPI PUSH2 0x415E PUSH2 0x5F70 JUMP JUMPDEST JUMPDEST PUSH1 0x20 ADD ADD SWAP1 PUSH31 0xFFFFFFFFFFFFFFFFFFFFFFFFFFFFFFFFFFFFFFFFFFFFFFFFFFFFFFFFFFFFFF NOT AND SWAP1 DUP2 PUSH1 0x0 BYTE SWAP1 MSTORE8 POP DUP1 DUP1 PUSH2 0x4199 SWAP1 PUSH2 0x5E83 JUMP JUMPDEST SWAP2 POP POP PUSH2 0x40EF JUMP JUMPDEST POP DUP1 DUP8 PUSH2 0x41AE SWAP2 SWAP1 PUSH2 0x5B9C JUMP JUMPDEST SWAP7 POP PUSH1 0x1 DUP8 SWAP4 POP SWAP4 POP POP POP JUMPDEST SWAP4 POP SWAP4 SWAP2 POP POP JUMP JUMPDEST PUSH1 0x0 DUP1 PUSH1 0x0 DUP1 PUSH2 0x41D2 DUP8 DUP8 PUSH2 0x5075 JUMP JUMPDEST DUP1 SWAP4 POP DUP2 SWAP10 POP DUP3 SWAP5 POP POP POP POP DUP2 PUSH2 0x41F1 JUMPI PUSH1 0x0 DUP8 SWAP4 POP SWAP4 POP POP POP PUSH2 0x433F JUMP JUMPDEST PUSH1 0x0 DUP2 PUSH8 0xFFFFFFFFFFFFFFFF AND EQ ISZERO PUSH2 0x4212 JUMPI PUSH1 0x0 DUP8 SWAP4 POP SWAP4 POP POP POP PUSH2 0x433F JUMP JUMPDEST DUP1 PUSH8 0xFFFFFFFFFFFFFFFF AND PUSH8 0xFFFFFFFFFFFFFFFF DUP2 GT ISZERO PUSH2 0x4236 JUMPI PUSH2 0x4235 PUSH2 0x5F9F JUMP JUMPDEST JUMPDEST PUSH1 0x40 MLOAD SWAP1 DUP1 DUP3 MSTORE DUP1 PUSH1 0x1F ADD PUSH1 0x1F NOT AND PUSH1 0x20 ADD DUP3 ADD PUSH1 0x40 MSTORE DUP1 ISZERO PUSH2 0x4268 JUMPI DUP2 PUSH1 0x20 ADD PUSH1 0x1 DUP3 MUL DUP1 CALLDATASIZE DUP4 CALLDATACOPY DUP1 DUP3 ADD SWAP2 POP POP SWAP1 POP JUMPDEST POP DUP6 PUSH1 0x0 ADD DUP2 SWAP1 MSTORE POP PUSH1 0x0 JUMPDEST DUP2 PUSH8 0xFFFFFFFFFFFFFFFF AND DUP2 PUSH8 0xFFFFFFFFFFFFFFFF AND LT ISZERO PUSH2 0x4326 JUMPI DUP7 DUP2 DUP10 PUSH2 0x429D SWAP2 SWAP1 PUSH2 0x5B9C JUMP JUMPDEST PUSH8 0xFFFFFFFFFFFFFFFF AND DUP2 MLOAD DUP2 LT PUSH2 0x42B8 JUMPI PUSH2 0x42B7 PUSH2 0x5F70 JUMP JUMPDEST JUMPDEST PUSH1 0x20 ADD ADD MLOAD PUSH1 0xF8 SHR PUSH1 0xF8 SHL DUP7 PUSH1 0x0 ADD MLOAD DUP3 PUSH8 0xFFFFFFFFFFFFFFFF AND DUP2 MLOAD DUP2 LT PUSH2 0x42E4 JUMPI PUSH2 0x42E3 PUSH2 0x5F70 JUMP JUMPDEST JUMPDEST PUSH1 0x20 ADD ADD SWAP1 PUSH31 0xFFFFFFFFFFFFFFFFFFFFFFFFFFFFFFFFFFFFFFFFFFFFFFFFFFFFFFFFFFFFFF NOT AND SWAP1 DUP2 PUSH1 0x0 BYTE SWAP1 MSTORE8 POP DUP1 DUP1 PUSH2 0x431E SWAP1 PUSH2 0x5E83 JUMP JUMPDEST SWAP2 POP POP PUSH2 0x4274 JUMP JUMPDEST POP DUP1 DUP8 PUSH2 0x4333 SWAP2 SWAP1 PUSH2 0x5B9C JUMP JUMPDEST SWAP7 POP PUSH1 0x1 DUP8 SWAP4 POP SWAP4 POP POP POP JUMPDEST SWAP4 POP SWAP4 SWAP2 POP POP JUMP JUMPDEST PUSH1 0x0 DUP1 PUSH1 0x0 DUP1 PUSH2 0x4357 DUP8 DUP8 PUSH2 0x5091 JUMP JUMPDEST DUP1 SWAP4 POP DUP2 SWAP10 POP DUP3 SWAP5 POP POP POP POP DUP2 PUSH2 0x4376 JUMPI PUSH1 0x0 DUP8 SWAP4 POP SWAP4 POP POP POP PUSH2 0x43C1 JUMP JUMPDEST PUSH1 0x0 DUP2 PUSH8 0xFFFFFFFFFFFFFFFF AND EQ ISZERO PUSH2 0x4397 JUMPI PUSH1 0x0 DUP8 SWAP4 POP SWAP4 POP POP POP PUSH2 0x43C1 JUMP JUMPDEST DUP1 DUP6 PUSH1 0x20 ADD SWAP1 PUSH8 0xFFFFFFFFFFFFFFFF AND SWAP1 DUP2 PUSH8 0xFFFFFFFFFFFFFFFF AND DUP2 MSTORE POP POP PUSH1 0x1 DUP8 SWAP4 POP SWAP4 POP POP POP JUMPDEST SWAP4 POP SWAP4 SWAP2 POP POP JUMP JUMPDEST PUSH1 0x0 DUP1 PUSH1 0x0 DUP1 PUSH2 0x43D9 DUP8 DUP8 PUSH2 0x5075 JUMP JUMPDEST DUP1 SWAP4 POP DUP2 SWAP10 POP DUP3 SWAP5 POP POP POP POP DUP2 PUSH2 0x43F8 JUMPI PUSH1 0x0 DUP8 SWAP4 POP SWAP4 POP POP POP PUSH2 0x4546 JUMP JUMPDEST PUSH1 0x0 DUP2 PUSH8 0xFFFFFFFFFFFFFFFF AND EQ ISZERO PUSH2 0x4419 JUMPI PUSH1 0x0 DUP8 SWAP4 POP SWAP4 POP POP POP PUSH2 0x4546 JUMP JUMPDEST DUP1 PUSH8 0xFFFFFFFFFFFFFFFF AND PUSH8 0xFFFFFFFFFFFFFFFF DUP2 GT ISZERO PUSH2 0x443D JUMPI PUSH2 0x443C PUSH2 0x5F9F JUMP JUMPDEST JUMPDEST PUSH1 0x40 MLOAD SWAP1 DUP1 DUP3 MSTORE DUP1 PUSH1 0x1F ADD PUSH1 0x1F NOT AND PUSH1 0x20 ADD DUP3 ADD PUSH1 0x40 MSTORE DUP1 ISZERO PUSH2 0x446F JUMPI DUP2 PUSH1 0x20 ADD PUSH1 0x1 DUP3 MUL DUP1 CALLDATASIZE DUP4 CALLDATACOPY DUP1 DUP3 ADD SWAP2 POP POP SWAP1 POP JUMPDEST POP DUP6 PUSH1 0x40 ADD DUP2 SWAP1 MSTORE POP PUSH1 0x0 JUMPDEST DUP2 PUSH8 0xFFFFFFFFFFFFFFFF AND DUP2 PUSH8 0xFFFFFFFFFFFFFFFF AND LT ISZERO PUSH2 0x452D JUMPI DUP7 DUP2 DUP10 PUSH2 0x44A4 SWAP2 SWAP1 PUSH2 0x5B9C JUMP JUMPDEST PUSH8 0xFFFFFFFFFFFFFFFF AND DUP2 MLOAD DUP2 LT PUSH2 0x44BF JUMPI PUSH2 0x44BE PUSH2 0x5F70 JUMP JUMPDEST JUMPDEST PUSH1 0x20 ADD ADD MLOAD PUSH1 0xF8 SHR PUSH1 0xF8 SHL DUP7 PUSH1 0x40 ADD MLOAD DUP3 PUSH8 0xFFFFFFFFFFFFFFFF AND DUP2 MLOAD DUP2 LT PUSH2 0x44EB JUMPI PUSH2 0x44EA PUSH2 0x5F70 JUMP JUMPDEST JUMPDEST PUSH1 0x20 ADD ADD SWAP1 PUSH31 0xFFFFFFFFFFFFFFFFFFFFFFFFFFFFFFFFFFFFFFFFFFFFFFFFFFFFFFFFFFFFFF NOT AND SWAP1 DUP2 PUSH1 0x0 BYTE SWAP1 MSTORE8 POP DUP1 DUP1 PUSH2 0x4525 SWAP1 PUSH2 0x5E83 JUMP JUMPDEST SWAP2 POP POP PUSH2 0x447B JUMP JUMPDEST POP DUP1 DUP8 PUSH2 0x453A SWAP2 SWAP1 PUSH2 0x5B9C JUMP JUMPDEST SWAP7 POP PUSH1 0x1 DUP8 SWAP4 POP SWAP4 POP POP POP JUMPDEST SWAP4 POP SWAP4 SWAP2 POP POP JUMP JUMPDEST PUSH1 0x0 DUP1 PUSH1 0x0 DUP1 PUSH2 0x455E DUP8 DUP8 PUSH2 0x5091 JUMP JUMPDEST DUP1 SWAP4 POP DUP2 SWAP10 POP DUP3 SWAP5 POP POP POP POP DUP2 PUSH2 0x457D JUMPI PUSH1 0x0 DUP8 SWAP4 POP SWAP4 POP POP POP PUSH2 0x45C8 JUMP JUMPDEST PUSH1 0x0 DUP2 PUSH8 0xFFFFFFFFFFFFFFFF AND EQ ISZERO PUSH2 0x459E JUMPI PUSH1 0x0 DUP8 SWAP4 POP SWAP4 POP POP POP PUSH2 0x45C8 JUMP JUMPDEST DUP1 DUP6 PUSH1 0x0 ADD SWAP1 PUSH8 0xFFFFFFFFFFFFFFFF AND SWAP1 DUP2 PUSH8 0xFFFFFFFFFFFFFFFF AND DUP2 MSTORE POP POP PUSH1 0x1 DUP8 SWAP4 POP SWAP4 POP POP POP JUMPDEST SWAP4 POP SWAP4 SWAP2 POP POP JUMP JUMPDEST PUSH1 0x0 DUP1 PUSH1 0x0 DUP1 PUSH2 0x45E0 DUP8 DUP8 PUSH2 0x5091 JUMP JUMPDEST DUP1 SWAP4 POP DUP2 SWAP10 POP DUP3 SWAP5 POP POP POP POP DUP2 PUSH2 0x45FF JUMPI PUSH1 0x0 DUP8 SWAP4 POP SWAP4 POP POP POP PUSH2 0x464A JUMP JUMPDEST PUSH1 0x0 DUP2 PUSH8 0xFFFFFFFFFFFFFFFF AND EQ ISZERO PUSH2 0x4620 JUMPI PUSH1 0x0 DUP8 SWAP4 POP SWAP4 POP POP POP PUSH2 0x464A JUMP JUMPDEST DUP1 DUP6 PUSH1 0x20 ADD SWAP1 PUSH8 0xFFFFFFFFFFFFFFFF AND SWAP1 DUP2 PUSH8 0xFFFFFFFFFFFFFFFF AND DUP2 MSTORE POP POP PUSH1 0x1 DUP8 SWAP4 POP SWAP4 POP POP POP JUMPDEST SWAP4 POP SWAP4 SWAP2 POP POP JUMP JUMPDEST PUSH1 0x0 DUP1 PUSH1 0x0 DUP1 PUSH2 0x4662 DUP8 DUP8 PUSH2 0x5075 JUMP JUMPDEST DUP1 SWAP4 POP DUP2 SWAP10 POP DUP3 SWAP5 POP POP POP POP DUP2 PUSH2 0x4681 JUMPI PUSH1 0x0 DUP8 SWAP4 POP SWAP4 POP POP POP PUSH2 0x47CF JUMP JUMPDEST PUSH1 0x0 DUP2 PUSH8 0xFFFFFFFFFFFFFFFF AND EQ ISZERO PUSH2 0x46A2 JUMPI PUSH1 0x0 DUP8 SWAP4 POP SWAP4 POP POP POP PUSH2 0x47CF JUMP JUMPDEST DUP1 PUSH8 0xFFFFFFFFFFFFFFFF AND PUSH8 0xFFFFFFFFFFFFFFFF DUP2 GT ISZERO PUSH2 0x46C6 JUMPI PUSH2 0x46C5 PUSH2 0x5F9F JUMP JUMPDEST JUMPDEST PUSH1 0x40 MLOAD SWAP1 DUP1 DUP3 MSTORE DUP1 PUSH1 0x1F ADD PUSH1 0x1F NOT AND PUSH1 0x20 ADD DUP3 ADD PUSH1 0x40 MSTORE DUP1 ISZERO PUSH2 0x46F8 JUMPI DUP2 PUSH1 0x20 ADD PUSH1 0x1 DUP3 MUL DUP1 CALLDATASIZE DUP4 CALLDATACOPY DUP1 DUP3 ADD SWAP2 POP POP SWAP1 POP JUMPDEST POP DUP6 PUSH1 0x40 ADD DUP2 SWAP1 MSTORE POP PUSH1 0x0 JUMPDEST DUP2 PUSH8 0xFFFFFFFFFFFFFFFF AND DUP2 PUSH8 0xFFFFFFFFFFFFFFFF AND LT ISZERO PUSH2 0x47B6 JUMPI DUP7 DUP2 DUP10 PUSH2 0x472D SWAP2 SWAP1 PUSH2 0x5B9C JUMP JUMPDEST PUSH8 0xFFFFFFFFFFFFFFFF AND DUP2 MLOAD DUP2 LT PUSH2 0x4748 JUMPI PUSH2 0x4747 PUSH2 0x5F70 JUMP JUMPDEST JUMPDEST PUSH1 0x20 ADD ADD MLOAD PUSH1 0xF8 SHR PUSH1 0xF8 SHL DUP7 PUSH1 0x40 ADD MLOAD DUP3 PUSH8 0xFFFFFFFFFFFFFFFF AND DUP2 MLOAD DUP2 LT PUSH2 0x4774 JUMPI PUSH2 0x4773 PUSH2 0x5F70 JUMP JUMPDEST JUMPDEST PUSH1 0x20 ADD ADD SWAP1 PUSH31 0xFFFFFFFFFFFFFFFFFFFFFFFFFFFFFFFFFFFFFFFFFFFFFFFFFFFFFFFFFFFFFF NOT AND SWAP1 DUP2 PUSH1 0x0 BYTE SWAP1 MSTORE8 POP DUP1 DUP1 PUSH2 0x47AE SWAP1 PUSH2 0x5E83 JUMP JUMPDEST SWAP2 POP POP PUSH2 0x4704 JUMP JUMPDEST POP DUP1 DUP8 PUSH2 0x47C3 SWAP2 SWAP1 PUSH2 0x5B9C JUMP JUMPDEST SWAP7 POP PUSH1 0x1 DUP8 SWAP4 POP SWAP4 POP POP POP JUMPDEST SWAP4 POP SWAP4 SWAP2 POP POP JUMP JUMPDEST PUSH1 0x0 DUP1 PUSH1 0x0 DUP1 PUSH2 0x47E7 DUP8 DUP8 PUSH2 0x5091 JUMP JUMPDEST DUP1 SWAP4 POP DUP2 SWAP10 POP DUP3 SWAP5 POP POP POP POP DUP2 PUSH2 0x4806 JUMPI PUSH1 0x0 DUP8 SWAP4 POP SWAP4 POP POP POP PUSH2 0x4851 JUMP JUMPDEST PUSH1 0x0 DUP2 PUSH8 0xFFFFFFFFFFFFFFFF AND EQ ISZERO PUSH2 0x4827 JUMPI PUSH1 0x0 DUP8 SWAP4 POP SWAP4 POP POP POP PUSH2 0x4851 JUMP JUMPDEST DUP1 DUP6 PUSH1 0x0 ADD SWAP1 PUSH8 0xFFFFFFFFFFFFFFFF AND SWAP1 DUP2 PUSH8 0xFFFFFFFFFFFFFFFF AND DUP2 MSTORE POP POP PUSH1 0x1 DUP8 SWAP4 POP SWAP4 POP POP POP JUMPDEST SWAP4 POP SWAP4 SWAP2 POP POP JUMP JUMPDEST PUSH1 0x0 DUP1 PUSH1 0x0 DUP1 PUSH2 0x4869 DUP8 DUP8 PUSH2 0x5091 JUMP JUMPDEST DUP1 SWAP4 POP DUP2 SWAP10 POP DUP3 SWAP5 POP POP POP POP DUP2 PUSH2 0x4888 JUMPI PUSH1 0x0 DUP8 SWAP4 POP SWAP4 POP POP POP PUSH2 0x48D3 JUMP JUMPDEST PUSH1 0x0 DUP2 PUSH8 0xFFFFFFFFFFFFFFFF AND EQ ISZERO PUSH2 0x48A9 JUMPI PUSH1 0x0 DUP8 SWAP4 POP SWAP4 POP POP POP PUSH2 0x48D3 JUMP JUMPDEST DUP1 DUP6 PUSH1 0x20 ADD SWAP1 PUSH8 0xFFFFFFFFFFFFFFFF AND SWAP1 DUP2 PUSH8 0xFFFFFFFFFFFFFFFF AND DUP2 MSTORE POP POP PUSH1 0x1 DUP8 SWAP4 POP SWAP4 POP POP POP JUMPDEST SWAP4 POP SWAP4 SWAP2 POP POP JUMP JUMPDEST PUSH1 0x0 DUP1 PUSH1 0x0 DUP1 PUSH2 0x48EB DUP8 DUP8 PUSH2 0x5091 JUMP JUMPDEST DUP1 SWAP4 POP DUP2 SWAP10 POP DUP3 SWAP5 POP POP POP POP DUP2 PUSH2 0x490A JUMPI PUSH1 0x0 DUP8 SWAP4 POP SWAP4 POP POP POP PUSH2 0x4955 JUMP JUMPDEST PUSH1 0x0 DUP2 PUSH8 0xFFFFFFFFFFFFFFFF AND EQ ISZERO PUSH2 0x492B JUMPI PUSH1 0x0 DUP8 SWAP4 POP SWAP4 POP POP POP PUSH2 0x4955 JUMP JUMPDEST DUP1 DUP6 PUSH1 0x40 ADD SWAP1 PUSH8 0xFFFFFFFFFFFFFFFF AND SWAP1 DUP2 PUSH8 0xFFFFFFFFFFFFFFFF AND DUP2 MSTORE POP POP PUSH1 0x1 DUP8 SWAP4 POP SWAP4 POP POP POP JUMPDEST SWAP4 POP SWAP4 SWAP2 POP POP JUMP JUMPDEST PUSH1 0x0 DUP1 PUSH1 0x0 DUP1 PUSH2 0x496D DUP8 DUP8 PUSH2 0x5075 JUMP JUMPDEST DUP1 SWAP4 POP DUP2 SWAP10 POP DUP3 SWAP5 POP POP POP POP DUP2 PUSH2 0x498C JUMPI PUSH1 0x0 DUP8 SWAP4 POP SWAP4 POP POP POP PUSH2 0x4ADA JUMP JUMPDEST PUSH1 0x0 DUP2 PUSH8 0xFFFFFFFFFFFFFFFF AND EQ ISZERO PUSH2 0x49AD JUMPI PUSH1 0x0 DUP8 SWAP4 POP SWAP4 POP POP POP PUSH2 0x4ADA JUMP JUMPDEST DUP1 PUSH8 0xFFFFFFFFFFFFFFFF AND PUSH8 0xFFFFFFFFFFFFFFFF DUP2 GT ISZERO PUSH2 0x49D1 JUMPI PUSH2 0x49D0 PUSH2 0x5F9F JUMP JUMPDEST JUMPDEST PUSH1 0x40 MLOAD SWAP1 DUP1 DUP3 MSTORE DUP1 PUSH1 0x1F ADD PUSH1 0x1F NOT AND PUSH1 0x20 ADD DUP3 ADD PUSH1 0x40 MSTORE DUP1 ISZERO PUSH2 0x4A03 JUMPI DUP2 PUSH1 0x20 ADD PUSH1 0x1 DUP3 MUL DUP1 CALLDATASIZE DUP4 CALLDATACOPY DUP1 DUP3 ADD SWAP2 POP POP SWAP1 POP JUMPDEST POP DUP6 PUSH1 0x60 ADD DUP2 SWAP1 MSTORE POP PUSH1 0x0 JUMPDEST DUP2 PUSH8 0xFFFFFFFFFFFFFFFF AND DUP2 PUSH8 0xFFFFFFFFFFFFFFFF AND LT ISZERO PUSH2 0x4AC1 JUMPI DUP7 DUP2 DUP10 PUSH2 0x4A38 SWAP2 SWAP1 PUSH2 0x5B9C JUMP JUMPDEST PUSH8 0xFFFFFFFFFFFFFFFF AND DUP2 MLOAD DUP2 LT PUSH2 0x4A53 JUMPI PUSH2 0x4A52 PUSH2 0x5F70 JUMP JUMPDEST JUMPDEST PUSH1 0x20 ADD ADD MLOAD PUSH1 0xF8 SHR PUSH1 0xF8 SHL DUP7 PUSH1 0x60 ADD MLOAD DUP3 PUSH8 0xFFFFFFFFFFFFFFFF AND DUP2 MLOAD DUP2 LT PUSH2 0x4A7F JUMPI PUSH2 0x4A7E PUSH2 0x5F70 JUMP JUMPDEST JUMPDEST PUSH1 0x20 ADD ADD SWAP1 PUSH31 0xFFFFFFFFFFFFFFFFFFFFFFFFFFFFFFFFFFFFFFFFFFFFFFFFFFFFFFFFFFFFFF NOT AND SWAP1 DUP2 PUSH1 0x0 BYTE SWAP1 MSTORE8 POP DUP1 DUP1 PUSH2 0x4AB9 SWAP1 PUSH2 0x5E83 JUMP JUMPDEST SWAP2 POP POP PUSH2 0x4A0F JUMP JUMPDEST POP DUP1 DUP8 PUSH2 0x4ACE SWAP2 SWAP1 PUSH2 0x5B9C JUMP JUMPDEST SWAP7 POP PUSH1 0x1 DUP8 SWAP4 POP SWAP4 POP POP POP JUMPDEST SWAP4 POP SWAP4 SWAP2 POP POP JUMP JUMPDEST PUSH1 0x0 DUP1 PUSH1 0x0 DUP1 PUSH2 0x4AF2 DUP8 DUP8 PUSH2 0x5091 JUMP JUMPDEST DUP1 SWAP4 POP DUP2 SWAP10 POP DUP3 SWAP5 POP POP POP POP DUP2 PUSH2 0x4B11 JUMPI PUSH1 0x0 DUP8 SWAP4 POP SWAP4 POP POP POP PUSH2 0x4B5C JUMP JUMPDEST PUSH1 0x0 DUP2 PUSH8 0xFFFFFFFFFFFFFFFF AND EQ ISZERO PUSH2 0x4B32 JUMPI PUSH1 0x0 DUP8 SWAP4 POP SWAP4 POP POP POP PUSH2 0x4B5C JUMP JUMPDEST DUP1 DUP6 PUSH1 0x0 ADD SWAP1 PUSH8 0xFFFFFFFFFFFFFFFF AND SWAP1 DUP2 PUSH8 0xFFFFFFFFFFFFFFFF AND DUP2 MSTORE POP POP PUSH1 0x1 DUP8 SWAP4 POP SWAP4 POP POP POP JUMPDEST SWAP4 POP SWAP4 SWAP2 POP POP JUMP JUMPDEST PUSH1 0x0 DUP1 PUSH1 0x0 DUP1 PUSH2 0x4B74 DUP8 DUP8 PUSH2 0x5075 JUMP JUMPDEST DUP1 SWAP4 POP DUP2 SWAP10 POP DUP3 SWAP5 POP POP POP POP DUP2 PUSH2 0x4B93 JUMPI PUSH1 0x0 DUP8 SWAP4 POP SWAP4 POP POP POP PUSH2 0x4CE1 JUMP JUMPDEST PUSH1 0x0 DUP2 PUSH8 0xFFFFFFFFFFFFFFFF AND EQ ISZERO PUSH2 0x4BB4 JUMPI PUSH1 0x0 DUP8 SWAP4 POP SWAP4 POP POP POP PUSH2 0x4CE1 JUMP JUMPDEST DUP1 PUSH8 0xFFFFFFFFFFFFFFFF AND PUSH8 0xFFFFFFFFFFFFFFFF DUP2 GT ISZERO PUSH2 0x4BD8 JUMPI PUSH2 0x4BD7 PUSH2 0x5F9F JUMP JUMPDEST JUMPDEST PUSH1 0x40 MLOAD SWAP1 DUP1 DUP3 MSTORE DUP1 PUSH1 0x1F ADD PUSH1 0x1F NOT AND PUSH1 0x20 ADD DUP3 ADD PUSH1 0x40 MSTORE DUP1 ISZERO PUSH2 0x4C0A JUMPI DUP2 PUSH1 0x20 ADD PUSH1 0x1 DUP3 MUL DUP1 CALLDATASIZE DUP4 CALLDATACOPY DUP1 DUP3 ADD SWAP2 POP POP SWAP1 POP JUMPDEST POP DUP6 PUSH1 0x20 ADD DUP2 SWAP1 MSTORE POP PUSH1 0x0 JUMPDEST DUP2 PUSH8 0xFFFFFFFFFFFFFFFF AND DUP2 PUSH8 0xFFFFFFFFFFFFFFFF AND LT ISZERO PUSH2 0x4CC8 JUMPI DUP7 DUP2 DUP10 PUSH2 0x4C3F SWAP2 SWAP1 PUSH2 0x5B9C JUMP JUMPDEST PUSH8 0xFFFFFFFFFFFFFFFF AND DUP2 MLOAD DUP2 LT PUSH2 0x4C5A JUMPI PUSH2 0x4C59 PUSH2 0x5F70 JUMP JUMPDEST JUMPDEST PUSH1 0x20 ADD ADD MLOAD PUSH1 0xF8 SHR PUSH1 0xF8 SHL DUP7 PUSH1 0x20 ADD MLOAD DUP3 PUSH8 0xFFFFFFFFFFFFFFFF AND DUP2 MLOAD DUP2 LT PUSH2 0x4C86 JUMPI PUSH2 0x4C85 PUSH2 0x5F70 JUMP JUMPDEST JUMPDEST PUSH1 0x20 ADD ADD SWAP1 PUSH31 0xFFFFFFFFFFFFFFFFFFFFFFFFFFFFFFFFFFFFFFFFFFFFFFFFFFFFFFFFFFFFFF NOT AND SWAP1 DUP2 PUSH1 0x0 BYTE SWAP1 MSTORE8 POP DUP1 DUP1 PUSH2 0x4CC0 SWAP1 PUSH2 0x5E83 JUMP JUMPDEST SWAP2 POP POP PUSH2 0x4C16 JUMP JUMPDEST POP DUP1 DUP8 PUSH2 0x4CD5 SWAP2 SWAP1 PUSH2 0x5B9C JUMP JUMPDEST SWAP7 POP PUSH1 0x1 DUP8 SWAP4 POP SWAP4 POP POP POP JUMPDEST SWAP4 POP SWAP4 SWAP2 POP POP JUMP JUMPDEST PUSH1 0x0 DUP1 PUSH1 0x0 DUP1 PUSH2 0x4CF9 DUP8 DUP8 PUSH2 0x5091 JUMP JUMPDEST DUP1 SWAP4 POP DUP2 SWAP10 POP DUP3 SWAP5 POP POP POP POP DUP2 PUSH2 0x4D18 JUMPI PUSH1 0x0 DUP8 SWAP4 POP SWAP4 POP POP POP PUSH2 0x4D63 JUMP JUMPDEST PUSH1 0x0 DUP2 PUSH8 0xFFFFFFFFFFFFFFFF AND EQ ISZERO PUSH2 0x4D39 JUMPI PUSH1 0x0 DUP8 SWAP4 POP SWAP4 POP POP POP PUSH2 0x4D63 JUMP JUMPDEST DUP1 DUP6 PUSH1 0x40 ADD SWAP1 PUSH8 0xFFFFFFFFFFFFFFFF AND SWAP1 DUP2 PUSH8 0xFFFFFFFFFFFFFFFF AND DUP2 MSTORE POP POP PUSH1 0x1 DUP8 SWAP4 POP SWAP4 POP POP POP JUMPDEST SWAP4 POP SWAP4 SWAP2 POP POP JUMP JUMPDEST PUSH1 0x0 DUP1 PUSH1 0x0 DUP1 PUSH2 0x4D7B DUP8 DUP8 PUSH2 0x5075 JUMP JUMPDEST DUP1 SWAP4 POP DUP2 SWAP10 POP DUP3 SWAP5 POP POP POP POP DUP2 PUSH2 0x4D9A JUMPI PUSH1 0x0 DUP8 SWAP4 POP SWAP4 POP POP POP PUSH2 0x4EE8 JUMP JUMPDEST PUSH1 0x0 DUP2 PUSH8 0xFFFFFFFFFFFFFFFF AND EQ ISZERO PUSH2 0x4DBB JUMPI PUSH1 0x0 DUP8 SWAP4 POP SWAP4 POP POP POP PUSH2 0x4EE8 JUMP JUMPDEST DUP1 PUSH8 0xFFFFFFFFFFFFFFFF AND PUSH8 0xFFFFFFFFFFFFFFFF DUP2 GT ISZERO PUSH2 0x4DDF JUMPI PUSH2 0x4DDE PUSH2 0x5F9F JUMP JUMPDEST JUMPDEST PUSH1 0x40 MLOAD SWAP1 DUP1 DUP3 MSTORE DUP1 PUSH1 0x1F ADD PUSH1 0x1F NOT AND PUSH1 0x20 ADD DUP3 ADD PUSH1 0x40 MSTORE DUP1 ISZERO PUSH2 0x4E11 JUMPI DUP2 PUSH1 0x20 ADD PUSH1 0x1 DUP3 MUL DUP1 CALLDATASIZE DUP4 CALLDATACOPY DUP1 DUP3 ADD SWAP2 POP POP SWAP1 POP JUMPDEST POP DUP6 PUSH1 0x60 ADD DUP2 SWAP1 MSTORE POP PUSH1 0x0 JUMPDEST DUP2 PUSH8 0xFFFFFFFFFFFFFFFF AND DUP2 PUSH8 0xFFFFFFFFFFFFFFFF AND LT ISZERO PUSH2 0x4ECF JUMPI DUP7 DUP2 DUP10 PUSH2 0x4E46 SWAP2 SWAP1 PUSH2 0x5B9C JUMP JUMPDEST PUSH8 0xFFFFFFFFFFFFFFFF AND DUP2 MLOAD DUP2 LT PUSH2 0x4E61 JUMPI PUSH2 0x4E60 PUSH2 0x5F70 JUMP JUMPDEST JUMPDEST PUSH1 0x20 ADD ADD MLOAD PUSH1 0xF8 SHR PUSH1 0xF8 SHL DUP7 PUSH1 0x60 ADD MLOAD DUP3 PUSH8 0xFFFFFFFFFFFFFFFF AND DUP2 MLOAD DUP2 LT PUSH2 0x4E8D JUMPI PUSH2 0x4E8C PUSH2 0x5F70 JUMP JUMPDEST JUMPDEST PUSH1 0x20 ADD ADD SWAP1 PUSH31 0xFFFFFFFFFFFFFFFFFFFFFFFFFFFFFFFFFFFFFFFFFFFFFFFFFFFFFFFFFFFFFF NOT AND SWAP1 DUP2 PUSH1 0x0 BYTE SWAP1 MSTORE8 POP DUP1 DUP1 PUSH2 0x4EC7 SWAP1 PUSH2 0x5E83 JUMP JUMPDEST SWAP2 POP POP PUSH2 0x4E1D JUMP JUMPDEST POP DUP1 DUP8 PUSH2 0x4EDC SWAP2 SWAP1 PUSH2 0x5B9C JUMP JUMPDEST SWAP7 POP PUSH1 0x1 DUP8 SWAP4 POP SWAP4 POP POP POP JUMPDEST SWAP4 POP SWAP4 SWAP2 POP POP JUMP JUMPDEST PUSH1 0x0 DUP1 PUSH1 0x0 DUP1 PUSH2 0x4F00 DUP8 DUP8 PUSH2 0x5075 JUMP JUMPDEST DUP1 SWAP4 POP DUP2 SWAP10 POP DUP3 SWAP5 POP POP POP POP DUP2 PUSH2 0x4F1F JUMPI PUSH1 0x0 DUP8 SWAP4 POP SWAP4 POP POP POP PUSH2 0x506D JUMP JUMPDEST PUSH1 0x0 DUP2 PUSH8 0xFFFFFFFFFFFFFFFF AND EQ ISZERO PUSH2 0x4F40 JUMPI PUSH1 0x0 DUP8 SWAP4 POP SWAP4 POP POP POP PUSH2 0x506D JUMP JUMPDEST DUP1 PUSH8 0xFFFFFFFFFFFFFFFF AND PUSH8 0xFFFFFFFFFFFFFFFF DUP2 GT ISZERO PUSH2 0x4F64 JUMPI PUSH2 0x4F63 PUSH2 0x5F9F JUMP JUMPDEST JUMPDEST PUSH1 0x40 MLOAD SWAP1 DUP1 DUP3 MSTORE DUP1 PUSH1 0x1F ADD PUSH1 0x1F NOT AND PUSH1 0x20 ADD DUP3 ADD PUSH1 0x40 MSTORE DUP1 ISZERO PUSH2 0x4F96 JUMPI DUP2 PUSH1 0x20 ADD PUSH1 0x1 DUP3 MUL DUP1 CALLDATASIZE DUP4 CALLDATACOPY DUP1 DUP3 ADD SWAP2 POP POP SWAP1 POP JUMPDEST POP DUP6 PUSH1 0x80 ADD DUP2 SWAP1 MSTORE POP PUSH1 0x0 JUMPDEST DUP2 PUSH8 0xFFFFFFFFFFFFFFFF AND DUP2 PUSH8 0xFFFFFFFFFFFFFFFF AND LT ISZERO PUSH2 0x5054 JUMPI DUP7 DUP2 DUP10 PUSH2 0x4FCB SWAP2 SWAP1 PUSH2 0x5B9C JUMP JUMPDEST PUSH8 0xFFFFFFFFFFFFFFFF AND DUP2 MLOAD DUP2 LT PUSH2 0x4FE6 JUMPI PUSH2 0x4FE5 PUSH2 0x5F70 JUMP JUMPDEST JUMPDEST PUSH1 0x20 ADD ADD MLOAD PUSH1 0xF8 SHR PUSH1 0xF8 SHL DUP7 PUSH1 0x80 ADD MLOAD DUP3 PUSH8 0xFFFFFFFFFFFFFFFF AND DUP2 MLOAD DUP2 LT PUSH2 0x5012 JUMPI PUSH2 0x5011 PUSH2 0x5F70 JUMP JUMPDEST JUMPDEST PUSH1 0x20 ADD ADD SWAP1 PUSH31 0xFFFFFFFFFFFFFFFFFFFFFFFFFFFFFFFFFFFFFFFFFFFFFFFFFFFFFFFFFFFFFF NOT AND SWAP1 DUP2 PUSH1 0x0 BYTE SWAP1 MSTORE8 POP DUP1 DUP1 PUSH2 0x504C SWAP1 PUSH2 0x5E83 JUMP JUMPDEST SWAP2 POP POP PUSH2 0x4FA2 JUMP JUMPDEST POP DUP1 DUP8 PUSH2 0x5061 SWAP2 SWAP1 PUSH2 0x5B9C JUMP JUMPDEST SWAP7 POP PUSH1 0x1 DUP8 SWAP4 POP SWAP4 POP POP POP JUMPDEST SWAP4 POP SWAP4 SWAP2 POP POP JUMP JUMPDEST PUSH1 0x0 DUP1 PUSH1 0x0 PUSH2 0x5084 DUP6 DUP6 PUSH2 0x50D7 JUMP JUMPDEST SWAP3 POP SWAP3 POP SWAP3 POP SWAP3 POP SWAP3 POP SWAP3 JUMP JUMPDEST PUSH1 0x0 DUP1 PUSH1 0x0 DUP1 PUSH1 0x0 DUP1 PUSH2 0x50A4 DUP9 DUP9 PUSH2 0x36AB JUMP JUMPDEST SWAP3 POP SWAP3 POP SWAP3 POP DUP3 PUSH2 0x50C2 JUMPI PUSH1 0x0 DUP3 PUSH1 0x0 SWAP6 POP SWAP6 POP SWAP6 POP POP POP POP PUSH2 0x50D0 JUMP JUMPDEST PUSH1 0x1 DUP3 DUP3 SWAP6 POP SWAP6 POP SWAP6 POP POP POP POP JUMPDEST SWAP3 POP SWAP3 POP SWAP3 JUMP JUMPDEST PUSH1 0x0 DUP1 PUSH1 0x0 DUP1 PUSH1 0x0 DUP1 PUSH2 0x50EA DUP9 DUP9 PUSH2 0x36AB JUMP JUMPDEST SWAP3 POP SWAP3 POP SWAP3 POP DUP3 PUSH2 0x5108 JUMPI PUSH1 0x0 DUP3 PUSH1 0x0 SWAP6 POP SWAP6 POP SWAP6 POP POP POP POP PUSH2 0x5178 JUMP JUMPDEST DUP2 PUSH8 0xFFFFFFFFFFFFFFFF AND DUP2 DUP4 ADD PUSH8 0xFFFFFFFFFFFFFFFF AND LT ISZERO PUSH2 0x5139 JUMPI PUSH1 0x0 DUP3 PUSH1 0x0 SWAP6 POP SWAP6 POP SWAP6 POP POP POP POP PUSH2 0x5178 JUMP JUMPDEST DUP7 MLOAD DUP3 DUP3 PUSH2 0x5147 SWAP2 SWAP1 PUSH2 0x5B9C JUMP JUMPDEST PUSH8 0xFFFFFFFFFFFFFFFF AND GT ISZERO PUSH2 0x516A JUMPI PUSH1 0x0 DUP3 PUSH1 0x0 SWAP6 POP SWAP6 POP SWAP6 POP POP POP POP PUSH2 0x5178 JUMP JUMPDEST PUSH1 0x1 DUP3 DUP3 SWAP6 POP SWAP6 POP SWAP6 POP POP POP POP JUMPDEST SWAP3 POP SWAP3 POP SWAP3 JUMP JUMPDEST POP DUP1 SLOAD PUSH1 0x0 DUP3 SSTORE SWAP1 PUSH1 0x0 MSTORE PUSH1 0x20 PUSH1 0x0 KECCAK256 SWAP1 DUP2 ADD SWAP1 PUSH2 0x519D SWAP2 SWAP1 PUSH2 0x5403 JUMP JUMPDEST POP JUMP JUMPDEST DUP3 DUP1 SLOAD PUSH2 0x51AC SWAP1 PUSH2 0x5DD7 JUMP JUMPDEST SWAP1 PUSH1 0x0 MSTORE PUSH1 0x20 PUSH1 0x0 KECCAK256 SWAP1 PUSH1 0x1F ADD PUSH1 0x20 SWAP1 DIV DUP2 ADD SWAP3 DUP3 PUSH2 0x51CE JUMPI PUSH1 0x0 DUP6 SSTORE PUSH2 0x5215 JUMP JUMPDEST DUP3 PUSH1 0x1F LT PUSH2 0x51E7 JUMPI DUP1 MLOAD PUSH1 0xFF NOT AND DUP4 DUP1 ADD OR DUP6 SSTORE PUSH2 0x5215 JUMP JUMPDEST DUP3 DUP1 ADD PUSH1 0x1 ADD DUP6 SSTORE DUP3 ISZERO PUSH2 0x5215 JUMPI SWAP2 DUP3 ADD JUMPDEST DUP3 DUP2 GT ISZERO PUSH2 0x5214 JUMPI DUP3 MLOAD DUP3 SSTORE SWAP2 PUSH1 0x20 ADD SWAP2 SWAP1 PUSH1 0x1 ADD SWAP1 PUSH2 0x51F9 JUMP JUMPDEST JUMPDEST POP SWAP1 POP PUSH2 0x5222 SWAP2 SWAP1 PUSH2 0x5403 JUMP JUMPDEST POP SWAP1 JUMP JUMPDEST PUSH1 0x40 MLOAD DUP1 PUSH1 0xA0 ADD PUSH1 0x40 MSTORE DUP1 PUSH1 0x60 DUP2 MSTORE PUSH1 0x20 ADD PUSH1 0x60 DUP2 MSTORE PUSH1 0x20 ADD PUSH1 0x0 PUSH8 0xFFFFFFFFFFFFFFFF AND DUP2 MSTORE PUSH1 0x20 ADD PUSH1 0x0 PUSH8 0xFFFFFFFFFFFFFFFF AND DUP2 MSTORE PUSH1 0x20 ADD PUSH1 0x60 DUP2 MSTORE POP SWAP1 JUMP JUMPDEST DUP3 DUP1 SLOAD PUSH2 0x5275 SWAP1 PUSH2 0x5DD7 JUMP JUMPDEST SWAP1 PUSH1 0x0 MSTORE PUSH1 0x20 PUSH1 0x0 KECCAK256 SWAP1 PUSH1 0x1F ADD PUSH1 0x20 SWAP1 DIV DUP2 ADD SWAP3 DUP3 PUSH2 0x5297 JUMPI PUSH1 0x0 DUP6 SSTORE PUSH2 0x52DE JUMP JUMPDEST DUP3 PUSH1 0x1F LT PUSH2 0x52B0 JUMPI DUP1 MLOAD PUSH1 0xFF NOT AND DUP4 DUP1 ADD OR DUP6 SSTORE PUSH2 0x52DE JUMP JUMPDEST DUP3 DUP1 ADD PUSH1 0x1 ADD DUP6 SSTORE DUP3 ISZERO PUSH2 0x52DE JUMPI SWAP2 DUP3 ADD JUMPDEST DUP3 DUP2 GT ISZERO PUSH2 0x52DD JUMPI DUP3 MLOAD DUP3 SSTORE SWAP2 PUSH1 0x20 ADD SWAP2 SWAP1 PUSH1 0x1 ADD SWAP1 PUSH2 0x52C2 JUMP JUMPDEST JUMPDEST POP SWAP1 POP PUSH2 0x52EB SWAP2 SWAP1 PUSH2 0x5403 JUMP JUMPDEST POP SWAP1 JUMP JUMPDEST PUSH1 0x40 MLOAD DUP1 PUSH1 0x60 ADD PUSH1 0x40 MSTORE DUP1 PUSH1 0x60 DUP2 MSTORE PUSH1 0x20 ADD PUSH1 0x0 PUSH8 0xFFFFFFFFFFFFFFFF AND DUP2 MSTORE PUSH1 0x20 ADD PUSH1 0x60 DUP2 MSTORE POP SWAP1 JUMP JUMPDEST PUSH1 0x40 MLOAD DUP1 PUSH1 0x60 ADD PUSH1 0x40 MSTORE DUP1 PUSH1 0x60 DUP2 MSTORE PUSH1 0x20 ADD PUSH1 0x0 PUSH8 0xFFFFFFFFFFFFFFFF AND DUP2 MSTORE PUSH1 0x20 ADD PUSH1 0x60 DUP2 MSTORE POP SWAP1 JUMP JUMPDEST PUSH1 0x40 MLOAD DUP1 PUSH1 0x60 ADD PUSH1 0x40 MSTORE DUP1 PUSH1 0x0 PUSH8 0xFFFFFFFFFFFFFFFF AND DUP2 MSTORE PUSH1 0x20 ADD PUSH1 0x0 PUSH8 0xFFFFFFFFFFFFFFFF AND DUP2 MSTORE PUSH1 0x20 ADD PUSH1 0x60 DUP2 MSTORE POP SWAP1 JUMP JUMPDEST PUSH1 0x40 MLOAD DUP1 PUSH1 0x80 ADD PUSH1 0x40 MSTORE DUP1 PUSH1 0x0 PUSH8 0xFFFFFFFFFFFFFFFF AND DUP2 MSTORE PUSH1 0x20 ADD PUSH1 0x0 PUSH8 0xFFFFFFFFFFFFFFFF AND DUP2 MSTORE PUSH1 0x20 ADD PUSH1 0x0 PUSH8 0xFFFFFFFFFFFFFFFF AND DUP2 MSTORE PUSH1 0x20 ADD PUSH1 0x60 DUP2 MSTORE POP SWAP1 JUMP JUMPDEST PUSH1 0x40 MLOAD DUP1 PUSH1 0xA0 ADD PUSH1 0x40 MSTORE DUP1 PUSH1 0x0 PUSH8 0xFFFFFFFFFFFFFFFF AND DUP2 MSTORE PUSH1 0x20 ADD PUSH1 0x60 DUP2 MSTORE PUSH1 0x20 ADD PUSH1 0x0 PUSH8 0xFFFFFFFFFFFFFFFF AND DUP2 MSTORE PUSH1 0x20 ADD PUSH1 0x60 DUP2 MSTORE PUSH1 0x20 ADD PUSH1 0x60 DUP2 MSTORE POP SWAP1 JUMP JUMPDEST JUMPDEST DUP1 DUP3 GT ISZERO PUSH2 0x541C JUMPI PUSH1 0x0 DUP2 PUSH1 0x0 SWAP1 SSTORE POP PUSH1 0x1 ADD PUSH2 0x5404 JUMP JUMPDEST POP SWAP1 JUMP JUMPDEST PUSH1 0x0 PUSH2 0x5433 PUSH2 0x542E DUP5 PUSH2 0x5ADD JUMP JUMPDEST PUSH2 0x5AB8 JUMP JUMPDEST SWAP1 POP DUP3 DUP2 MSTORE PUSH1 0x20 DUP2 ADD DUP5 DUP5 DUP5 ADD GT ISZERO PUSH2 0x544F JUMPI PUSH2 0x544E PUSH2 0x5FDD JUMP JUMPDEST JUMPDEST PUSH2 0x545A DUP5 DUP3 DUP6 PUSH2 0x5D6B JUMP JUMPDEST POP SWAP4 SWAP3 POP POP POP JUMP JUMPDEST PUSH1 0x0 DUP2 CALLDATALOAD SWAP1 POP PUSH2 0x5471 DUP2 PUSH2 0x638E JUMP JUMPDEST SWAP3 SWAP2 POP POP JUMP JUMPDEST PUSH1 0x0 DUP3 PUSH1 0x1F DUP4 ADD SLT PUSH2 0x548C JUMPI PUSH2 0x548B PUSH2 0x5FCE JUMP JUMPDEST JUMPDEST DUP2 CALLDATALOAD PUSH2 0x549C DUP5 DUP3 PUSH1 0x20 DUP7 ADD PUSH2 0x5420 JUMP JUMPDEST SWAP2 POP POP SWAP3 SWAP2 POP POP JUMP JUMPDEST PUSH1 0x0 DUP2 CALLDATALOAD SWAP1 POP PUSH2 0x54B4 DUP2 PUSH2 0x63A5 JUMP JUMPDEST SWAP3 SWAP2 POP POP JUMP JUMPDEST PUSH1 0x0 PUSH1 0x60 DUP3 DUP5 SUB SLT ISZERO PUSH2 0x54D0 JUMPI PUSH2 0x54CF PUSH2 0x5FD3 JUMP JUMPDEST JUMPDEST PUSH2 0x54DA PUSH1 0x60 PUSH2 0x5AB8 JUMP JUMPDEST SWAP1 POP PUSH1 0x0 PUSH2 0x54EA DUP5 DUP3 DUP6 ADD PUSH2 0x554F JUMP JUMPDEST PUSH1 0x0 DUP4 ADD MSTORE POP PUSH1 0x20 PUSH2 0x54FE DUP5 DUP3 DUP6 ADD PUSH2 0x54A5 JUMP JUMPDEST PUSH1 0x20 DUP4 ADD MSTORE POP PUSH1 0x40 DUP3 ADD CALLDATALOAD PUSH8 0xFFFFFFFFFFFFFFFF DUP2 GT ISZERO PUSH2 0x5522 JUMPI PUSH2 0x5521 PUSH2 0x5FD8 JUMP JUMPDEST JUMPDEST PUSH2 0x552E DUP5 DUP3 DUP6 ADD PUSH2 0x5477 JUMP JUMPDEST PUSH1 0x40 DUP4 ADD MSTORE POP SWAP3 SWAP2 POP POP JUMP JUMPDEST PUSH1 0x0 DUP2 CALLDATALOAD SWAP1 POP PUSH2 0x5549 DUP2 PUSH2 0x63B5 JUMP JUMPDEST SWAP3 SWAP2 POP POP JUMP JUMPDEST PUSH1 0x0 DUP2 CALLDATALOAD SWAP1 POP PUSH2 0x555E DUP2 PUSH2 0x63CC JUMP JUMPDEST SWAP3 SWAP2 POP POP JUMP JUMPDEST PUSH1 0x0 PUSH1 0x20 DUP3 DUP5 SUB SLT ISZERO PUSH2 0x557A JUMPI PUSH2 0x5579 PUSH2 0x5FE7 JUMP JUMPDEST JUMPDEST PUSH1 0x0 PUSH2 0x5588 DUP5 DUP3 DUP6 ADD PUSH2 0x5462 JUMP JUMPDEST SWAP2 POP POP SWAP3 SWAP2 POP POP JUMP JUMPDEST PUSH1 0x0 PUSH1 0x20 DUP3 DUP5 SUB SLT ISZERO PUSH2 0x55A7 JUMPI PUSH2 0x55A6 PUSH2 0x5FE7 JUMP JUMPDEST JUMPDEST PUSH1 0x0 DUP3 ADD CALLDATALOAD PUSH8 0xFFFFFFFFFFFFFFFF DUP2 GT ISZERO PUSH2 0x55C5 JUMPI PUSH2 0x55C4 PUSH2 0x5FE2 JUMP JUMPDEST JUMPDEST PUSH2 0x55D1 DUP5 DUP3 DUP6 ADD PUSH2 0x54BA JUMP JUMPDEST SWAP2 POP POP SWAP3 SWAP2 POP POP JUMP JUMPDEST PUSH1 0x0 PUSH1 0x20 DUP3 DUP5 SUB SLT ISZERO PUSH2 0x55F0 JUMPI PUSH2 0x55EF PUSH2 0x5FE7 JUMP JUMPDEST JUMPDEST PUSH1 0x0 PUSH2 0x55FE DUP5 DUP3 DUP6 ADD PUSH2 0x553A JUMP JUMPDEST SWAP2 POP POP SWAP3 SWAP2 POP POP JUMP JUMPDEST PUSH2 0x5610 DUP2 PUSH2 0x5D0F JUMP JUMPDEST DUP3 MSTORE POP POP JUMP JUMPDEST PUSH2 0x561F DUP2 PUSH2 0x5D21 JUMP JUMPDEST DUP3 MSTORE POP POP JUMP JUMPDEST PUSH1 0x0 PUSH2 0x5630 DUP3 PUSH2 0x5B0E JUMP JUMPDEST PUSH2 0x563A DUP2 DUP6 PUSH2 0x5B19 JUMP JUMPDEST SWAP4 POP PUSH2 0x564A DUP2 DUP6 PUSH1 0x20 DUP7 ADD PUSH2 0x5D7A JUMP JUMPDEST PUSH2 0x5653 DUP2 PUSH2 0x5FEC JUMP JUMPDEST DUP5 ADD SWAP2 POP POP SWAP3 SWAP2 POP POP JUMP JUMPDEST PUSH1 0x0 PUSH2 0x5669 DUP3 PUSH2 0x5B0E JUMP JUMPDEST PUSH2 0x5673 DUP2 DUP6 PUSH2 0x5B2A JUMP JUMPDEST SWAP4 POP PUSH2 0x5683 DUP2 DUP6 PUSH1 0x20 DUP7 ADD PUSH2 0x5D7A JUMP JUMPDEST DUP1 DUP5 ADD SWAP2 POP POP SWAP3 SWAP2 POP POP JUMP JUMPDEST PUSH1 0x0 PUSH2 0x569C PUSH1 0x2A DUP4 PUSH2 0x5B35 JUMP JUMPDEST SWAP2 POP PUSH2 0x56A7 DUP3 PUSH2 0x5FFD JUMP JUMPDEST PUSH1 0x40 DUP3 ADD SWAP1 POP SWAP2 SWAP1 POP JUMP JUMPDEST PUSH1 0x0 PUSH2 0x56BF PUSH1 0x26 DUP4 PUSH2 0x5B35 JUMP JUMPDEST SWAP2 POP PUSH2 0x56CA DUP3 PUSH2 0x604C JUMP JUMPDEST PUSH1 0x40 DUP3 ADD SWAP1 POP SWAP2 SWAP1 POP JUMP JUMPDEST PUSH1 0x0 PUSH2 0x56E2 PUSH1 0x2C DUP4 PUSH2 0x5B35 JUMP JUMPDEST SWAP2 POP PUSH2 0x56ED DUP3 PUSH2 0x609B JUMP JUMPDEST PUSH1 0x40 DUP3 ADD SWAP1 POP SWAP2 SWAP1 POP JUMP JUMPDEST PUSH1 0x0 PUSH2 0x5705 PUSH1 0x2C DUP4 PUSH2 0x5B35 JUMP JUMPDEST SWAP2 POP PUSH2 0x5710 DUP3 PUSH2 0x60EA JUMP JUMPDEST PUSH1 0x40 DUP3 ADD SWAP1 POP SWAP2 SWAP1 POP JUMP JUMPDEST PUSH1 0x0 PUSH2 0x5728 PUSH1 0x16 DUP4 PUSH2 0x5B35 JUMP JUMPDEST SWAP2 POP PUSH2 0x5733 DUP3 PUSH2 0x6139 JUMP JUMPDEST PUSH1 0x20 DUP3 ADD SWAP1 POP SWAP2 SWAP1 POP JUMP JUMPDEST PUSH1 0x0 PUSH2 0x574B PUSH1 0x31 DUP4 PUSH2 0x5B35 JUMP JUMPDEST SWAP2 POP PUSH2 0x5756 DUP3 PUSH2 0x6162 JUMP JUMPDEST PUSH1 0x40 DUP3 ADD SWAP1 POP SWAP2 SWAP1 POP JUMP JUMPDEST PUSH1 0x0 PUSH2 0x576E PUSH1 0x2C DUP4 PUSH2 0x5B35 JUMP JUMPDEST SWAP2 POP PUSH2 0x5779 DUP3 PUSH2 0x61B1 JUMP JUMPDEST PUSH1 0x40 DUP3 ADD SWAP1 POP SWAP2 SWAP1 POP JUMP JUMPDEST PUSH1 0x0 PUSH2 0x5791 PUSH1 0x20 DUP4 PUSH2 0x5B35 JUMP JUMPDEST SWAP2 POP PUSH2 0x579C DUP3 PUSH2 0x6200 JUMP JUMPDEST PUSH1 0x20 DUP3 ADD SWAP1 POP SWAP2 SWAP1 POP JUMP JUMPDEST PUSH1 0x0 PUSH2 0x57B4 PUSH1 0x24 DUP4 PUSH2 0x5B35 JUMP JUMPDEST SWAP2 POP PUSH2 0x57BF DUP3 PUSH2 0x6229 JUMP JUMPDEST PUSH1 0x40 DUP3 ADD SWAP1 POP SWAP2 SWAP1 POP JUMP JUMPDEST PUSH1 0x0 PUSH2 0x57D7 PUSH1 0x28 DUP4 PUSH2 0x5B35 JUMP JUMPDEST SWAP2 POP PUSH2 0x57E2 DUP3 PUSH2 0x6278 JUMP JUMPDEST PUSH1 0x40 DUP3 ADD SWAP1 POP SWAP2 SWAP1 POP JUMP JUMPDEST PUSH1 0x0 PUSH2 0x57FA PUSH1 0x2A DUP4 PUSH2 0x5B35 JUMP JUMPDEST SWAP2 POP PUSH2 0x5805 DUP3 PUSH2 0x62C7 JUMP JUMPDEST PUSH1 0x40 DUP3 ADD SWAP1 POP SWAP2 SWAP1 POP JUMP JUMPDEST PUSH1 0x0 PUSH2 0x581D PUSH1 0x14 DUP4 PUSH2 0x5B35 JUMP JUMPDEST SWAP2 POP PUSH2 0x5828 DUP3 PUSH2 0x6316 JUMP JUMPDEST PUSH1 0x20 DUP3 ADD SWAP1 POP SWAP2 SWAP1 POP JUMP JUMPDEST PUSH1 0x0 PUSH2 0x5840 PUSH1 0x2E DUP4 PUSH2 0x5B35 JUMP JUMPDEST SWAP2 POP PUSH2 0x584B DUP3 PUSH2 0x633F JUMP JUMPDEST PUSH1 0x40 DUP3 ADD SWAP1 POP SWAP2 SWAP1 POP JUMP JUMPDEST PUSH2 0x585F DUP2 PUSH2 0x5D4D JUMP JUMPDEST DUP3 MSTORE POP POP JUMP JUMPDEST PUSH1 0x0 PUSH2 0x5871 DUP3 DUP5 PUSH2 0x565E JUMP JUMPDEST SWAP2 POP DUP2 SWAP1 POP SWAP3 SWAP2 POP POP JUMP JUMPDEST PUSH1 0x0 PUSH1 0x20 DUP3 ADD SWAP1 POP PUSH2 0x5891 PUSH1 0x0 DUP4 ADD DUP5 PUSH2 0x5607 JUMP JUMPDEST SWAP3 SWAP2 POP POP JUMP JUMPDEST PUSH1 0x0 PUSH1 0x20 DUP3 ADD SWAP1 POP PUSH2 0x58AC PUSH1 0x0 DUP4 ADD DUP5 PUSH2 0x5616 JUMP JUMPDEST SWAP3 SWAP2 POP POP JUMP JUMPDEST PUSH1 0x0 PUSH1 0x20 DUP3 ADD SWAP1 POP DUP2 DUP2 SUB PUSH1 0x0 DUP4 ADD MSTORE PUSH2 0x58CC DUP2 DUP5 PUSH2 0x5625 JUMP JUMPDEST SWAP1 POP SWAP3 SWAP2 POP POP JUMP JUMPDEST PUSH1 0x0 PUSH1 0x20 DUP3 ADD SWAP1 POP DUP2 DUP2 SUB PUSH1 0x0 DUP4 ADD MSTORE PUSH2 0x58ED DUP2 PUSH2 0x568F JUMP JUMPDEST SWAP1 POP SWAP2 SWAP1 POP JUMP JUMPDEST PUSH1 0x0 PUSH1 0x20 DUP3 ADD SWAP1 POP DUP2 DUP2 SUB PUSH1 0x0 DUP4 ADD MSTORE PUSH2 0x590D DUP2 PUSH2 0x56B2 JUMP JUMPDEST SWAP1 POP SWAP2 SWAP1 POP JUMP JUMPDEST PUSH1 0x0 PUSH1 0x20 DUP3 ADD SWAP1 POP DUP2 DUP2 SUB PUSH1 0x0 DUP4 ADD MSTORE PUSH2 0x592D DUP2 PUSH2 0x56D5 JUMP JUMPDEST SWAP1 POP SWAP2 SWAP1 POP JUMP JUMPDEST PUSH1 0x0 PUSH1 0x20 DUP3 ADD SWAP1 POP DUP2 DUP2 SUB PUSH1 0x0 DUP4 ADD MSTORE PUSH2 0x594D DUP2 PUSH2 0x56F8 JUMP JUMPDEST SWAP1 POP SWAP2 SWAP1 POP JUMP JUMPDEST PUSH1 0x0 PUSH1 0x20 DUP3 ADD SWAP1 POP DUP2 DUP2 SUB PUSH1 0x0 DUP4 ADD MSTORE PUSH2 0x596D DUP2 PUSH2 0x571B JUMP JUMPDEST SWAP1 POP SWAP2 SWAP1 POP JUMP JUMPDEST PUSH1 0x0 PUSH1 0x20 DUP3 ADD SWAP1 POP DUP2 DUP2 SUB PUSH1 0x0 DUP4 ADD MSTORE PUSH2 0x598D DUP2 PUSH2 0x573E JUMP JUMPDEST SWAP1 POP SWAP2 SWAP1 POP JUMP JUMPDEST PUSH1 0x0 PUSH1 0x20 DUP3 ADD SWAP1 POP DUP2 DUP2 SUB PUSH1 0x0 DUP4 ADD MSTORE PUSH2 0x59AD DUP2 PUSH2 0x5761 JUMP JUMPDEST SWAP1 POP SWAP2 SWAP1 POP JUMP JUMPDEST PUSH1 0x0 PUSH1 0x20 DUP3 ADD SWAP1 POP DUP2 DUP2 SUB PUSH1 0x0 DUP4 ADD MSTORE PUSH2 0x59CD DUP2 PUSH2 0x5784 JUMP JUMPDEST SWAP1 POP SWAP2 SWAP1 POP JUMP JUMPDEST PUSH1 0x0 PUSH1 0x20 DUP3 ADD SWAP1 POP DUP2 DUP2 SUB PUSH1 0x0 DUP4 ADD MSTORE PUSH2 0x59ED DUP2 PUSH2 0x57A7 JUMP JUMPDEST SWAP1 POP SWAP2 SWAP1 POP JUMP JUMPDEST PUSH1 0x0 PUSH1 0x20 DUP3 ADD SWAP1 POP DUP2 DUP2 SUB PUSH1 0x0 DUP4 ADD MSTORE PUSH2 0x5A0D DUP2 PUSH2 0x57CA JUMP JUMPDEST SWAP1 POP SWAP2 SWAP1 POP JUMP JUMPDEST PUSH1 0x0 PUSH1 0x20 DUP3 ADD SWAP1 POP DUP2 DUP2 SUB PUSH1 0x0 DUP4 ADD MSTORE PUSH2 0x5A2D DUP2 PUSH2 0x57ED JUMP JUMPDEST SWAP1 POP SWAP2 SWAP1 POP JUMP JUMPDEST PUSH1 0x0 PUSH1 0x20 DUP3 ADD SWAP1 POP DUP2 DUP2 SUB PUSH1 0x0 DUP4 ADD MSTORE PUSH2 0x5A4D DUP2 PUSH2 0x5810 JUMP JUMPDEST SWAP1 POP SWAP2 SWAP1 POP JUMP JUMPDEST PUSH1 0x0 PUSH1 0x20 DUP3 ADD SWAP1 POP DUP2 DUP2 SUB PUSH1 0x0 DUP4 ADD MSTORE PUSH2 0x5A6D DUP2 PUSH2 0x5833 JUMP JUMPDEST SWAP1 POP SWAP2 SWAP1 POP JUMP JUMPDEST PUSH1 0x0 PUSH1 0x20 DUP3 ADD SWAP1 POP PUSH2 0x5A89 PUSH1 0x0 DUP4 ADD DUP5 PUSH2 0x5856 JUMP JUMPDEST SWAP3 SWAP2 POP POP JUMP JUMPDEST PUSH1 0x0 PUSH1 0x40 DUP3 ADD SWAP1 POP PUSH2 0x5AA4 PUSH1 0x0 DUP4 ADD DUP6 PUSH2 0x5856 JUMP JUMPDEST PUSH2 0x5AB1 PUSH1 0x20 DUP4 ADD DUP5 PUSH2 0x5856 JUMP JUMPDEST SWAP4 SWAP3 POP POP POP JUMP JUMPDEST PUSH1 0x0 PUSH2 0x5AC2 PUSH2 0x5AD3 JUMP JUMPDEST SWAP1 POP PUSH2 0x5ACE DUP3 DUP3 PUSH2 0x5E09 JUMP JUMPDEST SWAP2 SWAP1 POP JUMP JUMPDEST PUSH1 0x0 PUSH1 0x40 MLOAD SWAP1 POP SWAP1 JUMP JUMPDEST PUSH1 0x0 PUSH8 0xFFFFFFFFFFFFFFFF DUP3 GT ISZERO PUSH2 0x5AF8 JUMPI PUSH2 0x5AF7 PUSH2 0x5F9F JUMP JUMPDEST JUMPDEST PUSH2 0x5B01 DUP3 PUSH2 0x5FEC JUMP JUMPDEST SWAP1 POP PUSH1 0x20 DUP2 ADD SWAP1 POP SWAP2 SWAP1 POP JUMP JUMPDEST PUSH1 0x0 DUP2 MLOAD SWAP1 POP SWAP2 SWAP1 POP JUMP JUMPDEST PUSH1 0x0 DUP3 DUP3 MSTORE PUSH1 0x20 DUP3 ADD SWAP1 POP SWAP3 SWAP2 POP POP JUMP JUMPDEST PUSH1 0x0 DUP2 SWAP1 POP SWAP3 SWAP2 POP POP JUMP JUMPDEST PUSH1 0x0 DUP3 DUP3 MSTORE PUSH1 0x20 DUP3 ADD SWAP1 POP SWAP3 SWAP2 POP POP JUMP JUMPDEST PUSH1 0x0 PUSH2 0x5B51 DUP3 PUSH2 0x5D4D JUMP JUMPDEST SWAP2 POP PUSH2 0x5B5C DUP4 PUSH2 0x5D4D JUMP JUMPDEST SWAP3 POP DUP3 PUSH32 0xFFFFFFFFFFFFFFFFFFFFFFFFFFFFFFFFFFFFFFFFFFFFFFFFFFFFFFFFFFFFFFFF SUB DUP3 GT ISZERO PUSH2 0x5B91 JUMPI PUSH2 0x5B90 PUSH2 0x5EB4 JUMP JUMPDEST JUMPDEST DUP3 DUP3 ADD SWAP1 POP SWAP3 SWAP2 POP POP JUMP JUMPDEST PUSH1 0x0 PUSH2 0x5BA7 DUP3 PUSH2 0x5D57 JUMP JUMPDEST SWAP2 POP PUSH2 0x5BB2 DUP4 PUSH2 0x5D57 JUMP JUMPDEST SWAP3 POP DUP3 PUSH8 0xFFFFFFFFFFFFFFFF SUB DUP3 GT ISZERO PUSH2 0x5BCF JUMPI PUSH2 0x5BCE PUSH2 0x5EB4 JUMP JUMPDEST JUMPDEST DUP3 DUP3 ADD SWAP1 POP SWAP3 SWAP2 POP POP JUMP JUMPDEST PUSH1 0x0 PUSH2 0x5BE5 DUP3 PUSH2 0x5D4D JUMP JUMPDEST SWAP2 POP PUSH2 0x5BF0 DUP4 PUSH2 0x5D4D JUMP JUMPDEST SWAP3 POP DUP3 PUSH2 0x5C00 JUMPI PUSH2 0x5BFF PUSH2 0x5EE3 JUMP JUMPDEST JUMPDEST DUP3 DUP3 DIV SWAP1 POP SWAP3 SWAP2 POP POP JUMP JUMPDEST PUSH1 0x0 PUSH2 0x5C16 DUP3 PUSH2 0x5D4D JUMP JUMPDEST SWAP2 POP PUSH2 0x5C21 DUP4 PUSH2 0x5D4D JUMP JUMPDEST SWAP3 POP DUP2 PUSH32 0xFFFFFFFFFFFFFFFFFFFFFFFFFFFFFFFFFFFFFFFFFFFFFFFFFFFFFFFFFFFFFFFF DIV DUP4 GT DUP3 ISZERO ISZERO AND ISZERO PUSH2 0x5C5A JUMPI PUSH2 0x5C59 PUSH2 0x5EB4 JUMP JUMPDEST JUMPDEST DUP3 DUP3 MUL SWAP1 POP SWAP3 SWAP2 POP POP JUMP JUMPDEST PUSH1 0x0 PUSH2 0x5C70 DUP3 PUSH2 0x5D57 JUMP JUMPDEST SWAP2 POP PUSH2 0x5C7B DUP4 PUSH2 0x5D57 JUMP JUMPDEST SWAP3 POP DUP2 PUSH8 0xFFFFFFFFFFFFFFFF DIV DUP4 GT DUP3 ISZERO ISZERO AND ISZERO PUSH2 0x5C9C JUMPI PUSH2 0x5C9B PUSH2 0x5EB4 JUMP JUMPDEST JUMPDEST DUP3 DUP3 MUL SWAP1 POP SWAP3 SWAP2 POP POP JUMP JUMPDEST PUSH1 0x0 PUSH2 0x5CB2 DUP3 PUSH2 0x5D4D JUMP JUMPDEST SWAP2 POP PUSH2 0x5CBD DUP4 PUSH2 0x5D4D JUMP JUMPDEST SWAP3 POP DUP3 DUP3 LT ISZERO PUSH2 0x5CD0 JUMPI PUSH2 0x5CCF PUSH2 0x5EB4 JUMP JUMPDEST JUMPDEST DUP3 DUP3 SUB SWAP1 POP SWAP3 SWAP2 POP POP JUMP JUMPDEST PUSH1 0x0 PUSH2 0x5CE6 DUP3 PUSH2 0x5D57 JUMP JUMPDEST SWAP2 POP PUSH2 0x5CF1 DUP4 PUSH2 0x5D57 JUMP JUMPDEST SWAP3 POP DUP3 DUP3 LT ISZERO PUSH2 0x5D04 JUMPI PUSH2 0x5D03 PUSH2 0x5EB4 JUMP JUMPDEST JUMPDEST DUP3 DUP3 SUB SWAP1 POP SWAP3 SWAP2 POP POP JUMP JUMPDEST PUSH1 0x0 PUSH2 0x5D1A DUP3 PUSH2 0x5D2D JUMP JUMPDEST SWAP1 POP SWAP2 SWAP1 POP JUMP JUMPDEST PUSH1 0x0 DUP2 ISZERO ISZERO SWAP1 POP SWAP2 SWAP1 POP JUMP JUMPDEST PUSH1 0x0 PUSH20 0xFFFFFFFFFFFFFFFFFFFFFFFFFFFFFFFFFFFFFFFF DUP3 AND SWAP1 POP SWAP2 SWAP1 POP JUMP JUMPDEST PUSH1 0x0 DUP2 SWAP1 POP SWAP2 SWAP1 POP JUMP JUMPDEST PUSH1 0x0 PUSH8 0xFFFFFFFFFFFFFFFF DUP3 AND SWAP1 POP SWAP2 SWAP1 POP JUMP JUMPDEST DUP3 DUP2 DUP4 CALLDATACOPY PUSH1 0x0 DUP4 DUP4 ADD MSTORE POP POP POP JUMP JUMPDEST PUSH1 0x0 JUMPDEST DUP4 DUP2 LT ISZERO PUSH2 0x5D98 JUMPI DUP1 DUP3 ADD MLOAD DUP2 DUP5 ADD MSTORE PUSH1 0x20 DUP2 ADD SWAP1 POP PUSH2 0x5D7D JUMP JUMPDEST DUP4 DUP2 GT ISZERO PUSH2 0x5DA7 JUMPI PUSH1 0x0 DUP5 DUP5 ADD MSTORE JUMPDEST POP POP POP POP JUMP JUMPDEST PUSH1 0x0 PUSH2 0x5DB8 DUP3 PUSH2 0x5D4D JUMP JUMPDEST SWAP2 POP PUSH1 0x0 DUP3 EQ ISZERO PUSH2 0x5DCC JUMPI PUSH2 0x5DCB PUSH2 0x5EB4 JUMP JUMPDEST JUMPDEST PUSH1 0x1 DUP3 SUB SWAP1 POP SWAP2 SWAP1 POP JUMP JUMPDEST PUSH1 0x0 PUSH1 0x2 DUP3 DIV SWAP1 POP PUSH1 0x1 DUP3 AND DUP1 PUSH2 0x5DEF JUMPI PUSH1 0x7F DUP3 AND SWAP2 POP JUMPDEST PUSH1 0x20 DUP3 LT DUP2 EQ ISZERO PUSH2 0x5E03 JUMPI PUSH2 0x5E02 PUSH2 0x5F41 JUMP JUMPDEST JUMPDEST POP SWAP2 SWAP1 POP JUMP JUMPDEST PUSH2 0x5E12 DUP3 PUSH2 0x5FEC JUMP JUMPDEST DUP2 ADD DUP2 DUP2 LT PUSH8 0xFFFFFFFFFFFFFFFF DUP3 GT OR ISZERO PUSH2 0x5E31 JUMPI PUSH2 0x5E30 PUSH2 0x5F9F JUMP JUMPDEST JUMPDEST DUP1 PUSH1 0x40 MSTORE POP POP POP JUMP JUMPDEST PUSH1 0x0 PUSH2 0x5E45 DUP3 PUSH2 0x5D4D JUMP JUMPDEST SWAP2 POP PUSH32 0xFFFFFFFFFFFFFFFFFFFFFFFFFFFFFFFFFFFFFFFFFFFFFFFFFFFFFFFFFFFFFFFF DUP3 EQ ISZERO PUSH2 0x5E78 JUMPI PUSH2 0x5E77 PUSH2 0x5EB4 JUMP JUMPDEST JUMPDEST PUSH1 0x1 DUP3 ADD SWAP1 POP SWAP2 SWAP1 POP JUMP JUMPDEST PUSH1 0x0 PUSH2 0x5E8E DUP3 PUSH2 0x5D57 JUMP JUMPDEST SWAP2 POP PUSH8 0xFFFFFFFFFFFFFFFF DUP3 EQ ISZERO PUSH2 0x5EA9 JUMPI PUSH2 0x5EA8 PUSH2 0x5EB4 JUMP JUMPDEST JUMPDEST PUSH1 0x1 DUP3 ADD SWAP1 POP SWAP2 SWAP1 POP JUMP JUMPDEST PUSH32 0x4E487B7100000000000000000000000000000000000000000000000000000000 PUSH1 0x0 MSTORE PUSH1 0x11 PUSH1 0x4 MSTORE PUSH1 0x24 PUSH1 0x0 REVERT JUMPDEST PUSH32 0x4E487B7100000000000000000000000000000000000000000000000000000000 PUSH1 0x0 MSTORE PUSH1 0x12 PUSH1 0x4 MSTORE PUSH1 0x24 PUSH1 0x0 REVERT JUMPDEST PUSH32 0x4E487B7100000000000000000000000000000000000000000000000000000000 PUSH1 0x0 MSTORE PUSH1 0x21 PUSH1 0x4 MSTORE PUSH1 0x24 PUSH1 0x0 REVERT JUMPDEST PUSH32 0x4E487B7100000000000000000000000000000000000000000000000000000000 PUSH1 0x0 MSTORE PUSH1 0x22 PUSH1 0x4 MSTORE PUSH1 0x24 PUSH1 0x0 REVERT JUMPDEST PUSH32 0x4E487B7100000000000000000000000000000000000000000000000000000000 PUSH1 0x0 MSTORE PUSH1 0x32 PUSH1 0x4 MSTORE PUSH1 0x24 PUSH1 0x0 REVERT JUMPDEST PUSH32 0x4E487B7100000000000000000000000000000000000000000000000000000000 PUSH1 0x0 MSTORE PUSH1 0x41 PUSH1 0x4 MSTORE PUSH1 0x24 PUSH1 0x0 REVERT JUMPDEST PUSH1 0x0 DUP1 REVERT JUMPDEST PUSH1 0x0 DUP1 REVERT JUMPDEST PUSH1 0x0 DUP1 REVERT JUMPDEST PUSH1 0x0 DUP1 REVERT JUMPDEST PUSH1 0x0 DUP1 REVERT JUMPDEST PUSH1 0x0 DUP1 REVERT JUMPDEST PUSH1 0x0 PUSH1 0x1F NOT PUSH1 0x1F DUP4 ADD AND SWAP1 POP SWAP2 SWAP1 POP JUMP JUMPDEST PUSH32 0x546F6B656E735377617065645061796C6F616420646573657269616C697A6174 PUSH1 0x0 DUP3 ADD MSTORE PUSH32 0x696F6E206661696C656400000000000000000000000000000000000000000000 PUSH1 0x20 DUP3 ADD MSTORE POP JUMP JUMPDEST PUSH32 0x4F776E61626C653A206E6577206F776E657220697320746865207A65726F2061 PUSH1 0x0 DUP3 ADD MSTORE PUSH32 0x6464726573730000000000000000000000000000000000000000000000000000 PUSH1 0x20 DUP3 ADD MSTORE POP JUMP JUMPDEST PUSH32 0x4C697175696469747941646465645061796C6F616420646573657269616C697A PUSH1 0x0 DUP3 ADD MSTORE PUSH32 0x6174696F6E206661696C65640000000000000000000000000000000000000000 PUSH1 0x20 DUP3 ADD MSTORE POP JUMP JUMPDEST PUSH32 0x46756E647357697468647261776E5061796C6F616420646573657269616C697A PUSH1 0x0 DUP3 ADD MSTORE PUSH32 0x6174696F6E206661696C65640000000000000000000000000000000000000000 PUSH1 0x20 DUP3 ADD MSTORE POP JUMP JUMPDEST PUSH32 0x496E76616C6964206164647265737320666F726D617400000000000000000000 PUSH1 0x0 DUP3 ADD MSTORE POP JUMP JUMPDEST PUSH32 0x41737365742076616C7565206C657373207468616E207468726573686F6C6420 PUSH1 0x0 DUP3 ADD MSTORE PUSH32 0x666F7220636F6E747269627574696F6E21000000000000000000000000000000 PUSH1 0x20 DUP3 ADD MSTORE POP JUMP JUMPDEST PUSH32 0x46756E64734465706F73697465645061796C6F616420646573657269616C697A PUSH1 0x0 DUP3 ADD MSTORE PUSH32 0x6174696F6E206661696C65640000000000000000000000000000000000000000 PUSH1 0x20 DUP3 ADD MSTORE POP JUMP JUMPDEST PUSH32 0x4F776E61626C653A2063616C6C6572206973206E6F7420746865206F776E6572 PUSH1 0x0 DUP3 ADD MSTORE POP JUMP JUMPDEST PUSH32 0x53686172652073686F756C64206265206C657373207468616E20746F74616C53 PUSH1 0x0 DUP3 ADD MSTORE PUSH32 0x6861726500000000000000000000000000000000000000000000000000000000 PUSH1 0x20 DUP3 ADD MSTORE POP JUMP JUMPDEST PUSH32 0x414D4D437265617465645061796C6F616420646573657269616C697A6174696F PUSH1 0x0 DUP3 ADD MSTORE PUSH32 0x6E206661696C6564000000000000000000000000000000000000000000000000 PUSH1 0x20 DUP3 ADD MSTORE POP JUMP JUMPDEST PUSH32 0x4571756976616C656E742076616C7565206F6620746F6B656E73206E6F742070 PUSH1 0x0 DUP3 ADD MSTORE PUSH32 0x726F76696465642E2E2E00000000000000000000000000000000000000000000 PUSH1 0x20 DUP3 ADD MSTORE POP JUMP JUMPDEST PUSH32 0x4E6F206C697175696469747920696E20706F6F6C000000000000000000000000 PUSH1 0x0 DUP3 ADD MSTORE POP JUMP JUMPDEST PUSH32 0x4C697175696469747952656D6F7665645061796C6F616420646573657269616C PUSH1 0x0 DUP3 ADD MSTORE PUSH32 0x697A6174696F6E206661696C6564000000000000000000000000000000000000 PUSH1 0x20 DUP3 ADD MSTORE POP JUMP JUMPDEST PUSH2 0x6397 DUP2 PUSH2 0x5D0F JUMP JUMPDEST DUP2 EQ PUSH2 0x63A2 JUMPI PUSH1 0x0 DUP1 REVERT JUMPDEST POP JUMP JUMPDEST PUSH1 0x9 DUP2 LT PUSH2 0x63B2 JUMPI PUSH1 0x0 DUP1 REVERT JUMPDEST POP JUMP JUMPDEST PUSH2 0x63BE DUP2 PUSH2 0x5D4D JUMP JUMPDEST DUP2 EQ PUSH2 0x63C9 JUMPI PUSH1 0x0 DUP1 REVERT JUMPDEST POP JUMP JUMPDEST PUSH2 0x63D5 DUP2 PUSH2 0x5D57 JUMP JUMPDEST DUP2 EQ PUSH2 0x63E0 JUMPI PUSH1 0x0 DUP1 REVERT JUMPDEST POP JUMP INVALID LOG2 PUSH5 0x6970667358 0x22 SLT KECCAK256 MSTORE PUSH6 0xF5DE0692465C 0xC4 0xE6 0xBA 0xC6 ISZERO 0xD7 PUSH24 0x8992B5E75DCFF94CD4D545A925B3E7146D64736F6C634300 ADDMOD MOD STOP CALLER "
		},
		"gasEstimates": {
			"creation": {
				"codeDepositCost": "5125000",
				"executionCost": "infinite",
				"totalCost": "infinite"
			},
			"external": {
				"balance1(address)": "2859",
				"balance2(address)": "2838",
				"getSwapToken1Estimate(uint256)": "infinite",
				"getSwapToken2Estimate(uint256)": "infinite",
				"getTokensEstimateForShare(uint256)": "infinite",
				"isCreated()": "2516",
				"owner()": "2589",
				"renounceOwnership()": "30421",
				"reset()": "infinite",
				"shares(address)": "2881",
				"spool((uint64,uint8,bytes))": "infinite",
				"token1()": "infinite",
				"token2()": "infinite",
				"transferOwnership(address)": "30835"
			},
			"internal": {
				"clear()": "infinite",
				"on(struct DomainEvent memory)": "infinite",
				"onCreated(struct AMMCreatedPayload memory)": "infinite",
				"onFundsDeposited(struct FundsDepositedPayload memory)": "infinite",
				"onFundsWithdrawn(struct FundsWithdrawnPayload memory)": "infinite",
				"onLiquidityAdded(struct LiquidityAddedPayload memory)": "infinite",
				"onLiquidityRemoved(struct LiquidityRemovedPayload memory)": "infinite",
				"onTokensSwapped(struct TokensSwapedPayload memory)": "infinite"
			}
		},
		"methodIdentifiers": {
			"balance1(address)": "af62db3f",
			"balance2(address)": "0c1fc829",
			"getSwapToken1Estimate(uint256)": "450177c6",
			"getSwapToken2Estimate(uint256)": "d3817b4a",
			"getTokensEstimateForShare(uint256)": "93217888",
			"isCreated()": "86174396",
			"owner()": "8da5cb5b",
			"renounceOwnership()": "715018a6",
			"reset()": "d826f88f",
			"shares(address)": "ce7c2ac2",
			"spool((uint64,uint8,bytes))": "8fe8bb96",
			"token1()": "d21220a7",
			"token2()": "25be124e",
			"transferOwnership(address)": "f2fde38b"
		}
	},
	"abi": [
		{
			"anonymous": false,
			"inputs": [
				{
					"indexed": true,
					"internalType": "address",
					"name": "previousOwner",
					"type": "address"
				},
				{
					"indexed": true,
					"internalType": "address",
					"name": "newOwner",
					"type": "address"
				}
			],
			"name": "OwnershipTransferred",
			"type": "event"
		},
		{
			"inputs": [
				{
					"internalType": "address",
					"name": "",
					"type": "address"
				}
			],
			"name": "balance1",
			"outputs": [
				{
					"internalType": "uint256",
					"name": "",
					"type": "uint256"
				}
			],
			"stateMutability": "view",
			"type": "function"
		},
		{
			"inputs": [
				{
					"internalType": "address",
					"name": "",
					"type": "address"
				}
			],
			"name": "balance2",
			"outputs": [
				{
					"internalType": "uint256",
					"name": "",
					"type": "uint256"
				}
			],
			"stateMutability": "view",
			"type": "function"
		},
		{
			"inputs": [
				{
					"internalType": "uint256",
					"name": "_amountToken1",
					"type": "uint256"
				}
			],
			"name": "getSwapToken1Estimate",
			"outputs": [
				{
					"internalType": "uint256",
					"name": "amountToken2",
					"type": "uint256"
				}
			],
			"stateMutability": "view",
			"type": "function"
		},
		{
			"inputs": [
				{
					"internalType": "uint256",
					"name": "_amountToken2",
					"type": "uint256"
				}
			],
			"name": "getSwapToken2Estimate",
			"outputs": [
				{
					"internalType": "uint256",
					"name": "amountToken1",
					"type": "uint256"
				}
			],
			"stateMutability": "view",
			"type": "function"
		},
		{
			"inputs": [
				{
					"internalType": "uint256",
					"name": "_share",
					"type": "uint256"
				}
			],
			"name": "getTokensEstimateForShare",
			"outputs": [
				{
					"internalType": "uint256",
					"name": "amountToken1",
					"type": "uint256"
				},
				{
					"internalType": "uint256",
					"name": "amountToken2",
					"type": "uint256"
				}
			],
			"stateMutability": "view",
			"type": "function"
		},
		{
			"inputs": [],
			"name": "isCreated",
			"outputs": [
				{
					"internalType": "bool",
					"name": "",
					"type": "bool"
				}
			],
			"stateMutability": "view",
			"type": "function"
		},
		{
			"inputs": [],
			"name": "owner",
			"outputs": [
				{
					"internalType": "address",
					"name": "",
					"type": "address"
				}
			],
			"stateMutability": "view",
			"type": "function"
		},
		{
			"inputs": [],
			"name": "renounceOwnership",
			"outputs": [],
			"stateMutability": "nonpayable",
			"type": "function"
		},
		{
			"inputs": [],
			"name": "reset",
			"outputs": [],
			"stateMutability": "nonpayable",
			"type": "function"
		},
		{
			"inputs": [
				{
					"internalType": "address",
					"name": "",
					"type": "address"
				}
			],
			"name": "shares",
			"outputs": [
				{
					"internalType": "uint256",
					"name": "",
					"type": "uint256"
				}
			],
			"stateMutability": "view",
			"type": "function"
		},
		{
			"inputs": [
				{
					"components": [
						{
							"internalType": "uint64",
							"name": "evnt_idx",
							"type": "uint64"
						},
						{
							"internalType": "enum DomainEventType",
							"name": "evnt_type",
							"type": "uint8"
						},
						{
							"internalType": "bytes",
							"name": "evnt_payload",
							"type": "bytes"
						}
					],
					"internalType": "struct DomainEvent",
					"name": "evnt",
					"type": "tuple"
				}
			],
			"name": "spool",
			"outputs": [],
			"stateMutability": "nonpayable",
			"type": "function"
		},
		{
			"inputs": [],
			"name": "token1",
			"outputs": [
				{
					"internalType": "bytes",
					"name": "",
					"type": "bytes"
				}
			],
			"stateMutability": "view",
			"type": "function"
		},
		{
			"inputs": [],
			"name": "token2",
			"outputs": [
				{
					"internalType": "bytes",
					"name": "",
					"type": "bytes"
				}
			],
			"stateMutability": "view",
			"type": "function"
		},
		{
			"inputs": [
				{
					"internalType": "address",
					"name": "newOwner",
					"type": "address"
				}
			],
			"name": "transferOwnership",
			"outputs": [],
			"stateMutability": "nonpayable",
			"type": "function"
		}
	]
}