{
	"data": {
		"bytecode": {
			"linkReferences": {},
			"object": "60806040526000600b60006101000a81548160ff0219169083151502179055503480156200002c57600080fd5b506200004d620000416200005360201b60201c565b6200005b60201b60201c565b6200011f565b600033905090565b60008060009054906101000a900473ffffffffffffffffffffffffffffffffffffffff169050816000806101000a81548173ffffffffffffffffffffffffffffffffffffffff021916908373ffffffffffffffffffffffffffffffffffffffff1602179055508173ffffffffffffffffffffffffffffffffffffffff168173ffffffffffffffffffffffffffffffffffffffff167f8be0079c531659141344cd1fd0a4f28419497f9722a3daafe3b4186f6b6457e060405160405180910390a35050565b613b09806200012f6000396000f3fe608060405234801561001057600080fd5b50600436106100935760003560e01c80638fe8bb96116100665780638fe8bb96146100fc578063ce7c2ac214610118578063d21220a714610148578063d826f88f14610166578063f2fde38b1461017057610093565b806325be124e14610098578063715018a6146100b657806386174396146100c05780638da5cb5b146100de575b600080fd5b6100a061018c565b6040516100ad9190613383565b60405180910390f35b6100be61021a565b005b6100c861022e565b6040516100d59190613368565b60405180910390f35b6100e6610241565b6040516100f3919061334d565b60405180910390f35b61011660048036038101906101119190613184565b61026a565b005b610132600480360381019061012d9190613157565b61027e565b60405161013f9190613465565b60405180910390f35b610150610296565b60405161015d9190613383565b60405180910390f35b61016e610324565b005b61018a60048036038101906101859190613157565b610336565b005b6002805461019990613710565b80601f01602080910402602001604051908101604052809291908181526020018280546101c590613710565b80156102125780601f106101e757610100808354040283529160200191610212565b820191906000526020600020905b8154815290600101906020018083116101f557829003601f168201915b505050505081565b6102226103ba565b61022c6000610438565b565b600b60009054906101000a900460ff1681565b60008060009054906101000a900473ffffffffffffffffffffffffffffffffffffffff16905090565b6102726103ba565b61027b816104fc565b50565b60056020528060005260406000206000915090505481565b600180546102a390613710565b80601f01602080910402602001604051908101604052809291908181526020018280546102cf90613710565b801561031c5780601f106102f15761010080835404028352916020019161031c565b820191906000526020600020905b8154815290600101906020018083116102ff57829003601f168201915b505050505081565b61032c6103ba565b6103346106cc565b565b61033e6103ba565b600073ffffffffffffffffffffffffffffffffffffffff168173ffffffffffffffffffffffffffffffffffffffff1614156103ae576040517f08c379a00000000000000000000000000000000000000000000000000000000081526004016103a5906133a5565b60405180910390fd5b6103b781610438565b50565b6103c2610927565b73ffffffffffffffffffffffffffffffffffffffff166103e0610241565b73ffffffffffffffffffffffffffffffffffffffff1614610436576040517f08c379a000000000000000000000000000000000000000000000000000000000815260040161042d90613425565b60405180910390fd5b565b60008060009054906101000a900473ffffffffffffffffffffffffffffffffffffffff169050816000806101000a81548173ffffffffffffffffffffffffffffffffffffffff021916908373ffffffffffffffffffffffffffffffffffffffff1602179055508173ffffffffffffffffffffffffffffffffffffffff168173ffffffffffffffffffffffffffffffffffffffff167f8be0079c531659141344cd1fd0a4f28419497f9722a3daafe3b4186f6b6457e060405160405180910390a35050565b600360088111156105105761050f61381c565b5b816020015160088111156105275761052661381c565b5b1415610596576000806105456000846040015185604001515161092f565b92505091508161058a576040517f08c379a000000000000000000000000000000000000000000000000000000000815260040161058190613445565b60405180910390fd5b61059381610ae9565b50505b600760088111156105aa576105a961381c565b5b816020015160088111156105c1576105c061381c565b5b1415610630576000806105df60008460400151856040015151610c96565b925050915081610624576040517f08c379a000000000000000000000000000000000000000000000000000000000815260040161061b90613405565b60405180910390fd5b61062d81610e50565b50505b6008808111156106435761064261381c565b5b8160200151600881111561065a5761065961381c565b5b14156106c95760008061067860008460400151856040015151611160565b9250509150816106bd576040517f08c379a00000000000000000000000000000000000000000000000000000000081526004016106b4906133c5565b60405180910390fd5b6106c68161131a565b50505b50565b60005b6006805490508110156107705760056000600683815481106106f4576106f361387a565b5b9060005260206000200160009054906101000a900473ffffffffffffffffffffffffffffffffffffffff1673ffffffffffffffffffffffffffffffffffffffff1673ffffffffffffffffffffffffffffffffffffffff16815260200190815260200160002060009055808061076890613773565b9150506106cf565b506006600061077f9190612e45565b620f4240600061078f91906135a2565b60078190555060005b600a805490508110156108ba5760086000600a83815481106107bd576107bc61387a565b5b9060005260206000200160009054906101000a900473ffffffffffffffffffffffffffffffffffffffff1673ffffffffffffffffffffffffffffffffffffffff1673ffffffffffffffffffffffffffffffffffffffff1681526020019081526020016000206000905560096000600a838154811061083e5761083d61387a565b5b9060005260206000200160009054906101000a900473ffffffffffffffffffffffffffffffffffffffff1673ffffffffffffffffffffffffffffffffffffffff1673ffffffffffffffffffffffffffffffffffffffff1681526020019081526020016000206000905580806108b290613773565b915050610798565b50600a60006108c99190612e45565b60405180602001604052806000815250600190805190602001906108ee929190612e66565b506040518060200160405280600081525060029080519060200190610914929190612e66565b5060006003819055506000600481905550565b600033905090565b60008061093a612eec565b610942612eec565b6000808890508067ffffffffffffffff16878261095f9190613564565b67ffffffffffffffff1610156109815760008184955095509550505050610ae0565b5b8667ffffffffffffffff168982610999919061363e565b67ffffffffffffffff161015610a9a5760008060006109b8848c61162a565b80945081955082975083965050505050826109e25760008487985098509850505050505050610ae0565b60058267ffffffffffffffff161115610a0a5760008487985098509850505050505050610ae0565b8467ffffffffffffffff168267ffffffffffffffff1611610a3a5760008487985098509850505050505050610ae0565b610a448282611776565b925082610a605760008487985098509850505050505050610ae0565b610a6d848c8c858a6118cd565b809550819450505082610a8f5760008487985098509850505050505050610ae0565b819450505050610982565b8689610aa69190613564565b67ffffffffffffffff168167ffffffffffffffff1614610ad25760008184955095509550505050610ae0565b600181849550955095505050505b93509350939050565b806000015160019080519060200190610b03929190612f2f565b50806040015167ffffffffffffffff16600381905550806020015160029080519060200190610b33929190612f2f565b50806060015167ffffffffffffffff16600381905550620f42406000610b5991906135a2565b6007819055506000610b6e8260800151611a55565b9050816040015167ffffffffffffffff16600860008373ffffffffffffffffffffffffffffffffffffffff1673ffffffffffffffffffffffffffffffffffffffff16815260200190815260200160002081905550816060015167ffffffffffffffff16600960008373ffffffffffffffffffffffffffffffffffffffff1673ffffffffffffffffffffffffffffffffffffffff16815260200190815260200160002081905550600a819080600181540180825580915050600190039060005260206000200160009091909190916101000a81548173ffffffffffffffffffffffffffffffffffffffff021916908373ffffffffffffffffffffffffffffffffffffffff1602179055506001600b60006101000a81548160ff0219169083151502179055505050565b600080610ca1612fb5565b610ca9612fb5565b6000808890508067ffffffffffffffff168782610cc69190613564565b67ffffffffffffffff161015610ce85760008184955095509550505050610e47565b5b8667ffffffffffffffff168982610d00919061363e565b67ffffffffffffffff161015610e01576000806000610d1f848c61162a565b8094508195508297508396505050505082610d495760008487985098509850505050505050610e47565b60038267ffffffffffffffff161115610d715760008487985098509850505050505050610e47565b8467ffffffffffffffff168267ffffffffffffffff1611610da15760008487985098509850505050505050610e47565b610dab8282611aad565b925082610dc75760008487985098509850505050505050610e47565b610dd4848c8c858a611b80565b809550819450505082610df65760008487985098509850505050505050610e47565b819450505050610ce9565b8689610e0d9190613564565b67ffffffffffffffff168167ffffffffffffffff1614610e395760008184955095509550505050610e47565b600181849550955095505050505b93509350939050565b6000610e5f8260400151611a55565b9050610ef960018054610e7190613710565b80601f0160208091040260200160405190810160405280929190818152602001828054610e9d90613710565b8015610eea5780601f10610ebf57610100808354040283529160200191610eea565b820191906000526020600020905b815481529060010190602001808311610ecd57829003601f168201915b50505050508360000151611c76565b15610f6357816020015167ffffffffffffffff16600860008373ffffffffffffffffffffffffffffffffffffffff1673ffffffffffffffffffffffffffffffffffffffff1681526020019081526020016000206000828254610f5b919061350e565b925050819055505b610ffb60028054610f7390613710565b80601f0160208091040260200160405190810160405280929190818152602001828054610f9f90613710565b8015610fec5780601f10610fc157610100808354040283529160200191610fec565b820191906000526020600020905b815481529060010190602001808311610fcf57829003601f168201915b50505050508360000151611c76565b1561106557816020015167ffffffffffffffff16600960008373ffffffffffffffffffffffffffffffffffffffff1673ffffffffffffffffffffffffffffffffffffffff168152602001908152602001600020600082825461105d919061350e565b925050819055505b6000600860008373ffffffffffffffffffffffffffffffffffffffff1673ffffffffffffffffffffffffffffffffffffffff168152602001908152602001600020541480156110f357506000600960008373ffffffffffffffffffffffffffffffffffffffff1673ffffffffffffffffffffffffffffffffffffffff16815260200190815260200160002054145b1561115c57600a819080600181540180825580915050600190039060005260206000200160009091909190916101000a81548173ffffffffffffffffffffffffffffffffffffffff021916908373ffffffffffffffffffffffffffffffffffffffff1602179055505b5050565b60008061116b612fe0565b611173612fe0565b6000808890508067ffffffffffffffff1687826111909190613564565b67ffffffffffffffff1610156111b25760008184955095509550505050611311565b5b8667ffffffffffffffff1689826111ca919061363e565b67ffffffffffffffff1610156112cb5760008060006111e9848c61162a565b80945081955082975083965050505050826112135760008487985098509850505050505050611311565b60038267ffffffffffffffff16111561123b5760008487985098509850505050505050611311565b8467ffffffffffffffff168267ffffffffffffffff161161126b5760008487985098509850505050505050611311565b6112758282611ccf565b9250826112915760008487985098509850505050505050611311565b61129e848c8c858a611da2565b8095508194505050826112c05760008487985098509850505050505050611311565b8194505050506111b3565b86896112d79190613564565b67ffffffffffffffff168167ffffffffffffffff16146113035760008184955095509550505050611311565b600181849550955095505050505b93509350939050565b60006113298260400151611a55565b90506113c36001805461133b90613710565b80601f016020809104026020016040519081016040528092919081815260200182805461136790613710565b80156113b45780601f10611389576101008083540402835291602001916113b4565b820191906000526020600020905b81548152906001019060200180831161139757829003601f168201915b50505050508360000151611c76565b1561142d57816020015167ffffffffffffffff16600860008373ffffffffffffffffffffffffffffffffffffffff1673ffffffffffffffffffffffffffffffffffffffff1681526020019081526020016000206000828254611425919061350e565b925050819055505b6114c56002805461143d90613710565b80601f016020809104026020016040519081016040528092919081815260200182805461146990613710565b80156114b65780601f1061148b576101008083540402835291602001916114b6565b820191906000526020600020905b81548152906001019060200180831161149957829003601f168201915b50505050508360000151611c76565b1561152f57816020015167ffffffffffffffff16600960008373ffffffffffffffffffffffffffffffffffffffff1673ffffffffffffffffffffffffffffffffffffffff1681526020019081526020016000206000828254611527919061350e565b925050819055505b6000600860008373ffffffffffffffffffffffffffffffffffffffff1673ffffffffffffffffffffffffffffffffffffffff168152602001908152602001600020541480156115bd57506000600960008373ffffffffffffffffffffffffffffffffffffffff1673ffffffffffffffffffffffffffffffffffffffff16815260200190815260200160002054145b1561162657600a819080600181540180825580915050600190039060005260206000200160009091909190916101000a81548173ffffffffffffffffffffffffffffffffffffffff021916908373ffffffffffffffffffffffffffffffffffffffff1602179055505b5050565b600080600080600080600061163f8989611e98565b925092509250826116615760008260006006965096509650965050505061176d565b600060038267ffffffffffffffff16901c9050600060078316905060068081111561168f5761168e61381c565b5b67ffffffffffffffff168167ffffffffffffffff16106116c257600084600060069850985098509850505050505061176d565b60008167ffffffffffffffff1660068111156116e1576116e061381c565b5b9050600360068111156116f7576116f661381c565b5b81600681111561170a5761170961381c565b5b148061173a5750600460068111156117255761172461381c565b5b8160068111156117385761173761381c565b5b145b156117595760008560006006995099509950995050505050505061176d565b600185848399509950995099505050505050505b92959194509250565b600060018367ffffffffffffffff1614156117ba576002600681111561179f5761179e61381c565b5b8260068111156117b2576117b161381c565b5b1490506118c7565b60028367ffffffffffffffff1614156117fc57600260068111156117e1576117e061381c565b5b8260068111156117f4576117f361381c565b5b1490506118c7565b60038367ffffffffffffffff16141561183e57600060068111156118235761182261381c565b5b8260068111156118365761183561381c565b5b1490506118c7565b60048367ffffffffffffffff16141561188057600060068111156118655761186461381c565b5b8260068111156118785761187761381c565b5b1490506118c7565b60058367ffffffffffffffff1614156118c257600260068111156118a7576118a661381c565b5b8260068111156118ba576118b961381c565b5b1490506118c7565b600090505b92915050565b600080600087905060018567ffffffffffffffff16141561191e5760006118f5828987612090565b80935081925050508061191057600082935093505050611a4b565b600182935093505050611a4b565b60028567ffffffffffffffff16141561196757600061193e828987612215565b80935081925050508061195957600082935093505050611a4b565b600182935093505050611a4b565b60038567ffffffffffffffff1614156119b057600061198782898761239a565b8093508192505050806119a257600082935093505050611a4b565b600182935093505050611a4b565b60048567ffffffffffffffff1614156119f95760006119d082898761241c565b8093508192505050806119eb57600082935093505050611a4b565b600182935093505050611a4b565b60058567ffffffffffffffff161415611a42576000611a1982898761249e565b809350819250505080611a3457600082935093505050611a4b565b600182935093505050611a4b565b60008192509250505b9550959350505050565b60006014825114611a9b576040517f08c379a0000000000000000000000000000000000000000000000000000000008152600401611a92906133e5565b60405180910390fd5b60006014830151905080915050919050565b600060018367ffffffffffffffff161415611af15760026006811115611ad657611ad561381c565b5b826006811115611ae957611ae861381c565b5b149050611b7a565b60028367ffffffffffffffff161415611b335760006006811115611b1857611b1761381c565b5b826006811115611b2b57611b2a61381c565b5b149050611b7a565b60038367ffffffffffffffff161415611b755760026006811115611b5a57611b5961381c565b5b826006811115611b6d57611b6c61381c565b5b149050611b7a565b600090505b92915050565b600080600087905060018567ffffffffffffffff161415611bd1576000611ba8828987612623565b809350819250505080611bc357600082935093505050611c6c565b600182935093505050611c6c565b60028567ffffffffffffffff161415611c1a576000611bf18289876127a8565b809350819250505080611c0c57600082935093505050611c6c565b600182935093505050611c6c565b60038567ffffffffffffffff161415611c63576000611c3a82898761282a565b809350819250505080611c5557600082935093505050611c6c565b600182935093505050611c6c565b60008192509250505b9550959350505050565b600081604051602001611c899190613336565b6040516020818303038152906040528051906020012083604051602001611cb09190613336565b6040516020818303038152906040528051906020012014905092915050565b600060018367ffffffffffffffff161415611d135760026006811115611cf857611cf761381c565b5b826006811115611d0b57611d0a61381c565b5b149050611d9c565b60028367ffffffffffffffff161415611d555760006006811115611d3a57611d3961381c565b5b826006811115611d4d57611d4c61381c565b5b149050611d9c565b60038367ffffffffffffffff161415611d975760026006811115611d7c57611d7b61381c565b5b826006811115611d8f57611d8e61381c565b5b149050611d9c565b600090505b92915050565b600080600087905060018567ffffffffffffffff161415611df3576000611dca8289876129af565b809350819250505080611de557600082935093505050611e8e565b600182935093505050611e8e565b60028567ffffffffffffffff161415611e3c576000611e13828987612b34565b809350819250505080611e2e57600082935093505050611e8e565b600182935093505050611e8e565b60038567ffffffffffffffff161415611e85576000611e5c828987612bb6565b809350819250505080611e7757600082935093505050611e8e565b600182935093505050611e8e565b60008192509250505b9550959350505050565b60008060008060005b600a67ffffffffffffffff168167ffffffffffffffff161015611fbb5785518782611ecc9190613564565b67ffffffffffffffff1610611eed5760008760009450945094505050612089565b6000868289611efc9190613564565b67ffffffffffffffff1681518110611f1757611f1661387a565b5b602001015160f81c60f81b60f81c90506000607f82169050600783611f3c91906135fc565b67ffffffffffffffff168160ff1667ffffffffffffffff16901b8417935060006080831660ff161415611fa65760008367ffffffffffffffff16118015611f86575060008160ff16145b15611f9f57600089600096509650965050505050612089565b5050611fbb565b50508080611fb3906137bc565b915050611ea1565b600a67ffffffffffffffff168167ffffffffffffffff1610611fe95760008760009450945094505050612089565b6001600a611ff7919061363e565b67ffffffffffffffff168167ffffffffffffffff1614156120665760018682896120219190613564565b67ffffffffffffffff168151811061203c5761203b61387a565b5b602001015160f81c60f81b60f81c60ff1611156120655760008760009450945094505050612089565b5b60018082896120759190613564565b61207f9190613564565b8394509450945050505b9250925092565b6000806000806120a08787612d3b565b809350819950829450505050816120bf5760008793509350505061220d565b60008167ffffffffffffffff1614156120e05760008793509350505061220d565b8067ffffffffffffffff1667ffffffffffffffff811115612104576121036138a9565b5b6040519080825280601f01601f1916602001820160405280156121365781602001600182028036833780820191505090505b50856000018190525060005b8167ffffffffffffffff168167ffffffffffffffff1610156121f45786818961216b9190613564565b67ffffffffffffffff16815181106121865761218561387a565b5b602001015160f81c60f81b86600001518267ffffffffffffffff16815181106121b2576121b161387a565b5b60200101907effffffffffffffffffffffffffffffffffffffffffffffffffffffffffffff1916908160001a90535080806121ec906137bc565b915050612142565b5080876122019190613564565b96506001879350935050505b935093915050565b6000806000806122258787612d3b565b8093508199508294505050508161224457600087935093505050612392565b60008167ffffffffffffffff16141561226557600087935093505050612392565b8067ffffffffffffffff1667ffffffffffffffff811115612289576122886138a9565b5b6040519080825280601f01601f1916602001820160405280156122bb5781602001600182028036833780820191505090505b50856020018190525060005b8167ffffffffffffffff168167ffffffffffffffff161015612379578681896122f09190613564565b67ffffffffffffffff168151811061230b5761230a61387a565b5b602001015160f81c60f81b86602001518267ffffffffffffffff16815181106123375761233661387a565b5b60200101907effffffffffffffffffffffffffffffffffffffffffffffffffffffffffffff1916908160001a9053508080612371906137bc565b9150506122c7565b5080876123869190613564565b96506001879350935050505b935093915050565b6000806000806123aa8787612d57565b809350819950829450505050816123c957600087935093505050612414565b60008167ffffffffffffffff1614156123ea57600087935093505050612414565b80856040019067ffffffffffffffff16908167ffffffffffffffff16815250506001879350935050505b935093915050565b60008060008061242c8787612d57565b8093508199508294505050508161244b57600087935093505050612496565b60008167ffffffffffffffff16141561246c57600087935093505050612496565b80856060019067ffffffffffffffff16908167ffffffffffffffff16815250506001879350935050505b935093915050565b6000806000806124ae8787612d3b565b809350819950829450505050816124cd5760008793509350505061261b565b60008167ffffffffffffffff1614156124ee5760008793509350505061261b565b8067ffffffffffffffff1667ffffffffffffffff811115612512576125116138a9565b5b6040519080825280601f01601f1916602001820160405280156125445781602001600182028036833780820191505090505b50856080018190525060005b8167ffffffffffffffff168167ffffffffffffffff161015612602578681896125799190613564565b67ffffffffffffffff16815181106125945761259361387a565b5b602001015160f81c60f81b86608001518267ffffffffffffffff16815181106125c0576125bf61387a565b5b60200101907effffffffffffffffffffffffffffffffffffffffffffffffffffffffffffff1916908160001a90535080806125fa906137bc565b915050612550565b50808761260f9190613564565b96506001879350935050505b935093915050565b6000806000806126338787612d3b565b80935081995082945050505081612652576000879350935050506127a0565b60008167ffffffffffffffff161415612673576000879350935050506127a0565b8067ffffffffffffffff1667ffffffffffffffff811115612697576126966138a9565b5b6040519080825280601f01601f1916602001820160405280156126c95781602001600182028036833780820191505090505b50856000018190525060005b8167ffffffffffffffff168167ffffffffffffffff161015612787578681896126fe9190613564565b67ffffffffffffffff16815181106127195761271861387a565b5b602001015160f81c60f81b86600001518267ffffffffffffffff16815181106127455761274461387a565b5b60200101907effffffffffffffffffffffffffffffffffffffffffffffffffffffffffffff1916908160001a905350808061277f906137bc565b9150506126d5565b5080876127949190613564565b96506001879350935050505b935093915050565b6000806000806127b88787612d57565b809350819950829450505050816127d757600087935093505050612822565b60008167ffffffffffffffff1614156127f857600087935093505050612822565b80856020019067ffffffffffffffff16908167ffffffffffffffff16815250506001879350935050505b935093915050565b60008060008061283a8787612d3b565b80935081995082945050505081612859576000879350935050506129a7565b60008167ffffffffffffffff16141561287a576000879350935050506129a7565b8067ffffffffffffffff1667ffffffffffffffff81111561289e5761289d6138a9565b5b6040519080825280601f01601f1916602001820160405280156128d05781602001600182028036833780820191505090505b50856040018190525060005b8167ffffffffffffffff168167ffffffffffffffff16101561298e578681896129059190613564565b67ffffffffffffffff16815181106129205761291f61387a565b5b602001015160f81c60f81b86604001518267ffffffffffffffff168151811061294c5761294b61387a565b5b60200101907effffffffffffffffffffffffffffffffffffffffffffffffffffffffffffff1916908160001a9053508080612986906137bc565b9150506128dc565b50808761299b9190613564565b96506001879350935050505b935093915050565b6000806000806129bf8787612d3b565b809350819950829450505050816129de57600087935093505050612b2c565b60008167ffffffffffffffff1614156129ff57600087935093505050612b2c565b8067ffffffffffffffff1667ffffffffffffffff811115612a2357612a226138a9565b5b6040519080825280601f01601f191660200182016040528015612a555781602001600182028036833780820191505090505b50856000018190525060005b8167ffffffffffffffff168167ffffffffffffffff161015612b1357868189612a8a9190613564565b67ffffffffffffffff1681518110612aa557612aa461387a565b5b602001015160f81c60f81b86600001518267ffffffffffffffff1681518110612ad157612ad061387a565b5b60200101907effffffffffffffffffffffffffffffffffffffffffffffffffffffffffffff1916908160001a9053508080612b0b906137bc565b915050612a61565b508087612b209190613564565b96506001879350935050505b935093915050565b600080600080612b448787612d57565b80935081995082945050505081612b6357600087935093505050612bae565b60008167ffffffffffffffff161415612b8457600087935093505050612bae565b80856020019067ffffffffffffffff16908167ffffffffffffffff16815250506001879350935050505b935093915050565b600080600080612bc68787612d3b565b80935081995082945050505081612be557600087935093505050612d33565b60008167ffffffffffffffff161415612c0657600087935093505050612d33565b8067ffffffffffffffff1667ffffffffffffffff811115612c2a57612c296138a9565b5b6040519080825280601f01601f191660200182016040528015612c5c5781602001600182028036833780820191505090505b50856040018190525060005b8167ffffffffffffffff168167ffffffffffffffff161015612d1a57868189612c919190613564565b67ffffffffffffffff1681518110612cac57612cab61387a565b5b602001015160f81c60f81b86604001518267ffffffffffffffff1681518110612cd857612cd761387a565b5b60200101907effffffffffffffffffffffffffffffffffffffffffffffffffffffffffffff1916908160001a9053508080612d12906137bc565b915050612c68565b508087612d279190613564565b96506001879350935050505b935093915050565b6000806000612d4a8585612d9d565b9250925092509250925092565b600080600080600080612d6a8888611e98565b92509250925082612d88576000826000955095509550505050612d96565b600182829550955095505050505b9250925092565b600080600080600080612db08888611e98565b92509250925082612dce576000826000955095509550505050612e3e565b8167ffffffffffffffff1681830167ffffffffffffffff161015612dff576000826000955095509550505050612e3e565b86518282612e0d9190613564565b67ffffffffffffffff161115612e30576000826000955095509550505050612e3e565b600182829550955095505050505b9250925092565b5080546000825590600052602060002090810190612e63919061300b565b50565b828054612e7290613710565b90600052602060002090601f016020900481019282612e945760008555612edb565b82601f10612ead57805160ff1916838001178555612edb565b82800160010185558215612edb579182015b82811115612eda578251825591602001919060010190612ebf565b5b509050612ee8919061300b565b5090565b6040518060a001604052806060815260200160608152602001600067ffffffffffffffff168152602001600067ffffffffffffffff168152602001606081525090565b828054612f3b90613710565b90600052602060002090601f016020900481019282612f5d5760008555612fa4565b82601f10612f7657805160ff1916838001178555612fa4565b82800160010185558215612fa4579182015b82811115612fa3578251825591602001919060010190612f88565b5b509050612fb1919061300b565b5090565b604051806060016040528060608152602001600067ffffffffffffffff168152602001606081525090565b604051806060016040528060608152602001600067ffffffffffffffff168152602001606081525090565b5b8082111561302457600081600090555060010161300c565b5090565b600061303b613036846134a5565b613480565b905082815260208101848484011115613057576130566138e7565b5b6130628482856136ce565b509392505050565b60008135905061307981613a95565b92915050565b600082601f830112613094576130936138d8565b5b81356130a4848260208601613028565b91505092915050565b6000813590506130bc81613aac565b92915050565b6000606082840312156130d8576130d76138dd565b5b6130e26060613480565b905060006130f284828501613142565b6000830152506020613106848285016130ad565b602083015250604082013567ffffffffffffffff81111561312a576131296138e2565b5b6131368482850161307f565b60408301525092915050565b60008135905061315181613abc565b92915050565b60006020828403121561316d5761316c6138f1565b5b600061317b8482850161306a565b91505092915050565b60006020828403121561319a576131996138f1565b5b600082013567ffffffffffffffff8111156131b8576131b76138ec565b5b6131c4848285016130c2565b91505092915050565b6131d681613672565b82525050565b6131e581613684565b82525050565b60006131f6826134d6565b61320081856134e1565b93506132108185602086016136dd565b613219816138f6565b840191505092915050565b600061322f826134d6565b61323981856134f2565b93506132498185602086016136dd565b80840191505092915050565b60006132626026836134fd565b915061326d82613907565b604082019050919050565b6000613285602c836134fd565b915061329082613956565b604082019050919050565b60006132a86016836134fd565b91506132b3826139a5565b602082019050919050565b60006132cb602c836134fd565b91506132d6826139ce565b604082019050919050565b60006132ee6020836134fd565b91506132f982613a1d565b602082019050919050565b60006133116028836134fd565b915061331c82613a46565b604082019050919050565b613330816136b0565b82525050565b60006133428284613224565b915081905092915050565b600060208201905061336260008301846131cd565b92915050565b600060208201905061337d60008301846131dc565b92915050565b6000602082019050818103600083015261339d81846131eb565b905092915050565b600060208201905081810360008301526133be81613255565b9050919050565b600060208201905081810360008301526133de81613278565b9050919050565b600060208201905081810360008301526133fe8161329b565b9050919050565b6000602082019050818103600083015261341e816132be565b9050919050565b6000602082019050818103600083015261343e816132e1565b9050919050565b6000602082019050818103600083015261345e81613304565b9050919050565b600060208201905061347a6000830184613327565b92915050565b600061348a61349b565b90506134968282613742565b919050565b6000604051905090565b600067ffffffffffffffff8211156134c0576134bf6138a9565b5b6134c9826138f6565b9050602081019050919050565b600081519050919050565b600082825260208201905092915050565b600081905092915050565b600082825260208201905092915050565b6000613519826136b0565b9150613524836136b0565b9250827fffffffffffffffffffffffffffffffffffffffffffffffffffffffffffffffff03821115613559576135586137ed565b5b828201905092915050565b600061356f826136ba565b915061357a836136ba565b92508267ffffffffffffffff03821115613597576135966137ed565b5b828201905092915050565b60006135ad826136b0565b91506135b8836136b0565b9250817fffffffffffffffffffffffffffffffffffffffffffffffffffffffffffffffff04831182151516156135f1576135f06137ed565b5b828202905092915050565b6000613607826136ba565b9150613612836136ba565b92508167ffffffffffffffff0483118215151615613633576136326137ed565b5b828202905092915050565b6000613649826136ba565b9150613654836136ba565b925082821015613667576136666137ed565b5b828203905092915050565b600061367d82613690565b9050919050565b60008115159050919050565b600073ffffffffffffffffffffffffffffffffffffffff82169050919050565b6000819050919050565b600067ffffffffffffffff82169050919050565b82818337600083830152505050565b60005b838110156136fb5780820151818401526020810190506136e0565b8381111561370a576000848401525b50505050565b6000600282049050600182168061372857607f821691505b6020821081141561373c5761373b61384b565b5b50919050565b61374b826138f6565b810181811067ffffffffffffffff8211171561376a576137696138a9565b5b80604052505050565b600061377e826136b0565b91507fffffffffffffffffffffffffffffffffffffffffffffffffffffffffffffffff8214156137b1576137b06137ed565b5b600182019050919050565b60006137c7826136ba565b915067ffffffffffffffff8214156137e2576137e16137ed565b5b600182019050919050565b7f4e487b7100000000000000000000000000000000000000000000000000000000600052601160045260246000fd5b7f4e487b7100000000000000000000000000000000000000000000000000000000600052602160045260246000fd5b7f4e487b7100000000000000000000000000000000000000000000000000000000600052602260045260246000fd5b7f4e487b7100000000000000000000000000000000000000000000000000000000600052603260045260246000fd5b7f4e487b7100000000000000000000000000000000000000000000000000000000600052604160045260246000fd5b600080fd5b600080fd5b600080fd5b600080fd5b600080fd5b600080fd5b6000601f19601f8301169050919050565b7f4f776e61626c653a206e6577206f776e657220697320746865207a65726f206160008201527f6464726573730000000000000000000000000000000000000000000000000000602082015250565b7f46756e647357697468647261776e5061796c6f616420646573657269616c697a60008201527f6174696f6e206661696c65640000000000000000000000000000000000000000602082015250565b7f496e76616c6964206164647265737320666f726d617400000000000000000000600082015250565b7f46756e64734465706f73697465645061796c6f616420646573657269616c697a60008201527f6174696f6e206661696c65640000000000000000000000000000000000000000602082015250565b7f4f776e61626c653a2063616c6c6572206973206e6f7420746865206f776e6572600082015250565b7f414d4d437265617465645061796c6f616420646573657269616c697a6174696f60008201527f6e206661696c6564000000000000000000000000000000000000000000000000602082015250565b613a9e81613672565b8114613aa957600080fd5b50565b60098110613ab957600080fd5b50565b613ac5816136ba565b8114613ad057600080fd5b5056fea2646970667358221220108202ed63c6a104a1507f5bcf44da89ed545039fad09494263d485801ad40c064736f6c63430008060033",
			"opcodes": "PUSH1 0x80 PUSH1 0x40 MSTORE PUSH1 0x0 PUSH1 0xB PUSH1 0x0 PUSH2 0x100 EXP DUP2 SLOAD DUP2 PUSH1 0xFF MUL NOT AND SWAP1 DUP4 ISZERO ISZERO MUL OR SWAP1 SSTORE POP CALLVALUE DUP1 ISZERO PUSH3 0x2C JUMPI PUSH1 0x0 DUP1 REVERT JUMPDEST POP PUSH3 0x4D PUSH3 0x41 PUSH3 0x53 PUSH1 0x20 SHL PUSH1 0x20 SHR JUMP JUMPDEST PUSH3 0x5B PUSH1 0x20 SHL PUSH1 0x20 SHR JUMP JUMPDEST PUSH3 0x11F JUMP JUMPDEST PUSH1 0x0 CALLER SWAP1 POP SWAP1 JUMP JUMPDEST PUSH1 0x0 DUP1 PUSH1 0x0 SWAP1 SLOAD SWAP1 PUSH2 0x100 EXP SWAP1 DIV PUSH20 0xFFFFFFFFFFFFFFFFFFFFFFFFFFFFFFFFFFFFFFFF AND SWAP1 POP DUP2 PUSH1 0x0 DUP1 PUSH2 0x100 EXP DUP2 SLOAD DUP2 PUSH20 0xFFFFFFFFFFFFFFFFFFFFFFFFFFFFFFFFFFFFFFFF MUL NOT AND SWAP1 DUP4 PUSH20 0xFFFFFFFFFFFFFFFFFFFFFFFFFFFFFFFFFFFFFFFF AND MUL OR SWAP1 SSTORE POP DUP2 PUSH20 0xFFFFFFFFFFFFFFFFFFFFFFFFFFFFFFFFFFFFFFFF AND DUP2 PUSH20 0xFFFFFFFFFFFFFFFFFFFFFFFFFFFFFFFFFFFFFFFF AND PUSH32 0x8BE0079C531659141344CD1FD0A4F28419497F9722A3DAAFE3B4186F6B6457E0 PUSH1 0x40 MLOAD PUSH1 0x40 MLOAD DUP1 SWAP2 SUB SWAP1 LOG3 POP POP JUMP JUMPDEST PUSH2 0x3B09 DUP1 PUSH3 0x12F PUSH1 0x0 CODECOPY PUSH1 0x0 RETURN INVALID PUSH1 0x80 PUSH1 0x40 MSTORE CALLVALUE DUP1 ISZERO PUSH2 0x10 JUMPI PUSH1 0x0 DUP1 REVERT JUMPDEST POP PUSH1 0x4 CALLDATASIZE LT PUSH2 0x93 JUMPI PUSH1 0x0 CALLDATALOAD PUSH1 0xE0 SHR DUP1 PUSH4 0x8FE8BB96 GT PUSH2 0x66 JUMPI DUP1 PUSH4 0x8FE8BB96 EQ PUSH2 0xFC JUMPI DUP1 PUSH4 0xCE7C2AC2 EQ PUSH2 0x118 JUMPI DUP1 PUSH4 0xD21220A7 EQ PUSH2 0x148 JUMPI DUP1 PUSH4 0xD826F88F EQ PUSH2 0x166 JUMPI DUP1 PUSH4 0xF2FDE38B EQ PUSH2 0x170 JUMPI PUSH2 0x93 JUMP JUMPDEST DUP1 PUSH4 0x25BE124E EQ PUSH2 0x98 JUMPI DUP1 PUSH4 0x715018A6 EQ PUSH2 0xB6 JUMPI DUP1 PUSH4 0x86174396 EQ PUSH2 0xC0 JUMPI DUP1 PUSH4 0x8DA5CB5B EQ PUSH2 0xDE JUMPI JUMPDEST PUSH1 0x0 DUP1 REVERT JUMPDEST PUSH2 0xA0 PUSH2 0x18C JUMP JUMPDEST PUSH1 0x40 MLOAD PUSH2 0xAD SWAP2 SWAP1 PUSH2 0x3383 JUMP JUMPDEST PUSH1 0x40 MLOAD DUP1 SWAP2 SUB SWAP1 RETURN JUMPDEST PUSH2 0xBE PUSH2 0x21A JUMP JUMPDEST STOP JUMPDEST PUSH2 0xC8 PUSH2 0x22E JUMP JUMPDEST PUSH1 0x40 MLOAD PUSH2 0xD5 SWAP2 SWAP1 PUSH2 0x3368 JUMP JUMPDEST PUSH1 0x40 MLOAD DUP1 SWAP2 SUB SWAP1 RETURN JUMPDEST PUSH2 0xE6 PUSH2 0x241 JUMP JUMPDEST PUSH1 0x40 MLOAD PUSH2 0xF3 SWAP2 SWAP1 PUSH2 0x334D JUMP JUMPDEST PUSH1 0x40 MLOAD DUP1 SWAP2 SUB SWAP1 RETURN JUMPDEST PUSH2 0x116 PUSH1 0x4 DUP1 CALLDATASIZE SUB DUP2 ADD SWAP1 PUSH2 0x111 SWAP2 SWAP1 PUSH2 0x3184 JUMP JUMPDEST PUSH2 0x26A JUMP JUMPDEST STOP JUMPDEST PUSH2 0x132 PUSH1 0x4 DUP1 CALLDATASIZE SUB DUP2 ADD SWAP1 PUSH2 0x12D SWAP2 SWAP1 PUSH2 0x3157 JUMP JUMPDEST PUSH2 0x27E JUMP JUMPDEST PUSH1 0x40 MLOAD PUSH2 0x13F SWAP2 SWAP1 PUSH2 0x3465 JUMP JUMPDEST PUSH1 0x40 MLOAD DUP1 SWAP2 SUB SWAP1 RETURN JUMPDEST PUSH2 0x150 PUSH2 0x296 JUMP JUMPDEST PUSH1 0x40 MLOAD PUSH2 0x15D SWAP2 SWAP1 PUSH2 0x3383 JUMP JUMPDEST PUSH1 0x40 MLOAD DUP1 SWAP2 SUB SWAP1 RETURN JUMPDEST PUSH2 0x16E PUSH2 0x324 JUMP JUMPDEST STOP JUMPDEST PUSH2 0x18A PUSH1 0x4 DUP1 CALLDATASIZE SUB DUP2 ADD SWAP1 PUSH2 0x185 SWAP2 SWAP1 PUSH2 0x3157 JUMP JUMPDEST PUSH2 0x336 JUMP JUMPDEST STOP JUMPDEST PUSH1 0x2 DUP1 SLOAD PUSH2 0x199 SWAP1 PUSH2 0x3710 JUMP JUMPDEST DUP1 PUSH1 0x1F ADD PUSH1 0x20 DUP1 SWAP2 DIV MUL PUSH1 0x20 ADD PUSH1 0x40 MLOAD SWAP1 DUP2 ADD PUSH1 0x40 MSTORE DUP1 SWAP3 SWAP2 SWAP1 DUP2 DUP2 MSTORE PUSH1 0x20 ADD DUP3 DUP1 SLOAD PUSH2 0x1C5 SWAP1 PUSH2 0x3710 JUMP JUMPDEST DUP1 ISZERO PUSH2 0x212 JUMPI DUP1 PUSH1 0x1F LT PUSH2 0x1E7 JUMPI PUSH2 0x100 DUP1 DUP4 SLOAD DIV MUL DUP4 MSTORE SWAP2 PUSH1 0x20 ADD SWAP2 PUSH2 0x212 JUMP JUMPDEST DUP3 ADD SWAP2 SWAP1 PUSH1 0x0 MSTORE PUSH1 0x20 PUSH1 0x0 KECCAK256 SWAP1 JUMPDEST DUP2 SLOAD DUP2 MSTORE SWAP1 PUSH1 0x1 ADD SWAP1 PUSH1 0x20 ADD DUP1 DUP4 GT PUSH2 0x1F5 JUMPI DUP3 SWAP1 SUB PUSH1 0x1F AND DUP3 ADD SWAP2 JUMPDEST POP POP POP POP POP DUP2 JUMP JUMPDEST PUSH2 0x222 PUSH2 0x3BA JUMP JUMPDEST PUSH2 0x22C PUSH1 0x0 PUSH2 0x438 JUMP JUMPDEST JUMP JUMPDEST PUSH1 0xB PUSH1 0x0 SWAP1 SLOAD SWAP1 PUSH2 0x100 EXP SWAP1 DIV PUSH1 0xFF AND DUP2 JUMP JUMPDEST PUSH1 0x0 DUP1 PUSH1 0x0 SWAP1 SLOAD SWAP1 PUSH2 0x100 EXP SWAP1 DIV PUSH20 0xFFFFFFFFFFFFFFFFFFFFFFFFFFFFFFFFFFFFFFFF AND SWAP1 POP SWAP1 JUMP JUMPDEST PUSH2 0x272 PUSH2 0x3BA JUMP JUMPDEST PUSH2 0x27B DUP2 PUSH2 0x4FC JUMP JUMPDEST POP JUMP JUMPDEST PUSH1 0x5 PUSH1 0x20 MSTORE DUP1 PUSH1 0x0 MSTORE PUSH1 0x40 PUSH1 0x0 KECCAK256 PUSH1 0x0 SWAP2 POP SWAP1 POP SLOAD DUP2 JUMP JUMPDEST PUSH1 0x1 DUP1 SLOAD PUSH2 0x2A3 SWAP1 PUSH2 0x3710 JUMP JUMPDEST DUP1 PUSH1 0x1F ADD PUSH1 0x20 DUP1 SWAP2 DIV MUL PUSH1 0x20 ADD PUSH1 0x40 MLOAD SWAP1 DUP2 ADD PUSH1 0x40 MSTORE DUP1 SWAP3 SWAP2 SWAP1 DUP2 DUP2 MSTORE PUSH1 0x20 ADD DUP3 DUP1 SLOAD PUSH2 0x2CF SWAP1 PUSH2 0x3710 JUMP JUMPDEST DUP1 ISZERO PUSH2 0x31C JUMPI DUP1 PUSH1 0x1F LT PUSH2 0x2F1 JUMPI PUSH2 0x100 DUP1 DUP4 SLOAD DIV MUL DUP4 MSTORE SWAP2 PUSH1 0x20 ADD SWAP2 PUSH2 0x31C JUMP JUMPDEST DUP3 ADD SWAP2 SWAP1 PUSH1 0x0 MSTORE PUSH1 0x20 PUSH1 0x0 KECCAK256 SWAP1 JUMPDEST DUP2 SLOAD DUP2 MSTORE SWAP1 PUSH1 0x1 ADD SWAP1 PUSH1 0x20 ADD DUP1 DUP4 GT PUSH2 0x2FF JUMPI DUP3 SWAP1 SUB PUSH1 0x1F AND DUP3 ADD SWAP2 JUMPDEST POP POP POP POP POP DUP2 JUMP JUMPDEST PUSH2 0x32C PUSH2 0x3BA JUMP JUMPDEST PUSH2 0x334 PUSH2 0x6CC JUMP JUMPDEST JUMP JUMPDEST PUSH2 0x33E PUSH2 0x3BA JUMP JUMPDEST PUSH1 0x0 PUSH20 0xFFFFFFFFFFFFFFFFFFFFFFFFFFFFFFFFFFFFFFFF AND DUP2 PUSH20 0xFFFFFFFFFFFFFFFFFFFFFFFFFFFFFFFFFFFFFFFF AND EQ ISZERO PUSH2 0x3AE JUMPI PUSH1 0x40 MLOAD PUSH32 0x8C379A000000000000000000000000000000000000000000000000000000000 DUP2 MSTORE PUSH1 0x4 ADD PUSH2 0x3A5 SWAP1 PUSH2 0x33A5 JUMP JUMPDEST PUSH1 0x40 MLOAD DUP1 SWAP2 SUB SWAP1 REVERT JUMPDEST PUSH2 0x3B7 DUP2 PUSH2 0x438 JUMP JUMPDEST POP JUMP JUMPDEST PUSH2 0x3C2 PUSH2 0x927 JUMP JUMPDEST PUSH20 0xFFFFFFFFFFFFFFFFFFFFFFFFFFFFFFFFFFFFFFFF AND PUSH2 0x3E0 PUSH2 0x241 JUMP JUMPDEST PUSH20 0xFFFFFFFFFFFFFFFFFFFFFFFFFFFFFFFFFFFFFFFF AND EQ PUSH2 0x436 JUMPI PUSH1 0x40 MLOAD PUSH32 0x8C379A000000000000000000000000000000000000000000000000000000000 DUP2 MSTORE PUSH1 0x4 ADD PUSH2 0x42D SWAP1 PUSH2 0x3425 JUMP JUMPDEST PUSH1 0x40 MLOAD DUP1 SWAP2 SUB SWAP1 REVERT JUMPDEST JUMP JUMPDEST PUSH1 0x0 DUP1 PUSH1 0x0 SWAP1 SLOAD SWAP1 PUSH2 0x100 EXP SWAP1 DIV PUSH20 0xFFFFFFFFFFFFFFFFFFFFFFFFFFFFFFFFFFFFFFFF AND SWAP1 POP DUP2 PUSH1 0x0 DUP1 PUSH2 0x100 EXP DUP2 SLOAD DUP2 PUSH20 0xFFFFFFFFFFFFFFFFFFFFFFFFFFFFFFFFFFFFFFFF MUL NOT AND SWAP1 DUP4 PUSH20 0xFFFFFFFFFFFFFFFFFFFFFFFFFFFFFFFFFFFFFFFF AND MUL OR SWAP1 SSTORE POP DUP2 PUSH20 0xFFFFFFFFFFFFFFFFFFFFFFFFFFFFFFFFFFFFFFFF AND DUP2 PUSH20 0xFFFFFFFFFFFFFFFFFFFFFFFFFFFFFFFFFFFFFFFF AND PUSH32 0x8BE0079C531659141344CD1FD0A4F28419497F9722A3DAAFE3B4186F6B6457E0 PUSH1 0x40 MLOAD PUSH1 0x40 MLOAD DUP1 SWAP2 SUB SWAP1 LOG3 POP POP JUMP JUMPDEST PUSH1 0x3 PUSH1 0x8 DUP2 GT ISZERO PUSH2 0x510 JUMPI PUSH2 0x50F PUSH2 0x381C JUMP JUMPDEST JUMPDEST DUP2 PUSH1 0x20 ADD MLOAD PUSH1 0x8 DUP2 GT ISZERO PUSH2 0x527 JUMPI PUSH2 0x526 PUSH2 0x381C JUMP JUMPDEST JUMPDEST EQ ISZERO PUSH2 0x596 JUMPI PUSH1 0x0 DUP1 PUSH2 0x545 PUSH1 0x0 DUP5 PUSH1 0x40 ADD MLOAD DUP6 PUSH1 0x40 ADD MLOAD MLOAD PUSH2 0x92F JUMP JUMPDEST SWAP3 POP POP SWAP2 POP DUP2 PUSH2 0x58A JUMPI PUSH1 0x40 MLOAD PUSH32 0x8C379A000000000000000000000000000000000000000000000000000000000 DUP2 MSTORE PUSH1 0x4 ADD PUSH2 0x581 SWAP1 PUSH2 0x3445 JUMP JUMPDEST PUSH1 0x40 MLOAD DUP1 SWAP2 SUB SWAP1 REVERT JUMPDEST PUSH2 0x593 DUP2 PUSH2 0xAE9 JUMP JUMPDEST POP POP JUMPDEST PUSH1 0x7 PUSH1 0x8 DUP2 GT ISZERO PUSH2 0x5AA JUMPI PUSH2 0x5A9 PUSH2 0x381C JUMP JUMPDEST JUMPDEST DUP2 PUSH1 0x20 ADD MLOAD PUSH1 0x8 DUP2 GT ISZERO PUSH2 0x5C1 JUMPI PUSH2 0x5C0 PUSH2 0x381C JUMP JUMPDEST JUMPDEST EQ ISZERO PUSH2 0x630 JUMPI PUSH1 0x0 DUP1 PUSH2 0x5DF PUSH1 0x0 DUP5 PUSH1 0x40 ADD MLOAD DUP6 PUSH1 0x40 ADD MLOAD MLOAD PUSH2 0xC96 JUMP JUMPDEST SWAP3 POP POP SWAP2 POP DUP2 PUSH2 0x624 JUMPI PUSH1 0x40 MLOAD PUSH32 0x8C379A000000000000000000000000000000000000000000000000000000000 DUP2 MSTORE PUSH1 0x4 ADD PUSH2 0x61B SWAP1 PUSH2 0x3405 JUMP JUMPDEST PUSH1 0x40 MLOAD DUP1 SWAP2 SUB SWAP1 REVERT JUMPDEST PUSH2 0x62D DUP2 PUSH2 0xE50 JUMP JUMPDEST POP POP JUMPDEST PUSH1 0x8 DUP1 DUP2 GT ISZERO PUSH2 0x643 JUMPI PUSH2 0x642 PUSH2 0x381C JUMP JUMPDEST JUMPDEST DUP2 PUSH1 0x20 ADD MLOAD PUSH1 0x8 DUP2 GT ISZERO PUSH2 0x65A JUMPI PUSH2 0x659 PUSH2 0x381C JUMP JUMPDEST JUMPDEST EQ ISZERO PUSH2 0x6C9 JUMPI PUSH1 0x0 DUP1 PUSH2 0x678 PUSH1 0x0 DUP5 PUSH1 0x40 ADD MLOAD DUP6 PUSH1 0x40 ADD MLOAD MLOAD PUSH2 0x1160 JUMP JUMPDEST SWAP3 POP POP SWAP2 POP DUP2 PUSH2 0x6BD JUMPI PUSH1 0x40 MLOAD PUSH32 0x8C379A000000000000000000000000000000000000000000000000000000000 DUP2 MSTORE PUSH1 0x4 ADD PUSH2 0x6B4 SWAP1 PUSH2 0x33C5 JUMP JUMPDEST PUSH1 0x40 MLOAD DUP1 SWAP2 SUB SWAP1 REVERT JUMPDEST PUSH2 0x6C6 DUP2 PUSH2 0x131A JUMP JUMPDEST POP POP JUMPDEST POP JUMP JUMPDEST PUSH1 0x0 JUMPDEST PUSH1 0x6 DUP1 SLOAD SWAP1 POP DUP2 LT ISZERO PUSH2 0x770 JUMPI PUSH1 0x5 PUSH1 0x0 PUSH1 0x6 DUP4 DUP2 SLOAD DUP2 LT PUSH2 0x6F4 JUMPI PUSH2 0x6F3 PUSH2 0x387A JUMP JUMPDEST JUMPDEST SWAP1 PUSH1 0x0 MSTORE PUSH1 0x20 PUSH1 0x0 KECCAK256 ADD PUSH1 0x0 SWAP1 SLOAD SWAP1 PUSH2 0x100 EXP SWAP1 DIV PUSH20 0xFFFFFFFFFFFFFFFFFFFFFFFFFFFFFFFFFFFFFFFF AND PUSH20 0xFFFFFFFFFFFFFFFFFFFFFFFFFFFFFFFFFFFFFFFF AND PUSH20 0xFFFFFFFFFFFFFFFFFFFFFFFFFFFFFFFFFFFFFFFF AND DUP2 MSTORE PUSH1 0x20 ADD SWAP1 DUP2 MSTORE PUSH1 0x20 ADD PUSH1 0x0 KECCAK256 PUSH1 0x0 SWAP1 SSTORE DUP1 DUP1 PUSH2 0x768 SWAP1 PUSH2 0x3773 JUMP JUMPDEST SWAP2 POP POP PUSH2 0x6CF JUMP JUMPDEST POP PUSH1 0x6 PUSH1 0x0 PUSH2 0x77F SWAP2 SWAP1 PUSH2 0x2E45 JUMP JUMPDEST PUSH3 0xF4240 PUSH1 0x0 PUSH2 0x78F SWAP2 SWAP1 PUSH2 0x35A2 JUMP JUMPDEST PUSH1 0x7 DUP2 SWAP1 SSTORE POP PUSH1 0x0 JUMPDEST PUSH1 0xA DUP1 SLOAD SWAP1 POP DUP2 LT ISZERO PUSH2 0x8BA JUMPI PUSH1 0x8 PUSH1 0x0 PUSH1 0xA DUP4 DUP2 SLOAD DUP2 LT PUSH2 0x7BD JUMPI PUSH2 0x7BC PUSH2 0x387A JUMP JUMPDEST JUMPDEST SWAP1 PUSH1 0x0 MSTORE PUSH1 0x20 PUSH1 0x0 KECCAK256 ADD PUSH1 0x0 SWAP1 SLOAD SWAP1 PUSH2 0x100 EXP SWAP1 DIV PUSH20 0xFFFFFFFFFFFFFFFFFFFFFFFFFFFFFFFFFFFFFFFF AND PUSH20 0xFFFFFFFFFFFFFFFFFFFFFFFFFFFFFFFFFFFFFFFF AND PUSH20 0xFFFFFFFFFFFFFFFFFFFFFFFFFFFFFFFFFFFFFFFF AND DUP2 MSTORE PUSH1 0x20 ADD SWAP1 DUP2 MSTORE PUSH1 0x20 ADD PUSH1 0x0 KECCAK256 PUSH1 0x0 SWAP1 SSTORE PUSH1 0x9 PUSH1 0x0 PUSH1 0xA DUP4 DUP2 SLOAD DUP2 LT PUSH2 0x83E JUMPI PUSH2 0x83D PUSH2 0x387A JUMP JUMPDEST JUMPDEST SWAP1 PUSH1 0x0 MSTORE PUSH1 0x20 PUSH1 0x0 KECCAK256 ADD PUSH1 0x0 SWAP1 SLOAD SWAP1 PUSH2 0x100 EXP SWAP1 DIV PUSH20 0xFFFFFFFFFFFFFFFFFFFFFFFFFFFFFFFFFFFFFFFF AND PUSH20 0xFFFFFFFFFFFFFFFFFFFFFFFFFFFFFFFFFFFFFFFF AND PUSH20 0xFFFFFFFFFFFFFFFFFFFFFFFFFFFFFFFFFFFFFFFF AND DUP2 MSTORE PUSH1 0x20 ADD SWAP1 DUP2 MSTORE PUSH1 0x20 ADD PUSH1 0x0 KECCAK256 PUSH1 0x0 SWAP1 SSTORE DUP1 DUP1 PUSH2 0x8B2 SWAP1 PUSH2 0x3773 JUMP JUMPDEST SWAP2 POP POP PUSH2 0x798 JUMP JUMPDEST POP PUSH1 0xA PUSH1 0x0 PUSH2 0x8C9 SWAP2 SWAP1 PUSH2 0x2E45 JUMP JUMPDEST PUSH1 0x40 MLOAD DUP1 PUSH1 0x20 ADD PUSH1 0x40 MSTORE DUP1 PUSH1 0x0 DUP2 MSTORE POP PUSH1 0x1 SWAP1 DUP1 MLOAD SWAP1 PUSH1 0x20 ADD SWAP1 PUSH2 0x8EE SWAP3 SWAP2 SWAP1 PUSH2 0x2E66 JUMP JUMPDEST POP PUSH1 0x40 MLOAD DUP1 PUSH1 0x20 ADD PUSH1 0x40 MSTORE DUP1 PUSH1 0x0 DUP2 MSTORE POP PUSH1 0x2 SWAP1 DUP1 MLOAD SWAP1 PUSH1 0x20 ADD SWAP1 PUSH2 0x914 SWAP3 SWAP2 SWAP1 PUSH2 0x2E66 JUMP JUMPDEST POP PUSH1 0x0 PUSH1 0x3 DUP2 SWAP1 SSTORE POP PUSH1 0x0 PUSH1 0x4 DUP2 SWAP1 SSTORE POP JUMP JUMPDEST PUSH1 0x0 CALLER SWAP1 POP SWAP1 JUMP JUMPDEST PUSH1 0x0 DUP1 PUSH2 0x93A PUSH2 0x2EEC JUMP JUMPDEST PUSH2 0x942 PUSH2 0x2EEC JUMP JUMPDEST PUSH1 0x0 DUP1 DUP9 SWAP1 POP DUP1 PUSH8 0xFFFFFFFFFFFFFFFF AND DUP8 DUP3 PUSH2 0x95F SWAP2 SWAP1 PUSH2 0x3564 JUMP JUMPDEST PUSH8 0xFFFFFFFFFFFFFFFF AND LT ISZERO PUSH2 0x981 JUMPI PUSH1 0x0 DUP2 DUP5 SWAP6 POP SWAP6 POP SWAP6 POP POP POP POP PUSH2 0xAE0 JUMP JUMPDEST JUMPDEST DUP7 PUSH8 0xFFFFFFFFFFFFFFFF AND DUP10 DUP3 PUSH2 0x999 SWAP2 SWAP1 PUSH2 0x363E JUMP JUMPDEST PUSH8 0xFFFFFFFFFFFFFFFF AND LT ISZERO PUSH2 0xA9A JUMPI PUSH1 0x0 DUP1 PUSH1 0x0 PUSH2 0x9B8 DUP5 DUP13 PUSH2 0x162A JUMP JUMPDEST DUP1 SWAP5 POP DUP2 SWAP6 POP DUP3 SWAP8 POP DUP4 SWAP7 POP POP POP POP POP DUP3 PUSH2 0x9E2 JUMPI PUSH1 0x0 DUP5 DUP8 SWAP9 POP SWAP9 POP SWAP9 POP POP POP POP POP POP POP PUSH2 0xAE0 JUMP JUMPDEST PUSH1 0x5 DUP3 PUSH8 0xFFFFFFFFFFFFFFFF AND GT ISZERO PUSH2 0xA0A JUMPI PUSH1 0x0 DUP5 DUP8 SWAP9 POP SWAP9 POP SWAP9 POP POP POP POP POP POP POP PUSH2 0xAE0 JUMP JUMPDEST DUP5 PUSH8 0xFFFFFFFFFFFFFFFF AND DUP3 PUSH8 0xFFFFFFFFFFFFFFFF AND GT PUSH2 0xA3A JUMPI PUSH1 0x0 DUP5 DUP8 SWAP9 POP SWAP9 POP SWAP9 POP POP POP POP POP POP POP PUSH2 0xAE0 JUMP JUMPDEST PUSH2 0xA44 DUP3 DUP3 PUSH2 0x1776 JUMP JUMPDEST SWAP3 POP DUP3 PUSH2 0xA60 JUMPI PUSH1 0x0 DUP5 DUP8 SWAP9 POP SWAP9 POP SWAP9 POP POP POP POP POP POP POP PUSH2 0xAE0 JUMP JUMPDEST PUSH2 0xA6D DUP5 DUP13 DUP13 DUP6 DUP11 PUSH2 0x18CD JUMP JUMPDEST DUP1 SWAP6 POP DUP2 SWAP5 POP POP POP DUP3 PUSH2 0xA8F JUMPI PUSH1 0x0 DUP5 DUP8 SWAP9 POP SWAP9 POP SWAP9 POP POP POP POP POP POP POP PUSH2 0xAE0 JUMP JUMPDEST DUP2 SWAP5 POP POP POP POP PUSH2 0x982 JUMP JUMPDEST DUP7 DUP10 PUSH2 0xAA6 SWAP2 SWAP1 PUSH2 0x3564 JUMP JUMPDEST PUSH8 0xFFFFFFFFFFFFFFFF AND DUP2 PUSH8 0xFFFFFFFFFFFFFFFF AND EQ PUSH2 0xAD2 JUMPI PUSH1 0x0 DUP2 DUP5 SWAP6 POP SWAP6 POP SWAP6 POP POP POP POP PUSH2 0xAE0 JUMP JUMPDEST PUSH1 0x1 DUP2 DUP5 SWAP6 POP SWAP6 POP SWAP6 POP POP POP POP JUMPDEST SWAP4 POP SWAP4 POP SWAP4 SWAP1 POP JUMP JUMPDEST DUP1 PUSH1 0x0 ADD MLOAD PUSH1 0x1 SWAP1 DUP1 MLOAD SWAP1 PUSH1 0x20 ADD SWAP1 PUSH2 0xB03 SWAP3 SWAP2 SWAP1 PUSH2 0x2F2F JUMP JUMPDEST POP DUP1 PUSH1 0x40 ADD MLOAD PUSH8 0xFFFFFFFFFFFFFFFF AND PUSH1 0x3 DUP2 SWAP1 SSTORE POP DUP1 PUSH1 0x20 ADD MLOAD PUSH1 0x2 SWAP1 DUP1 MLOAD SWAP1 PUSH1 0x20 ADD SWAP1 PUSH2 0xB33 SWAP3 SWAP2 SWAP1 PUSH2 0x2F2F JUMP JUMPDEST POP DUP1 PUSH1 0x60 ADD MLOAD PUSH8 0xFFFFFFFFFFFFFFFF AND PUSH1 0x3 DUP2 SWAP1 SSTORE POP PUSH3 0xF4240 PUSH1 0x0 PUSH2 0xB59 SWAP2 SWAP1 PUSH2 0x35A2 JUMP JUMPDEST PUSH1 0x7 DUP2 SWAP1 SSTORE POP PUSH1 0x0 PUSH2 0xB6E DUP3 PUSH1 0x80 ADD MLOAD PUSH2 0x1A55 JUMP JUMPDEST SWAP1 POP DUP2 PUSH1 0x40 ADD MLOAD PUSH8 0xFFFFFFFFFFFFFFFF AND PUSH1 0x8 PUSH1 0x0 DUP4 PUSH20 0xFFFFFFFFFFFFFFFFFFFFFFFFFFFFFFFFFFFFFFFF AND PUSH20 0xFFFFFFFFFFFFFFFFFFFFFFFFFFFFFFFFFFFFFFFF AND DUP2 MSTORE PUSH1 0x20 ADD SWAP1 DUP2 MSTORE PUSH1 0x20 ADD PUSH1 0x0 KECCAK256 DUP2 SWAP1 SSTORE POP DUP2 PUSH1 0x60 ADD MLOAD PUSH8 0xFFFFFFFFFFFFFFFF AND PUSH1 0x9 PUSH1 0x0 DUP4 PUSH20 0xFFFFFFFFFFFFFFFFFFFFFFFFFFFFFFFFFFFFFFFF AND PUSH20 0xFFFFFFFFFFFFFFFFFFFFFFFFFFFFFFFFFFFFFFFF AND DUP2 MSTORE PUSH1 0x20 ADD SWAP1 DUP2 MSTORE PUSH1 0x20 ADD PUSH1 0x0 KECCAK256 DUP2 SWAP1 SSTORE POP PUSH1 0xA DUP2 SWAP1 DUP1 PUSH1 0x1 DUP2 SLOAD ADD DUP1 DUP3 SSTORE DUP1 SWAP2 POP POP PUSH1 0x1 SWAP1 SUB SWAP1 PUSH1 0x0 MSTORE PUSH1 0x20 PUSH1 0x0 KECCAK256 ADD PUSH1 0x0 SWAP1 SWAP2 SWAP1 SWAP2 SWAP1 SWAP2 PUSH2 0x100 EXP DUP2 SLOAD DUP2 PUSH20 0xFFFFFFFFFFFFFFFFFFFFFFFFFFFFFFFFFFFFFFFF MUL NOT AND SWAP1 DUP4 PUSH20 0xFFFFFFFFFFFFFFFFFFFFFFFFFFFFFFFFFFFFFFFF AND MUL OR SWAP1 SSTORE POP PUSH1 0x1 PUSH1 0xB PUSH1 0x0 PUSH2 0x100 EXP DUP2 SLOAD DUP2 PUSH1 0xFF MUL NOT AND SWAP1 DUP4 ISZERO ISZERO MUL OR SWAP1 SSTORE POP POP POP JUMP JUMPDEST PUSH1 0x0 DUP1 PUSH2 0xCA1 PUSH2 0x2FB5 JUMP JUMPDEST PUSH2 0xCA9 PUSH2 0x2FB5 JUMP JUMPDEST PUSH1 0x0 DUP1 DUP9 SWAP1 POP DUP1 PUSH8 0xFFFFFFFFFFFFFFFF AND DUP8 DUP3 PUSH2 0xCC6 SWAP2 SWAP1 PUSH2 0x3564 JUMP JUMPDEST PUSH8 0xFFFFFFFFFFFFFFFF AND LT ISZERO PUSH2 0xCE8 JUMPI PUSH1 0x0 DUP2 DUP5 SWAP6 POP SWAP6 POP SWAP6 POP POP POP POP PUSH2 0xE47 JUMP JUMPDEST JUMPDEST DUP7 PUSH8 0xFFFFFFFFFFFFFFFF AND DUP10 DUP3 PUSH2 0xD00 SWAP2 SWAP1 PUSH2 0x363E JUMP JUMPDEST PUSH8 0xFFFFFFFFFFFFFFFF AND LT ISZERO PUSH2 0xE01 JUMPI PUSH1 0x0 DUP1 PUSH1 0x0 PUSH2 0xD1F DUP5 DUP13 PUSH2 0x162A JUMP JUMPDEST DUP1 SWAP5 POP DUP2 SWAP6 POP DUP3 SWAP8 POP DUP4 SWAP7 POP POP POP POP POP DUP3 PUSH2 0xD49 JUMPI PUSH1 0x0 DUP5 DUP8 SWAP9 POP SWAP9 POP SWAP9 POP POP POP POP POP POP POP PUSH2 0xE47 JUMP JUMPDEST PUSH1 0x3 DUP3 PUSH8 0xFFFFFFFFFFFFFFFF AND GT ISZERO PUSH2 0xD71 JUMPI PUSH1 0x0 DUP5 DUP8 SWAP9 POP SWAP9 POP SWAP9 POP POP POP POP POP POP POP PUSH2 0xE47 JUMP JUMPDEST DUP5 PUSH8 0xFFFFFFFFFFFFFFFF AND DUP3 PUSH8 0xFFFFFFFFFFFFFFFF AND GT PUSH2 0xDA1 JUMPI PUSH1 0x0 DUP5 DUP8 SWAP9 POP SWAP9 POP SWAP9 POP POP POP POP POP POP POP PUSH2 0xE47 JUMP JUMPDEST PUSH2 0xDAB DUP3 DUP3 PUSH2 0x1AAD JUMP JUMPDEST SWAP3 POP DUP3 PUSH2 0xDC7 JUMPI PUSH1 0x0 DUP5 DUP8 SWAP9 POP SWAP9 POP SWAP9 POP POP POP POP POP POP POP PUSH2 0xE47 JUMP JUMPDEST PUSH2 0xDD4 DUP5 DUP13 DUP13 DUP6 DUP11 PUSH2 0x1B80 JUMP JUMPDEST DUP1 SWAP6 POP DUP2 SWAP5 POP POP POP DUP3 PUSH2 0xDF6 JUMPI PUSH1 0x0 DUP5 DUP8 SWAP9 POP SWAP9 POP SWAP9 POP POP POP POP POP POP POP PUSH2 0xE47 JUMP JUMPDEST DUP2 SWAP5 POP POP POP POP PUSH2 0xCE9 JUMP JUMPDEST DUP7 DUP10 PUSH2 0xE0D SWAP2 SWAP1 PUSH2 0x3564 JUMP JUMPDEST PUSH8 0xFFFFFFFFFFFFFFFF AND DUP2 PUSH8 0xFFFFFFFFFFFFFFFF AND EQ PUSH2 0xE39 JUMPI PUSH1 0x0 DUP2 DUP5 SWAP6 POP SWAP6 POP SWAP6 POP POP POP POP PUSH2 0xE47 JUMP JUMPDEST PUSH1 0x1 DUP2 DUP5 SWAP6 POP SWAP6 POP SWAP6 POP POP POP POP JUMPDEST SWAP4 POP SWAP4 POP SWAP4 SWAP1 POP JUMP JUMPDEST PUSH1 0x0 PUSH2 0xE5F DUP3 PUSH1 0x40 ADD MLOAD PUSH2 0x1A55 JUMP JUMPDEST SWAP1 POP PUSH2 0xEF9 PUSH1 0x1 DUP1 SLOAD PUSH2 0xE71 SWAP1 PUSH2 0x3710 JUMP JUMPDEST DUP1 PUSH1 0x1F ADD PUSH1 0x20 DUP1 SWAP2 DIV MUL PUSH1 0x20 ADD PUSH1 0x40 MLOAD SWAP1 DUP2 ADD PUSH1 0x40 MSTORE DUP1 SWAP3 SWAP2 SWAP1 DUP2 DUP2 MSTORE PUSH1 0x20 ADD DUP3 DUP1 SLOAD PUSH2 0xE9D SWAP1 PUSH2 0x3710 JUMP JUMPDEST DUP1 ISZERO PUSH2 0xEEA JUMPI DUP1 PUSH1 0x1F LT PUSH2 0xEBF JUMPI PUSH2 0x100 DUP1 DUP4 SLOAD DIV MUL DUP4 MSTORE SWAP2 PUSH1 0x20 ADD SWAP2 PUSH2 0xEEA JUMP JUMPDEST DUP3 ADD SWAP2 SWAP1 PUSH1 0x0 MSTORE PUSH1 0x20 PUSH1 0x0 KECCAK256 SWAP1 JUMPDEST DUP2 SLOAD DUP2 MSTORE SWAP1 PUSH1 0x1 ADD SWAP1 PUSH1 0x20 ADD DUP1 DUP4 GT PUSH2 0xECD JUMPI DUP3 SWAP1 SUB PUSH1 0x1F AND DUP3 ADD SWAP2 JUMPDEST POP POP POP POP POP DUP4 PUSH1 0x0 ADD MLOAD PUSH2 0x1C76 JUMP JUMPDEST ISZERO PUSH2 0xF63 JUMPI DUP2 PUSH1 0x20 ADD MLOAD PUSH8 0xFFFFFFFFFFFFFFFF AND PUSH1 0x8 PUSH1 0x0 DUP4 PUSH20 0xFFFFFFFFFFFFFFFFFFFFFFFFFFFFFFFFFFFFFFFF AND PUSH20 0xFFFFFFFFFFFFFFFFFFFFFFFFFFFFFFFFFFFFFFFF AND DUP2 MSTORE PUSH1 0x20 ADD SWAP1 DUP2 MSTORE PUSH1 0x20 ADD PUSH1 0x0 KECCAK256 PUSH1 0x0 DUP3 DUP3 SLOAD PUSH2 0xF5B SWAP2 SWAP1 PUSH2 0x350E JUMP JUMPDEST SWAP3 POP POP DUP2 SWAP1 SSTORE POP JUMPDEST PUSH2 0xFFB PUSH1 0x2 DUP1 SLOAD PUSH2 0xF73 SWAP1 PUSH2 0x3710 JUMP JUMPDEST DUP1 PUSH1 0x1F ADD PUSH1 0x20 DUP1 SWAP2 DIV MUL PUSH1 0x20 ADD PUSH1 0x40 MLOAD SWAP1 DUP2 ADD PUSH1 0x40 MSTORE DUP1 SWAP3 SWAP2 SWAP1 DUP2 DUP2 MSTORE PUSH1 0x20 ADD DUP3 DUP1 SLOAD PUSH2 0xF9F SWAP1 PUSH2 0x3710 JUMP JUMPDEST DUP1 ISZERO PUSH2 0xFEC JUMPI DUP1 PUSH1 0x1F LT PUSH2 0xFC1 JUMPI PUSH2 0x100 DUP1 DUP4 SLOAD DIV MUL DUP4 MSTORE SWAP2 PUSH1 0x20 ADD SWAP2 PUSH2 0xFEC JUMP JUMPDEST DUP3 ADD SWAP2 SWAP1 PUSH1 0x0 MSTORE PUSH1 0x20 PUSH1 0x0 KECCAK256 SWAP1 JUMPDEST DUP2 SLOAD DUP2 MSTORE SWAP1 PUSH1 0x1 ADD SWAP1 PUSH1 0x20 ADD DUP1 DUP4 GT PUSH2 0xFCF JUMPI DUP3 SWAP1 SUB PUSH1 0x1F AND DUP3 ADD SWAP2 JUMPDEST POP POP POP POP POP DUP4 PUSH1 0x0 ADD MLOAD PUSH2 0x1C76 JUMP JUMPDEST ISZERO PUSH2 0x1065 JUMPI DUP2 PUSH1 0x20 ADD MLOAD PUSH8 0xFFFFFFFFFFFFFFFF AND PUSH1 0x9 PUSH1 0x0 DUP4 PUSH20 0xFFFFFFFFFFFFFFFFFFFFFFFFFFFFFFFFFFFFFFFF AND PUSH20 0xFFFFFFFFFFFFFFFFFFFFFFFFFFFFFFFFFFFFFFFF AND DUP2 MSTORE PUSH1 0x20 ADD SWAP1 DUP2 MSTORE PUSH1 0x20 ADD PUSH1 0x0 KECCAK256 PUSH1 0x0 DUP3 DUP3 SLOAD PUSH2 0x105D SWAP2 SWAP1 PUSH2 0x350E JUMP JUMPDEST SWAP3 POP POP DUP2 SWAP1 SSTORE POP JUMPDEST PUSH1 0x0 PUSH1 0x8 PUSH1 0x0 DUP4 PUSH20 0xFFFFFFFFFFFFFFFFFFFFFFFFFFFFFFFFFFFFFFFF AND PUSH20 0xFFFFFFFFFFFFFFFFFFFFFFFFFFFFFFFFFFFFFFFF AND DUP2 MSTORE PUSH1 0x20 ADD SWAP1 DUP2 MSTORE PUSH1 0x20 ADD PUSH1 0x0 KECCAK256 SLOAD EQ DUP1 ISZERO PUSH2 0x10F3 JUMPI POP PUSH1 0x0 PUSH1 0x9 PUSH1 0x0 DUP4 PUSH20 0xFFFFFFFFFFFFFFFFFFFFFFFFFFFFFFFFFFFFFFFF AND PUSH20 0xFFFFFFFFFFFFFFFFFFFFFFFFFFFFFFFFFFFFFFFF AND DUP2 MSTORE PUSH1 0x20 ADD SWAP1 DUP2 MSTORE PUSH1 0x20 ADD PUSH1 0x0 KECCAK256 SLOAD EQ JUMPDEST ISZERO PUSH2 0x115C JUMPI PUSH1 0xA DUP2 SWAP1 DUP1 PUSH1 0x1 DUP2 SLOAD ADD DUP1 DUP3 SSTORE DUP1 SWAP2 POP POP PUSH1 0x1 SWAP1 SUB SWAP1 PUSH1 0x0 MSTORE PUSH1 0x20 PUSH1 0x0 KECCAK256 ADD PUSH1 0x0 SWAP1 SWAP2 SWAP1 SWAP2 SWAP1 SWAP2 PUSH2 0x100 EXP DUP2 SLOAD DUP2 PUSH20 0xFFFFFFFFFFFFFFFFFFFFFFFFFFFFFFFFFFFFFFFF MUL NOT AND SWAP1 DUP4 PUSH20 0xFFFFFFFFFFFFFFFFFFFFFFFFFFFFFFFFFFFFFFFF AND MUL OR SWAP1 SSTORE POP JUMPDEST POP POP JUMP JUMPDEST PUSH1 0x0 DUP1 PUSH2 0x116B PUSH2 0x2FE0 JUMP JUMPDEST PUSH2 0x1173 PUSH2 0x2FE0 JUMP JUMPDEST PUSH1 0x0 DUP1 DUP9 SWAP1 POP DUP1 PUSH8 0xFFFFFFFFFFFFFFFF AND DUP8 DUP3 PUSH2 0x1190 SWAP2 SWAP1 PUSH2 0x3564 JUMP JUMPDEST PUSH8 0xFFFFFFFFFFFFFFFF AND LT ISZERO PUSH2 0x11B2 JUMPI PUSH1 0x0 DUP2 DUP5 SWAP6 POP SWAP6 POP SWAP6 POP POP POP POP PUSH2 0x1311 JUMP JUMPDEST JUMPDEST DUP7 PUSH8 0xFFFFFFFFFFFFFFFF AND DUP10 DUP3 PUSH2 0x11CA SWAP2 SWAP1 PUSH2 0x363E JUMP JUMPDEST PUSH8 0xFFFFFFFFFFFFFFFF AND LT ISZERO PUSH2 0x12CB JUMPI PUSH1 0x0 DUP1 PUSH1 0x0 PUSH2 0x11E9 DUP5 DUP13 PUSH2 0x162A JUMP JUMPDEST DUP1 SWAP5 POP DUP2 SWAP6 POP DUP3 SWAP8 POP DUP4 SWAP7 POP POP POP POP POP DUP3 PUSH2 0x1213 JUMPI PUSH1 0x0 DUP5 DUP8 SWAP9 POP SWAP9 POP SWAP9 POP POP POP POP POP POP POP PUSH2 0x1311 JUMP JUMPDEST PUSH1 0x3 DUP3 PUSH8 0xFFFFFFFFFFFFFFFF AND GT ISZERO PUSH2 0x123B JUMPI PUSH1 0x0 DUP5 DUP8 SWAP9 POP SWAP9 POP SWAP9 POP POP POP POP POP POP POP PUSH2 0x1311 JUMP JUMPDEST DUP5 PUSH8 0xFFFFFFFFFFFFFFFF AND DUP3 PUSH8 0xFFFFFFFFFFFFFFFF AND GT PUSH2 0x126B JUMPI PUSH1 0x0 DUP5 DUP8 SWAP9 POP SWAP9 POP SWAP9 POP POP POP POP POP POP POP PUSH2 0x1311 JUMP JUMPDEST PUSH2 0x1275 DUP3 DUP3 PUSH2 0x1CCF JUMP JUMPDEST SWAP3 POP DUP3 PUSH2 0x1291 JUMPI PUSH1 0x0 DUP5 DUP8 SWAP9 POP SWAP9 POP SWAP9 POP POP POP POP POP POP POP PUSH2 0x1311 JUMP JUMPDEST PUSH2 0x129E DUP5 DUP13 DUP13 DUP6 DUP11 PUSH2 0x1DA2 JUMP JUMPDEST DUP1 SWAP6 POP DUP2 SWAP5 POP POP POP DUP3 PUSH2 0x12C0 JUMPI PUSH1 0x0 DUP5 DUP8 SWAP9 POP SWAP9 POP SWAP9 POP POP POP POP POP POP POP PUSH2 0x1311 JUMP JUMPDEST DUP2 SWAP5 POP POP POP POP PUSH2 0x11B3 JUMP JUMPDEST DUP7 DUP10 PUSH2 0x12D7 SWAP2 SWAP1 PUSH2 0x3564 JUMP JUMPDEST PUSH8 0xFFFFFFFFFFFFFFFF AND DUP2 PUSH8 0xFFFFFFFFFFFFFFFF AND EQ PUSH2 0x1303 JUMPI PUSH1 0x0 DUP2 DUP5 SWAP6 POP SWAP6 POP SWAP6 POP POP POP POP PUSH2 0x1311 JUMP JUMPDEST PUSH1 0x1 DUP2 DUP5 SWAP6 POP SWAP6 POP SWAP6 POP POP POP POP JUMPDEST SWAP4 POP SWAP4 POP SWAP4 SWAP1 POP JUMP JUMPDEST PUSH1 0x0 PUSH2 0x1329 DUP3 PUSH1 0x40 ADD MLOAD PUSH2 0x1A55 JUMP JUMPDEST SWAP1 POP PUSH2 0x13C3 PUSH1 0x1 DUP1 SLOAD PUSH2 0x133B SWAP1 PUSH2 0x3710 JUMP JUMPDEST DUP1 PUSH1 0x1F ADD PUSH1 0x20 DUP1 SWAP2 DIV MUL PUSH1 0x20 ADD PUSH1 0x40 MLOAD SWAP1 DUP2 ADD PUSH1 0x40 MSTORE DUP1 SWAP3 SWAP2 SWAP1 DUP2 DUP2 MSTORE PUSH1 0x20 ADD DUP3 DUP1 SLOAD PUSH2 0x1367 SWAP1 PUSH2 0x3710 JUMP JUMPDEST DUP1 ISZERO PUSH2 0x13B4 JUMPI DUP1 PUSH1 0x1F LT PUSH2 0x1389 JUMPI PUSH2 0x100 DUP1 DUP4 SLOAD DIV MUL DUP4 MSTORE SWAP2 PUSH1 0x20 ADD SWAP2 PUSH2 0x13B4 JUMP JUMPDEST DUP3 ADD SWAP2 SWAP1 PUSH1 0x0 MSTORE PUSH1 0x20 PUSH1 0x0 KECCAK256 SWAP1 JUMPDEST DUP2 SLOAD DUP2 MSTORE SWAP1 PUSH1 0x1 ADD SWAP1 PUSH1 0x20 ADD DUP1 DUP4 GT PUSH2 0x1397 JUMPI DUP3 SWAP1 SUB PUSH1 0x1F AND DUP3 ADD SWAP2 JUMPDEST POP POP POP POP POP DUP4 PUSH1 0x0 ADD MLOAD PUSH2 0x1C76 JUMP JUMPDEST ISZERO PUSH2 0x142D JUMPI DUP2 PUSH1 0x20 ADD MLOAD PUSH8 0xFFFFFFFFFFFFFFFF AND PUSH1 0x8 PUSH1 0x0 DUP4 PUSH20 0xFFFFFFFFFFFFFFFFFFFFFFFFFFFFFFFFFFFFFFFF AND PUSH20 0xFFFFFFFFFFFFFFFFFFFFFFFFFFFFFFFFFFFFFFFF AND DUP2 MSTORE PUSH1 0x20 ADD SWAP1 DUP2 MSTORE PUSH1 0x20 ADD PUSH1 0x0 KECCAK256 PUSH1 0x0 DUP3 DUP3 SLOAD PUSH2 0x1425 SWAP2 SWAP1 PUSH2 0x350E JUMP JUMPDEST SWAP3 POP POP DUP2 SWAP1 SSTORE POP JUMPDEST PUSH2 0x14C5 PUSH1 0x2 DUP1 SLOAD PUSH2 0x143D SWAP1 PUSH2 0x3710 JUMP JUMPDEST DUP1 PUSH1 0x1F ADD PUSH1 0x20 DUP1 SWAP2 DIV MUL PUSH1 0x20 ADD PUSH1 0x40 MLOAD SWAP1 DUP2 ADD PUSH1 0x40 MSTORE DUP1 SWAP3 SWAP2 SWAP1 DUP2 DUP2 MSTORE PUSH1 0x20 ADD DUP3 DUP1 SLOAD PUSH2 0x1469 SWAP1 PUSH2 0x3710 JUMP JUMPDEST DUP1 ISZERO PUSH2 0x14B6 JUMPI DUP1 PUSH1 0x1F LT PUSH2 0x148B JUMPI PUSH2 0x100 DUP1 DUP4 SLOAD DIV MUL DUP4 MSTORE SWAP2 PUSH1 0x20 ADD SWAP2 PUSH2 0x14B6 JUMP JUMPDEST DUP3 ADD SWAP2 SWAP1 PUSH1 0x0 MSTORE PUSH1 0x20 PUSH1 0x0 KECCAK256 SWAP1 JUMPDEST DUP2 SLOAD DUP2 MSTORE SWAP1 PUSH1 0x1 ADD SWAP1 PUSH1 0x20 ADD DUP1 DUP4 GT PUSH2 0x1499 JUMPI DUP3 SWAP1 SUB PUSH1 0x1F AND DUP3 ADD SWAP2 JUMPDEST POP POP POP POP POP DUP4 PUSH1 0x0 ADD MLOAD PUSH2 0x1C76 JUMP JUMPDEST ISZERO PUSH2 0x152F JUMPI DUP2 PUSH1 0x20 ADD MLOAD PUSH8 0xFFFFFFFFFFFFFFFF AND PUSH1 0x9 PUSH1 0x0 DUP4 PUSH20 0xFFFFFFFFFFFFFFFFFFFFFFFFFFFFFFFFFFFFFFFF AND PUSH20 0xFFFFFFFFFFFFFFFFFFFFFFFFFFFFFFFFFFFFFFFF AND DUP2 MSTORE PUSH1 0x20 ADD SWAP1 DUP2 MSTORE PUSH1 0x20 ADD PUSH1 0x0 KECCAK256 PUSH1 0x0 DUP3 DUP3 SLOAD PUSH2 0x1527 SWAP2 SWAP1 PUSH2 0x350E JUMP JUMPDEST SWAP3 POP POP DUP2 SWAP1 SSTORE POP JUMPDEST PUSH1 0x0 PUSH1 0x8 PUSH1 0x0 DUP4 PUSH20 0xFFFFFFFFFFFFFFFFFFFFFFFFFFFFFFFFFFFFFFFF AND PUSH20 0xFFFFFFFFFFFFFFFFFFFFFFFFFFFFFFFFFFFFFFFF AND DUP2 MSTORE PUSH1 0x20 ADD SWAP1 DUP2 MSTORE PUSH1 0x20 ADD PUSH1 0x0 KECCAK256 SLOAD EQ DUP1 ISZERO PUSH2 0x15BD JUMPI POP PUSH1 0x0 PUSH1 0x9 PUSH1 0x0 DUP4 PUSH20 0xFFFFFFFFFFFFFFFFFFFFFFFFFFFFFFFFFFFFFFFF AND PUSH20 0xFFFFFFFFFFFFFFFFFFFFFFFFFFFFFFFFFFFFFFFF AND DUP2 MSTORE PUSH1 0x20 ADD SWAP1 DUP2 MSTORE PUSH1 0x20 ADD PUSH1 0x0 KECCAK256 SLOAD EQ JUMPDEST ISZERO PUSH2 0x1626 JUMPI PUSH1 0xA DUP2 SWAP1 DUP1 PUSH1 0x1 DUP2 SLOAD ADD DUP1 DUP3 SSTORE DUP1 SWAP2 POP POP PUSH1 0x1 SWAP1 SUB SWAP1 PUSH1 0x0 MSTORE PUSH1 0x20 PUSH1 0x0 KECCAK256 ADD PUSH1 0x0 SWAP1 SWAP2 SWAP1 SWAP2 SWAP1 SWAP2 PUSH2 0x100 EXP DUP2 SLOAD DUP2 PUSH20 0xFFFFFFFFFFFFFFFFFFFFFFFFFFFFFFFFFFFFFFFF MUL NOT AND SWAP1 DUP4 PUSH20 0xFFFFFFFFFFFFFFFFFFFFFFFFFFFFFFFFFFFFFFFF AND MUL OR SWAP1 SSTORE POP JUMPDEST POP POP JUMP JUMPDEST PUSH1 0x0 DUP1 PUSH1 0x0 DUP1 PUSH1 0x0 DUP1 PUSH1 0x0 PUSH2 0x163F DUP10 DUP10 PUSH2 0x1E98 JUMP JUMPDEST SWAP3 POP SWAP3 POP SWAP3 POP DUP3 PUSH2 0x1661 JUMPI PUSH1 0x0 DUP3 PUSH1 0x0 PUSH1 0x6 SWAP7 POP SWAP7 POP SWAP7 POP SWAP7 POP POP POP POP PUSH2 0x176D JUMP JUMPDEST PUSH1 0x0 PUSH1 0x3 DUP3 PUSH8 0xFFFFFFFFFFFFFFFF AND SWAP1 SHR SWAP1 POP PUSH1 0x0 PUSH1 0x7 DUP4 AND SWAP1 POP PUSH1 0x6 DUP1 DUP2 GT ISZERO PUSH2 0x168F JUMPI PUSH2 0x168E PUSH2 0x381C JUMP JUMPDEST JUMPDEST PUSH8 0xFFFFFFFFFFFFFFFF AND DUP2 PUSH8 0xFFFFFFFFFFFFFFFF AND LT PUSH2 0x16C2 JUMPI PUSH1 0x0 DUP5 PUSH1 0x0 PUSH1 0x6 SWAP9 POP SWAP9 POP SWAP9 POP SWAP9 POP POP POP POP POP POP PUSH2 0x176D JUMP JUMPDEST PUSH1 0x0 DUP2 PUSH8 0xFFFFFFFFFFFFFFFF AND PUSH1 0x6 DUP2 GT ISZERO PUSH2 0x16E1 JUMPI PUSH2 0x16E0 PUSH2 0x381C JUMP JUMPDEST JUMPDEST SWAP1 POP PUSH1 0x3 PUSH1 0x6 DUP2 GT ISZERO PUSH2 0x16F7 JUMPI PUSH2 0x16F6 PUSH2 0x381C JUMP JUMPDEST JUMPDEST DUP2 PUSH1 0x6 DUP2 GT ISZERO PUSH2 0x170A JUMPI PUSH2 0x1709 PUSH2 0x381C JUMP JUMPDEST JUMPDEST EQ DUP1 PUSH2 0x173A JUMPI POP PUSH1 0x4 PUSH1 0x6 DUP2 GT ISZERO PUSH2 0x1725 JUMPI PUSH2 0x1724 PUSH2 0x381C JUMP JUMPDEST JUMPDEST DUP2 PUSH1 0x6 DUP2 GT ISZERO PUSH2 0x1738 JUMPI PUSH2 0x1737 PUSH2 0x381C JUMP JUMPDEST JUMPDEST EQ JUMPDEST ISZERO PUSH2 0x1759 JUMPI PUSH1 0x0 DUP6 PUSH1 0x0 PUSH1 0x6 SWAP10 POP SWAP10 POP SWAP10 POP SWAP10 POP POP POP POP POP POP POP PUSH2 0x176D JUMP JUMPDEST PUSH1 0x1 DUP6 DUP5 DUP4 SWAP10 POP SWAP10 POP SWAP10 POP SWAP10 POP POP POP POP POP POP POP JUMPDEST SWAP3 SWAP6 SWAP2 SWAP5 POP SWAP3 POP JUMP JUMPDEST PUSH1 0x0 PUSH1 0x1 DUP4 PUSH8 0xFFFFFFFFFFFFFFFF AND EQ ISZERO PUSH2 0x17BA JUMPI PUSH1 0x2 PUSH1 0x6 DUP2 GT ISZERO PUSH2 0x179F JUMPI PUSH2 0x179E PUSH2 0x381C JUMP JUMPDEST JUMPDEST DUP3 PUSH1 0x6 DUP2 GT ISZERO PUSH2 0x17B2 JUMPI PUSH2 0x17B1 PUSH2 0x381C JUMP JUMPDEST JUMPDEST EQ SWAP1 POP PUSH2 0x18C7 JUMP JUMPDEST PUSH1 0x2 DUP4 PUSH8 0xFFFFFFFFFFFFFFFF AND EQ ISZERO PUSH2 0x17FC JUMPI PUSH1 0x2 PUSH1 0x6 DUP2 GT ISZERO PUSH2 0x17E1 JUMPI PUSH2 0x17E0 PUSH2 0x381C JUMP JUMPDEST JUMPDEST DUP3 PUSH1 0x6 DUP2 GT ISZERO PUSH2 0x17F4 JUMPI PUSH2 0x17F3 PUSH2 0x381C JUMP JUMPDEST JUMPDEST EQ SWAP1 POP PUSH2 0x18C7 JUMP JUMPDEST PUSH1 0x3 DUP4 PUSH8 0xFFFFFFFFFFFFFFFF AND EQ ISZERO PUSH2 0x183E JUMPI PUSH1 0x0 PUSH1 0x6 DUP2 GT ISZERO PUSH2 0x1823 JUMPI PUSH2 0x1822 PUSH2 0x381C JUMP JUMPDEST JUMPDEST DUP3 PUSH1 0x6 DUP2 GT ISZERO PUSH2 0x1836 JUMPI PUSH2 0x1835 PUSH2 0x381C JUMP JUMPDEST JUMPDEST EQ SWAP1 POP PUSH2 0x18C7 JUMP JUMPDEST PUSH1 0x4 DUP4 PUSH8 0xFFFFFFFFFFFFFFFF AND EQ ISZERO PUSH2 0x1880 JUMPI PUSH1 0x0 PUSH1 0x6 DUP2 GT ISZERO PUSH2 0x1865 JUMPI PUSH2 0x1864 PUSH2 0x381C JUMP JUMPDEST JUMPDEST DUP3 PUSH1 0x6 DUP2 GT ISZERO PUSH2 0x1878 JUMPI PUSH2 0x1877 PUSH2 0x381C JUMP JUMPDEST JUMPDEST EQ SWAP1 POP PUSH2 0x18C7 JUMP JUMPDEST PUSH1 0x5 DUP4 PUSH8 0xFFFFFFFFFFFFFFFF AND EQ ISZERO PUSH2 0x18C2 JUMPI PUSH1 0x2 PUSH1 0x6 DUP2 GT ISZERO PUSH2 0x18A7 JUMPI PUSH2 0x18A6 PUSH2 0x381C JUMP JUMPDEST JUMPDEST DUP3 PUSH1 0x6 DUP2 GT ISZERO PUSH2 0x18BA JUMPI PUSH2 0x18B9 PUSH2 0x381C JUMP JUMPDEST JUMPDEST EQ SWAP1 POP PUSH2 0x18C7 JUMP JUMPDEST PUSH1 0x0 SWAP1 POP JUMPDEST SWAP3 SWAP2 POP POP JUMP JUMPDEST PUSH1 0x0 DUP1 PUSH1 0x0 DUP8 SWAP1 POP PUSH1 0x1 DUP6 PUSH8 0xFFFFFFFFFFFFFFFF AND EQ ISZERO PUSH2 0x191E JUMPI PUSH1 0x0 PUSH2 0x18F5 DUP3 DUP10 DUP8 PUSH2 0x2090 JUMP JUMPDEST DUP1 SWAP4 POP DUP2 SWAP3 POP POP POP DUP1 PUSH2 0x1910 JUMPI PUSH1 0x0 DUP3 SWAP4 POP SWAP4 POP POP POP PUSH2 0x1A4B JUMP JUMPDEST PUSH1 0x1 DUP3 SWAP4 POP SWAP4 POP POP POP PUSH2 0x1A4B JUMP JUMPDEST PUSH1 0x2 DUP6 PUSH8 0xFFFFFFFFFFFFFFFF AND EQ ISZERO PUSH2 0x1967 JUMPI PUSH1 0x0 PUSH2 0x193E DUP3 DUP10 DUP8 PUSH2 0x2215 JUMP JUMPDEST DUP1 SWAP4 POP DUP2 SWAP3 POP POP POP DUP1 PUSH2 0x1959 JUMPI PUSH1 0x0 DUP3 SWAP4 POP SWAP4 POP POP POP PUSH2 0x1A4B JUMP JUMPDEST PUSH1 0x1 DUP3 SWAP4 POP SWAP4 POP POP POP PUSH2 0x1A4B JUMP JUMPDEST PUSH1 0x3 DUP6 PUSH8 0xFFFFFFFFFFFFFFFF AND EQ ISZERO PUSH2 0x19B0 JUMPI PUSH1 0x0 PUSH2 0x1987 DUP3 DUP10 DUP8 PUSH2 0x239A JUMP JUMPDEST DUP1 SWAP4 POP DUP2 SWAP3 POP POP POP DUP1 PUSH2 0x19A2 JUMPI PUSH1 0x0 DUP3 SWAP4 POP SWAP4 POP POP POP PUSH2 0x1A4B JUMP JUMPDEST PUSH1 0x1 DUP3 SWAP4 POP SWAP4 POP POP POP PUSH2 0x1A4B JUMP JUMPDEST PUSH1 0x4 DUP6 PUSH8 0xFFFFFFFFFFFFFFFF AND EQ ISZERO PUSH2 0x19F9 JUMPI PUSH1 0x0 PUSH2 0x19D0 DUP3 DUP10 DUP8 PUSH2 0x241C JUMP JUMPDEST DUP1 SWAP4 POP DUP2 SWAP3 POP POP POP DUP1 PUSH2 0x19EB JUMPI PUSH1 0x0 DUP3 SWAP4 POP SWAP4 POP POP POP PUSH2 0x1A4B JUMP JUMPDEST PUSH1 0x1 DUP3 SWAP4 POP SWAP4 POP POP POP PUSH2 0x1A4B JUMP JUMPDEST PUSH1 0x5 DUP6 PUSH8 0xFFFFFFFFFFFFFFFF AND EQ ISZERO PUSH2 0x1A42 JUMPI PUSH1 0x0 PUSH2 0x1A19 DUP3 DUP10 DUP8 PUSH2 0x249E JUMP JUMPDEST DUP1 SWAP4 POP DUP2 SWAP3 POP POP POP DUP1 PUSH2 0x1A34 JUMPI PUSH1 0x0 DUP3 SWAP4 POP SWAP4 POP POP POP PUSH2 0x1A4B JUMP JUMPDEST PUSH1 0x1 DUP3 SWAP4 POP SWAP4 POP POP POP PUSH2 0x1A4B JUMP JUMPDEST PUSH1 0x0 DUP2 SWAP3 POP SWAP3 POP POP JUMPDEST SWAP6 POP SWAP6 SWAP4 POP POP POP POP JUMP JUMPDEST PUSH1 0x0 PUSH1 0x14 DUP3 MLOAD EQ PUSH2 0x1A9B JUMPI PUSH1 0x40 MLOAD PUSH32 0x8C379A000000000000000000000000000000000000000000000000000000000 DUP2 MSTORE PUSH1 0x4 ADD PUSH2 0x1A92 SWAP1 PUSH2 0x33E5 JUMP JUMPDEST PUSH1 0x40 MLOAD DUP1 SWAP2 SUB SWAP1 REVERT JUMPDEST PUSH1 0x0 PUSH1 0x14 DUP4 ADD MLOAD SWAP1 POP DUP1 SWAP2 POP POP SWAP2 SWAP1 POP JUMP JUMPDEST PUSH1 0x0 PUSH1 0x1 DUP4 PUSH8 0xFFFFFFFFFFFFFFFF AND EQ ISZERO PUSH2 0x1AF1 JUMPI PUSH1 0x2 PUSH1 0x6 DUP2 GT ISZERO PUSH2 0x1AD6 JUMPI PUSH2 0x1AD5 PUSH2 0x381C JUMP JUMPDEST JUMPDEST DUP3 PUSH1 0x6 DUP2 GT ISZERO PUSH2 0x1AE9 JUMPI PUSH2 0x1AE8 PUSH2 0x381C JUMP JUMPDEST JUMPDEST EQ SWAP1 POP PUSH2 0x1B7A JUMP JUMPDEST PUSH1 0x2 DUP4 PUSH8 0xFFFFFFFFFFFFFFFF AND EQ ISZERO PUSH2 0x1B33 JUMPI PUSH1 0x0 PUSH1 0x6 DUP2 GT ISZERO PUSH2 0x1B18 JUMPI PUSH2 0x1B17 PUSH2 0x381C JUMP JUMPDEST JUMPDEST DUP3 PUSH1 0x6 DUP2 GT ISZERO PUSH2 0x1B2B JUMPI PUSH2 0x1B2A PUSH2 0x381C JUMP JUMPDEST JUMPDEST EQ SWAP1 POP PUSH2 0x1B7A JUMP JUMPDEST PUSH1 0x3 DUP4 PUSH8 0xFFFFFFFFFFFFFFFF AND EQ ISZERO PUSH2 0x1B75 JUMPI PUSH1 0x2 PUSH1 0x6 DUP2 GT ISZERO PUSH2 0x1B5A JUMPI PUSH2 0x1B59 PUSH2 0x381C JUMP JUMPDEST JUMPDEST DUP3 PUSH1 0x6 DUP2 GT ISZERO PUSH2 0x1B6D JUMPI PUSH2 0x1B6C PUSH2 0x381C JUMP JUMPDEST JUMPDEST EQ SWAP1 POP PUSH2 0x1B7A JUMP JUMPDEST PUSH1 0x0 SWAP1 POP JUMPDEST SWAP3 SWAP2 POP POP JUMP JUMPDEST PUSH1 0x0 DUP1 PUSH1 0x0 DUP8 SWAP1 POP PUSH1 0x1 DUP6 PUSH8 0xFFFFFFFFFFFFFFFF AND EQ ISZERO PUSH2 0x1BD1 JUMPI PUSH1 0x0 PUSH2 0x1BA8 DUP3 DUP10 DUP8 PUSH2 0x2623 JUMP JUMPDEST DUP1 SWAP4 POP DUP2 SWAP3 POP POP POP DUP1 PUSH2 0x1BC3 JUMPI PUSH1 0x0 DUP3 SWAP4 POP SWAP4 POP POP POP PUSH2 0x1C6C JUMP JUMPDEST PUSH1 0x1 DUP3 SWAP4 POP SWAP4 POP POP POP PUSH2 0x1C6C JUMP JUMPDEST PUSH1 0x2 DUP6 PUSH8 0xFFFFFFFFFFFFFFFF AND EQ ISZERO PUSH2 0x1C1A JUMPI PUSH1 0x0 PUSH2 0x1BF1 DUP3 DUP10 DUP8 PUSH2 0x27A8 JUMP JUMPDEST DUP1 SWAP4 POP DUP2 SWAP3 POP POP POP DUP1 PUSH2 0x1C0C JUMPI PUSH1 0x0 DUP3 SWAP4 POP SWAP4 POP POP POP PUSH2 0x1C6C JUMP JUMPDEST PUSH1 0x1 DUP3 SWAP4 POP SWAP4 POP POP POP PUSH2 0x1C6C JUMP JUMPDEST PUSH1 0x3 DUP6 PUSH8 0xFFFFFFFFFFFFFFFF AND EQ ISZERO PUSH2 0x1C63 JUMPI PUSH1 0x0 PUSH2 0x1C3A DUP3 DUP10 DUP8 PUSH2 0x282A JUMP JUMPDEST DUP1 SWAP4 POP DUP2 SWAP3 POP POP POP DUP1 PUSH2 0x1C55 JUMPI PUSH1 0x0 DUP3 SWAP4 POP SWAP4 POP POP POP PUSH2 0x1C6C JUMP JUMPDEST PUSH1 0x1 DUP3 SWAP4 POP SWAP4 POP POP POP PUSH2 0x1C6C JUMP JUMPDEST PUSH1 0x0 DUP2 SWAP3 POP SWAP3 POP POP JUMPDEST SWAP6 POP SWAP6 SWAP4 POP POP POP POP JUMP JUMPDEST PUSH1 0x0 DUP2 PUSH1 0x40 MLOAD PUSH1 0x20 ADD PUSH2 0x1C89 SWAP2 SWAP1 PUSH2 0x3336 JUMP JUMPDEST PUSH1 0x40 MLOAD PUSH1 0x20 DUP2 DUP4 SUB SUB DUP2 MSTORE SWAP1 PUSH1 0x40 MSTORE DUP1 MLOAD SWAP1 PUSH1 0x20 ADD KECCAK256 DUP4 PUSH1 0x40 MLOAD PUSH1 0x20 ADD PUSH2 0x1CB0 SWAP2 SWAP1 PUSH2 0x3336 JUMP JUMPDEST PUSH1 0x40 MLOAD PUSH1 0x20 DUP2 DUP4 SUB SUB DUP2 MSTORE SWAP1 PUSH1 0x40 MSTORE DUP1 MLOAD SWAP1 PUSH1 0x20 ADD KECCAK256 EQ SWAP1 POP SWAP3 SWAP2 POP POP JUMP JUMPDEST PUSH1 0x0 PUSH1 0x1 DUP4 PUSH8 0xFFFFFFFFFFFFFFFF AND EQ ISZERO PUSH2 0x1D13 JUMPI PUSH1 0x2 PUSH1 0x6 DUP2 GT ISZERO PUSH2 0x1CF8 JUMPI PUSH2 0x1CF7 PUSH2 0x381C JUMP JUMPDEST JUMPDEST DUP3 PUSH1 0x6 DUP2 GT ISZERO PUSH2 0x1D0B JUMPI PUSH2 0x1D0A PUSH2 0x381C JUMP JUMPDEST JUMPDEST EQ SWAP1 POP PUSH2 0x1D9C JUMP JUMPDEST PUSH1 0x2 DUP4 PUSH8 0xFFFFFFFFFFFFFFFF AND EQ ISZERO PUSH2 0x1D55 JUMPI PUSH1 0x0 PUSH1 0x6 DUP2 GT ISZERO PUSH2 0x1D3A JUMPI PUSH2 0x1D39 PUSH2 0x381C JUMP JUMPDEST JUMPDEST DUP3 PUSH1 0x6 DUP2 GT ISZERO PUSH2 0x1D4D JUMPI PUSH2 0x1D4C PUSH2 0x381C JUMP JUMPDEST JUMPDEST EQ SWAP1 POP PUSH2 0x1D9C JUMP JUMPDEST PUSH1 0x3 DUP4 PUSH8 0xFFFFFFFFFFFFFFFF AND EQ ISZERO PUSH2 0x1D97 JUMPI PUSH1 0x2 PUSH1 0x6 DUP2 GT ISZERO PUSH2 0x1D7C JUMPI PUSH2 0x1D7B PUSH2 0x381C JUMP JUMPDEST JUMPDEST DUP3 PUSH1 0x6 DUP2 GT ISZERO PUSH2 0x1D8F JUMPI PUSH2 0x1D8E PUSH2 0x381C JUMP JUMPDEST JUMPDEST EQ SWAP1 POP PUSH2 0x1D9C JUMP JUMPDEST PUSH1 0x0 SWAP1 POP JUMPDEST SWAP3 SWAP2 POP POP JUMP JUMPDEST PUSH1 0x0 DUP1 PUSH1 0x0 DUP8 SWAP1 POP PUSH1 0x1 DUP6 PUSH8 0xFFFFFFFFFFFFFFFF AND EQ ISZERO PUSH2 0x1DF3 JUMPI PUSH1 0x0 PUSH2 0x1DCA DUP3 DUP10 DUP8 PUSH2 0x29AF JUMP JUMPDEST DUP1 SWAP4 POP DUP2 SWAP3 POP POP POP DUP1 PUSH2 0x1DE5 JUMPI PUSH1 0x0 DUP3 SWAP4 POP SWAP4 POP POP POP PUSH2 0x1E8E JUMP JUMPDEST PUSH1 0x1 DUP3 SWAP4 POP SWAP4 POP POP POP PUSH2 0x1E8E JUMP JUMPDEST PUSH1 0x2 DUP6 PUSH8 0xFFFFFFFFFFFFFFFF AND EQ ISZERO PUSH2 0x1E3C JUMPI PUSH1 0x0 PUSH2 0x1E13 DUP3 DUP10 DUP8 PUSH2 0x2B34 JUMP JUMPDEST DUP1 SWAP4 POP DUP2 SWAP3 POP POP POP DUP1 PUSH2 0x1E2E JUMPI PUSH1 0x0 DUP3 SWAP4 POP SWAP4 POP POP POP PUSH2 0x1E8E JUMP JUMPDEST PUSH1 0x1 DUP3 SWAP4 POP SWAP4 POP POP POP PUSH2 0x1E8E JUMP JUMPDEST PUSH1 0x3 DUP6 PUSH8 0xFFFFFFFFFFFFFFFF AND EQ ISZERO PUSH2 0x1E85 JUMPI PUSH1 0x0 PUSH2 0x1E5C DUP3 DUP10 DUP8 PUSH2 0x2BB6 JUMP JUMPDEST DUP1 SWAP4 POP DUP2 SWAP3 POP POP POP DUP1 PUSH2 0x1E77 JUMPI PUSH1 0x0 DUP3 SWAP4 POP SWAP4 POP POP POP PUSH2 0x1E8E JUMP JUMPDEST PUSH1 0x1 DUP3 SWAP4 POP SWAP4 POP POP POP PUSH2 0x1E8E JUMP JUMPDEST PUSH1 0x0 DUP2 SWAP3 POP SWAP3 POP POP JUMPDEST SWAP6 POP SWAP6 SWAP4 POP POP POP POP JUMP JUMPDEST PUSH1 0x0 DUP1 PUSH1 0x0 DUP1 PUSH1 0x0 JUMPDEST PUSH1 0xA PUSH8 0xFFFFFFFFFFFFFFFF AND DUP2 PUSH8 0xFFFFFFFFFFFFFFFF AND LT ISZERO PUSH2 0x1FBB JUMPI DUP6 MLOAD DUP8 DUP3 PUSH2 0x1ECC SWAP2 SWAP1 PUSH2 0x3564 JUMP JUMPDEST PUSH8 0xFFFFFFFFFFFFFFFF AND LT PUSH2 0x1EED JUMPI PUSH1 0x0 DUP8 PUSH1 0x0 SWAP5 POP SWAP5 POP SWAP5 POP POP POP PUSH2 0x2089 JUMP JUMPDEST PUSH1 0x0 DUP7 DUP3 DUP10 PUSH2 0x1EFC SWAP2 SWAP1 PUSH2 0x3564 JUMP JUMPDEST PUSH8 0xFFFFFFFFFFFFFFFF AND DUP2 MLOAD DUP2 LT PUSH2 0x1F17 JUMPI PUSH2 0x1F16 PUSH2 0x387A JUMP JUMPDEST JUMPDEST PUSH1 0x20 ADD ADD MLOAD PUSH1 0xF8 SHR PUSH1 0xF8 SHL PUSH1 0xF8 SHR SWAP1 POP PUSH1 0x0 PUSH1 0x7F DUP3 AND SWAP1 POP PUSH1 0x7 DUP4 PUSH2 0x1F3C SWAP2 SWAP1 PUSH2 0x35FC JUMP JUMPDEST PUSH8 0xFFFFFFFFFFFFFFFF AND DUP2 PUSH1 0xFF AND PUSH8 0xFFFFFFFFFFFFFFFF AND SWAP1 SHL DUP5 OR SWAP4 POP PUSH1 0x0 PUSH1 0x80 DUP4 AND PUSH1 0xFF AND EQ ISZERO PUSH2 0x1FA6 JUMPI PUSH1 0x0 DUP4 PUSH8 0xFFFFFFFFFFFFFFFF AND GT DUP1 ISZERO PUSH2 0x1F86 JUMPI POP PUSH1 0x0 DUP2 PUSH1 0xFF AND EQ JUMPDEST ISZERO PUSH2 0x1F9F JUMPI PUSH1 0x0 DUP10 PUSH1 0x0 SWAP7 POP SWAP7 POP SWAP7 POP POP POP POP POP PUSH2 0x2089 JUMP JUMPDEST POP POP PUSH2 0x1FBB JUMP JUMPDEST POP POP DUP1 DUP1 PUSH2 0x1FB3 SWAP1 PUSH2 0x37BC JUMP JUMPDEST SWAP2 POP POP PUSH2 0x1EA1 JUMP JUMPDEST PUSH1 0xA PUSH8 0xFFFFFFFFFFFFFFFF AND DUP2 PUSH8 0xFFFFFFFFFFFFFFFF AND LT PUSH2 0x1FE9 JUMPI PUSH1 0x0 DUP8 PUSH1 0x0 SWAP5 POP SWAP5 POP SWAP5 POP POP POP PUSH2 0x2089 JUMP JUMPDEST PUSH1 0x1 PUSH1 0xA PUSH2 0x1FF7 SWAP2 SWAP1 PUSH2 0x363E JUMP JUMPDEST PUSH8 0xFFFFFFFFFFFFFFFF AND DUP2 PUSH8 0xFFFFFFFFFFFFFFFF AND EQ ISZERO PUSH2 0x2066 JUMPI PUSH1 0x1 DUP7 DUP3 DUP10 PUSH2 0x2021 SWAP2 SWAP1 PUSH2 0x3564 JUMP JUMPDEST PUSH8 0xFFFFFFFFFFFFFFFF AND DUP2 MLOAD DUP2 LT PUSH2 0x203C JUMPI PUSH2 0x203B PUSH2 0x387A JUMP JUMPDEST JUMPDEST PUSH1 0x20 ADD ADD MLOAD PUSH1 0xF8 SHR PUSH1 0xF8 SHL PUSH1 0xF8 SHR PUSH1 0xFF AND GT ISZERO PUSH2 0x2065 JUMPI PUSH1 0x0 DUP8 PUSH1 0x0 SWAP5 POP SWAP5 POP SWAP5 POP POP POP PUSH2 0x2089 JUMP JUMPDEST JUMPDEST PUSH1 0x1 DUP1 DUP3 DUP10 PUSH2 0x2075 SWAP2 SWAP1 PUSH2 0x3564 JUMP JUMPDEST PUSH2 0x207F SWAP2 SWAP1 PUSH2 0x3564 JUMP JUMPDEST DUP4 SWAP5 POP SWAP5 POP SWAP5 POP POP POP JUMPDEST SWAP3 POP SWAP3 POP SWAP3 JUMP JUMPDEST PUSH1 0x0 DUP1 PUSH1 0x0 DUP1 PUSH2 0x20A0 DUP8 DUP8 PUSH2 0x2D3B JUMP JUMPDEST DUP1 SWAP4 POP DUP2 SWAP10 POP DUP3 SWAP5 POP POP POP POP DUP2 PUSH2 0x20BF JUMPI PUSH1 0x0 DUP8 SWAP4 POP SWAP4 POP POP POP PUSH2 0x220D JUMP JUMPDEST PUSH1 0x0 DUP2 PUSH8 0xFFFFFFFFFFFFFFFF AND EQ ISZERO PUSH2 0x20E0 JUMPI PUSH1 0x0 DUP8 SWAP4 POP SWAP4 POP POP POP PUSH2 0x220D JUMP JUMPDEST DUP1 PUSH8 0xFFFFFFFFFFFFFFFF AND PUSH8 0xFFFFFFFFFFFFFFFF DUP2 GT ISZERO PUSH2 0x2104 JUMPI PUSH2 0x2103 PUSH2 0x38A9 JUMP JUMPDEST JUMPDEST PUSH1 0x40 MLOAD SWAP1 DUP1 DUP3 MSTORE DUP1 PUSH1 0x1F ADD PUSH1 0x1F NOT AND PUSH1 0x20 ADD DUP3 ADD PUSH1 0x40 MSTORE DUP1 ISZERO PUSH2 0x2136 JUMPI DUP2 PUSH1 0x20 ADD PUSH1 0x1 DUP3 MUL DUP1 CALLDATASIZE DUP4 CALLDATACOPY DUP1 DUP3 ADD SWAP2 POP POP SWAP1 POP JUMPDEST POP DUP6 PUSH1 0x0 ADD DUP2 SWAP1 MSTORE POP PUSH1 0x0 JUMPDEST DUP2 PUSH8 0xFFFFFFFFFFFFFFFF AND DUP2 PUSH8 0xFFFFFFFFFFFFFFFF AND LT ISZERO PUSH2 0x21F4 JUMPI DUP7 DUP2 DUP10 PUSH2 0x216B SWAP2 SWAP1 PUSH2 0x3564 JUMP JUMPDEST PUSH8 0xFFFFFFFFFFFFFFFF AND DUP2 MLOAD DUP2 LT PUSH2 0x2186 JUMPI PUSH2 0x2185 PUSH2 0x387A JUMP JUMPDEST JUMPDEST PUSH1 0x20 ADD ADD MLOAD PUSH1 0xF8 SHR PUSH1 0xF8 SHL DUP7 PUSH1 0x0 ADD MLOAD DUP3 PUSH8 0xFFFFFFFFFFFFFFFF AND DUP2 MLOAD DUP2 LT PUSH2 0x21B2 JUMPI PUSH2 0x21B1 PUSH2 0x387A JUMP JUMPDEST JUMPDEST PUSH1 0x20 ADD ADD SWAP1 PUSH31 0xFFFFFFFFFFFFFFFFFFFFFFFFFFFFFFFFFFFFFFFFFFFFFFFFFFFFFFFFFFFFFF NOT AND SWAP1 DUP2 PUSH1 0x0 BYTE SWAP1 MSTORE8 POP DUP1 DUP1 PUSH2 0x21EC SWAP1 PUSH2 0x37BC JUMP JUMPDEST SWAP2 POP POP PUSH2 0x2142 JUMP JUMPDEST POP DUP1 DUP8 PUSH2 0x2201 SWAP2 SWAP1 PUSH2 0x3564 JUMP JUMPDEST SWAP7 POP PUSH1 0x1 DUP8 SWAP4 POP SWAP4 POP POP POP JUMPDEST SWAP4 POP SWAP4 SWAP2 POP POP JUMP JUMPDEST PUSH1 0x0 DUP1 PUSH1 0x0 DUP1 PUSH2 0x2225 DUP8 DUP8 PUSH2 0x2D3B JUMP JUMPDEST DUP1 SWAP4 POP DUP2 SWAP10 POP DUP3 SWAP5 POP POP POP POP DUP2 PUSH2 0x2244 JUMPI PUSH1 0x0 DUP8 SWAP4 POP SWAP4 POP POP POP PUSH2 0x2392 JUMP JUMPDEST PUSH1 0x0 DUP2 PUSH8 0xFFFFFFFFFFFFFFFF AND EQ ISZERO PUSH2 0x2265 JUMPI PUSH1 0x0 DUP8 SWAP4 POP SWAP4 POP POP POP PUSH2 0x2392 JUMP JUMPDEST DUP1 PUSH8 0xFFFFFFFFFFFFFFFF AND PUSH8 0xFFFFFFFFFFFFFFFF DUP2 GT ISZERO PUSH2 0x2289 JUMPI PUSH2 0x2288 PUSH2 0x38A9 JUMP JUMPDEST JUMPDEST PUSH1 0x40 MLOAD SWAP1 DUP1 DUP3 MSTORE DUP1 PUSH1 0x1F ADD PUSH1 0x1F NOT AND PUSH1 0x20 ADD DUP3 ADD PUSH1 0x40 MSTORE DUP1 ISZERO PUSH2 0x22BB JUMPI DUP2 PUSH1 0x20 ADD PUSH1 0x1 DUP3 MUL DUP1 CALLDATASIZE DUP4 CALLDATACOPY DUP1 DUP3 ADD SWAP2 POP POP SWAP1 POP JUMPDEST POP DUP6 PUSH1 0x20 ADD DUP2 SWAP1 MSTORE POP PUSH1 0x0 JUMPDEST DUP2 PUSH8 0xFFFFFFFFFFFFFFFF AND DUP2 PUSH8 0xFFFFFFFFFFFFFFFF AND LT ISZERO PUSH2 0x2379 JUMPI DUP7 DUP2 DUP10 PUSH2 0x22F0 SWAP2 SWAP1 PUSH2 0x3564 JUMP JUMPDEST PUSH8 0xFFFFFFFFFFFFFFFF AND DUP2 MLOAD DUP2 LT PUSH2 0x230B JUMPI PUSH2 0x230A PUSH2 0x387A JUMP JUMPDEST JUMPDEST PUSH1 0x20 ADD ADD MLOAD PUSH1 0xF8 SHR PUSH1 0xF8 SHL DUP7 PUSH1 0x20 ADD MLOAD DUP3 PUSH8 0xFFFFFFFFFFFFFFFF AND DUP2 MLOAD DUP2 LT PUSH2 0x2337 JUMPI PUSH2 0x2336 PUSH2 0x387A JUMP JUMPDEST JUMPDEST PUSH1 0x20 ADD ADD SWAP1 PUSH31 0xFFFFFFFFFFFFFFFFFFFFFFFFFFFFFFFFFFFFFFFFFFFFFFFFFFFFFFFFFFFFFF NOT AND SWAP1 DUP2 PUSH1 0x0 BYTE SWAP1 MSTORE8 POP DUP1 DUP1 PUSH2 0x2371 SWAP1 PUSH2 0x37BC JUMP JUMPDEST SWAP2 POP POP PUSH2 0x22C7 JUMP JUMPDEST POP DUP1 DUP8 PUSH2 0x2386 SWAP2 SWAP1 PUSH2 0x3564 JUMP JUMPDEST SWAP7 POP PUSH1 0x1 DUP8 SWAP4 POP SWAP4 POP POP POP JUMPDEST SWAP4 POP SWAP4 SWAP2 POP POP JUMP JUMPDEST PUSH1 0x0 DUP1 PUSH1 0x0 DUP1 PUSH2 0x23AA DUP8 DUP8 PUSH2 0x2D57 JUMP JUMPDEST DUP1 SWAP4 POP DUP2 SWAP10 POP DUP3 SWAP5 POP POP POP POP DUP2 PUSH2 0x23C9 JUMPI PUSH1 0x0 DUP8 SWAP4 POP SWAP4 POP POP POP PUSH2 0x2414 JUMP JUMPDEST PUSH1 0x0 DUP2 PUSH8 0xFFFFFFFFFFFFFFFF AND EQ ISZERO PUSH2 0x23EA JUMPI PUSH1 0x0 DUP8 SWAP4 POP SWAP4 POP POP POP PUSH2 0x2414 JUMP JUMPDEST DUP1 DUP6 PUSH1 0x40 ADD SWAP1 PUSH8 0xFFFFFFFFFFFFFFFF AND SWAP1 DUP2 PUSH8 0xFFFFFFFFFFFFFFFF AND DUP2 MSTORE POP POP PUSH1 0x1 DUP8 SWAP4 POP SWAP4 POP POP POP JUMPDEST SWAP4 POP SWAP4 SWAP2 POP POP JUMP JUMPDEST PUSH1 0x0 DUP1 PUSH1 0x0 DUP1 PUSH2 0x242C DUP8 DUP8 PUSH2 0x2D57 JUMP JUMPDEST DUP1 SWAP4 POP DUP2 SWAP10 POP DUP3 SWAP5 POP POP POP POP DUP2 PUSH2 0x244B JUMPI PUSH1 0x0 DUP8 SWAP4 POP SWAP4 POP POP POP PUSH2 0x2496 JUMP JUMPDEST PUSH1 0x0 DUP2 PUSH8 0xFFFFFFFFFFFFFFFF AND EQ ISZERO PUSH2 0x246C JUMPI PUSH1 0x0 DUP8 SWAP4 POP SWAP4 POP POP POP PUSH2 0x2496 JUMP JUMPDEST DUP1 DUP6 PUSH1 0x60 ADD SWAP1 PUSH8 0xFFFFFFFFFFFFFFFF AND SWAP1 DUP2 PUSH8 0xFFFFFFFFFFFFFFFF AND DUP2 MSTORE POP POP PUSH1 0x1 DUP8 SWAP4 POP SWAP4 POP POP POP JUMPDEST SWAP4 POP SWAP4 SWAP2 POP POP JUMP JUMPDEST PUSH1 0x0 DUP1 PUSH1 0x0 DUP1 PUSH2 0x24AE DUP8 DUP8 PUSH2 0x2D3B JUMP JUMPDEST DUP1 SWAP4 POP DUP2 SWAP10 POP DUP3 SWAP5 POP POP POP POP DUP2 PUSH2 0x24CD JUMPI PUSH1 0x0 DUP8 SWAP4 POP SWAP4 POP POP POP PUSH2 0x261B JUMP JUMPDEST PUSH1 0x0 DUP2 PUSH8 0xFFFFFFFFFFFFFFFF AND EQ ISZERO PUSH2 0x24EE JUMPI PUSH1 0x0 DUP8 SWAP4 POP SWAP4 POP POP POP PUSH2 0x261B JUMP JUMPDEST DUP1 PUSH8 0xFFFFFFFFFFFFFFFF AND PUSH8 0xFFFFFFFFFFFFFFFF DUP2 GT ISZERO PUSH2 0x2512 JUMPI PUSH2 0x2511 PUSH2 0x38A9 JUMP JUMPDEST JUMPDEST PUSH1 0x40 MLOAD SWAP1 DUP1 DUP3 MSTORE DUP1 PUSH1 0x1F ADD PUSH1 0x1F NOT AND PUSH1 0x20 ADD DUP3 ADD PUSH1 0x40 MSTORE DUP1 ISZERO PUSH2 0x2544 JUMPI DUP2 PUSH1 0x20 ADD PUSH1 0x1 DUP3 MUL DUP1 CALLDATASIZE DUP4 CALLDATACOPY DUP1 DUP3 ADD SWAP2 POP POP SWAP1 POP JUMPDEST POP DUP6 PUSH1 0x80 ADD DUP2 SWAP1 MSTORE POP PUSH1 0x0 JUMPDEST DUP2 PUSH8 0xFFFFFFFFFFFFFFFF AND DUP2 PUSH8 0xFFFFFFFFFFFFFFFF AND LT ISZERO PUSH2 0x2602 JUMPI DUP7 DUP2 DUP10 PUSH2 0x2579 SWAP2 SWAP1 PUSH2 0x3564 JUMP JUMPDEST PUSH8 0xFFFFFFFFFFFFFFFF AND DUP2 MLOAD DUP2 LT PUSH2 0x2594 JUMPI PUSH2 0x2593 PUSH2 0x387A JUMP JUMPDEST JUMPDEST PUSH1 0x20 ADD ADD MLOAD PUSH1 0xF8 SHR PUSH1 0xF8 SHL DUP7 PUSH1 0x80 ADD MLOAD DUP3 PUSH8 0xFFFFFFFFFFFFFFFF AND DUP2 MLOAD DUP2 LT PUSH2 0x25C0 JUMPI PUSH2 0x25BF PUSH2 0x387A JUMP JUMPDEST JUMPDEST PUSH1 0x20 ADD ADD SWAP1 PUSH31 0xFFFFFFFFFFFFFFFFFFFFFFFFFFFFFFFFFFFFFFFFFFFFFFFFFFFFFFFFFFFFFF NOT AND SWAP1 DUP2 PUSH1 0x0 BYTE SWAP1 MSTORE8 POP DUP1 DUP1 PUSH2 0x25FA SWAP1 PUSH2 0x37BC JUMP JUMPDEST SWAP2 POP POP PUSH2 0x2550 JUMP JUMPDEST POP DUP1 DUP8 PUSH2 0x260F SWAP2 SWAP1 PUSH2 0x3564 JUMP JUMPDEST SWAP7 POP PUSH1 0x1 DUP8 SWAP4 POP SWAP4 POP POP POP JUMPDEST SWAP4 POP SWAP4 SWAP2 POP POP JUMP JUMPDEST PUSH1 0x0 DUP1 PUSH1 0x0 DUP1 PUSH2 0x2633 DUP8 DUP8 PUSH2 0x2D3B JUMP JUMPDEST DUP1 SWAP4 POP DUP2 SWAP10 POP DUP3 SWAP5 POP POP POP POP DUP2 PUSH2 0x2652 JUMPI PUSH1 0x0 DUP8 SWAP4 POP SWAP4 POP POP POP PUSH2 0x27A0 JUMP JUMPDEST PUSH1 0x0 DUP2 PUSH8 0xFFFFFFFFFFFFFFFF AND EQ ISZERO PUSH2 0x2673 JUMPI PUSH1 0x0 DUP8 SWAP4 POP SWAP4 POP POP POP PUSH2 0x27A0 JUMP JUMPDEST DUP1 PUSH8 0xFFFFFFFFFFFFFFFF AND PUSH8 0xFFFFFFFFFFFFFFFF DUP2 GT ISZERO PUSH2 0x2697 JUMPI PUSH2 0x2696 PUSH2 0x38A9 JUMP JUMPDEST JUMPDEST PUSH1 0x40 MLOAD SWAP1 DUP1 DUP3 MSTORE DUP1 PUSH1 0x1F ADD PUSH1 0x1F NOT AND PUSH1 0x20 ADD DUP3 ADD PUSH1 0x40 MSTORE DUP1 ISZERO PUSH2 0x26C9 JUMPI DUP2 PUSH1 0x20 ADD PUSH1 0x1 DUP3 MUL DUP1 CALLDATASIZE DUP4 CALLDATACOPY DUP1 DUP3 ADD SWAP2 POP POP SWAP1 POP JUMPDEST POP DUP6 PUSH1 0x0 ADD DUP2 SWAP1 MSTORE POP PUSH1 0x0 JUMPDEST DUP2 PUSH8 0xFFFFFFFFFFFFFFFF AND DUP2 PUSH8 0xFFFFFFFFFFFFFFFF AND LT ISZERO PUSH2 0x2787 JUMPI DUP7 DUP2 DUP10 PUSH2 0x26FE SWAP2 SWAP1 PUSH2 0x3564 JUMP JUMPDEST PUSH8 0xFFFFFFFFFFFFFFFF AND DUP2 MLOAD DUP2 LT PUSH2 0x2719 JUMPI PUSH2 0x2718 PUSH2 0x387A JUMP JUMPDEST JUMPDEST PUSH1 0x20 ADD ADD MLOAD PUSH1 0xF8 SHR PUSH1 0xF8 SHL DUP7 PUSH1 0x0 ADD MLOAD DUP3 PUSH8 0xFFFFFFFFFFFFFFFF AND DUP2 MLOAD DUP2 LT PUSH2 0x2745 JUMPI PUSH2 0x2744 PUSH2 0x387A JUMP JUMPDEST JUMPDEST PUSH1 0x20 ADD ADD SWAP1 PUSH31 0xFFFFFFFFFFFFFFFFFFFFFFFFFFFFFFFFFFFFFFFFFFFFFFFFFFFFFFFFFFFFFF NOT AND SWAP1 DUP2 PUSH1 0x0 BYTE SWAP1 MSTORE8 POP DUP1 DUP1 PUSH2 0x277F SWAP1 PUSH2 0x37BC JUMP JUMPDEST SWAP2 POP POP PUSH2 0x26D5 JUMP JUMPDEST POP DUP1 DUP8 PUSH2 0x2794 SWAP2 SWAP1 PUSH2 0x3564 JUMP JUMPDEST SWAP7 POP PUSH1 0x1 DUP8 SWAP4 POP SWAP4 POP POP POP JUMPDEST SWAP4 POP SWAP4 SWAP2 POP POP JUMP JUMPDEST PUSH1 0x0 DUP1 PUSH1 0x0 DUP1 PUSH2 0x27B8 DUP8 DUP8 PUSH2 0x2D57 JUMP JUMPDEST DUP1 SWAP4 POP DUP2 SWAP10 POP DUP3 SWAP5 POP POP POP POP DUP2 PUSH2 0x27D7 JUMPI PUSH1 0x0 DUP8 SWAP4 POP SWAP4 POP POP POP PUSH2 0x2822 JUMP JUMPDEST PUSH1 0x0 DUP2 PUSH8 0xFFFFFFFFFFFFFFFF AND EQ ISZERO PUSH2 0x27F8 JUMPI PUSH1 0x0 DUP8 SWAP4 POP SWAP4 POP POP POP PUSH2 0x2822 JUMP JUMPDEST DUP1 DUP6 PUSH1 0x20 ADD SWAP1 PUSH8 0xFFFFFFFFFFFFFFFF AND SWAP1 DUP2 PUSH8 0xFFFFFFFFFFFFFFFF AND DUP2 MSTORE POP POP PUSH1 0x1 DUP8 SWAP4 POP SWAP4 POP POP POP JUMPDEST SWAP4 POP SWAP4 SWAP2 POP POP JUMP JUMPDEST PUSH1 0x0 DUP1 PUSH1 0x0 DUP1 PUSH2 0x283A DUP8 DUP8 PUSH2 0x2D3B JUMP JUMPDEST DUP1 SWAP4 POP DUP2 SWAP10 POP DUP3 SWAP5 POP POP POP POP DUP2 PUSH2 0x2859 JUMPI PUSH1 0x0 DUP8 SWAP4 POP SWAP4 POP POP POP PUSH2 0x29A7 JUMP JUMPDEST PUSH1 0x0 DUP2 PUSH8 0xFFFFFFFFFFFFFFFF AND EQ ISZERO PUSH2 0x287A JUMPI PUSH1 0x0 DUP8 SWAP4 POP SWAP4 POP POP POP PUSH2 0x29A7 JUMP JUMPDEST DUP1 PUSH8 0xFFFFFFFFFFFFFFFF AND PUSH8 0xFFFFFFFFFFFFFFFF DUP2 GT ISZERO PUSH2 0x289E JUMPI PUSH2 0x289D PUSH2 0x38A9 JUMP JUMPDEST JUMPDEST PUSH1 0x40 MLOAD SWAP1 DUP1 DUP3 MSTORE DUP1 PUSH1 0x1F ADD PUSH1 0x1F NOT AND PUSH1 0x20 ADD DUP3 ADD PUSH1 0x40 MSTORE DUP1 ISZERO PUSH2 0x28D0 JUMPI DUP2 PUSH1 0x20 ADD PUSH1 0x1 DUP3 MUL DUP1 CALLDATASIZE DUP4 CALLDATACOPY DUP1 DUP3 ADD SWAP2 POP POP SWAP1 POP JUMPDEST POP DUP6 PUSH1 0x40 ADD DUP2 SWAP1 MSTORE POP PUSH1 0x0 JUMPDEST DUP2 PUSH8 0xFFFFFFFFFFFFFFFF AND DUP2 PUSH8 0xFFFFFFFFFFFFFFFF AND LT ISZERO PUSH2 0x298E JUMPI DUP7 DUP2 DUP10 PUSH2 0x2905 SWAP2 SWAP1 PUSH2 0x3564 JUMP JUMPDEST PUSH8 0xFFFFFFFFFFFFFFFF AND DUP2 MLOAD DUP2 LT PUSH2 0x2920 JUMPI PUSH2 0x291F PUSH2 0x387A JUMP JUMPDEST JUMPDEST PUSH1 0x20 ADD ADD MLOAD PUSH1 0xF8 SHR PUSH1 0xF8 SHL DUP7 PUSH1 0x40 ADD MLOAD DUP3 PUSH8 0xFFFFFFFFFFFFFFFF AND DUP2 MLOAD DUP2 LT PUSH2 0x294C JUMPI PUSH2 0x294B PUSH2 0x387A JUMP JUMPDEST JUMPDEST PUSH1 0x20 ADD ADD SWAP1 PUSH31 0xFFFFFFFFFFFFFFFFFFFFFFFFFFFFFFFFFFFFFFFFFFFFFFFFFFFFFFFFFFFFFF NOT AND SWAP1 DUP2 PUSH1 0x0 BYTE SWAP1 MSTORE8 POP DUP1 DUP1 PUSH2 0x2986 SWAP1 PUSH2 0x37BC JUMP JUMPDEST SWAP2 POP POP PUSH2 0x28DC JUMP JUMPDEST POP DUP1 DUP8 PUSH2 0x299B SWAP2 SWAP1 PUSH2 0x3564 JUMP JUMPDEST SWAP7 POP PUSH1 0x1 DUP8 SWAP4 POP SWAP4 POP POP POP JUMPDEST SWAP4 POP SWAP4 SWAP2 POP POP JUMP JUMPDEST PUSH1 0x0 DUP1 PUSH1 0x0 DUP1 PUSH2 0x29BF DUP8 DUP8 PUSH2 0x2D3B JUMP JUMPDEST DUP1 SWAP4 POP DUP2 SWAP10 POP DUP3 SWAP5 POP POP POP POP DUP2 PUSH2 0x29DE JUMPI PUSH1 0x0 DUP8 SWAP4 POP SWAP4 POP POP POP PUSH2 0x2B2C JUMP JUMPDEST PUSH1 0x0 DUP2 PUSH8 0xFFFFFFFFFFFFFFFF AND EQ ISZERO PUSH2 0x29FF JUMPI PUSH1 0x0 DUP8 SWAP4 POP SWAP4 POP POP POP PUSH2 0x2B2C JUMP JUMPDEST DUP1 PUSH8 0xFFFFFFFFFFFFFFFF AND PUSH8 0xFFFFFFFFFFFFFFFF DUP2 GT ISZERO PUSH2 0x2A23 JUMPI PUSH2 0x2A22 PUSH2 0x38A9 JUMP JUMPDEST JUMPDEST PUSH1 0x40 MLOAD SWAP1 DUP1 DUP3 MSTORE DUP1 PUSH1 0x1F ADD PUSH1 0x1F NOT AND PUSH1 0x20 ADD DUP3 ADD PUSH1 0x40 MSTORE DUP1 ISZERO PUSH2 0x2A55 JUMPI DUP2 PUSH1 0x20 ADD PUSH1 0x1 DUP3 MUL DUP1 CALLDATASIZE DUP4 CALLDATACOPY DUP1 DUP3 ADD SWAP2 POP POP SWAP1 POP JUMPDEST POP DUP6 PUSH1 0x0 ADD DUP2 SWAP1 MSTORE POP PUSH1 0x0 JUMPDEST DUP2 PUSH8 0xFFFFFFFFFFFFFFFF AND DUP2 PUSH8 0xFFFFFFFFFFFFFFFF AND LT ISZERO PUSH2 0x2B13 JUMPI DUP7 DUP2 DUP10 PUSH2 0x2A8A SWAP2 SWAP1 PUSH2 0x3564 JUMP JUMPDEST PUSH8 0xFFFFFFFFFFFFFFFF AND DUP2 MLOAD DUP2 LT PUSH2 0x2AA5 JUMPI PUSH2 0x2AA4 PUSH2 0x387A JUMP JUMPDEST JUMPDEST PUSH1 0x20 ADD ADD MLOAD PUSH1 0xF8 SHR PUSH1 0xF8 SHL DUP7 PUSH1 0x0 ADD MLOAD DUP3 PUSH8 0xFFFFFFFFFFFFFFFF AND DUP2 MLOAD DUP2 LT PUSH2 0x2AD1 JUMPI PUSH2 0x2AD0 PUSH2 0x387A JUMP JUMPDEST JUMPDEST PUSH1 0x20 ADD ADD SWAP1 PUSH31 0xFFFFFFFFFFFFFFFFFFFFFFFFFFFFFFFFFFFFFFFFFFFFFFFFFFFFFFFFFFFFFF NOT AND SWAP1 DUP2 PUSH1 0x0 BYTE SWAP1 MSTORE8 POP DUP1 DUP1 PUSH2 0x2B0B SWAP1 PUSH2 0x37BC JUMP JUMPDEST SWAP2 POP POP PUSH2 0x2A61 JUMP JUMPDEST POP DUP1 DUP8 PUSH2 0x2B20 SWAP2 SWAP1 PUSH2 0x3564 JUMP JUMPDEST SWAP7 POP PUSH1 0x1 DUP8 SWAP4 POP SWAP4 POP POP POP JUMPDEST SWAP4 POP SWAP4 SWAP2 POP POP JUMP JUMPDEST PUSH1 0x0 DUP1 PUSH1 0x0 DUP1 PUSH2 0x2B44 DUP8 DUP8 PUSH2 0x2D57 JUMP JUMPDEST DUP1 SWAP4 POP DUP2 SWAP10 POP DUP3 SWAP5 POP POP POP POP DUP2 PUSH2 0x2B63 JUMPI PUSH1 0x0 DUP8 SWAP4 POP SWAP4 POP POP POP PUSH2 0x2BAE JUMP JUMPDEST PUSH1 0x0 DUP2 PUSH8 0xFFFFFFFFFFFFFFFF AND EQ ISZERO PUSH2 0x2B84 JUMPI PUSH1 0x0 DUP8 SWAP4 POP SWAP4 POP POP POP PUSH2 0x2BAE JUMP JUMPDEST DUP1 DUP6 PUSH1 0x20 ADD SWAP1 PUSH8 0xFFFFFFFFFFFFFFFF AND SWAP1 DUP2 PUSH8 0xFFFFFFFFFFFFFFFF AND DUP2 MSTORE POP POP PUSH1 0x1 DUP8 SWAP4 POP SWAP4 POP POP POP JUMPDEST SWAP4 POP SWAP4 SWAP2 POP POP JUMP JUMPDEST PUSH1 0x0 DUP1 PUSH1 0x0 DUP1 PUSH2 0x2BC6 DUP8 DUP8 PUSH2 0x2D3B JUMP JUMPDEST DUP1 SWAP4 POP DUP2 SWAP10 POP DUP3 SWAP5 POP POP POP POP DUP2 PUSH2 0x2BE5 JUMPI PUSH1 0x0 DUP8 SWAP4 POP SWAP4 POP POP POP PUSH2 0x2D33 JUMP JUMPDEST PUSH1 0x0 DUP2 PUSH8 0xFFFFFFFFFFFFFFFF AND EQ ISZERO PUSH2 0x2C06 JUMPI PUSH1 0x0 DUP8 SWAP4 POP SWAP4 POP POP POP PUSH2 0x2D33 JUMP JUMPDEST DUP1 PUSH8 0xFFFFFFFFFFFFFFFF AND PUSH8 0xFFFFFFFFFFFFFFFF DUP2 GT ISZERO PUSH2 0x2C2A JUMPI PUSH2 0x2C29 PUSH2 0x38A9 JUMP JUMPDEST JUMPDEST PUSH1 0x40 MLOAD SWAP1 DUP1 DUP3 MSTORE DUP1 PUSH1 0x1F ADD PUSH1 0x1F NOT AND PUSH1 0x20 ADD DUP3 ADD PUSH1 0x40 MSTORE DUP1 ISZERO PUSH2 0x2C5C JUMPI DUP2 PUSH1 0x20 ADD PUSH1 0x1 DUP3 MUL DUP1 CALLDATASIZE DUP4 CALLDATACOPY DUP1 DUP3 ADD SWAP2 POP POP SWAP1 POP JUMPDEST POP DUP6 PUSH1 0x40 ADD DUP2 SWAP1 MSTORE POP PUSH1 0x0 JUMPDEST DUP2 PUSH8 0xFFFFFFFFFFFFFFFF AND DUP2 PUSH8 0xFFFFFFFFFFFFFFFF AND LT ISZERO PUSH2 0x2D1A JUMPI DUP7 DUP2 DUP10 PUSH2 0x2C91 SWAP2 SWAP1 PUSH2 0x3564 JUMP JUMPDEST PUSH8 0xFFFFFFFFFFFFFFFF AND DUP2 MLOAD DUP2 LT PUSH2 0x2CAC JUMPI PUSH2 0x2CAB PUSH2 0x387A JUMP JUMPDEST JUMPDEST PUSH1 0x20 ADD ADD MLOAD PUSH1 0xF8 SHR PUSH1 0xF8 SHL DUP7 PUSH1 0x40 ADD MLOAD DUP3 PUSH8 0xFFFFFFFFFFFFFFFF AND DUP2 MLOAD DUP2 LT PUSH2 0x2CD8 JUMPI PUSH2 0x2CD7 PUSH2 0x387A JUMP JUMPDEST JUMPDEST PUSH1 0x20 ADD ADD SWAP1 PUSH31 0xFFFFFFFFFFFFFFFFFFFFFFFFFFFFFFFFFFFFFFFFFFFFFFFFFFFFFFFFFFFFFF NOT AND SWAP1 DUP2 PUSH1 0x0 BYTE SWAP1 MSTORE8 POP DUP1 DUP1 PUSH2 0x2D12 SWAP1 PUSH2 0x37BC JUMP JUMPDEST SWAP2 POP POP PUSH2 0x2C68 JUMP JUMPDEST POP DUP1 DUP8 PUSH2 0x2D27 SWAP2 SWAP1 PUSH2 0x3564 JUMP JUMPDEST SWAP7 POP PUSH1 0x1 DUP8 SWAP4 POP SWAP4 POP POP POP JUMPDEST SWAP4 POP SWAP4 SWAP2 POP POP JUMP JUMPDEST PUSH1 0x0 DUP1 PUSH1 0x0 PUSH2 0x2D4A DUP6 DUP6 PUSH2 0x2D9D JUMP JUMPDEST SWAP3 POP SWAP3 POP SWAP3 POP SWAP3 POP SWAP3 POP SWAP3 JUMP JUMPDEST PUSH1 0x0 DUP1 PUSH1 0x0 DUP1 PUSH1 0x0 DUP1 PUSH2 0x2D6A DUP9 DUP9 PUSH2 0x1E98 JUMP JUMPDEST SWAP3 POP SWAP3 POP SWAP3 POP DUP3 PUSH2 0x2D88 JUMPI PUSH1 0x0 DUP3 PUSH1 0x0 SWAP6 POP SWAP6 POP SWAP6 POP POP POP POP PUSH2 0x2D96 JUMP JUMPDEST PUSH1 0x1 DUP3 DUP3 SWAP6 POP SWAP6 POP SWAP6 POP POP POP POP JUMPDEST SWAP3 POP SWAP3 POP SWAP3 JUMP JUMPDEST PUSH1 0x0 DUP1 PUSH1 0x0 DUP1 PUSH1 0x0 DUP1 PUSH2 0x2DB0 DUP9 DUP9 PUSH2 0x1E98 JUMP JUMPDEST SWAP3 POP SWAP3 POP SWAP3 POP DUP3 PUSH2 0x2DCE JUMPI PUSH1 0x0 DUP3 PUSH1 0x0 SWAP6 POP SWAP6 POP SWAP6 POP POP POP POP PUSH2 0x2E3E JUMP JUMPDEST DUP2 PUSH8 0xFFFFFFFFFFFFFFFF AND DUP2 DUP4 ADD PUSH8 0xFFFFFFFFFFFFFFFF AND LT ISZERO PUSH2 0x2DFF JUMPI PUSH1 0x0 DUP3 PUSH1 0x0 SWAP6 POP SWAP6 POP SWAP6 POP POP POP POP PUSH2 0x2E3E JUMP JUMPDEST DUP7 MLOAD DUP3 DUP3 PUSH2 0x2E0D SWAP2 SWAP1 PUSH2 0x3564 JUMP JUMPDEST PUSH8 0xFFFFFFFFFFFFFFFF AND GT ISZERO PUSH2 0x2E30 JUMPI PUSH1 0x0 DUP3 PUSH1 0x0 SWAP6 POP SWAP6 POP SWAP6 POP POP POP POP PUSH2 0x2E3E JUMP JUMPDEST PUSH1 0x1 DUP3 DUP3 SWAP6 POP SWAP6 POP SWAP6 POP POP POP POP JUMPDEST SWAP3 POP SWAP3 POP SWAP3 JUMP JUMPDEST POP DUP1 SLOAD PUSH1 0x0 DUP3 SSTORE SWAP1 PUSH1 0x0 MSTORE PUSH1 0x20 PUSH1 0x0 KECCAK256 SWAP1 DUP2 ADD SWAP1 PUSH2 0x2E63 SWAP2 SWAP1 PUSH2 0x300B JUMP JUMPDEST POP JUMP JUMPDEST DUP3 DUP1 SLOAD PUSH2 0x2E72 SWAP1 PUSH2 0x3710 JUMP JUMPDEST SWAP1 PUSH1 0x0 MSTORE PUSH1 0x20 PUSH1 0x0 KECCAK256 SWAP1 PUSH1 0x1F ADD PUSH1 0x20 SWAP1 DIV DUP2 ADD SWAP3 DUP3 PUSH2 0x2E94 JUMPI PUSH1 0x0 DUP6 SSTORE PUSH2 0x2EDB JUMP JUMPDEST DUP3 PUSH1 0x1F LT PUSH2 0x2EAD JUMPI DUP1 MLOAD PUSH1 0xFF NOT AND DUP4 DUP1 ADD OR DUP6 SSTORE PUSH2 0x2EDB JUMP JUMPDEST DUP3 DUP1 ADD PUSH1 0x1 ADD DUP6 SSTORE DUP3 ISZERO PUSH2 0x2EDB JUMPI SWAP2 DUP3 ADD JUMPDEST DUP3 DUP2 GT ISZERO PUSH2 0x2EDA JUMPI DUP3 MLOAD DUP3 SSTORE SWAP2 PUSH1 0x20 ADD SWAP2 SWAP1 PUSH1 0x1 ADD SWAP1 PUSH2 0x2EBF JUMP JUMPDEST JUMPDEST POP SWAP1 POP PUSH2 0x2EE8 SWAP2 SWAP1 PUSH2 0x300B JUMP JUMPDEST POP SWAP1 JUMP JUMPDEST PUSH1 0x40 MLOAD DUP1 PUSH1 0xA0 ADD PUSH1 0x40 MSTORE DUP1 PUSH1 0x60 DUP2 MSTORE PUSH1 0x20 ADD PUSH1 0x60 DUP2 MSTORE PUSH1 0x20 ADD PUSH1 0x0 PUSH8 0xFFFFFFFFFFFFFFFF AND DUP2 MSTORE PUSH1 0x20 ADD PUSH1 0x0 PUSH8 0xFFFFFFFFFFFFFFFF AND DUP2 MSTORE PUSH1 0x20 ADD PUSH1 0x60 DUP2 MSTORE POP SWAP1 JUMP JUMPDEST DUP3 DUP1 SLOAD PUSH2 0x2F3B SWAP1 PUSH2 0x3710 JUMP JUMPDEST SWAP1 PUSH1 0x0 MSTORE PUSH1 0x20 PUSH1 0x0 KECCAK256 SWAP1 PUSH1 0x1F ADD PUSH1 0x20 SWAP1 DIV DUP2 ADD SWAP3 DUP3 PUSH2 0x2F5D JUMPI PUSH1 0x0 DUP6 SSTORE PUSH2 0x2FA4 JUMP JUMPDEST DUP3 PUSH1 0x1F LT PUSH2 0x2F76 JUMPI DUP1 MLOAD PUSH1 0xFF NOT AND DUP4 DUP1 ADD OR DUP6 SSTORE PUSH2 0x2FA4 JUMP JUMPDEST DUP3 DUP1 ADD PUSH1 0x1 ADD DUP6 SSTORE DUP3 ISZERO PUSH2 0x2FA4 JUMPI SWAP2 DUP3 ADD JUMPDEST DUP3 DUP2 GT ISZERO PUSH2 0x2FA3 JUMPI DUP3 MLOAD DUP3 SSTORE SWAP2 PUSH1 0x20 ADD SWAP2 SWAP1 PUSH1 0x1 ADD SWAP1 PUSH2 0x2F88 JUMP JUMPDEST JUMPDEST POP SWAP1 POP PUSH2 0x2FB1 SWAP2 SWAP1 PUSH2 0x300B JUMP JUMPDEST POP SWAP1 JUMP JUMPDEST PUSH1 0x40 MLOAD DUP1 PUSH1 0x60 ADD PUSH1 0x40 MSTORE DUP1 PUSH1 0x60 DUP2 MSTORE PUSH1 0x20 ADD PUSH1 0x0 PUSH8 0xFFFFFFFFFFFFFFFF AND DUP2 MSTORE PUSH1 0x20 ADD PUSH1 0x60 DUP2 MSTORE POP SWAP1 JUMP JUMPDEST PUSH1 0x40 MLOAD DUP1 PUSH1 0x60 ADD PUSH1 0x40 MSTORE DUP1 PUSH1 0x60 DUP2 MSTORE PUSH1 0x20 ADD PUSH1 0x0 PUSH8 0xFFFFFFFFFFFFFFFF AND DUP2 MSTORE PUSH1 0x20 ADD PUSH1 0x60 DUP2 MSTORE POP SWAP1 JUMP JUMPDEST JUMPDEST DUP1 DUP3 GT ISZERO PUSH2 0x3024 JUMPI PUSH1 0x0 DUP2 PUSH1 0x0 SWAP1 SSTORE POP PUSH1 0x1 ADD PUSH2 0x300C JUMP JUMPDEST POP SWAP1 JUMP JUMPDEST PUSH1 0x0 PUSH2 0x303B PUSH2 0x3036 DUP5 PUSH2 0x34A5 JUMP JUMPDEST PUSH2 0x3480 JUMP JUMPDEST SWAP1 POP DUP3 DUP2 MSTORE PUSH1 0x20 DUP2 ADD DUP5 DUP5 DUP5 ADD GT ISZERO PUSH2 0x3057 JUMPI PUSH2 0x3056 PUSH2 0x38E7 JUMP JUMPDEST JUMPDEST PUSH2 0x3062 DUP5 DUP3 DUP6 PUSH2 0x36CE JUMP JUMPDEST POP SWAP4 SWAP3 POP POP POP JUMP JUMPDEST PUSH1 0x0 DUP2 CALLDATALOAD SWAP1 POP PUSH2 0x3079 DUP2 PUSH2 0x3A95 JUMP JUMPDEST SWAP3 SWAP2 POP POP JUMP JUMPDEST PUSH1 0x0 DUP3 PUSH1 0x1F DUP4 ADD SLT PUSH2 0x3094 JUMPI PUSH2 0x3093 PUSH2 0x38D8 JUMP JUMPDEST JUMPDEST DUP2 CALLDATALOAD PUSH2 0x30A4 DUP5 DUP3 PUSH1 0x20 DUP7 ADD PUSH2 0x3028 JUMP JUMPDEST SWAP2 POP POP SWAP3 SWAP2 POP POP JUMP JUMPDEST PUSH1 0x0 DUP2 CALLDATALOAD SWAP1 POP PUSH2 0x30BC DUP2 PUSH2 0x3AAC JUMP JUMPDEST SWAP3 SWAP2 POP POP JUMP JUMPDEST PUSH1 0x0 PUSH1 0x60 DUP3 DUP5 SUB SLT ISZERO PUSH2 0x30D8 JUMPI PUSH2 0x30D7 PUSH2 0x38DD JUMP JUMPDEST JUMPDEST PUSH2 0x30E2 PUSH1 0x60 PUSH2 0x3480 JUMP JUMPDEST SWAP1 POP PUSH1 0x0 PUSH2 0x30F2 DUP5 DUP3 DUP6 ADD PUSH2 0x3142 JUMP JUMPDEST PUSH1 0x0 DUP4 ADD MSTORE POP PUSH1 0x20 PUSH2 0x3106 DUP5 DUP3 DUP6 ADD PUSH2 0x30AD JUMP JUMPDEST PUSH1 0x20 DUP4 ADD MSTORE POP PUSH1 0x40 DUP3 ADD CALLDATALOAD PUSH8 0xFFFFFFFFFFFFFFFF DUP2 GT ISZERO PUSH2 0x312A JUMPI PUSH2 0x3129 PUSH2 0x38E2 JUMP JUMPDEST JUMPDEST PUSH2 0x3136 DUP5 DUP3 DUP6 ADD PUSH2 0x307F JUMP JUMPDEST PUSH1 0x40 DUP4 ADD MSTORE POP SWAP3 SWAP2 POP POP JUMP JUMPDEST PUSH1 0x0 DUP2 CALLDATALOAD SWAP1 POP PUSH2 0x3151 DUP2 PUSH2 0x3ABC JUMP JUMPDEST SWAP3 SWAP2 POP POP JUMP JUMPDEST PUSH1 0x0 PUSH1 0x20 DUP3 DUP5 SUB SLT ISZERO PUSH2 0x316D JUMPI PUSH2 0x316C PUSH2 0x38F1 JUMP JUMPDEST JUMPDEST PUSH1 0x0 PUSH2 0x317B DUP5 DUP3 DUP6 ADD PUSH2 0x306A JUMP JUMPDEST SWAP2 POP POP SWAP3 SWAP2 POP POP JUMP JUMPDEST PUSH1 0x0 PUSH1 0x20 DUP3 DUP5 SUB SLT ISZERO PUSH2 0x319A JUMPI PUSH2 0x3199 PUSH2 0x38F1 JUMP JUMPDEST JUMPDEST PUSH1 0x0 DUP3 ADD CALLDATALOAD PUSH8 0xFFFFFFFFFFFFFFFF DUP2 GT ISZERO PUSH2 0x31B8 JUMPI PUSH2 0x31B7 PUSH2 0x38EC JUMP JUMPDEST JUMPDEST PUSH2 0x31C4 DUP5 DUP3 DUP6 ADD PUSH2 0x30C2 JUMP JUMPDEST SWAP2 POP POP SWAP3 SWAP2 POP POP JUMP JUMPDEST PUSH2 0x31D6 DUP2 PUSH2 0x3672 JUMP JUMPDEST DUP3 MSTORE POP POP JUMP JUMPDEST PUSH2 0x31E5 DUP2 PUSH2 0x3684 JUMP JUMPDEST DUP3 MSTORE POP POP JUMP JUMPDEST PUSH1 0x0 PUSH2 0x31F6 DUP3 PUSH2 0x34D6 JUMP JUMPDEST PUSH2 0x3200 DUP2 DUP6 PUSH2 0x34E1 JUMP JUMPDEST SWAP4 POP PUSH2 0x3210 DUP2 DUP6 PUSH1 0x20 DUP7 ADD PUSH2 0x36DD JUMP JUMPDEST PUSH2 0x3219 DUP2 PUSH2 0x38F6 JUMP JUMPDEST DUP5 ADD SWAP2 POP POP SWAP3 SWAP2 POP POP JUMP JUMPDEST PUSH1 0x0 PUSH2 0x322F DUP3 PUSH2 0x34D6 JUMP JUMPDEST PUSH2 0x3239 DUP2 DUP6 PUSH2 0x34F2 JUMP JUMPDEST SWAP4 POP PUSH2 0x3249 DUP2 DUP6 PUSH1 0x20 DUP7 ADD PUSH2 0x36DD JUMP JUMPDEST DUP1 DUP5 ADD SWAP2 POP POP SWAP3 SWAP2 POP POP JUMP JUMPDEST PUSH1 0x0 PUSH2 0x3262 PUSH1 0x26 DUP4 PUSH2 0x34FD JUMP JUMPDEST SWAP2 POP PUSH2 0x326D DUP3 PUSH2 0x3907 JUMP JUMPDEST PUSH1 0x40 DUP3 ADD SWAP1 POP SWAP2 SWAP1 POP JUMP JUMPDEST PUSH1 0x0 PUSH2 0x3285 PUSH1 0x2C DUP4 PUSH2 0x34FD JUMP JUMPDEST SWAP2 POP PUSH2 0x3290 DUP3 PUSH2 0x3956 JUMP JUMPDEST PUSH1 0x40 DUP3 ADD SWAP1 POP SWAP2 SWAP1 POP JUMP JUMPDEST PUSH1 0x0 PUSH2 0x32A8 PUSH1 0x16 DUP4 PUSH2 0x34FD JUMP JUMPDEST SWAP2 POP PUSH2 0x32B3 DUP3 PUSH2 0x39A5 JUMP JUMPDEST PUSH1 0x20 DUP3 ADD SWAP1 POP SWAP2 SWAP1 POP JUMP JUMPDEST PUSH1 0x0 PUSH2 0x32CB PUSH1 0x2C DUP4 PUSH2 0x34FD JUMP JUMPDEST SWAP2 POP PUSH2 0x32D6 DUP3 PUSH2 0x39CE JUMP JUMPDEST PUSH1 0x40 DUP3 ADD SWAP1 POP SWAP2 SWAP1 POP JUMP JUMPDEST PUSH1 0x0 PUSH2 0x32EE PUSH1 0x20 DUP4 PUSH2 0x34FD JUMP JUMPDEST SWAP2 POP PUSH2 0x32F9 DUP3 PUSH2 0x3A1D JUMP JUMPDEST PUSH1 0x20 DUP3 ADD SWAP1 POP SWAP2 SWAP1 POP JUMP JUMPDEST PUSH1 0x0 PUSH2 0x3311 PUSH1 0x28 DUP4 PUSH2 0x34FD JUMP JUMPDEST SWAP2 POP PUSH2 0x331C DUP3 PUSH2 0x3A46 JUMP JUMPDEST PUSH1 0x40 DUP3 ADD SWAP1 POP SWAP2 SWAP1 POP JUMP JUMPDEST PUSH2 0x3330 DUP2 PUSH2 0x36B0 JUMP JUMPDEST DUP3 MSTORE POP POP JUMP JUMPDEST PUSH1 0x0 PUSH2 0x3342 DUP3 DUP5 PUSH2 0x3224 JUMP JUMPDEST SWAP2 POP DUP2 SWAP1 POP SWAP3 SWAP2 POP POP JUMP JUMPDEST PUSH1 0x0 PUSH1 0x20 DUP3 ADD SWAP1 POP PUSH2 0x3362 PUSH1 0x0 DUP4 ADD DUP5 PUSH2 0x31CD JUMP JUMPDEST SWAP3 SWAP2 POP POP JUMP JUMPDEST PUSH1 0x0 PUSH1 0x20 DUP3 ADD SWAP1 POP PUSH2 0x337D PUSH1 0x0 DUP4 ADD DUP5 PUSH2 0x31DC JUMP JUMPDEST SWAP3 SWAP2 POP POP JUMP JUMPDEST PUSH1 0x0 PUSH1 0x20 DUP3 ADD SWAP1 POP DUP2 DUP2 SUB PUSH1 0x0 DUP4 ADD MSTORE PUSH2 0x339D DUP2 DUP5 PUSH2 0x31EB JUMP JUMPDEST SWAP1 POP SWAP3 SWAP2 POP POP JUMP JUMPDEST PUSH1 0x0 PUSH1 0x20 DUP3 ADD SWAP1 POP DUP2 DUP2 SUB PUSH1 0x0 DUP4 ADD MSTORE PUSH2 0x33BE DUP2 PUSH2 0x3255 JUMP JUMPDEST SWAP1 POP SWAP2 SWAP1 POP JUMP JUMPDEST PUSH1 0x0 PUSH1 0x20 DUP3 ADD SWAP1 POP DUP2 DUP2 SUB PUSH1 0x0 DUP4 ADD MSTORE PUSH2 0x33DE DUP2 PUSH2 0x3278 JUMP JUMPDEST SWAP1 POP SWAP2 SWAP1 POP JUMP JUMPDEST PUSH1 0x0 PUSH1 0x20 DUP3 ADD SWAP1 POP DUP2 DUP2 SUB PUSH1 0x0 DUP4 ADD MSTORE PUSH2 0x33FE DUP2 PUSH2 0x329B JUMP JUMPDEST SWAP1 POP SWAP2 SWAP1 POP JUMP JUMPDEST PUSH1 0x0 PUSH1 0x20 DUP3 ADD SWAP1 POP DUP2 DUP2 SUB PUSH1 0x0 DUP4 ADD MSTORE PUSH2 0x341E DUP2 PUSH2 0x32BE JUMP JUMPDEST SWAP1 POP SWAP2 SWAP1 POP JUMP JUMPDEST PUSH1 0x0 PUSH1 0x20 DUP3 ADD SWAP1 POP DUP2 DUP2 SUB PUSH1 0x0 DUP4 ADD MSTORE PUSH2 0x343E DUP2 PUSH2 0x32E1 JUMP JUMPDEST SWAP1 POP SWAP2 SWAP1 POP JUMP JUMPDEST PUSH1 0x0 PUSH1 0x20 DUP3 ADD SWAP1 POP DUP2 DUP2 SUB PUSH1 0x0 DUP4 ADD MSTORE PUSH2 0x345E DUP2 PUSH2 0x3304 JUMP JUMPDEST SWAP1 POP SWAP2 SWAP1 POP JUMP JUMPDEST PUSH1 0x0 PUSH1 0x20 DUP3 ADD SWAP1 POP PUSH2 0x347A PUSH1 0x0 DUP4 ADD DUP5 PUSH2 0x3327 JUMP JUMPDEST SWAP3 SWAP2 POP POP JUMP JUMPDEST PUSH1 0x0 PUSH2 0x348A PUSH2 0x349B JUMP JUMPDEST SWAP1 POP PUSH2 0x3496 DUP3 DUP3 PUSH2 0x3742 JUMP JUMPDEST SWAP2 SWAP1 POP JUMP JUMPDEST PUSH1 0x0 PUSH1 0x40 MLOAD SWAP1 POP SWAP1 JUMP JUMPDEST PUSH1 0x0 PUSH8 0xFFFFFFFFFFFFFFFF DUP3 GT ISZERO PUSH2 0x34C0 JUMPI PUSH2 0x34BF PUSH2 0x38A9 JUMP JUMPDEST JUMPDEST PUSH2 0x34C9 DUP3 PUSH2 0x38F6 JUMP JUMPDEST SWAP1 POP PUSH1 0x20 DUP2 ADD SWAP1 POP SWAP2 SWAP1 POP JUMP JUMPDEST PUSH1 0x0 DUP2 MLOAD SWAP1 POP SWAP2 SWAP1 POP JUMP JUMPDEST PUSH1 0x0 DUP3 DUP3 MSTORE PUSH1 0x20 DUP3 ADD SWAP1 POP SWAP3 SWAP2 POP POP JUMP JUMPDEST PUSH1 0x0 DUP2 SWAP1 POP SWAP3 SWAP2 POP POP JUMP JUMPDEST PUSH1 0x0 DUP3 DUP3 MSTORE PUSH1 0x20 DUP3 ADD SWAP1 POP SWAP3 SWAP2 POP POP JUMP JUMPDEST PUSH1 0x0 PUSH2 0x3519 DUP3 PUSH2 0x36B0 JUMP JUMPDEST SWAP2 POP PUSH2 0x3524 DUP4 PUSH2 0x36B0 JUMP JUMPDEST SWAP3 POP DUP3 PUSH32 0xFFFFFFFFFFFFFFFFFFFFFFFFFFFFFFFFFFFFFFFFFFFFFFFFFFFFFFFFFFFFFFFF SUB DUP3 GT ISZERO PUSH2 0x3559 JUMPI PUSH2 0x3558 PUSH2 0x37ED JUMP JUMPDEST JUMPDEST DUP3 DUP3 ADD SWAP1 POP SWAP3 SWAP2 POP POP JUMP JUMPDEST PUSH1 0x0 PUSH2 0x356F DUP3 PUSH2 0x36BA JUMP JUMPDEST SWAP2 POP PUSH2 0x357A DUP4 PUSH2 0x36BA JUMP JUMPDEST SWAP3 POP DUP3 PUSH8 0xFFFFFFFFFFFFFFFF SUB DUP3 GT ISZERO PUSH2 0x3597 JUMPI PUSH2 0x3596 PUSH2 0x37ED JUMP JUMPDEST JUMPDEST DUP3 DUP3 ADD SWAP1 POP SWAP3 SWAP2 POP POP JUMP JUMPDEST PUSH1 0x0 PUSH2 0x35AD DUP3 PUSH2 0x36B0 JUMP JUMPDEST SWAP2 POP PUSH2 0x35B8 DUP4 PUSH2 0x36B0 JUMP JUMPDEST SWAP3 POP DUP2 PUSH32 0xFFFFFFFFFFFFFFFFFFFFFFFFFFFFFFFFFFFFFFFFFFFFFFFFFFFFFFFFFFFFFFFF DIV DUP4 GT DUP3 ISZERO ISZERO AND ISZERO PUSH2 0x35F1 JUMPI PUSH2 0x35F0 PUSH2 0x37ED JUMP JUMPDEST JUMPDEST DUP3 DUP3 MUL SWAP1 POP SWAP3 SWAP2 POP POP JUMP JUMPDEST PUSH1 0x0 PUSH2 0x3607 DUP3 PUSH2 0x36BA JUMP JUMPDEST SWAP2 POP PUSH2 0x3612 DUP4 PUSH2 0x36BA JUMP JUMPDEST SWAP3 POP DUP2 PUSH8 0xFFFFFFFFFFFFFFFF DIV DUP4 GT DUP3 ISZERO ISZERO AND ISZERO PUSH2 0x3633 JUMPI PUSH2 0x3632 PUSH2 0x37ED JUMP JUMPDEST JUMPDEST DUP3 DUP3 MUL SWAP1 POP SWAP3 SWAP2 POP POP JUMP JUMPDEST PUSH1 0x0 PUSH2 0x3649 DUP3 PUSH2 0x36BA JUMP JUMPDEST SWAP2 POP PUSH2 0x3654 DUP4 PUSH2 0x36BA JUMP JUMPDEST SWAP3 POP DUP3 DUP3 LT ISZERO PUSH2 0x3667 JUMPI PUSH2 0x3666 PUSH2 0x37ED JUMP JUMPDEST JUMPDEST DUP3 DUP3 SUB SWAP1 POP SWAP3 SWAP2 POP POP JUMP JUMPDEST PUSH1 0x0 PUSH2 0x367D DUP3 PUSH2 0x3690 JUMP JUMPDEST SWAP1 POP SWAP2 SWAP1 POP JUMP JUMPDEST PUSH1 0x0 DUP2 ISZERO ISZERO SWAP1 POP SWAP2 SWAP1 POP JUMP JUMPDEST PUSH1 0x0 PUSH20 0xFFFFFFFFFFFFFFFFFFFFFFFFFFFFFFFFFFFFFFFF DUP3 AND SWAP1 POP SWAP2 SWAP1 POP JUMP JUMPDEST PUSH1 0x0 DUP2 SWAP1 POP SWAP2 SWAP1 POP JUMP JUMPDEST PUSH1 0x0 PUSH8 0xFFFFFFFFFFFFFFFF DUP3 AND SWAP1 POP SWAP2 SWAP1 POP JUMP JUMPDEST DUP3 DUP2 DUP4 CALLDATACOPY PUSH1 0x0 DUP4 DUP4 ADD MSTORE POP POP POP JUMP JUMPDEST PUSH1 0x0 JUMPDEST DUP4 DUP2 LT ISZERO PUSH2 0x36FB JUMPI DUP1 DUP3 ADD MLOAD DUP2 DUP5 ADD MSTORE PUSH1 0x20 DUP2 ADD SWAP1 POP PUSH2 0x36E0 JUMP JUMPDEST DUP4 DUP2 GT ISZERO PUSH2 0x370A JUMPI PUSH1 0x0 DUP5 DUP5 ADD MSTORE JUMPDEST POP POP POP POP JUMP JUMPDEST PUSH1 0x0 PUSH1 0x2 DUP3 DIV SWAP1 POP PUSH1 0x1 DUP3 AND DUP1 PUSH2 0x3728 JUMPI PUSH1 0x7F DUP3 AND SWAP2 POP JUMPDEST PUSH1 0x20 DUP3 LT DUP2 EQ ISZERO PUSH2 0x373C JUMPI PUSH2 0x373B PUSH2 0x384B JUMP JUMPDEST JUMPDEST POP SWAP2 SWAP1 POP JUMP JUMPDEST PUSH2 0x374B DUP3 PUSH2 0x38F6 JUMP JUMPDEST DUP2 ADD DUP2 DUP2 LT PUSH8 0xFFFFFFFFFFFFFFFF DUP3 GT OR ISZERO PUSH2 0x376A JUMPI PUSH2 0x3769 PUSH2 0x38A9 JUMP JUMPDEST JUMPDEST DUP1 PUSH1 0x40 MSTORE POP POP POP JUMP JUMPDEST PUSH1 0x0 PUSH2 0x377E DUP3 PUSH2 0x36B0 JUMP JUMPDEST SWAP2 POP PUSH32 0xFFFFFFFFFFFFFFFFFFFFFFFFFFFFFFFFFFFFFFFFFFFFFFFFFFFFFFFFFFFFFFFF DUP3 EQ ISZERO PUSH2 0x37B1 JUMPI PUSH2 0x37B0 PUSH2 0x37ED JUMP JUMPDEST JUMPDEST PUSH1 0x1 DUP3 ADD SWAP1 POP SWAP2 SWAP1 POP JUMP JUMPDEST PUSH1 0x0 PUSH2 0x37C7 DUP3 PUSH2 0x36BA JUMP JUMPDEST SWAP2 POP PUSH8 0xFFFFFFFFFFFFFFFF DUP3 EQ ISZERO PUSH2 0x37E2 JUMPI PUSH2 0x37E1 PUSH2 0x37ED JUMP JUMPDEST JUMPDEST PUSH1 0x1 DUP3 ADD SWAP1 POP SWAP2 SWAP1 POP JUMP JUMPDEST PUSH32 0x4E487B7100000000000000000000000000000000000000000000000000000000 PUSH1 0x0 MSTORE PUSH1 0x11 PUSH1 0x4 MSTORE PUSH1 0x24 PUSH1 0x0 REVERT JUMPDEST PUSH32 0x4E487B7100000000000000000000000000000000000000000000000000000000 PUSH1 0x0 MSTORE PUSH1 0x21 PUSH1 0x4 MSTORE PUSH1 0x24 PUSH1 0x0 REVERT JUMPDEST PUSH32 0x4E487B7100000000000000000000000000000000000000000000000000000000 PUSH1 0x0 MSTORE PUSH1 0x22 PUSH1 0x4 MSTORE PUSH1 0x24 PUSH1 0x0 REVERT JUMPDEST PUSH32 0x4E487B7100000000000000000000000000000000000000000000000000000000 PUSH1 0x0 MSTORE PUSH1 0x32 PUSH1 0x4 MSTORE PUSH1 0x24 PUSH1 0x0 REVERT JUMPDEST PUSH32 0x4E487B7100000000000000000000000000000000000000000000000000000000 PUSH1 0x0 MSTORE PUSH1 0x41 PUSH1 0x4 MSTORE PUSH1 0x24 PUSH1 0x0 REVERT JUMPDEST PUSH1 0x0 DUP1 REVERT JUMPDEST PUSH1 0x0 DUP1 REVERT JUMPDEST PUSH1 0x0 DUP1 REVERT JUMPDEST PUSH1 0x0 DUP1 REVERT JUMPDEST PUSH1 0x0 DUP1 REVERT JUMPDEST PUSH1 0x0 DUP1 REVERT JUMPDEST PUSH1 0x0 PUSH1 0x1F NOT PUSH1 0x1F DUP4 ADD AND SWAP1 POP SWAP2 SWAP1 POP JUMP JUMPDEST PUSH32 0x4F776E61626C653A206E6577206F776E657220697320746865207A65726F2061 PUSH1 0x0 DUP3 ADD MSTORE PUSH32 0x6464726573730000000000000000000000000000000000000000000000000000 PUSH1 0x20 DUP3 ADD MSTORE POP JUMP JUMPDEST PUSH32 0x46756E647357697468647261776E5061796C6F616420646573657269616C697A PUSH1 0x0 DUP3 ADD MSTORE PUSH32 0x6174696F6E206661696C65640000000000000000000000000000000000000000 PUSH1 0x20 DUP3 ADD MSTORE POP JUMP JUMPDEST PUSH32 0x496E76616C6964206164647265737320666F726D617400000000000000000000 PUSH1 0x0 DUP3 ADD MSTORE POP JUMP JUMPDEST PUSH32 0x46756E64734465706F73697465645061796C6F616420646573657269616C697A PUSH1 0x0 DUP3 ADD MSTORE PUSH32 0x6174696F6E206661696C65640000000000000000000000000000000000000000 PUSH1 0x20 DUP3 ADD MSTORE POP JUMP JUMPDEST PUSH32 0x4F776E61626C653A2063616C6C6572206973206E6F7420746865206F776E6572 PUSH1 0x0 DUP3 ADD MSTORE POP JUMP JUMPDEST PUSH32 0x414D4D437265617465645061796C6F616420646573657269616C697A6174696F PUSH1 0x0 DUP3 ADD MSTORE PUSH32 0x6E206661696C6564000000000000000000000000000000000000000000000000 PUSH1 0x20 DUP3 ADD MSTORE POP JUMP JUMPDEST PUSH2 0x3A9E DUP2 PUSH2 0x3672 JUMP JUMPDEST DUP2 EQ PUSH2 0x3AA9 JUMPI PUSH1 0x0 DUP1 REVERT JUMPDEST POP JUMP JUMPDEST PUSH1 0x9 DUP2 LT PUSH2 0x3AB9 JUMPI PUSH1 0x0 DUP1 REVERT JUMPDEST POP JUMP JUMPDEST PUSH2 0x3AC5 DUP2 PUSH2 0x36BA JUMP JUMPDEST DUP2 EQ PUSH2 0x3AD0 JUMPI PUSH1 0x0 DUP1 REVERT JUMPDEST POP JUMP INVALID LOG2 PUSH5 0x6970667358 0x22 SLT KECCAK256 LT DUP3 MUL 0xED PUSH4 0xC6A104A1 POP PUSH32 0x5BCF44DA89ED545039FAD09494263D485801AD40C064736F6C63430008060033 "
		},
		"gasEstimates": {
			"creation": {
				"codeDepositCost": "3022600",
				"executionCost": "infinite",
				"totalCost": "infinite"
			},
			"external": {
				"isCreated()": "2516",
				"owner()": "2589",
				"renounceOwnership()": "30421",
				"reset()": "infinite",
				"shares(address)": "2836",
				"spool((uint64,uint8,bytes))": "infinite",
				"token1()": "infinite",
				"token2()": "infinite",
				"transferOwnership(address)": "30835"
			},
			"internal": {
				"clear()": "infinite",
				"on(struct DomainEvent memory)": "infinite",
				"onCreated(struct AMMCreatedPayload memory)": "infinite",
				"onFundsDeposited(struct FundsDepositedPayload memory)": "infinite",
				"onFundsWithdrawn(struct FundsWithdrawnPayload memory)": "infinite"
			}
		},
		"methodIdentifiers": {
			"isCreated()": "86174396",
			"owner()": "8da5cb5b",
			"renounceOwnership()": "715018a6",
			"reset()": "d826f88f",
			"shares(address)": "ce7c2ac2",
			"spool((uint64,uint8,bytes))": "8fe8bb96",
			"token1()": "d21220a7",
			"token2()": "25be124e",
			"transferOwnership(address)": "f2fde38b"
		}
	},
	"abi": [
		{
			"anonymous": false,
			"inputs": [
				{
					"indexed": true,
					"internalType": "address",
					"name": "previousOwner",
					"type": "address"
				},
				{
					"indexed": true,
					"internalType": "address",
					"name": "newOwner",
					"type": "address"
				}
			],
			"name": "OwnershipTransferred",
			"type": "event"
		},
		{
			"inputs": [],
			"name": "isCreated",
			"outputs": [
				{
					"internalType": "bool",
					"name": "",
					"type": "bool"
				}
			],
			"stateMutability": "view",
			"type": "function"
		},
		{
			"inputs": [],
			"name": "owner",
			"outputs": [
				{
					"internalType": "address",
					"name": "",
					"type": "address"
				}
			],
			"stateMutability": "view",
			"type": "function"
		},
		{
			"inputs": [],
			"name": "renounceOwnership",
			"outputs": [],
			"stateMutability": "nonpayable",
			"type": "function"
		},
		{
			"inputs": [],
			"name": "reset",
			"outputs": [],
			"stateMutability": "nonpayable",
			"type": "function"
		},
		{
			"inputs": [
				{
					"internalType": "address",
					"name": "",
					"type": "address"
				}
			],
			"name": "shares",
			"outputs": [
				{
					"internalType": "uint256",
					"name": "",
					"type": "uint256"
				}
			],
			"stateMutability": "view",
			"type": "function"
		},
		{
			"inputs": [
				{
					"components": [
						{
							"internalType": "uint64",
							"name": "evnt_idx",
							"type": "uint64"
						},
						{
							"internalType": "enum DomainEventType",
							"name": "evnt_type",
							"type": "uint8"
						},
						{
							"internalType": "bytes",
							"name": "evnt_payload",
							"type": "bytes"
						}
					],
					"internalType": "struct DomainEvent",
					"name": "evnt",
					"type": "tuple"
				}
			],
			"name": "spool",
			"outputs": [],
			"stateMutability": "nonpayable",
			"type": "function"
		},
		{
			"inputs": [],
			"name": "token1",
			"outputs": [
				{
					"internalType": "bytes",
					"name": "",
					"type": "bytes"
				}
			],
			"stateMutability": "view",
			"type": "function"
		},
		{
			"inputs": [],
			"name": "token2",
			"outputs": [
				{
					"internalType": "bytes",
					"name": "",
					"type": "bytes"
				}
			],
			"stateMutability": "view",
			"type": "function"
		},
		{
			"inputs": [
				{
					"internalType": "address",
					"name": "newOwner",
					"type": "address"
				}
			],
			"name": "transferOwnership",
			"outputs": [],
			"stateMutability": "nonpayable",
			"type": "function"
		}
	]
}