{
	"data": {
		"bytecode": {
			"linkReferences": {},
			"object": "60806040526000600c60006101000a81548160ff0219169083151502179055503480156200002c57600080fd5b506200004d620000416200005360201b60201c565b6200005b60201b60201c565b6200011f565b600033905090565b60008060009054906101000a900473ffffffffffffffffffffffffffffffffffffffff169050816000806101000a81548173ffffffffffffffffffffffffffffffffffffffff021916908373ffffffffffffffffffffffffffffffffffffffff1602179055508173ffffffffffffffffffffffffffffffffffffffff168173ffffffffffffffffffffffffffffffffffffffff167f8be0079c531659141344cd1fd0a4f28419497f9722a3daafe3b4186f6b6457e060405160405180910390a35050565b6153bc806200012f6000396000f3fe608060405234801561001057600080fd5b50600436106100b45760003560e01c806393217888116100715780639321788814610169578063af62db3f1461019a578063ce7c2ac2146101ca578063d21220a7146101fa578063d826f88f14610218578063f2fde38b14610222576100b4565b80630c1fc829146100b957806325be124e146100e9578063715018a61461010757806386174396146101115780638da5cb5b1461012f5780638fe8bb961461014d575b600080fd5b6100d360048036038101906100ce91906145c3565b61023e565b6040516100e09190614a90565b60405180910390f35b6100f1610256565b6040516100fe91906148ee565b60405180910390f35b61010f6102e4565b005b6101196102f8565b60405161012691906148d3565b60405180910390f35b61013761030b565b60405161014491906148b8565b60405180910390f35b610167600480360381019061016291906145f0565b610334565b005b610183600480360381019061017e9190614639565b610348565b604051610191929190614aab565b60405180910390f35b6101b460048036038101906101af91906145c3565b610430565b6040516101c19190614a90565b60405180910390f35b6101e460048036038101906101df91906145c3565b610448565b6040516101f19190614a90565b60405180910390f35b610202610460565b60405161020f91906148ee565b60405180910390f35b6102206104ee565b005b61023c600480360381019061023791906145c3565b610500565b005b600a6020528060005260406000206000915090505481565b6002805461026390614dc9565b80601f016020809104026020016040519081016040528092919081815260200182805461028f90614dc9565b80156102dc5780601f106102b1576101008083540402835291602001916102dc565b820191906000526020600020905b8154815290600101906020018083116102bf57829003601f168201915b505050505081565b6102ec610584565b6102f66000610602565b565b600c60009054906101000a900460ff1681565b60008060009054906101000a900473ffffffffffffffffffffffffffffffffffffffff16905090565b61033c610584565b610345816106c6565b50565b600080600060085411610390576040517f08c379a000000000000000000000000000000000000000000000000000000000815260040161038790614a50565b60405180910390fd5b6008548311156103d5576040517f08c379a00000000000000000000000000000000000000000000000000000000081526004016103cc906149f0565b60405180910390fd5b6103fe6008546103f0600354866109ca90919063ffffffff16565b6109e090919063ffffffff16565b915061042960085461041b600454866109ca90919063ffffffff16565b6109e090919063ffffffff16565b9050915091565b60096020528060005260406000206000915090505481565b60066020528060005260406000206000915090505481565b6001805461046d90614dc9565b80601f016020809104026020016040519081016040528092919081815260200182805461049990614dc9565b80156104e65780601f106104bb576101008083540402835291602001916104e6565b820191906000526020600020905b8154815290600101906020018083116104c957829003601f168201915b505050505081565b6104f6610584565b6104fe6109f6565b565b610508610584565b600073ffffffffffffffffffffffffffffffffffffffff168173ffffffffffffffffffffffffffffffffffffffff161415610578576040517f08c379a000000000000000000000000000000000000000000000000000000000815260040161056f90614910565b60405180910390fd5b61058181610602565b50565b61058c610c51565b73ffffffffffffffffffffffffffffffffffffffff166105aa61030b565b73ffffffffffffffffffffffffffffffffffffffff1614610600576040517f08c379a00000000000000000000000000000000000000000000000000000000081526004016105f7906149d0565b60405180910390fd5b565b60008060009054906101000a900473ffffffffffffffffffffffffffffffffffffffff169050816000806101000a81548173ffffffffffffffffffffffffffffffffffffffff021916908373ffffffffffffffffffffffffffffffffffffffff1602179055508173ffffffffffffffffffffffffffffffffffffffff168173ffffffffffffffffffffffffffffffffffffffff167f8be0079c531659141344cd1fd0a4f28419497f9722a3daafe3b4186f6b6457e060405160405180910390a35050565b600360088111156106da576106d9614f04565b5b816020015160088111156106f1576106f0614f04565b5b14156107605760008061070f60008460400151856040015151610c59565b925050915081610754576040517f08c379a000000000000000000000000000000000000000000000000000000000815260040161074b90614a10565b60405180910390fd5b61075d81610e13565b50505b6007600881111561077457610773614f04565b5b8160200151600881111561078b5761078a614f04565b5b14156107fa576000806107a960008460400151856040015151610fc3565b9250509150816107ee576040517f08c379a00000000000000000000000000000000000000000000000000000000081526004016107e5906149b0565b60405180910390fd5b6107f78161117d565b50505b60088081111561080d5761080c614f04565b5b8160200151600881111561082457610823614f04565b5b1415610893576000806108426000846040015185604001515161148d565b925050915081610887576040517f08c379a000000000000000000000000000000000000000000000000000000000815260040161087e90614950565b60405180910390fd5b61089081611647565b50505b600460088111156108a7576108a6614f04565b5b816020015160088111156108be576108bd614f04565b5b141561092d576000806108dc60008460400151856040015151611860565b925050915081610921576040517f08c379a000000000000000000000000000000000000000000000000000000000815260040161091890614930565b60405180910390fd5b61092a81611a1a565b50505b6005600881111561094157610940614f04565b5b8160200151600881111561095857610957614f04565b5b14156109c75760008061097660008460400151856040015151611cf6565b9250509150816109bb576040517f08c379a00000000000000000000000000000000000000000000000000000000081526004016109b290614a70565b60405180910390fd5b6109c481611eb0565b50505b50565b600081836109d89190614c27565b905092915050565b600081836109ee9190614bf6565b905092915050565b60005b600780549050811015610a9a576006600060078381548110610a1e57610a1d614f62565b5b9060005260206000200160009054906101000a900473ffffffffffffffffffffffffffffffffffffffff1673ffffffffffffffffffffffffffffffffffffffff1673ffffffffffffffffffffffffffffffffffffffff168152602001908152602001600020600090558080610a9290614e2c565b9150506109f9565b5060076000610aa99190614221565b620f42406000610ab99190614c27565b60088190555060005b600b80549050811015610be45760096000600b8381548110610ae757610ae6614f62565b5b9060005260206000200160009054906101000a900473ffffffffffffffffffffffffffffffffffffffff1673ffffffffffffffffffffffffffffffffffffffff1673ffffffffffffffffffffffffffffffffffffffff16815260200190815260200160002060009055600a6000600b8381548110610b6857610b67614f62565b5b9060005260206000200160009054906101000a900473ffffffffffffffffffffffffffffffffffffffff1673ffffffffffffffffffffffffffffffffffffffff1673ffffffffffffffffffffffffffffffffffffffff168152602001908152602001600020600090558080610bdc90614e2c565b915050610ac2565b50600b6000610bf39190614221565b6040518060200160405280600081525060019080519060200190610c18929190614242565b506040518060200160405280600081525060029080519060200190610c3e929190614242565b5060006003819055506000600481905550565b600033905090565b600080610c646142c8565b610c6c6142c8565b6000808890508067ffffffffffffffff168782610c899190614bb8565b67ffffffffffffffff161015610cab5760008184955095509550505050610e0a565b5b8667ffffffffffffffff168982610cc39190614cf7565b67ffffffffffffffff161015610dc4576000806000610ce2848c612055565b8094508195508297508396505050505082610d0c5760008487985098509850505050505050610e0a565b60058267ffffffffffffffff161115610d345760008487985098509850505050505050610e0a565b8467ffffffffffffffff168267ffffffffffffffff1611610d645760008487985098509850505050505050610e0a565b610d6e82826121a1565b925082610d8a5760008487985098509850505050505050610e0a565b610d97848c8c858a6122f8565b809550819450505082610db95760008487985098509850505050505050610e0a565b819450505050610cac565b8689610dd09190614bb8565b67ffffffffffffffff168167ffffffffffffffff1614610dfc5760008184955095509550505050610e0a565b600181849550955095505050505b93509350939050565b806000015160019080519060200190610e2d92919061430b565b506000600381905550806020015160029080519060200190610e5092919061430b565b506000600481905550610e706004546003546109ca90919063ffffffff16565b600581905550620f42406000610e869190614c27565b6008819055506000610e9b8260800151612480565b9050816040015167ffffffffffffffff16600960008373ffffffffffffffffffffffffffffffffffffffff1673ffffffffffffffffffffffffffffffffffffffff16815260200190815260200160002081905550816060015167ffffffffffffffff16600a60008373ffffffffffffffffffffffffffffffffffffffff1673ffffffffffffffffffffffffffffffffffffffff16815260200190815260200160002081905550600b819080600181540180825580915050600190039060005260206000200160009091909190916101000a81548173ffffffffffffffffffffffffffffffffffffffff021916908373ffffffffffffffffffffffffffffffffffffffff1602179055506001600c60006101000a81548160ff0219169083151502179055505050565b600080610fce614391565b610fd6614391565b6000808890508067ffffffffffffffff168782610ff39190614bb8565b67ffffffffffffffff1610156110155760008184955095509550505050611174565b5b8667ffffffffffffffff16898261102d9190614cf7565b67ffffffffffffffff16101561112e57600080600061104c848c612055565b80945081955082975083965050505050826110765760008487985098509850505050505050611174565b60038267ffffffffffffffff16111561109e5760008487985098509850505050505050611174565b8467ffffffffffffffff168267ffffffffffffffff16116110ce5760008487985098509850505050505050611174565b6110d882826124d8565b9250826110f45760008487985098509850505050505050611174565b611101848c8c858a6125ab565b8095508194505050826111235760008487985098509850505050505050611174565b819450505050611016565b868961113a9190614bb8565b67ffffffffffffffff168167ffffffffffffffff16146111665760008184955095509550505050611174565b600181849550955095505050505b93509350939050565b600061118c8260400151612480565b90506112266001805461119e90614dc9565b80601f01602080910402602001604051908101604052809291908181526020018280546111ca90614dc9565b80156112175780601f106111ec57610100808354040283529160200191611217565b820191906000526020600020905b8154815290600101906020018083116111fa57829003601f168201915b505050505083600001516126a1565b1561129057816020015167ffffffffffffffff16600960008373ffffffffffffffffffffffffffffffffffffffff1673ffffffffffffffffffffffffffffffffffffffff16815260200190815260200160002060008282546112889190614b62565b925050819055505b611328600280546112a090614dc9565b80601f01602080910402602001604051908101604052809291908181526020018280546112cc90614dc9565b80156113195780601f106112ee57610100808354040283529160200191611319565b820191906000526020600020905b8154815290600101906020018083116112fc57829003601f168201915b505050505083600001516126a1565b1561139257816020015167ffffffffffffffff16600a60008373ffffffffffffffffffffffffffffffffffffffff1673ffffffffffffffffffffffffffffffffffffffff168152602001908152602001600020600082825461138a9190614b62565b925050819055505b6000600960008373ffffffffffffffffffffffffffffffffffffffff1673ffffffffffffffffffffffffffffffffffffffff1681526020019081526020016000205414801561142057506000600a60008373ffffffffffffffffffffffffffffffffffffffff1673ffffffffffffffffffffffffffffffffffffffff16815260200190815260200160002054145b1561148957600b819080600181540180825580915050600190039060005260206000200160009091909190916101000a81548173ffffffffffffffffffffffffffffffffffffffff021916908373ffffffffffffffffffffffffffffffffffffffff1602179055505b5050565b6000806114986143bc565b6114a06143bc565b6000808890508067ffffffffffffffff1687826114bd9190614bb8565b67ffffffffffffffff1610156114df576000818495509550955050505061163e565b5b8667ffffffffffffffff1689826114f79190614cf7565b67ffffffffffffffff1610156115f8576000806000611516848c612055565b8094508195508297508396505050505082611540576000848798509850985050505050505061163e565b60038267ffffffffffffffff161115611568576000848798509850985050505050505061163e565b8467ffffffffffffffff168267ffffffffffffffff1611611598576000848798509850985050505050505061163e565b6115a282826126fa565b9250826115be576000848798509850985050505050505061163e565b6115cb848c8c858a6127cd565b8095508194505050826115ed576000848798509850985050505050505061163e565b8194505050506114e0565b86896116049190614bb8565b67ffffffffffffffff168167ffffffffffffffff1614611630576000818495509550955050505061163e565b600181849550955095505050505b93509350939050565b60006116568260400151612480565b90506116f06001805461166890614dc9565b80601f016020809104026020016040519081016040528092919081815260200182805461169490614dc9565b80156116e15780601f106116b6576101008083540402835291602001916116e1565b820191906000526020600020905b8154815290600101906020018083116116c457829003601f168201915b505050505083600001516126a1565b1561175a57816020015167ffffffffffffffff16600960008373ffffffffffffffffffffffffffffffffffffffff1673ffffffffffffffffffffffffffffffffffffffff16815260200190815260200160002060008282546117529190614cc3565b925050819055505b6117f26002805461176a90614dc9565b80601f016020809104026020016040519081016040528092919081815260200182805461179690614dc9565b80156117e35780601f106117b8576101008083540402835291602001916117e3565b820191906000526020600020905b8154815290600101906020018083116117c657829003601f168201915b505050505083600001516126a1565b1561185c57816020015167ffffffffffffffff16600a60008373ffffffffffffffffffffffffffffffffffffffff1673ffffffffffffffffffffffffffffffffffffffff16815260200190815260200160002060008282546118549190614cc3565b925050819055505b5050565b60008061186b6143e7565b6118736143e7565b6000808890508067ffffffffffffffff1687826118909190614bb8565b67ffffffffffffffff1610156118b25760008184955095509550505050611a11565b5b8667ffffffffffffffff1689826118ca9190614cf7565b67ffffffffffffffff1610156119cb5760008060006118e9848c612055565b80945081955082975083965050505050826119135760008487985098509850505050505050611a11565b60038267ffffffffffffffff16111561193b5760008487985098509850505050505050611a11565b8467ffffffffffffffff168267ffffffffffffffff161161196b5760008487985098509850505050505050611a11565b61197582826128c3565b9250826119915760008487985098509850505050505050611a11565b61199e848c8c858a612996565b8095508194505050826119c05760008487985098509850505050505050611a11565b8194505050506118b3565b86896119d79190614bb8565b67ffffffffffffffff168167ffffffffffffffff1614611a035760008184955095509550505050611a11565b600181849550955095505050505b93509350939050565b6000611a298260400151612480565b90506000806008541415611a4e57620f42406064611a479190614c27565b9050611b0c565b6000611a87600354611a79866000015167ffffffffffffffff166008546109ca90919063ffffffff16565b6109e090919063ffffffff16565b90506000611ac2600454611ab4876020015167ffffffffffffffff166008546109ca90919063ffffffff16565b6109e090919063ffffffff16565b9050808214611b06576040517f08c379a0000000000000000000000000000000000000000000000000000000008152600401611afd90614a30565b60405180910390fd5b81925050505b60008111611b4f576040517f08c379a0000000000000000000000000000000000000000000000000000000008152600401611b4690614990565b60405180910390fd5b826000015167ffffffffffffffff16600960008473ffffffffffffffffffffffffffffffffffffffff1673ffffffffffffffffffffffffffffffffffffffff1681526020019081526020016000206000828254611bac9190614cc3565b92505081905550826020015167ffffffffffffffff16600a60008473ffffffffffffffffffffffffffffffffffffffff1673ffffffffffffffffffffffffffffffffffffffff1681526020019081526020016000206000828254611c109190614cc3565b92505081905550826000015167ffffffffffffffff1660036000828254611c379190614b62565b92505081905550826020015167ffffffffffffffff1660046000828254611c5e9190614b62565b92505081905550611c7c6004546003546109ca90919063ffffffff16565b6005819055508060086000828254611c949190614b62565b9250508190555080600660008473ffffffffffffffffffffffffffffffffffffffff1673ffffffffffffffffffffffffffffffffffffffff1681526020019081526020016000206000828254611cea9190614b62565b92505081905550505050565b600080611d0161441c565b611d0961441c565b6000808890508067ffffffffffffffff168782611d269190614bb8565b67ffffffffffffffff161015611d485760008184955095509550505050611ea7565b5b8667ffffffffffffffff168982611d609190614cf7565b67ffffffffffffffff161015611e61576000806000611d7f848c612055565b8094508195508297508396505050505082611da95760008487985098509850505050505050611ea7565b60048267ffffffffffffffff161115611dd15760008487985098509850505050505050611ea7565b8467ffffffffffffffff168267ffffffffffffffff1611611e015760008487985098509850505050505050611ea7565b611e0b8282612a8c565b925082611e275760008487985098509850505050505050611ea7565b611e34848c8c858a612ba1565b809550819450505082611e565760008487985098509850505050505050611ea7565b819450505050611d49565b8689611e6d9190614bb8565b67ffffffffffffffff168167ffffffffffffffff1614611e995760008184955095509550505050611ea7565b600181849550955095505050505b93509350939050565b6000611ebf8260600151612480565b90506000826000015167ffffffffffffffff169050600080611ee083610348565b9150915082600660003373ffffffffffffffffffffffffffffffffffffffff1673ffffffffffffffffffffffffffffffffffffffff1681526020019081526020016000206000828254611f339190614cc3565b925050819055508260086000828254611f4c9190614cc3565b925050819055508160036000828254611f659190614cc3565b925050819055508060046000828254611f7e9190614cc3565b92505081905550611f9c6004546003546109ca90919063ffffffff16565b60058190555081600960008673ffffffffffffffffffffffffffffffffffffffff1673ffffffffffffffffffffffffffffffffffffffff1681526020019081526020016000206000828254611ff19190614b62565b9250508190555080600a60008673ffffffffffffffffffffffffffffffffffffffff1673ffffffffffffffffffffffffffffffffffffffff16815260200190815260200160002060008282546120479190614b62565b925050819055505050505050565b600080600080600080600061206a8989612ce0565b9250925092508261208c57600082600060069650965096509650505050612198565b600060038267ffffffffffffffff16901c905060006007831690506006808111156120ba576120b9614f04565b5b67ffffffffffffffff168167ffffffffffffffff16106120ed576000846000600698509850985098505050505050612198565b60008167ffffffffffffffff16600681111561210c5761210b614f04565b5b90506003600681111561212257612121614f04565b5b81600681111561213557612134614f04565b5b14806121655750600460068111156121505761214f614f04565b5b81600681111561216357612162614f04565b5b145b1561218457600085600060069950995099509950505050505050612198565b600185848399509950995099505050505050505b92959194509250565b600060018367ffffffffffffffff1614156121e557600260068111156121ca576121c9614f04565b5b8260068111156121dd576121dc614f04565b5b1490506122f2565b60028367ffffffffffffffff161415612227576002600681111561220c5761220b614f04565b5b82600681111561221f5761221e614f04565b5b1490506122f2565b60038367ffffffffffffffff161415612269576000600681111561224e5761224d614f04565b5b82600681111561226157612260614f04565b5b1490506122f2565b60048367ffffffffffffffff1614156122ab57600060068111156122905761228f614f04565b5b8260068111156122a3576122a2614f04565b5b1490506122f2565b60058367ffffffffffffffff1614156122ed57600260068111156122d2576122d1614f04565b5b8260068111156122e5576122e4614f04565b5b1490506122f2565b600090505b92915050565b600080600087905060018567ffffffffffffffff161415612349576000612320828987612ed8565b80935081925050508061233b57600082935093505050612476565b600182935093505050612476565b60028567ffffffffffffffff16141561239257600061236982898761305d565b80935081925050508061238457600082935093505050612476565b600182935093505050612476565b60038567ffffffffffffffff1614156123db5760006123b28289876131e2565b8093508192505050806123cd57600082935093505050612476565b600182935093505050612476565b60048567ffffffffffffffff1614156124245760006123fb828987613264565b80935081925050508061241657600082935093505050612476565b600182935093505050612476565b60058567ffffffffffffffff16141561246d5760006124448289876132e6565b80935081925050508061245f57600082935093505050612476565b600182935093505050612476565b60008192509250505b9550959350505050565b600060148251146124c6576040517f08c379a00000000000000000000000000000000000000000000000000000000081526004016124bd90614970565b60405180910390fd5b60006014830151905080915050919050565b600060018367ffffffffffffffff16141561251c576002600681111561250157612500614f04565b5b82600681111561251457612513614f04565b5b1490506125a5565b60028367ffffffffffffffff16141561255e576000600681111561254357612542614f04565b5b82600681111561255657612555614f04565b5b1490506125a5565b60038367ffffffffffffffff1614156125a0576002600681111561258557612584614f04565b5b82600681111561259857612597614f04565b5b1490506125a5565b600090505b92915050565b600080600087905060018567ffffffffffffffff1614156125fc5760006125d382898761346b565b8093508192505050806125ee57600082935093505050612697565b600182935093505050612697565b60028567ffffffffffffffff16141561264557600061261c8289876135f0565b80935081925050508061263757600082935093505050612697565b600182935093505050612697565b60038567ffffffffffffffff16141561268e576000612665828987613672565b80935081925050508061268057600082935093505050612697565b600182935093505050612697565b60008192509250505b9550959350505050565b6000816040516020016126b491906148a1565b60405160208183030381529060405280519060200120836040516020016126db91906148a1565b6040516020818303038152906040528051906020012014905092915050565b600060018367ffffffffffffffff16141561273e576002600681111561272357612722614f04565b5b82600681111561273657612735614f04565b5b1490506127c7565b60028367ffffffffffffffff161415612780576000600681111561276557612764614f04565b5b82600681111561277857612777614f04565b5b1490506127c7565b60038367ffffffffffffffff1614156127c257600260068111156127a7576127a6614f04565b5b8260068111156127ba576127b9614f04565b5b1490506127c7565b600090505b92915050565b600080600087905060018567ffffffffffffffff16141561281e5760006127f58289876137f7565b809350819250505080612810576000829350935050506128b9565b6001829350935050506128b9565b60028567ffffffffffffffff16141561286757600061283e82898761397c565b809350819250505080612859576000829350935050506128b9565b6001829350935050506128b9565b60038567ffffffffffffffff1614156128b05760006128878289876139fe565b8093508192505050806128a2576000829350935050506128b9565b6001829350935050506128b9565b60008192509250505b9550959350505050565b600060018367ffffffffffffffff16141561290757600060068111156128ec576128eb614f04565b5b8260068111156128ff576128fe614f04565b5b149050612990565b60028367ffffffffffffffff161415612949576000600681111561292e5761292d614f04565b5b82600681111561294157612940614f04565b5b149050612990565b60038367ffffffffffffffff16141561298b57600260068111156129705761296f614f04565b5b82600681111561298357612982614f04565b5b149050612990565b600090505b92915050565b600080600087905060018567ffffffffffffffff1614156129e75760006129be828987613b83565b8093508192505050806129d957600082935093505050612a82565b600182935093505050612a82565b60028567ffffffffffffffff161415612a30576000612a07828987613c05565b809350819250505080612a2257600082935093505050612a82565b600182935093505050612a82565b60038567ffffffffffffffff161415612a79576000612a50828987613c87565b809350819250505080612a6b57600082935093505050612a82565b600182935093505050612a82565b60008192509250505b9550959350505050565b600060018367ffffffffffffffff161415612ad05760006006811115612ab557612ab4614f04565b5b826006811115612ac857612ac7614f04565b5b149050612b9b565b60028367ffffffffffffffff161415612b125760006006811115612af757612af6614f04565b5b826006811115612b0a57612b09614f04565b5b149050612b9b565b60038367ffffffffffffffff161415612b545760006006811115612b3957612b38614f04565b5b826006811115612b4c57612b4b614f04565b5b149050612b9b565b60048367ffffffffffffffff161415612b965760026006811115612b7b57612b7a614f04565b5b826006811115612b8e57612b8d614f04565b5b149050612b9b565b600090505b92915050565b600080600087905060018567ffffffffffffffff161415612bf2576000612bc9828987613e0c565b809350819250505080612be457600082935093505050612cd6565b600182935093505050612cd6565b60028567ffffffffffffffff161415612c3b576000612c12828987613e8e565b809350819250505080612c2d57600082935093505050612cd6565b600182935093505050612cd6565b60038567ffffffffffffffff161415612c84576000612c5b828987613f10565b809350819250505080612c7657600082935093505050612cd6565b600182935093505050612cd6565b60048567ffffffffffffffff161415612ccd576000612ca4828987613f92565b809350819250505080612cbf57600082935093505050612cd6565b600182935093505050612cd6565b60008192509250505b9550959350505050565b60008060008060005b600a67ffffffffffffffff168167ffffffffffffffff161015612e035785518782612d149190614bb8565b67ffffffffffffffff1610612d355760008760009450945094505050612ed1565b6000868289612d449190614bb8565b67ffffffffffffffff1681518110612d5f57612d5e614f62565b5b602001015160f81c60f81b60f81c90506000607f82169050600783612d849190614c81565b67ffffffffffffffff168160ff1667ffffffffffffffff16901b8417935060006080831660ff161415612dee5760008367ffffffffffffffff16118015612dce575060008160ff16145b15612de757600089600096509650965050505050612ed1565b5050612e03565b50508080612dfb90614e75565b915050612ce9565b600a67ffffffffffffffff168167ffffffffffffffff1610612e315760008760009450945094505050612ed1565b6001600a612e3f9190614cf7565b67ffffffffffffffff168167ffffffffffffffff161415612eae576001868289612e699190614bb8565b67ffffffffffffffff1681518110612e8457612e83614f62565b5b602001015160f81c60f81b60f81c60ff161115612ead5760008760009450945094505050612ed1565b5b6001808289612ebd9190614bb8565b612ec79190614bb8565b8394509450945050505b9250925092565b600080600080612ee88787614117565b80935081995082945050505081612f0757600087935093505050613055565b60008167ffffffffffffffff161415612f2857600087935093505050613055565b8067ffffffffffffffff1667ffffffffffffffff811115612f4c57612f4b614f91565b5b6040519080825280601f01601f191660200182016040528015612f7e5781602001600182028036833780820191505090505b50856000018190525060005b8167ffffffffffffffff168167ffffffffffffffff16101561303c57868189612fb39190614bb8565b67ffffffffffffffff1681518110612fce57612fcd614f62565b5b602001015160f81c60f81b86600001518267ffffffffffffffff1681518110612ffa57612ff9614f62565b5b60200101907effffffffffffffffffffffffffffffffffffffffffffffffffffffffffffff1916908160001a905350808061303490614e75565b915050612f8a565b5080876130499190614bb8565b96506001879350935050505b935093915050565b60008060008061306d8787614117565b8093508199508294505050508161308c576000879350935050506131da565b60008167ffffffffffffffff1614156130ad576000879350935050506131da565b8067ffffffffffffffff1667ffffffffffffffff8111156130d1576130d0614f91565b5b6040519080825280601f01601f1916602001820160405280156131035781602001600182028036833780820191505090505b50856020018190525060005b8167ffffffffffffffff168167ffffffffffffffff1610156131c1578681896131389190614bb8565b67ffffffffffffffff168151811061315357613152614f62565b5b602001015160f81c60f81b86602001518267ffffffffffffffff168151811061317f5761317e614f62565b5b60200101907effffffffffffffffffffffffffffffffffffffffffffffffffffffffffffff1916908160001a90535080806131b990614e75565b91505061310f565b5080876131ce9190614bb8565b96506001879350935050505b935093915050565b6000806000806131f28787614133565b809350819950829450505050816132115760008793509350505061325c565b60008167ffffffffffffffff1614156132325760008793509350505061325c565b80856040019067ffffffffffffffff16908167ffffffffffffffff16815250506001879350935050505b935093915050565b6000806000806132748787614133565b80935081995082945050505081613293576000879350935050506132de565b60008167ffffffffffffffff1614156132b4576000879350935050506132de565b80856060019067ffffffffffffffff16908167ffffffffffffffff16815250506001879350935050505b935093915050565b6000806000806132f68787614117565b8093508199508294505050508161331557600087935093505050613463565b60008167ffffffffffffffff16141561333657600087935093505050613463565b8067ffffffffffffffff1667ffffffffffffffff81111561335a57613359614f91565b5b6040519080825280601f01601f19166020018201604052801561338c5781602001600182028036833780820191505090505b50856080018190525060005b8167ffffffffffffffff168167ffffffffffffffff16101561344a578681896133c19190614bb8565b67ffffffffffffffff16815181106133dc576133db614f62565b5b602001015160f81c60f81b86608001518267ffffffffffffffff168151811061340857613407614f62565b5b60200101907effffffffffffffffffffffffffffffffffffffffffffffffffffffffffffff1916908160001a905350808061344290614e75565b915050613398565b5080876134579190614bb8565b96506001879350935050505b935093915050565b60008060008061347b8787614117565b8093508199508294505050508161349a576000879350935050506135e8565b60008167ffffffffffffffff1614156134bb576000879350935050506135e8565b8067ffffffffffffffff1667ffffffffffffffff8111156134df576134de614f91565b5b6040519080825280601f01601f1916602001820160405280156135115781602001600182028036833780820191505090505b50856000018190525060005b8167ffffffffffffffff168167ffffffffffffffff1610156135cf578681896135469190614bb8565b67ffffffffffffffff168151811061356157613560614f62565b5b602001015160f81c60f81b86600001518267ffffffffffffffff168151811061358d5761358c614f62565b5b60200101907effffffffffffffffffffffffffffffffffffffffffffffffffffffffffffff1916908160001a90535080806135c790614e75565b91505061351d565b5080876135dc9190614bb8565b96506001879350935050505b935093915050565b6000806000806136008787614133565b8093508199508294505050508161361f5760008793509350505061366a565b60008167ffffffffffffffff1614156136405760008793509350505061366a565b80856020019067ffffffffffffffff16908167ffffffffffffffff16815250506001879350935050505b935093915050565b6000806000806136828787614117565b809350819950829450505050816136a1576000879350935050506137ef565b60008167ffffffffffffffff1614156136c2576000879350935050506137ef565b8067ffffffffffffffff1667ffffffffffffffff8111156136e6576136e5614f91565b5b6040519080825280601f01601f1916602001820160405280156137185781602001600182028036833780820191505090505b50856040018190525060005b8167ffffffffffffffff168167ffffffffffffffff1610156137d65786818961374d9190614bb8565b67ffffffffffffffff168151811061376857613767614f62565b5b602001015160f81c60f81b86604001518267ffffffffffffffff168151811061379457613793614f62565b5b60200101907effffffffffffffffffffffffffffffffffffffffffffffffffffffffffffff1916908160001a90535080806137ce90614e75565b915050613724565b5080876137e39190614bb8565b96506001879350935050505b935093915050565b6000806000806138078787614117565b8093508199508294505050508161382657600087935093505050613974565b60008167ffffffffffffffff16141561384757600087935093505050613974565b8067ffffffffffffffff1667ffffffffffffffff81111561386b5761386a614f91565b5b6040519080825280601f01601f19166020018201604052801561389d5781602001600182028036833780820191505090505b50856000018190525060005b8167ffffffffffffffff168167ffffffffffffffff16101561395b578681896138d29190614bb8565b67ffffffffffffffff16815181106138ed576138ec614f62565b5b602001015160f81c60f81b86600001518267ffffffffffffffff168151811061391957613918614f62565b5b60200101907effffffffffffffffffffffffffffffffffffffffffffffffffffffffffffff1916908160001a905350808061395390614e75565b9150506138a9565b5080876139689190614bb8565b96506001879350935050505b935093915050565b60008060008061398c8787614133565b809350819950829450505050816139ab576000879350935050506139f6565b60008167ffffffffffffffff1614156139cc576000879350935050506139f6565b80856020019067ffffffffffffffff16908167ffffffffffffffff16815250506001879350935050505b935093915050565b600080600080613a0e8787614117565b80935081995082945050505081613a2d57600087935093505050613b7b565b60008167ffffffffffffffff161415613a4e57600087935093505050613b7b565b8067ffffffffffffffff1667ffffffffffffffff811115613a7257613a71614f91565b5b6040519080825280601f01601f191660200182016040528015613aa45781602001600182028036833780820191505090505b50856040018190525060005b8167ffffffffffffffff168167ffffffffffffffff161015613b6257868189613ad99190614bb8565b67ffffffffffffffff1681518110613af457613af3614f62565b5b602001015160f81c60f81b86604001518267ffffffffffffffff1681518110613b2057613b1f614f62565b5b60200101907effffffffffffffffffffffffffffffffffffffffffffffffffffffffffffff1916908160001a9053508080613b5a90614e75565b915050613ab0565b508087613b6f9190614bb8565b96506001879350935050505b935093915050565b600080600080613b938787614133565b80935081995082945050505081613bb257600087935093505050613bfd565b60008167ffffffffffffffff161415613bd357600087935093505050613bfd565b80856000019067ffffffffffffffff16908167ffffffffffffffff16815250506001879350935050505b935093915050565b600080600080613c158787614133565b80935081995082945050505081613c3457600087935093505050613c7f565b60008167ffffffffffffffff161415613c5557600087935093505050613c7f565b80856020019067ffffffffffffffff16908167ffffffffffffffff16815250506001879350935050505b935093915050565b600080600080613c978787614117565b80935081995082945050505081613cb657600087935093505050613e04565b60008167ffffffffffffffff161415613cd757600087935093505050613e04565b8067ffffffffffffffff1667ffffffffffffffff811115613cfb57613cfa614f91565b5b6040519080825280601f01601f191660200182016040528015613d2d5781602001600182028036833780820191505090505b50856040018190525060005b8167ffffffffffffffff168167ffffffffffffffff161015613deb57868189613d629190614bb8565b67ffffffffffffffff1681518110613d7d57613d7c614f62565b5b602001015160f81c60f81b86604001518267ffffffffffffffff1681518110613da957613da8614f62565b5b60200101907effffffffffffffffffffffffffffffffffffffffffffffffffffffffffffff1916908160001a9053508080613de390614e75565b915050613d39565b508087613df89190614bb8565b96506001879350935050505b935093915050565b600080600080613e1c8787614133565b80935081995082945050505081613e3b57600087935093505050613e86565b60008167ffffffffffffffff161415613e5c57600087935093505050613e86565b80856000019067ffffffffffffffff16908167ffffffffffffffff16815250506001879350935050505b935093915050565b600080600080613e9e8787614133565b80935081995082945050505081613ebd57600087935093505050613f08565b60008167ffffffffffffffff161415613ede57600087935093505050613f08565b80856020019067ffffffffffffffff16908167ffffffffffffffff16815250506001879350935050505b935093915050565b600080600080613f208787614133565b80935081995082945050505081613f3f57600087935093505050613f8a565b60008167ffffffffffffffff161415613f6057600087935093505050613f8a565b80856040019067ffffffffffffffff16908167ffffffffffffffff16815250506001879350935050505b935093915050565b600080600080613fa28787614117565b80935081995082945050505081613fc15760008793509350505061410f565b60008167ffffffffffffffff161415613fe25760008793509350505061410f565b8067ffffffffffffffff1667ffffffffffffffff81111561400657614005614f91565b5b6040519080825280601f01601f1916602001820160405280156140385781602001600182028036833780820191505090505b50856060018190525060005b8167ffffffffffffffff168167ffffffffffffffff1610156140f65786818961406d9190614bb8565b67ffffffffffffffff168151811061408857614087614f62565b5b602001015160f81c60f81b86606001518267ffffffffffffffff16815181106140b4576140b3614f62565b5b60200101907effffffffffffffffffffffffffffffffffffffffffffffffffffffffffffff1916908160001a90535080806140ee90614e75565b915050614044565b5080876141039190614bb8565b96506001879350935050505b935093915050565b60008060006141268585614179565b9250925092509250925092565b6000806000806000806141468888612ce0565b92509250925082614164576000826000955095509550505050614172565b600182829550955095505050505b9250925092565b60008060008060008061418c8888612ce0565b925092509250826141aa57600082600095509550955050505061421a565b8167ffffffffffffffff1681830167ffffffffffffffff1610156141db57600082600095509550955050505061421a565b865182826141e99190614bb8565b67ffffffffffffffff16111561420c57600082600095509550955050505061421a565b600182829550955095505050505b9250925092565b508054600082559060005260206000209081019061423f9190614462565b50565b82805461424e90614dc9565b90600052602060002090601f01602090048101928261427057600085556142b7565b82601f1061428957805160ff19168380011785556142b7565b828001600101855582156142b7579182015b828111156142b657825182559160200191906001019061429b565b5b5090506142c49190614462565b5090565b6040518060a001604052806060815260200160608152602001600067ffffffffffffffff168152602001600067ffffffffffffffff168152602001606081525090565b82805461431790614dc9565b90600052602060002090601f0160209004810192826143395760008555614380565b82601f1061435257805160ff1916838001178555614380565b82800160010185558215614380579182015b8281111561437f578251825591602001919060010190614364565b5b50905061438d9190614462565b5090565b604051806060016040528060608152602001600067ffffffffffffffff168152602001606081525090565b604051806060016040528060608152602001600067ffffffffffffffff168152602001606081525090565b6040518060600160405280600067ffffffffffffffff168152602001600067ffffffffffffffff168152602001606081525090565b6040518060800160405280600067ffffffffffffffff168152602001600067ffffffffffffffff168152602001600067ffffffffffffffff168152602001606081525090565b5b8082111561447b576000816000905550600101614463565b5090565b600061449261448d84614af9565b614ad4565b9050828152602081018484840111156144ae576144ad614fcf565b5b6144b9848285614d87565b509392505050565b6000813590506144d081615331565b92915050565b600082601f8301126144eb576144ea614fc0565b5b81356144fb84826020860161447f565b91505092915050565b60008135905061451381615348565b92915050565b60006060828403121561452f5761452e614fc5565b5b6145396060614ad4565b90506000614549848285016145ae565b600083015250602061455d84828501614504565b602083015250604082013567ffffffffffffffff81111561458157614580614fca565b5b61458d848285016144d6565b60408301525092915050565b6000813590506145a881615358565b92915050565b6000813590506145bd8161536f565b92915050565b6000602082840312156145d9576145d8614fd9565b5b60006145e7848285016144c1565b91505092915050565b60006020828403121561460657614605614fd9565b5b600082013567ffffffffffffffff81111561462457614623614fd4565b5b61463084828501614519565b91505092915050565b60006020828403121561464f5761464e614fd9565b5b600061465d84828501614599565b91505092915050565b61466f81614d2b565b82525050565b61467e81614d3d565b82525050565b600061468f82614b2a565b6146998185614b35565b93506146a9818560208601614d96565b6146b281614fde565b840191505092915050565b60006146c882614b2a565b6146d28185614b46565b93506146e2818560208601614d96565b80840191505092915050565b60006146fb602683614b51565b915061470682614fef565b604082019050919050565b600061471e602c83614b51565b91506147298261503e565b604082019050919050565b6000614741602c83614b51565b915061474c8261508d565b604082019050919050565b6000614764601683614b51565b915061476f826150dc565b602082019050919050565b6000614787603183614b51565b915061479282615105565b604082019050919050565b60006147aa602c83614b51565b91506147b582615154565b604082019050919050565b60006147cd602083614b51565b91506147d8826151a3565b602082019050919050565b60006147f0602483614b51565b91506147fb826151cc565b604082019050919050565b6000614813602883614b51565b915061481e8261521b565b604082019050919050565b6000614836602a83614b51565b91506148418261526a565b604082019050919050565b6000614859601483614b51565b9150614864826152b9565b602082019050919050565b600061487c602e83614b51565b9150614887826152e2565b604082019050919050565b61489b81614d69565b82525050565b60006148ad82846146bd565b915081905092915050565b60006020820190506148cd6000830184614666565b92915050565b60006020820190506148e86000830184614675565b92915050565b600060208201905081810360008301526149088184614684565b905092915050565b60006020820190508181036000830152614929816146ee565b9050919050565b6000602082019050818103600083015261494981614711565b9050919050565b6000602082019050818103600083015261496981614734565b9050919050565b6000602082019050818103600083015261498981614757565b9050919050565b600060208201905081810360008301526149a98161477a565b9050919050565b600060208201905081810360008301526149c98161479d565b9050919050565b600060208201905081810360008301526149e9816147c0565b9050919050565b60006020820190508181036000830152614a09816147e3565b9050919050565b60006020820190508181036000830152614a2981614806565b9050919050565b60006020820190508181036000830152614a4981614829565b9050919050565b60006020820190508181036000830152614a698161484c565b9050919050565b60006020820190508181036000830152614a898161486f565b9050919050565b6000602082019050614aa56000830184614892565b92915050565b6000604082019050614ac06000830185614892565b614acd6020830184614892565b9392505050565b6000614ade614aef565b9050614aea8282614dfb565b919050565b6000604051905090565b600067ffffffffffffffff821115614b1457614b13614f91565b5b614b1d82614fde565b9050602081019050919050565b600081519050919050565b600082825260208201905092915050565b600081905092915050565b600082825260208201905092915050565b6000614b6d82614d69565b9150614b7883614d69565b9250827fffffffffffffffffffffffffffffffffffffffffffffffffffffffffffffffff03821115614bad57614bac614ea6565b5b828201905092915050565b6000614bc382614d73565b9150614bce83614d73565b92508267ffffffffffffffff03821115614beb57614bea614ea6565b5b828201905092915050565b6000614c0182614d69565b9150614c0c83614d69565b925082614c1c57614c1b614ed5565b5b828204905092915050565b6000614c3282614d69565b9150614c3d83614d69565b9250817fffffffffffffffffffffffffffffffffffffffffffffffffffffffffffffffff0483118215151615614c7657614c75614ea6565b5b828202905092915050565b6000614c8c82614d73565b9150614c9783614d73565b92508167ffffffffffffffff0483118215151615614cb857614cb7614ea6565b5b828202905092915050565b6000614cce82614d69565b9150614cd983614d69565b925082821015614cec57614ceb614ea6565b5b828203905092915050565b6000614d0282614d73565b9150614d0d83614d73565b925082821015614d2057614d1f614ea6565b5b828203905092915050565b6000614d3682614d49565b9050919050565b60008115159050919050565b600073ffffffffffffffffffffffffffffffffffffffff82169050919050565b6000819050919050565b600067ffffffffffffffff82169050919050565b82818337600083830152505050565b60005b83811015614db4578082015181840152602081019050614d99565b83811115614dc3576000848401525b50505050565b60006002820490506001821680614de157607f821691505b60208210811415614df557614df4614f33565b5b50919050565b614e0482614fde565b810181811067ffffffffffffffff82111715614e2357614e22614f91565b5b80604052505050565b6000614e3782614d69565b91507fffffffffffffffffffffffffffffffffffffffffffffffffffffffffffffffff821415614e6a57614e69614ea6565b5b600182019050919050565b6000614e8082614d73565b915067ffffffffffffffff821415614e9b57614e9a614ea6565b5b600182019050919050565b7f4e487b7100000000000000000000000000000000000000000000000000000000600052601160045260246000fd5b7f4e487b7100000000000000000000000000000000000000000000000000000000600052601260045260246000fd5b7f4e487b7100000000000000000000000000000000000000000000000000000000600052602160045260246000fd5b7f4e487b7100000000000000000000000000000000000000000000000000000000600052602260045260246000fd5b7f4e487b7100000000000000000000000000000000000000000000000000000000600052603260045260246000fd5b7f4e487b7100000000000000000000000000000000000000000000000000000000600052604160045260246000fd5b600080fd5b600080fd5b600080fd5b600080fd5b600080fd5b600080fd5b6000601f19601f8301169050919050565b7f4f776e61626c653a206e6577206f776e657220697320746865207a65726f206160008201527f6464726573730000000000000000000000000000000000000000000000000000602082015250565b7f4c697175696469747941646465645061796c6f616420646573657269616c697a60008201527f6174696f6e206661696c65640000000000000000000000000000000000000000602082015250565b7f46756e647357697468647261776e5061796c6f616420646573657269616c697a60008201527f6174696f6e206661696c65640000000000000000000000000000000000000000602082015250565b7f496e76616c6964206164647265737320666f726d617400000000000000000000600082015250565b7f41737365742076616c7565206c657373207468616e207468726573686f6c642060008201527f666f7220636f6e747269627574696f6e21000000000000000000000000000000602082015250565b7f46756e64734465706f73697465645061796c6f616420646573657269616c697a60008201527f6174696f6e206661696c65640000000000000000000000000000000000000000602082015250565b7f4f776e61626c653a2063616c6c6572206973206e6f7420746865206f776e6572600082015250565b7f53686172652073686f756c64206265206c657373207468616e20746f74616c5360008201527f6861726500000000000000000000000000000000000000000000000000000000602082015250565b7f414d4d437265617465645061796c6f616420646573657269616c697a6174696f60008201527f6e206661696c6564000000000000000000000000000000000000000000000000602082015250565b7f4571756976616c656e742076616c7565206f6620746f6b656e73206e6f74207060008201527f726f76696465642e2e2e00000000000000000000000000000000000000000000602082015250565b7f4e6f206c697175696469747920696e20706f6f6c000000000000000000000000600082015250565b7f4c697175696469747952656d6f7665645061796c6f616420646573657269616c60008201527f697a6174696f6e206661696c6564000000000000000000000000000000000000602082015250565b61533a81614d2b565b811461534557600080fd5b50565b6009811061535557600080fd5b50565b61536181614d69565b811461536c57600080fd5b50565b61537881614d73565b811461538357600080fd5b5056fea26469706673582212208b8d9a76559683079641b26c554c1c1a23f5f7ab7a9d62f9939276673080469e64736f6c63430008060033",
			"opcodes": "PUSH1 0x80 PUSH1 0x40 MSTORE PUSH1 0x0 PUSH1 0xC PUSH1 0x0 PUSH2 0x100 EXP DUP2 SLOAD DUP2 PUSH1 0xFF MUL NOT AND SWAP1 DUP4 ISZERO ISZERO MUL OR SWAP1 SSTORE POP CALLVALUE DUP1 ISZERO PUSH3 0x2C JUMPI PUSH1 0x0 DUP1 REVERT JUMPDEST POP PUSH3 0x4D PUSH3 0x41 PUSH3 0x53 PUSH1 0x20 SHL PUSH1 0x20 SHR JUMP JUMPDEST PUSH3 0x5B PUSH1 0x20 SHL PUSH1 0x20 SHR JUMP JUMPDEST PUSH3 0x11F JUMP JUMPDEST PUSH1 0x0 CALLER SWAP1 POP SWAP1 JUMP JUMPDEST PUSH1 0x0 DUP1 PUSH1 0x0 SWAP1 SLOAD SWAP1 PUSH2 0x100 EXP SWAP1 DIV PUSH20 0xFFFFFFFFFFFFFFFFFFFFFFFFFFFFFFFFFFFFFFFF AND SWAP1 POP DUP2 PUSH1 0x0 DUP1 PUSH2 0x100 EXP DUP2 SLOAD DUP2 PUSH20 0xFFFFFFFFFFFFFFFFFFFFFFFFFFFFFFFFFFFFFFFF MUL NOT AND SWAP1 DUP4 PUSH20 0xFFFFFFFFFFFFFFFFFFFFFFFFFFFFFFFFFFFFFFFF AND MUL OR SWAP1 SSTORE POP DUP2 PUSH20 0xFFFFFFFFFFFFFFFFFFFFFFFFFFFFFFFFFFFFFFFF AND DUP2 PUSH20 0xFFFFFFFFFFFFFFFFFFFFFFFFFFFFFFFFFFFFFFFF AND PUSH32 0x8BE0079C531659141344CD1FD0A4F28419497F9722A3DAAFE3B4186F6B6457E0 PUSH1 0x40 MLOAD PUSH1 0x40 MLOAD DUP1 SWAP2 SUB SWAP1 LOG3 POP POP JUMP JUMPDEST PUSH2 0x53BC DUP1 PUSH3 0x12F PUSH1 0x0 CODECOPY PUSH1 0x0 RETURN INVALID PUSH1 0x80 PUSH1 0x40 MSTORE CALLVALUE DUP1 ISZERO PUSH2 0x10 JUMPI PUSH1 0x0 DUP1 REVERT JUMPDEST POP PUSH1 0x4 CALLDATASIZE LT PUSH2 0xB4 JUMPI PUSH1 0x0 CALLDATALOAD PUSH1 0xE0 SHR DUP1 PUSH4 0x93217888 GT PUSH2 0x71 JUMPI DUP1 PUSH4 0x93217888 EQ PUSH2 0x169 JUMPI DUP1 PUSH4 0xAF62DB3F EQ PUSH2 0x19A JUMPI DUP1 PUSH4 0xCE7C2AC2 EQ PUSH2 0x1CA JUMPI DUP1 PUSH4 0xD21220A7 EQ PUSH2 0x1FA JUMPI DUP1 PUSH4 0xD826F88F EQ PUSH2 0x218 JUMPI DUP1 PUSH4 0xF2FDE38B EQ PUSH2 0x222 JUMPI PUSH2 0xB4 JUMP JUMPDEST DUP1 PUSH4 0xC1FC829 EQ PUSH2 0xB9 JUMPI DUP1 PUSH4 0x25BE124E EQ PUSH2 0xE9 JUMPI DUP1 PUSH4 0x715018A6 EQ PUSH2 0x107 JUMPI DUP1 PUSH4 0x86174396 EQ PUSH2 0x111 JUMPI DUP1 PUSH4 0x8DA5CB5B EQ PUSH2 0x12F JUMPI DUP1 PUSH4 0x8FE8BB96 EQ PUSH2 0x14D JUMPI JUMPDEST PUSH1 0x0 DUP1 REVERT JUMPDEST PUSH2 0xD3 PUSH1 0x4 DUP1 CALLDATASIZE SUB DUP2 ADD SWAP1 PUSH2 0xCE SWAP2 SWAP1 PUSH2 0x45C3 JUMP JUMPDEST PUSH2 0x23E JUMP JUMPDEST PUSH1 0x40 MLOAD PUSH2 0xE0 SWAP2 SWAP1 PUSH2 0x4A90 JUMP JUMPDEST PUSH1 0x40 MLOAD DUP1 SWAP2 SUB SWAP1 RETURN JUMPDEST PUSH2 0xF1 PUSH2 0x256 JUMP JUMPDEST PUSH1 0x40 MLOAD PUSH2 0xFE SWAP2 SWAP1 PUSH2 0x48EE JUMP JUMPDEST PUSH1 0x40 MLOAD DUP1 SWAP2 SUB SWAP1 RETURN JUMPDEST PUSH2 0x10F PUSH2 0x2E4 JUMP JUMPDEST STOP JUMPDEST PUSH2 0x119 PUSH2 0x2F8 JUMP JUMPDEST PUSH1 0x40 MLOAD PUSH2 0x126 SWAP2 SWAP1 PUSH2 0x48D3 JUMP JUMPDEST PUSH1 0x40 MLOAD DUP1 SWAP2 SUB SWAP1 RETURN JUMPDEST PUSH2 0x137 PUSH2 0x30B JUMP JUMPDEST PUSH1 0x40 MLOAD PUSH2 0x144 SWAP2 SWAP1 PUSH2 0x48B8 JUMP JUMPDEST PUSH1 0x40 MLOAD DUP1 SWAP2 SUB SWAP1 RETURN JUMPDEST PUSH2 0x167 PUSH1 0x4 DUP1 CALLDATASIZE SUB DUP2 ADD SWAP1 PUSH2 0x162 SWAP2 SWAP1 PUSH2 0x45F0 JUMP JUMPDEST PUSH2 0x334 JUMP JUMPDEST STOP JUMPDEST PUSH2 0x183 PUSH1 0x4 DUP1 CALLDATASIZE SUB DUP2 ADD SWAP1 PUSH2 0x17E SWAP2 SWAP1 PUSH2 0x4639 JUMP JUMPDEST PUSH2 0x348 JUMP JUMPDEST PUSH1 0x40 MLOAD PUSH2 0x191 SWAP3 SWAP2 SWAP1 PUSH2 0x4AAB JUMP JUMPDEST PUSH1 0x40 MLOAD DUP1 SWAP2 SUB SWAP1 RETURN JUMPDEST PUSH2 0x1B4 PUSH1 0x4 DUP1 CALLDATASIZE SUB DUP2 ADD SWAP1 PUSH2 0x1AF SWAP2 SWAP1 PUSH2 0x45C3 JUMP JUMPDEST PUSH2 0x430 JUMP JUMPDEST PUSH1 0x40 MLOAD PUSH2 0x1C1 SWAP2 SWAP1 PUSH2 0x4A90 JUMP JUMPDEST PUSH1 0x40 MLOAD DUP1 SWAP2 SUB SWAP1 RETURN JUMPDEST PUSH2 0x1E4 PUSH1 0x4 DUP1 CALLDATASIZE SUB DUP2 ADD SWAP1 PUSH2 0x1DF SWAP2 SWAP1 PUSH2 0x45C3 JUMP JUMPDEST PUSH2 0x448 JUMP JUMPDEST PUSH1 0x40 MLOAD PUSH2 0x1F1 SWAP2 SWAP1 PUSH2 0x4A90 JUMP JUMPDEST PUSH1 0x40 MLOAD DUP1 SWAP2 SUB SWAP1 RETURN JUMPDEST PUSH2 0x202 PUSH2 0x460 JUMP JUMPDEST PUSH1 0x40 MLOAD PUSH2 0x20F SWAP2 SWAP1 PUSH2 0x48EE JUMP JUMPDEST PUSH1 0x40 MLOAD DUP1 SWAP2 SUB SWAP1 RETURN JUMPDEST PUSH2 0x220 PUSH2 0x4EE JUMP JUMPDEST STOP JUMPDEST PUSH2 0x23C PUSH1 0x4 DUP1 CALLDATASIZE SUB DUP2 ADD SWAP1 PUSH2 0x237 SWAP2 SWAP1 PUSH2 0x45C3 JUMP JUMPDEST PUSH2 0x500 JUMP JUMPDEST STOP JUMPDEST PUSH1 0xA PUSH1 0x20 MSTORE DUP1 PUSH1 0x0 MSTORE PUSH1 0x40 PUSH1 0x0 KECCAK256 PUSH1 0x0 SWAP2 POP SWAP1 POP SLOAD DUP2 JUMP JUMPDEST PUSH1 0x2 DUP1 SLOAD PUSH2 0x263 SWAP1 PUSH2 0x4DC9 JUMP JUMPDEST DUP1 PUSH1 0x1F ADD PUSH1 0x20 DUP1 SWAP2 DIV MUL PUSH1 0x20 ADD PUSH1 0x40 MLOAD SWAP1 DUP2 ADD PUSH1 0x40 MSTORE DUP1 SWAP3 SWAP2 SWAP1 DUP2 DUP2 MSTORE PUSH1 0x20 ADD DUP3 DUP1 SLOAD PUSH2 0x28F SWAP1 PUSH2 0x4DC9 JUMP JUMPDEST DUP1 ISZERO PUSH2 0x2DC JUMPI DUP1 PUSH1 0x1F LT PUSH2 0x2B1 JUMPI PUSH2 0x100 DUP1 DUP4 SLOAD DIV MUL DUP4 MSTORE SWAP2 PUSH1 0x20 ADD SWAP2 PUSH2 0x2DC JUMP JUMPDEST DUP3 ADD SWAP2 SWAP1 PUSH1 0x0 MSTORE PUSH1 0x20 PUSH1 0x0 KECCAK256 SWAP1 JUMPDEST DUP2 SLOAD DUP2 MSTORE SWAP1 PUSH1 0x1 ADD SWAP1 PUSH1 0x20 ADD DUP1 DUP4 GT PUSH2 0x2BF JUMPI DUP3 SWAP1 SUB PUSH1 0x1F AND DUP3 ADD SWAP2 JUMPDEST POP POP POP POP POP DUP2 JUMP JUMPDEST PUSH2 0x2EC PUSH2 0x584 JUMP JUMPDEST PUSH2 0x2F6 PUSH1 0x0 PUSH2 0x602 JUMP JUMPDEST JUMP JUMPDEST PUSH1 0xC PUSH1 0x0 SWAP1 SLOAD SWAP1 PUSH2 0x100 EXP SWAP1 DIV PUSH1 0xFF AND DUP2 JUMP JUMPDEST PUSH1 0x0 DUP1 PUSH1 0x0 SWAP1 SLOAD SWAP1 PUSH2 0x100 EXP SWAP1 DIV PUSH20 0xFFFFFFFFFFFFFFFFFFFFFFFFFFFFFFFFFFFFFFFF AND SWAP1 POP SWAP1 JUMP JUMPDEST PUSH2 0x33C PUSH2 0x584 JUMP JUMPDEST PUSH2 0x345 DUP2 PUSH2 0x6C6 JUMP JUMPDEST POP JUMP JUMPDEST PUSH1 0x0 DUP1 PUSH1 0x0 PUSH1 0x8 SLOAD GT PUSH2 0x390 JUMPI PUSH1 0x40 MLOAD PUSH32 0x8C379A000000000000000000000000000000000000000000000000000000000 DUP2 MSTORE PUSH1 0x4 ADD PUSH2 0x387 SWAP1 PUSH2 0x4A50 JUMP JUMPDEST PUSH1 0x40 MLOAD DUP1 SWAP2 SUB SWAP1 REVERT JUMPDEST PUSH1 0x8 SLOAD DUP4 GT ISZERO PUSH2 0x3D5 JUMPI PUSH1 0x40 MLOAD PUSH32 0x8C379A000000000000000000000000000000000000000000000000000000000 DUP2 MSTORE PUSH1 0x4 ADD PUSH2 0x3CC SWAP1 PUSH2 0x49F0 JUMP JUMPDEST PUSH1 0x40 MLOAD DUP1 SWAP2 SUB SWAP1 REVERT JUMPDEST PUSH2 0x3FE PUSH1 0x8 SLOAD PUSH2 0x3F0 PUSH1 0x3 SLOAD DUP7 PUSH2 0x9CA SWAP1 SWAP2 SWAP1 PUSH4 0xFFFFFFFF AND JUMP JUMPDEST PUSH2 0x9E0 SWAP1 SWAP2 SWAP1 PUSH4 0xFFFFFFFF AND JUMP JUMPDEST SWAP2 POP PUSH2 0x429 PUSH1 0x8 SLOAD PUSH2 0x41B PUSH1 0x4 SLOAD DUP7 PUSH2 0x9CA SWAP1 SWAP2 SWAP1 PUSH4 0xFFFFFFFF AND JUMP JUMPDEST PUSH2 0x9E0 SWAP1 SWAP2 SWAP1 PUSH4 0xFFFFFFFF AND JUMP JUMPDEST SWAP1 POP SWAP2 POP SWAP2 JUMP JUMPDEST PUSH1 0x9 PUSH1 0x20 MSTORE DUP1 PUSH1 0x0 MSTORE PUSH1 0x40 PUSH1 0x0 KECCAK256 PUSH1 0x0 SWAP2 POP SWAP1 POP SLOAD DUP2 JUMP JUMPDEST PUSH1 0x6 PUSH1 0x20 MSTORE DUP1 PUSH1 0x0 MSTORE PUSH1 0x40 PUSH1 0x0 KECCAK256 PUSH1 0x0 SWAP2 POP SWAP1 POP SLOAD DUP2 JUMP JUMPDEST PUSH1 0x1 DUP1 SLOAD PUSH2 0x46D SWAP1 PUSH2 0x4DC9 JUMP JUMPDEST DUP1 PUSH1 0x1F ADD PUSH1 0x20 DUP1 SWAP2 DIV MUL PUSH1 0x20 ADD PUSH1 0x40 MLOAD SWAP1 DUP2 ADD PUSH1 0x40 MSTORE DUP1 SWAP3 SWAP2 SWAP1 DUP2 DUP2 MSTORE PUSH1 0x20 ADD DUP3 DUP1 SLOAD PUSH2 0x499 SWAP1 PUSH2 0x4DC9 JUMP JUMPDEST DUP1 ISZERO PUSH2 0x4E6 JUMPI DUP1 PUSH1 0x1F LT PUSH2 0x4BB JUMPI PUSH2 0x100 DUP1 DUP4 SLOAD DIV MUL DUP4 MSTORE SWAP2 PUSH1 0x20 ADD SWAP2 PUSH2 0x4E6 JUMP JUMPDEST DUP3 ADD SWAP2 SWAP1 PUSH1 0x0 MSTORE PUSH1 0x20 PUSH1 0x0 KECCAK256 SWAP1 JUMPDEST DUP2 SLOAD DUP2 MSTORE SWAP1 PUSH1 0x1 ADD SWAP1 PUSH1 0x20 ADD DUP1 DUP4 GT PUSH2 0x4C9 JUMPI DUP3 SWAP1 SUB PUSH1 0x1F AND DUP3 ADD SWAP2 JUMPDEST POP POP POP POP POP DUP2 JUMP JUMPDEST PUSH2 0x4F6 PUSH2 0x584 JUMP JUMPDEST PUSH2 0x4FE PUSH2 0x9F6 JUMP JUMPDEST JUMP JUMPDEST PUSH2 0x508 PUSH2 0x584 JUMP JUMPDEST PUSH1 0x0 PUSH20 0xFFFFFFFFFFFFFFFFFFFFFFFFFFFFFFFFFFFFFFFF AND DUP2 PUSH20 0xFFFFFFFFFFFFFFFFFFFFFFFFFFFFFFFFFFFFFFFF AND EQ ISZERO PUSH2 0x578 JUMPI PUSH1 0x40 MLOAD PUSH32 0x8C379A000000000000000000000000000000000000000000000000000000000 DUP2 MSTORE PUSH1 0x4 ADD PUSH2 0x56F SWAP1 PUSH2 0x4910 JUMP JUMPDEST PUSH1 0x40 MLOAD DUP1 SWAP2 SUB SWAP1 REVERT JUMPDEST PUSH2 0x581 DUP2 PUSH2 0x602 JUMP JUMPDEST POP JUMP JUMPDEST PUSH2 0x58C PUSH2 0xC51 JUMP JUMPDEST PUSH20 0xFFFFFFFFFFFFFFFFFFFFFFFFFFFFFFFFFFFFFFFF AND PUSH2 0x5AA PUSH2 0x30B JUMP JUMPDEST PUSH20 0xFFFFFFFFFFFFFFFFFFFFFFFFFFFFFFFFFFFFFFFF AND EQ PUSH2 0x600 JUMPI PUSH1 0x40 MLOAD PUSH32 0x8C379A000000000000000000000000000000000000000000000000000000000 DUP2 MSTORE PUSH1 0x4 ADD PUSH2 0x5F7 SWAP1 PUSH2 0x49D0 JUMP JUMPDEST PUSH1 0x40 MLOAD DUP1 SWAP2 SUB SWAP1 REVERT JUMPDEST JUMP JUMPDEST PUSH1 0x0 DUP1 PUSH1 0x0 SWAP1 SLOAD SWAP1 PUSH2 0x100 EXP SWAP1 DIV PUSH20 0xFFFFFFFFFFFFFFFFFFFFFFFFFFFFFFFFFFFFFFFF AND SWAP1 POP DUP2 PUSH1 0x0 DUP1 PUSH2 0x100 EXP DUP2 SLOAD DUP2 PUSH20 0xFFFFFFFFFFFFFFFFFFFFFFFFFFFFFFFFFFFFFFFF MUL NOT AND SWAP1 DUP4 PUSH20 0xFFFFFFFFFFFFFFFFFFFFFFFFFFFFFFFFFFFFFFFF AND MUL OR SWAP1 SSTORE POP DUP2 PUSH20 0xFFFFFFFFFFFFFFFFFFFFFFFFFFFFFFFFFFFFFFFF AND DUP2 PUSH20 0xFFFFFFFFFFFFFFFFFFFFFFFFFFFFFFFFFFFFFFFF AND PUSH32 0x8BE0079C531659141344CD1FD0A4F28419497F9722A3DAAFE3B4186F6B6457E0 PUSH1 0x40 MLOAD PUSH1 0x40 MLOAD DUP1 SWAP2 SUB SWAP1 LOG3 POP POP JUMP JUMPDEST PUSH1 0x3 PUSH1 0x8 DUP2 GT ISZERO PUSH2 0x6DA JUMPI PUSH2 0x6D9 PUSH2 0x4F04 JUMP JUMPDEST JUMPDEST DUP2 PUSH1 0x20 ADD MLOAD PUSH1 0x8 DUP2 GT ISZERO PUSH2 0x6F1 JUMPI PUSH2 0x6F0 PUSH2 0x4F04 JUMP JUMPDEST JUMPDEST EQ ISZERO PUSH2 0x760 JUMPI PUSH1 0x0 DUP1 PUSH2 0x70F PUSH1 0x0 DUP5 PUSH1 0x40 ADD MLOAD DUP6 PUSH1 0x40 ADD MLOAD MLOAD PUSH2 0xC59 JUMP JUMPDEST SWAP3 POP POP SWAP2 POP DUP2 PUSH2 0x754 JUMPI PUSH1 0x40 MLOAD PUSH32 0x8C379A000000000000000000000000000000000000000000000000000000000 DUP2 MSTORE PUSH1 0x4 ADD PUSH2 0x74B SWAP1 PUSH2 0x4A10 JUMP JUMPDEST PUSH1 0x40 MLOAD DUP1 SWAP2 SUB SWAP1 REVERT JUMPDEST PUSH2 0x75D DUP2 PUSH2 0xE13 JUMP JUMPDEST POP POP JUMPDEST PUSH1 0x7 PUSH1 0x8 DUP2 GT ISZERO PUSH2 0x774 JUMPI PUSH2 0x773 PUSH2 0x4F04 JUMP JUMPDEST JUMPDEST DUP2 PUSH1 0x20 ADD MLOAD PUSH1 0x8 DUP2 GT ISZERO PUSH2 0x78B JUMPI PUSH2 0x78A PUSH2 0x4F04 JUMP JUMPDEST JUMPDEST EQ ISZERO PUSH2 0x7FA JUMPI PUSH1 0x0 DUP1 PUSH2 0x7A9 PUSH1 0x0 DUP5 PUSH1 0x40 ADD MLOAD DUP6 PUSH1 0x40 ADD MLOAD MLOAD PUSH2 0xFC3 JUMP JUMPDEST SWAP3 POP POP SWAP2 POP DUP2 PUSH2 0x7EE JUMPI PUSH1 0x40 MLOAD PUSH32 0x8C379A000000000000000000000000000000000000000000000000000000000 DUP2 MSTORE PUSH1 0x4 ADD PUSH2 0x7E5 SWAP1 PUSH2 0x49B0 JUMP JUMPDEST PUSH1 0x40 MLOAD DUP1 SWAP2 SUB SWAP1 REVERT JUMPDEST PUSH2 0x7F7 DUP2 PUSH2 0x117D JUMP JUMPDEST POP POP JUMPDEST PUSH1 0x8 DUP1 DUP2 GT ISZERO PUSH2 0x80D JUMPI PUSH2 0x80C PUSH2 0x4F04 JUMP JUMPDEST JUMPDEST DUP2 PUSH1 0x20 ADD MLOAD PUSH1 0x8 DUP2 GT ISZERO PUSH2 0x824 JUMPI PUSH2 0x823 PUSH2 0x4F04 JUMP JUMPDEST JUMPDEST EQ ISZERO PUSH2 0x893 JUMPI PUSH1 0x0 DUP1 PUSH2 0x842 PUSH1 0x0 DUP5 PUSH1 0x40 ADD MLOAD DUP6 PUSH1 0x40 ADD MLOAD MLOAD PUSH2 0x148D JUMP JUMPDEST SWAP3 POP POP SWAP2 POP DUP2 PUSH2 0x887 JUMPI PUSH1 0x40 MLOAD PUSH32 0x8C379A000000000000000000000000000000000000000000000000000000000 DUP2 MSTORE PUSH1 0x4 ADD PUSH2 0x87E SWAP1 PUSH2 0x4950 JUMP JUMPDEST PUSH1 0x40 MLOAD DUP1 SWAP2 SUB SWAP1 REVERT JUMPDEST PUSH2 0x890 DUP2 PUSH2 0x1647 JUMP JUMPDEST POP POP JUMPDEST PUSH1 0x4 PUSH1 0x8 DUP2 GT ISZERO PUSH2 0x8A7 JUMPI PUSH2 0x8A6 PUSH2 0x4F04 JUMP JUMPDEST JUMPDEST DUP2 PUSH1 0x20 ADD MLOAD PUSH1 0x8 DUP2 GT ISZERO PUSH2 0x8BE JUMPI PUSH2 0x8BD PUSH2 0x4F04 JUMP JUMPDEST JUMPDEST EQ ISZERO PUSH2 0x92D JUMPI PUSH1 0x0 DUP1 PUSH2 0x8DC PUSH1 0x0 DUP5 PUSH1 0x40 ADD MLOAD DUP6 PUSH1 0x40 ADD MLOAD MLOAD PUSH2 0x1860 JUMP JUMPDEST SWAP3 POP POP SWAP2 POP DUP2 PUSH2 0x921 JUMPI PUSH1 0x40 MLOAD PUSH32 0x8C379A000000000000000000000000000000000000000000000000000000000 DUP2 MSTORE PUSH1 0x4 ADD PUSH2 0x918 SWAP1 PUSH2 0x4930 JUMP JUMPDEST PUSH1 0x40 MLOAD DUP1 SWAP2 SUB SWAP1 REVERT JUMPDEST PUSH2 0x92A DUP2 PUSH2 0x1A1A JUMP JUMPDEST POP POP JUMPDEST PUSH1 0x5 PUSH1 0x8 DUP2 GT ISZERO PUSH2 0x941 JUMPI PUSH2 0x940 PUSH2 0x4F04 JUMP JUMPDEST JUMPDEST DUP2 PUSH1 0x20 ADD MLOAD PUSH1 0x8 DUP2 GT ISZERO PUSH2 0x958 JUMPI PUSH2 0x957 PUSH2 0x4F04 JUMP JUMPDEST JUMPDEST EQ ISZERO PUSH2 0x9C7 JUMPI PUSH1 0x0 DUP1 PUSH2 0x976 PUSH1 0x0 DUP5 PUSH1 0x40 ADD MLOAD DUP6 PUSH1 0x40 ADD MLOAD MLOAD PUSH2 0x1CF6 JUMP JUMPDEST SWAP3 POP POP SWAP2 POP DUP2 PUSH2 0x9BB JUMPI PUSH1 0x40 MLOAD PUSH32 0x8C379A000000000000000000000000000000000000000000000000000000000 DUP2 MSTORE PUSH1 0x4 ADD PUSH2 0x9B2 SWAP1 PUSH2 0x4A70 JUMP JUMPDEST PUSH1 0x40 MLOAD DUP1 SWAP2 SUB SWAP1 REVERT JUMPDEST PUSH2 0x9C4 DUP2 PUSH2 0x1EB0 JUMP JUMPDEST POP POP JUMPDEST POP JUMP JUMPDEST PUSH1 0x0 DUP2 DUP4 PUSH2 0x9D8 SWAP2 SWAP1 PUSH2 0x4C27 JUMP JUMPDEST SWAP1 POP SWAP3 SWAP2 POP POP JUMP JUMPDEST PUSH1 0x0 DUP2 DUP4 PUSH2 0x9EE SWAP2 SWAP1 PUSH2 0x4BF6 JUMP JUMPDEST SWAP1 POP SWAP3 SWAP2 POP POP JUMP JUMPDEST PUSH1 0x0 JUMPDEST PUSH1 0x7 DUP1 SLOAD SWAP1 POP DUP2 LT ISZERO PUSH2 0xA9A JUMPI PUSH1 0x6 PUSH1 0x0 PUSH1 0x7 DUP4 DUP2 SLOAD DUP2 LT PUSH2 0xA1E JUMPI PUSH2 0xA1D PUSH2 0x4F62 JUMP JUMPDEST JUMPDEST SWAP1 PUSH1 0x0 MSTORE PUSH1 0x20 PUSH1 0x0 KECCAK256 ADD PUSH1 0x0 SWAP1 SLOAD SWAP1 PUSH2 0x100 EXP SWAP1 DIV PUSH20 0xFFFFFFFFFFFFFFFFFFFFFFFFFFFFFFFFFFFFFFFF AND PUSH20 0xFFFFFFFFFFFFFFFFFFFFFFFFFFFFFFFFFFFFFFFF AND PUSH20 0xFFFFFFFFFFFFFFFFFFFFFFFFFFFFFFFFFFFFFFFF AND DUP2 MSTORE PUSH1 0x20 ADD SWAP1 DUP2 MSTORE PUSH1 0x20 ADD PUSH1 0x0 KECCAK256 PUSH1 0x0 SWAP1 SSTORE DUP1 DUP1 PUSH2 0xA92 SWAP1 PUSH2 0x4E2C JUMP JUMPDEST SWAP2 POP POP PUSH2 0x9F9 JUMP JUMPDEST POP PUSH1 0x7 PUSH1 0x0 PUSH2 0xAA9 SWAP2 SWAP1 PUSH2 0x4221 JUMP JUMPDEST PUSH3 0xF4240 PUSH1 0x0 PUSH2 0xAB9 SWAP2 SWAP1 PUSH2 0x4C27 JUMP JUMPDEST PUSH1 0x8 DUP2 SWAP1 SSTORE POP PUSH1 0x0 JUMPDEST PUSH1 0xB DUP1 SLOAD SWAP1 POP DUP2 LT ISZERO PUSH2 0xBE4 JUMPI PUSH1 0x9 PUSH1 0x0 PUSH1 0xB DUP4 DUP2 SLOAD DUP2 LT PUSH2 0xAE7 JUMPI PUSH2 0xAE6 PUSH2 0x4F62 JUMP JUMPDEST JUMPDEST SWAP1 PUSH1 0x0 MSTORE PUSH1 0x20 PUSH1 0x0 KECCAK256 ADD PUSH1 0x0 SWAP1 SLOAD SWAP1 PUSH2 0x100 EXP SWAP1 DIV PUSH20 0xFFFFFFFFFFFFFFFFFFFFFFFFFFFFFFFFFFFFFFFF AND PUSH20 0xFFFFFFFFFFFFFFFFFFFFFFFFFFFFFFFFFFFFFFFF AND PUSH20 0xFFFFFFFFFFFFFFFFFFFFFFFFFFFFFFFFFFFFFFFF AND DUP2 MSTORE PUSH1 0x20 ADD SWAP1 DUP2 MSTORE PUSH1 0x20 ADD PUSH1 0x0 KECCAK256 PUSH1 0x0 SWAP1 SSTORE PUSH1 0xA PUSH1 0x0 PUSH1 0xB DUP4 DUP2 SLOAD DUP2 LT PUSH2 0xB68 JUMPI PUSH2 0xB67 PUSH2 0x4F62 JUMP JUMPDEST JUMPDEST SWAP1 PUSH1 0x0 MSTORE PUSH1 0x20 PUSH1 0x0 KECCAK256 ADD PUSH1 0x0 SWAP1 SLOAD SWAP1 PUSH2 0x100 EXP SWAP1 DIV PUSH20 0xFFFFFFFFFFFFFFFFFFFFFFFFFFFFFFFFFFFFFFFF AND PUSH20 0xFFFFFFFFFFFFFFFFFFFFFFFFFFFFFFFFFFFFFFFF AND PUSH20 0xFFFFFFFFFFFFFFFFFFFFFFFFFFFFFFFFFFFFFFFF AND DUP2 MSTORE PUSH1 0x20 ADD SWAP1 DUP2 MSTORE PUSH1 0x20 ADD PUSH1 0x0 KECCAK256 PUSH1 0x0 SWAP1 SSTORE DUP1 DUP1 PUSH2 0xBDC SWAP1 PUSH2 0x4E2C JUMP JUMPDEST SWAP2 POP POP PUSH2 0xAC2 JUMP JUMPDEST POP PUSH1 0xB PUSH1 0x0 PUSH2 0xBF3 SWAP2 SWAP1 PUSH2 0x4221 JUMP JUMPDEST PUSH1 0x40 MLOAD DUP1 PUSH1 0x20 ADD PUSH1 0x40 MSTORE DUP1 PUSH1 0x0 DUP2 MSTORE POP PUSH1 0x1 SWAP1 DUP1 MLOAD SWAP1 PUSH1 0x20 ADD SWAP1 PUSH2 0xC18 SWAP3 SWAP2 SWAP1 PUSH2 0x4242 JUMP JUMPDEST POP PUSH1 0x40 MLOAD DUP1 PUSH1 0x20 ADD PUSH1 0x40 MSTORE DUP1 PUSH1 0x0 DUP2 MSTORE POP PUSH1 0x2 SWAP1 DUP1 MLOAD SWAP1 PUSH1 0x20 ADD SWAP1 PUSH2 0xC3E SWAP3 SWAP2 SWAP1 PUSH2 0x4242 JUMP JUMPDEST POP PUSH1 0x0 PUSH1 0x3 DUP2 SWAP1 SSTORE POP PUSH1 0x0 PUSH1 0x4 DUP2 SWAP1 SSTORE POP JUMP JUMPDEST PUSH1 0x0 CALLER SWAP1 POP SWAP1 JUMP JUMPDEST PUSH1 0x0 DUP1 PUSH2 0xC64 PUSH2 0x42C8 JUMP JUMPDEST PUSH2 0xC6C PUSH2 0x42C8 JUMP JUMPDEST PUSH1 0x0 DUP1 DUP9 SWAP1 POP DUP1 PUSH8 0xFFFFFFFFFFFFFFFF AND DUP8 DUP3 PUSH2 0xC89 SWAP2 SWAP1 PUSH2 0x4BB8 JUMP JUMPDEST PUSH8 0xFFFFFFFFFFFFFFFF AND LT ISZERO PUSH2 0xCAB JUMPI PUSH1 0x0 DUP2 DUP5 SWAP6 POP SWAP6 POP SWAP6 POP POP POP POP PUSH2 0xE0A JUMP JUMPDEST JUMPDEST DUP7 PUSH8 0xFFFFFFFFFFFFFFFF AND DUP10 DUP3 PUSH2 0xCC3 SWAP2 SWAP1 PUSH2 0x4CF7 JUMP JUMPDEST PUSH8 0xFFFFFFFFFFFFFFFF AND LT ISZERO PUSH2 0xDC4 JUMPI PUSH1 0x0 DUP1 PUSH1 0x0 PUSH2 0xCE2 DUP5 DUP13 PUSH2 0x2055 JUMP JUMPDEST DUP1 SWAP5 POP DUP2 SWAP6 POP DUP3 SWAP8 POP DUP4 SWAP7 POP POP POP POP POP DUP3 PUSH2 0xD0C JUMPI PUSH1 0x0 DUP5 DUP8 SWAP9 POP SWAP9 POP SWAP9 POP POP POP POP POP POP POP PUSH2 0xE0A JUMP JUMPDEST PUSH1 0x5 DUP3 PUSH8 0xFFFFFFFFFFFFFFFF AND GT ISZERO PUSH2 0xD34 JUMPI PUSH1 0x0 DUP5 DUP8 SWAP9 POP SWAP9 POP SWAP9 POP POP POP POP POP POP POP PUSH2 0xE0A JUMP JUMPDEST DUP5 PUSH8 0xFFFFFFFFFFFFFFFF AND DUP3 PUSH8 0xFFFFFFFFFFFFFFFF AND GT PUSH2 0xD64 JUMPI PUSH1 0x0 DUP5 DUP8 SWAP9 POP SWAP9 POP SWAP9 POP POP POP POP POP POP POP PUSH2 0xE0A JUMP JUMPDEST PUSH2 0xD6E DUP3 DUP3 PUSH2 0x21A1 JUMP JUMPDEST SWAP3 POP DUP3 PUSH2 0xD8A JUMPI PUSH1 0x0 DUP5 DUP8 SWAP9 POP SWAP9 POP SWAP9 POP POP POP POP POP POP POP PUSH2 0xE0A JUMP JUMPDEST PUSH2 0xD97 DUP5 DUP13 DUP13 DUP6 DUP11 PUSH2 0x22F8 JUMP JUMPDEST DUP1 SWAP6 POP DUP2 SWAP5 POP POP POP DUP3 PUSH2 0xDB9 JUMPI PUSH1 0x0 DUP5 DUP8 SWAP9 POP SWAP9 POP SWAP9 POP POP POP POP POP POP POP PUSH2 0xE0A JUMP JUMPDEST DUP2 SWAP5 POP POP POP POP PUSH2 0xCAC JUMP JUMPDEST DUP7 DUP10 PUSH2 0xDD0 SWAP2 SWAP1 PUSH2 0x4BB8 JUMP JUMPDEST PUSH8 0xFFFFFFFFFFFFFFFF AND DUP2 PUSH8 0xFFFFFFFFFFFFFFFF AND EQ PUSH2 0xDFC JUMPI PUSH1 0x0 DUP2 DUP5 SWAP6 POP SWAP6 POP SWAP6 POP POP POP POP PUSH2 0xE0A JUMP JUMPDEST PUSH1 0x1 DUP2 DUP5 SWAP6 POP SWAP6 POP SWAP6 POP POP POP POP JUMPDEST SWAP4 POP SWAP4 POP SWAP4 SWAP1 POP JUMP JUMPDEST DUP1 PUSH1 0x0 ADD MLOAD PUSH1 0x1 SWAP1 DUP1 MLOAD SWAP1 PUSH1 0x20 ADD SWAP1 PUSH2 0xE2D SWAP3 SWAP2 SWAP1 PUSH2 0x430B JUMP JUMPDEST POP PUSH1 0x0 PUSH1 0x3 DUP2 SWAP1 SSTORE POP DUP1 PUSH1 0x20 ADD MLOAD PUSH1 0x2 SWAP1 DUP1 MLOAD SWAP1 PUSH1 0x20 ADD SWAP1 PUSH2 0xE50 SWAP3 SWAP2 SWAP1 PUSH2 0x430B JUMP JUMPDEST POP PUSH1 0x0 PUSH1 0x4 DUP2 SWAP1 SSTORE POP PUSH2 0xE70 PUSH1 0x4 SLOAD PUSH1 0x3 SLOAD PUSH2 0x9CA SWAP1 SWAP2 SWAP1 PUSH4 0xFFFFFFFF AND JUMP JUMPDEST PUSH1 0x5 DUP2 SWAP1 SSTORE POP PUSH3 0xF4240 PUSH1 0x0 PUSH2 0xE86 SWAP2 SWAP1 PUSH2 0x4C27 JUMP JUMPDEST PUSH1 0x8 DUP2 SWAP1 SSTORE POP PUSH1 0x0 PUSH2 0xE9B DUP3 PUSH1 0x80 ADD MLOAD PUSH2 0x2480 JUMP JUMPDEST SWAP1 POP DUP2 PUSH1 0x40 ADD MLOAD PUSH8 0xFFFFFFFFFFFFFFFF AND PUSH1 0x9 PUSH1 0x0 DUP4 PUSH20 0xFFFFFFFFFFFFFFFFFFFFFFFFFFFFFFFFFFFFFFFF AND PUSH20 0xFFFFFFFFFFFFFFFFFFFFFFFFFFFFFFFFFFFFFFFF AND DUP2 MSTORE PUSH1 0x20 ADD SWAP1 DUP2 MSTORE PUSH1 0x20 ADD PUSH1 0x0 KECCAK256 DUP2 SWAP1 SSTORE POP DUP2 PUSH1 0x60 ADD MLOAD PUSH8 0xFFFFFFFFFFFFFFFF AND PUSH1 0xA PUSH1 0x0 DUP4 PUSH20 0xFFFFFFFFFFFFFFFFFFFFFFFFFFFFFFFFFFFFFFFF AND PUSH20 0xFFFFFFFFFFFFFFFFFFFFFFFFFFFFFFFFFFFFFFFF AND DUP2 MSTORE PUSH1 0x20 ADD SWAP1 DUP2 MSTORE PUSH1 0x20 ADD PUSH1 0x0 KECCAK256 DUP2 SWAP1 SSTORE POP PUSH1 0xB DUP2 SWAP1 DUP1 PUSH1 0x1 DUP2 SLOAD ADD DUP1 DUP3 SSTORE DUP1 SWAP2 POP POP PUSH1 0x1 SWAP1 SUB SWAP1 PUSH1 0x0 MSTORE PUSH1 0x20 PUSH1 0x0 KECCAK256 ADD PUSH1 0x0 SWAP1 SWAP2 SWAP1 SWAP2 SWAP1 SWAP2 PUSH2 0x100 EXP DUP2 SLOAD DUP2 PUSH20 0xFFFFFFFFFFFFFFFFFFFFFFFFFFFFFFFFFFFFFFFF MUL NOT AND SWAP1 DUP4 PUSH20 0xFFFFFFFFFFFFFFFFFFFFFFFFFFFFFFFFFFFFFFFF AND MUL OR SWAP1 SSTORE POP PUSH1 0x1 PUSH1 0xC PUSH1 0x0 PUSH2 0x100 EXP DUP2 SLOAD DUP2 PUSH1 0xFF MUL NOT AND SWAP1 DUP4 ISZERO ISZERO MUL OR SWAP1 SSTORE POP POP POP JUMP JUMPDEST PUSH1 0x0 DUP1 PUSH2 0xFCE PUSH2 0x4391 JUMP JUMPDEST PUSH2 0xFD6 PUSH2 0x4391 JUMP JUMPDEST PUSH1 0x0 DUP1 DUP9 SWAP1 POP DUP1 PUSH8 0xFFFFFFFFFFFFFFFF AND DUP8 DUP3 PUSH2 0xFF3 SWAP2 SWAP1 PUSH2 0x4BB8 JUMP JUMPDEST PUSH8 0xFFFFFFFFFFFFFFFF AND LT ISZERO PUSH2 0x1015 JUMPI PUSH1 0x0 DUP2 DUP5 SWAP6 POP SWAP6 POP SWAP6 POP POP POP POP PUSH2 0x1174 JUMP JUMPDEST JUMPDEST DUP7 PUSH8 0xFFFFFFFFFFFFFFFF AND DUP10 DUP3 PUSH2 0x102D SWAP2 SWAP1 PUSH2 0x4CF7 JUMP JUMPDEST PUSH8 0xFFFFFFFFFFFFFFFF AND LT ISZERO PUSH2 0x112E JUMPI PUSH1 0x0 DUP1 PUSH1 0x0 PUSH2 0x104C DUP5 DUP13 PUSH2 0x2055 JUMP JUMPDEST DUP1 SWAP5 POP DUP2 SWAP6 POP DUP3 SWAP8 POP DUP4 SWAP7 POP POP POP POP POP DUP3 PUSH2 0x1076 JUMPI PUSH1 0x0 DUP5 DUP8 SWAP9 POP SWAP9 POP SWAP9 POP POP POP POP POP POP POP PUSH2 0x1174 JUMP JUMPDEST PUSH1 0x3 DUP3 PUSH8 0xFFFFFFFFFFFFFFFF AND GT ISZERO PUSH2 0x109E JUMPI PUSH1 0x0 DUP5 DUP8 SWAP9 POP SWAP9 POP SWAP9 POP POP POP POP POP POP POP PUSH2 0x1174 JUMP JUMPDEST DUP5 PUSH8 0xFFFFFFFFFFFFFFFF AND DUP3 PUSH8 0xFFFFFFFFFFFFFFFF AND GT PUSH2 0x10CE JUMPI PUSH1 0x0 DUP5 DUP8 SWAP9 POP SWAP9 POP SWAP9 POP POP POP POP POP POP POP PUSH2 0x1174 JUMP JUMPDEST PUSH2 0x10D8 DUP3 DUP3 PUSH2 0x24D8 JUMP JUMPDEST SWAP3 POP DUP3 PUSH2 0x10F4 JUMPI PUSH1 0x0 DUP5 DUP8 SWAP9 POP SWAP9 POP SWAP9 POP POP POP POP POP POP POP PUSH2 0x1174 JUMP JUMPDEST PUSH2 0x1101 DUP5 DUP13 DUP13 DUP6 DUP11 PUSH2 0x25AB JUMP JUMPDEST DUP1 SWAP6 POP DUP2 SWAP5 POP POP POP DUP3 PUSH2 0x1123 JUMPI PUSH1 0x0 DUP5 DUP8 SWAP9 POP SWAP9 POP SWAP9 POP POP POP POP POP POP POP PUSH2 0x1174 JUMP JUMPDEST DUP2 SWAP5 POP POP POP POP PUSH2 0x1016 JUMP JUMPDEST DUP7 DUP10 PUSH2 0x113A SWAP2 SWAP1 PUSH2 0x4BB8 JUMP JUMPDEST PUSH8 0xFFFFFFFFFFFFFFFF AND DUP2 PUSH8 0xFFFFFFFFFFFFFFFF AND EQ PUSH2 0x1166 JUMPI PUSH1 0x0 DUP2 DUP5 SWAP6 POP SWAP6 POP SWAP6 POP POP POP POP PUSH2 0x1174 JUMP JUMPDEST PUSH1 0x1 DUP2 DUP5 SWAP6 POP SWAP6 POP SWAP6 POP POP POP POP JUMPDEST SWAP4 POP SWAP4 POP SWAP4 SWAP1 POP JUMP JUMPDEST PUSH1 0x0 PUSH2 0x118C DUP3 PUSH1 0x40 ADD MLOAD PUSH2 0x2480 JUMP JUMPDEST SWAP1 POP PUSH2 0x1226 PUSH1 0x1 DUP1 SLOAD PUSH2 0x119E SWAP1 PUSH2 0x4DC9 JUMP JUMPDEST DUP1 PUSH1 0x1F ADD PUSH1 0x20 DUP1 SWAP2 DIV MUL PUSH1 0x20 ADD PUSH1 0x40 MLOAD SWAP1 DUP2 ADD PUSH1 0x40 MSTORE DUP1 SWAP3 SWAP2 SWAP1 DUP2 DUP2 MSTORE PUSH1 0x20 ADD DUP3 DUP1 SLOAD PUSH2 0x11CA SWAP1 PUSH2 0x4DC9 JUMP JUMPDEST DUP1 ISZERO PUSH2 0x1217 JUMPI DUP1 PUSH1 0x1F LT PUSH2 0x11EC JUMPI PUSH2 0x100 DUP1 DUP4 SLOAD DIV MUL DUP4 MSTORE SWAP2 PUSH1 0x20 ADD SWAP2 PUSH2 0x1217 JUMP JUMPDEST DUP3 ADD SWAP2 SWAP1 PUSH1 0x0 MSTORE PUSH1 0x20 PUSH1 0x0 KECCAK256 SWAP1 JUMPDEST DUP2 SLOAD DUP2 MSTORE SWAP1 PUSH1 0x1 ADD SWAP1 PUSH1 0x20 ADD DUP1 DUP4 GT PUSH2 0x11FA JUMPI DUP3 SWAP1 SUB PUSH1 0x1F AND DUP3 ADD SWAP2 JUMPDEST POP POP POP POP POP DUP4 PUSH1 0x0 ADD MLOAD PUSH2 0x26A1 JUMP JUMPDEST ISZERO PUSH2 0x1290 JUMPI DUP2 PUSH1 0x20 ADD MLOAD PUSH8 0xFFFFFFFFFFFFFFFF AND PUSH1 0x9 PUSH1 0x0 DUP4 PUSH20 0xFFFFFFFFFFFFFFFFFFFFFFFFFFFFFFFFFFFFFFFF AND PUSH20 0xFFFFFFFFFFFFFFFFFFFFFFFFFFFFFFFFFFFFFFFF AND DUP2 MSTORE PUSH1 0x20 ADD SWAP1 DUP2 MSTORE PUSH1 0x20 ADD PUSH1 0x0 KECCAK256 PUSH1 0x0 DUP3 DUP3 SLOAD PUSH2 0x1288 SWAP2 SWAP1 PUSH2 0x4B62 JUMP JUMPDEST SWAP3 POP POP DUP2 SWAP1 SSTORE POP JUMPDEST PUSH2 0x1328 PUSH1 0x2 DUP1 SLOAD PUSH2 0x12A0 SWAP1 PUSH2 0x4DC9 JUMP JUMPDEST DUP1 PUSH1 0x1F ADD PUSH1 0x20 DUP1 SWAP2 DIV MUL PUSH1 0x20 ADD PUSH1 0x40 MLOAD SWAP1 DUP2 ADD PUSH1 0x40 MSTORE DUP1 SWAP3 SWAP2 SWAP1 DUP2 DUP2 MSTORE PUSH1 0x20 ADD DUP3 DUP1 SLOAD PUSH2 0x12CC SWAP1 PUSH2 0x4DC9 JUMP JUMPDEST DUP1 ISZERO PUSH2 0x1319 JUMPI DUP1 PUSH1 0x1F LT PUSH2 0x12EE JUMPI PUSH2 0x100 DUP1 DUP4 SLOAD DIV MUL DUP4 MSTORE SWAP2 PUSH1 0x20 ADD SWAP2 PUSH2 0x1319 JUMP JUMPDEST DUP3 ADD SWAP2 SWAP1 PUSH1 0x0 MSTORE PUSH1 0x20 PUSH1 0x0 KECCAK256 SWAP1 JUMPDEST DUP2 SLOAD DUP2 MSTORE SWAP1 PUSH1 0x1 ADD SWAP1 PUSH1 0x20 ADD DUP1 DUP4 GT PUSH2 0x12FC JUMPI DUP3 SWAP1 SUB PUSH1 0x1F AND DUP3 ADD SWAP2 JUMPDEST POP POP POP POP POP DUP4 PUSH1 0x0 ADD MLOAD PUSH2 0x26A1 JUMP JUMPDEST ISZERO PUSH2 0x1392 JUMPI DUP2 PUSH1 0x20 ADD MLOAD PUSH8 0xFFFFFFFFFFFFFFFF AND PUSH1 0xA PUSH1 0x0 DUP4 PUSH20 0xFFFFFFFFFFFFFFFFFFFFFFFFFFFFFFFFFFFFFFFF AND PUSH20 0xFFFFFFFFFFFFFFFFFFFFFFFFFFFFFFFFFFFFFFFF AND DUP2 MSTORE PUSH1 0x20 ADD SWAP1 DUP2 MSTORE PUSH1 0x20 ADD PUSH1 0x0 KECCAK256 PUSH1 0x0 DUP3 DUP3 SLOAD PUSH2 0x138A SWAP2 SWAP1 PUSH2 0x4B62 JUMP JUMPDEST SWAP3 POP POP DUP2 SWAP1 SSTORE POP JUMPDEST PUSH1 0x0 PUSH1 0x9 PUSH1 0x0 DUP4 PUSH20 0xFFFFFFFFFFFFFFFFFFFFFFFFFFFFFFFFFFFFFFFF AND PUSH20 0xFFFFFFFFFFFFFFFFFFFFFFFFFFFFFFFFFFFFFFFF AND DUP2 MSTORE PUSH1 0x20 ADD SWAP1 DUP2 MSTORE PUSH1 0x20 ADD PUSH1 0x0 KECCAK256 SLOAD EQ DUP1 ISZERO PUSH2 0x1420 JUMPI POP PUSH1 0x0 PUSH1 0xA PUSH1 0x0 DUP4 PUSH20 0xFFFFFFFFFFFFFFFFFFFFFFFFFFFFFFFFFFFFFFFF AND PUSH20 0xFFFFFFFFFFFFFFFFFFFFFFFFFFFFFFFFFFFFFFFF AND DUP2 MSTORE PUSH1 0x20 ADD SWAP1 DUP2 MSTORE PUSH1 0x20 ADD PUSH1 0x0 KECCAK256 SLOAD EQ JUMPDEST ISZERO PUSH2 0x1489 JUMPI PUSH1 0xB DUP2 SWAP1 DUP1 PUSH1 0x1 DUP2 SLOAD ADD DUP1 DUP3 SSTORE DUP1 SWAP2 POP POP PUSH1 0x1 SWAP1 SUB SWAP1 PUSH1 0x0 MSTORE PUSH1 0x20 PUSH1 0x0 KECCAK256 ADD PUSH1 0x0 SWAP1 SWAP2 SWAP1 SWAP2 SWAP1 SWAP2 PUSH2 0x100 EXP DUP2 SLOAD DUP2 PUSH20 0xFFFFFFFFFFFFFFFFFFFFFFFFFFFFFFFFFFFFFFFF MUL NOT AND SWAP1 DUP4 PUSH20 0xFFFFFFFFFFFFFFFFFFFFFFFFFFFFFFFFFFFFFFFF AND MUL OR SWAP1 SSTORE POP JUMPDEST POP POP JUMP JUMPDEST PUSH1 0x0 DUP1 PUSH2 0x1498 PUSH2 0x43BC JUMP JUMPDEST PUSH2 0x14A0 PUSH2 0x43BC JUMP JUMPDEST PUSH1 0x0 DUP1 DUP9 SWAP1 POP DUP1 PUSH8 0xFFFFFFFFFFFFFFFF AND DUP8 DUP3 PUSH2 0x14BD SWAP2 SWAP1 PUSH2 0x4BB8 JUMP JUMPDEST PUSH8 0xFFFFFFFFFFFFFFFF AND LT ISZERO PUSH2 0x14DF JUMPI PUSH1 0x0 DUP2 DUP5 SWAP6 POP SWAP6 POP SWAP6 POP POP POP POP PUSH2 0x163E JUMP JUMPDEST JUMPDEST DUP7 PUSH8 0xFFFFFFFFFFFFFFFF AND DUP10 DUP3 PUSH2 0x14F7 SWAP2 SWAP1 PUSH2 0x4CF7 JUMP JUMPDEST PUSH8 0xFFFFFFFFFFFFFFFF AND LT ISZERO PUSH2 0x15F8 JUMPI PUSH1 0x0 DUP1 PUSH1 0x0 PUSH2 0x1516 DUP5 DUP13 PUSH2 0x2055 JUMP JUMPDEST DUP1 SWAP5 POP DUP2 SWAP6 POP DUP3 SWAP8 POP DUP4 SWAP7 POP POP POP POP POP DUP3 PUSH2 0x1540 JUMPI PUSH1 0x0 DUP5 DUP8 SWAP9 POP SWAP9 POP SWAP9 POP POP POP POP POP POP POP PUSH2 0x163E JUMP JUMPDEST PUSH1 0x3 DUP3 PUSH8 0xFFFFFFFFFFFFFFFF AND GT ISZERO PUSH2 0x1568 JUMPI PUSH1 0x0 DUP5 DUP8 SWAP9 POP SWAP9 POP SWAP9 POP POP POP POP POP POP POP PUSH2 0x163E JUMP JUMPDEST DUP5 PUSH8 0xFFFFFFFFFFFFFFFF AND DUP3 PUSH8 0xFFFFFFFFFFFFFFFF AND GT PUSH2 0x1598 JUMPI PUSH1 0x0 DUP5 DUP8 SWAP9 POP SWAP9 POP SWAP9 POP POP POP POP POP POP POP PUSH2 0x163E JUMP JUMPDEST PUSH2 0x15A2 DUP3 DUP3 PUSH2 0x26FA JUMP JUMPDEST SWAP3 POP DUP3 PUSH2 0x15BE JUMPI PUSH1 0x0 DUP5 DUP8 SWAP9 POP SWAP9 POP SWAP9 POP POP POP POP POP POP POP PUSH2 0x163E JUMP JUMPDEST PUSH2 0x15CB DUP5 DUP13 DUP13 DUP6 DUP11 PUSH2 0x27CD JUMP JUMPDEST DUP1 SWAP6 POP DUP2 SWAP5 POP POP POP DUP3 PUSH2 0x15ED JUMPI PUSH1 0x0 DUP5 DUP8 SWAP9 POP SWAP9 POP SWAP9 POP POP POP POP POP POP POP PUSH2 0x163E JUMP JUMPDEST DUP2 SWAP5 POP POP POP POP PUSH2 0x14E0 JUMP JUMPDEST DUP7 DUP10 PUSH2 0x1604 SWAP2 SWAP1 PUSH2 0x4BB8 JUMP JUMPDEST PUSH8 0xFFFFFFFFFFFFFFFF AND DUP2 PUSH8 0xFFFFFFFFFFFFFFFF AND EQ PUSH2 0x1630 JUMPI PUSH1 0x0 DUP2 DUP5 SWAP6 POP SWAP6 POP SWAP6 POP POP POP POP PUSH2 0x163E JUMP JUMPDEST PUSH1 0x1 DUP2 DUP5 SWAP6 POP SWAP6 POP SWAP6 POP POP POP POP JUMPDEST SWAP4 POP SWAP4 POP SWAP4 SWAP1 POP JUMP JUMPDEST PUSH1 0x0 PUSH2 0x1656 DUP3 PUSH1 0x40 ADD MLOAD PUSH2 0x2480 JUMP JUMPDEST SWAP1 POP PUSH2 0x16F0 PUSH1 0x1 DUP1 SLOAD PUSH2 0x1668 SWAP1 PUSH2 0x4DC9 JUMP JUMPDEST DUP1 PUSH1 0x1F ADD PUSH1 0x20 DUP1 SWAP2 DIV MUL PUSH1 0x20 ADD PUSH1 0x40 MLOAD SWAP1 DUP2 ADD PUSH1 0x40 MSTORE DUP1 SWAP3 SWAP2 SWAP1 DUP2 DUP2 MSTORE PUSH1 0x20 ADD DUP3 DUP1 SLOAD PUSH2 0x1694 SWAP1 PUSH2 0x4DC9 JUMP JUMPDEST DUP1 ISZERO PUSH2 0x16E1 JUMPI DUP1 PUSH1 0x1F LT PUSH2 0x16B6 JUMPI PUSH2 0x100 DUP1 DUP4 SLOAD DIV MUL DUP4 MSTORE SWAP2 PUSH1 0x20 ADD SWAP2 PUSH2 0x16E1 JUMP JUMPDEST DUP3 ADD SWAP2 SWAP1 PUSH1 0x0 MSTORE PUSH1 0x20 PUSH1 0x0 KECCAK256 SWAP1 JUMPDEST DUP2 SLOAD DUP2 MSTORE SWAP1 PUSH1 0x1 ADD SWAP1 PUSH1 0x20 ADD DUP1 DUP4 GT PUSH2 0x16C4 JUMPI DUP3 SWAP1 SUB PUSH1 0x1F AND DUP3 ADD SWAP2 JUMPDEST POP POP POP POP POP DUP4 PUSH1 0x0 ADD MLOAD PUSH2 0x26A1 JUMP JUMPDEST ISZERO PUSH2 0x175A JUMPI DUP2 PUSH1 0x20 ADD MLOAD PUSH8 0xFFFFFFFFFFFFFFFF AND PUSH1 0x9 PUSH1 0x0 DUP4 PUSH20 0xFFFFFFFFFFFFFFFFFFFFFFFFFFFFFFFFFFFFFFFF AND PUSH20 0xFFFFFFFFFFFFFFFFFFFFFFFFFFFFFFFFFFFFFFFF AND DUP2 MSTORE PUSH1 0x20 ADD SWAP1 DUP2 MSTORE PUSH1 0x20 ADD PUSH1 0x0 KECCAK256 PUSH1 0x0 DUP3 DUP3 SLOAD PUSH2 0x1752 SWAP2 SWAP1 PUSH2 0x4CC3 JUMP JUMPDEST SWAP3 POP POP DUP2 SWAP1 SSTORE POP JUMPDEST PUSH2 0x17F2 PUSH1 0x2 DUP1 SLOAD PUSH2 0x176A SWAP1 PUSH2 0x4DC9 JUMP JUMPDEST DUP1 PUSH1 0x1F ADD PUSH1 0x20 DUP1 SWAP2 DIV MUL PUSH1 0x20 ADD PUSH1 0x40 MLOAD SWAP1 DUP2 ADD PUSH1 0x40 MSTORE DUP1 SWAP3 SWAP2 SWAP1 DUP2 DUP2 MSTORE PUSH1 0x20 ADD DUP3 DUP1 SLOAD PUSH2 0x1796 SWAP1 PUSH2 0x4DC9 JUMP JUMPDEST DUP1 ISZERO PUSH2 0x17E3 JUMPI DUP1 PUSH1 0x1F LT PUSH2 0x17B8 JUMPI PUSH2 0x100 DUP1 DUP4 SLOAD DIV MUL DUP4 MSTORE SWAP2 PUSH1 0x20 ADD SWAP2 PUSH2 0x17E3 JUMP JUMPDEST DUP3 ADD SWAP2 SWAP1 PUSH1 0x0 MSTORE PUSH1 0x20 PUSH1 0x0 KECCAK256 SWAP1 JUMPDEST DUP2 SLOAD DUP2 MSTORE SWAP1 PUSH1 0x1 ADD SWAP1 PUSH1 0x20 ADD DUP1 DUP4 GT PUSH2 0x17C6 JUMPI DUP3 SWAP1 SUB PUSH1 0x1F AND DUP3 ADD SWAP2 JUMPDEST POP POP POP POP POP DUP4 PUSH1 0x0 ADD MLOAD PUSH2 0x26A1 JUMP JUMPDEST ISZERO PUSH2 0x185C JUMPI DUP2 PUSH1 0x20 ADD MLOAD PUSH8 0xFFFFFFFFFFFFFFFF AND PUSH1 0xA PUSH1 0x0 DUP4 PUSH20 0xFFFFFFFFFFFFFFFFFFFFFFFFFFFFFFFFFFFFFFFF AND PUSH20 0xFFFFFFFFFFFFFFFFFFFFFFFFFFFFFFFFFFFFFFFF AND DUP2 MSTORE PUSH1 0x20 ADD SWAP1 DUP2 MSTORE PUSH1 0x20 ADD PUSH1 0x0 KECCAK256 PUSH1 0x0 DUP3 DUP3 SLOAD PUSH2 0x1854 SWAP2 SWAP1 PUSH2 0x4CC3 JUMP JUMPDEST SWAP3 POP POP DUP2 SWAP1 SSTORE POP JUMPDEST POP POP JUMP JUMPDEST PUSH1 0x0 DUP1 PUSH2 0x186B PUSH2 0x43E7 JUMP JUMPDEST PUSH2 0x1873 PUSH2 0x43E7 JUMP JUMPDEST PUSH1 0x0 DUP1 DUP9 SWAP1 POP DUP1 PUSH8 0xFFFFFFFFFFFFFFFF AND DUP8 DUP3 PUSH2 0x1890 SWAP2 SWAP1 PUSH2 0x4BB8 JUMP JUMPDEST PUSH8 0xFFFFFFFFFFFFFFFF AND LT ISZERO PUSH2 0x18B2 JUMPI PUSH1 0x0 DUP2 DUP5 SWAP6 POP SWAP6 POP SWAP6 POP POP POP POP PUSH2 0x1A11 JUMP JUMPDEST JUMPDEST DUP7 PUSH8 0xFFFFFFFFFFFFFFFF AND DUP10 DUP3 PUSH2 0x18CA SWAP2 SWAP1 PUSH2 0x4CF7 JUMP JUMPDEST PUSH8 0xFFFFFFFFFFFFFFFF AND LT ISZERO PUSH2 0x19CB JUMPI PUSH1 0x0 DUP1 PUSH1 0x0 PUSH2 0x18E9 DUP5 DUP13 PUSH2 0x2055 JUMP JUMPDEST DUP1 SWAP5 POP DUP2 SWAP6 POP DUP3 SWAP8 POP DUP4 SWAP7 POP POP POP POP POP DUP3 PUSH2 0x1913 JUMPI PUSH1 0x0 DUP5 DUP8 SWAP9 POP SWAP9 POP SWAP9 POP POP POP POP POP POP POP PUSH2 0x1A11 JUMP JUMPDEST PUSH1 0x3 DUP3 PUSH8 0xFFFFFFFFFFFFFFFF AND GT ISZERO PUSH2 0x193B JUMPI PUSH1 0x0 DUP5 DUP8 SWAP9 POP SWAP9 POP SWAP9 POP POP POP POP POP POP POP PUSH2 0x1A11 JUMP JUMPDEST DUP5 PUSH8 0xFFFFFFFFFFFFFFFF AND DUP3 PUSH8 0xFFFFFFFFFFFFFFFF AND GT PUSH2 0x196B JUMPI PUSH1 0x0 DUP5 DUP8 SWAP9 POP SWAP9 POP SWAP9 POP POP POP POP POP POP POP PUSH2 0x1A11 JUMP JUMPDEST PUSH2 0x1975 DUP3 DUP3 PUSH2 0x28C3 JUMP JUMPDEST SWAP3 POP DUP3 PUSH2 0x1991 JUMPI PUSH1 0x0 DUP5 DUP8 SWAP9 POP SWAP9 POP SWAP9 POP POP POP POP POP POP POP PUSH2 0x1A11 JUMP JUMPDEST PUSH2 0x199E DUP5 DUP13 DUP13 DUP6 DUP11 PUSH2 0x2996 JUMP JUMPDEST DUP1 SWAP6 POP DUP2 SWAP5 POP POP POP DUP3 PUSH2 0x19C0 JUMPI PUSH1 0x0 DUP5 DUP8 SWAP9 POP SWAP9 POP SWAP9 POP POP POP POP POP POP POP PUSH2 0x1A11 JUMP JUMPDEST DUP2 SWAP5 POP POP POP POP PUSH2 0x18B3 JUMP JUMPDEST DUP7 DUP10 PUSH2 0x19D7 SWAP2 SWAP1 PUSH2 0x4BB8 JUMP JUMPDEST PUSH8 0xFFFFFFFFFFFFFFFF AND DUP2 PUSH8 0xFFFFFFFFFFFFFFFF AND EQ PUSH2 0x1A03 JUMPI PUSH1 0x0 DUP2 DUP5 SWAP6 POP SWAP6 POP SWAP6 POP POP POP POP PUSH2 0x1A11 JUMP JUMPDEST PUSH1 0x1 DUP2 DUP5 SWAP6 POP SWAP6 POP SWAP6 POP POP POP POP JUMPDEST SWAP4 POP SWAP4 POP SWAP4 SWAP1 POP JUMP JUMPDEST PUSH1 0x0 PUSH2 0x1A29 DUP3 PUSH1 0x40 ADD MLOAD PUSH2 0x2480 JUMP JUMPDEST SWAP1 POP PUSH1 0x0 DUP1 PUSH1 0x8 SLOAD EQ ISZERO PUSH2 0x1A4E JUMPI PUSH3 0xF4240 PUSH1 0x64 PUSH2 0x1A47 SWAP2 SWAP1 PUSH2 0x4C27 JUMP JUMPDEST SWAP1 POP PUSH2 0x1B0C JUMP JUMPDEST PUSH1 0x0 PUSH2 0x1A87 PUSH1 0x3 SLOAD PUSH2 0x1A79 DUP7 PUSH1 0x0 ADD MLOAD PUSH8 0xFFFFFFFFFFFFFFFF AND PUSH1 0x8 SLOAD PUSH2 0x9CA SWAP1 SWAP2 SWAP1 PUSH4 0xFFFFFFFF AND JUMP JUMPDEST PUSH2 0x9E0 SWAP1 SWAP2 SWAP1 PUSH4 0xFFFFFFFF AND JUMP JUMPDEST SWAP1 POP PUSH1 0x0 PUSH2 0x1AC2 PUSH1 0x4 SLOAD PUSH2 0x1AB4 DUP8 PUSH1 0x20 ADD MLOAD PUSH8 0xFFFFFFFFFFFFFFFF AND PUSH1 0x8 SLOAD PUSH2 0x9CA SWAP1 SWAP2 SWAP1 PUSH4 0xFFFFFFFF AND JUMP JUMPDEST PUSH2 0x9E0 SWAP1 SWAP2 SWAP1 PUSH4 0xFFFFFFFF AND JUMP JUMPDEST SWAP1 POP DUP1 DUP3 EQ PUSH2 0x1B06 JUMPI PUSH1 0x40 MLOAD PUSH32 0x8C379A000000000000000000000000000000000000000000000000000000000 DUP2 MSTORE PUSH1 0x4 ADD PUSH2 0x1AFD SWAP1 PUSH2 0x4A30 JUMP JUMPDEST PUSH1 0x40 MLOAD DUP1 SWAP2 SUB SWAP1 REVERT JUMPDEST DUP2 SWAP3 POP POP POP JUMPDEST PUSH1 0x0 DUP2 GT PUSH2 0x1B4F JUMPI PUSH1 0x40 MLOAD PUSH32 0x8C379A000000000000000000000000000000000000000000000000000000000 DUP2 MSTORE PUSH1 0x4 ADD PUSH2 0x1B46 SWAP1 PUSH2 0x4990 JUMP JUMPDEST PUSH1 0x40 MLOAD DUP1 SWAP2 SUB SWAP1 REVERT JUMPDEST DUP3 PUSH1 0x0 ADD MLOAD PUSH8 0xFFFFFFFFFFFFFFFF AND PUSH1 0x9 PUSH1 0x0 DUP5 PUSH20 0xFFFFFFFFFFFFFFFFFFFFFFFFFFFFFFFFFFFFFFFF AND PUSH20 0xFFFFFFFFFFFFFFFFFFFFFFFFFFFFFFFFFFFFFFFF AND DUP2 MSTORE PUSH1 0x20 ADD SWAP1 DUP2 MSTORE PUSH1 0x20 ADD PUSH1 0x0 KECCAK256 PUSH1 0x0 DUP3 DUP3 SLOAD PUSH2 0x1BAC SWAP2 SWAP1 PUSH2 0x4CC3 JUMP JUMPDEST SWAP3 POP POP DUP2 SWAP1 SSTORE POP DUP3 PUSH1 0x20 ADD MLOAD PUSH8 0xFFFFFFFFFFFFFFFF AND PUSH1 0xA PUSH1 0x0 DUP5 PUSH20 0xFFFFFFFFFFFFFFFFFFFFFFFFFFFFFFFFFFFFFFFF AND PUSH20 0xFFFFFFFFFFFFFFFFFFFFFFFFFFFFFFFFFFFFFFFF AND DUP2 MSTORE PUSH1 0x20 ADD SWAP1 DUP2 MSTORE PUSH1 0x20 ADD PUSH1 0x0 KECCAK256 PUSH1 0x0 DUP3 DUP3 SLOAD PUSH2 0x1C10 SWAP2 SWAP1 PUSH2 0x4CC3 JUMP JUMPDEST SWAP3 POP POP DUP2 SWAP1 SSTORE POP DUP3 PUSH1 0x0 ADD MLOAD PUSH8 0xFFFFFFFFFFFFFFFF AND PUSH1 0x3 PUSH1 0x0 DUP3 DUP3 SLOAD PUSH2 0x1C37 SWAP2 SWAP1 PUSH2 0x4B62 JUMP JUMPDEST SWAP3 POP POP DUP2 SWAP1 SSTORE POP DUP3 PUSH1 0x20 ADD MLOAD PUSH8 0xFFFFFFFFFFFFFFFF AND PUSH1 0x4 PUSH1 0x0 DUP3 DUP3 SLOAD PUSH2 0x1C5E SWAP2 SWAP1 PUSH2 0x4B62 JUMP JUMPDEST SWAP3 POP POP DUP2 SWAP1 SSTORE POP PUSH2 0x1C7C PUSH1 0x4 SLOAD PUSH1 0x3 SLOAD PUSH2 0x9CA SWAP1 SWAP2 SWAP1 PUSH4 0xFFFFFFFF AND JUMP JUMPDEST PUSH1 0x5 DUP2 SWAP1 SSTORE POP DUP1 PUSH1 0x8 PUSH1 0x0 DUP3 DUP3 SLOAD PUSH2 0x1C94 SWAP2 SWAP1 PUSH2 0x4B62 JUMP JUMPDEST SWAP3 POP POP DUP2 SWAP1 SSTORE POP DUP1 PUSH1 0x6 PUSH1 0x0 DUP5 PUSH20 0xFFFFFFFFFFFFFFFFFFFFFFFFFFFFFFFFFFFFFFFF AND PUSH20 0xFFFFFFFFFFFFFFFFFFFFFFFFFFFFFFFFFFFFFFFF AND DUP2 MSTORE PUSH1 0x20 ADD SWAP1 DUP2 MSTORE PUSH1 0x20 ADD PUSH1 0x0 KECCAK256 PUSH1 0x0 DUP3 DUP3 SLOAD PUSH2 0x1CEA SWAP2 SWAP1 PUSH2 0x4B62 JUMP JUMPDEST SWAP3 POP POP DUP2 SWAP1 SSTORE POP POP POP POP JUMP JUMPDEST PUSH1 0x0 DUP1 PUSH2 0x1D01 PUSH2 0x441C JUMP JUMPDEST PUSH2 0x1D09 PUSH2 0x441C JUMP JUMPDEST PUSH1 0x0 DUP1 DUP9 SWAP1 POP DUP1 PUSH8 0xFFFFFFFFFFFFFFFF AND DUP8 DUP3 PUSH2 0x1D26 SWAP2 SWAP1 PUSH2 0x4BB8 JUMP JUMPDEST PUSH8 0xFFFFFFFFFFFFFFFF AND LT ISZERO PUSH2 0x1D48 JUMPI PUSH1 0x0 DUP2 DUP5 SWAP6 POP SWAP6 POP SWAP6 POP POP POP POP PUSH2 0x1EA7 JUMP JUMPDEST JUMPDEST DUP7 PUSH8 0xFFFFFFFFFFFFFFFF AND DUP10 DUP3 PUSH2 0x1D60 SWAP2 SWAP1 PUSH2 0x4CF7 JUMP JUMPDEST PUSH8 0xFFFFFFFFFFFFFFFF AND LT ISZERO PUSH2 0x1E61 JUMPI PUSH1 0x0 DUP1 PUSH1 0x0 PUSH2 0x1D7F DUP5 DUP13 PUSH2 0x2055 JUMP JUMPDEST DUP1 SWAP5 POP DUP2 SWAP6 POP DUP3 SWAP8 POP DUP4 SWAP7 POP POP POP POP POP DUP3 PUSH2 0x1DA9 JUMPI PUSH1 0x0 DUP5 DUP8 SWAP9 POP SWAP9 POP SWAP9 POP POP POP POP POP POP POP PUSH2 0x1EA7 JUMP JUMPDEST PUSH1 0x4 DUP3 PUSH8 0xFFFFFFFFFFFFFFFF AND GT ISZERO PUSH2 0x1DD1 JUMPI PUSH1 0x0 DUP5 DUP8 SWAP9 POP SWAP9 POP SWAP9 POP POP POP POP POP POP POP PUSH2 0x1EA7 JUMP JUMPDEST DUP5 PUSH8 0xFFFFFFFFFFFFFFFF AND DUP3 PUSH8 0xFFFFFFFFFFFFFFFF AND GT PUSH2 0x1E01 JUMPI PUSH1 0x0 DUP5 DUP8 SWAP9 POP SWAP9 POP SWAP9 POP POP POP POP POP POP POP PUSH2 0x1EA7 JUMP JUMPDEST PUSH2 0x1E0B DUP3 DUP3 PUSH2 0x2A8C JUMP JUMPDEST SWAP3 POP DUP3 PUSH2 0x1E27 JUMPI PUSH1 0x0 DUP5 DUP8 SWAP9 POP SWAP9 POP SWAP9 POP POP POP POP POP POP POP PUSH2 0x1EA7 JUMP JUMPDEST PUSH2 0x1E34 DUP5 DUP13 DUP13 DUP6 DUP11 PUSH2 0x2BA1 JUMP JUMPDEST DUP1 SWAP6 POP DUP2 SWAP5 POP POP POP DUP3 PUSH2 0x1E56 JUMPI PUSH1 0x0 DUP5 DUP8 SWAP9 POP SWAP9 POP SWAP9 POP POP POP POP POP POP POP PUSH2 0x1EA7 JUMP JUMPDEST DUP2 SWAP5 POP POP POP POP PUSH2 0x1D49 JUMP JUMPDEST DUP7 DUP10 PUSH2 0x1E6D SWAP2 SWAP1 PUSH2 0x4BB8 JUMP JUMPDEST PUSH8 0xFFFFFFFFFFFFFFFF AND DUP2 PUSH8 0xFFFFFFFFFFFFFFFF AND EQ PUSH2 0x1E99 JUMPI PUSH1 0x0 DUP2 DUP5 SWAP6 POP SWAP6 POP SWAP6 POP POP POP POP PUSH2 0x1EA7 JUMP JUMPDEST PUSH1 0x1 DUP2 DUP5 SWAP6 POP SWAP6 POP SWAP6 POP POP POP POP JUMPDEST SWAP4 POP SWAP4 POP SWAP4 SWAP1 POP JUMP JUMPDEST PUSH1 0x0 PUSH2 0x1EBF DUP3 PUSH1 0x60 ADD MLOAD PUSH2 0x2480 JUMP JUMPDEST SWAP1 POP PUSH1 0x0 DUP3 PUSH1 0x0 ADD MLOAD PUSH8 0xFFFFFFFFFFFFFFFF AND SWAP1 POP PUSH1 0x0 DUP1 PUSH2 0x1EE0 DUP4 PUSH2 0x348 JUMP JUMPDEST SWAP2 POP SWAP2 POP DUP3 PUSH1 0x6 PUSH1 0x0 CALLER PUSH20 0xFFFFFFFFFFFFFFFFFFFFFFFFFFFFFFFFFFFFFFFF AND PUSH20 0xFFFFFFFFFFFFFFFFFFFFFFFFFFFFFFFFFFFFFFFF AND DUP2 MSTORE PUSH1 0x20 ADD SWAP1 DUP2 MSTORE PUSH1 0x20 ADD PUSH1 0x0 KECCAK256 PUSH1 0x0 DUP3 DUP3 SLOAD PUSH2 0x1F33 SWAP2 SWAP1 PUSH2 0x4CC3 JUMP JUMPDEST SWAP3 POP POP DUP2 SWAP1 SSTORE POP DUP3 PUSH1 0x8 PUSH1 0x0 DUP3 DUP3 SLOAD PUSH2 0x1F4C SWAP2 SWAP1 PUSH2 0x4CC3 JUMP JUMPDEST SWAP3 POP POP DUP2 SWAP1 SSTORE POP DUP2 PUSH1 0x3 PUSH1 0x0 DUP3 DUP3 SLOAD PUSH2 0x1F65 SWAP2 SWAP1 PUSH2 0x4CC3 JUMP JUMPDEST SWAP3 POP POP DUP2 SWAP1 SSTORE POP DUP1 PUSH1 0x4 PUSH1 0x0 DUP3 DUP3 SLOAD PUSH2 0x1F7E SWAP2 SWAP1 PUSH2 0x4CC3 JUMP JUMPDEST SWAP3 POP POP DUP2 SWAP1 SSTORE POP PUSH2 0x1F9C PUSH1 0x4 SLOAD PUSH1 0x3 SLOAD PUSH2 0x9CA SWAP1 SWAP2 SWAP1 PUSH4 0xFFFFFFFF AND JUMP JUMPDEST PUSH1 0x5 DUP2 SWAP1 SSTORE POP DUP2 PUSH1 0x9 PUSH1 0x0 DUP7 PUSH20 0xFFFFFFFFFFFFFFFFFFFFFFFFFFFFFFFFFFFFFFFF AND PUSH20 0xFFFFFFFFFFFFFFFFFFFFFFFFFFFFFFFFFFFFFFFF AND DUP2 MSTORE PUSH1 0x20 ADD SWAP1 DUP2 MSTORE PUSH1 0x20 ADD PUSH1 0x0 KECCAK256 PUSH1 0x0 DUP3 DUP3 SLOAD PUSH2 0x1FF1 SWAP2 SWAP1 PUSH2 0x4B62 JUMP JUMPDEST SWAP3 POP POP DUP2 SWAP1 SSTORE POP DUP1 PUSH1 0xA PUSH1 0x0 DUP7 PUSH20 0xFFFFFFFFFFFFFFFFFFFFFFFFFFFFFFFFFFFFFFFF AND PUSH20 0xFFFFFFFFFFFFFFFFFFFFFFFFFFFFFFFFFFFFFFFF AND DUP2 MSTORE PUSH1 0x20 ADD SWAP1 DUP2 MSTORE PUSH1 0x20 ADD PUSH1 0x0 KECCAK256 PUSH1 0x0 DUP3 DUP3 SLOAD PUSH2 0x2047 SWAP2 SWAP1 PUSH2 0x4B62 JUMP JUMPDEST SWAP3 POP POP DUP2 SWAP1 SSTORE POP POP POP POP POP POP JUMP JUMPDEST PUSH1 0x0 DUP1 PUSH1 0x0 DUP1 PUSH1 0x0 DUP1 PUSH1 0x0 PUSH2 0x206A DUP10 DUP10 PUSH2 0x2CE0 JUMP JUMPDEST SWAP3 POP SWAP3 POP SWAP3 POP DUP3 PUSH2 0x208C JUMPI PUSH1 0x0 DUP3 PUSH1 0x0 PUSH1 0x6 SWAP7 POP SWAP7 POP SWAP7 POP SWAP7 POP POP POP POP PUSH2 0x2198 JUMP JUMPDEST PUSH1 0x0 PUSH1 0x3 DUP3 PUSH8 0xFFFFFFFFFFFFFFFF AND SWAP1 SHR SWAP1 POP PUSH1 0x0 PUSH1 0x7 DUP4 AND SWAP1 POP PUSH1 0x6 DUP1 DUP2 GT ISZERO PUSH2 0x20BA JUMPI PUSH2 0x20B9 PUSH2 0x4F04 JUMP JUMPDEST JUMPDEST PUSH8 0xFFFFFFFFFFFFFFFF AND DUP2 PUSH8 0xFFFFFFFFFFFFFFFF AND LT PUSH2 0x20ED JUMPI PUSH1 0x0 DUP5 PUSH1 0x0 PUSH1 0x6 SWAP9 POP SWAP9 POP SWAP9 POP SWAP9 POP POP POP POP POP POP PUSH2 0x2198 JUMP JUMPDEST PUSH1 0x0 DUP2 PUSH8 0xFFFFFFFFFFFFFFFF AND PUSH1 0x6 DUP2 GT ISZERO PUSH2 0x210C JUMPI PUSH2 0x210B PUSH2 0x4F04 JUMP JUMPDEST JUMPDEST SWAP1 POP PUSH1 0x3 PUSH1 0x6 DUP2 GT ISZERO PUSH2 0x2122 JUMPI PUSH2 0x2121 PUSH2 0x4F04 JUMP JUMPDEST JUMPDEST DUP2 PUSH1 0x6 DUP2 GT ISZERO PUSH2 0x2135 JUMPI PUSH2 0x2134 PUSH2 0x4F04 JUMP JUMPDEST JUMPDEST EQ DUP1 PUSH2 0x2165 JUMPI POP PUSH1 0x4 PUSH1 0x6 DUP2 GT ISZERO PUSH2 0x2150 JUMPI PUSH2 0x214F PUSH2 0x4F04 JUMP JUMPDEST JUMPDEST DUP2 PUSH1 0x6 DUP2 GT ISZERO PUSH2 0x2163 JUMPI PUSH2 0x2162 PUSH2 0x4F04 JUMP JUMPDEST JUMPDEST EQ JUMPDEST ISZERO PUSH2 0x2184 JUMPI PUSH1 0x0 DUP6 PUSH1 0x0 PUSH1 0x6 SWAP10 POP SWAP10 POP SWAP10 POP SWAP10 POP POP POP POP POP POP POP PUSH2 0x2198 JUMP JUMPDEST PUSH1 0x1 DUP6 DUP5 DUP4 SWAP10 POP SWAP10 POP SWAP10 POP SWAP10 POP POP POP POP POP POP POP JUMPDEST SWAP3 SWAP6 SWAP2 SWAP5 POP SWAP3 POP JUMP JUMPDEST PUSH1 0x0 PUSH1 0x1 DUP4 PUSH8 0xFFFFFFFFFFFFFFFF AND EQ ISZERO PUSH2 0x21E5 JUMPI PUSH1 0x2 PUSH1 0x6 DUP2 GT ISZERO PUSH2 0x21CA JUMPI PUSH2 0x21C9 PUSH2 0x4F04 JUMP JUMPDEST JUMPDEST DUP3 PUSH1 0x6 DUP2 GT ISZERO PUSH2 0x21DD JUMPI PUSH2 0x21DC PUSH2 0x4F04 JUMP JUMPDEST JUMPDEST EQ SWAP1 POP PUSH2 0x22F2 JUMP JUMPDEST PUSH1 0x2 DUP4 PUSH8 0xFFFFFFFFFFFFFFFF AND EQ ISZERO PUSH2 0x2227 JUMPI PUSH1 0x2 PUSH1 0x6 DUP2 GT ISZERO PUSH2 0x220C JUMPI PUSH2 0x220B PUSH2 0x4F04 JUMP JUMPDEST JUMPDEST DUP3 PUSH1 0x6 DUP2 GT ISZERO PUSH2 0x221F JUMPI PUSH2 0x221E PUSH2 0x4F04 JUMP JUMPDEST JUMPDEST EQ SWAP1 POP PUSH2 0x22F2 JUMP JUMPDEST PUSH1 0x3 DUP4 PUSH8 0xFFFFFFFFFFFFFFFF AND EQ ISZERO PUSH2 0x2269 JUMPI PUSH1 0x0 PUSH1 0x6 DUP2 GT ISZERO PUSH2 0x224E JUMPI PUSH2 0x224D PUSH2 0x4F04 JUMP JUMPDEST JUMPDEST DUP3 PUSH1 0x6 DUP2 GT ISZERO PUSH2 0x2261 JUMPI PUSH2 0x2260 PUSH2 0x4F04 JUMP JUMPDEST JUMPDEST EQ SWAP1 POP PUSH2 0x22F2 JUMP JUMPDEST PUSH1 0x4 DUP4 PUSH8 0xFFFFFFFFFFFFFFFF AND EQ ISZERO PUSH2 0x22AB JUMPI PUSH1 0x0 PUSH1 0x6 DUP2 GT ISZERO PUSH2 0x2290 JUMPI PUSH2 0x228F PUSH2 0x4F04 JUMP JUMPDEST JUMPDEST DUP3 PUSH1 0x6 DUP2 GT ISZERO PUSH2 0x22A3 JUMPI PUSH2 0x22A2 PUSH2 0x4F04 JUMP JUMPDEST JUMPDEST EQ SWAP1 POP PUSH2 0x22F2 JUMP JUMPDEST PUSH1 0x5 DUP4 PUSH8 0xFFFFFFFFFFFFFFFF AND EQ ISZERO PUSH2 0x22ED JUMPI PUSH1 0x2 PUSH1 0x6 DUP2 GT ISZERO PUSH2 0x22D2 JUMPI PUSH2 0x22D1 PUSH2 0x4F04 JUMP JUMPDEST JUMPDEST DUP3 PUSH1 0x6 DUP2 GT ISZERO PUSH2 0x22E5 JUMPI PUSH2 0x22E4 PUSH2 0x4F04 JUMP JUMPDEST JUMPDEST EQ SWAP1 POP PUSH2 0x22F2 JUMP JUMPDEST PUSH1 0x0 SWAP1 POP JUMPDEST SWAP3 SWAP2 POP POP JUMP JUMPDEST PUSH1 0x0 DUP1 PUSH1 0x0 DUP8 SWAP1 POP PUSH1 0x1 DUP6 PUSH8 0xFFFFFFFFFFFFFFFF AND EQ ISZERO PUSH2 0x2349 JUMPI PUSH1 0x0 PUSH2 0x2320 DUP3 DUP10 DUP8 PUSH2 0x2ED8 JUMP JUMPDEST DUP1 SWAP4 POP DUP2 SWAP3 POP POP POP DUP1 PUSH2 0x233B JUMPI PUSH1 0x0 DUP3 SWAP4 POP SWAP4 POP POP POP PUSH2 0x2476 JUMP JUMPDEST PUSH1 0x1 DUP3 SWAP4 POP SWAP4 POP POP POP PUSH2 0x2476 JUMP JUMPDEST PUSH1 0x2 DUP6 PUSH8 0xFFFFFFFFFFFFFFFF AND EQ ISZERO PUSH2 0x2392 JUMPI PUSH1 0x0 PUSH2 0x2369 DUP3 DUP10 DUP8 PUSH2 0x305D JUMP JUMPDEST DUP1 SWAP4 POP DUP2 SWAP3 POP POP POP DUP1 PUSH2 0x2384 JUMPI PUSH1 0x0 DUP3 SWAP4 POP SWAP4 POP POP POP PUSH2 0x2476 JUMP JUMPDEST PUSH1 0x1 DUP3 SWAP4 POP SWAP4 POP POP POP PUSH2 0x2476 JUMP JUMPDEST PUSH1 0x3 DUP6 PUSH8 0xFFFFFFFFFFFFFFFF AND EQ ISZERO PUSH2 0x23DB JUMPI PUSH1 0x0 PUSH2 0x23B2 DUP3 DUP10 DUP8 PUSH2 0x31E2 JUMP JUMPDEST DUP1 SWAP4 POP DUP2 SWAP3 POP POP POP DUP1 PUSH2 0x23CD JUMPI PUSH1 0x0 DUP3 SWAP4 POP SWAP4 POP POP POP PUSH2 0x2476 JUMP JUMPDEST PUSH1 0x1 DUP3 SWAP4 POP SWAP4 POP POP POP PUSH2 0x2476 JUMP JUMPDEST PUSH1 0x4 DUP6 PUSH8 0xFFFFFFFFFFFFFFFF AND EQ ISZERO PUSH2 0x2424 JUMPI PUSH1 0x0 PUSH2 0x23FB DUP3 DUP10 DUP8 PUSH2 0x3264 JUMP JUMPDEST DUP1 SWAP4 POP DUP2 SWAP3 POP POP POP DUP1 PUSH2 0x2416 JUMPI PUSH1 0x0 DUP3 SWAP4 POP SWAP4 POP POP POP PUSH2 0x2476 JUMP JUMPDEST PUSH1 0x1 DUP3 SWAP4 POP SWAP4 POP POP POP PUSH2 0x2476 JUMP JUMPDEST PUSH1 0x5 DUP6 PUSH8 0xFFFFFFFFFFFFFFFF AND EQ ISZERO PUSH2 0x246D JUMPI PUSH1 0x0 PUSH2 0x2444 DUP3 DUP10 DUP8 PUSH2 0x32E6 JUMP JUMPDEST DUP1 SWAP4 POP DUP2 SWAP3 POP POP POP DUP1 PUSH2 0x245F JUMPI PUSH1 0x0 DUP3 SWAP4 POP SWAP4 POP POP POP PUSH2 0x2476 JUMP JUMPDEST PUSH1 0x1 DUP3 SWAP4 POP SWAP4 POP POP POP PUSH2 0x2476 JUMP JUMPDEST PUSH1 0x0 DUP2 SWAP3 POP SWAP3 POP POP JUMPDEST SWAP6 POP SWAP6 SWAP4 POP POP POP POP JUMP JUMPDEST PUSH1 0x0 PUSH1 0x14 DUP3 MLOAD EQ PUSH2 0x24C6 JUMPI PUSH1 0x40 MLOAD PUSH32 0x8C379A000000000000000000000000000000000000000000000000000000000 DUP2 MSTORE PUSH1 0x4 ADD PUSH2 0x24BD SWAP1 PUSH2 0x4970 JUMP JUMPDEST PUSH1 0x40 MLOAD DUP1 SWAP2 SUB SWAP1 REVERT JUMPDEST PUSH1 0x0 PUSH1 0x14 DUP4 ADD MLOAD SWAP1 POP DUP1 SWAP2 POP POP SWAP2 SWAP1 POP JUMP JUMPDEST PUSH1 0x0 PUSH1 0x1 DUP4 PUSH8 0xFFFFFFFFFFFFFFFF AND EQ ISZERO PUSH2 0x251C JUMPI PUSH1 0x2 PUSH1 0x6 DUP2 GT ISZERO PUSH2 0x2501 JUMPI PUSH2 0x2500 PUSH2 0x4F04 JUMP JUMPDEST JUMPDEST DUP3 PUSH1 0x6 DUP2 GT ISZERO PUSH2 0x2514 JUMPI PUSH2 0x2513 PUSH2 0x4F04 JUMP JUMPDEST JUMPDEST EQ SWAP1 POP PUSH2 0x25A5 JUMP JUMPDEST PUSH1 0x2 DUP4 PUSH8 0xFFFFFFFFFFFFFFFF AND EQ ISZERO PUSH2 0x255E JUMPI PUSH1 0x0 PUSH1 0x6 DUP2 GT ISZERO PUSH2 0x2543 JUMPI PUSH2 0x2542 PUSH2 0x4F04 JUMP JUMPDEST JUMPDEST DUP3 PUSH1 0x6 DUP2 GT ISZERO PUSH2 0x2556 JUMPI PUSH2 0x2555 PUSH2 0x4F04 JUMP JUMPDEST JUMPDEST EQ SWAP1 POP PUSH2 0x25A5 JUMP JUMPDEST PUSH1 0x3 DUP4 PUSH8 0xFFFFFFFFFFFFFFFF AND EQ ISZERO PUSH2 0x25A0 JUMPI PUSH1 0x2 PUSH1 0x6 DUP2 GT ISZERO PUSH2 0x2585 JUMPI PUSH2 0x2584 PUSH2 0x4F04 JUMP JUMPDEST JUMPDEST DUP3 PUSH1 0x6 DUP2 GT ISZERO PUSH2 0x2598 JUMPI PUSH2 0x2597 PUSH2 0x4F04 JUMP JUMPDEST JUMPDEST EQ SWAP1 POP PUSH2 0x25A5 JUMP JUMPDEST PUSH1 0x0 SWAP1 POP JUMPDEST SWAP3 SWAP2 POP POP JUMP JUMPDEST PUSH1 0x0 DUP1 PUSH1 0x0 DUP8 SWAP1 POP PUSH1 0x1 DUP6 PUSH8 0xFFFFFFFFFFFFFFFF AND EQ ISZERO PUSH2 0x25FC JUMPI PUSH1 0x0 PUSH2 0x25D3 DUP3 DUP10 DUP8 PUSH2 0x346B JUMP JUMPDEST DUP1 SWAP4 POP DUP2 SWAP3 POP POP POP DUP1 PUSH2 0x25EE JUMPI PUSH1 0x0 DUP3 SWAP4 POP SWAP4 POP POP POP PUSH2 0x2697 JUMP JUMPDEST PUSH1 0x1 DUP3 SWAP4 POP SWAP4 POP POP POP PUSH2 0x2697 JUMP JUMPDEST PUSH1 0x2 DUP6 PUSH8 0xFFFFFFFFFFFFFFFF AND EQ ISZERO PUSH2 0x2645 JUMPI PUSH1 0x0 PUSH2 0x261C DUP3 DUP10 DUP8 PUSH2 0x35F0 JUMP JUMPDEST DUP1 SWAP4 POP DUP2 SWAP3 POP POP POP DUP1 PUSH2 0x2637 JUMPI PUSH1 0x0 DUP3 SWAP4 POP SWAP4 POP POP POP PUSH2 0x2697 JUMP JUMPDEST PUSH1 0x1 DUP3 SWAP4 POP SWAP4 POP POP POP PUSH2 0x2697 JUMP JUMPDEST PUSH1 0x3 DUP6 PUSH8 0xFFFFFFFFFFFFFFFF AND EQ ISZERO PUSH2 0x268E JUMPI PUSH1 0x0 PUSH2 0x2665 DUP3 DUP10 DUP8 PUSH2 0x3672 JUMP JUMPDEST DUP1 SWAP4 POP DUP2 SWAP3 POP POP POP DUP1 PUSH2 0x2680 JUMPI PUSH1 0x0 DUP3 SWAP4 POP SWAP4 POP POP POP PUSH2 0x2697 JUMP JUMPDEST PUSH1 0x1 DUP3 SWAP4 POP SWAP4 POP POP POP PUSH2 0x2697 JUMP JUMPDEST PUSH1 0x0 DUP2 SWAP3 POP SWAP3 POP POP JUMPDEST SWAP6 POP SWAP6 SWAP4 POP POP POP POP JUMP JUMPDEST PUSH1 0x0 DUP2 PUSH1 0x40 MLOAD PUSH1 0x20 ADD PUSH2 0x26B4 SWAP2 SWAP1 PUSH2 0x48A1 JUMP JUMPDEST PUSH1 0x40 MLOAD PUSH1 0x20 DUP2 DUP4 SUB SUB DUP2 MSTORE SWAP1 PUSH1 0x40 MSTORE DUP1 MLOAD SWAP1 PUSH1 0x20 ADD KECCAK256 DUP4 PUSH1 0x40 MLOAD PUSH1 0x20 ADD PUSH2 0x26DB SWAP2 SWAP1 PUSH2 0x48A1 JUMP JUMPDEST PUSH1 0x40 MLOAD PUSH1 0x20 DUP2 DUP4 SUB SUB DUP2 MSTORE SWAP1 PUSH1 0x40 MSTORE DUP1 MLOAD SWAP1 PUSH1 0x20 ADD KECCAK256 EQ SWAP1 POP SWAP3 SWAP2 POP POP JUMP JUMPDEST PUSH1 0x0 PUSH1 0x1 DUP4 PUSH8 0xFFFFFFFFFFFFFFFF AND EQ ISZERO PUSH2 0x273E JUMPI PUSH1 0x2 PUSH1 0x6 DUP2 GT ISZERO PUSH2 0x2723 JUMPI PUSH2 0x2722 PUSH2 0x4F04 JUMP JUMPDEST JUMPDEST DUP3 PUSH1 0x6 DUP2 GT ISZERO PUSH2 0x2736 JUMPI PUSH2 0x2735 PUSH2 0x4F04 JUMP JUMPDEST JUMPDEST EQ SWAP1 POP PUSH2 0x27C7 JUMP JUMPDEST PUSH1 0x2 DUP4 PUSH8 0xFFFFFFFFFFFFFFFF AND EQ ISZERO PUSH2 0x2780 JUMPI PUSH1 0x0 PUSH1 0x6 DUP2 GT ISZERO PUSH2 0x2765 JUMPI PUSH2 0x2764 PUSH2 0x4F04 JUMP JUMPDEST JUMPDEST DUP3 PUSH1 0x6 DUP2 GT ISZERO PUSH2 0x2778 JUMPI PUSH2 0x2777 PUSH2 0x4F04 JUMP JUMPDEST JUMPDEST EQ SWAP1 POP PUSH2 0x27C7 JUMP JUMPDEST PUSH1 0x3 DUP4 PUSH8 0xFFFFFFFFFFFFFFFF AND EQ ISZERO PUSH2 0x27C2 JUMPI PUSH1 0x2 PUSH1 0x6 DUP2 GT ISZERO PUSH2 0x27A7 JUMPI PUSH2 0x27A6 PUSH2 0x4F04 JUMP JUMPDEST JUMPDEST DUP3 PUSH1 0x6 DUP2 GT ISZERO PUSH2 0x27BA JUMPI PUSH2 0x27B9 PUSH2 0x4F04 JUMP JUMPDEST JUMPDEST EQ SWAP1 POP PUSH2 0x27C7 JUMP JUMPDEST PUSH1 0x0 SWAP1 POP JUMPDEST SWAP3 SWAP2 POP POP JUMP JUMPDEST PUSH1 0x0 DUP1 PUSH1 0x0 DUP8 SWAP1 POP PUSH1 0x1 DUP6 PUSH8 0xFFFFFFFFFFFFFFFF AND EQ ISZERO PUSH2 0x281E JUMPI PUSH1 0x0 PUSH2 0x27F5 DUP3 DUP10 DUP8 PUSH2 0x37F7 JUMP JUMPDEST DUP1 SWAP4 POP DUP2 SWAP3 POP POP POP DUP1 PUSH2 0x2810 JUMPI PUSH1 0x0 DUP3 SWAP4 POP SWAP4 POP POP POP PUSH2 0x28B9 JUMP JUMPDEST PUSH1 0x1 DUP3 SWAP4 POP SWAP4 POP POP POP PUSH2 0x28B9 JUMP JUMPDEST PUSH1 0x2 DUP6 PUSH8 0xFFFFFFFFFFFFFFFF AND EQ ISZERO PUSH2 0x2867 JUMPI PUSH1 0x0 PUSH2 0x283E DUP3 DUP10 DUP8 PUSH2 0x397C JUMP JUMPDEST DUP1 SWAP4 POP DUP2 SWAP3 POP POP POP DUP1 PUSH2 0x2859 JUMPI PUSH1 0x0 DUP3 SWAP4 POP SWAP4 POP POP POP PUSH2 0x28B9 JUMP JUMPDEST PUSH1 0x1 DUP3 SWAP4 POP SWAP4 POP POP POP PUSH2 0x28B9 JUMP JUMPDEST PUSH1 0x3 DUP6 PUSH8 0xFFFFFFFFFFFFFFFF AND EQ ISZERO PUSH2 0x28B0 JUMPI PUSH1 0x0 PUSH2 0x2887 DUP3 DUP10 DUP8 PUSH2 0x39FE JUMP JUMPDEST DUP1 SWAP4 POP DUP2 SWAP3 POP POP POP DUP1 PUSH2 0x28A2 JUMPI PUSH1 0x0 DUP3 SWAP4 POP SWAP4 POP POP POP PUSH2 0x28B9 JUMP JUMPDEST PUSH1 0x1 DUP3 SWAP4 POP SWAP4 POP POP POP PUSH2 0x28B9 JUMP JUMPDEST PUSH1 0x0 DUP2 SWAP3 POP SWAP3 POP POP JUMPDEST SWAP6 POP SWAP6 SWAP4 POP POP POP POP JUMP JUMPDEST PUSH1 0x0 PUSH1 0x1 DUP4 PUSH8 0xFFFFFFFFFFFFFFFF AND EQ ISZERO PUSH2 0x2907 JUMPI PUSH1 0x0 PUSH1 0x6 DUP2 GT ISZERO PUSH2 0x28EC JUMPI PUSH2 0x28EB PUSH2 0x4F04 JUMP JUMPDEST JUMPDEST DUP3 PUSH1 0x6 DUP2 GT ISZERO PUSH2 0x28FF JUMPI PUSH2 0x28FE PUSH2 0x4F04 JUMP JUMPDEST JUMPDEST EQ SWAP1 POP PUSH2 0x2990 JUMP JUMPDEST PUSH1 0x2 DUP4 PUSH8 0xFFFFFFFFFFFFFFFF AND EQ ISZERO PUSH2 0x2949 JUMPI PUSH1 0x0 PUSH1 0x6 DUP2 GT ISZERO PUSH2 0x292E JUMPI PUSH2 0x292D PUSH2 0x4F04 JUMP JUMPDEST JUMPDEST DUP3 PUSH1 0x6 DUP2 GT ISZERO PUSH2 0x2941 JUMPI PUSH2 0x2940 PUSH2 0x4F04 JUMP JUMPDEST JUMPDEST EQ SWAP1 POP PUSH2 0x2990 JUMP JUMPDEST PUSH1 0x3 DUP4 PUSH8 0xFFFFFFFFFFFFFFFF AND EQ ISZERO PUSH2 0x298B JUMPI PUSH1 0x2 PUSH1 0x6 DUP2 GT ISZERO PUSH2 0x2970 JUMPI PUSH2 0x296F PUSH2 0x4F04 JUMP JUMPDEST JUMPDEST DUP3 PUSH1 0x6 DUP2 GT ISZERO PUSH2 0x2983 JUMPI PUSH2 0x2982 PUSH2 0x4F04 JUMP JUMPDEST JUMPDEST EQ SWAP1 POP PUSH2 0x2990 JUMP JUMPDEST PUSH1 0x0 SWAP1 POP JUMPDEST SWAP3 SWAP2 POP POP JUMP JUMPDEST PUSH1 0x0 DUP1 PUSH1 0x0 DUP8 SWAP1 POP PUSH1 0x1 DUP6 PUSH8 0xFFFFFFFFFFFFFFFF AND EQ ISZERO PUSH2 0x29E7 JUMPI PUSH1 0x0 PUSH2 0x29BE DUP3 DUP10 DUP8 PUSH2 0x3B83 JUMP JUMPDEST DUP1 SWAP4 POP DUP2 SWAP3 POP POP POP DUP1 PUSH2 0x29D9 JUMPI PUSH1 0x0 DUP3 SWAP4 POP SWAP4 POP POP POP PUSH2 0x2A82 JUMP JUMPDEST PUSH1 0x1 DUP3 SWAP4 POP SWAP4 POP POP POP PUSH2 0x2A82 JUMP JUMPDEST PUSH1 0x2 DUP6 PUSH8 0xFFFFFFFFFFFFFFFF AND EQ ISZERO PUSH2 0x2A30 JUMPI PUSH1 0x0 PUSH2 0x2A07 DUP3 DUP10 DUP8 PUSH2 0x3C05 JUMP JUMPDEST DUP1 SWAP4 POP DUP2 SWAP3 POP POP POP DUP1 PUSH2 0x2A22 JUMPI PUSH1 0x0 DUP3 SWAP4 POP SWAP4 POP POP POP PUSH2 0x2A82 JUMP JUMPDEST PUSH1 0x1 DUP3 SWAP4 POP SWAP4 POP POP POP PUSH2 0x2A82 JUMP JUMPDEST PUSH1 0x3 DUP6 PUSH8 0xFFFFFFFFFFFFFFFF AND EQ ISZERO PUSH2 0x2A79 JUMPI PUSH1 0x0 PUSH2 0x2A50 DUP3 DUP10 DUP8 PUSH2 0x3C87 JUMP JUMPDEST DUP1 SWAP4 POP DUP2 SWAP3 POP POP POP DUP1 PUSH2 0x2A6B JUMPI PUSH1 0x0 DUP3 SWAP4 POP SWAP4 POP POP POP PUSH2 0x2A82 JUMP JUMPDEST PUSH1 0x1 DUP3 SWAP4 POP SWAP4 POP POP POP PUSH2 0x2A82 JUMP JUMPDEST PUSH1 0x0 DUP2 SWAP3 POP SWAP3 POP POP JUMPDEST SWAP6 POP SWAP6 SWAP4 POP POP POP POP JUMP JUMPDEST PUSH1 0x0 PUSH1 0x1 DUP4 PUSH8 0xFFFFFFFFFFFFFFFF AND EQ ISZERO PUSH2 0x2AD0 JUMPI PUSH1 0x0 PUSH1 0x6 DUP2 GT ISZERO PUSH2 0x2AB5 JUMPI PUSH2 0x2AB4 PUSH2 0x4F04 JUMP JUMPDEST JUMPDEST DUP3 PUSH1 0x6 DUP2 GT ISZERO PUSH2 0x2AC8 JUMPI PUSH2 0x2AC7 PUSH2 0x4F04 JUMP JUMPDEST JUMPDEST EQ SWAP1 POP PUSH2 0x2B9B JUMP JUMPDEST PUSH1 0x2 DUP4 PUSH8 0xFFFFFFFFFFFFFFFF AND EQ ISZERO PUSH2 0x2B12 JUMPI PUSH1 0x0 PUSH1 0x6 DUP2 GT ISZERO PUSH2 0x2AF7 JUMPI PUSH2 0x2AF6 PUSH2 0x4F04 JUMP JUMPDEST JUMPDEST DUP3 PUSH1 0x6 DUP2 GT ISZERO PUSH2 0x2B0A JUMPI PUSH2 0x2B09 PUSH2 0x4F04 JUMP JUMPDEST JUMPDEST EQ SWAP1 POP PUSH2 0x2B9B JUMP JUMPDEST PUSH1 0x3 DUP4 PUSH8 0xFFFFFFFFFFFFFFFF AND EQ ISZERO PUSH2 0x2B54 JUMPI PUSH1 0x0 PUSH1 0x6 DUP2 GT ISZERO PUSH2 0x2B39 JUMPI PUSH2 0x2B38 PUSH2 0x4F04 JUMP JUMPDEST JUMPDEST DUP3 PUSH1 0x6 DUP2 GT ISZERO PUSH2 0x2B4C JUMPI PUSH2 0x2B4B PUSH2 0x4F04 JUMP JUMPDEST JUMPDEST EQ SWAP1 POP PUSH2 0x2B9B JUMP JUMPDEST PUSH1 0x4 DUP4 PUSH8 0xFFFFFFFFFFFFFFFF AND EQ ISZERO PUSH2 0x2B96 JUMPI PUSH1 0x2 PUSH1 0x6 DUP2 GT ISZERO PUSH2 0x2B7B JUMPI PUSH2 0x2B7A PUSH2 0x4F04 JUMP JUMPDEST JUMPDEST DUP3 PUSH1 0x6 DUP2 GT ISZERO PUSH2 0x2B8E JUMPI PUSH2 0x2B8D PUSH2 0x4F04 JUMP JUMPDEST JUMPDEST EQ SWAP1 POP PUSH2 0x2B9B JUMP JUMPDEST PUSH1 0x0 SWAP1 POP JUMPDEST SWAP3 SWAP2 POP POP JUMP JUMPDEST PUSH1 0x0 DUP1 PUSH1 0x0 DUP8 SWAP1 POP PUSH1 0x1 DUP6 PUSH8 0xFFFFFFFFFFFFFFFF AND EQ ISZERO PUSH2 0x2BF2 JUMPI PUSH1 0x0 PUSH2 0x2BC9 DUP3 DUP10 DUP8 PUSH2 0x3E0C JUMP JUMPDEST DUP1 SWAP4 POP DUP2 SWAP3 POP POP POP DUP1 PUSH2 0x2BE4 JUMPI PUSH1 0x0 DUP3 SWAP4 POP SWAP4 POP POP POP PUSH2 0x2CD6 JUMP JUMPDEST PUSH1 0x1 DUP3 SWAP4 POP SWAP4 POP POP POP PUSH2 0x2CD6 JUMP JUMPDEST PUSH1 0x2 DUP6 PUSH8 0xFFFFFFFFFFFFFFFF AND EQ ISZERO PUSH2 0x2C3B JUMPI PUSH1 0x0 PUSH2 0x2C12 DUP3 DUP10 DUP8 PUSH2 0x3E8E JUMP JUMPDEST DUP1 SWAP4 POP DUP2 SWAP3 POP POP POP DUP1 PUSH2 0x2C2D JUMPI PUSH1 0x0 DUP3 SWAP4 POP SWAP4 POP POP POP PUSH2 0x2CD6 JUMP JUMPDEST PUSH1 0x1 DUP3 SWAP4 POP SWAP4 POP POP POP PUSH2 0x2CD6 JUMP JUMPDEST PUSH1 0x3 DUP6 PUSH8 0xFFFFFFFFFFFFFFFF AND EQ ISZERO PUSH2 0x2C84 JUMPI PUSH1 0x0 PUSH2 0x2C5B DUP3 DUP10 DUP8 PUSH2 0x3F10 JUMP JUMPDEST DUP1 SWAP4 POP DUP2 SWAP3 POP POP POP DUP1 PUSH2 0x2C76 JUMPI PUSH1 0x0 DUP3 SWAP4 POP SWAP4 POP POP POP PUSH2 0x2CD6 JUMP JUMPDEST PUSH1 0x1 DUP3 SWAP4 POP SWAP4 POP POP POP PUSH2 0x2CD6 JUMP JUMPDEST PUSH1 0x4 DUP6 PUSH8 0xFFFFFFFFFFFFFFFF AND EQ ISZERO PUSH2 0x2CCD JUMPI PUSH1 0x0 PUSH2 0x2CA4 DUP3 DUP10 DUP8 PUSH2 0x3F92 JUMP JUMPDEST DUP1 SWAP4 POP DUP2 SWAP3 POP POP POP DUP1 PUSH2 0x2CBF JUMPI PUSH1 0x0 DUP3 SWAP4 POP SWAP4 POP POP POP PUSH2 0x2CD6 JUMP JUMPDEST PUSH1 0x1 DUP3 SWAP4 POP SWAP4 POP POP POP PUSH2 0x2CD6 JUMP JUMPDEST PUSH1 0x0 DUP2 SWAP3 POP SWAP3 POP POP JUMPDEST SWAP6 POP SWAP6 SWAP4 POP POP POP POP JUMP JUMPDEST PUSH1 0x0 DUP1 PUSH1 0x0 DUP1 PUSH1 0x0 JUMPDEST PUSH1 0xA PUSH8 0xFFFFFFFFFFFFFFFF AND DUP2 PUSH8 0xFFFFFFFFFFFFFFFF AND LT ISZERO PUSH2 0x2E03 JUMPI DUP6 MLOAD DUP8 DUP3 PUSH2 0x2D14 SWAP2 SWAP1 PUSH2 0x4BB8 JUMP JUMPDEST PUSH8 0xFFFFFFFFFFFFFFFF AND LT PUSH2 0x2D35 JUMPI PUSH1 0x0 DUP8 PUSH1 0x0 SWAP5 POP SWAP5 POP SWAP5 POP POP POP PUSH2 0x2ED1 JUMP JUMPDEST PUSH1 0x0 DUP7 DUP3 DUP10 PUSH2 0x2D44 SWAP2 SWAP1 PUSH2 0x4BB8 JUMP JUMPDEST PUSH8 0xFFFFFFFFFFFFFFFF AND DUP2 MLOAD DUP2 LT PUSH2 0x2D5F JUMPI PUSH2 0x2D5E PUSH2 0x4F62 JUMP JUMPDEST JUMPDEST PUSH1 0x20 ADD ADD MLOAD PUSH1 0xF8 SHR PUSH1 0xF8 SHL PUSH1 0xF8 SHR SWAP1 POP PUSH1 0x0 PUSH1 0x7F DUP3 AND SWAP1 POP PUSH1 0x7 DUP4 PUSH2 0x2D84 SWAP2 SWAP1 PUSH2 0x4C81 JUMP JUMPDEST PUSH8 0xFFFFFFFFFFFFFFFF AND DUP2 PUSH1 0xFF AND PUSH8 0xFFFFFFFFFFFFFFFF AND SWAP1 SHL DUP5 OR SWAP4 POP PUSH1 0x0 PUSH1 0x80 DUP4 AND PUSH1 0xFF AND EQ ISZERO PUSH2 0x2DEE JUMPI PUSH1 0x0 DUP4 PUSH8 0xFFFFFFFFFFFFFFFF AND GT DUP1 ISZERO PUSH2 0x2DCE JUMPI POP PUSH1 0x0 DUP2 PUSH1 0xFF AND EQ JUMPDEST ISZERO PUSH2 0x2DE7 JUMPI PUSH1 0x0 DUP10 PUSH1 0x0 SWAP7 POP SWAP7 POP SWAP7 POP POP POP POP POP PUSH2 0x2ED1 JUMP JUMPDEST POP POP PUSH2 0x2E03 JUMP JUMPDEST POP POP DUP1 DUP1 PUSH2 0x2DFB SWAP1 PUSH2 0x4E75 JUMP JUMPDEST SWAP2 POP POP PUSH2 0x2CE9 JUMP JUMPDEST PUSH1 0xA PUSH8 0xFFFFFFFFFFFFFFFF AND DUP2 PUSH8 0xFFFFFFFFFFFFFFFF AND LT PUSH2 0x2E31 JUMPI PUSH1 0x0 DUP8 PUSH1 0x0 SWAP5 POP SWAP5 POP SWAP5 POP POP POP PUSH2 0x2ED1 JUMP JUMPDEST PUSH1 0x1 PUSH1 0xA PUSH2 0x2E3F SWAP2 SWAP1 PUSH2 0x4CF7 JUMP JUMPDEST PUSH8 0xFFFFFFFFFFFFFFFF AND DUP2 PUSH8 0xFFFFFFFFFFFFFFFF AND EQ ISZERO PUSH2 0x2EAE JUMPI PUSH1 0x1 DUP7 DUP3 DUP10 PUSH2 0x2E69 SWAP2 SWAP1 PUSH2 0x4BB8 JUMP JUMPDEST PUSH8 0xFFFFFFFFFFFFFFFF AND DUP2 MLOAD DUP2 LT PUSH2 0x2E84 JUMPI PUSH2 0x2E83 PUSH2 0x4F62 JUMP JUMPDEST JUMPDEST PUSH1 0x20 ADD ADD MLOAD PUSH1 0xF8 SHR PUSH1 0xF8 SHL PUSH1 0xF8 SHR PUSH1 0xFF AND GT ISZERO PUSH2 0x2EAD JUMPI PUSH1 0x0 DUP8 PUSH1 0x0 SWAP5 POP SWAP5 POP SWAP5 POP POP POP PUSH2 0x2ED1 JUMP JUMPDEST JUMPDEST PUSH1 0x1 DUP1 DUP3 DUP10 PUSH2 0x2EBD SWAP2 SWAP1 PUSH2 0x4BB8 JUMP JUMPDEST PUSH2 0x2EC7 SWAP2 SWAP1 PUSH2 0x4BB8 JUMP JUMPDEST DUP4 SWAP5 POP SWAP5 POP SWAP5 POP POP POP JUMPDEST SWAP3 POP SWAP3 POP SWAP3 JUMP JUMPDEST PUSH1 0x0 DUP1 PUSH1 0x0 DUP1 PUSH2 0x2EE8 DUP8 DUP8 PUSH2 0x4117 JUMP JUMPDEST DUP1 SWAP4 POP DUP2 SWAP10 POP DUP3 SWAP5 POP POP POP POP DUP2 PUSH2 0x2F07 JUMPI PUSH1 0x0 DUP8 SWAP4 POP SWAP4 POP POP POP PUSH2 0x3055 JUMP JUMPDEST PUSH1 0x0 DUP2 PUSH8 0xFFFFFFFFFFFFFFFF AND EQ ISZERO PUSH2 0x2F28 JUMPI PUSH1 0x0 DUP8 SWAP4 POP SWAP4 POP POP POP PUSH2 0x3055 JUMP JUMPDEST DUP1 PUSH8 0xFFFFFFFFFFFFFFFF AND PUSH8 0xFFFFFFFFFFFFFFFF DUP2 GT ISZERO PUSH2 0x2F4C JUMPI PUSH2 0x2F4B PUSH2 0x4F91 JUMP JUMPDEST JUMPDEST PUSH1 0x40 MLOAD SWAP1 DUP1 DUP3 MSTORE DUP1 PUSH1 0x1F ADD PUSH1 0x1F NOT AND PUSH1 0x20 ADD DUP3 ADD PUSH1 0x40 MSTORE DUP1 ISZERO PUSH2 0x2F7E JUMPI DUP2 PUSH1 0x20 ADD PUSH1 0x1 DUP3 MUL DUP1 CALLDATASIZE DUP4 CALLDATACOPY DUP1 DUP3 ADD SWAP2 POP POP SWAP1 POP JUMPDEST POP DUP6 PUSH1 0x0 ADD DUP2 SWAP1 MSTORE POP PUSH1 0x0 JUMPDEST DUP2 PUSH8 0xFFFFFFFFFFFFFFFF AND DUP2 PUSH8 0xFFFFFFFFFFFFFFFF AND LT ISZERO PUSH2 0x303C JUMPI DUP7 DUP2 DUP10 PUSH2 0x2FB3 SWAP2 SWAP1 PUSH2 0x4BB8 JUMP JUMPDEST PUSH8 0xFFFFFFFFFFFFFFFF AND DUP2 MLOAD DUP2 LT PUSH2 0x2FCE JUMPI PUSH2 0x2FCD PUSH2 0x4F62 JUMP JUMPDEST JUMPDEST PUSH1 0x20 ADD ADD MLOAD PUSH1 0xF8 SHR PUSH1 0xF8 SHL DUP7 PUSH1 0x0 ADD MLOAD DUP3 PUSH8 0xFFFFFFFFFFFFFFFF AND DUP2 MLOAD DUP2 LT PUSH2 0x2FFA JUMPI PUSH2 0x2FF9 PUSH2 0x4F62 JUMP JUMPDEST JUMPDEST PUSH1 0x20 ADD ADD SWAP1 PUSH31 0xFFFFFFFFFFFFFFFFFFFFFFFFFFFFFFFFFFFFFFFFFFFFFFFFFFFFFFFFFFFFFF NOT AND SWAP1 DUP2 PUSH1 0x0 BYTE SWAP1 MSTORE8 POP DUP1 DUP1 PUSH2 0x3034 SWAP1 PUSH2 0x4E75 JUMP JUMPDEST SWAP2 POP POP PUSH2 0x2F8A JUMP JUMPDEST POP DUP1 DUP8 PUSH2 0x3049 SWAP2 SWAP1 PUSH2 0x4BB8 JUMP JUMPDEST SWAP7 POP PUSH1 0x1 DUP8 SWAP4 POP SWAP4 POP POP POP JUMPDEST SWAP4 POP SWAP4 SWAP2 POP POP JUMP JUMPDEST PUSH1 0x0 DUP1 PUSH1 0x0 DUP1 PUSH2 0x306D DUP8 DUP8 PUSH2 0x4117 JUMP JUMPDEST DUP1 SWAP4 POP DUP2 SWAP10 POP DUP3 SWAP5 POP POP POP POP DUP2 PUSH2 0x308C JUMPI PUSH1 0x0 DUP8 SWAP4 POP SWAP4 POP POP POP PUSH2 0x31DA JUMP JUMPDEST PUSH1 0x0 DUP2 PUSH8 0xFFFFFFFFFFFFFFFF AND EQ ISZERO PUSH2 0x30AD JUMPI PUSH1 0x0 DUP8 SWAP4 POP SWAP4 POP POP POP PUSH2 0x31DA JUMP JUMPDEST DUP1 PUSH8 0xFFFFFFFFFFFFFFFF AND PUSH8 0xFFFFFFFFFFFFFFFF DUP2 GT ISZERO PUSH2 0x30D1 JUMPI PUSH2 0x30D0 PUSH2 0x4F91 JUMP JUMPDEST JUMPDEST PUSH1 0x40 MLOAD SWAP1 DUP1 DUP3 MSTORE DUP1 PUSH1 0x1F ADD PUSH1 0x1F NOT AND PUSH1 0x20 ADD DUP3 ADD PUSH1 0x40 MSTORE DUP1 ISZERO PUSH2 0x3103 JUMPI DUP2 PUSH1 0x20 ADD PUSH1 0x1 DUP3 MUL DUP1 CALLDATASIZE DUP4 CALLDATACOPY DUP1 DUP3 ADD SWAP2 POP POP SWAP1 POP JUMPDEST POP DUP6 PUSH1 0x20 ADD DUP2 SWAP1 MSTORE POP PUSH1 0x0 JUMPDEST DUP2 PUSH8 0xFFFFFFFFFFFFFFFF AND DUP2 PUSH8 0xFFFFFFFFFFFFFFFF AND LT ISZERO PUSH2 0x31C1 JUMPI DUP7 DUP2 DUP10 PUSH2 0x3138 SWAP2 SWAP1 PUSH2 0x4BB8 JUMP JUMPDEST PUSH8 0xFFFFFFFFFFFFFFFF AND DUP2 MLOAD DUP2 LT PUSH2 0x3153 JUMPI PUSH2 0x3152 PUSH2 0x4F62 JUMP JUMPDEST JUMPDEST PUSH1 0x20 ADD ADD MLOAD PUSH1 0xF8 SHR PUSH1 0xF8 SHL DUP7 PUSH1 0x20 ADD MLOAD DUP3 PUSH8 0xFFFFFFFFFFFFFFFF AND DUP2 MLOAD DUP2 LT PUSH2 0x317F JUMPI PUSH2 0x317E PUSH2 0x4F62 JUMP JUMPDEST JUMPDEST PUSH1 0x20 ADD ADD SWAP1 PUSH31 0xFFFFFFFFFFFFFFFFFFFFFFFFFFFFFFFFFFFFFFFFFFFFFFFFFFFFFFFFFFFFFF NOT AND SWAP1 DUP2 PUSH1 0x0 BYTE SWAP1 MSTORE8 POP DUP1 DUP1 PUSH2 0x31B9 SWAP1 PUSH2 0x4E75 JUMP JUMPDEST SWAP2 POP POP PUSH2 0x310F JUMP JUMPDEST POP DUP1 DUP8 PUSH2 0x31CE SWAP2 SWAP1 PUSH2 0x4BB8 JUMP JUMPDEST SWAP7 POP PUSH1 0x1 DUP8 SWAP4 POP SWAP4 POP POP POP JUMPDEST SWAP4 POP SWAP4 SWAP2 POP POP JUMP JUMPDEST PUSH1 0x0 DUP1 PUSH1 0x0 DUP1 PUSH2 0x31F2 DUP8 DUP8 PUSH2 0x4133 JUMP JUMPDEST DUP1 SWAP4 POP DUP2 SWAP10 POP DUP3 SWAP5 POP POP POP POP DUP2 PUSH2 0x3211 JUMPI PUSH1 0x0 DUP8 SWAP4 POP SWAP4 POP POP POP PUSH2 0x325C JUMP JUMPDEST PUSH1 0x0 DUP2 PUSH8 0xFFFFFFFFFFFFFFFF AND EQ ISZERO PUSH2 0x3232 JUMPI PUSH1 0x0 DUP8 SWAP4 POP SWAP4 POP POP POP PUSH2 0x325C JUMP JUMPDEST DUP1 DUP6 PUSH1 0x40 ADD SWAP1 PUSH8 0xFFFFFFFFFFFFFFFF AND SWAP1 DUP2 PUSH8 0xFFFFFFFFFFFFFFFF AND DUP2 MSTORE POP POP PUSH1 0x1 DUP8 SWAP4 POP SWAP4 POP POP POP JUMPDEST SWAP4 POP SWAP4 SWAP2 POP POP JUMP JUMPDEST PUSH1 0x0 DUP1 PUSH1 0x0 DUP1 PUSH2 0x3274 DUP8 DUP8 PUSH2 0x4133 JUMP JUMPDEST DUP1 SWAP4 POP DUP2 SWAP10 POP DUP3 SWAP5 POP POP POP POP DUP2 PUSH2 0x3293 JUMPI PUSH1 0x0 DUP8 SWAP4 POP SWAP4 POP POP POP PUSH2 0x32DE JUMP JUMPDEST PUSH1 0x0 DUP2 PUSH8 0xFFFFFFFFFFFFFFFF AND EQ ISZERO PUSH2 0x32B4 JUMPI PUSH1 0x0 DUP8 SWAP4 POP SWAP4 POP POP POP PUSH2 0x32DE JUMP JUMPDEST DUP1 DUP6 PUSH1 0x60 ADD SWAP1 PUSH8 0xFFFFFFFFFFFFFFFF AND SWAP1 DUP2 PUSH8 0xFFFFFFFFFFFFFFFF AND DUP2 MSTORE POP POP PUSH1 0x1 DUP8 SWAP4 POP SWAP4 POP POP POP JUMPDEST SWAP4 POP SWAP4 SWAP2 POP POP JUMP JUMPDEST PUSH1 0x0 DUP1 PUSH1 0x0 DUP1 PUSH2 0x32F6 DUP8 DUP8 PUSH2 0x4117 JUMP JUMPDEST DUP1 SWAP4 POP DUP2 SWAP10 POP DUP3 SWAP5 POP POP POP POP DUP2 PUSH2 0x3315 JUMPI PUSH1 0x0 DUP8 SWAP4 POP SWAP4 POP POP POP PUSH2 0x3463 JUMP JUMPDEST PUSH1 0x0 DUP2 PUSH8 0xFFFFFFFFFFFFFFFF AND EQ ISZERO PUSH2 0x3336 JUMPI PUSH1 0x0 DUP8 SWAP4 POP SWAP4 POP POP POP PUSH2 0x3463 JUMP JUMPDEST DUP1 PUSH8 0xFFFFFFFFFFFFFFFF AND PUSH8 0xFFFFFFFFFFFFFFFF DUP2 GT ISZERO PUSH2 0x335A JUMPI PUSH2 0x3359 PUSH2 0x4F91 JUMP JUMPDEST JUMPDEST PUSH1 0x40 MLOAD SWAP1 DUP1 DUP3 MSTORE DUP1 PUSH1 0x1F ADD PUSH1 0x1F NOT AND PUSH1 0x20 ADD DUP3 ADD PUSH1 0x40 MSTORE DUP1 ISZERO PUSH2 0x338C JUMPI DUP2 PUSH1 0x20 ADD PUSH1 0x1 DUP3 MUL DUP1 CALLDATASIZE DUP4 CALLDATACOPY DUP1 DUP3 ADD SWAP2 POP POP SWAP1 POP JUMPDEST POP DUP6 PUSH1 0x80 ADD DUP2 SWAP1 MSTORE POP PUSH1 0x0 JUMPDEST DUP2 PUSH8 0xFFFFFFFFFFFFFFFF AND DUP2 PUSH8 0xFFFFFFFFFFFFFFFF AND LT ISZERO PUSH2 0x344A JUMPI DUP7 DUP2 DUP10 PUSH2 0x33C1 SWAP2 SWAP1 PUSH2 0x4BB8 JUMP JUMPDEST PUSH8 0xFFFFFFFFFFFFFFFF AND DUP2 MLOAD DUP2 LT PUSH2 0x33DC JUMPI PUSH2 0x33DB PUSH2 0x4F62 JUMP JUMPDEST JUMPDEST PUSH1 0x20 ADD ADD MLOAD PUSH1 0xF8 SHR PUSH1 0xF8 SHL DUP7 PUSH1 0x80 ADD MLOAD DUP3 PUSH8 0xFFFFFFFFFFFFFFFF AND DUP2 MLOAD DUP2 LT PUSH2 0x3408 JUMPI PUSH2 0x3407 PUSH2 0x4F62 JUMP JUMPDEST JUMPDEST PUSH1 0x20 ADD ADD SWAP1 PUSH31 0xFFFFFFFFFFFFFFFFFFFFFFFFFFFFFFFFFFFFFFFFFFFFFFFFFFFFFFFFFFFFFF NOT AND SWAP1 DUP2 PUSH1 0x0 BYTE SWAP1 MSTORE8 POP DUP1 DUP1 PUSH2 0x3442 SWAP1 PUSH2 0x4E75 JUMP JUMPDEST SWAP2 POP POP PUSH2 0x3398 JUMP JUMPDEST POP DUP1 DUP8 PUSH2 0x3457 SWAP2 SWAP1 PUSH2 0x4BB8 JUMP JUMPDEST SWAP7 POP PUSH1 0x1 DUP8 SWAP4 POP SWAP4 POP POP POP JUMPDEST SWAP4 POP SWAP4 SWAP2 POP POP JUMP JUMPDEST PUSH1 0x0 DUP1 PUSH1 0x0 DUP1 PUSH2 0x347B DUP8 DUP8 PUSH2 0x4117 JUMP JUMPDEST DUP1 SWAP4 POP DUP2 SWAP10 POP DUP3 SWAP5 POP POP POP POP DUP2 PUSH2 0x349A JUMPI PUSH1 0x0 DUP8 SWAP4 POP SWAP4 POP POP POP PUSH2 0x35E8 JUMP JUMPDEST PUSH1 0x0 DUP2 PUSH8 0xFFFFFFFFFFFFFFFF AND EQ ISZERO PUSH2 0x34BB JUMPI PUSH1 0x0 DUP8 SWAP4 POP SWAP4 POP POP POP PUSH2 0x35E8 JUMP JUMPDEST DUP1 PUSH8 0xFFFFFFFFFFFFFFFF AND PUSH8 0xFFFFFFFFFFFFFFFF DUP2 GT ISZERO PUSH2 0x34DF JUMPI PUSH2 0x34DE PUSH2 0x4F91 JUMP JUMPDEST JUMPDEST PUSH1 0x40 MLOAD SWAP1 DUP1 DUP3 MSTORE DUP1 PUSH1 0x1F ADD PUSH1 0x1F NOT AND PUSH1 0x20 ADD DUP3 ADD PUSH1 0x40 MSTORE DUP1 ISZERO PUSH2 0x3511 JUMPI DUP2 PUSH1 0x20 ADD PUSH1 0x1 DUP3 MUL DUP1 CALLDATASIZE DUP4 CALLDATACOPY DUP1 DUP3 ADD SWAP2 POP POP SWAP1 POP JUMPDEST POP DUP6 PUSH1 0x0 ADD DUP2 SWAP1 MSTORE POP PUSH1 0x0 JUMPDEST DUP2 PUSH8 0xFFFFFFFFFFFFFFFF AND DUP2 PUSH8 0xFFFFFFFFFFFFFFFF AND LT ISZERO PUSH2 0x35CF JUMPI DUP7 DUP2 DUP10 PUSH2 0x3546 SWAP2 SWAP1 PUSH2 0x4BB8 JUMP JUMPDEST PUSH8 0xFFFFFFFFFFFFFFFF AND DUP2 MLOAD DUP2 LT PUSH2 0x3561 JUMPI PUSH2 0x3560 PUSH2 0x4F62 JUMP JUMPDEST JUMPDEST PUSH1 0x20 ADD ADD MLOAD PUSH1 0xF8 SHR PUSH1 0xF8 SHL DUP7 PUSH1 0x0 ADD MLOAD DUP3 PUSH8 0xFFFFFFFFFFFFFFFF AND DUP2 MLOAD DUP2 LT PUSH2 0x358D JUMPI PUSH2 0x358C PUSH2 0x4F62 JUMP JUMPDEST JUMPDEST PUSH1 0x20 ADD ADD SWAP1 PUSH31 0xFFFFFFFFFFFFFFFFFFFFFFFFFFFFFFFFFFFFFFFFFFFFFFFFFFFFFFFFFFFFFF NOT AND SWAP1 DUP2 PUSH1 0x0 BYTE SWAP1 MSTORE8 POP DUP1 DUP1 PUSH2 0x35C7 SWAP1 PUSH2 0x4E75 JUMP JUMPDEST SWAP2 POP POP PUSH2 0x351D JUMP JUMPDEST POP DUP1 DUP8 PUSH2 0x35DC SWAP2 SWAP1 PUSH2 0x4BB8 JUMP JUMPDEST SWAP7 POP PUSH1 0x1 DUP8 SWAP4 POP SWAP4 POP POP POP JUMPDEST SWAP4 POP SWAP4 SWAP2 POP POP JUMP JUMPDEST PUSH1 0x0 DUP1 PUSH1 0x0 DUP1 PUSH2 0x3600 DUP8 DUP8 PUSH2 0x4133 JUMP JUMPDEST DUP1 SWAP4 POP DUP2 SWAP10 POP DUP3 SWAP5 POP POP POP POP DUP2 PUSH2 0x361F JUMPI PUSH1 0x0 DUP8 SWAP4 POP SWAP4 POP POP POP PUSH2 0x366A JUMP JUMPDEST PUSH1 0x0 DUP2 PUSH8 0xFFFFFFFFFFFFFFFF AND EQ ISZERO PUSH2 0x3640 JUMPI PUSH1 0x0 DUP8 SWAP4 POP SWAP4 POP POP POP PUSH2 0x366A JUMP JUMPDEST DUP1 DUP6 PUSH1 0x20 ADD SWAP1 PUSH8 0xFFFFFFFFFFFFFFFF AND SWAP1 DUP2 PUSH8 0xFFFFFFFFFFFFFFFF AND DUP2 MSTORE POP POP PUSH1 0x1 DUP8 SWAP4 POP SWAP4 POP POP POP JUMPDEST SWAP4 POP SWAP4 SWAP2 POP POP JUMP JUMPDEST PUSH1 0x0 DUP1 PUSH1 0x0 DUP1 PUSH2 0x3682 DUP8 DUP8 PUSH2 0x4117 JUMP JUMPDEST DUP1 SWAP4 POP DUP2 SWAP10 POP DUP3 SWAP5 POP POP POP POP DUP2 PUSH2 0x36A1 JUMPI PUSH1 0x0 DUP8 SWAP4 POP SWAP4 POP POP POP PUSH2 0x37EF JUMP JUMPDEST PUSH1 0x0 DUP2 PUSH8 0xFFFFFFFFFFFFFFFF AND EQ ISZERO PUSH2 0x36C2 JUMPI PUSH1 0x0 DUP8 SWAP4 POP SWAP4 POP POP POP PUSH2 0x37EF JUMP JUMPDEST DUP1 PUSH8 0xFFFFFFFFFFFFFFFF AND PUSH8 0xFFFFFFFFFFFFFFFF DUP2 GT ISZERO PUSH2 0x36E6 JUMPI PUSH2 0x36E5 PUSH2 0x4F91 JUMP JUMPDEST JUMPDEST PUSH1 0x40 MLOAD SWAP1 DUP1 DUP3 MSTORE DUP1 PUSH1 0x1F ADD PUSH1 0x1F NOT AND PUSH1 0x20 ADD DUP3 ADD PUSH1 0x40 MSTORE DUP1 ISZERO PUSH2 0x3718 JUMPI DUP2 PUSH1 0x20 ADD PUSH1 0x1 DUP3 MUL DUP1 CALLDATASIZE DUP4 CALLDATACOPY DUP1 DUP3 ADD SWAP2 POP POP SWAP1 POP JUMPDEST POP DUP6 PUSH1 0x40 ADD DUP2 SWAP1 MSTORE POP PUSH1 0x0 JUMPDEST DUP2 PUSH8 0xFFFFFFFFFFFFFFFF AND DUP2 PUSH8 0xFFFFFFFFFFFFFFFF AND LT ISZERO PUSH2 0x37D6 JUMPI DUP7 DUP2 DUP10 PUSH2 0x374D SWAP2 SWAP1 PUSH2 0x4BB8 JUMP JUMPDEST PUSH8 0xFFFFFFFFFFFFFFFF AND DUP2 MLOAD DUP2 LT PUSH2 0x3768 JUMPI PUSH2 0x3767 PUSH2 0x4F62 JUMP JUMPDEST JUMPDEST PUSH1 0x20 ADD ADD MLOAD PUSH1 0xF8 SHR PUSH1 0xF8 SHL DUP7 PUSH1 0x40 ADD MLOAD DUP3 PUSH8 0xFFFFFFFFFFFFFFFF AND DUP2 MLOAD DUP2 LT PUSH2 0x3794 JUMPI PUSH2 0x3793 PUSH2 0x4F62 JUMP JUMPDEST JUMPDEST PUSH1 0x20 ADD ADD SWAP1 PUSH31 0xFFFFFFFFFFFFFFFFFFFFFFFFFFFFFFFFFFFFFFFFFFFFFFFFFFFFFFFFFFFFFF NOT AND SWAP1 DUP2 PUSH1 0x0 BYTE SWAP1 MSTORE8 POP DUP1 DUP1 PUSH2 0x37CE SWAP1 PUSH2 0x4E75 JUMP JUMPDEST SWAP2 POP POP PUSH2 0x3724 JUMP JUMPDEST POP DUP1 DUP8 PUSH2 0x37E3 SWAP2 SWAP1 PUSH2 0x4BB8 JUMP JUMPDEST SWAP7 POP PUSH1 0x1 DUP8 SWAP4 POP SWAP4 POP POP POP JUMPDEST SWAP4 POP SWAP4 SWAP2 POP POP JUMP JUMPDEST PUSH1 0x0 DUP1 PUSH1 0x0 DUP1 PUSH2 0x3807 DUP8 DUP8 PUSH2 0x4117 JUMP JUMPDEST DUP1 SWAP4 POP DUP2 SWAP10 POP DUP3 SWAP5 POP POP POP POP DUP2 PUSH2 0x3826 JUMPI PUSH1 0x0 DUP8 SWAP4 POP SWAP4 POP POP POP PUSH2 0x3974 JUMP JUMPDEST PUSH1 0x0 DUP2 PUSH8 0xFFFFFFFFFFFFFFFF AND EQ ISZERO PUSH2 0x3847 JUMPI PUSH1 0x0 DUP8 SWAP4 POP SWAP4 POP POP POP PUSH2 0x3974 JUMP JUMPDEST DUP1 PUSH8 0xFFFFFFFFFFFFFFFF AND PUSH8 0xFFFFFFFFFFFFFFFF DUP2 GT ISZERO PUSH2 0x386B JUMPI PUSH2 0x386A PUSH2 0x4F91 JUMP JUMPDEST JUMPDEST PUSH1 0x40 MLOAD SWAP1 DUP1 DUP3 MSTORE DUP1 PUSH1 0x1F ADD PUSH1 0x1F NOT AND PUSH1 0x20 ADD DUP3 ADD PUSH1 0x40 MSTORE DUP1 ISZERO PUSH2 0x389D JUMPI DUP2 PUSH1 0x20 ADD PUSH1 0x1 DUP3 MUL DUP1 CALLDATASIZE DUP4 CALLDATACOPY DUP1 DUP3 ADD SWAP2 POP POP SWAP1 POP JUMPDEST POP DUP6 PUSH1 0x0 ADD DUP2 SWAP1 MSTORE POP PUSH1 0x0 JUMPDEST DUP2 PUSH8 0xFFFFFFFFFFFFFFFF AND DUP2 PUSH8 0xFFFFFFFFFFFFFFFF AND LT ISZERO PUSH2 0x395B JUMPI DUP7 DUP2 DUP10 PUSH2 0x38D2 SWAP2 SWAP1 PUSH2 0x4BB8 JUMP JUMPDEST PUSH8 0xFFFFFFFFFFFFFFFF AND DUP2 MLOAD DUP2 LT PUSH2 0x38ED JUMPI PUSH2 0x38EC PUSH2 0x4F62 JUMP JUMPDEST JUMPDEST PUSH1 0x20 ADD ADD MLOAD PUSH1 0xF8 SHR PUSH1 0xF8 SHL DUP7 PUSH1 0x0 ADD MLOAD DUP3 PUSH8 0xFFFFFFFFFFFFFFFF AND DUP2 MLOAD DUP2 LT PUSH2 0x3919 JUMPI PUSH2 0x3918 PUSH2 0x4F62 JUMP JUMPDEST JUMPDEST PUSH1 0x20 ADD ADD SWAP1 PUSH31 0xFFFFFFFFFFFFFFFFFFFFFFFFFFFFFFFFFFFFFFFFFFFFFFFFFFFFFFFFFFFFFF NOT AND SWAP1 DUP2 PUSH1 0x0 BYTE SWAP1 MSTORE8 POP DUP1 DUP1 PUSH2 0x3953 SWAP1 PUSH2 0x4E75 JUMP JUMPDEST SWAP2 POP POP PUSH2 0x38A9 JUMP JUMPDEST POP DUP1 DUP8 PUSH2 0x3968 SWAP2 SWAP1 PUSH2 0x4BB8 JUMP JUMPDEST SWAP7 POP PUSH1 0x1 DUP8 SWAP4 POP SWAP4 POP POP POP JUMPDEST SWAP4 POP SWAP4 SWAP2 POP POP JUMP JUMPDEST PUSH1 0x0 DUP1 PUSH1 0x0 DUP1 PUSH2 0x398C DUP8 DUP8 PUSH2 0x4133 JUMP JUMPDEST DUP1 SWAP4 POP DUP2 SWAP10 POP DUP3 SWAP5 POP POP POP POP DUP2 PUSH2 0x39AB JUMPI PUSH1 0x0 DUP8 SWAP4 POP SWAP4 POP POP POP PUSH2 0x39F6 JUMP JUMPDEST PUSH1 0x0 DUP2 PUSH8 0xFFFFFFFFFFFFFFFF AND EQ ISZERO PUSH2 0x39CC JUMPI PUSH1 0x0 DUP8 SWAP4 POP SWAP4 POP POP POP PUSH2 0x39F6 JUMP JUMPDEST DUP1 DUP6 PUSH1 0x20 ADD SWAP1 PUSH8 0xFFFFFFFFFFFFFFFF AND SWAP1 DUP2 PUSH8 0xFFFFFFFFFFFFFFFF AND DUP2 MSTORE POP POP PUSH1 0x1 DUP8 SWAP4 POP SWAP4 POP POP POP JUMPDEST SWAP4 POP SWAP4 SWAP2 POP POP JUMP JUMPDEST PUSH1 0x0 DUP1 PUSH1 0x0 DUP1 PUSH2 0x3A0E DUP8 DUP8 PUSH2 0x4117 JUMP JUMPDEST DUP1 SWAP4 POP DUP2 SWAP10 POP DUP3 SWAP5 POP POP POP POP DUP2 PUSH2 0x3A2D JUMPI PUSH1 0x0 DUP8 SWAP4 POP SWAP4 POP POP POP PUSH2 0x3B7B JUMP JUMPDEST PUSH1 0x0 DUP2 PUSH8 0xFFFFFFFFFFFFFFFF AND EQ ISZERO PUSH2 0x3A4E JUMPI PUSH1 0x0 DUP8 SWAP4 POP SWAP4 POP POP POP PUSH2 0x3B7B JUMP JUMPDEST DUP1 PUSH8 0xFFFFFFFFFFFFFFFF AND PUSH8 0xFFFFFFFFFFFFFFFF DUP2 GT ISZERO PUSH2 0x3A72 JUMPI PUSH2 0x3A71 PUSH2 0x4F91 JUMP JUMPDEST JUMPDEST PUSH1 0x40 MLOAD SWAP1 DUP1 DUP3 MSTORE DUP1 PUSH1 0x1F ADD PUSH1 0x1F NOT AND PUSH1 0x20 ADD DUP3 ADD PUSH1 0x40 MSTORE DUP1 ISZERO PUSH2 0x3AA4 JUMPI DUP2 PUSH1 0x20 ADD PUSH1 0x1 DUP3 MUL DUP1 CALLDATASIZE DUP4 CALLDATACOPY DUP1 DUP3 ADD SWAP2 POP POP SWAP1 POP JUMPDEST POP DUP6 PUSH1 0x40 ADD DUP2 SWAP1 MSTORE POP PUSH1 0x0 JUMPDEST DUP2 PUSH8 0xFFFFFFFFFFFFFFFF AND DUP2 PUSH8 0xFFFFFFFFFFFFFFFF AND LT ISZERO PUSH2 0x3B62 JUMPI DUP7 DUP2 DUP10 PUSH2 0x3AD9 SWAP2 SWAP1 PUSH2 0x4BB8 JUMP JUMPDEST PUSH8 0xFFFFFFFFFFFFFFFF AND DUP2 MLOAD DUP2 LT PUSH2 0x3AF4 JUMPI PUSH2 0x3AF3 PUSH2 0x4F62 JUMP JUMPDEST JUMPDEST PUSH1 0x20 ADD ADD MLOAD PUSH1 0xF8 SHR PUSH1 0xF8 SHL DUP7 PUSH1 0x40 ADD MLOAD DUP3 PUSH8 0xFFFFFFFFFFFFFFFF AND DUP2 MLOAD DUP2 LT PUSH2 0x3B20 JUMPI PUSH2 0x3B1F PUSH2 0x4F62 JUMP JUMPDEST JUMPDEST PUSH1 0x20 ADD ADD SWAP1 PUSH31 0xFFFFFFFFFFFFFFFFFFFFFFFFFFFFFFFFFFFFFFFFFFFFFFFFFFFFFFFFFFFFFF NOT AND SWAP1 DUP2 PUSH1 0x0 BYTE SWAP1 MSTORE8 POP DUP1 DUP1 PUSH2 0x3B5A SWAP1 PUSH2 0x4E75 JUMP JUMPDEST SWAP2 POP POP PUSH2 0x3AB0 JUMP JUMPDEST POP DUP1 DUP8 PUSH2 0x3B6F SWAP2 SWAP1 PUSH2 0x4BB8 JUMP JUMPDEST SWAP7 POP PUSH1 0x1 DUP8 SWAP4 POP SWAP4 POP POP POP JUMPDEST SWAP4 POP SWAP4 SWAP2 POP POP JUMP JUMPDEST PUSH1 0x0 DUP1 PUSH1 0x0 DUP1 PUSH2 0x3B93 DUP8 DUP8 PUSH2 0x4133 JUMP JUMPDEST DUP1 SWAP4 POP DUP2 SWAP10 POP DUP3 SWAP5 POP POP POP POP DUP2 PUSH2 0x3BB2 JUMPI PUSH1 0x0 DUP8 SWAP4 POP SWAP4 POP POP POP PUSH2 0x3BFD JUMP JUMPDEST PUSH1 0x0 DUP2 PUSH8 0xFFFFFFFFFFFFFFFF AND EQ ISZERO PUSH2 0x3BD3 JUMPI PUSH1 0x0 DUP8 SWAP4 POP SWAP4 POP POP POP PUSH2 0x3BFD JUMP JUMPDEST DUP1 DUP6 PUSH1 0x0 ADD SWAP1 PUSH8 0xFFFFFFFFFFFFFFFF AND SWAP1 DUP2 PUSH8 0xFFFFFFFFFFFFFFFF AND DUP2 MSTORE POP POP PUSH1 0x1 DUP8 SWAP4 POP SWAP4 POP POP POP JUMPDEST SWAP4 POP SWAP4 SWAP2 POP POP JUMP JUMPDEST PUSH1 0x0 DUP1 PUSH1 0x0 DUP1 PUSH2 0x3C15 DUP8 DUP8 PUSH2 0x4133 JUMP JUMPDEST DUP1 SWAP4 POP DUP2 SWAP10 POP DUP3 SWAP5 POP POP POP POP DUP2 PUSH2 0x3C34 JUMPI PUSH1 0x0 DUP8 SWAP4 POP SWAP4 POP POP POP PUSH2 0x3C7F JUMP JUMPDEST PUSH1 0x0 DUP2 PUSH8 0xFFFFFFFFFFFFFFFF AND EQ ISZERO PUSH2 0x3C55 JUMPI PUSH1 0x0 DUP8 SWAP4 POP SWAP4 POP POP POP PUSH2 0x3C7F JUMP JUMPDEST DUP1 DUP6 PUSH1 0x20 ADD SWAP1 PUSH8 0xFFFFFFFFFFFFFFFF AND SWAP1 DUP2 PUSH8 0xFFFFFFFFFFFFFFFF AND DUP2 MSTORE POP POP PUSH1 0x1 DUP8 SWAP4 POP SWAP4 POP POP POP JUMPDEST SWAP4 POP SWAP4 SWAP2 POP POP JUMP JUMPDEST PUSH1 0x0 DUP1 PUSH1 0x0 DUP1 PUSH2 0x3C97 DUP8 DUP8 PUSH2 0x4117 JUMP JUMPDEST DUP1 SWAP4 POP DUP2 SWAP10 POP DUP3 SWAP5 POP POP POP POP DUP2 PUSH2 0x3CB6 JUMPI PUSH1 0x0 DUP8 SWAP4 POP SWAP4 POP POP POP PUSH2 0x3E04 JUMP JUMPDEST PUSH1 0x0 DUP2 PUSH8 0xFFFFFFFFFFFFFFFF AND EQ ISZERO PUSH2 0x3CD7 JUMPI PUSH1 0x0 DUP8 SWAP4 POP SWAP4 POP POP POP PUSH2 0x3E04 JUMP JUMPDEST DUP1 PUSH8 0xFFFFFFFFFFFFFFFF AND PUSH8 0xFFFFFFFFFFFFFFFF DUP2 GT ISZERO PUSH2 0x3CFB JUMPI PUSH2 0x3CFA PUSH2 0x4F91 JUMP JUMPDEST JUMPDEST PUSH1 0x40 MLOAD SWAP1 DUP1 DUP3 MSTORE DUP1 PUSH1 0x1F ADD PUSH1 0x1F NOT AND PUSH1 0x20 ADD DUP3 ADD PUSH1 0x40 MSTORE DUP1 ISZERO PUSH2 0x3D2D JUMPI DUP2 PUSH1 0x20 ADD PUSH1 0x1 DUP3 MUL DUP1 CALLDATASIZE DUP4 CALLDATACOPY DUP1 DUP3 ADD SWAP2 POP POP SWAP1 POP JUMPDEST POP DUP6 PUSH1 0x40 ADD DUP2 SWAP1 MSTORE POP PUSH1 0x0 JUMPDEST DUP2 PUSH8 0xFFFFFFFFFFFFFFFF AND DUP2 PUSH8 0xFFFFFFFFFFFFFFFF AND LT ISZERO PUSH2 0x3DEB JUMPI DUP7 DUP2 DUP10 PUSH2 0x3D62 SWAP2 SWAP1 PUSH2 0x4BB8 JUMP JUMPDEST PUSH8 0xFFFFFFFFFFFFFFFF AND DUP2 MLOAD DUP2 LT PUSH2 0x3D7D JUMPI PUSH2 0x3D7C PUSH2 0x4F62 JUMP JUMPDEST JUMPDEST PUSH1 0x20 ADD ADD MLOAD PUSH1 0xF8 SHR PUSH1 0xF8 SHL DUP7 PUSH1 0x40 ADD MLOAD DUP3 PUSH8 0xFFFFFFFFFFFFFFFF AND DUP2 MLOAD DUP2 LT PUSH2 0x3DA9 JUMPI PUSH2 0x3DA8 PUSH2 0x4F62 JUMP JUMPDEST JUMPDEST PUSH1 0x20 ADD ADD SWAP1 PUSH31 0xFFFFFFFFFFFFFFFFFFFFFFFFFFFFFFFFFFFFFFFFFFFFFFFFFFFFFFFFFFFFFF NOT AND SWAP1 DUP2 PUSH1 0x0 BYTE SWAP1 MSTORE8 POP DUP1 DUP1 PUSH2 0x3DE3 SWAP1 PUSH2 0x4E75 JUMP JUMPDEST SWAP2 POP POP PUSH2 0x3D39 JUMP JUMPDEST POP DUP1 DUP8 PUSH2 0x3DF8 SWAP2 SWAP1 PUSH2 0x4BB8 JUMP JUMPDEST SWAP7 POP PUSH1 0x1 DUP8 SWAP4 POP SWAP4 POP POP POP JUMPDEST SWAP4 POP SWAP4 SWAP2 POP POP JUMP JUMPDEST PUSH1 0x0 DUP1 PUSH1 0x0 DUP1 PUSH2 0x3E1C DUP8 DUP8 PUSH2 0x4133 JUMP JUMPDEST DUP1 SWAP4 POP DUP2 SWAP10 POP DUP3 SWAP5 POP POP POP POP DUP2 PUSH2 0x3E3B JUMPI PUSH1 0x0 DUP8 SWAP4 POP SWAP4 POP POP POP PUSH2 0x3E86 JUMP JUMPDEST PUSH1 0x0 DUP2 PUSH8 0xFFFFFFFFFFFFFFFF AND EQ ISZERO PUSH2 0x3E5C JUMPI PUSH1 0x0 DUP8 SWAP4 POP SWAP4 POP POP POP PUSH2 0x3E86 JUMP JUMPDEST DUP1 DUP6 PUSH1 0x0 ADD SWAP1 PUSH8 0xFFFFFFFFFFFFFFFF AND SWAP1 DUP2 PUSH8 0xFFFFFFFFFFFFFFFF AND DUP2 MSTORE POP POP PUSH1 0x1 DUP8 SWAP4 POP SWAP4 POP POP POP JUMPDEST SWAP4 POP SWAP4 SWAP2 POP POP JUMP JUMPDEST PUSH1 0x0 DUP1 PUSH1 0x0 DUP1 PUSH2 0x3E9E DUP8 DUP8 PUSH2 0x4133 JUMP JUMPDEST DUP1 SWAP4 POP DUP2 SWAP10 POP DUP3 SWAP5 POP POP POP POP DUP2 PUSH2 0x3EBD JUMPI PUSH1 0x0 DUP8 SWAP4 POP SWAP4 POP POP POP PUSH2 0x3F08 JUMP JUMPDEST PUSH1 0x0 DUP2 PUSH8 0xFFFFFFFFFFFFFFFF AND EQ ISZERO PUSH2 0x3EDE JUMPI PUSH1 0x0 DUP8 SWAP4 POP SWAP4 POP POP POP PUSH2 0x3F08 JUMP JUMPDEST DUP1 DUP6 PUSH1 0x20 ADD SWAP1 PUSH8 0xFFFFFFFFFFFFFFFF AND SWAP1 DUP2 PUSH8 0xFFFFFFFFFFFFFFFF AND DUP2 MSTORE POP POP PUSH1 0x1 DUP8 SWAP4 POP SWAP4 POP POP POP JUMPDEST SWAP4 POP SWAP4 SWAP2 POP POP JUMP JUMPDEST PUSH1 0x0 DUP1 PUSH1 0x0 DUP1 PUSH2 0x3F20 DUP8 DUP8 PUSH2 0x4133 JUMP JUMPDEST DUP1 SWAP4 POP DUP2 SWAP10 POP DUP3 SWAP5 POP POP POP POP DUP2 PUSH2 0x3F3F JUMPI PUSH1 0x0 DUP8 SWAP4 POP SWAP4 POP POP POP PUSH2 0x3F8A JUMP JUMPDEST PUSH1 0x0 DUP2 PUSH8 0xFFFFFFFFFFFFFFFF AND EQ ISZERO PUSH2 0x3F60 JUMPI PUSH1 0x0 DUP8 SWAP4 POP SWAP4 POP POP POP PUSH2 0x3F8A JUMP JUMPDEST DUP1 DUP6 PUSH1 0x40 ADD SWAP1 PUSH8 0xFFFFFFFFFFFFFFFF AND SWAP1 DUP2 PUSH8 0xFFFFFFFFFFFFFFFF AND DUP2 MSTORE POP POP PUSH1 0x1 DUP8 SWAP4 POP SWAP4 POP POP POP JUMPDEST SWAP4 POP SWAP4 SWAP2 POP POP JUMP JUMPDEST PUSH1 0x0 DUP1 PUSH1 0x0 DUP1 PUSH2 0x3FA2 DUP8 DUP8 PUSH2 0x4117 JUMP JUMPDEST DUP1 SWAP4 POP DUP2 SWAP10 POP DUP3 SWAP5 POP POP POP POP DUP2 PUSH2 0x3FC1 JUMPI PUSH1 0x0 DUP8 SWAP4 POP SWAP4 POP POP POP PUSH2 0x410F JUMP JUMPDEST PUSH1 0x0 DUP2 PUSH8 0xFFFFFFFFFFFFFFFF AND EQ ISZERO PUSH2 0x3FE2 JUMPI PUSH1 0x0 DUP8 SWAP4 POP SWAP4 POP POP POP PUSH2 0x410F JUMP JUMPDEST DUP1 PUSH8 0xFFFFFFFFFFFFFFFF AND PUSH8 0xFFFFFFFFFFFFFFFF DUP2 GT ISZERO PUSH2 0x4006 JUMPI PUSH2 0x4005 PUSH2 0x4F91 JUMP JUMPDEST JUMPDEST PUSH1 0x40 MLOAD SWAP1 DUP1 DUP3 MSTORE DUP1 PUSH1 0x1F ADD PUSH1 0x1F NOT AND PUSH1 0x20 ADD DUP3 ADD PUSH1 0x40 MSTORE DUP1 ISZERO PUSH2 0x4038 JUMPI DUP2 PUSH1 0x20 ADD PUSH1 0x1 DUP3 MUL DUP1 CALLDATASIZE DUP4 CALLDATACOPY DUP1 DUP3 ADD SWAP2 POP POP SWAP1 POP JUMPDEST POP DUP6 PUSH1 0x60 ADD DUP2 SWAP1 MSTORE POP PUSH1 0x0 JUMPDEST DUP2 PUSH8 0xFFFFFFFFFFFFFFFF AND DUP2 PUSH8 0xFFFFFFFFFFFFFFFF AND LT ISZERO PUSH2 0x40F6 JUMPI DUP7 DUP2 DUP10 PUSH2 0x406D SWAP2 SWAP1 PUSH2 0x4BB8 JUMP JUMPDEST PUSH8 0xFFFFFFFFFFFFFFFF AND DUP2 MLOAD DUP2 LT PUSH2 0x4088 JUMPI PUSH2 0x4087 PUSH2 0x4F62 JUMP JUMPDEST JUMPDEST PUSH1 0x20 ADD ADD MLOAD PUSH1 0xF8 SHR PUSH1 0xF8 SHL DUP7 PUSH1 0x60 ADD MLOAD DUP3 PUSH8 0xFFFFFFFFFFFFFFFF AND DUP2 MLOAD DUP2 LT PUSH2 0x40B4 JUMPI PUSH2 0x40B3 PUSH2 0x4F62 JUMP JUMPDEST JUMPDEST PUSH1 0x20 ADD ADD SWAP1 PUSH31 0xFFFFFFFFFFFFFFFFFFFFFFFFFFFFFFFFFFFFFFFFFFFFFFFFFFFFFFFFFFFFFF NOT AND SWAP1 DUP2 PUSH1 0x0 BYTE SWAP1 MSTORE8 POP DUP1 DUP1 PUSH2 0x40EE SWAP1 PUSH2 0x4E75 JUMP JUMPDEST SWAP2 POP POP PUSH2 0x4044 JUMP JUMPDEST POP DUP1 DUP8 PUSH2 0x4103 SWAP2 SWAP1 PUSH2 0x4BB8 JUMP JUMPDEST SWAP7 POP PUSH1 0x1 DUP8 SWAP4 POP SWAP4 POP POP POP JUMPDEST SWAP4 POP SWAP4 SWAP2 POP POP JUMP JUMPDEST PUSH1 0x0 DUP1 PUSH1 0x0 PUSH2 0x4126 DUP6 DUP6 PUSH2 0x4179 JUMP JUMPDEST SWAP3 POP SWAP3 POP SWAP3 POP SWAP3 POP SWAP3 POP SWAP3 JUMP JUMPDEST PUSH1 0x0 DUP1 PUSH1 0x0 DUP1 PUSH1 0x0 DUP1 PUSH2 0x4146 DUP9 DUP9 PUSH2 0x2CE0 JUMP JUMPDEST SWAP3 POP SWAP3 POP SWAP3 POP DUP3 PUSH2 0x4164 JUMPI PUSH1 0x0 DUP3 PUSH1 0x0 SWAP6 POP SWAP6 POP SWAP6 POP POP POP POP PUSH2 0x4172 JUMP JUMPDEST PUSH1 0x1 DUP3 DUP3 SWAP6 POP SWAP6 POP SWAP6 POP POP POP POP JUMPDEST SWAP3 POP SWAP3 POP SWAP3 JUMP JUMPDEST PUSH1 0x0 DUP1 PUSH1 0x0 DUP1 PUSH1 0x0 DUP1 PUSH2 0x418C DUP9 DUP9 PUSH2 0x2CE0 JUMP JUMPDEST SWAP3 POP SWAP3 POP SWAP3 POP DUP3 PUSH2 0x41AA JUMPI PUSH1 0x0 DUP3 PUSH1 0x0 SWAP6 POP SWAP6 POP SWAP6 POP POP POP POP PUSH2 0x421A JUMP JUMPDEST DUP2 PUSH8 0xFFFFFFFFFFFFFFFF AND DUP2 DUP4 ADD PUSH8 0xFFFFFFFFFFFFFFFF AND LT ISZERO PUSH2 0x41DB JUMPI PUSH1 0x0 DUP3 PUSH1 0x0 SWAP6 POP SWAP6 POP SWAP6 POP POP POP POP PUSH2 0x421A JUMP JUMPDEST DUP7 MLOAD DUP3 DUP3 PUSH2 0x41E9 SWAP2 SWAP1 PUSH2 0x4BB8 JUMP JUMPDEST PUSH8 0xFFFFFFFFFFFFFFFF AND GT ISZERO PUSH2 0x420C JUMPI PUSH1 0x0 DUP3 PUSH1 0x0 SWAP6 POP SWAP6 POP SWAP6 POP POP POP POP PUSH2 0x421A JUMP JUMPDEST PUSH1 0x1 DUP3 DUP3 SWAP6 POP SWAP6 POP SWAP6 POP POP POP POP JUMPDEST SWAP3 POP SWAP3 POP SWAP3 JUMP JUMPDEST POP DUP1 SLOAD PUSH1 0x0 DUP3 SSTORE SWAP1 PUSH1 0x0 MSTORE PUSH1 0x20 PUSH1 0x0 KECCAK256 SWAP1 DUP2 ADD SWAP1 PUSH2 0x423F SWAP2 SWAP1 PUSH2 0x4462 JUMP JUMPDEST POP JUMP JUMPDEST DUP3 DUP1 SLOAD PUSH2 0x424E SWAP1 PUSH2 0x4DC9 JUMP JUMPDEST SWAP1 PUSH1 0x0 MSTORE PUSH1 0x20 PUSH1 0x0 KECCAK256 SWAP1 PUSH1 0x1F ADD PUSH1 0x20 SWAP1 DIV DUP2 ADD SWAP3 DUP3 PUSH2 0x4270 JUMPI PUSH1 0x0 DUP6 SSTORE PUSH2 0x42B7 JUMP JUMPDEST DUP3 PUSH1 0x1F LT PUSH2 0x4289 JUMPI DUP1 MLOAD PUSH1 0xFF NOT AND DUP4 DUP1 ADD OR DUP6 SSTORE PUSH2 0x42B7 JUMP JUMPDEST DUP3 DUP1 ADD PUSH1 0x1 ADD DUP6 SSTORE DUP3 ISZERO PUSH2 0x42B7 JUMPI SWAP2 DUP3 ADD JUMPDEST DUP3 DUP2 GT ISZERO PUSH2 0x42B6 JUMPI DUP3 MLOAD DUP3 SSTORE SWAP2 PUSH1 0x20 ADD SWAP2 SWAP1 PUSH1 0x1 ADD SWAP1 PUSH2 0x429B JUMP JUMPDEST JUMPDEST POP SWAP1 POP PUSH2 0x42C4 SWAP2 SWAP1 PUSH2 0x4462 JUMP JUMPDEST POP SWAP1 JUMP JUMPDEST PUSH1 0x40 MLOAD DUP1 PUSH1 0xA0 ADD PUSH1 0x40 MSTORE DUP1 PUSH1 0x60 DUP2 MSTORE PUSH1 0x20 ADD PUSH1 0x60 DUP2 MSTORE PUSH1 0x20 ADD PUSH1 0x0 PUSH8 0xFFFFFFFFFFFFFFFF AND DUP2 MSTORE PUSH1 0x20 ADD PUSH1 0x0 PUSH8 0xFFFFFFFFFFFFFFFF AND DUP2 MSTORE PUSH1 0x20 ADD PUSH1 0x60 DUP2 MSTORE POP SWAP1 JUMP JUMPDEST DUP3 DUP1 SLOAD PUSH2 0x4317 SWAP1 PUSH2 0x4DC9 JUMP JUMPDEST SWAP1 PUSH1 0x0 MSTORE PUSH1 0x20 PUSH1 0x0 KECCAK256 SWAP1 PUSH1 0x1F ADD PUSH1 0x20 SWAP1 DIV DUP2 ADD SWAP3 DUP3 PUSH2 0x4339 JUMPI PUSH1 0x0 DUP6 SSTORE PUSH2 0x4380 JUMP JUMPDEST DUP3 PUSH1 0x1F LT PUSH2 0x4352 JUMPI DUP1 MLOAD PUSH1 0xFF NOT AND DUP4 DUP1 ADD OR DUP6 SSTORE PUSH2 0x4380 JUMP JUMPDEST DUP3 DUP1 ADD PUSH1 0x1 ADD DUP6 SSTORE DUP3 ISZERO PUSH2 0x4380 JUMPI SWAP2 DUP3 ADD JUMPDEST DUP3 DUP2 GT ISZERO PUSH2 0x437F JUMPI DUP3 MLOAD DUP3 SSTORE SWAP2 PUSH1 0x20 ADD SWAP2 SWAP1 PUSH1 0x1 ADD SWAP1 PUSH2 0x4364 JUMP JUMPDEST JUMPDEST POP SWAP1 POP PUSH2 0x438D SWAP2 SWAP1 PUSH2 0x4462 JUMP JUMPDEST POP SWAP1 JUMP JUMPDEST PUSH1 0x40 MLOAD DUP1 PUSH1 0x60 ADD PUSH1 0x40 MSTORE DUP1 PUSH1 0x60 DUP2 MSTORE PUSH1 0x20 ADD PUSH1 0x0 PUSH8 0xFFFFFFFFFFFFFFFF AND DUP2 MSTORE PUSH1 0x20 ADD PUSH1 0x60 DUP2 MSTORE POP SWAP1 JUMP JUMPDEST PUSH1 0x40 MLOAD DUP1 PUSH1 0x60 ADD PUSH1 0x40 MSTORE DUP1 PUSH1 0x60 DUP2 MSTORE PUSH1 0x20 ADD PUSH1 0x0 PUSH8 0xFFFFFFFFFFFFFFFF AND DUP2 MSTORE PUSH1 0x20 ADD PUSH1 0x60 DUP2 MSTORE POP SWAP1 JUMP JUMPDEST PUSH1 0x40 MLOAD DUP1 PUSH1 0x60 ADD PUSH1 0x40 MSTORE DUP1 PUSH1 0x0 PUSH8 0xFFFFFFFFFFFFFFFF AND DUP2 MSTORE PUSH1 0x20 ADD PUSH1 0x0 PUSH8 0xFFFFFFFFFFFFFFFF AND DUP2 MSTORE PUSH1 0x20 ADD PUSH1 0x60 DUP2 MSTORE POP SWAP1 JUMP JUMPDEST PUSH1 0x40 MLOAD DUP1 PUSH1 0x80 ADD PUSH1 0x40 MSTORE DUP1 PUSH1 0x0 PUSH8 0xFFFFFFFFFFFFFFFF AND DUP2 MSTORE PUSH1 0x20 ADD PUSH1 0x0 PUSH8 0xFFFFFFFFFFFFFFFF AND DUP2 MSTORE PUSH1 0x20 ADD PUSH1 0x0 PUSH8 0xFFFFFFFFFFFFFFFF AND DUP2 MSTORE PUSH1 0x20 ADD PUSH1 0x60 DUP2 MSTORE POP SWAP1 JUMP JUMPDEST JUMPDEST DUP1 DUP3 GT ISZERO PUSH2 0x447B JUMPI PUSH1 0x0 DUP2 PUSH1 0x0 SWAP1 SSTORE POP PUSH1 0x1 ADD PUSH2 0x4463 JUMP JUMPDEST POP SWAP1 JUMP JUMPDEST PUSH1 0x0 PUSH2 0x4492 PUSH2 0x448D DUP5 PUSH2 0x4AF9 JUMP JUMPDEST PUSH2 0x4AD4 JUMP JUMPDEST SWAP1 POP DUP3 DUP2 MSTORE PUSH1 0x20 DUP2 ADD DUP5 DUP5 DUP5 ADD GT ISZERO PUSH2 0x44AE JUMPI PUSH2 0x44AD PUSH2 0x4FCF JUMP JUMPDEST JUMPDEST PUSH2 0x44B9 DUP5 DUP3 DUP6 PUSH2 0x4D87 JUMP JUMPDEST POP SWAP4 SWAP3 POP POP POP JUMP JUMPDEST PUSH1 0x0 DUP2 CALLDATALOAD SWAP1 POP PUSH2 0x44D0 DUP2 PUSH2 0x5331 JUMP JUMPDEST SWAP3 SWAP2 POP POP JUMP JUMPDEST PUSH1 0x0 DUP3 PUSH1 0x1F DUP4 ADD SLT PUSH2 0x44EB JUMPI PUSH2 0x44EA PUSH2 0x4FC0 JUMP JUMPDEST JUMPDEST DUP2 CALLDATALOAD PUSH2 0x44FB DUP5 DUP3 PUSH1 0x20 DUP7 ADD PUSH2 0x447F JUMP JUMPDEST SWAP2 POP POP SWAP3 SWAP2 POP POP JUMP JUMPDEST PUSH1 0x0 DUP2 CALLDATALOAD SWAP1 POP PUSH2 0x4513 DUP2 PUSH2 0x5348 JUMP JUMPDEST SWAP3 SWAP2 POP POP JUMP JUMPDEST PUSH1 0x0 PUSH1 0x60 DUP3 DUP5 SUB SLT ISZERO PUSH2 0x452F JUMPI PUSH2 0x452E PUSH2 0x4FC5 JUMP JUMPDEST JUMPDEST PUSH2 0x4539 PUSH1 0x60 PUSH2 0x4AD4 JUMP JUMPDEST SWAP1 POP PUSH1 0x0 PUSH2 0x4549 DUP5 DUP3 DUP6 ADD PUSH2 0x45AE JUMP JUMPDEST PUSH1 0x0 DUP4 ADD MSTORE POP PUSH1 0x20 PUSH2 0x455D DUP5 DUP3 DUP6 ADD PUSH2 0x4504 JUMP JUMPDEST PUSH1 0x20 DUP4 ADD MSTORE POP PUSH1 0x40 DUP3 ADD CALLDATALOAD PUSH8 0xFFFFFFFFFFFFFFFF DUP2 GT ISZERO PUSH2 0x4581 JUMPI PUSH2 0x4580 PUSH2 0x4FCA JUMP JUMPDEST JUMPDEST PUSH2 0x458D DUP5 DUP3 DUP6 ADD PUSH2 0x44D6 JUMP JUMPDEST PUSH1 0x40 DUP4 ADD MSTORE POP SWAP3 SWAP2 POP POP JUMP JUMPDEST PUSH1 0x0 DUP2 CALLDATALOAD SWAP1 POP PUSH2 0x45A8 DUP2 PUSH2 0x5358 JUMP JUMPDEST SWAP3 SWAP2 POP POP JUMP JUMPDEST PUSH1 0x0 DUP2 CALLDATALOAD SWAP1 POP PUSH2 0x45BD DUP2 PUSH2 0x536F JUMP JUMPDEST SWAP3 SWAP2 POP POP JUMP JUMPDEST PUSH1 0x0 PUSH1 0x20 DUP3 DUP5 SUB SLT ISZERO PUSH2 0x45D9 JUMPI PUSH2 0x45D8 PUSH2 0x4FD9 JUMP JUMPDEST JUMPDEST PUSH1 0x0 PUSH2 0x45E7 DUP5 DUP3 DUP6 ADD PUSH2 0x44C1 JUMP JUMPDEST SWAP2 POP POP SWAP3 SWAP2 POP POP JUMP JUMPDEST PUSH1 0x0 PUSH1 0x20 DUP3 DUP5 SUB SLT ISZERO PUSH2 0x4606 JUMPI PUSH2 0x4605 PUSH2 0x4FD9 JUMP JUMPDEST JUMPDEST PUSH1 0x0 DUP3 ADD CALLDATALOAD PUSH8 0xFFFFFFFFFFFFFFFF DUP2 GT ISZERO PUSH2 0x4624 JUMPI PUSH2 0x4623 PUSH2 0x4FD4 JUMP JUMPDEST JUMPDEST PUSH2 0x4630 DUP5 DUP3 DUP6 ADD PUSH2 0x4519 JUMP JUMPDEST SWAP2 POP POP SWAP3 SWAP2 POP POP JUMP JUMPDEST PUSH1 0x0 PUSH1 0x20 DUP3 DUP5 SUB SLT ISZERO PUSH2 0x464F JUMPI PUSH2 0x464E PUSH2 0x4FD9 JUMP JUMPDEST JUMPDEST PUSH1 0x0 PUSH2 0x465D DUP5 DUP3 DUP6 ADD PUSH2 0x4599 JUMP JUMPDEST SWAP2 POP POP SWAP3 SWAP2 POP POP JUMP JUMPDEST PUSH2 0x466F DUP2 PUSH2 0x4D2B JUMP JUMPDEST DUP3 MSTORE POP POP JUMP JUMPDEST PUSH2 0x467E DUP2 PUSH2 0x4D3D JUMP JUMPDEST DUP3 MSTORE POP POP JUMP JUMPDEST PUSH1 0x0 PUSH2 0x468F DUP3 PUSH2 0x4B2A JUMP JUMPDEST PUSH2 0x4699 DUP2 DUP6 PUSH2 0x4B35 JUMP JUMPDEST SWAP4 POP PUSH2 0x46A9 DUP2 DUP6 PUSH1 0x20 DUP7 ADD PUSH2 0x4D96 JUMP JUMPDEST PUSH2 0x46B2 DUP2 PUSH2 0x4FDE JUMP JUMPDEST DUP5 ADD SWAP2 POP POP SWAP3 SWAP2 POP POP JUMP JUMPDEST PUSH1 0x0 PUSH2 0x46C8 DUP3 PUSH2 0x4B2A JUMP JUMPDEST PUSH2 0x46D2 DUP2 DUP6 PUSH2 0x4B46 JUMP JUMPDEST SWAP4 POP PUSH2 0x46E2 DUP2 DUP6 PUSH1 0x20 DUP7 ADD PUSH2 0x4D96 JUMP JUMPDEST DUP1 DUP5 ADD SWAP2 POP POP SWAP3 SWAP2 POP POP JUMP JUMPDEST PUSH1 0x0 PUSH2 0x46FB PUSH1 0x26 DUP4 PUSH2 0x4B51 JUMP JUMPDEST SWAP2 POP PUSH2 0x4706 DUP3 PUSH2 0x4FEF JUMP JUMPDEST PUSH1 0x40 DUP3 ADD SWAP1 POP SWAP2 SWAP1 POP JUMP JUMPDEST PUSH1 0x0 PUSH2 0x471E PUSH1 0x2C DUP4 PUSH2 0x4B51 JUMP JUMPDEST SWAP2 POP PUSH2 0x4729 DUP3 PUSH2 0x503E JUMP JUMPDEST PUSH1 0x40 DUP3 ADD SWAP1 POP SWAP2 SWAP1 POP JUMP JUMPDEST PUSH1 0x0 PUSH2 0x4741 PUSH1 0x2C DUP4 PUSH2 0x4B51 JUMP JUMPDEST SWAP2 POP PUSH2 0x474C DUP3 PUSH2 0x508D JUMP JUMPDEST PUSH1 0x40 DUP3 ADD SWAP1 POP SWAP2 SWAP1 POP JUMP JUMPDEST PUSH1 0x0 PUSH2 0x4764 PUSH1 0x16 DUP4 PUSH2 0x4B51 JUMP JUMPDEST SWAP2 POP PUSH2 0x476F DUP3 PUSH2 0x50DC JUMP JUMPDEST PUSH1 0x20 DUP3 ADD SWAP1 POP SWAP2 SWAP1 POP JUMP JUMPDEST PUSH1 0x0 PUSH2 0x4787 PUSH1 0x31 DUP4 PUSH2 0x4B51 JUMP JUMPDEST SWAP2 POP PUSH2 0x4792 DUP3 PUSH2 0x5105 JUMP JUMPDEST PUSH1 0x40 DUP3 ADD SWAP1 POP SWAP2 SWAP1 POP JUMP JUMPDEST PUSH1 0x0 PUSH2 0x47AA PUSH1 0x2C DUP4 PUSH2 0x4B51 JUMP JUMPDEST SWAP2 POP PUSH2 0x47B5 DUP3 PUSH2 0x5154 JUMP JUMPDEST PUSH1 0x40 DUP3 ADD SWAP1 POP SWAP2 SWAP1 POP JUMP JUMPDEST PUSH1 0x0 PUSH2 0x47CD PUSH1 0x20 DUP4 PUSH2 0x4B51 JUMP JUMPDEST SWAP2 POP PUSH2 0x47D8 DUP3 PUSH2 0x51A3 JUMP JUMPDEST PUSH1 0x20 DUP3 ADD SWAP1 POP SWAP2 SWAP1 POP JUMP JUMPDEST PUSH1 0x0 PUSH2 0x47F0 PUSH1 0x24 DUP4 PUSH2 0x4B51 JUMP JUMPDEST SWAP2 POP PUSH2 0x47FB DUP3 PUSH2 0x51CC JUMP JUMPDEST PUSH1 0x40 DUP3 ADD SWAP1 POP SWAP2 SWAP1 POP JUMP JUMPDEST PUSH1 0x0 PUSH2 0x4813 PUSH1 0x28 DUP4 PUSH2 0x4B51 JUMP JUMPDEST SWAP2 POP PUSH2 0x481E DUP3 PUSH2 0x521B JUMP JUMPDEST PUSH1 0x40 DUP3 ADD SWAP1 POP SWAP2 SWAP1 POP JUMP JUMPDEST PUSH1 0x0 PUSH2 0x4836 PUSH1 0x2A DUP4 PUSH2 0x4B51 JUMP JUMPDEST SWAP2 POP PUSH2 0x4841 DUP3 PUSH2 0x526A JUMP JUMPDEST PUSH1 0x40 DUP3 ADD SWAP1 POP SWAP2 SWAP1 POP JUMP JUMPDEST PUSH1 0x0 PUSH2 0x4859 PUSH1 0x14 DUP4 PUSH2 0x4B51 JUMP JUMPDEST SWAP2 POP PUSH2 0x4864 DUP3 PUSH2 0x52B9 JUMP JUMPDEST PUSH1 0x20 DUP3 ADD SWAP1 POP SWAP2 SWAP1 POP JUMP JUMPDEST PUSH1 0x0 PUSH2 0x487C PUSH1 0x2E DUP4 PUSH2 0x4B51 JUMP JUMPDEST SWAP2 POP PUSH2 0x4887 DUP3 PUSH2 0x52E2 JUMP JUMPDEST PUSH1 0x40 DUP3 ADD SWAP1 POP SWAP2 SWAP1 POP JUMP JUMPDEST PUSH2 0x489B DUP2 PUSH2 0x4D69 JUMP JUMPDEST DUP3 MSTORE POP POP JUMP JUMPDEST PUSH1 0x0 PUSH2 0x48AD DUP3 DUP5 PUSH2 0x46BD JUMP JUMPDEST SWAP2 POP DUP2 SWAP1 POP SWAP3 SWAP2 POP POP JUMP JUMPDEST PUSH1 0x0 PUSH1 0x20 DUP3 ADD SWAP1 POP PUSH2 0x48CD PUSH1 0x0 DUP4 ADD DUP5 PUSH2 0x4666 JUMP JUMPDEST SWAP3 SWAP2 POP POP JUMP JUMPDEST PUSH1 0x0 PUSH1 0x20 DUP3 ADD SWAP1 POP PUSH2 0x48E8 PUSH1 0x0 DUP4 ADD DUP5 PUSH2 0x4675 JUMP JUMPDEST SWAP3 SWAP2 POP POP JUMP JUMPDEST PUSH1 0x0 PUSH1 0x20 DUP3 ADD SWAP1 POP DUP2 DUP2 SUB PUSH1 0x0 DUP4 ADD MSTORE PUSH2 0x4908 DUP2 DUP5 PUSH2 0x4684 JUMP JUMPDEST SWAP1 POP SWAP3 SWAP2 POP POP JUMP JUMPDEST PUSH1 0x0 PUSH1 0x20 DUP3 ADD SWAP1 POP DUP2 DUP2 SUB PUSH1 0x0 DUP4 ADD MSTORE PUSH2 0x4929 DUP2 PUSH2 0x46EE JUMP JUMPDEST SWAP1 POP SWAP2 SWAP1 POP JUMP JUMPDEST PUSH1 0x0 PUSH1 0x20 DUP3 ADD SWAP1 POP DUP2 DUP2 SUB PUSH1 0x0 DUP4 ADD MSTORE PUSH2 0x4949 DUP2 PUSH2 0x4711 JUMP JUMPDEST SWAP1 POP SWAP2 SWAP1 POP JUMP JUMPDEST PUSH1 0x0 PUSH1 0x20 DUP3 ADD SWAP1 POP DUP2 DUP2 SUB PUSH1 0x0 DUP4 ADD MSTORE PUSH2 0x4969 DUP2 PUSH2 0x4734 JUMP JUMPDEST SWAP1 POP SWAP2 SWAP1 POP JUMP JUMPDEST PUSH1 0x0 PUSH1 0x20 DUP3 ADD SWAP1 POP DUP2 DUP2 SUB PUSH1 0x0 DUP4 ADD MSTORE PUSH2 0x4989 DUP2 PUSH2 0x4757 JUMP JUMPDEST SWAP1 POP SWAP2 SWAP1 POP JUMP JUMPDEST PUSH1 0x0 PUSH1 0x20 DUP3 ADD SWAP1 POP DUP2 DUP2 SUB PUSH1 0x0 DUP4 ADD MSTORE PUSH2 0x49A9 DUP2 PUSH2 0x477A JUMP JUMPDEST SWAP1 POP SWAP2 SWAP1 POP JUMP JUMPDEST PUSH1 0x0 PUSH1 0x20 DUP3 ADD SWAP1 POP DUP2 DUP2 SUB PUSH1 0x0 DUP4 ADD MSTORE PUSH2 0x49C9 DUP2 PUSH2 0x479D JUMP JUMPDEST SWAP1 POP SWAP2 SWAP1 POP JUMP JUMPDEST PUSH1 0x0 PUSH1 0x20 DUP3 ADD SWAP1 POP DUP2 DUP2 SUB PUSH1 0x0 DUP4 ADD MSTORE PUSH2 0x49E9 DUP2 PUSH2 0x47C0 JUMP JUMPDEST SWAP1 POP SWAP2 SWAP1 POP JUMP JUMPDEST PUSH1 0x0 PUSH1 0x20 DUP3 ADD SWAP1 POP DUP2 DUP2 SUB PUSH1 0x0 DUP4 ADD MSTORE PUSH2 0x4A09 DUP2 PUSH2 0x47E3 JUMP JUMPDEST SWAP1 POP SWAP2 SWAP1 POP JUMP JUMPDEST PUSH1 0x0 PUSH1 0x20 DUP3 ADD SWAP1 POP DUP2 DUP2 SUB PUSH1 0x0 DUP4 ADD MSTORE PUSH2 0x4A29 DUP2 PUSH2 0x4806 JUMP JUMPDEST SWAP1 POP SWAP2 SWAP1 POP JUMP JUMPDEST PUSH1 0x0 PUSH1 0x20 DUP3 ADD SWAP1 POP DUP2 DUP2 SUB PUSH1 0x0 DUP4 ADD MSTORE PUSH2 0x4A49 DUP2 PUSH2 0x4829 JUMP JUMPDEST SWAP1 POP SWAP2 SWAP1 POP JUMP JUMPDEST PUSH1 0x0 PUSH1 0x20 DUP3 ADD SWAP1 POP DUP2 DUP2 SUB PUSH1 0x0 DUP4 ADD MSTORE PUSH2 0x4A69 DUP2 PUSH2 0x484C JUMP JUMPDEST SWAP1 POP SWAP2 SWAP1 POP JUMP JUMPDEST PUSH1 0x0 PUSH1 0x20 DUP3 ADD SWAP1 POP DUP2 DUP2 SUB PUSH1 0x0 DUP4 ADD MSTORE PUSH2 0x4A89 DUP2 PUSH2 0x486F JUMP JUMPDEST SWAP1 POP SWAP2 SWAP1 POP JUMP JUMPDEST PUSH1 0x0 PUSH1 0x20 DUP3 ADD SWAP1 POP PUSH2 0x4AA5 PUSH1 0x0 DUP4 ADD DUP5 PUSH2 0x4892 JUMP JUMPDEST SWAP3 SWAP2 POP POP JUMP JUMPDEST PUSH1 0x0 PUSH1 0x40 DUP3 ADD SWAP1 POP PUSH2 0x4AC0 PUSH1 0x0 DUP4 ADD DUP6 PUSH2 0x4892 JUMP JUMPDEST PUSH2 0x4ACD PUSH1 0x20 DUP4 ADD DUP5 PUSH2 0x4892 JUMP JUMPDEST SWAP4 SWAP3 POP POP POP JUMP JUMPDEST PUSH1 0x0 PUSH2 0x4ADE PUSH2 0x4AEF JUMP JUMPDEST SWAP1 POP PUSH2 0x4AEA DUP3 DUP3 PUSH2 0x4DFB JUMP JUMPDEST SWAP2 SWAP1 POP JUMP JUMPDEST PUSH1 0x0 PUSH1 0x40 MLOAD SWAP1 POP SWAP1 JUMP JUMPDEST PUSH1 0x0 PUSH8 0xFFFFFFFFFFFFFFFF DUP3 GT ISZERO PUSH2 0x4B14 JUMPI PUSH2 0x4B13 PUSH2 0x4F91 JUMP JUMPDEST JUMPDEST PUSH2 0x4B1D DUP3 PUSH2 0x4FDE JUMP JUMPDEST SWAP1 POP PUSH1 0x20 DUP2 ADD SWAP1 POP SWAP2 SWAP1 POP JUMP JUMPDEST PUSH1 0x0 DUP2 MLOAD SWAP1 POP SWAP2 SWAP1 POP JUMP JUMPDEST PUSH1 0x0 DUP3 DUP3 MSTORE PUSH1 0x20 DUP3 ADD SWAP1 POP SWAP3 SWAP2 POP POP JUMP JUMPDEST PUSH1 0x0 DUP2 SWAP1 POP SWAP3 SWAP2 POP POP JUMP JUMPDEST PUSH1 0x0 DUP3 DUP3 MSTORE PUSH1 0x20 DUP3 ADD SWAP1 POP SWAP3 SWAP2 POP POP JUMP JUMPDEST PUSH1 0x0 PUSH2 0x4B6D DUP3 PUSH2 0x4D69 JUMP JUMPDEST SWAP2 POP PUSH2 0x4B78 DUP4 PUSH2 0x4D69 JUMP JUMPDEST SWAP3 POP DUP3 PUSH32 0xFFFFFFFFFFFFFFFFFFFFFFFFFFFFFFFFFFFFFFFFFFFFFFFFFFFFFFFFFFFFFFFF SUB DUP3 GT ISZERO PUSH2 0x4BAD JUMPI PUSH2 0x4BAC PUSH2 0x4EA6 JUMP JUMPDEST JUMPDEST DUP3 DUP3 ADD SWAP1 POP SWAP3 SWAP2 POP POP JUMP JUMPDEST PUSH1 0x0 PUSH2 0x4BC3 DUP3 PUSH2 0x4D73 JUMP JUMPDEST SWAP2 POP PUSH2 0x4BCE DUP4 PUSH2 0x4D73 JUMP JUMPDEST SWAP3 POP DUP3 PUSH8 0xFFFFFFFFFFFFFFFF SUB DUP3 GT ISZERO PUSH2 0x4BEB JUMPI PUSH2 0x4BEA PUSH2 0x4EA6 JUMP JUMPDEST JUMPDEST DUP3 DUP3 ADD SWAP1 POP SWAP3 SWAP2 POP POP JUMP JUMPDEST PUSH1 0x0 PUSH2 0x4C01 DUP3 PUSH2 0x4D69 JUMP JUMPDEST SWAP2 POP PUSH2 0x4C0C DUP4 PUSH2 0x4D69 JUMP JUMPDEST SWAP3 POP DUP3 PUSH2 0x4C1C JUMPI PUSH2 0x4C1B PUSH2 0x4ED5 JUMP JUMPDEST JUMPDEST DUP3 DUP3 DIV SWAP1 POP SWAP3 SWAP2 POP POP JUMP JUMPDEST PUSH1 0x0 PUSH2 0x4C32 DUP3 PUSH2 0x4D69 JUMP JUMPDEST SWAP2 POP PUSH2 0x4C3D DUP4 PUSH2 0x4D69 JUMP JUMPDEST SWAP3 POP DUP2 PUSH32 0xFFFFFFFFFFFFFFFFFFFFFFFFFFFFFFFFFFFFFFFFFFFFFFFFFFFFFFFFFFFFFFFF DIV DUP4 GT DUP3 ISZERO ISZERO AND ISZERO PUSH2 0x4C76 JUMPI PUSH2 0x4C75 PUSH2 0x4EA6 JUMP JUMPDEST JUMPDEST DUP3 DUP3 MUL SWAP1 POP SWAP3 SWAP2 POP POP JUMP JUMPDEST PUSH1 0x0 PUSH2 0x4C8C DUP3 PUSH2 0x4D73 JUMP JUMPDEST SWAP2 POP PUSH2 0x4C97 DUP4 PUSH2 0x4D73 JUMP JUMPDEST SWAP3 POP DUP2 PUSH8 0xFFFFFFFFFFFFFFFF DIV DUP4 GT DUP3 ISZERO ISZERO AND ISZERO PUSH2 0x4CB8 JUMPI PUSH2 0x4CB7 PUSH2 0x4EA6 JUMP JUMPDEST JUMPDEST DUP3 DUP3 MUL SWAP1 POP SWAP3 SWAP2 POP POP JUMP JUMPDEST PUSH1 0x0 PUSH2 0x4CCE DUP3 PUSH2 0x4D69 JUMP JUMPDEST SWAP2 POP PUSH2 0x4CD9 DUP4 PUSH2 0x4D69 JUMP JUMPDEST SWAP3 POP DUP3 DUP3 LT ISZERO PUSH2 0x4CEC JUMPI PUSH2 0x4CEB PUSH2 0x4EA6 JUMP JUMPDEST JUMPDEST DUP3 DUP3 SUB SWAP1 POP SWAP3 SWAP2 POP POP JUMP JUMPDEST PUSH1 0x0 PUSH2 0x4D02 DUP3 PUSH2 0x4D73 JUMP JUMPDEST SWAP2 POP PUSH2 0x4D0D DUP4 PUSH2 0x4D73 JUMP JUMPDEST SWAP3 POP DUP3 DUP3 LT ISZERO PUSH2 0x4D20 JUMPI PUSH2 0x4D1F PUSH2 0x4EA6 JUMP JUMPDEST JUMPDEST DUP3 DUP3 SUB SWAP1 POP SWAP3 SWAP2 POP POP JUMP JUMPDEST PUSH1 0x0 PUSH2 0x4D36 DUP3 PUSH2 0x4D49 JUMP JUMPDEST SWAP1 POP SWAP2 SWAP1 POP JUMP JUMPDEST PUSH1 0x0 DUP2 ISZERO ISZERO SWAP1 POP SWAP2 SWAP1 POP JUMP JUMPDEST PUSH1 0x0 PUSH20 0xFFFFFFFFFFFFFFFFFFFFFFFFFFFFFFFFFFFFFFFF DUP3 AND SWAP1 POP SWAP2 SWAP1 POP JUMP JUMPDEST PUSH1 0x0 DUP2 SWAP1 POP SWAP2 SWAP1 POP JUMP JUMPDEST PUSH1 0x0 PUSH8 0xFFFFFFFFFFFFFFFF DUP3 AND SWAP1 POP SWAP2 SWAP1 POP JUMP JUMPDEST DUP3 DUP2 DUP4 CALLDATACOPY PUSH1 0x0 DUP4 DUP4 ADD MSTORE POP POP POP JUMP JUMPDEST PUSH1 0x0 JUMPDEST DUP4 DUP2 LT ISZERO PUSH2 0x4DB4 JUMPI DUP1 DUP3 ADD MLOAD DUP2 DUP5 ADD MSTORE PUSH1 0x20 DUP2 ADD SWAP1 POP PUSH2 0x4D99 JUMP JUMPDEST DUP4 DUP2 GT ISZERO PUSH2 0x4DC3 JUMPI PUSH1 0x0 DUP5 DUP5 ADD MSTORE JUMPDEST POP POP POP POP JUMP JUMPDEST PUSH1 0x0 PUSH1 0x2 DUP3 DIV SWAP1 POP PUSH1 0x1 DUP3 AND DUP1 PUSH2 0x4DE1 JUMPI PUSH1 0x7F DUP3 AND SWAP2 POP JUMPDEST PUSH1 0x20 DUP3 LT DUP2 EQ ISZERO PUSH2 0x4DF5 JUMPI PUSH2 0x4DF4 PUSH2 0x4F33 JUMP JUMPDEST JUMPDEST POP SWAP2 SWAP1 POP JUMP JUMPDEST PUSH2 0x4E04 DUP3 PUSH2 0x4FDE JUMP JUMPDEST DUP2 ADD DUP2 DUP2 LT PUSH8 0xFFFFFFFFFFFFFFFF DUP3 GT OR ISZERO PUSH2 0x4E23 JUMPI PUSH2 0x4E22 PUSH2 0x4F91 JUMP JUMPDEST JUMPDEST DUP1 PUSH1 0x40 MSTORE POP POP POP JUMP JUMPDEST PUSH1 0x0 PUSH2 0x4E37 DUP3 PUSH2 0x4D69 JUMP JUMPDEST SWAP2 POP PUSH32 0xFFFFFFFFFFFFFFFFFFFFFFFFFFFFFFFFFFFFFFFFFFFFFFFFFFFFFFFFFFFFFFFF DUP3 EQ ISZERO PUSH2 0x4E6A JUMPI PUSH2 0x4E69 PUSH2 0x4EA6 JUMP JUMPDEST JUMPDEST PUSH1 0x1 DUP3 ADD SWAP1 POP SWAP2 SWAP1 POP JUMP JUMPDEST PUSH1 0x0 PUSH2 0x4E80 DUP3 PUSH2 0x4D73 JUMP JUMPDEST SWAP2 POP PUSH8 0xFFFFFFFFFFFFFFFF DUP3 EQ ISZERO PUSH2 0x4E9B JUMPI PUSH2 0x4E9A PUSH2 0x4EA6 JUMP JUMPDEST JUMPDEST PUSH1 0x1 DUP3 ADD SWAP1 POP SWAP2 SWAP1 POP JUMP JUMPDEST PUSH32 0x4E487B7100000000000000000000000000000000000000000000000000000000 PUSH1 0x0 MSTORE PUSH1 0x11 PUSH1 0x4 MSTORE PUSH1 0x24 PUSH1 0x0 REVERT JUMPDEST PUSH32 0x4E487B7100000000000000000000000000000000000000000000000000000000 PUSH1 0x0 MSTORE PUSH1 0x12 PUSH1 0x4 MSTORE PUSH1 0x24 PUSH1 0x0 REVERT JUMPDEST PUSH32 0x4E487B7100000000000000000000000000000000000000000000000000000000 PUSH1 0x0 MSTORE PUSH1 0x21 PUSH1 0x4 MSTORE PUSH1 0x24 PUSH1 0x0 REVERT JUMPDEST PUSH32 0x4E487B7100000000000000000000000000000000000000000000000000000000 PUSH1 0x0 MSTORE PUSH1 0x22 PUSH1 0x4 MSTORE PUSH1 0x24 PUSH1 0x0 REVERT JUMPDEST PUSH32 0x4E487B7100000000000000000000000000000000000000000000000000000000 PUSH1 0x0 MSTORE PUSH1 0x32 PUSH1 0x4 MSTORE PUSH1 0x24 PUSH1 0x0 REVERT JUMPDEST PUSH32 0x4E487B7100000000000000000000000000000000000000000000000000000000 PUSH1 0x0 MSTORE PUSH1 0x41 PUSH1 0x4 MSTORE PUSH1 0x24 PUSH1 0x0 REVERT JUMPDEST PUSH1 0x0 DUP1 REVERT JUMPDEST PUSH1 0x0 DUP1 REVERT JUMPDEST PUSH1 0x0 DUP1 REVERT JUMPDEST PUSH1 0x0 DUP1 REVERT JUMPDEST PUSH1 0x0 DUP1 REVERT JUMPDEST PUSH1 0x0 DUP1 REVERT JUMPDEST PUSH1 0x0 PUSH1 0x1F NOT PUSH1 0x1F DUP4 ADD AND SWAP1 POP SWAP2 SWAP1 POP JUMP JUMPDEST PUSH32 0x4F776E61626C653A206E6577206F776E657220697320746865207A65726F2061 PUSH1 0x0 DUP3 ADD MSTORE PUSH32 0x6464726573730000000000000000000000000000000000000000000000000000 PUSH1 0x20 DUP3 ADD MSTORE POP JUMP JUMPDEST PUSH32 0x4C697175696469747941646465645061796C6F616420646573657269616C697A PUSH1 0x0 DUP3 ADD MSTORE PUSH32 0x6174696F6E206661696C65640000000000000000000000000000000000000000 PUSH1 0x20 DUP3 ADD MSTORE POP JUMP JUMPDEST PUSH32 0x46756E647357697468647261776E5061796C6F616420646573657269616C697A PUSH1 0x0 DUP3 ADD MSTORE PUSH32 0x6174696F6E206661696C65640000000000000000000000000000000000000000 PUSH1 0x20 DUP3 ADD MSTORE POP JUMP JUMPDEST PUSH32 0x496E76616C6964206164647265737320666F726D617400000000000000000000 PUSH1 0x0 DUP3 ADD MSTORE POP JUMP JUMPDEST PUSH32 0x41737365742076616C7565206C657373207468616E207468726573686F6C6420 PUSH1 0x0 DUP3 ADD MSTORE PUSH32 0x666F7220636F6E747269627574696F6E21000000000000000000000000000000 PUSH1 0x20 DUP3 ADD MSTORE POP JUMP JUMPDEST PUSH32 0x46756E64734465706F73697465645061796C6F616420646573657269616C697A PUSH1 0x0 DUP3 ADD MSTORE PUSH32 0x6174696F6E206661696C65640000000000000000000000000000000000000000 PUSH1 0x20 DUP3 ADD MSTORE POP JUMP JUMPDEST PUSH32 0x4F776E61626C653A2063616C6C6572206973206E6F7420746865206F776E6572 PUSH1 0x0 DUP3 ADD MSTORE POP JUMP JUMPDEST PUSH32 0x53686172652073686F756C64206265206C657373207468616E20746F74616C53 PUSH1 0x0 DUP3 ADD MSTORE PUSH32 0x6861726500000000000000000000000000000000000000000000000000000000 PUSH1 0x20 DUP3 ADD MSTORE POP JUMP JUMPDEST PUSH32 0x414D4D437265617465645061796C6F616420646573657269616C697A6174696F PUSH1 0x0 DUP3 ADD MSTORE PUSH32 0x6E206661696C6564000000000000000000000000000000000000000000000000 PUSH1 0x20 DUP3 ADD MSTORE POP JUMP JUMPDEST PUSH32 0x4571756976616C656E742076616C7565206F6620746F6B656E73206E6F742070 PUSH1 0x0 DUP3 ADD MSTORE PUSH32 0x726F76696465642E2E2E00000000000000000000000000000000000000000000 PUSH1 0x20 DUP3 ADD MSTORE POP JUMP JUMPDEST PUSH32 0x4E6F206C697175696469747920696E20706F6F6C000000000000000000000000 PUSH1 0x0 DUP3 ADD MSTORE POP JUMP JUMPDEST PUSH32 0x4C697175696469747952656D6F7665645061796C6F616420646573657269616C PUSH1 0x0 DUP3 ADD MSTORE PUSH32 0x697A6174696F6E206661696C6564000000000000000000000000000000000000 PUSH1 0x20 DUP3 ADD MSTORE POP JUMP JUMPDEST PUSH2 0x533A DUP2 PUSH2 0x4D2B JUMP JUMPDEST DUP2 EQ PUSH2 0x5345 JUMPI PUSH1 0x0 DUP1 REVERT JUMPDEST POP JUMP JUMPDEST PUSH1 0x9 DUP2 LT PUSH2 0x5355 JUMPI PUSH1 0x0 DUP1 REVERT JUMPDEST POP JUMP JUMPDEST PUSH2 0x5361 DUP2 PUSH2 0x4D69 JUMP JUMPDEST DUP2 EQ PUSH2 0x536C JUMPI PUSH1 0x0 DUP1 REVERT JUMPDEST POP JUMP JUMPDEST PUSH2 0x5378 DUP2 PUSH2 0x4D73 JUMP JUMPDEST DUP2 EQ PUSH2 0x5383 JUMPI PUSH1 0x0 DUP1 REVERT JUMPDEST POP JUMP INVALID LOG2 PUSH5 0x6970667358 0x22 SLT KECCAK256 DUP12 DUP14 SWAP11 PUSH23 0x559683079641B26C554C1C1A23F5F7AB7A9D62F9939276 PUSH8 0x3080469E64736F6C PUSH4 0x43000806 STOP CALLER "
		},
		"gasEstimates": {
			"creation": {
				"codeDepositCost": "4287200",
				"executionCost": "infinite",
				"totalCost": "infinite"
			},
			"external": {
				"balance1(address)": "2836",
				"balance2(address)": "2815",
				"getTokensEstimateForShare(uint256)": "infinite",
				"isCreated()": "2538",
				"owner()": "2611",
				"renounceOwnership()": "30443",
				"reset()": "infinite",
				"shares(address)": "2858",
				"spool((uint64,uint8,bytes))": "infinite",
				"token1()": "infinite",
				"token2()": "infinite",
				"transferOwnership(address)": "30857"
			},
			"internal": {
				"clear()": "infinite",
				"on(struct DomainEvent memory)": "infinite",
				"onCreated(struct AMMCreatedPayload memory)": "infinite",
				"onFundsDeposited(struct FundsDepositedPayload memory)": "infinite",
				"onFundsWithdrawn(struct FundsWithdrawnPayload memory)": "infinite",
				"onLiquidityAdded(struct LiquidityAddedPayload memory)": "infinite",
				"onLiquidityRemoved(struct LiquidityRemovedPayload memory)": "infinite"
			}
		},
		"methodIdentifiers": {
			"balance1(address)": "af62db3f",
			"balance2(address)": "0c1fc829",
			"getTokensEstimateForShare(uint256)": "93217888",
			"isCreated()": "86174396",
			"owner()": "8da5cb5b",
			"renounceOwnership()": "715018a6",
			"reset()": "d826f88f",
			"shares(address)": "ce7c2ac2",
			"spool((uint64,uint8,bytes))": "8fe8bb96",
			"token1()": "d21220a7",
			"token2()": "25be124e",
			"transferOwnership(address)": "f2fde38b"
		}
	},
	"abi": [
		{
			"anonymous": false,
			"inputs": [
				{
					"indexed": true,
					"internalType": "address",
					"name": "previousOwner",
					"type": "address"
				},
				{
					"indexed": true,
					"internalType": "address",
					"name": "newOwner",
					"type": "address"
				}
			],
			"name": "OwnershipTransferred",
			"type": "event"
		},
		{
			"inputs": [
				{
					"internalType": "address",
					"name": "",
					"type": "address"
				}
			],
			"name": "balance1",
			"outputs": [
				{
					"internalType": "uint256",
					"name": "",
					"type": "uint256"
				}
			],
			"stateMutability": "view",
			"type": "function"
		},
		{
			"inputs": [
				{
					"internalType": "address",
					"name": "",
					"type": "address"
				}
			],
			"name": "balance2",
			"outputs": [
				{
					"internalType": "uint256",
					"name": "",
					"type": "uint256"
				}
			],
			"stateMutability": "view",
			"type": "function"
		},
		{
			"inputs": [
				{
					"internalType": "uint256",
					"name": "_share",
					"type": "uint256"
				}
			],
			"name": "getTokensEstimateForShare",
			"outputs": [
				{
					"internalType": "uint256",
					"name": "amountToken1",
					"type": "uint256"
				},
				{
					"internalType": "uint256",
					"name": "amountToken2",
					"type": "uint256"
				}
			],
			"stateMutability": "view",
			"type": "function"
		},
		{
			"inputs": [],
			"name": "isCreated",
			"outputs": [
				{
					"internalType": "bool",
					"name": "",
					"type": "bool"
				}
			],
			"stateMutability": "view",
			"type": "function"
		},
		{
			"inputs": [],
			"name": "owner",
			"outputs": [
				{
					"internalType": "address",
					"name": "",
					"type": "address"
				}
			],
			"stateMutability": "view",
			"type": "function"
		},
		{
			"inputs": [],
			"name": "renounceOwnership",
			"outputs": [],
			"stateMutability": "nonpayable",
			"type": "function"
		},
		{
			"inputs": [],
			"name": "reset",
			"outputs": [],
			"stateMutability": "nonpayable",
			"type": "function"
		},
		{
			"inputs": [
				{
					"internalType": "address",
					"name": "",
					"type": "address"
				}
			],
			"name": "shares",
			"outputs": [
				{
					"internalType": "uint256",
					"name": "",
					"type": "uint256"
				}
			],
			"stateMutability": "view",
			"type": "function"
		},
		{
			"inputs": [
				{
					"components": [
						{
							"internalType": "uint64",
							"name": "evnt_idx",
							"type": "uint64"
						},
						{
							"internalType": "enum DomainEventType",
							"name": "evnt_type",
							"type": "uint8"
						},
						{
							"internalType": "bytes",
							"name": "evnt_payload",
							"type": "bytes"
						}
					],
					"internalType": "struct DomainEvent",
					"name": "evnt",
					"type": "tuple"
				}
			],
			"name": "spool",
			"outputs": [],
			"stateMutability": "nonpayable",
			"type": "function"
		},
		{
			"inputs": [],
			"name": "token1",
			"outputs": [
				{
					"internalType": "bytes",
					"name": "",
					"type": "bytes"
				}
			],
			"stateMutability": "view",
			"type": "function"
		},
		{
			"inputs": [],
			"name": "token2",
			"outputs": [
				{
					"internalType": "bytes",
					"name": "",
					"type": "bytes"
				}
			],
			"stateMutability": "view",
			"type": "function"
		},
		{
			"inputs": [
				{
					"internalType": "address",
					"name": "newOwner",
					"type": "address"
				}
			],
			"name": "transferOwnership",
			"outputs": [],
			"stateMutability": "nonpayable",
			"type": "function"
		}
	]
}