{
	"data": {
		"bytecode": {
			"linkReferences": {},
			"object": "608060405234801561001057600080fd5b5061002d61002261003260201b60201c565b61003a60201b60201c565b6100fe565b600033905090565b60008060009054906101000a900473ffffffffffffffffffffffffffffffffffffffff169050816000806101000a81548173ffffffffffffffffffffffffffffffffffffffff021916908373ffffffffffffffffffffffffffffffffffffffff1602179055508173ffffffffffffffffffffffffffffffffffffffff168173ffffffffffffffffffffffffffffffffffffffff167f8be0079c531659141344cd1fd0a4f28419497f9722a3daafe3b4186f6b6457e060405160405180910390a35050565b611cbd8061010d6000396000f3fe608060405234801561001057600080fd5b50600436106100885760003560e01c8063ce7c2ac21161005b578063ce7c2ac2146100ef578063d21220a71461011f578063d826f88f1461013d578063f2fde38b1461014757610088565b806325be124e1461008d578063715018a6146100ab5780638da5cb5b146100b55780638fe8bb96146100d3575b600080fd5b610095610163565b6040516100a29190611782565b60405180910390f35b6100b3610189565b005b6100bd61019d565b6040516100ca9190611782565b60405180910390f35b6100ed60048036038101906100e8919061168f565b6101c6565b005b61010960048036038101906101049190611662565b6101da565b604051610116919061181d565b60405180910390f35b6101276101f2565b6040516101349190611782565b60405180910390f35b610145610218565b005b610161600480360381019061015c9190611662565b61022a565b005b600260009054906101000a900473ffffffffffffffffffffffffffffffffffffffff1681565b6101916102ae565b61019b600061032c565b565b60008060009054906101000a900473ffffffffffffffffffffffffffffffffffffffff16905090565b6101ce6102ae565b6101d7816103f0565b50565b60056020528060005260406000206000915090505481565b600160009054906101000a900473ffffffffffffffffffffffffffffffffffffffff1681565b6102206102ae565b61022861048d565b565b6102326102ae565b600073ffffffffffffffffffffffffffffffffffffffff168173ffffffffffffffffffffffffffffffffffffffff1614156102a2576040517f08c379a00000000000000000000000000000000000000000000000000000000081526004016102999061179d565b60405180910390fd5b6102ab8161032c565b50565b6102b6610539565b73ffffffffffffffffffffffffffffffffffffffff166102d461019d565b73ffffffffffffffffffffffffffffffffffffffff161461032a576040517f08c379a0000000000000000000000000000000000000000000000000000000008152600401610321906117dd565b60405180910390fd5b565b60008060009054906101000a900473ffffffffffffffffffffffffffffffffffffffff169050816000806101000a81548173ffffffffffffffffffffffffffffffffffffffff021916908373ffffffffffffffffffffffffffffffffffffffff1602179055508173ffffffffffffffffffffffffffffffffffffffff168173ffffffffffffffffffffffffffffffffffffffff167f8be0079c531659141344cd1fd0a4f28419497f9722a3daafe3b4186f6b6457e060405160405180910390a35050565b6003600881111561040457610403611a9d565b5b8160200151600881111561041b5761041a611a9d565b5b141561048a5760008061043960008460400151856040015151610541565b92505091508161047e576040517f08c379a0000000000000000000000000000000000000000000000000000000008152600401610475906117fd565b60405180910390fd5b610487816106fb565b50505b50565b620f4240600061049d91906118dd565b6006819055506000600160006101000a81548173ffffffffffffffffffffffffffffffffffffffff021916908373ffffffffffffffffffffffffffffffffffffffff1602179055506000600260006101000a81548173ffffffffffffffffffffffffffffffffffffffff021916908373ffffffffffffffffffffffffffffffffffffffff16021790555060006003819055506000600481905550565b600033905090565b60008061054c6114f0565b6105546114f0565b6000808890508067ffffffffffffffff168782610571919061189f565b67ffffffffffffffff16101561059357600081849550955095505050506106f2565b5b8667ffffffffffffffff1689826105ab9190611979565b67ffffffffffffffff1610156106ac5760008060006105ca848c6107d8565b80945081955082975083965050505050826105f457600084879850985098505050505050506106f2565b60058267ffffffffffffffff16111561061c57600084879850985098505050505050506106f2565b8467ffffffffffffffff168267ffffffffffffffff161161064c57600084879850985098505050505050506106f2565b6106568282610924565b92508261067257600084879850985098505050505050506106f2565b61067f848c8c858a610a7b565b8095508194505050826106a157600084879850985098505050505050506106f2565b819450505050610594565b86896106b8919061189f565b67ffffffffffffffff168167ffffffffffffffff16146106e457600081849550955095505050506106f2565b600181849550955095505050505b93509350939050565b6107088160000151610c03565b600160006101000a81548173ffffffffffffffffffffffffffffffffffffffff021916908373ffffffffffffffffffffffffffffffffffffffff160217905550806040015167ffffffffffffffff1660038190555061076a8160200151610c03565b600260006101000a81548173ffffffffffffffffffffffffffffffffffffffff021916908373ffffffffffffffffffffffffffffffffffffffff160217905550806060015167ffffffffffffffff16600381905550620f424060006107cf91906118dd565b60068190555050565b60008060008060008060006107ed8989610c5b565b9250925092508261080f5760008260006006965096509650965050505061091b565b600060038267ffffffffffffffff16901c9050600060078316905060068081111561083d5761083c611a9d565b5b67ffffffffffffffff168167ffffffffffffffff161061087057600084600060069850985098509850505050505061091b565b60008167ffffffffffffffff16600681111561088f5761088e611a9d565b5b9050600360068111156108a5576108a4611a9d565b5b8160068111156108b8576108b7611a9d565b5b14806108e85750600460068111156108d3576108d2611a9d565b5b8160068111156108e6576108e5611a9d565b5b145b156109075760008560006006995099509950995050505050505061091b565b600185848399509950995099505050505050505b92959194509250565b600060018367ffffffffffffffff161415610968576002600681111561094d5761094c611a9d565b5b8260068111156109605761095f611a9d565b5b149050610a75565b60028367ffffffffffffffff1614156109aa576002600681111561098f5761098e611a9d565b5b8260068111156109a2576109a1611a9d565b5b149050610a75565b60038367ffffffffffffffff1614156109ec57600060068111156109d1576109d0611a9d565b5b8260068111156109e4576109e3611a9d565b5b149050610a75565b60048367ffffffffffffffff161415610a2e5760006006811115610a1357610a12611a9d565b5b826006811115610a2657610a25611a9d565b5b149050610a75565b60058367ffffffffffffffff161415610a705760026006811115610a5557610a54611a9d565b5b826006811115610a6857610a67611a9d565b5b149050610a75565b600090505b92915050565b600080600087905060018567ffffffffffffffff161415610acc576000610aa3828987610e53565b809350819250505080610abe57600082935093505050610bf9565b600182935093505050610bf9565b60028567ffffffffffffffff161415610b15576000610aec828987610fd8565b809350819250505080610b0757600082935093505050610bf9565b600182935093505050610bf9565b60038567ffffffffffffffff161415610b5e576000610b3582898761115d565b809350819250505080610b5057600082935093505050610bf9565b600182935093505050610bf9565b60048567ffffffffffffffff161415610ba7576000610b7e8289876111df565b809350819250505080610b9957600082935093505050610bf9565b600182935093505050610bf9565b60058567ffffffffffffffff161415610bf0576000610bc7828987611261565b809350819250505080610be257600082935093505050610bf9565b600182935093505050610bf9565b60008192509250505b9550959350505050565b60006014825114610c49576040517f08c379a0000000000000000000000000000000000000000000000000000000008152600401610c40906117bd565b60405180910390fd5b60006014830151905080915050919050565b60008060008060005b600a67ffffffffffffffff168167ffffffffffffffff161015610d7e5785518782610c8f919061189f565b67ffffffffffffffff1610610cb05760008760009450945094505050610e4c565b6000868289610cbf919061189f565b67ffffffffffffffff1681518110610cda57610cd9611acc565b5b602001015160f81c60f81b60f81c90506000607f82169050600783610cff9190611937565b67ffffffffffffffff168160ff1667ffffffffffffffff16901b8417935060006080831660ff161415610d695760008367ffffffffffffffff16118015610d49575060008160ff16145b15610d6257600089600096509650965050505050610e4c565b5050610d7e565b50508080610d7690611a3d565b915050610c64565b600a67ffffffffffffffff168167ffffffffffffffff1610610dac5760008760009450945094505050610e4c565b6001600a610dba9190611979565b67ffffffffffffffff168167ffffffffffffffff161415610e29576001868289610de4919061189f565b67ffffffffffffffff1681518110610dff57610dfe611acc565b5b602001015160f81c60f81b60f81c60ff161115610e285760008760009450945094505050610e4c565b5b6001808289610e38919061189f565b610e42919061189f565b8394509450945050505b9250925092565b600080600080610e6387876113e6565b80935081995082945050505081610e8257600087935093505050610fd0565b60008167ffffffffffffffff161415610ea357600087935093505050610fd0565b8067ffffffffffffffff1667ffffffffffffffff811115610ec757610ec6611afb565b5b6040519080825280601f01601f191660200182016040528015610ef95781602001600182028036833780820191505090505b50856000018190525060005b8167ffffffffffffffff168167ffffffffffffffff161015610fb757868189610f2e919061189f565b67ffffffffffffffff1681518110610f4957610f48611acc565b5b602001015160f81c60f81b86600001518267ffffffffffffffff1681518110610f7557610f74611acc565b5b60200101907effffffffffffffffffffffffffffffffffffffffffffffffffffffffffffff1916908160001a9053508080610faf90611a3d565b915050610f05565b508087610fc4919061189f565b96506001879350935050505b935093915050565b600080600080610fe887876113e6565b8093508199508294505050508161100757600087935093505050611155565b60008167ffffffffffffffff16141561102857600087935093505050611155565b8067ffffffffffffffff1667ffffffffffffffff81111561104c5761104b611afb565b5b6040519080825280601f01601f19166020018201604052801561107e5781602001600182028036833780820191505090505b50856020018190525060005b8167ffffffffffffffff168167ffffffffffffffff16101561113c578681896110b3919061189f565b67ffffffffffffffff16815181106110ce576110cd611acc565b5b602001015160f81c60f81b86602001518267ffffffffffffffff16815181106110fa576110f9611acc565b5b60200101907effffffffffffffffffffffffffffffffffffffffffffffffffffffffffffff1916908160001a905350808061113490611a3d565b91505061108a565b508087611149919061189f565b96506001879350935050505b935093915050565b60008060008061116d8787611402565b8093508199508294505050508161118c576000879350935050506111d7565b60008167ffffffffffffffff1614156111ad576000879350935050506111d7565b80856040019067ffffffffffffffff16908167ffffffffffffffff16815250506001879350935050505b935093915050565b6000806000806111ef8787611402565b8093508199508294505050508161120e57600087935093505050611259565b60008167ffffffffffffffff16141561122f57600087935093505050611259565b80856060019067ffffffffffffffff16908167ffffffffffffffff16815250506001879350935050505b935093915050565b60008060008061127187876113e6565b80935081995082945050505081611290576000879350935050506113de565b60008167ffffffffffffffff1614156112b1576000879350935050506113de565b8067ffffffffffffffff1667ffffffffffffffff8111156112d5576112d4611afb565b5b6040519080825280601f01601f1916602001820160405280156113075781602001600182028036833780820191505090505b50856080018190525060005b8167ffffffffffffffff168167ffffffffffffffff1610156113c55786818961133c919061189f565b67ffffffffffffffff168151811061135757611356611acc565b5b602001015160f81c60f81b86608001518267ffffffffffffffff168151811061138357611382611acc565b5b60200101907effffffffffffffffffffffffffffffffffffffffffffffffffffffffffffff1916908160001a90535080806113bd90611a3d565b915050611313565b5080876113d2919061189f565b96506001879350935050505b935093915050565b60008060006113f58585611448565b9250925092509250925092565b6000806000806000806114158888610c5b565b92509250925082611433576000826000955095509550505050611441565b600182829550955095505050505b9250925092565b60008060008060008061145b8888610c5b565b925092509250826114795760008260009550955095505050506114e9565b8167ffffffffffffffff1681830167ffffffffffffffff1610156114aa5760008260009550955095505050506114e9565b865182826114b8919061189f565b67ffffffffffffffff1611156114db5760008260009550955095505050506114e9565b600182829550955095505050505b9250925092565b6040518060a001604052806060815260200160608152602001600067ffffffffffffffff168152602001600067ffffffffffffffff168152602001606081525090565b60006115466115418461185d565b611838565b90508281526020810184848401111561156257611561611b39565b5b61156d8482856119fd565b509392505050565b60008135905061158481611c49565b92915050565b600082601f83011261159f5761159e611b2a565b5b81356115af848260208601611533565b91505092915050565b6000813590506115c781611c60565b92915050565b6000606082840312156115e3576115e2611b2f565b5b6115ed6060611838565b905060006115fd8482850161164d565b6000830152506020611611848285016115b8565b602083015250604082013567ffffffffffffffff81111561163557611634611b34565b5b6116418482850161158a565b60408301525092915050565b60008135905061165c81611c70565b92915050565b60006020828403121561167857611677611b43565b5b600061168684828501611575565b91505092915050565b6000602082840312156116a5576116a4611b43565b5b600082013567ffffffffffffffff8111156116c3576116c2611b3e565b5b6116cf848285016115cd565b91505092915050565b6116e1816119ad565b82525050565b60006116f460268361188e565b91506116ff82611b59565b604082019050919050565b600061171760168361188e565b915061172282611ba8565b602082019050919050565b600061173a60208361188e565b915061174582611bd1565b602082019050919050565b600061175d60288361188e565b915061176882611bfa565b604082019050919050565b61177c816119df565b82525050565b600060208201905061179760008301846116d8565b92915050565b600060208201905081810360008301526117b6816116e7565b9050919050565b600060208201905081810360008301526117d68161170a565b9050919050565b600060208201905081810360008301526117f68161172d565b9050919050565b6000602082019050818103600083015261181681611750565b9050919050565b60006020820190506118326000830184611773565b92915050565b6000611842611853565b905061184e8282611a0c565b919050565b6000604051905090565b600067ffffffffffffffff82111561187857611877611afb565b5b61188182611b48565b9050602081019050919050565b600082825260208201905092915050565b60006118aa826119e9565b91506118b5836119e9565b92508267ffffffffffffffff038211156118d2576118d1611a6e565b5b828201905092915050565b60006118e8826119df565b91506118f3836119df565b9250817fffffffffffffffffffffffffffffffffffffffffffffffffffffffffffffffff048311821515161561192c5761192b611a6e565b5b828202905092915050565b6000611942826119e9565b915061194d836119e9565b92508167ffffffffffffffff048311821515161561196e5761196d611a6e565b5b828202905092915050565b6000611984826119e9565b915061198f836119e9565b9250828210156119a2576119a1611a6e565b5b828203905092915050565b60006119b8826119bf565b9050919050565b600073ffffffffffffffffffffffffffffffffffffffff82169050919050565b6000819050919050565b600067ffffffffffffffff82169050919050565b82818337600083830152505050565b611a1582611b48565b810181811067ffffffffffffffff82111715611a3457611a33611afb565b5b80604052505050565b6000611a48826119e9565b915067ffffffffffffffff821415611a6357611a62611a6e565b5b600182019050919050565b7f4e487b7100000000000000000000000000000000000000000000000000000000600052601160045260246000fd5b7f4e487b7100000000000000000000000000000000000000000000000000000000600052602160045260246000fd5b7f4e487b7100000000000000000000000000000000000000000000000000000000600052603260045260246000fd5b7f4e487b7100000000000000000000000000000000000000000000000000000000600052604160045260246000fd5b600080fd5b600080fd5b600080fd5b600080fd5b600080fd5b600080fd5b6000601f19601f8301169050919050565b7f4f776e61626c653a206e6577206f776e657220697320746865207a65726f206160008201527f6464726573730000000000000000000000000000000000000000000000000000602082015250565b7f496e76616c6964206164647265737320666f726d617400000000000000000000600082015250565b7f4f776e61626c653a2063616c6c6572206973206e6f7420746865206f776e6572600082015250565b7f414d4d437265617465645061796c6f616420646573657269616c697a6174696f60008201527f6e206661696c6564000000000000000000000000000000000000000000000000602082015250565b611c52816119ad565b8114611c5d57600080fd5b50565b60098110611c6d57600080fd5b50565b611c79816119e9565b8114611c8457600080fd5b5056fea2646970667358221220c27fe19ee9ed7308a8a6b7470017c76427623ff4911983bcf9f8210fff9b0c4064736f6c63430008060033",
			"opcodes": "PUSH1 0x80 PUSH1 0x40 MSTORE CALLVALUE DUP1 ISZERO PUSH2 0x10 JUMPI PUSH1 0x0 DUP1 REVERT JUMPDEST POP PUSH2 0x2D PUSH2 0x22 PUSH2 0x32 PUSH1 0x20 SHL PUSH1 0x20 SHR JUMP JUMPDEST PUSH2 0x3A PUSH1 0x20 SHL PUSH1 0x20 SHR JUMP JUMPDEST PUSH2 0xFE JUMP JUMPDEST PUSH1 0x0 CALLER SWAP1 POP SWAP1 JUMP JUMPDEST PUSH1 0x0 DUP1 PUSH1 0x0 SWAP1 SLOAD SWAP1 PUSH2 0x100 EXP SWAP1 DIV PUSH20 0xFFFFFFFFFFFFFFFFFFFFFFFFFFFFFFFFFFFFFFFF AND SWAP1 POP DUP2 PUSH1 0x0 DUP1 PUSH2 0x100 EXP DUP2 SLOAD DUP2 PUSH20 0xFFFFFFFFFFFFFFFFFFFFFFFFFFFFFFFFFFFFFFFF MUL NOT AND SWAP1 DUP4 PUSH20 0xFFFFFFFFFFFFFFFFFFFFFFFFFFFFFFFFFFFFFFFF AND MUL OR SWAP1 SSTORE POP DUP2 PUSH20 0xFFFFFFFFFFFFFFFFFFFFFFFFFFFFFFFFFFFFFFFF AND DUP2 PUSH20 0xFFFFFFFFFFFFFFFFFFFFFFFFFFFFFFFFFFFFFFFF AND PUSH32 0x8BE0079C531659141344CD1FD0A4F28419497F9722A3DAAFE3B4186F6B6457E0 PUSH1 0x40 MLOAD PUSH1 0x40 MLOAD DUP1 SWAP2 SUB SWAP1 LOG3 POP POP JUMP JUMPDEST PUSH2 0x1CBD DUP1 PUSH2 0x10D PUSH1 0x0 CODECOPY PUSH1 0x0 RETURN INVALID PUSH1 0x80 PUSH1 0x40 MSTORE CALLVALUE DUP1 ISZERO PUSH2 0x10 JUMPI PUSH1 0x0 DUP1 REVERT JUMPDEST POP PUSH1 0x4 CALLDATASIZE LT PUSH2 0x88 JUMPI PUSH1 0x0 CALLDATALOAD PUSH1 0xE0 SHR DUP1 PUSH4 0xCE7C2AC2 GT PUSH2 0x5B JUMPI DUP1 PUSH4 0xCE7C2AC2 EQ PUSH2 0xEF JUMPI DUP1 PUSH4 0xD21220A7 EQ PUSH2 0x11F JUMPI DUP1 PUSH4 0xD826F88F EQ PUSH2 0x13D JUMPI DUP1 PUSH4 0xF2FDE38B EQ PUSH2 0x147 JUMPI PUSH2 0x88 JUMP JUMPDEST DUP1 PUSH4 0x25BE124E EQ PUSH2 0x8D JUMPI DUP1 PUSH4 0x715018A6 EQ PUSH2 0xAB JUMPI DUP1 PUSH4 0x8DA5CB5B EQ PUSH2 0xB5 JUMPI DUP1 PUSH4 0x8FE8BB96 EQ PUSH2 0xD3 JUMPI JUMPDEST PUSH1 0x0 DUP1 REVERT JUMPDEST PUSH2 0x95 PUSH2 0x163 JUMP JUMPDEST PUSH1 0x40 MLOAD PUSH2 0xA2 SWAP2 SWAP1 PUSH2 0x1782 JUMP JUMPDEST PUSH1 0x40 MLOAD DUP1 SWAP2 SUB SWAP1 RETURN JUMPDEST PUSH2 0xB3 PUSH2 0x189 JUMP JUMPDEST STOP JUMPDEST PUSH2 0xBD PUSH2 0x19D JUMP JUMPDEST PUSH1 0x40 MLOAD PUSH2 0xCA SWAP2 SWAP1 PUSH2 0x1782 JUMP JUMPDEST PUSH1 0x40 MLOAD DUP1 SWAP2 SUB SWAP1 RETURN JUMPDEST PUSH2 0xED PUSH1 0x4 DUP1 CALLDATASIZE SUB DUP2 ADD SWAP1 PUSH2 0xE8 SWAP2 SWAP1 PUSH2 0x168F JUMP JUMPDEST PUSH2 0x1C6 JUMP JUMPDEST STOP JUMPDEST PUSH2 0x109 PUSH1 0x4 DUP1 CALLDATASIZE SUB DUP2 ADD SWAP1 PUSH2 0x104 SWAP2 SWAP1 PUSH2 0x1662 JUMP JUMPDEST PUSH2 0x1DA JUMP JUMPDEST PUSH1 0x40 MLOAD PUSH2 0x116 SWAP2 SWAP1 PUSH2 0x181D JUMP JUMPDEST PUSH1 0x40 MLOAD DUP1 SWAP2 SUB SWAP1 RETURN JUMPDEST PUSH2 0x127 PUSH2 0x1F2 JUMP JUMPDEST PUSH1 0x40 MLOAD PUSH2 0x134 SWAP2 SWAP1 PUSH2 0x1782 JUMP JUMPDEST PUSH1 0x40 MLOAD DUP1 SWAP2 SUB SWAP1 RETURN JUMPDEST PUSH2 0x145 PUSH2 0x218 JUMP JUMPDEST STOP JUMPDEST PUSH2 0x161 PUSH1 0x4 DUP1 CALLDATASIZE SUB DUP2 ADD SWAP1 PUSH2 0x15C SWAP2 SWAP1 PUSH2 0x1662 JUMP JUMPDEST PUSH2 0x22A JUMP JUMPDEST STOP JUMPDEST PUSH1 0x2 PUSH1 0x0 SWAP1 SLOAD SWAP1 PUSH2 0x100 EXP SWAP1 DIV PUSH20 0xFFFFFFFFFFFFFFFFFFFFFFFFFFFFFFFFFFFFFFFF AND DUP2 JUMP JUMPDEST PUSH2 0x191 PUSH2 0x2AE JUMP JUMPDEST PUSH2 0x19B PUSH1 0x0 PUSH2 0x32C JUMP JUMPDEST JUMP JUMPDEST PUSH1 0x0 DUP1 PUSH1 0x0 SWAP1 SLOAD SWAP1 PUSH2 0x100 EXP SWAP1 DIV PUSH20 0xFFFFFFFFFFFFFFFFFFFFFFFFFFFFFFFFFFFFFFFF AND SWAP1 POP SWAP1 JUMP JUMPDEST PUSH2 0x1CE PUSH2 0x2AE JUMP JUMPDEST PUSH2 0x1D7 DUP2 PUSH2 0x3F0 JUMP JUMPDEST POP JUMP JUMPDEST PUSH1 0x5 PUSH1 0x20 MSTORE DUP1 PUSH1 0x0 MSTORE PUSH1 0x40 PUSH1 0x0 KECCAK256 PUSH1 0x0 SWAP2 POP SWAP1 POP SLOAD DUP2 JUMP JUMPDEST PUSH1 0x1 PUSH1 0x0 SWAP1 SLOAD SWAP1 PUSH2 0x100 EXP SWAP1 DIV PUSH20 0xFFFFFFFFFFFFFFFFFFFFFFFFFFFFFFFFFFFFFFFF AND DUP2 JUMP JUMPDEST PUSH2 0x220 PUSH2 0x2AE JUMP JUMPDEST PUSH2 0x228 PUSH2 0x48D JUMP JUMPDEST JUMP JUMPDEST PUSH2 0x232 PUSH2 0x2AE JUMP JUMPDEST PUSH1 0x0 PUSH20 0xFFFFFFFFFFFFFFFFFFFFFFFFFFFFFFFFFFFFFFFF AND DUP2 PUSH20 0xFFFFFFFFFFFFFFFFFFFFFFFFFFFFFFFFFFFFFFFF AND EQ ISZERO PUSH2 0x2A2 JUMPI PUSH1 0x40 MLOAD PUSH32 0x8C379A000000000000000000000000000000000000000000000000000000000 DUP2 MSTORE PUSH1 0x4 ADD PUSH2 0x299 SWAP1 PUSH2 0x179D JUMP JUMPDEST PUSH1 0x40 MLOAD DUP1 SWAP2 SUB SWAP1 REVERT JUMPDEST PUSH2 0x2AB DUP2 PUSH2 0x32C JUMP JUMPDEST POP JUMP JUMPDEST PUSH2 0x2B6 PUSH2 0x539 JUMP JUMPDEST PUSH20 0xFFFFFFFFFFFFFFFFFFFFFFFFFFFFFFFFFFFFFFFF AND PUSH2 0x2D4 PUSH2 0x19D JUMP JUMPDEST PUSH20 0xFFFFFFFFFFFFFFFFFFFFFFFFFFFFFFFFFFFFFFFF AND EQ PUSH2 0x32A JUMPI PUSH1 0x40 MLOAD PUSH32 0x8C379A000000000000000000000000000000000000000000000000000000000 DUP2 MSTORE PUSH1 0x4 ADD PUSH2 0x321 SWAP1 PUSH2 0x17DD JUMP JUMPDEST PUSH1 0x40 MLOAD DUP1 SWAP2 SUB SWAP1 REVERT JUMPDEST JUMP JUMPDEST PUSH1 0x0 DUP1 PUSH1 0x0 SWAP1 SLOAD SWAP1 PUSH2 0x100 EXP SWAP1 DIV PUSH20 0xFFFFFFFFFFFFFFFFFFFFFFFFFFFFFFFFFFFFFFFF AND SWAP1 POP DUP2 PUSH1 0x0 DUP1 PUSH2 0x100 EXP DUP2 SLOAD DUP2 PUSH20 0xFFFFFFFFFFFFFFFFFFFFFFFFFFFFFFFFFFFFFFFF MUL NOT AND SWAP1 DUP4 PUSH20 0xFFFFFFFFFFFFFFFFFFFFFFFFFFFFFFFFFFFFFFFF AND MUL OR SWAP1 SSTORE POP DUP2 PUSH20 0xFFFFFFFFFFFFFFFFFFFFFFFFFFFFFFFFFFFFFFFF AND DUP2 PUSH20 0xFFFFFFFFFFFFFFFFFFFFFFFFFFFFFFFFFFFFFFFF AND PUSH32 0x8BE0079C531659141344CD1FD0A4F28419497F9722A3DAAFE3B4186F6B6457E0 PUSH1 0x40 MLOAD PUSH1 0x40 MLOAD DUP1 SWAP2 SUB SWAP1 LOG3 POP POP JUMP JUMPDEST PUSH1 0x3 PUSH1 0x8 DUP2 GT ISZERO PUSH2 0x404 JUMPI PUSH2 0x403 PUSH2 0x1A9D JUMP JUMPDEST JUMPDEST DUP2 PUSH1 0x20 ADD MLOAD PUSH1 0x8 DUP2 GT ISZERO PUSH2 0x41B JUMPI PUSH2 0x41A PUSH2 0x1A9D JUMP JUMPDEST JUMPDEST EQ ISZERO PUSH2 0x48A JUMPI PUSH1 0x0 DUP1 PUSH2 0x439 PUSH1 0x0 DUP5 PUSH1 0x40 ADD MLOAD DUP6 PUSH1 0x40 ADD MLOAD MLOAD PUSH2 0x541 JUMP JUMPDEST SWAP3 POP POP SWAP2 POP DUP2 PUSH2 0x47E JUMPI PUSH1 0x40 MLOAD PUSH32 0x8C379A000000000000000000000000000000000000000000000000000000000 DUP2 MSTORE PUSH1 0x4 ADD PUSH2 0x475 SWAP1 PUSH2 0x17FD JUMP JUMPDEST PUSH1 0x40 MLOAD DUP1 SWAP2 SUB SWAP1 REVERT JUMPDEST PUSH2 0x487 DUP2 PUSH2 0x6FB JUMP JUMPDEST POP POP JUMPDEST POP JUMP JUMPDEST PUSH3 0xF4240 PUSH1 0x0 PUSH2 0x49D SWAP2 SWAP1 PUSH2 0x18DD JUMP JUMPDEST PUSH1 0x6 DUP2 SWAP1 SSTORE POP PUSH1 0x0 PUSH1 0x1 PUSH1 0x0 PUSH2 0x100 EXP DUP2 SLOAD DUP2 PUSH20 0xFFFFFFFFFFFFFFFFFFFFFFFFFFFFFFFFFFFFFFFF MUL NOT AND SWAP1 DUP4 PUSH20 0xFFFFFFFFFFFFFFFFFFFFFFFFFFFFFFFFFFFFFFFF AND MUL OR SWAP1 SSTORE POP PUSH1 0x0 PUSH1 0x2 PUSH1 0x0 PUSH2 0x100 EXP DUP2 SLOAD DUP2 PUSH20 0xFFFFFFFFFFFFFFFFFFFFFFFFFFFFFFFFFFFFFFFF MUL NOT AND SWAP1 DUP4 PUSH20 0xFFFFFFFFFFFFFFFFFFFFFFFFFFFFFFFFFFFFFFFF AND MUL OR SWAP1 SSTORE POP PUSH1 0x0 PUSH1 0x3 DUP2 SWAP1 SSTORE POP PUSH1 0x0 PUSH1 0x4 DUP2 SWAP1 SSTORE POP JUMP JUMPDEST PUSH1 0x0 CALLER SWAP1 POP SWAP1 JUMP JUMPDEST PUSH1 0x0 DUP1 PUSH2 0x54C PUSH2 0x14F0 JUMP JUMPDEST PUSH2 0x554 PUSH2 0x14F0 JUMP JUMPDEST PUSH1 0x0 DUP1 DUP9 SWAP1 POP DUP1 PUSH8 0xFFFFFFFFFFFFFFFF AND DUP8 DUP3 PUSH2 0x571 SWAP2 SWAP1 PUSH2 0x189F JUMP JUMPDEST PUSH8 0xFFFFFFFFFFFFFFFF AND LT ISZERO PUSH2 0x593 JUMPI PUSH1 0x0 DUP2 DUP5 SWAP6 POP SWAP6 POP SWAP6 POP POP POP POP PUSH2 0x6F2 JUMP JUMPDEST JUMPDEST DUP7 PUSH8 0xFFFFFFFFFFFFFFFF AND DUP10 DUP3 PUSH2 0x5AB SWAP2 SWAP1 PUSH2 0x1979 JUMP JUMPDEST PUSH8 0xFFFFFFFFFFFFFFFF AND LT ISZERO PUSH2 0x6AC JUMPI PUSH1 0x0 DUP1 PUSH1 0x0 PUSH2 0x5CA DUP5 DUP13 PUSH2 0x7D8 JUMP JUMPDEST DUP1 SWAP5 POP DUP2 SWAP6 POP DUP3 SWAP8 POP DUP4 SWAP7 POP POP POP POP POP DUP3 PUSH2 0x5F4 JUMPI PUSH1 0x0 DUP5 DUP8 SWAP9 POP SWAP9 POP SWAP9 POP POP POP POP POP POP POP PUSH2 0x6F2 JUMP JUMPDEST PUSH1 0x5 DUP3 PUSH8 0xFFFFFFFFFFFFFFFF AND GT ISZERO PUSH2 0x61C JUMPI PUSH1 0x0 DUP5 DUP8 SWAP9 POP SWAP9 POP SWAP9 POP POP POP POP POP POP POP PUSH2 0x6F2 JUMP JUMPDEST DUP5 PUSH8 0xFFFFFFFFFFFFFFFF AND DUP3 PUSH8 0xFFFFFFFFFFFFFFFF AND GT PUSH2 0x64C JUMPI PUSH1 0x0 DUP5 DUP8 SWAP9 POP SWAP9 POP SWAP9 POP POP POP POP POP POP POP PUSH2 0x6F2 JUMP JUMPDEST PUSH2 0x656 DUP3 DUP3 PUSH2 0x924 JUMP JUMPDEST SWAP3 POP DUP3 PUSH2 0x672 JUMPI PUSH1 0x0 DUP5 DUP8 SWAP9 POP SWAP9 POP SWAP9 POP POP POP POP POP POP POP PUSH2 0x6F2 JUMP JUMPDEST PUSH2 0x67F DUP5 DUP13 DUP13 DUP6 DUP11 PUSH2 0xA7B JUMP JUMPDEST DUP1 SWAP6 POP DUP2 SWAP5 POP POP POP DUP3 PUSH2 0x6A1 JUMPI PUSH1 0x0 DUP5 DUP8 SWAP9 POP SWAP9 POP SWAP9 POP POP POP POP POP POP POP PUSH2 0x6F2 JUMP JUMPDEST DUP2 SWAP5 POP POP POP POP PUSH2 0x594 JUMP JUMPDEST DUP7 DUP10 PUSH2 0x6B8 SWAP2 SWAP1 PUSH2 0x189F JUMP JUMPDEST PUSH8 0xFFFFFFFFFFFFFFFF AND DUP2 PUSH8 0xFFFFFFFFFFFFFFFF AND EQ PUSH2 0x6E4 JUMPI PUSH1 0x0 DUP2 DUP5 SWAP6 POP SWAP6 POP SWAP6 POP POP POP POP PUSH2 0x6F2 JUMP JUMPDEST PUSH1 0x1 DUP2 DUP5 SWAP6 POP SWAP6 POP SWAP6 POP POP POP POP JUMPDEST SWAP4 POP SWAP4 POP SWAP4 SWAP1 POP JUMP JUMPDEST PUSH2 0x708 DUP2 PUSH1 0x0 ADD MLOAD PUSH2 0xC03 JUMP JUMPDEST PUSH1 0x1 PUSH1 0x0 PUSH2 0x100 EXP DUP2 SLOAD DUP2 PUSH20 0xFFFFFFFFFFFFFFFFFFFFFFFFFFFFFFFFFFFFFFFF MUL NOT AND SWAP1 DUP4 PUSH20 0xFFFFFFFFFFFFFFFFFFFFFFFFFFFFFFFFFFFFFFFF AND MUL OR SWAP1 SSTORE POP DUP1 PUSH1 0x40 ADD MLOAD PUSH8 0xFFFFFFFFFFFFFFFF AND PUSH1 0x3 DUP2 SWAP1 SSTORE POP PUSH2 0x76A DUP2 PUSH1 0x20 ADD MLOAD PUSH2 0xC03 JUMP JUMPDEST PUSH1 0x2 PUSH1 0x0 PUSH2 0x100 EXP DUP2 SLOAD DUP2 PUSH20 0xFFFFFFFFFFFFFFFFFFFFFFFFFFFFFFFFFFFFFFFF MUL NOT AND SWAP1 DUP4 PUSH20 0xFFFFFFFFFFFFFFFFFFFFFFFFFFFFFFFFFFFFFFFF AND MUL OR SWAP1 SSTORE POP DUP1 PUSH1 0x60 ADD MLOAD PUSH8 0xFFFFFFFFFFFFFFFF AND PUSH1 0x3 DUP2 SWAP1 SSTORE POP PUSH3 0xF4240 PUSH1 0x0 PUSH2 0x7CF SWAP2 SWAP1 PUSH2 0x18DD JUMP JUMPDEST PUSH1 0x6 DUP2 SWAP1 SSTORE POP POP JUMP JUMPDEST PUSH1 0x0 DUP1 PUSH1 0x0 DUP1 PUSH1 0x0 DUP1 PUSH1 0x0 PUSH2 0x7ED DUP10 DUP10 PUSH2 0xC5B JUMP JUMPDEST SWAP3 POP SWAP3 POP SWAP3 POP DUP3 PUSH2 0x80F JUMPI PUSH1 0x0 DUP3 PUSH1 0x0 PUSH1 0x6 SWAP7 POP SWAP7 POP SWAP7 POP SWAP7 POP POP POP POP PUSH2 0x91B JUMP JUMPDEST PUSH1 0x0 PUSH1 0x3 DUP3 PUSH8 0xFFFFFFFFFFFFFFFF AND SWAP1 SHR SWAP1 POP PUSH1 0x0 PUSH1 0x7 DUP4 AND SWAP1 POP PUSH1 0x6 DUP1 DUP2 GT ISZERO PUSH2 0x83D JUMPI PUSH2 0x83C PUSH2 0x1A9D JUMP JUMPDEST JUMPDEST PUSH8 0xFFFFFFFFFFFFFFFF AND DUP2 PUSH8 0xFFFFFFFFFFFFFFFF AND LT PUSH2 0x870 JUMPI PUSH1 0x0 DUP5 PUSH1 0x0 PUSH1 0x6 SWAP9 POP SWAP9 POP SWAP9 POP SWAP9 POP POP POP POP POP POP PUSH2 0x91B JUMP JUMPDEST PUSH1 0x0 DUP2 PUSH8 0xFFFFFFFFFFFFFFFF AND PUSH1 0x6 DUP2 GT ISZERO PUSH2 0x88F JUMPI PUSH2 0x88E PUSH2 0x1A9D JUMP JUMPDEST JUMPDEST SWAP1 POP PUSH1 0x3 PUSH1 0x6 DUP2 GT ISZERO PUSH2 0x8A5 JUMPI PUSH2 0x8A4 PUSH2 0x1A9D JUMP JUMPDEST JUMPDEST DUP2 PUSH1 0x6 DUP2 GT ISZERO PUSH2 0x8B8 JUMPI PUSH2 0x8B7 PUSH2 0x1A9D JUMP JUMPDEST JUMPDEST EQ DUP1 PUSH2 0x8E8 JUMPI POP PUSH1 0x4 PUSH1 0x6 DUP2 GT ISZERO PUSH2 0x8D3 JUMPI PUSH2 0x8D2 PUSH2 0x1A9D JUMP JUMPDEST JUMPDEST DUP2 PUSH1 0x6 DUP2 GT ISZERO PUSH2 0x8E6 JUMPI PUSH2 0x8E5 PUSH2 0x1A9D JUMP JUMPDEST JUMPDEST EQ JUMPDEST ISZERO PUSH2 0x907 JUMPI PUSH1 0x0 DUP6 PUSH1 0x0 PUSH1 0x6 SWAP10 POP SWAP10 POP SWAP10 POP SWAP10 POP POP POP POP POP POP POP PUSH2 0x91B JUMP JUMPDEST PUSH1 0x1 DUP6 DUP5 DUP4 SWAP10 POP SWAP10 POP SWAP10 POP SWAP10 POP POP POP POP POP POP POP JUMPDEST SWAP3 SWAP6 SWAP2 SWAP5 POP SWAP3 POP JUMP JUMPDEST PUSH1 0x0 PUSH1 0x1 DUP4 PUSH8 0xFFFFFFFFFFFFFFFF AND EQ ISZERO PUSH2 0x968 JUMPI PUSH1 0x2 PUSH1 0x6 DUP2 GT ISZERO PUSH2 0x94D JUMPI PUSH2 0x94C PUSH2 0x1A9D JUMP JUMPDEST JUMPDEST DUP3 PUSH1 0x6 DUP2 GT ISZERO PUSH2 0x960 JUMPI PUSH2 0x95F PUSH2 0x1A9D JUMP JUMPDEST JUMPDEST EQ SWAP1 POP PUSH2 0xA75 JUMP JUMPDEST PUSH1 0x2 DUP4 PUSH8 0xFFFFFFFFFFFFFFFF AND EQ ISZERO PUSH2 0x9AA JUMPI PUSH1 0x2 PUSH1 0x6 DUP2 GT ISZERO PUSH2 0x98F JUMPI PUSH2 0x98E PUSH2 0x1A9D JUMP JUMPDEST JUMPDEST DUP3 PUSH1 0x6 DUP2 GT ISZERO PUSH2 0x9A2 JUMPI PUSH2 0x9A1 PUSH2 0x1A9D JUMP JUMPDEST JUMPDEST EQ SWAP1 POP PUSH2 0xA75 JUMP JUMPDEST PUSH1 0x3 DUP4 PUSH8 0xFFFFFFFFFFFFFFFF AND EQ ISZERO PUSH2 0x9EC JUMPI PUSH1 0x0 PUSH1 0x6 DUP2 GT ISZERO PUSH2 0x9D1 JUMPI PUSH2 0x9D0 PUSH2 0x1A9D JUMP JUMPDEST JUMPDEST DUP3 PUSH1 0x6 DUP2 GT ISZERO PUSH2 0x9E4 JUMPI PUSH2 0x9E3 PUSH2 0x1A9D JUMP JUMPDEST JUMPDEST EQ SWAP1 POP PUSH2 0xA75 JUMP JUMPDEST PUSH1 0x4 DUP4 PUSH8 0xFFFFFFFFFFFFFFFF AND EQ ISZERO PUSH2 0xA2E JUMPI PUSH1 0x0 PUSH1 0x6 DUP2 GT ISZERO PUSH2 0xA13 JUMPI PUSH2 0xA12 PUSH2 0x1A9D JUMP JUMPDEST JUMPDEST DUP3 PUSH1 0x6 DUP2 GT ISZERO PUSH2 0xA26 JUMPI PUSH2 0xA25 PUSH2 0x1A9D JUMP JUMPDEST JUMPDEST EQ SWAP1 POP PUSH2 0xA75 JUMP JUMPDEST PUSH1 0x5 DUP4 PUSH8 0xFFFFFFFFFFFFFFFF AND EQ ISZERO PUSH2 0xA70 JUMPI PUSH1 0x2 PUSH1 0x6 DUP2 GT ISZERO PUSH2 0xA55 JUMPI PUSH2 0xA54 PUSH2 0x1A9D JUMP JUMPDEST JUMPDEST DUP3 PUSH1 0x6 DUP2 GT ISZERO PUSH2 0xA68 JUMPI PUSH2 0xA67 PUSH2 0x1A9D JUMP JUMPDEST JUMPDEST EQ SWAP1 POP PUSH2 0xA75 JUMP JUMPDEST PUSH1 0x0 SWAP1 POP JUMPDEST SWAP3 SWAP2 POP POP JUMP JUMPDEST PUSH1 0x0 DUP1 PUSH1 0x0 DUP8 SWAP1 POP PUSH1 0x1 DUP6 PUSH8 0xFFFFFFFFFFFFFFFF AND EQ ISZERO PUSH2 0xACC JUMPI PUSH1 0x0 PUSH2 0xAA3 DUP3 DUP10 DUP8 PUSH2 0xE53 JUMP JUMPDEST DUP1 SWAP4 POP DUP2 SWAP3 POP POP POP DUP1 PUSH2 0xABE JUMPI PUSH1 0x0 DUP3 SWAP4 POP SWAP4 POP POP POP PUSH2 0xBF9 JUMP JUMPDEST PUSH1 0x1 DUP3 SWAP4 POP SWAP4 POP POP POP PUSH2 0xBF9 JUMP JUMPDEST PUSH1 0x2 DUP6 PUSH8 0xFFFFFFFFFFFFFFFF AND EQ ISZERO PUSH2 0xB15 JUMPI PUSH1 0x0 PUSH2 0xAEC DUP3 DUP10 DUP8 PUSH2 0xFD8 JUMP JUMPDEST DUP1 SWAP4 POP DUP2 SWAP3 POP POP POP DUP1 PUSH2 0xB07 JUMPI PUSH1 0x0 DUP3 SWAP4 POP SWAP4 POP POP POP PUSH2 0xBF9 JUMP JUMPDEST PUSH1 0x1 DUP3 SWAP4 POP SWAP4 POP POP POP PUSH2 0xBF9 JUMP JUMPDEST PUSH1 0x3 DUP6 PUSH8 0xFFFFFFFFFFFFFFFF AND EQ ISZERO PUSH2 0xB5E JUMPI PUSH1 0x0 PUSH2 0xB35 DUP3 DUP10 DUP8 PUSH2 0x115D JUMP JUMPDEST DUP1 SWAP4 POP DUP2 SWAP3 POP POP POP DUP1 PUSH2 0xB50 JUMPI PUSH1 0x0 DUP3 SWAP4 POP SWAP4 POP POP POP PUSH2 0xBF9 JUMP JUMPDEST PUSH1 0x1 DUP3 SWAP4 POP SWAP4 POP POP POP PUSH2 0xBF9 JUMP JUMPDEST PUSH1 0x4 DUP6 PUSH8 0xFFFFFFFFFFFFFFFF AND EQ ISZERO PUSH2 0xBA7 JUMPI PUSH1 0x0 PUSH2 0xB7E DUP3 DUP10 DUP8 PUSH2 0x11DF JUMP JUMPDEST DUP1 SWAP4 POP DUP2 SWAP3 POP POP POP DUP1 PUSH2 0xB99 JUMPI PUSH1 0x0 DUP3 SWAP4 POP SWAP4 POP POP POP PUSH2 0xBF9 JUMP JUMPDEST PUSH1 0x1 DUP3 SWAP4 POP SWAP4 POP POP POP PUSH2 0xBF9 JUMP JUMPDEST PUSH1 0x5 DUP6 PUSH8 0xFFFFFFFFFFFFFFFF AND EQ ISZERO PUSH2 0xBF0 JUMPI PUSH1 0x0 PUSH2 0xBC7 DUP3 DUP10 DUP8 PUSH2 0x1261 JUMP JUMPDEST DUP1 SWAP4 POP DUP2 SWAP3 POP POP POP DUP1 PUSH2 0xBE2 JUMPI PUSH1 0x0 DUP3 SWAP4 POP SWAP4 POP POP POP PUSH2 0xBF9 JUMP JUMPDEST PUSH1 0x1 DUP3 SWAP4 POP SWAP4 POP POP POP PUSH2 0xBF9 JUMP JUMPDEST PUSH1 0x0 DUP2 SWAP3 POP SWAP3 POP POP JUMPDEST SWAP6 POP SWAP6 SWAP4 POP POP POP POP JUMP JUMPDEST PUSH1 0x0 PUSH1 0x14 DUP3 MLOAD EQ PUSH2 0xC49 JUMPI PUSH1 0x40 MLOAD PUSH32 0x8C379A000000000000000000000000000000000000000000000000000000000 DUP2 MSTORE PUSH1 0x4 ADD PUSH2 0xC40 SWAP1 PUSH2 0x17BD JUMP JUMPDEST PUSH1 0x40 MLOAD DUP1 SWAP2 SUB SWAP1 REVERT JUMPDEST PUSH1 0x0 PUSH1 0x14 DUP4 ADD MLOAD SWAP1 POP DUP1 SWAP2 POP POP SWAP2 SWAP1 POP JUMP JUMPDEST PUSH1 0x0 DUP1 PUSH1 0x0 DUP1 PUSH1 0x0 JUMPDEST PUSH1 0xA PUSH8 0xFFFFFFFFFFFFFFFF AND DUP2 PUSH8 0xFFFFFFFFFFFFFFFF AND LT ISZERO PUSH2 0xD7E JUMPI DUP6 MLOAD DUP8 DUP3 PUSH2 0xC8F SWAP2 SWAP1 PUSH2 0x189F JUMP JUMPDEST PUSH8 0xFFFFFFFFFFFFFFFF AND LT PUSH2 0xCB0 JUMPI PUSH1 0x0 DUP8 PUSH1 0x0 SWAP5 POP SWAP5 POP SWAP5 POP POP POP PUSH2 0xE4C JUMP JUMPDEST PUSH1 0x0 DUP7 DUP3 DUP10 PUSH2 0xCBF SWAP2 SWAP1 PUSH2 0x189F JUMP JUMPDEST PUSH8 0xFFFFFFFFFFFFFFFF AND DUP2 MLOAD DUP2 LT PUSH2 0xCDA JUMPI PUSH2 0xCD9 PUSH2 0x1ACC JUMP JUMPDEST JUMPDEST PUSH1 0x20 ADD ADD MLOAD PUSH1 0xF8 SHR PUSH1 0xF8 SHL PUSH1 0xF8 SHR SWAP1 POP PUSH1 0x0 PUSH1 0x7F DUP3 AND SWAP1 POP PUSH1 0x7 DUP4 PUSH2 0xCFF SWAP2 SWAP1 PUSH2 0x1937 JUMP JUMPDEST PUSH8 0xFFFFFFFFFFFFFFFF AND DUP2 PUSH1 0xFF AND PUSH8 0xFFFFFFFFFFFFFFFF AND SWAP1 SHL DUP5 OR SWAP4 POP PUSH1 0x0 PUSH1 0x80 DUP4 AND PUSH1 0xFF AND EQ ISZERO PUSH2 0xD69 JUMPI PUSH1 0x0 DUP4 PUSH8 0xFFFFFFFFFFFFFFFF AND GT DUP1 ISZERO PUSH2 0xD49 JUMPI POP PUSH1 0x0 DUP2 PUSH1 0xFF AND EQ JUMPDEST ISZERO PUSH2 0xD62 JUMPI PUSH1 0x0 DUP10 PUSH1 0x0 SWAP7 POP SWAP7 POP SWAP7 POP POP POP POP POP PUSH2 0xE4C JUMP JUMPDEST POP POP PUSH2 0xD7E JUMP JUMPDEST POP POP DUP1 DUP1 PUSH2 0xD76 SWAP1 PUSH2 0x1A3D JUMP JUMPDEST SWAP2 POP POP PUSH2 0xC64 JUMP JUMPDEST PUSH1 0xA PUSH8 0xFFFFFFFFFFFFFFFF AND DUP2 PUSH8 0xFFFFFFFFFFFFFFFF AND LT PUSH2 0xDAC JUMPI PUSH1 0x0 DUP8 PUSH1 0x0 SWAP5 POP SWAP5 POP SWAP5 POP POP POP PUSH2 0xE4C JUMP JUMPDEST PUSH1 0x1 PUSH1 0xA PUSH2 0xDBA SWAP2 SWAP1 PUSH2 0x1979 JUMP JUMPDEST PUSH8 0xFFFFFFFFFFFFFFFF AND DUP2 PUSH8 0xFFFFFFFFFFFFFFFF AND EQ ISZERO PUSH2 0xE29 JUMPI PUSH1 0x1 DUP7 DUP3 DUP10 PUSH2 0xDE4 SWAP2 SWAP1 PUSH2 0x189F JUMP JUMPDEST PUSH8 0xFFFFFFFFFFFFFFFF AND DUP2 MLOAD DUP2 LT PUSH2 0xDFF JUMPI PUSH2 0xDFE PUSH2 0x1ACC JUMP JUMPDEST JUMPDEST PUSH1 0x20 ADD ADD MLOAD PUSH1 0xF8 SHR PUSH1 0xF8 SHL PUSH1 0xF8 SHR PUSH1 0xFF AND GT ISZERO PUSH2 0xE28 JUMPI PUSH1 0x0 DUP8 PUSH1 0x0 SWAP5 POP SWAP5 POP SWAP5 POP POP POP PUSH2 0xE4C JUMP JUMPDEST JUMPDEST PUSH1 0x1 DUP1 DUP3 DUP10 PUSH2 0xE38 SWAP2 SWAP1 PUSH2 0x189F JUMP JUMPDEST PUSH2 0xE42 SWAP2 SWAP1 PUSH2 0x189F JUMP JUMPDEST DUP4 SWAP5 POP SWAP5 POP SWAP5 POP POP POP JUMPDEST SWAP3 POP SWAP3 POP SWAP3 JUMP JUMPDEST PUSH1 0x0 DUP1 PUSH1 0x0 DUP1 PUSH2 0xE63 DUP8 DUP8 PUSH2 0x13E6 JUMP JUMPDEST DUP1 SWAP4 POP DUP2 SWAP10 POP DUP3 SWAP5 POP POP POP POP DUP2 PUSH2 0xE82 JUMPI PUSH1 0x0 DUP8 SWAP4 POP SWAP4 POP POP POP PUSH2 0xFD0 JUMP JUMPDEST PUSH1 0x0 DUP2 PUSH8 0xFFFFFFFFFFFFFFFF AND EQ ISZERO PUSH2 0xEA3 JUMPI PUSH1 0x0 DUP8 SWAP4 POP SWAP4 POP POP POP PUSH2 0xFD0 JUMP JUMPDEST DUP1 PUSH8 0xFFFFFFFFFFFFFFFF AND PUSH8 0xFFFFFFFFFFFFFFFF DUP2 GT ISZERO PUSH2 0xEC7 JUMPI PUSH2 0xEC6 PUSH2 0x1AFB JUMP JUMPDEST JUMPDEST PUSH1 0x40 MLOAD SWAP1 DUP1 DUP3 MSTORE DUP1 PUSH1 0x1F ADD PUSH1 0x1F NOT AND PUSH1 0x20 ADD DUP3 ADD PUSH1 0x40 MSTORE DUP1 ISZERO PUSH2 0xEF9 JUMPI DUP2 PUSH1 0x20 ADD PUSH1 0x1 DUP3 MUL DUP1 CALLDATASIZE DUP4 CALLDATACOPY DUP1 DUP3 ADD SWAP2 POP POP SWAP1 POP JUMPDEST POP DUP6 PUSH1 0x0 ADD DUP2 SWAP1 MSTORE POP PUSH1 0x0 JUMPDEST DUP2 PUSH8 0xFFFFFFFFFFFFFFFF AND DUP2 PUSH8 0xFFFFFFFFFFFFFFFF AND LT ISZERO PUSH2 0xFB7 JUMPI DUP7 DUP2 DUP10 PUSH2 0xF2E SWAP2 SWAP1 PUSH2 0x189F JUMP JUMPDEST PUSH8 0xFFFFFFFFFFFFFFFF AND DUP2 MLOAD DUP2 LT PUSH2 0xF49 JUMPI PUSH2 0xF48 PUSH2 0x1ACC JUMP JUMPDEST JUMPDEST PUSH1 0x20 ADD ADD MLOAD PUSH1 0xF8 SHR PUSH1 0xF8 SHL DUP7 PUSH1 0x0 ADD MLOAD DUP3 PUSH8 0xFFFFFFFFFFFFFFFF AND DUP2 MLOAD DUP2 LT PUSH2 0xF75 JUMPI PUSH2 0xF74 PUSH2 0x1ACC JUMP JUMPDEST JUMPDEST PUSH1 0x20 ADD ADD SWAP1 PUSH31 0xFFFFFFFFFFFFFFFFFFFFFFFFFFFFFFFFFFFFFFFFFFFFFFFFFFFFFFFFFFFFFF NOT AND SWAP1 DUP2 PUSH1 0x0 BYTE SWAP1 MSTORE8 POP DUP1 DUP1 PUSH2 0xFAF SWAP1 PUSH2 0x1A3D JUMP JUMPDEST SWAP2 POP POP PUSH2 0xF05 JUMP JUMPDEST POP DUP1 DUP8 PUSH2 0xFC4 SWAP2 SWAP1 PUSH2 0x189F JUMP JUMPDEST SWAP7 POP PUSH1 0x1 DUP8 SWAP4 POP SWAP4 POP POP POP JUMPDEST SWAP4 POP SWAP4 SWAP2 POP POP JUMP JUMPDEST PUSH1 0x0 DUP1 PUSH1 0x0 DUP1 PUSH2 0xFE8 DUP8 DUP8 PUSH2 0x13E6 JUMP JUMPDEST DUP1 SWAP4 POP DUP2 SWAP10 POP DUP3 SWAP5 POP POP POP POP DUP2 PUSH2 0x1007 JUMPI PUSH1 0x0 DUP8 SWAP4 POP SWAP4 POP POP POP PUSH2 0x1155 JUMP JUMPDEST PUSH1 0x0 DUP2 PUSH8 0xFFFFFFFFFFFFFFFF AND EQ ISZERO PUSH2 0x1028 JUMPI PUSH1 0x0 DUP8 SWAP4 POP SWAP4 POP POP POP PUSH2 0x1155 JUMP JUMPDEST DUP1 PUSH8 0xFFFFFFFFFFFFFFFF AND PUSH8 0xFFFFFFFFFFFFFFFF DUP2 GT ISZERO PUSH2 0x104C JUMPI PUSH2 0x104B PUSH2 0x1AFB JUMP JUMPDEST JUMPDEST PUSH1 0x40 MLOAD SWAP1 DUP1 DUP3 MSTORE DUP1 PUSH1 0x1F ADD PUSH1 0x1F NOT AND PUSH1 0x20 ADD DUP3 ADD PUSH1 0x40 MSTORE DUP1 ISZERO PUSH2 0x107E JUMPI DUP2 PUSH1 0x20 ADD PUSH1 0x1 DUP3 MUL DUP1 CALLDATASIZE DUP4 CALLDATACOPY DUP1 DUP3 ADD SWAP2 POP POP SWAP1 POP JUMPDEST POP DUP6 PUSH1 0x20 ADD DUP2 SWAP1 MSTORE POP PUSH1 0x0 JUMPDEST DUP2 PUSH8 0xFFFFFFFFFFFFFFFF AND DUP2 PUSH8 0xFFFFFFFFFFFFFFFF AND LT ISZERO PUSH2 0x113C JUMPI DUP7 DUP2 DUP10 PUSH2 0x10B3 SWAP2 SWAP1 PUSH2 0x189F JUMP JUMPDEST PUSH8 0xFFFFFFFFFFFFFFFF AND DUP2 MLOAD DUP2 LT PUSH2 0x10CE JUMPI PUSH2 0x10CD PUSH2 0x1ACC JUMP JUMPDEST JUMPDEST PUSH1 0x20 ADD ADD MLOAD PUSH1 0xF8 SHR PUSH1 0xF8 SHL DUP7 PUSH1 0x20 ADD MLOAD DUP3 PUSH8 0xFFFFFFFFFFFFFFFF AND DUP2 MLOAD DUP2 LT PUSH2 0x10FA JUMPI PUSH2 0x10F9 PUSH2 0x1ACC JUMP JUMPDEST JUMPDEST PUSH1 0x20 ADD ADD SWAP1 PUSH31 0xFFFFFFFFFFFFFFFFFFFFFFFFFFFFFFFFFFFFFFFFFFFFFFFFFFFFFFFFFFFFFF NOT AND SWAP1 DUP2 PUSH1 0x0 BYTE SWAP1 MSTORE8 POP DUP1 DUP1 PUSH2 0x1134 SWAP1 PUSH2 0x1A3D JUMP JUMPDEST SWAP2 POP POP PUSH2 0x108A JUMP JUMPDEST POP DUP1 DUP8 PUSH2 0x1149 SWAP2 SWAP1 PUSH2 0x189F JUMP JUMPDEST SWAP7 POP PUSH1 0x1 DUP8 SWAP4 POP SWAP4 POP POP POP JUMPDEST SWAP4 POP SWAP4 SWAP2 POP POP JUMP JUMPDEST PUSH1 0x0 DUP1 PUSH1 0x0 DUP1 PUSH2 0x116D DUP8 DUP8 PUSH2 0x1402 JUMP JUMPDEST DUP1 SWAP4 POP DUP2 SWAP10 POP DUP3 SWAP5 POP POP POP POP DUP2 PUSH2 0x118C JUMPI PUSH1 0x0 DUP8 SWAP4 POP SWAP4 POP POP POP PUSH2 0x11D7 JUMP JUMPDEST PUSH1 0x0 DUP2 PUSH8 0xFFFFFFFFFFFFFFFF AND EQ ISZERO PUSH2 0x11AD JUMPI PUSH1 0x0 DUP8 SWAP4 POP SWAP4 POP POP POP PUSH2 0x11D7 JUMP JUMPDEST DUP1 DUP6 PUSH1 0x40 ADD SWAP1 PUSH8 0xFFFFFFFFFFFFFFFF AND SWAP1 DUP2 PUSH8 0xFFFFFFFFFFFFFFFF AND DUP2 MSTORE POP POP PUSH1 0x1 DUP8 SWAP4 POP SWAP4 POP POP POP JUMPDEST SWAP4 POP SWAP4 SWAP2 POP POP JUMP JUMPDEST PUSH1 0x0 DUP1 PUSH1 0x0 DUP1 PUSH2 0x11EF DUP8 DUP8 PUSH2 0x1402 JUMP JUMPDEST DUP1 SWAP4 POP DUP2 SWAP10 POP DUP3 SWAP5 POP POP POP POP DUP2 PUSH2 0x120E JUMPI PUSH1 0x0 DUP8 SWAP4 POP SWAP4 POP POP POP PUSH2 0x1259 JUMP JUMPDEST PUSH1 0x0 DUP2 PUSH8 0xFFFFFFFFFFFFFFFF AND EQ ISZERO PUSH2 0x122F JUMPI PUSH1 0x0 DUP8 SWAP4 POP SWAP4 POP POP POP PUSH2 0x1259 JUMP JUMPDEST DUP1 DUP6 PUSH1 0x60 ADD SWAP1 PUSH8 0xFFFFFFFFFFFFFFFF AND SWAP1 DUP2 PUSH8 0xFFFFFFFFFFFFFFFF AND DUP2 MSTORE POP POP PUSH1 0x1 DUP8 SWAP4 POP SWAP4 POP POP POP JUMPDEST SWAP4 POP SWAP4 SWAP2 POP POP JUMP JUMPDEST PUSH1 0x0 DUP1 PUSH1 0x0 DUP1 PUSH2 0x1271 DUP8 DUP8 PUSH2 0x13E6 JUMP JUMPDEST DUP1 SWAP4 POP DUP2 SWAP10 POP DUP3 SWAP5 POP POP POP POP DUP2 PUSH2 0x1290 JUMPI PUSH1 0x0 DUP8 SWAP4 POP SWAP4 POP POP POP PUSH2 0x13DE JUMP JUMPDEST PUSH1 0x0 DUP2 PUSH8 0xFFFFFFFFFFFFFFFF AND EQ ISZERO PUSH2 0x12B1 JUMPI PUSH1 0x0 DUP8 SWAP4 POP SWAP4 POP POP POP PUSH2 0x13DE JUMP JUMPDEST DUP1 PUSH8 0xFFFFFFFFFFFFFFFF AND PUSH8 0xFFFFFFFFFFFFFFFF DUP2 GT ISZERO PUSH2 0x12D5 JUMPI PUSH2 0x12D4 PUSH2 0x1AFB JUMP JUMPDEST JUMPDEST PUSH1 0x40 MLOAD SWAP1 DUP1 DUP3 MSTORE DUP1 PUSH1 0x1F ADD PUSH1 0x1F NOT AND PUSH1 0x20 ADD DUP3 ADD PUSH1 0x40 MSTORE DUP1 ISZERO PUSH2 0x1307 JUMPI DUP2 PUSH1 0x20 ADD PUSH1 0x1 DUP3 MUL DUP1 CALLDATASIZE DUP4 CALLDATACOPY DUP1 DUP3 ADD SWAP2 POP POP SWAP1 POP JUMPDEST POP DUP6 PUSH1 0x80 ADD DUP2 SWAP1 MSTORE POP PUSH1 0x0 JUMPDEST DUP2 PUSH8 0xFFFFFFFFFFFFFFFF AND DUP2 PUSH8 0xFFFFFFFFFFFFFFFF AND LT ISZERO PUSH2 0x13C5 JUMPI DUP7 DUP2 DUP10 PUSH2 0x133C SWAP2 SWAP1 PUSH2 0x189F JUMP JUMPDEST PUSH8 0xFFFFFFFFFFFFFFFF AND DUP2 MLOAD DUP2 LT PUSH2 0x1357 JUMPI PUSH2 0x1356 PUSH2 0x1ACC JUMP JUMPDEST JUMPDEST PUSH1 0x20 ADD ADD MLOAD PUSH1 0xF8 SHR PUSH1 0xF8 SHL DUP7 PUSH1 0x80 ADD MLOAD DUP3 PUSH8 0xFFFFFFFFFFFFFFFF AND DUP2 MLOAD DUP2 LT PUSH2 0x1383 JUMPI PUSH2 0x1382 PUSH2 0x1ACC JUMP JUMPDEST JUMPDEST PUSH1 0x20 ADD ADD SWAP1 PUSH31 0xFFFFFFFFFFFFFFFFFFFFFFFFFFFFFFFFFFFFFFFFFFFFFFFFFFFFFFFFFFFFFF NOT AND SWAP1 DUP2 PUSH1 0x0 BYTE SWAP1 MSTORE8 POP DUP1 DUP1 PUSH2 0x13BD SWAP1 PUSH2 0x1A3D JUMP JUMPDEST SWAP2 POP POP PUSH2 0x1313 JUMP JUMPDEST POP DUP1 DUP8 PUSH2 0x13D2 SWAP2 SWAP1 PUSH2 0x189F JUMP JUMPDEST SWAP7 POP PUSH1 0x1 DUP8 SWAP4 POP SWAP4 POP POP POP JUMPDEST SWAP4 POP SWAP4 SWAP2 POP POP JUMP JUMPDEST PUSH1 0x0 DUP1 PUSH1 0x0 PUSH2 0x13F5 DUP6 DUP6 PUSH2 0x1448 JUMP JUMPDEST SWAP3 POP SWAP3 POP SWAP3 POP SWAP3 POP SWAP3 POP SWAP3 JUMP JUMPDEST PUSH1 0x0 DUP1 PUSH1 0x0 DUP1 PUSH1 0x0 DUP1 PUSH2 0x1415 DUP9 DUP9 PUSH2 0xC5B JUMP JUMPDEST SWAP3 POP SWAP3 POP SWAP3 POP DUP3 PUSH2 0x1433 JUMPI PUSH1 0x0 DUP3 PUSH1 0x0 SWAP6 POP SWAP6 POP SWAP6 POP POP POP POP PUSH2 0x1441 JUMP JUMPDEST PUSH1 0x1 DUP3 DUP3 SWAP6 POP SWAP6 POP SWAP6 POP POP POP POP JUMPDEST SWAP3 POP SWAP3 POP SWAP3 JUMP JUMPDEST PUSH1 0x0 DUP1 PUSH1 0x0 DUP1 PUSH1 0x0 DUP1 PUSH2 0x145B DUP9 DUP9 PUSH2 0xC5B JUMP JUMPDEST SWAP3 POP SWAP3 POP SWAP3 POP DUP3 PUSH2 0x1479 JUMPI PUSH1 0x0 DUP3 PUSH1 0x0 SWAP6 POP SWAP6 POP SWAP6 POP POP POP POP PUSH2 0x14E9 JUMP JUMPDEST DUP2 PUSH8 0xFFFFFFFFFFFFFFFF AND DUP2 DUP4 ADD PUSH8 0xFFFFFFFFFFFFFFFF AND LT ISZERO PUSH2 0x14AA JUMPI PUSH1 0x0 DUP3 PUSH1 0x0 SWAP6 POP SWAP6 POP SWAP6 POP POP POP POP PUSH2 0x14E9 JUMP JUMPDEST DUP7 MLOAD DUP3 DUP3 PUSH2 0x14B8 SWAP2 SWAP1 PUSH2 0x189F JUMP JUMPDEST PUSH8 0xFFFFFFFFFFFFFFFF AND GT ISZERO PUSH2 0x14DB JUMPI PUSH1 0x0 DUP3 PUSH1 0x0 SWAP6 POP SWAP6 POP SWAP6 POP POP POP POP PUSH2 0x14E9 JUMP JUMPDEST PUSH1 0x1 DUP3 DUP3 SWAP6 POP SWAP6 POP SWAP6 POP POP POP POP JUMPDEST SWAP3 POP SWAP3 POP SWAP3 JUMP JUMPDEST PUSH1 0x40 MLOAD DUP1 PUSH1 0xA0 ADD PUSH1 0x40 MSTORE DUP1 PUSH1 0x60 DUP2 MSTORE PUSH1 0x20 ADD PUSH1 0x60 DUP2 MSTORE PUSH1 0x20 ADD PUSH1 0x0 PUSH8 0xFFFFFFFFFFFFFFFF AND DUP2 MSTORE PUSH1 0x20 ADD PUSH1 0x0 PUSH8 0xFFFFFFFFFFFFFFFF AND DUP2 MSTORE PUSH1 0x20 ADD PUSH1 0x60 DUP2 MSTORE POP SWAP1 JUMP JUMPDEST PUSH1 0x0 PUSH2 0x1546 PUSH2 0x1541 DUP5 PUSH2 0x185D JUMP JUMPDEST PUSH2 0x1838 JUMP JUMPDEST SWAP1 POP DUP3 DUP2 MSTORE PUSH1 0x20 DUP2 ADD DUP5 DUP5 DUP5 ADD GT ISZERO PUSH2 0x1562 JUMPI PUSH2 0x1561 PUSH2 0x1B39 JUMP JUMPDEST JUMPDEST PUSH2 0x156D DUP5 DUP3 DUP6 PUSH2 0x19FD JUMP JUMPDEST POP SWAP4 SWAP3 POP POP POP JUMP JUMPDEST PUSH1 0x0 DUP2 CALLDATALOAD SWAP1 POP PUSH2 0x1584 DUP2 PUSH2 0x1C49 JUMP JUMPDEST SWAP3 SWAP2 POP POP JUMP JUMPDEST PUSH1 0x0 DUP3 PUSH1 0x1F DUP4 ADD SLT PUSH2 0x159F JUMPI PUSH2 0x159E PUSH2 0x1B2A JUMP JUMPDEST JUMPDEST DUP2 CALLDATALOAD PUSH2 0x15AF DUP5 DUP3 PUSH1 0x20 DUP7 ADD PUSH2 0x1533 JUMP JUMPDEST SWAP2 POP POP SWAP3 SWAP2 POP POP JUMP JUMPDEST PUSH1 0x0 DUP2 CALLDATALOAD SWAP1 POP PUSH2 0x15C7 DUP2 PUSH2 0x1C60 JUMP JUMPDEST SWAP3 SWAP2 POP POP JUMP JUMPDEST PUSH1 0x0 PUSH1 0x60 DUP3 DUP5 SUB SLT ISZERO PUSH2 0x15E3 JUMPI PUSH2 0x15E2 PUSH2 0x1B2F JUMP JUMPDEST JUMPDEST PUSH2 0x15ED PUSH1 0x60 PUSH2 0x1838 JUMP JUMPDEST SWAP1 POP PUSH1 0x0 PUSH2 0x15FD DUP5 DUP3 DUP6 ADD PUSH2 0x164D JUMP JUMPDEST PUSH1 0x0 DUP4 ADD MSTORE POP PUSH1 0x20 PUSH2 0x1611 DUP5 DUP3 DUP6 ADD PUSH2 0x15B8 JUMP JUMPDEST PUSH1 0x20 DUP4 ADD MSTORE POP PUSH1 0x40 DUP3 ADD CALLDATALOAD PUSH8 0xFFFFFFFFFFFFFFFF DUP2 GT ISZERO PUSH2 0x1635 JUMPI PUSH2 0x1634 PUSH2 0x1B34 JUMP JUMPDEST JUMPDEST PUSH2 0x1641 DUP5 DUP3 DUP6 ADD PUSH2 0x158A JUMP JUMPDEST PUSH1 0x40 DUP4 ADD MSTORE POP SWAP3 SWAP2 POP POP JUMP JUMPDEST PUSH1 0x0 DUP2 CALLDATALOAD SWAP1 POP PUSH2 0x165C DUP2 PUSH2 0x1C70 JUMP JUMPDEST SWAP3 SWAP2 POP POP JUMP JUMPDEST PUSH1 0x0 PUSH1 0x20 DUP3 DUP5 SUB SLT ISZERO PUSH2 0x1678 JUMPI PUSH2 0x1677 PUSH2 0x1B43 JUMP JUMPDEST JUMPDEST PUSH1 0x0 PUSH2 0x1686 DUP5 DUP3 DUP6 ADD PUSH2 0x1575 JUMP JUMPDEST SWAP2 POP POP SWAP3 SWAP2 POP POP JUMP JUMPDEST PUSH1 0x0 PUSH1 0x20 DUP3 DUP5 SUB SLT ISZERO PUSH2 0x16A5 JUMPI PUSH2 0x16A4 PUSH2 0x1B43 JUMP JUMPDEST JUMPDEST PUSH1 0x0 DUP3 ADD CALLDATALOAD PUSH8 0xFFFFFFFFFFFFFFFF DUP2 GT ISZERO PUSH2 0x16C3 JUMPI PUSH2 0x16C2 PUSH2 0x1B3E JUMP JUMPDEST JUMPDEST PUSH2 0x16CF DUP5 DUP3 DUP6 ADD PUSH2 0x15CD JUMP JUMPDEST SWAP2 POP POP SWAP3 SWAP2 POP POP JUMP JUMPDEST PUSH2 0x16E1 DUP2 PUSH2 0x19AD JUMP JUMPDEST DUP3 MSTORE POP POP JUMP JUMPDEST PUSH1 0x0 PUSH2 0x16F4 PUSH1 0x26 DUP4 PUSH2 0x188E JUMP JUMPDEST SWAP2 POP PUSH2 0x16FF DUP3 PUSH2 0x1B59 JUMP JUMPDEST PUSH1 0x40 DUP3 ADD SWAP1 POP SWAP2 SWAP1 POP JUMP JUMPDEST PUSH1 0x0 PUSH2 0x1717 PUSH1 0x16 DUP4 PUSH2 0x188E JUMP JUMPDEST SWAP2 POP PUSH2 0x1722 DUP3 PUSH2 0x1BA8 JUMP JUMPDEST PUSH1 0x20 DUP3 ADD SWAP1 POP SWAP2 SWAP1 POP JUMP JUMPDEST PUSH1 0x0 PUSH2 0x173A PUSH1 0x20 DUP4 PUSH2 0x188E JUMP JUMPDEST SWAP2 POP PUSH2 0x1745 DUP3 PUSH2 0x1BD1 JUMP JUMPDEST PUSH1 0x20 DUP3 ADD SWAP1 POP SWAP2 SWAP1 POP JUMP JUMPDEST PUSH1 0x0 PUSH2 0x175D PUSH1 0x28 DUP4 PUSH2 0x188E JUMP JUMPDEST SWAP2 POP PUSH2 0x1768 DUP3 PUSH2 0x1BFA JUMP JUMPDEST PUSH1 0x40 DUP3 ADD SWAP1 POP SWAP2 SWAP1 POP JUMP JUMPDEST PUSH2 0x177C DUP2 PUSH2 0x19DF JUMP JUMPDEST DUP3 MSTORE POP POP JUMP JUMPDEST PUSH1 0x0 PUSH1 0x20 DUP3 ADD SWAP1 POP PUSH2 0x1797 PUSH1 0x0 DUP4 ADD DUP5 PUSH2 0x16D8 JUMP JUMPDEST SWAP3 SWAP2 POP POP JUMP JUMPDEST PUSH1 0x0 PUSH1 0x20 DUP3 ADD SWAP1 POP DUP2 DUP2 SUB PUSH1 0x0 DUP4 ADD MSTORE PUSH2 0x17B6 DUP2 PUSH2 0x16E7 JUMP JUMPDEST SWAP1 POP SWAP2 SWAP1 POP JUMP JUMPDEST PUSH1 0x0 PUSH1 0x20 DUP3 ADD SWAP1 POP DUP2 DUP2 SUB PUSH1 0x0 DUP4 ADD MSTORE PUSH2 0x17D6 DUP2 PUSH2 0x170A JUMP JUMPDEST SWAP1 POP SWAP2 SWAP1 POP JUMP JUMPDEST PUSH1 0x0 PUSH1 0x20 DUP3 ADD SWAP1 POP DUP2 DUP2 SUB PUSH1 0x0 DUP4 ADD MSTORE PUSH2 0x17F6 DUP2 PUSH2 0x172D JUMP JUMPDEST SWAP1 POP SWAP2 SWAP1 POP JUMP JUMPDEST PUSH1 0x0 PUSH1 0x20 DUP3 ADD SWAP1 POP DUP2 DUP2 SUB PUSH1 0x0 DUP4 ADD MSTORE PUSH2 0x1816 DUP2 PUSH2 0x1750 JUMP JUMPDEST SWAP1 POP SWAP2 SWAP1 POP JUMP JUMPDEST PUSH1 0x0 PUSH1 0x20 DUP3 ADD SWAP1 POP PUSH2 0x1832 PUSH1 0x0 DUP4 ADD DUP5 PUSH2 0x1773 JUMP JUMPDEST SWAP3 SWAP2 POP POP JUMP JUMPDEST PUSH1 0x0 PUSH2 0x1842 PUSH2 0x1853 JUMP JUMPDEST SWAP1 POP PUSH2 0x184E DUP3 DUP3 PUSH2 0x1A0C JUMP JUMPDEST SWAP2 SWAP1 POP JUMP JUMPDEST PUSH1 0x0 PUSH1 0x40 MLOAD SWAP1 POP SWAP1 JUMP JUMPDEST PUSH1 0x0 PUSH8 0xFFFFFFFFFFFFFFFF DUP3 GT ISZERO PUSH2 0x1878 JUMPI PUSH2 0x1877 PUSH2 0x1AFB JUMP JUMPDEST JUMPDEST PUSH2 0x1881 DUP3 PUSH2 0x1B48 JUMP JUMPDEST SWAP1 POP PUSH1 0x20 DUP2 ADD SWAP1 POP SWAP2 SWAP1 POP JUMP JUMPDEST PUSH1 0x0 DUP3 DUP3 MSTORE PUSH1 0x20 DUP3 ADD SWAP1 POP SWAP3 SWAP2 POP POP JUMP JUMPDEST PUSH1 0x0 PUSH2 0x18AA DUP3 PUSH2 0x19E9 JUMP JUMPDEST SWAP2 POP PUSH2 0x18B5 DUP4 PUSH2 0x19E9 JUMP JUMPDEST SWAP3 POP DUP3 PUSH8 0xFFFFFFFFFFFFFFFF SUB DUP3 GT ISZERO PUSH2 0x18D2 JUMPI PUSH2 0x18D1 PUSH2 0x1A6E JUMP JUMPDEST JUMPDEST DUP3 DUP3 ADD SWAP1 POP SWAP3 SWAP2 POP POP JUMP JUMPDEST PUSH1 0x0 PUSH2 0x18E8 DUP3 PUSH2 0x19DF JUMP JUMPDEST SWAP2 POP PUSH2 0x18F3 DUP4 PUSH2 0x19DF JUMP JUMPDEST SWAP3 POP DUP2 PUSH32 0xFFFFFFFFFFFFFFFFFFFFFFFFFFFFFFFFFFFFFFFFFFFFFFFFFFFFFFFFFFFFFFFF DIV DUP4 GT DUP3 ISZERO ISZERO AND ISZERO PUSH2 0x192C JUMPI PUSH2 0x192B PUSH2 0x1A6E JUMP JUMPDEST JUMPDEST DUP3 DUP3 MUL SWAP1 POP SWAP3 SWAP2 POP POP JUMP JUMPDEST PUSH1 0x0 PUSH2 0x1942 DUP3 PUSH2 0x19E9 JUMP JUMPDEST SWAP2 POP PUSH2 0x194D DUP4 PUSH2 0x19E9 JUMP JUMPDEST SWAP3 POP DUP2 PUSH8 0xFFFFFFFFFFFFFFFF DIV DUP4 GT DUP3 ISZERO ISZERO AND ISZERO PUSH2 0x196E JUMPI PUSH2 0x196D PUSH2 0x1A6E JUMP JUMPDEST JUMPDEST DUP3 DUP3 MUL SWAP1 POP SWAP3 SWAP2 POP POP JUMP JUMPDEST PUSH1 0x0 PUSH2 0x1984 DUP3 PUSH2 0x19E9 JUMP JUMPDEST SWAP2 POP PUSH2 0x198F DUP4 PUSH2 0x19E9 JUMP JUMPDEST SWAP3 POP DUP3 DUP3 LT ISZERO PUSH2 0x19A2 JUMPI PUSH2 0x19A1 PUSH2 0x1A6E JUMP JUMPDEST JUMPDEST DUP3 DUP3 SUB SWAP1 POP SWAP3 SWAP2 POP POP JUMP JUMPDEST PUSH1 0x0 PUSH2 0x19B8 DUP3 PUSH2 0x19BF JUMP JUMPDEST SWAP1 POP SWAP2 SWAP1 POP JUMP JUMPDEST PUSH1 0x0 PUSH20 0xFFFFFFFFFFFFFFFFFFFFFFFFFFFFFFFFFFFFFFFF DUP3 AND SWAP1 POP SWAP2 SWAP1 POP JUMP JUMPDEST PUSH1 0x0 DUP2 SWAP1 POP SWAP2 SWAP1 POP JUMP JUMPDEST PUSH1 0x0 PUSH8 0xFFFFFFFFFFFFFFFF DUP3 AND SWAP1 POP SWAP2 SWAP1 POP JUMP JUMPDEST DUP3 DUP2 DUP4 CALLDATACOPY PUSH1 0x0 DUP4 DUP4 ADD MSTORE POP POP POP JUMP JUMPDEST PUSH2 0x1A15 DUP3 PUSH2 0x1B48 JUMP JUMPDEST DUP2 ADD DUP2 DUP2 LT PUSH8 0xFFFFFFFFFFFFFFFF DUP3 GT OR ISZERO PUSH2 0x1A34 JUMPI PUSH2 0x1A33 PUSH2 0x1AFB JUMP JUMPDEST JUMPDEST DUP1 PUSH1 0x40 MSTORE POP POP POP JUMP JUMPDEST PUSH1 0x0 PUSH2 0x1A48 DUP3 PUSH2 0x19E9 JUMP JUMPDEST SWAP2 POP PUSH8 0xFFFFFFFFFFFFFFFF DUP3 EQ ISZERO PUSH2 0x1A63 JUMPI PUSH2 0x1A62 PUSH2 0x1A6E JUMP JUMPDEST JUMPDEST PUSH1 0x1 DUP3 ADD SWAP1 POP SWAP2 SWAP1 POP JUMP JUMPDEST PUSH32 0x4E487B7100000000000000000000000000000000000000000000000000000000 PUSH1 0x0 MSTORE PUSH1 0x11 PUSH1 0x4 MSTORE PUSH1 0x24 PUSH1 0x0 REVERT JUMPDEST PUSH32 0x4E487B7100000000000000000000000000000000000000000000000000000000 PUSH1 0x0 MSTORE PUSH1 0x21 PUSH1 0x4 MSTORE PUSH1 0x24 PUSH1 0x0 REVERT JUMPDEST PUSH32 0x4E487B7100000000000000000000000000000000000000000000000000000000 PUSH1 0x0 MSTORE PUSH1 0x32 PUSH1 0x4 MSTORE PUSH1 0x24 PUSH1 0x0 REVERT JUMPDEST PUSH32 0x4E487B7100000000000000000000000000000000000000000000000000000000 PUSH1 0x0 MSTORE PUSH1 0x41 PUSH1 0x4 MSTORE PUSH1 0x24 PUSH1 0x0 REVERT JUMPDEST PUSH1 0x0 DUP1 REVERT JUMPDEST PUSH1 0x0 DUP1 REVERT JUMPDEST PUSH1 0x0 DUP1 REVERT JUMPDEST PUSH1 0x0 DUP1 REVERT JUMPDEST PUSH1 0x0 DUP1 REVERT JUMPDEST PUSH1 0x0 DUP1 REVERT JUMPDEST PUSH1 0x0 PUSH1 0x1F NOT PUSH1 0x1F DUP4 ADD AND SWAP1 POP SWAP2 SWAP1 POP JUMP JUMPDEST PUSH32 0x4F776E61626C653A206E6577206F776E657220697320746865207A65726F2061 PUSH1 0x0 DUP3 ADD MSTORE PUSH32 0x6464726573730000000000000000000000000000000000000000000000000000 PUSH1 0x20 DUP3 ADD MSTORE POP JUMP JUMPDEST PUSH32 0x496E76616C6964206164647265737320666F726D617400000000000000000000 PUSH1 0x0 DUP3 ADD MSTORE POP JUMP JUMPDEST PUSH32 0x4F776E61626C653A2063616C6C6572206973206E6F7420746865206F776E6572 PUSH1 0x0 DUP3 ADD MSTORE POP JUMP JUMPDEST PUSH32 0x414D4D437265617465645061796C6F616420646573657269616C697A6174696F PUSH1 0x0 DUP3 ADD MSTORE PUSH32 0x6E206661696C6564000000000000000000000000000000000000000000000000 PUSH1 0x20 DUP3 ADD MSTORE POP JUMP JUMPDEST PUSH2 0x1C52 DUP2 PUSH2 0x19AD JUMP JUMPDEST DUP2 EQ PUSH2 0x1C5D JUMPI PUSH1 0x0 DUP1 REVERT JUMPDEST POP JUMP JUMPDEST PUSH1 0x9 DUP2 LT PUSH2 0x1C6D JUMPI PUSH1 0x0 DUP1 REVERT JUMPDEST POP JUMP JUMPDEST PUSH2 0x1C79 DUP2 PUSH2 0x19E9 JUMP JUMPDEST DUP2 EQ PUSH2 0x1C84 JUMPI PUSH1 0x0 DUP1 REVERT JUMPDEST POP JUMP INVALID LOG2 PUSH5 0x6970667358 0x22 SLT KECCAK256 0xC2 PUSH32 0xE19EE9ED7308A8A6B7470017C76427623FF4911983BCF9F8210FFF9B0C406473 PUSH16 0x6C634300080600330000000000000000 "
		},
		"gasEstimates": {
			"creation": {
				"codeDepositCost": "1471400",
				"executionCost": "infinite",
				"totalCost": "infinite"
			},
			"external": {
				"owner()": "2567",
				"renounceOwnership()": "30421",
				"reset()": "infinite",
				"shares(address)": "2814",
				"spool((uint64,uint8,bytes))": "infinite",
				"token1()": "2536",
				"token2()": "2515",
				"transferOwnership(address)": "30813"
			},
			"internal": {
				"clear()": "infinite",
				"on(struct DomainEvent memory)": "infinite",
				"onCreated(struct AMMCreatedPayload memory)": "infinite"
			}
		},
		"methodIdentifiers": {
			"owner()": "8da5cb5b",
			"renounceOwnership()": "715018a6",
			"reset()": "d826f88f",
			"shares(address)": "ce7c2ac2",
			"spool((uint64,uint8,bytes))": "8fe8bb96",
			"token1()": "d21220a7",
			"token2()": "25be124e",
			"transferOwnership(address)": "f2fde38b"
		}
	},
	"abi": [
		{
			"anonymous": false,
			"inputs": [
				{
					"indexed": true,
					"internalType": "address",
					"name": "previousOwner",
					"type": "address"
				},
				{
					"indexed": true,
					"internalType": "address",
					"name": "newOwner",
					"type": "address"
				}
			],
			"name": "OwnershipTransferred",
			"type": "event"
		},
		{
			"inputs": [],
			"name": "owner",
			"outputs": [
				{
					"internalType": "address",
					"name": "",
					"type": "address"
				}
			],
			"stateMutability": "view",
			"type": "function"
		},
		{
			"inputs": [],
			"name": "renounceOwnership",
			"outputs": [],
			"stateMutability": "nonpayable",
			"type": "function"
		},
		{
			"inputs": [],
			"name": "reset",
			"outputs": [],
			"stateMutability": "nonpayable",
			"type": "function"
		},
		{
			"inputs": [
				{
					"internalType": "address",
					"name": "",
					"type": "address"
				}
			],
			"name": "shares",
			"outputs": [
				{
					"internalType": "uint256",
					"name": "",
					"type": "uint256"
				}
			],
			"stateMutability": "view",
			"type": "function"
		},
		{
			"inputs": [
				{
					"components": [
						{
							"internalType": "uint64",
							"name": "evnt_idx",
							"type": "uint64"
						},
						{
							"internalType": "enum DomainEventType",
							"name": "evnt_type",
							"type": "uint8"
						},
						{
							"internalType": "bytes",
							"name": "evnt_payload",
							"type": "bytes"
						}
					],
					"internalType": "struct DomainEvent",
					"name": "evnt",
					"type": "tuple"
				}
			],
			"name": "spool",
			"outputs": [],
			"stateMutability": "nonpayable",
			"type": "function"
		},
		{
			"inputs": [],
			"name": "token1",
			"outputs": [
				{
					"internalType": "address",
					"name": "",
					"type": "address"
				}
			],
			"stateMutability": "view",
			"type": "function"
		},
		{
			"inputs": [],
			"name": "token2",
			"outputs": [
				{
					"internalType": "address",
					"name": "",
					"type": "address"
				}
			],
			"stateMutability": "view",
			"type": "function"
		},
		{
			"inputs": [
				{
					"internalType": "address",
					"name": "newOwner",
					"type": "address"
				}
			],
			"name": "transferOwnership",
			"outputs": [],
			"stateMutability": "nonpayable",
			"type": "function"
		}
	]
}